{
  "_format": "hh-sol-artifact-1",
  "contractName": "Deb0x",
  "sourceName": "contracts/Deb0x.sol",
  "abi": [
    {
      "inputs": [
        {
          "internalType": "address",
          "name": "forwarder",
          "type": "address"
        }
      ],
      "stateMutability": "nonpayable",
      "type": "constructor"
    },
    {
      "anonymous": false,
      "inputs": [
        {
          "indexed": true,
          "internalType": "address",
          "name": "userAddress",
          "type": "address"
        },
        {
          "indexed": false,
          "internalType": "uint256",
          "name": "fees",
          "type": "uint256"
        },
        {
          "indexed": false,
          "internalType": "uint256",
          "name": "cycle",
          "type": "uint256"
        }
      ],
      "name": "FeesClaimed",
      "type": "event"
    },
    {
      "anonymous": false,
      "inputs": [
        {
          "indexed": true,
          "internalType": "address",
          "name": "userAddress",
          "type": "address"
        },
        {
          "indexed": false,
          "internalType": "uint256",
          "name": "fees",
          "type": "uint256"
        },
        {
          "indexed": false,
          "internalType": "uint256",
          "name": "cycle",
          "type": "uint256"
        }
      ],
      "name": "FrontEndFeesClaimed",
      "type": "event"
    },
    {
      "anonymous": false,
      "inputs": [
        {
          "indexed": true,
          "internalType": "address",
          "name": "userAddress",
          "type": "address"
        },
        {
          "indexed": false,
          "internalType": "uint256",
          "name": "amount",
          "type": "uint256"
        },
        {
          "indexed": false,
          "internalType": "uint256",
          "name": "cycle",
          "type": "uint256"
        }
      ],
      "name": "FrontEndRewardsClaimed",
      "type": "event"
    },
    {
      "anonymous": false,
      "inputs": [
        {
          "indexed": true,
          "internalType": "address",
          "name": "to",
          "type": "address"
        },
        {
          "indexed": true,
          "internalType": "bytes32",
          "name": "hash",
          "type": "bytes32"
        },
        {
          "indexed": false,
          "internalType": "string",
          "name": "value",
          "type": "string"
        }
      ],
      "name": "KeySet",
      "type": "event"
    },
    {
      "anonymous": false,
      "inputs": [
        {
          "indexed": true,
          "internalType": "uint256",
          "name": "currentCycle",
          "type": "uint256"
        },
        {
          "indexed": false,
          "internalType": "uint256",
          "name": "calculatedCycleReward",
          "type": "uint256"
        },
        {
          "indexed": false,
          "internalType": "uint256",
          "name": "summedCycleStakes",
          "type": "uint256"
        }
      ],
      "name": "NewCycleStarted",
      "type": "event"
    },
    {
      "anonymous": false,
      "inputs": [
        {
          "indexed": true,
          "internalType": "address",
          "name": "userAddress",
          "type": "address"
        },
        {
          "indexed": false,
          "internalType": "uint256",
          "name": "amount",
          "type": "uint256"
        },
        {
          "indexed": false,
          "internalType": "uint256",
          "name": "cycle",
          "type": "uint256"
        }
      ],
      "name": "RewardsClaimed",
      "type": "event"
    },
    {
      "anonymous": false,
      "inputs": [
        {
          "indexed": true,
          "internalType": "address",
          "name": "to",
          "type": "address"
        },
        {
          "indexed": true,
          "internalType": "address",
          "name": "from",
          "type": "address"
        },
        {
          "indexed": true,
          "internalType": "bytes32",
          "name": "hash",
          "type": "bytes32"
        },
        {
          "components": [
            {
              "internalType": "string",
              "name": "content",
              "type": "string"
            },
            {
              "internalType": "uint256",
              "name": "timestamp",
              "type": "uint256"
            }
          ],
          "indexed": false,
          "internalType": "struct Deb0xCore.Envelope",
          "name": "body",
          "type": "tuple"
        },
        {
          "indexed": false,
          "internalType": "uint256",
          "name": "sentId",
          "type": "uint256"
        }
      ],
      "name": "Sent",
      "type": "event"
    },
    {
      "anonymous": false,
      "inputs": [
        {
          "indexed": true,
          "internalType": "address",
          "name": "userAddress",
          "type": "address"
        },
        {
          "indexed": false,
          "internalType": "uint256",
          "name": "amount",
          "type": "uint256"
        },
        {
          "indexed": false,
          "internalType": "uint256",
          "name": "cycle",
          "type": "uint256"
        }
      ],
      "name": "Staked",
      "type": "event"
    },
    {
      "anonymous": false,
      "inputs": [
        {
          "indexed": true,
          "internalType": "address",
          "name": "userAddress",
          "type": "address"
        },
        {
          "indexed": false,
          "internalType": "uint256",
          "name": "amount",
          "type": "uint256"
        },
        {
          "indexed": false,
          "internalType": "uint256",
          "name": "cycle",
          "type": "uint256"
        }
      ],
      "name": "Unstaked",
      "type": "event"
    },
    {
      "inputs": [],
      "name": "MAIL_FEE",
      "outputs": [
        {
          "internalType": "uint16",
          "name": "",
          "type": "uint16"
        }
      ],
      "stateMutability": "view",
      "type": "function"
    },
    {
      "inputs": [
        {
          "internalType": "address",
          "name": "",
          "type": "address"
        }
      ],
      "name": "addressAccruedFees",
      "outputs": [
        {
          "internalType": "uint256",
          "name": "",
          "type": "uint256"
        }
      ],
      "stateMutability": "view",
      "type": "function"
    },
    {
      "inputs": [
        {
          "internalType": "address",
          "name": "",
          "type": "address"
        }
      ],
      "name": "addressRewards",
      "outputs": [
        {
          "internalType": "uint256",
          "name": "",
          "type": "uint256"
        }
      ],
      "stateMutability": "view",
      "type": "function"
    },
    {
      "inputs": [],
      "name": "calculateCycleReward",
      "outputs": [
        {
          "internalType": "uint256",
          "name": "",
          "type": "uint256"
        }
      ],
      "stateMutability": "view",
      "type": "function"
    },
    {
      "inputs": [],
      "name": "claimFees",
      "outputs": [],
      "stateMutability": "nonpayable",
      "type": "function"
    },
    {
      "inputs": [],
      "name": "claimFrontEndFees",
      "outputs": [],
      "stateMutability": "nonpayable",
      "type": "function"
    },
    {
      "inputs": [],
      "name": "claimFrontEndRewards",
      "outputs": [],
      "stateMutability": "nonpayable",
      "type": "function"
    },
    {
      "inputs": [],
      "name": "claimRewards",
      "outputs": [],
      "stateMutability": "nonpayable",
      "type": "function"
    },
    {
      "inputs": [],
      "name": "contractBalance",
      "outputs": [
        {
          "internalType": "uint256",
          "name": "",
          "type": "uint256"
        }
      ],
      "stateMutability": "view",
      "type": "function"
    },
    {
      "inputs": [],
      "name": "currentStartedCycle",
      "outputs": [
        {
          "internalType": "uint256",
          "name": "",
          "type": "uint256"
        }
      ],
      "stateMutability": "view",
      "type": "function"
    },
    {
      "inputs": [
        {
          "internalType": "uint256",
          "name": "",
          "type": "uint256"
        }
      ],
      "name": "cycleAccruedFees",
      "outputs": [
        {
          "internalType": "uint256",
          "name": "",
          "type": "uint256"
        }
      ],
      "stateMutability": "view",
      "type": "function"
    },
    {
      "inputs": [
        {
          "internalType": "uint256",
          "name": "",
          "type": "uint256"
        }
      ],
      "name": "cycleFeesPerStake",
      "outputs": [
        {
          "internalType": "uint256",
          "name": "",
          "type": "uint256"
        }
      ],
      "stateMutability": "view",
      "type": "function"
    },
    {
      "inputs": [
        {
          "internalType": "uint256",
          "name": "",
          "type": "uint256"
        }
      ],
      "name": "cycleFeesPerStakeSummed",
      "outputs": [
        {
          "internalType": "uint256",
          "name": "",
          "type": "uint256"
        }
      ],
      "stateMutability": "view",
      "type": "function"
    },
    {
      "inputs": [],
      "name": "dbx",
      "outputs": [
        {
          "internalType": "contract DBX",
          "name": "",
          "type": "address"
        }
      ],
      "stateMutability": "view",
      "type": "function"
    },
    {
      "inputs": [],
      "name": "dividend",
      "outputs": [
        {
          "internalType": "uint256",
          "name": "",
          "type": "uint256"
        }
      ],
      "stateMutability": "view",
      "type": "function"
    },
    {
      "inputs": [
        {
          "internalType": "address",
          "name": "to",
          "type": "address"
        }
      ],
      "name": "fetchMessageSenders",
      "outputs": [
        {
          "internalType": "address[]",
          "name": "",
          "type": "address[]"
        }
      ],
      "stateMutability": "view",
      "type": "function"
    },
    {
      "inputs": [
        {
          "internalType": "address",
          "name": "to",
          "type": "address"
        },
        {
          "internalType": "address",
          "name": "from",
          "type": "address"
        }
      ],
      "name": "fetchMessages",
      "outputs": [
        {
          "components": [
            {
              "internalType": "string",
              "name": "content",
              "type": "string"
            },
            {
              "internalType": "uint256",
              "name": "timestamp",
              "type": "uint256"
            }
          ],
          "internalType": "struct Deb0xCore.Envelope[]",
          "name": "",
          "type": "tuple[]"
        }
      ],
      "stateMutability": "view",
      "type": "function"
    },
    {
      "inputs": [
        {
          "internalType": "address",
          "name": "sender",
          "type": "address"
        }
      ],
      "name": "fetchSentMessages",
      "outputs": [
        {
          "components": [
            {
              "internalType": "address[]",
              "name": "recipients",
              "type": "address[]"
            },
            {
              "components": [
                {
                  "internalType": "string",
                  "name": "content",
                  "type": "string"
                },
                {
                  "internalType": "uint256",
                  "name": "timestamp",
                  "type": "uint256"
                }
              ],
              "internalType": "struct Deb0xCore.Envelope",
              "name": "contentData",
              "type": "tuple"
            }
          ],
          "internalType": "struct Deb0xCore.sentMessage[]",
          "name": "",
          "type": "tuple[]"
        }
      ],
      "stateMutability": "view",
      "type": "function"
    },
    {
      "inputs": [],
      "name": "getCurrentCycle",
      "outputs": [
        {
          "internalType": "uint256",
          "name": "",
          "type": "uint256"
        }
      ],
      "stateMutability": "view",
      "type": "function"
    },
    {
      "inputs": [
        {
          "internalType": "address",
          "name": "account",
          "type": "address"
        }
      ],
      "name": "getKey",
      "outputs": [
        {
          "internalType": "string",
          "name": "",
          "type": "string"
        }
      ],
      "stateMutability": "view",
      "type": "function"
    },
    {
      "inputs": [
        {
          "internalType": "address",
          "name": "user",
          "type": "address"
        }
      ],
      "name": "getUnclaimedFees",
      "outputs": [
        {
          "internalType": "uint256",
          "name": "",
          "type": "uint256"
        }
      ],
      "stateMutability": "view",
      "type": "function"
    },
    {
      "inputs": [
        {
          "internalType": "address",
          "name": "user",
          "type": "address"
        }
      ],
      "name": "getUnclaimedRewards",
      "outputs": [
        {
          "internalType": "uint256",
          "name": "",
          "type": "uint256"
        }
      ],
      "stateMutability": "view",
      "type": "function"
    },
    {
      "inputs": [
        {
          "internalType": "address",
          "name": "staker",
          "type": "address"
        }
      ],
      "name": "getUserWithdrawableStake",
      "outputs": [
        {
          "internalType": "uint256",
          "name": "",
          "type": "uint256"
        }
      ],
      "stateMutability": "view",
      "type": "function"
    },
    {
      "inputs": [
        {
          "internalType": "address",
          "name": "forwarder",
          "type": "address"
        }
      ],
      "name": "isTrustedForwarder",
      "outputs": [
        {
          "internalType": "bool",
          "name": "",
          "type": "bool"
        }
      ],
      "stateMutability": "view",
      "type": "function"
    },
    {
      "inputs": [],
      "name": "pendingStakeWithdrawal",
      "outputs": [
        {
          "internalType": "uint256",
          "name": "",
          "type": "uint256"
        }
      ],
      "stateMutability": "view",
      "type": "function"
    },
    {
      "inputs": [
        {
          "internalType": "address",
          "name": "",
          "type": "address"
        }
      ],
      "name": "publicKeys",
      "outputs": [
        {
          "internalType": "string",
          "name": "",
          "type": "string"
        }
      ],
      "stateMutability": "view",
      "type": "function"
    },
    {
      "inputs": [
        {
          "internalType": "uint256",
          "name": "",
          "type": "uint256"
        }
      ],
      "name": "rewardPerCycle",
      "outputs": [
        {
          "internalType": "uint256",
          "name": "",
          "type": "uint256"
        }
      ],
      "stateMutability": "view",
      "type": "function"
    },
    {
      "inputs": [
        {
          "internalType": "address[]",
          "name": "to",
          "type": "address[]"
        },
        {
          "internalType": "string[]",
          "name": "payload",
          "type": "string[]"
        },
        {
          "internalType": "address",
          "name": "feeReceiver",
          "type": "address"
        },
        {
          "internalType": "uint256",
          "name": "msgFee",
          "type": "uint256"
        },
        {
          "internalType": "uint256",
          "name": "nativeTokenFee",
          "type": "uint256"
        }
      ],
      "name": "send",
      "outputs": [],
      "stateMutability": "payable",
      "type": "function"
    },
    {
      "inputs": [
        {
          "internalType": "address[]",
          "name": "recipients",
          "type": "address[]"
        },
        {
          "internalType": "string[]",
          "name": "cids",
          "type": "string[]"
        }
      ],
      "name": "send",
      "outputs": [],
      "stateMutability": "payable",
      "type": "function"
    },
    {
      "inputs": [
        {
          "internalType": "string",
          "name": "publicKey",
          "type": "string"
        }
      ],
      "name": "setKey",
      "outputs": [],
      "stateMutability": "nonpayable",
      "type": "function"
    },
    {
      "inputs": [
        {
          "internalType": "uint256",
          "name": "_amount",
          "type": "uint256"
        }
      ],
      "name": "stakeDBX",
      "outputs": [],
      "stateMutability": "nonpayable",
      "type": "function"
    },
    {
      "inputs": [
        {
          "internalType": "uint256",
          "name": "",
          "type": "uint256"
        }
      ],
      "name": "summedCycleStakes",
      "outputs": [
        {
          "internalType": "uint256",
          "name": "",
          "type": "uint256"
        }
      ],
      "stateMutability": "view",
      "type": "function"
    },
    {
      "inputs": [
        {
          "internalType": "uint256",
          "name": "_amount",
          "type": "uint256"
        }
      ],
      "name": "unstake",
      "outputs": [],
      "stateMutability": "nonpayable",
      "type": "function"
    },
    {
      "inputs": [
        {
          "internalType": "address",
          "name": "",
          "type": "address"
        }
      ],
      "name": "userWithdrawableStake",
      "outputs": [
        {
          "internalType": "uint256",
          "name": "",
          "type": "uint256"
        }
      ],
      "stateMutability": "view",
      "type": "function"
    }
  ],
  "bytecode": "0x60e06040523480156200001157600080fd5b506040516200c1a13803806200c1a18339818101604052810190620000379190620001bf565b80808073ffffffffffffffffffffffffffffffffffffffff1660808173ffffffffffffffffffffffffffffffffffffffff168152505050506040516200007d9062000147565b604051809103906000f0801580156200009a573d6000803e3d6000fd5b50600560006101000a81548173ffffffffffffffffffffffffffffffffffffffff021916908373ffffffffffffffffffffffffffffffffffffffff1602179055504260a081815250506201518060c0818152505068056bc75e2d6310000060068190555068056bc75e2d63100000601b60008081526020019081526020016000208190555068056bc75e2d63100000601a60008081526020019081526020016000208190555050620001f1565b611a19806200a78883390190565b600080fd5b600073ffffffffffffffffffffffffffffffffffffffff82169050919050565b600062000187826200015a565b9050919050565b62000199816200017a565b8114620001a557600080fd5b50565b600081519050620001b9816200018e565b92915050565b600060208284031215620001d857620001d762000155565b5b6000620001e884828501620001a8565b91505092915050565b60805160a05160c05161a5676200022160003960006171de015260006171ff0152600061371a015261a5676000f3fe6080604052600436106101f95760003560e01c80638b7afe2e1161010d578063bebc9dfc116100a0578063d294f0931161006f578063d294f0931461079d578063d6aef1c6146107b4578063ea6c77cd146107df578063f1b371e21461080a578063f68f0a3914610835576101f9565b8063bebc9dfc146106a9578063bf992dea146106e6578063c0d7332014610723578063c4235ae914610760576101f9565b8063a3d6f9a9116100dc578063a3d6f9a9146105db578063adc0f68614610618578063af42d10614610655578063be26ed7f1461067e576101f9565b80638b7afe2e1461051a57806393790f441461054557806395e982a9146105825780639f33626e146105bf576101f9565b8063572b6c05116101905780636d9384f91161015f5780636d9384f9146104305780636f044d371461046d5780637d818c23146104895780637e30d2b5146104b45780638b414de0146104dd576101f9565b8063572b6c051461034e57806358503a951461038b57806368f05769146103c857806369a69e29146103f3576101f9565b8063372500ab116101cc578063372500ab146102cc5780633e19eec3146102e35780634cd040fc146102fa57806352a398d814610311576101f9565b80630a00dc43146101fe5780630ece21541461023b5780630ff8cf9b146102785780632e17de78146102a3575b600080fd5b34801561020a57600080fd5b50610225600480360381019061022091906190a5565b610872565b60405161023291906190e1565b60405180910390f35b34801561024757600080fd5b50610262600480360381019061025d91906190a5565b61088a565b60405161026f91906190e1565b60405180910390f35b34801561028457600080fd5b5061028d6108a2565b60405161029a91906190e1565b60405180910390f35b3480156102af57600080fd5b506102ca60048036038101906102c591906190a5565b6108ae565b005b3480156102d857600080fd5b506102e1611c3d565b005b3480156102ef57600080fd5b506102f8612f7e565b005b34801561030657600080fd5b5061030f6131ea565b005b34801561031d57600080fd5b506103386004803603810190610333919061915a565b61353a565b6040516103459190619427565b60405180910390f35b34801561035a57600080fd5b506103756004803603810190610370919061915a565b613716565b6040516103829190619464565b60405180910390f35b34801561039757600080fd5b506103b260048036038101906103ad919061915a565b61376e565b6040516103bf91906194ee565b60405180910390f35b3480156103d457600080fd5b506103dd61383b565b6040516103ea91906190e1565b60405180910390f35b3480156103ff57600080fd5b5061041a6004803603810190610415919061915a565b613841565b60405161042791906190e1565b60405180910390f35b34801561043c57600080fd5b5061045760048036038101906104529190619510565b613b40565b6040516104649190619612565b60405180910390f35b61048760048036038101906104829190619912565b613cb8565b005b34801561049557600080fd5b5061049e61521b565b6040516104ab9190619a24565b60405180910390f35b3480156104c057600080fd5b506104db60048036038101906104d691906190a5565b615241565b005b3480156104e957600080fd5b5061050460048036038101906104ff919061915a565b6166c2565b60405161051191906190e1565b60405180910390f35b34801561052657600080fd5b5061052f6166da565b60405161053c91906190e1565b60405180910390f35b34801561055157600080fd5b5061056c6004803603810190610567919061915a565b6166e2565b6040516105799190619a89565b60405180910390f35b34801561058e57600080fd5b506105a960048036038101906105a4919061915a565b6167b3565b6040516105b691906190e1565b60405180910390f35b6105d960048036038101906105d49190619aab565b616a8f565b005b3480156105e757600080fd5b5061060260048036038101906105fd919061915a565b617049565b60405161060f9190619a89565b60405180910390f35b34801561062457600080fd5b5061063f600480360381019061063a91906190a5565b6170e9565b60405161064c91906190e1565b60405180910390f35b34801561066157600080fd5b5061067c60048036038101906106779190619b23565b617101565b005b34801561068a57600080fd5b506106936171da565b6040516106a091906190e1565b60405180910390f35b3480156106b557600080fd5b506106d060048036038101906106cb91906190a5565b617238565b6040516106dd91906190e1565b60405180910390f35b3480156106f257600080fd5b5061070d6004803603810190610708919061915a565b617250565b60405161071a91906190e1565b60405180910390f35b34801561072f57600080fd5b5061074a6004803603810190610745919061915a565b617802565b60405161075791906190e1565b60405180910390f35b34801561076c57600080fd5b50610787600480360381019061078291906190a5565b61781a565b60405161079491906190e1565b60405180910390f35b3480156107a957600080fd5b506107b2617832565b005b3480156107c057600080fd5b506107c9618a2d565b6040516107d691906190e1565b60405180910390f35b3480156107eb57600080fd5b506107f4618a51565b6040516108019190619b89565b60405180910390f35b34801561081657600080fd5b5061081f618a57565b60405161082c91906190e1565b60405180910390f35b34801561084157600080fd5b5061085c6004803603810190610857919061915a565b618a5d565b60405161086991906190e1565b60405180910390f35b601e6020528060005260406000206000915090505481565b601d6020528060005260406000206000915090505481565b670de0b6b3a764000081565b60006108b86171da565b90506009548111156108cc57806009819055505b600c54600954146108f6576001600a546108e69190619bd3565b600b81905550600c54600a819055505b600a5460095411801561092a57506000601f60006001600a546109199190619bd3565b815260200190815260200160002054145b156109c4576000601b6000600a54815260200190815260200160002054670de0b6b3a7640000601d6000600a548152602001908152602001600020546109709190619c07565b61097a9190619c90565b905080601f6000600b5481526020019081526020016000205461099d9190619bd3565b601f60006001600a546109b09190619bd3565b815260200190815260200160002081905550505b6109cc618a75565b601360008273ffffffffffffffffffffffffffffffffffffffff1673ffffffffffffffffffffffffffffffffffffffff16815260200190815260200160002054600954118015610a5c57506000601160008373ffffffffffffffffffffffffffffffffffffffff1673ffffffffffffffffffffffffffffffffffffffff1681526020019081526020016000205414155b15610d8c57600060126000601360008573ffffffffffffffffffffffffffffffffffffffff1673ffffffffffffffffffffffffffffffffffffffff16815260200190815260200160002054815260200190815260200160002054601a6000601360008673ffffffffffffffffffffffffffffffffffffffff1673ffffffffffffffffffffffffffffffffffffffff16815260200190815260200160002054815260200190815260200160002054601160008573ffffffffffffffffffffffffffffffffffffffff1673ffffffffffffffffffffffffffffffffffffffff16815260200190815260200160002054610b539190619c07565b610b5d9190619c90565b905080601760008473ffffffffffffffffffffffffffffffffffffffff1673ffffffffffffffffffffffffffffffffffffffff1681526020019081526020016000206000828254610bae9190619bd3565b925050819055506000600f60008473ffffffffffffffffffffffffffffffffffffffff1673ffffffffffffffffffffffffffffffffffffffff1681526020019081526020016000205414610d45576000601160008473ffffffffffffffffffffffffffffffffffffffff1673ffffffffffffffffffffffffffffffffffffffff1681526020019081526020016000205482610c499190619c90565b90506000612710600f60008673ffffffffffffffffffffffffffffffffffffffff1673ffffffffffffffffffffffffffffffffffffffff1681526020019081526020016000205483610c9b9190619c07565b610ca59190619c90565b905080601760008673ffffffffffffffffffffffffffffffffffffffff1673ffffffffffffffffffffffffffffffffffffffff1681526020019081526020016000206000828254610cf69190619cc1565b925050819055506000600f60008673ffffffffffffffffffffffffffffffffffffffff1673ffffffffffffffffffffffffffffffffffffffff1681526020019081526020016000208190555050505b6000601160008473ffffffffffffffffffffffffffffffffffffffff1673ffffffffffffffffffffffffffffffffffffffff16815260200190815260200160002081905550505b600a54600954118015610dec57506001600a54610da99190619bd3565b601c60008373ffffffffffffffffffffffffffffffffffffffff1673ffffffffffffffffffffffffffffffffffffffff1681526020019081526020016000205414155b15610fad57670de0b6b3a7640000601f6000601c60008573ffffffffffffffffffffffffffffffffffffffff1673ffffffffffffffffffffffffffffffffffffffff16815260200190815260200160002054815260200190815260200160002054601f60006001600a54610e609190619bd3565b815260200190815260200160002054610e799190619cc1565b601760008473ffffffffffffffffffffffffffffffffffffffff1673ffffffffffffffffffffffffffffffffffffffff16815260200190815260200160002054610ec39190619c07565b610ecd9190619c90565b601860008373ffffffffffffffffffffffffffffffffffffffff1673ffffffffffffffffffffffffffffffffffffffff16815260200190815260200160002054610f179190619bd3565b601860008373ffffffffffffffffffffffffffffffffffffffff1673ffffffffffffffffffffffffffffffffffffffff168152602001908152602001600020819055506001600a54610f699190619bd3565b601c60008373ffffffffffffffffffffffffffffffffffffffff1673ffffffffffffffffffffffffffffffffffffffff168152602001908152602001600020819055505b6000602260008373ffffffffffffffffffffffffffffffffffffffff1673ffffffffffffffffffffffffffffffffffffffff168152602001908152602001600020541415801561104957506000602260008373ffffffffffffffffffffffffffffffffffffffff1673ffffffffffffffffffffffffffffffffffffffff168152602001908152602001600020546009546110479190619cc1565b115b15611962576000602060008373ffffffffffffffffffffffffffffffffffffffff1673ffffffffffffffffffffffffffffffffffffffff1681526020019081526020016000206000602260008573ffffffffffffffffffffffffffffffffffffffff1673ffffffffffffffffffffffffffffffffffffffff16815260200190815260200160002054815260200190815260200160002054905080601760008473ffffffffffffffffffffffffffffffffffffffff1673ffffffffffffffffffffffffffffffffffffffff16815260200190815260200160002060008282546111319190619bd3565b9250508190555080602160008473ffffffffffffffffffffffffffffffffffffffff1673ffffffffffffffffffffffffffffffffffffffff16815260200190815260200160002060008282546111879190619bd3565b92505081905550670de0b6b3a7640000601f6000602260008673ffffffffffffffffffffffffffffffffffffffff1673ffffffffffffffffffffffffffffffffffffffff16815260200190815260200160002054815260200190815260200160002054601f60006001600a546111fd9190619bd3565b8152602001908152602001600020546112169190619cc1565b602060008573ffffffffffffffffffffffffffffffffffffffff1673ffffffffffffffffffffffffffffffffffffffff1681526020019081526020016000206000602260008773ffffffffffffffffffffffffffffffffffffffff1673ffffffffffffffffffffffffffffffffffffffff168152602001908152602001600020548152602001908152602001600020546112b09190619c07565b6112ba9190619c90565b601860008473ffffffffffffffffffffffffffffffffffffffff1673ffffffffffffffffffffffffffffffffffffffff168152602001908152602001600020546113049190619bd3565b601860008473ffffffffffffffffffffffffffffffffffffffff1673ffffffffffffffffffffffffffffffffffffffff168152602001908152602001600020819055506000602060008473ffffffffffffffffffffffffffffffffffffffff1673ffffffffffffffffffffffffffffffffffffffff1681526020019081526020016000206000602260008673ffffffffffffffffffffffffffffffffffffffff1673ffffffffffffffffffffffffffffffffffffffff168152602001908152602001600020548152602001908152602001600020819055506000602260008473ffffffffffffffffffffffffffffffffffffffff1673ffffffffffffffffffffffffffffffffffffffff168152602001908152602001600020819055506000602360008473ffffffffffffffffffffffffffffffffffffffff1673ffffffffffffffffffffffffffffffffffffffff1681526020019081526020016000205414611960576001602360008473ffffffffffffffffffffffffffffffffffffffff1673ffffffffffffffffffffffffffffffffffffffff168152602001908152602001600020546009546114b79190619cc1565b1115611896576000602060008473ffffffffffffffffffffffffffffffffffffffff1673ffffffffffffffffffffffffffffffffffffffff1681526020019081526020016000206000602360008673ffffffffffffffffffffffffffffffffffffffff1673ffffffffffffffffffffffffffffffffffffffff16815260200190815260200160002054815260200190815260200160002054905080601760008573ffffffffffffffffffffffffffffffffffffffff1673ffffffffffffffffffffffffffffffffffffffff16815260200190815260200160002060008282546115a09190619bd3565b9250508190555080602160008573ffffffffffffffffffffffffffffffffffffffff1673ffffffffffffffffffffffffffffffffffffffff16815260200190815260200160002060008282546115f69190619bd3565b92505081905550670de0b6b3a7640000601f6000602360008773ffffffffffffffffffffffffffffffffffffffff1673ffffffffffffffffffffffffffffffffffffffff16815260200190815260200160002054815260200190815260200160002054601f60006001600a5461166c9190619bd3565b8152602001908152602001600020546116859190619cc1565b602060008673ffffffffffffffffffffffffffffffffffffffff1673ffffffffffffffffffffffffffffffffffffffff1681526020019081526020016000206000602360008873ffffffffffffffffffffffffffffffffffffffff1673ffffffffffffffffffffffffffffffffffffffff1681526020019081526020016000205481526020019081526020016000205461171f9190619c07565b6117299190619c90565b601860008573ffffffffffffffffffffffffffffffffffffffff1673ffffffffffffffffffffffffffffffffffffffff168152602001908152602001600020546117739190619bd3565b601860008573ffffffffffffffffffffffffffffffffffffffff1673ffffffffffffffffffffffffffffffffffffffff168152602001908152602001600020819055506000602060008573ffffffffffffffffffffffffffffffffffffffff1673ffffffffffffffffffffffffffffffffffffffff1681526020019081526020016000206000602360008773ffffffffffffffffffffffffffffffffffffffff1673ffffffffffffffffffffffffffffffffffffffff168152602001908152602001600020548152602001908152602001600020819055506000602360008573ffffffffffffffffffffffffffffffffffffffff1673ffffffffffffffffffffffffffffffffffffffff168152602001908152602001600020819055505061195f565b602360008373ffffffffffffffffffffffffffffffffffffffff1673ffffffffffffffffffffffffffffffffffffffff16815260200190815260200160002054602260008473ffffffffffffffffffffffffffffffffffffffff1673ffffffffffffffffffffffffffffffffffffffff168152602001908152602001600020819055506000602360008473ffffffffffffffffffffffffffffffffffffffff1673ffffffffffffffffffffffffffffffffffffffff168152602001908152602001600020819055505b5b505b600083036119a5576040517f08c379a000000000000000000000000000000000000000000000000000000000815260040161199c90619d41565b60405180910390fd5b602160006119b1618a75565b73ffffffffffffffffffffffffffffffffffffffff1673ffffffffffffffffffffffffffffffffffffffff16815260200190815260200160002054831115611a2e576040517f08c379a0000000000000000000000000000000000000000000000000000000008152600401611a2590619dd3565b60405180910390fd5b600c54600a5403611a575782600e6000828254611a4b9190619bd3565b92505081905550611a84565b82601b600060095481526020019081526020016000206000828254611a7c9190619cc1565b925050819055505b8260216000611a91618a75565b73ffffffffffffffffffffffffffffffffffffffff1673ffffffffffffffffffffffffffffffffffffffff1681526020019081526020016000206000828254611ada9190619cc1565b925050819055508260176000611aee618a75565b73ffffffffffffffffffffffffffffffffffffffff1673ffffffffffffffffffffffffffffffffffffffff1681526020019081526020016000206000828254611b379190619cc1565b92505081905550600560009054906101000a900473ffffffffffffffffffffffffffffffffffffffff1673ffffffffffffffffffffffffffffffffffffffff1663a9059cbb611b84618a75565b856040518363ffffffff1660e01b8152600401611ba2929190619e02565b6020604051808303816000875af1158015611bc1573d6000803e3d6000fd5b505050506040513d601f19601f82011682018060405250810190611be59190619e57565b503373ffffffffffffffffffffffffffffffffffffffff167f7fc4727e062e336010f2c282598ef5f14facb3de68cf8195c2f23e1454b2b74e84600954604051611c30929190619e84565b60405180910390a2505050565b6000611c476171da565b9050600954811115611c5b57806009819055505b600c5460095414611c85576001600a54611c759190619bd3565b600b81905550600c54600a819055505b600a54600954118015611cb957506000601f60006001600a54611ca89190619bd3565b815260200190815260200160002054145b15611d53576000601b6000600a54815260200190815260200160002054670de0b6b3a7640000601d6000600a54815260200190815260200160002054611cff9190619c07565b611d099190619c90565b905080601f6000600b54815260200190815260200160002054611d2c9190619bd3565b601f60006001600a54611d3f9190619bd3565b815260200190815260200160002081905550505b611d5b618a75565b601360008273ffffffffffffffffffffffffffffffffffffffff1673ffffffffffffffffffffffffffffffffffffffff16815260200190815260200160002054600954118015611deb57506000601160008373ffffffffffffffffffffffffffffffffffffffff1673ffffffffffffffffffffffffffffffffffffffff1681526020019081526020016000205414155b1561211b57600060126000601360008573ffffffffffffffffffffffffffffffffffffffff1673ffffffffffffffffffffffffffffffffffffffff16815260200190815260200160002054815260200190815260200160002054601a6000601360008673ffffffffffffffffffffffffffffffffffffffff1673ffffffffffffffffffffffffffffffffffffffff16815260200190815260200160002054815260200190815260200160002054601160008573ffffffffffffffffffffffffffffffffffffffff1673ffffffffffffffffffffffffffffffffffffffff16815260200190815260200160002054611ee29190619c07565b611eec9190619c90565b905080601760008473ffffffffffffffffffffffffffffffffffffffff1673ffffffffffffffffffffffffffffffffffffffff1681526020019081526020016000206000828254611f3d9190619bd3565b925050819055506000600f60008473ffffffffffffffffffffffffffffffffffffffff1673ffffffffffffffffffffffffffffffffffffffff16815260200190815260200160002054146120d4576000601160008473ffffffffffffffffffffffffffffffffffffffff1673ffffffffffffffffffffffffffffffffffffffff1681526020019081526020016000205482611fd89190619c90565b90506000612710600f60008673ffffffffffffffffffffffffffffffffffffffff1673ffffffffffffffffffffffffffffffffffffffff168152602001908152602001600020548361202a9190619c07565b6120349190619c90565b905080601760008673ffffffffffffffffffffffffffffffffffffffff1673ffffffffffffffffffffffffffffffffffffffff16815260200190815260200160002060008282546120859190619cc1565b925050819055506000600f60008673ffffffffffffffffffffffffffffffffffffffff1673ffffffffffffffffffffffffffffffffffffffff1681526020019081526020016000208190555050505b6000601160008473ffffffffffffffffffffffffffffffffffffffff1673ffffffffffffffffffffffffffffffffffffffff16815260200190815260200160002081905550505b600a5460095411801561217b57506001600a546121389190619bd3565b601c60008373ffffffffffffffffffffffffffffffffffffffff1673ffffffffffffffffffffffffffffffffffffffff1681526020019081526020016000205414155b1561233c57670de0b6b3a7640000601f6000601c60008573ffffffffffffffffffffffffffffffffffffffff1673ffffffffffffffffffffffffffffffffffffffff16815260200190815260200160002054815260200190815260200160002054601f60006001600a546121ef9190619bd3565b8152602001908152602001600020546122089190619cc1565b601760008473ffffffffffffffffffffffffffffffffffffffff1673ffffffffffffffffffffffffffffffffffffffff168152602001908152602001600020546122529190619c07565b61225c9190619c90565b601860008373ffffffffffffffffffffffffffffffffffffffff1673ffffffffffffffffffffffffffffffffffffffff168152602001908152602001600020546122a69190619bd3565b601860008373ffffffffffffffffffffffffffffffffffffffff1673ffffffffffffffffffffffffffffffffffffffff168152602001908152602001600020819055506001600a546122f89190619bd3565b601c60008373ffffffffffffffffffffffffffffffffffffffff1673ffffffffffffffffffffffffffffffffffffffff168152602001908152602001600020819055505b6000602260008373ffffffffffffffffffffffffffffffffffffffff1673ffffffffffffffffffffffffffffffffffffffff16815260200190815260200160002054141580156123d857506000602260008373ffffffffffffffffffffffffffffffffffffffff1673ffffffffffffffffffffffffffffffffffffffff168152602001908152602001600020546009546123d69190619cc1565b115b15612cf1576000602060008373ffffffffffffffffffffffffffffffffffffffff1673ffffffffffffffffffffffffffffffffffffffff1681526020019081526020016000206000602260008573ffffffffffffffffffffffffffffffffffffffff1673ffffffffffffffffffffffffffffffffffffffff16815260200190815260200160002054815260200190815260200160002054905080601760008473ffffffffffffffffffffffffffffffffffffffff1673ffffffffffffffffffffffffffffffffffffffff16815260200190815260200160002060008282546124c09190619bd3565b9250508190555080602160008473ffffffffffffffffffffffffffffffffffffffff1673ffffffffffffffffffffffffffffffffffffffff16815260200190815260200160002060008282546125169190619bd3565b92505081905550670de0b6b3a7640000601f6000602260008673ffffffffffffffffffffffffffffffffffffffff1673ffffffffffffffffffffffffffffffffffffffff16815260200190815260200160002054815260200190815260200160002054601f60006001600a5461258c9190619bd3565b8152602001908152602001600020546125a59190619cc1565b602060008573ffffffffffffffffffffffffffffffffffffffff1673ffffffffffffffffffffffffffffffffffffffff1681526020019081526020016000206000602260008773ffffffffffffffffffffffffffffffffffffffff1673ffffffffffffffffffffffffffffffffffffffff1681526020019081526020016000205481526020019081526020016000205461263f9190619c07565b6126499190619c90565b601860008473ffffffffffffffffffffffffffffffffffffffff1673ffffffffffffffffffffffffffffffffffffffff168152602001908152602001600020546126939190619bd3565b601860008473ffffffffffffffffffffffffffffffffffffffff1673ffffffffffffffffffffffffffffffffffffffff168152602001908152602001600020819055506000602060008473ffffffffffffffffffffffffffffffffffffffff1673ffffffffffffffffffffffffffffffffffffffff1681526020019081526020016000206000602260008673ffffffffffffffffffffffffffffffffffffffff1673ffffffffffffffffffffffffffffffffffffffff168152602001908152602001600020548152602001908152602001600020819055506000602260008473ffffffffffffffffffffffffffffffffffffffff1673ffffffffffffffffffffffffffffffffffffffff168152602001908152602001600020819055506000602360008473ffffffffffffffffffffffffffffffffffffffff1673ffffffffffffffffffffffffffffffffffffffff1681526020019081526020016000205414612cef576001602360008473ffffffffffffffffffffffffffffffffffffffff1673ffffffffffffffffffffffffffffffffffffffff168152602001908152602001600020546009546128469190619cc1565b1115612c25576000602060008473ffffffffffffffffffffffffffffffffffffffff1673ffffffffffffffffffffffffffffffffffffffff1681526020019081526020016000206000602360008673ffffffffffffffffffffffffffffffffffffffff1673ffffffffffffffffffffffffffffffffffffffff16815260200190815260200160002054815260200190815260200160002054905080601760008573ffffffffffffffffffffffffffffffffffffffff1673ffffffffffffffffffffffffffffffffffffffff168152602001908152602001600020600082825461292f9190619bd3565b9250508190555080602160008573ffffffffffffffffffffffffffffffffffffffff1673ffffffffffffffffffffffffffffffffffffffff16815260200190815260200160002060008282546129859190619bd3565b92505081905550670de0b6b3a7640000601f6000602360008773ffffffffffffffffffffffffffffffffffffffff1673ffffffffffffffffffffffffffffffffffffffff16815260200190815260200160002054815260200190815260200160002054601f60006001600a546129fb9190619bd3565b815260200190815260200160002054612a149190619cc1565b602060008673ffffffffffffffffffffffffffffffffffffffff1673ffffffffffffffffffffffffffffffffffffffff1681526020019081526020016000206000602360008873ffffffffffffffffffffffffffffffffffffffff1673ffffffffffffffffffffffffffffffffffffffff16815260200190815260200160002054815260200190815260200160002054612aae9190619c07565b612ab89190619c90565b601860008573ffffffffffffffffffffffffffffffffffffffff1673ffffffffffffffffffffffffffffffffffffffff16815260200190815260200160002054612b029190619bd3565b601860008573ffffffffffffffffffffffffffffffffffffffff1673ffffffffffffffffffffffffffffffffffffffff168152602001908152602001600020819055506000602060008573ffffffffffffffffffffffffffffffffffffffff1673ffffffffffffffffffffffffffffffffffffffff1681526020019081526020016000206000602360008773ffffffffffffffffffffffffffffffffffffffff1673ffffffffffffffffffffffffffffffffffffffff168152602001908152602001600020548152602001908152602001600020819055506000602360008573ffffffffffffffffffffffffffffffffffffffff1673ffffffffffffffffffffffffffffffffffffffff1681526020019081526020016000208190555050612cee565b602360008373ffffffffffffffffffffffffffffffffffffffff1673ffffffffffffffffffffffffffffffffffffffff16815260200190815260200160002054602260008473ffffffffffffffffffffffffffffffffffffffff1673ffffffffffffffffffffffffffffffffffffffff168152602001908152602001600020819055506000602360008473ffffffffffffffffffffffffffffffffffffffff1673ffffffffffffffffffffffffffffffffffffffff168152602001908152602001600020819055505b5b505b600060216000612cff618a75565b73ffffffffffffffffffffffffffffffffffffffff1673ffffffffffffffffffffffffffffffffffffffff1681526020019081526020016000205460176000612d46618a75565b73ffffffffffffffffffffffffffffffffffffffff1673ffffffffffffffffffffffffffffffffffffffff16815260200190815260200160002054612d8b9190619cc1565b905060008111612dd0576040517f08c379a0000000000000000000000000000000000000000000000000000000008152600401612dc790619ef9565b60405180910390fd5b8060176000612ddd618a75565b73ffffffffffffffffffffffffffffffffffffffff1673ffffffffffffffffffffffffffffffffffffffff1681526020019081526020016000206000828254612e269190619cc1565b92505081905550600c54600a5403612e565780600e6000828254612e4a9190619bd3565b92505081905550612e91565b80601b6000600954815260200190815260200160002054612e779190619cc1565b601b60006009548152602001908152602001600020819055505b3373ffffffffffffffffffffffffffffffffffffffff167fdacbdde355ba930696a362ea6738feb9f8bd52dfb3d81947558fd3217e23e32582600954604051612edb929190619e84565b60405180910390a2600560009054906101000a900473ffffffffffffffffffffffffffffffffffffffff1673ffffffffffffffffffffffffffffffffffffffff16639a49090e612f29618a75565b836040518363ffffffff1660e01b8152600401612f47929190619e02565b600060405180830381600087803b158015612f6157600080fd5b505af1158015612f75573d6000803e3d6000fd5b50505050505050565b6000612f886171da565b9050600954811115612f9c57806009819055505b600c5460095414612fc6576001600a54612fb69190619bd3565b600b81905550600c54600a819055505b600a54600954118015612ffa57506000601f60006001600a54612fe99190619bd3565b815260200190815260200160002054145b15613094576000601b6000600a54815260200190815260200160002054670de0b6b3a7640000601d6000600a548152602001908152602001600020546130409190619c07565b61304a9190619c90565b905080601f6000600b5481526020019081526020016000205461306d9190619bd3565b601f60006001600a546130809190619bd3565b815260200190815260200160002081905550505b6130a461309f618a75565b618aa7565b6000601660006130b2618a75565b73ffffffffffffffffffffffffffffffffffffffff1673ffffffffffffffffffffffffffffffffffffffff16815260200190815260200160002054905060008111613132576040517f08c379a000000000000000000000000000000000000000000000000000000000815260040161312990619f8b565b60405180910390fd5b600060166000613140618a75565b73ffffffffffffffffffffffffffffffffffffffff1673ffffffffffffffffffffffffffffffffffffffff1681526020019081526020016000208190555061318f613189618a75565b82618efb565b3373ffffffffffffffffffffffffffffffffffffffff167f6adcbba8d7bedc5f07c03fc8c09c792782ef1f447ee999f000294385dc1d7210826131d06171da565b6040516131de929190619e84565b60405180910390a25050565b60006131f46171da565b905060095481111561320857806009819055505b600c5460095414613232576001600a546132229190619bd3565b600b81905550600c54600a819055505b600a5460095411801561326657506000601f60006001600a546132559190619bd3565b815260200190815260200160002054145b15613300576000601b6000600a54815260200190815260200160002054670de0b6b3a7640000601d6000600a548152602001908152602001600020546132ac9190619c07565b6132b69190619c90565b905080601f6000600b548152602001908152602001600020546132d99190619bd3565b601f60006001600a546132ec9190619bd3565b815260200190815260200160002081905550505b61331061330b618a75565b618aa7565b60006019600061331e618a75565b73ffffffffffffffffffffffffffffffffffffffff1673ffffffffffffffffffffffffffffffffffffffff1681526020019081526020016000205490506000811161339e576040517f08c379a000000000000000000000000000000000000000000000000000000000815260040161339590619ef9565b60405180910390fd5b6000601960006133ac618a75565b73ffffffffffffffffffffffffffffffffffffffff1673ffffffffffffffffffffffffffffffffffffffff16815260200190815260200160002081905550600c54600a54036134135780600e60008282546134079190619bd3565b9250508190555061344e565b80601b60006009548152602001908152602001600020546134349190619cc1565b601b60006009548152602001908152602001600020819055505b3373ffffffffffffffffffffffffffffffffffffffff167fb117cef0e0c00f448a245f21ca5209b43da3c64dce6f44eabbbcd44ab715601882600954604051613498929190619e84565b60405180910390a2600560009054906101000a900473ffffffffffffffffffffffffffffffffffffffff1673ffffffffffffffffffffffffffffffffffffffff16639a49090e6134e6618a75565b836040518363ffffffff1660e01b8152600401613504929190619e02565b600060405180830381600087803b15801561351e57600080fd5b505af1158015613532573d6000803e3d6000fd5b505050505050565b6060600360008373ffffffffffffffffffffffffffffffffffffffff1673ffffffffffffffffffffffffffffffffffffffff168152602001908152602001600020805480602002602001604051908101604052809291908181526020016000905b8282101561370b57838290600052602060002090600302016040518060400160405290816000820180548060200260200160405190810160405280929190818152602001828054801561364357602002820191906000526020600020905b8160009054906101000a900473ffffffffffffffffffffffffffffffffffffffff1673ffffffffffffffffffffffffffffffffffffffff16815260200190600101908083116135f9575b505050505081526020016001820160405180604001604052908160008201805461366c90619fda565b80601f016020809104026020016040519081016040528092919081815260200182805461369890619fda565b80156136e55780601f106136ba576101008083540402835291602001916136e5565b820191906000526020600020905b8154815290600101906020018083116136c857829003601f168201915b50505050508152602001600182015481525050815250508152602001906001019061359b565b505050509050919050565b60007f000000000000000000000000000000000000000000000000000000000000000073ffffffffffffffffffffffffffffffffffffffff168273ffffffffffffffffffffffffffffffffffffffff16149050919050565b6060600460008373ffffffffffffffffffffffffffffffffffffffff1673ffffffffffffffffffffffffffffffffffffffff16815260200190815260200160002080548060200260200160405190810160405280929190818152602001828054801561382f57602002820191906000526020600020905b8160009054906101000a900473ffffffffffffffffffffffffffffffffffffffff1673ffffffffffffffffffffffffffffffffffffffff16815260200190600101908083116137e5575b50505050509050919050565b600e5481565b600080601760008473ffffffffffffffffffffffffffffffffffffffff1673ffffffffffffffffffffffffffffffffffffffff16815260200190815260200160002054905060006138906171da565b9050601360008573ffffffffffffffffffffffffffffffffffffffff1673ffffffffffffffffffffffffffffffffffffffff168152602001908152602001600020548111801561392057506000601160008673ffffffffffffffffffffffffffffffffffffffff1673ffffffffffffffffffffffffffffffffffffffff1681526020019081526020016000205414155b15613b3657600060126000601360008873ffffffffffffffffffffffffffffffffffffffff1673ffffffffffffffffffffffffffffffffffffffff16815260200190815260200160002054815260200190815260200160002054601a6000601360008973ffffffffffffffffffffffffffffffffffffffff1673ffffffffffffffffffffffffffffffffffffffff16815260200190815260200160002054815260200190815260200160002054601160008873ffffffffffffffffffffffffffffffffffffffff1673ffffffffffffffffffffffffffffffffffffffff16815260200190815260200160002054613a179190619c07565b613a219190619c90565b90508083613a2f9190619bd3565b92506000600f60008773ffffffffffffffffffffffffffffffffffffffff1673ffffffffffffffffffffffffffffffffffffffff1681526020019081526020016000205414613b34576000601160008773ffffffffffffffffffffffffffffffffffffffff1673ffffffffffffffffffffffffffffffffffffffff1681526020019081526020016000205482613ac59190619c90565b90506000612710600f60008973ffffffffffffffffffffffffffffffffffffffff1673ffffffffffffffffffffffffffffffffffffffff1681526020019081526020016000205483613b179190619c07565b613b219190619c90565b90508085613b2f9190619cc1565b945050505b505b8192505050919050565b6060600260008473ffffffffffffffffffffffffffffffffffffffff1673ffffffffffffffffffffffffffffffffffffffff16815260200190815260200160002060008373ffffffffffffffffffffffffffffffffffffffff1673ffffffffffffffffffffffffffffffffffffffff168152602001908152602001600020805480602002602001604051908101604052809291908181526020016000905b82821015613cac5783829060005260206000209060020201604051806040016040529081600082018054613c1190619fda565b80601f0160208091040260200160405190810160405280929190818152602001828054613c3d90619fda565b8015613c8a5780601f10613c5f57610100808354040283529160200191613c8a565b820191906000526020600020905b815481529060010190602001808311613c6d57829003601f168201915b5050505050815260200160018201548152505081526020019060010190613bde565b50505050905092915050565b8060005a90506000613cc86171da565b9050600954811115613cdc57806009819055505b600c5460095414613d06576001600a54613cf69190619bd3565b600b81905550600c54600a819055505b600a54600954118015613d3a57506000601f60006001600a54613d299190619bd3565b815260200190815260200160002054145b15613dd4576000601b6000600a54815260200190815260200160002054670de0b6b3a7640000601d6000600a54815260200190815260200160002054613d809190619c07565b613d8a9190619c90565b905080601f6000600b54815260200190815260200160002054613dad9190619bd3565b601f60006001600a54613dc09190619bd3565b815260200190815260200160002081905550505b6000601a600060095481526020019081526020016000205403613f5a576006546007819055506000613e04618a2d565b90508060068190555080601a600060095481526020019081526020016000208190555080600d81905550600954600c81905550600654601b6000600a54815260200190815260200160002054613e5a9190619bd3565b601b6000600c5481526020019081526020016000206000828254613e7e9190619bd3565b92505081905550600060085414613ec657600854601b6000600c5481526020019081526020016000206000828254613eb69190619bd3565b9250508190555060006008819055505b6000600e5414613f0757600e54601b6000600c5481526020019081526020016000206000828254613ef79190619cc1565b925050819055506000600e819055505b6009547f0666a61c1092f5b86c2cfe6ea1ad0d9a36032c4fb92d285b4e43f662d48f19b482601b6000600c54815260200190815260200160002054604051613f50929190619e84565b60405180910390a2505b613f62618a75565b601360008273ffffffffffffffffffffffffffffffffffffffff1673ffffffffffffffffffffffffffffffffffffffff16815260200190815260200160002054600954118015613ff257506000601160008373ffffffffffffffffffffffffffffffffffffffff1673ffffffffffffffffffffffffffffffffffffffff1681526020019081526020016000205414155b1561432257600060126000601360008573ffffffffffffffffffffffffffffffffffffffff1673ffffffffffffffffffffffffffffffffffffffff16815260200190815260200160002054815260200190815260200160002054601a6000601360008673ffffffffffffffffffffffffffffffffffffffff1673ffffffffffffffffffffffffffffffffffffffff16815260200190815260200160002054815260200190815260200160002054601160008573ffffffffffffffffffffffffffffffffffffffff1673ffffffffffffffffffffffffffffffffffffffff168152602001908152602001600020546140e99190619c07565b6140f39190619c90565b905080601760008473ffffffffffffffffffffffffffffffffffffffff1673ffffffffffffffffffffffffffffffffffffffff16815260200190815260200160002060008282546141449190619bd3565b925050819055506000600f60008473ffffffffffffffffffffffffffffffffffffffff1673ffffffffffffffffffffffffffffffffffffffff16815260200190815260200160002054146142db576000601160008473ffffffffffffffffffffffffffffffffffffffff1673ffffffffffffffffffffffffffffffffffffffff16815260200190815260200160002054826141df9190619c90565b90506000612710600f60008673ffffffffffffffffffffffffffffffffffffffff1673ffffffffffffffffffffffffffffffffffffffff16815260200190815260200160002054836142319190619c07565b61423b9190619c90565b905080601760008673ffffffffffffffffffffffffffffffffffffffff1673ffffffffffffffffffffffffffffffffffffffff168152602001908152602001600020600082825461428c9190619cc1565b925050819055506000600f60008673ffffffffffffffffffffffffffffffffffffffff1673ffffffffffffffffffffffffffffffffffffffff1681526020019081526020016000208190555050505b6000601160008473ffffffffffffffffffffffffffffffffffffffff1673ffffffffffffffffffffffffffffffffffffffff16815260200190815260200160002081905550505b600a5460095411801561438257506001600a5461433f9190619bd3565b601c60008373ffffffffffffffffffffffffffffffffffffffff1673ffffffffffffffffffffffffffffffffffffffff1681526020019081526020016000205414155b1561454357670de0b6b3a7640000601f6000601c60008573ffffffffffffffffffffffffffffffffffffffff1673ffffffffffffffffffffffffffffffffffffffff16815260200190815260200160002054815260200190815260200160002054601f60006001600a546143f69190619bd3565b81526020019081526020016000205461440f9190619cc1565b601760008473ffffffffffffffffffffffffffffffffffffffff1673ffffffffffffffffffffffffffffffffffffffff168152602001908152602001600020546144599190619c07565b6144639190619c90565b601860008373ffffffffffffffffffffffffffffffffffffffff1673ffffffffffffffffffffffffffffffffffffffff168152602001908152602001600020546144ad9190619bd3565b601860008373ffffffffffffffffffffffffffffffffffffffff1673ffffffffffffffffffffffffffffffffffffffff168152602001908152602001600020819055506001600a546144ff9190619bd3565b601c60008373ffffffffffffffffffffffffffffffffffffffff1673ffffffffffffffffffffffffffffffffffffffff168152602001908152602001600020819055505b6000602260008373ffffffffffffffffffffffffffffffffffffffff1673ffffffffffffffffffffffffffffffffffffffff16815260200190815260200160002054141580156145df57506000602260008373ffffffffffffffffffffffffffffffffffffffff1673ffffffffffffffffffffffffffffffffffffffff168152602001908152602001600020546009546145dd9190619cc1565b115b15614ef8576000602060008373ffffffffffffffffffffffffffffffffffffffff1673ffffffffffffffffffffffffffffffffffffffff1681526020019081526020016000206000602260008573ffffffffffffffffffffffffffffffffffffffff1673ffffffffffffffffffffffffffffffffffffffff16815260200190815260200160002054815260200190815260200160002054905080601760008473ffffffffffffffffffffffffffffffffffffffff1673ffffffffffffffffffffffffffffffffffffffff16815260200190815260200160002060008282546146c79190619bd3565b9250508190555080602160008473ffffffffffffffffffffffffffffffffffffffff1673ffffffffffffffffffffffffffffffffffffffff168152602001908152602001600020600082825461471d9190619bd3565b92505081905550670de0b6b3a7640000601f6000602260008673ffffffffffffffffffffffffffffffffffffffff1673ffffffffffffffffffffffffffffffffffffffff16815260200190815260200160002054815260200190815260200160002054601f60006001600a546147939190619bd3565b8152602001908152602001600020546147ac9190619cc1565b602060008573ffffffffffffffffffffffffffffffffffffffff1673ffffffffffffffffffffffffffffffffffffffff1681526020019081526020016000206000602260008773ffffffffffffffffffffffffffffffffffffffff1673ffffffffffffffffffffffffffffffffffffffff168152602001908152602001600020548152602001908152602001600020546148469190619c07565b6148509190619c90565b601860008473ffffffffffffffffffffffffffffffffffffffff1673ffffffffffffffffffffffffffffffffffffffff1681526020019081526020016000205461489a9190619bd3565b601860008473ffffffffffffffffffffffffffffffffffffffff1673ffffffffffffffffffffffffffffffffffffffff168152602001908152602001600020819055506000602060008473ffffffffffffffffffffffffffffffffffffffff1673ffffffffffffffffffffffffffffffffffffffff1681526020019081526020016000206000602260008673ffffffffffffffffffffffffffffffffffffffff1673ffffffffffffffffffffffffffffffffffffffff168152602001908152602001600020548152602001908152602001600020819055506000602260008473ffffffffffffffffffffffffffffffffffffffff1673ffffffffffffffffffffffffffffffffffffffff168152602001908152602001600020819055506000602360008473ffffffffffffffffffffffffffffffffffffffff1673ffffffffffffffffffffffffffffffffffffffff1681526020019081526020016000205414614ef6576001602360008473ffffffffffffffffffffffffffffffffffffffff1673ffffffffffffffffffffffffffffffffffffffff16815260200190815260200160002054600954614a4d9190619cc1565b1115614e2c576000602060008473ffffffffffffffffffffffffffffffffffffffff1673ffffffffffffffffffffffffffffffffffffffff1681526020019081526020016000206000602360008673ffffffffffffffffffffffffffffffffffffffff1673ffffffffffffffffffffffffffffffffffffffff16815260200190815260200160002054815260200190815260200160002054905080601760008573ffffffffffffffffffffffffffffffffffffffff1673ffffffffffffffffffffffffffffffffffffffff1681526020019081526020016000206000828254614b369190619bd3565b9250508190555080602160008573ffffffffffffffffffffffffffffffffffffffff1673ffffffffffffffffffffffffffffffffffffffff1681526020019081526020016000206000828254614b8c9190619bd3565b92505081905550670de0b6b3a7640000601f6000602360008773ffffffffffffffffffffffffffffffffffffffff1673ffffffffffffffffffffffffffffffffffffffff16815260200190815260200160002054815260200190815260200160002054601f60006001600a54614c029190619bd3565b815260200190815260200160002054614c1b9190619cc1565b602060008673ffffffffffffffffffffffffffffffffffffffff1673ffffffffffffffffffffffffffffffffffffffff1681526020019081526020016000206000602360008873ffffffffffffffffffffffffffffffffffffffff1673ffffffffffffffffffffffffffffffffffffffff16815260200190815260200160002054815260200190815260200160002054614cb59190619c07565b614cbf9190619c90565b601860008573ffffffffffffffffffffffffffffffffffffffff1673ffffffffffffffffffffffffffffffffffffffff16815260200190815260200160002054614d099190619bd3565b601860008573ffffffffffffffffffffffffffffffffffffffff1673ffffffffffffffffffffffffffffffffffffffff168152602001908152602001600020819055506000602060008573ffffffffffffffffffffffffffffffffffffffff1673ffffffffffffffffffffffffffffffffffffffff1681526020019081526020016000206000602360008773ffffffffffffffffffffffffffffffffffffffff1673ffffffffffffffffffffffffffffffffffffffff168152602001908152602001600020548152602001908152602001600020819055506000602360008573ffffffffffffffffffffffffffffffffffffffff1673ffffffffffffffffffffffffffffffffffffffff1681526020019081526020016000208190555050614ef5565b602360008373ffffffffffffffffffffffffffffffffffffffff1673ffffffffffffffffffffffffffffffffffffffff16815260200190815260200160002054602260008473ffffffffffffffffffffffffffffffffffffffff1673ffffffffffffffffffffffffffffffffffffffff168152602001908152602001600020819055506000602360008473ffffffffffffffffffffffffffffffffffffffff1673ffffffffffffffffffffffffffffffffffffffff168152602001908152602001600020819055505b5b505b614f0187618aa7565b60116000614f0d618a75565b73ffffffffffffffffffffffffffffffffffffffff1673ffffffffffffffffffffffffffffffffffffffff1681526020019081526020016000206000815480929190614f589061a00b565b91905055506012600060095481526020019081526020016000206000815480929190614f839061a00b565b919050555060095460136000614f97618a75565b73ffffffffffffffffffffffffffffffffffffffff1673ffffffffffffffffffffffffffffffffffffffff16815260200190815260200160002081905550600073ffffffffffffffffffffffffffffffffffffffff168773ffffffffffffffffffffffffffffffffffffffff161461512557600086146150c55785600f600061501e618a75565b73ffffffffffffffffffffffffffffffffffffffff1673ffffffffffffffffffffffffffffffffffffffff16815260200190815260200160002060008282546150679190619bd3565b9250508190555085601060008973ffffffffffffffffffffffffffffffffffffffff1673ffffffffffffffffffffffffffffffffffffffff16815260200190815260200160002060008282546150bd9190619bd3565b925050819055505b600085146151245784601660008973ffffffffffffffffffffffffffffffffffffffff1673ffffffffffffffffffffffffffffffffffffffff168152602001908152602001600020600082825461511c9190619bd3565b925050819055505b5b61512f8989616a8f565b505060006127106103e861ffff163a6179845a8661514d9190619cc1565b6151579190619bd3565b6151619190619c07565b61516b9190619c07565b6151759190619c90565b90508083346151849190619cc1565b10156151c5576040517f08c379a00000000000000000000000000000000000000000000000000000000081526004016151bc9061a0c5565b60405180910390fd5b6151e5338483346151d69190619cc1565b6151e09190619cc1565b618efb565b80601d60006009548152602001908152602001600020600082825461520a9190619bd3565b925050819055505050505050505050565b600560009054906101000a900473ffffffffffffffffffffffffffffffffffffffff1681565b600061524b6171da565b905060095481111561525f57806009819055505b600c5460095414615289576001600a546152799190619bd3565b600b81905550600c54600a819055505b600a546009541180156152bd57506000601f60006001600a546152ac9190619bd3565b815260200190815260200160002054145b15615357576000601b6000600a54815260200190815260200160002054670de0b6b3a7640000601d6000600a548152602001908152602001600020546153039190619c07565b61530d9190619c90565b905080601f6000600b548152602001908152602001600020546153309190619bd3565b601f60006001600a546153439190619bd3565b815260200190815260200160002081905550505b61535f618a75565b601360008273ffffffffffffffffffffffffffffffffffffffff1673ffffffffffffffffffffffffffffffffffffffff168152602001908152602001600020546009541180156153ef57506000601160008373ffffffffffffffffffffffffffffffffffffffff1673ffffffffffffffffffffffffffffffffffffffff1681526020019081526020016000205414155b1561571f57600060126000601360008573ffffffffffffffffffffffffffffffffffffffff1673ffffffffffffffffffffffffffffffffffffffff16815260200190815260200160002054815260200190815260200160002054601a6000601360008673ffffffffffffffffffffffffffffffffffffffff1673ffffffffffffffffffffffffffffffffffffffff16815260200190815260200160002054815260200190815260200160002054601160008573ffffffffffffffffffffffffffffffffffffffff1673ffffffffffffffffffffffffffffffffffffffff168152602001908152602001600020546154e69190619c07565b6154f09190619c90565b905080601760008473ffffffffffffffffffffffffffffffffffffffff1673ffffffffffffffffffffffffffffffffffffffff16815260200190815260200160002060008282546155419190619bd3565b925050819055506000600f60008473ffffffffffffffffffffffffffffffffffffffff1673ffffffffffffffffffffffffffffffffffffffff16815260200190815260200160002054146156d8576000601160008473ffffffffffffffffffffffffffffffffffffffff1673ffffffffffffffffffffffffffffffffffffffff16815260200190815260200160002054826155dc9190619c90565b90506000612710600f60008673ffffffffffffffffffffffffffffffffffffffff1673ffffffffffffffffffffffffffffffffffffffff168152602001908152602001600020548361562e9190619c07565b6156389190619c90565b905080601760008673ffffffffffffffffffffffffffffffffffffffff1673ffffffffffffffffffffffffffffffffffffffff16815260200190815260200160002060008282546156899190619cc1565b925050819055506000600f60008673ffffffffffffffffffffffffffffffffffffffff1673ffffffffffffffffffffffffffffffffffffffff1681526020019081526020016000208190555050505b6000601160008473ffffffffffffffffffffffffffffffffffffffff1673ffffffffffffffffffffffffffffffffffffffff16815260200190815260200160002081905550505b600a5460095411801561577f57506001600a5461573c9190619bd3565b601c60008373ffffffffffffffffffffffffffffffffffffffff1673ffffffffffffffffffffffffffffffffffffffff1681526020019081526020016000205414155b1561594057670de0b6b3a7640000601f6000601c60008573ffffffffffffffffffffffffffffffffffffffff1673ffffffffffffffffffffffffffffffffffffffff16815260200190815260200160002054815260200190815260200160002054601f60006001600a546157f39190619bd3565b81526020019081526020016000205461580c9190619cc1565b601760008473ffffffffffffffffffffffffffffffffffffffff1673ffffffffffffffffffffffffffffffffffffffff168152602001908152602001600020546158569190619c07565b6158609190619c90565b601860008373ffffffffffffffffffffffffffffffffffffffff1673ffffffffffffffffffffffffffffffffffffffff168152602001908152602001600020546158aa9190619bd3565b601860008373ffffffffffffffffffffffffffffffffffffffff1673ffffffffffffffffffffffffffffffffffffffff168152602001908152602001600020819055506001600a546158fc9190619bd3565b601c60008373ffffffffffffffffffffffffffffffffffffffff1673ffffffffffffffffffffffffffffffffffffffff168152602001908152602001600020819055505b6000602260008373ffffffffffffffffffffffffffffffffffffffff1673ffffffffffffffffffffffffffffffffffffffff16815260200190815260200160002054141580156159dc57506000602260008373ffffffffffffffffffffffffffffffffffffffff1673ffffffffffffffffffffffffffffffffffffffff168152602001908152602001600020546009546159da9190619cc1565b115b156162f5576000602060008373ffffffffffffffffffffffffffffffffffffffff1673ffffffffffffffffffffffffffffffffffffffff1681526020019081526020016000206000602260008573ffffffffffffffffffffffffffffffffffffffff1673ffffffffffffffffffffffffffffffffffffffff16815260200190815260200160002054815260200190815260200160002054905080601760008473ffffffffffffffffffffffffffffffffffffffff1673ffffffffffffffffffffffffffffffffffffffff1681526020019081526020016000206000828254615ac49190619bd3565b9250508190555080602160008473ffffffffffffffffffffffffffffffffffffffff1673ffffffffffffffffffffffffffffffffffffffff1681526020019081526020016000206000828254615b1a9190619bd3565b92505081905550670de0b6b3a7640000601f6000602260008673ffffffffffffffffffffffffffffffffffffffff1673ffffffffffffffffffffffffffffffffffffffff16815260200190815260200160002054815260200190815260200160002054601f60006001600a54615b909190619bd3565b815260200190815260200160002054615ba99190619cc1565b602060008573ffffffffffffffffffffffffffffffffffffffff1673ffffffffffffffffffffffffffffffffffffffff1681526020019081526020016000206000602260008773ffffffffffffffffffffffffffffffffffffffff1673ffffffffffffffffffffffffffffffffffffffff16815260200190815260200160002054815260200190815260200160002054615c439190619c07565b615c4d9190619c90565b601860008473ffffffffffffffffffffffffffffffffffffffff1673ffffffffffffffffffffffffffffffffffffffff16815260200190815260200160002054615c979190619bd3565b601860008473ffffffffffffffffffffffffffffffffffffffff1673ffffffffffffffffffffffffffffffffffffffff168152602001908152602001600020819055506000602060008473ffffffffffffffffffffffffffffffffffffffff1673ffffffffffffffffffffffffffffffffffffffff1681526020019081526020016000206000602260008673ffffffffffffffffffffffffffffffffffffffff1673ffffffffffffffffffffffffffffffffffffffff168152602001908152602001600020548152602001908152602001600020819055506000602260008473ffffffffffffffffffffffffffffffffffffffff1673ffffffffffffffffffffffffffffffffffffffff168152602001908152602001600020819055506000602360008473ffffffffffffffffffffffffffffffffffffffff1673ffffffffffffffffffffffffffffffffffffffff16815260200190815260200160002054146162f3576001602360008473ffffffffffffffffffffffffffffffffffffffff1673ffffffffffffffffffffffffffffffffffffffff16815260200190815260200160002054600954615e4a9190619cc1565b1115616229576000602060008473ffffffffffffffffffffffffffffffffffffffff1673ffffffffffffffffffffffffffffffffffffffff1681526020019081526020016000206000602360008673ffffffffffffffffffffffffffffffffffffffff1673ffffffffffffffffffffffffffffffffffffffff16815260200190815260200160002054815260200190815260200160002054905080601760008573ffffffffffffffffffffffffffffffffffffffff1673ffffffffffffffffffffffffffffffffffffffff1681526020019081526020016000206000828254615f339190619bd3565b9250508190555080602160008573ffffffffffffffffffffffffffffffffffffffff1673ffffffffffffffffffffffffffffffffffffffff1681526020019081526020016000206000828254615f899190619bd3565b92505081905550670de0b6b3a7640000601f6000602360008773ffffffffffffffffffffffffffffffffffffffff1673ffffffffffffffffffffffffffffffffffffffff16815260200190815260200160002054815260200190815260200160002054601f60006001600a54615fff9190619bd3565b8152602001908152602001600020546160189190619cc1565b602060008673ffffffffffffffffffffffffffffffffffffffff1673ffffffffffffffffffffffffffffffffffffffff1681526020019081526020016000206000602360008873ffffffffffffffffffffffffffffffffffffffff1673ffffffffffffffffffffffffffffffffffffffff168152602001908152602001600020548152602001908152602001600020546160b29190619c07565b6160bc9190619c90565b601860008573ffffffffffffffffffffffffffffffffffffffff1673ffffffffffffffffffffffffffffffffffffffff168152602001908152602001600020546161069190619bd3565b601860008573ffffffffffffffffffffffffffffffffffffffff1673ffffffffffffffffffffffffffffffffffffffff168152602001908152602001600020819055506000602060008573ffffffffffffffffffffffffffffffffffffffff1673ffffffffffffffffffffffffffffffffffffffff1681526020019081526020016000206000602360008773ffffffffffffffffffffffffffffffffffffffff1673ffffffffffffffffffffffffffffffffffffffff168152602001908152602001600020548152602001908152602001600020819055506000602360008573ffffffffffffffffffffffffffffffffffffffff1673ffffffffffffffffffffffffffffffffffffffff16815260200190815260200160002081905550506162f2565b602360008373ffffffffffffffffffffffffffffffffffffffff1673ffffffffffffffffffffffffffffffffffffffff16815260200190815260200160002054602260008473ffffffffffffffffffffffffffffffffffffffff1673ffffffffffffffffffffffffffffffffffffffff168152602001908152602001600020819055506000602360008473ffffffffffffffffffffffffffffffffffffffff1673ffffffffffffffffffffffffffffffffffffffff168152602001908152602001600020819055505b5b505b60008303616338576040517f08c379a000000000000000000000000000000000000000000000000000000000815260040161632f90619d41565b60405180910390fd5b826008600082825461634a9190619bd3565b92505081905550600060016009546163629190619bd3565b9050600c54600a54036163755760095490505b60226000616381618a75565b73ffffffffffffffffffffffffffffffffffffffff1673ffffffffffffffffffffffffffffffffffffffff16815260200190815260200160002054600954141580156164155750602360006163d4618a75565b73ffffffffffffffffffffffffffffffffffffffff1673ffffffffffffffffffffffffffffffffffffffff1681526020019081526020016000205460095414155b1561655457600060226000616428618a75565b73ffffffffffffffffffffffffffffffffffffffff1673ffffffffffffffffffffffffffffffffffffffff16815260200190815260200160002054036164b8578060226000616475618a75565b73ffffffffffffffffffffffffffffffffffffffff1673ffffffffffffffffffffffffffffffffffffffff16815260200190815260200160002081905550616553565b6000602360006164c6618a75565b73ffffffffffffffffffffffffffffffffffffffff1673ffffffffffffffffffffffffffffffffffffffff1681526020019081526020016000205403616552578060236000616513618a75565b73ffffffffffffffffffffffffffffffffffffffff1673ffffffffffffffffffffffffffffffffffffffff168152602001908152602001600020819055505b5b5b8360206000616561618a75565b73ffffffffffffffffffffffffffffffffffffffff1673ffffffffffffffffffffffffffffffffffffffff168152602001908152602001600020600083815260200190815260200160002060008282546165bb9190619bd3565b925050819055503373ffffffffffffffffffffffffffffffffffffffff167f1449c6dd7851abc30abf37f57715f492010519147cc2652fbc38202c18a6ee90858360405161660a929190619e84565b60405180910390a2600560009054906101000a900473ffffffffffffffffffffffffffffffffffffffff1673ffffffffffffffffffffffffffffffffffffffff166323b872dd616658618a75565b30876040518463ffffffff1660e01b81526004016166789392919061a0e5565b6020604051808303816000875af1158015616697573d6000803e3d6000fd5b505050506040513d601f19601f820116820180604052508101906166bb9190619e57565b5050505050565b60216020528060005260406000206000915090505481565b600047905090565b6060600160008373ffffffffffffffffffffffffffffffffffffffff1673ffffffffffffffffffffffffffffffffffffffff168152602001908152602001600020805461672e90619fda565b80601f016020809104026020016040519081016040528092919081815260200182805461675a90619fda565b80156167a75780601f1061677c576101008083540402835291602001916167a7565b820191906000526020600020905b81548152906001019060200180831161678a57829003601f168201915b50505050509050919050565b6000806167be6171da565b9050600080602260008673ffffffffffffffffffffffffffffffffffffffff1673ffffffffffffffffffffffffffffffffffffffff168152602001908152602001600020541415801561685b57506001602260008673ffffffffffffffffffffffffffffffffffffffff1673ffffffffffffffffffffffffffffffffffffffff16815260200190815260200160002054836168599190619cc1565b115b15616a3b57602060008573ffffffffffffffffffffffffffffffffffffffff1673ffffffffffffffffffffffffffffffffffffffff1681526020019081526020016000206000602260008773ffffffffffffffffffffffffffffffffffffffff1673ffffffffffffffffffffffffffffffffffffffff16815260200190815260200160002054815260200190815260200160002054816168fb9190619bd3565b90506000602360008673ffffffffffffffffffffffffffffffffffffffff1673ffffffffffffffffffffffffffffffffffffffff168152602001908152602001600020541415801561699757506001602360008673ffffffffffffffffffffffffffffffffffffffff1673ffffffffffffffffffffffffffffffffffffffff16815260200190815260200160002054836169959190619cc1565b115b15616a3a57602060008573ffffffffffffffffffffffffffffffffffffffff1673ffffffffffffffffffffffffffffffffffffffff1681526020019081526020016000206000602360008773ffffffffffffffffffffffffffffffffffffffff1673ffffffffffffffffffffffffffffffffffffffff1681526020019081526020016000205481526020019081526020016000205481616a379190619bd3565b90505b5b80602160008673ffffffffffffffffffffffffffffffffffffffff1673ffffffffffffffffffffffffffffffffffffffff16815260200190815260200160002054616a869190619bd3565b92505050919050565b60005b60018351616aa09190619cc1565b811015616e1257600060026000858481518110616ac057616abf61a11c565b5b602002602001015173ffffffffffffffffffffffffffffffffffffffff1673ffffffffffffffffffffffffffffffffffffffff1681526020019081526020016000206000616b0c618a75565b73ffffffffffffffffffffffffffffffffffffffff1673ffffffffffffffffffffffffffffffffffffffff1681526020019081526020016000208054905003616c115760046000848381518110616b6657616b6561a11c565b5b602002602001015173ffffffffffffffffffffffffffffffffffffffff1673ffffffffffffffffffffffffffffffffffffffff168152602001908152602001600020616bb0618a75565b9080600181540180825580915050600190039060005260206000200160009091909190916101000a81548173ffffffffffffffffffffffffffffffffffffffff021916908373ffffffffffffffffffffffffffffffffffffffff1602179055505b60006040518060400160405280848481518110616c3157616c3061a11c565b5b6020026020010151815260200142815250905060026000858481518110616c5b57616c5a61a11c565b5b602002602001015173ffffffffffffffffffffffffffffffffffffffff1673ffffffffffffffffffffffffffffffffffffffff1681526020019081526020016000206000616ca7618a75565b73ffffffffffffffffffffffffffffffffffffffff1673ffffffffffffffffffffffffffffffffffffffff1681526020019081526020016000208190806001815401808255809150506001900390600052602060002090600202016000909190919091506000820151816000019081616d20919061a2ed565b506020820151816001015550506000838381518110616d4257616d4161a11c565b5b6020026020010151604051602001616d5a919061a3fb565b60405160208183030381529060405280519060200120905080616d7b618a75565b73ffffffffffffffffffffffffffffffffffffffff16868581518110616da457616da361a11c565b5b602002602001015173ffffffffffffffffffffffffffffffffffffffff167fd255a04e9537ee418651bfdd3be3efed3b9f677f36ba9e488e0d27340c97961f85600054604051616df592919061a44f565b60405180910390a450508080616e0a9061a00b565b915050616a92565b50600060405180604001604052808360018651616e2f9190619cc1565b81518110616e4057616e3f61a11c565b5b6020026020010151815260200142815250905060008260018551616e649190619cc1565b81518110616e7557616e7461a11c565b5b6020026020010151604051602001616e8d919061a3fb565b60405160208183030381529060405280519060200120905080616eae618a75565b73ffffffffffffffffffffffffffffffffffffffff16616ecc618a75565b73ffffffffffffffffffffffffffffffffffffffff167fd255a04e9537ee418651bfdd3be3efed3b9f677f36ba9e488e0d27340c97961f85600054604051616f1592919061a44f565b60405180910390a4600060405180604001604052808560018851616f399190619cc1565b81518110616f4a57616f4961a11c565b5b6020026020010151815260200142815250905060036000616f69618a75565b73ffffffffffffffffffffffffffffffffffffffff1673ffffffffffffffffffffffffffffffffffffffff16815260200190815260200160002060405180604001604052808781526020018381525090806001815401808255809150506001900390600052602060002090600302016000909190919091506000820151816000019080519060200190616ffd929190618fb4565b50602082015181600101600082015181600001908161701c919061a2ed565b50602082015181600101555050505060008081548092919061703d9061a00b565b91905055505050505050565b6001602052806000526040600020600091509050805461706890619fda565b80601f016020809104026020016040519081016040528092919081815260200182805461709490619fda565b80156170e15780601f106170b6576101008083540402835291602001916170e1565b820191906000526020600020905b8154815290600101906020018083116170c457829003601f168201915b505050505081565b601a6020528060005260406000206000915090505481565b806001600061710e618a75565b73ffffffffffffffffffffffffffffffffffffffff1673ffffffffffffffffffffffffffffffffffffffff1681526020019081526020016000209081617154919061a2ed565b50600081604051602001617168919061a3fb565b60405160208183030381529060405280519060200120905080617189618a75565b73ffffffffffffffffffffffffffffffffffffffff167f1db169902a3b228ab764219bfc023384698a05b8a3d1bd2e046867a1dedf78a9846040516171ce9190619a89565b60405180910390a35050565b60007f00000000000000000000000000000000000000000000000000000000000000007f0000000000000000000000000000000000000000000000000000000000000000426172299190619cc1565b6172339190619c90565b905090565b601f6020528060005260406000206000915090505481565b60008061725b6171da565b90506000601860008573ffffffffffffffffffffffffffffffffffffffff1673ffffffffffffffffffffffffffffffffffffffff168152602001908152602001600020549050600080600b5490506000600a549050600c5485146172d0576001600a546172c89190619bd3565b9150600c5490505b80851180156172fe57506000601f60006001846172ed9190619bd3565b815260200190815260200160002054145b15617375576000601b600083815260200190815260200160002054670de0b6b3a7640000601d6000858152602001908152602001600020546173409190619c07565b61734a9190619c90565b905080601f6000600b5481526020019081526020016000205461736d9190619bd3565b93505061738e565b601f6000600b5481526020019081526020016000205492505b600061739988613841565b905081861180156173f557506001826173b29190619bd3565b601c60008a73ffffffffffffffffffffffffffffffffffffffff1673ffffffffffffffffffffffffffffffffffffffff1681526020019081526020016000205414155b1561748457670de0b6b3a7640000601f6000601c60008c73ffffffffffffffffffffffffffffffffffffffff1673ffffffffffffffffffffffffffffffffffffffff16815260200190815260200160002054815260200190815260200160002054856174619190619cc1565b8261746c9190619c07565b6174769190619c90565b856174819190619bd3565b94505b6000602260008a73ffffffffffffffffffffffffffffffffffffffff1673ffffffffffffffffffffffffffffffffffffffff168152602001908152602001600020541415801561751e57506001602260008a73ffffffffffffffffffffffffffffffffffffffff1673ffffffffffffffffffffffffffffffffffffffff168152602001908152602001600020548761751c9190619cc1565b115b156177f457670de0b6b3a7640000601f6000602260008c73ffffffffffffffffffffffffffffffffffffffff1673ffffffffffffffffffffffffffffffffffffffff168152602001908152602001600020548152602001908152602001600020548561758a9190619cc1565b602060008b73ffffffffffffffffffffffffffffffffffffffff1673ffffffffffffffffffffffffffffffffffffffff1681526020019081526020016000206000602260008d73ffffffffffffffffffffffffffffffffffffffff1673ffffffffffffffffffffffffffffffffffffffff168152602001908152602001600020548152602001908152602001600020546176249190619c07565b61762e9190619c90565b856176399190619bd3565b94506000602360008a73ffffffffffffffffffffffffffffffffffffffff1673ffffffffffffffffffffffffffffffffffffffff16815260200190815260200160002054141580156176d557506001602360008a73ffffffffffffffffffffffffffffffffffffffff1673ffffffffffffffffffffffffffffffffffffffff16815260200190815260200160002054876176d39190619cc1565b115b156177f357670de0b6b3a7640000601f6000602360008c73ffffffffffffffffffffffffffffffffffffffff1673ffffffffffffffffffffffffffffffffffffffff16815260200190815260200160002054815260200190815260200160002054856177419190619cc1565b602060008b73ffffffffffffffffffffffffffffffffffffffff1673ffffffffffffffffffffffffffffffffffffffff1681526020019081526020016000206000602360008d73ffffffffffffffffffffffffffffffffffffffff1673ffffffffffffffffffffffffffffffffffffffff168152602001908152602001600020548152602001908152602001600020546177db9190619c07565b6177e59190619c90565b856177f09190619bd3565b94505b5b849650505050505050919050565b60176020528060005260406000206000915090505481565b601b6020528060005260406000206000915090505481565b600061783c6171da565b905060095481111561785057806009819055505b600c546009541461787a576001600a5461786a9190619bd3565b600b81905550600c54600a819055505b600a546009541180156178ae57506000601f60006001600a5461789d9190619bd3565b815260200190815260200160002054145b15617948576000601b6000600a54815260200190815260200160002054670de0b6b3a7640000601d6000600a548152602001908152602001600020546178f49190619c07565b6178fe9190619c90565b905080601f6000600b548152602001908152602001600020546179219190619bd3565b601f60006001600a546179349190619bd3565b815260200190815260200160002081905550505b617950618a75565b601360008273ffffffffffffffffffffffffffffffffffffffff1673ffffffffffffffffffffffffffffffffffffffff168152602001908152602001600020546009541180156179e057506000601160008373ffffffffffffffffffffffffffffffffffffffff1673ffffffffffffffffffffffffffffffffffffffff1681526020019081526020016000205414155b15617d1057600060126000601360008573ffffffffffffffffffffffffffffffffffffffff1673ffffffffffffffffffffffffffffffffffffffff16815260200190815260200160002054815260200190815260200160002054601a6000601360008673ffffffffffffffffffffffffffffffffffffffff1673ffffffffffffffffffffffffffffffffffffffff16815260200190815260200160002054815260200190815260200160002054601160008573ffffffffffffffffffffffffffffffffffffffff1673ffffffffffffffffffffffffffffffffffffffff16815260200190815260200160002054617ad79190619c07565b617ae19190619c90565b905080601760008473ffffffffffffffffffffffffffffffffffffffff1673ffffffffffffffffffffffffffffffffffffffff1681526020019081526020016000206000828254617b329190619bd3565b925050819055506000600f60008473ffffffffffffffffffffffffffffffffffffffff1673ffffffffffffffffffffffffffffffffffffffff1681526020019081526020016000205414617cc9576000601160008473ffffffffffffffffffffffffffffffffffffffff1673ffffffffffffffffffffffffffffffffffffffff1681526020019081526020016000205482617bcd9190619c90565b90506000612710600f60008673ffffffffffffffffffffffffffffffffffffffff1673ffffffffffffffffffffffffffffffffffffffff1681526020019081526020016000205483617c1f9190619c07565b617c299190619c90565b905080601760008673ffffffffffffffffffffffffffffffffffffffff1673ffffffffffffffffffffffffffffffffffffffff1681526020019081526020016000206000828254617c7a9190619cc1565b925050819055506000600f60008673ffffffffffffffffffffffffffffffffffffffff1673ffffffffffffffffffffffffffffffffffffffff1681526020019081526020016000208190555050505b6000601160008473ffffffffffffffffffffffffffffffffffffffff1673ffffffffffffffffffffffffffffffffffffffff16815260200190815260200160002081905550505b600a54600954118015617d7057506001600a54617d2d9190619bd3565b601c60008373ffffffffffffffffffffffffffffffffffffffff1673ffffffffffffffffffffffffffffffffffffffff1681526020019081526020016000205414155b15617f3157670de0b6b3a7640000601f6000601c60008573ffffffffffffffffffffffffffffffffffffffff1673ffffffffffffffffffffffffffffffffffffffff16815260200190815260200160002054815260200190815260200160002054601f60006001600a54617de49190619bd3565b815260200190815260200160002054617dfd9190619cc1565b601760008473ffffffffffffffffffffffffffffffffffffffff1673ffffffffffffffffffffffffffffffffffffffff16815260200190815260200160002054617e479190619c07565b617e519190619c90565b601860008373ffffffffffffffffffffffffffffffffffffffff1673ffffffffffffffffffffffffffffffffffffffff16815260200190815260200160002054617e9b9190619bd3565b601860008373ffffffffffffffffffffffffffffffffffffffff1673ffffffffffffffffffffffffffffffffffffffff168152602001908152602001600020819055506001600a54617eed9190619bd3565b601c60008373ffffffffffffffffffffffffffffffffffffffff1673ffffffffffffffffffffffffffffffffffffffff168152602001908152602001600020819055505b6000602260008373ffffffffffffffffffffffffffffffffffffffff1673ffffffffffffffffffffffffffffffffffffffff1681526020019081526020016000205414158015617fcd57506000602260008373ffffffffffffffffffffffffffffffffffffffff1673ffffffffffffffffffffffffffffffffffffffff16815260200190815260200160002054600954617fcb9190619cc1565b115b156188e6576000602060008373ffffffffffffffffffffffffffffffffffffffff1673ffffffffffffffffffffffffffffffffffffffff1681526020019081526020016000206000602260008573ffffffffffffffffffffffffffffffffffffffff1673ffffffffffffffffffffffffffffffffffffffff16815260200190815260200160002054815260200190815260200160002054905080601760008473ffffffffffffffffffffffffffffffffffffffff1673ffffffffffffffffffffffffffffffffffffffff16815260200190815260200160002060008282546180b59190619bd3565b9250508190555080602160008473ffffffffffffffffffffffffffffffffffffffff1673ffffffffffffffffffffffffffffffffffffffff168152602001908152602001600020600082825461810b9190619bd3565b92505081905550670de0b6b3a7640000601f6000602260008673ffffffffffffffffffffffffffffffffffffffff1673ffffffffffffffffffffffffffffffffffffffff16815260200190815260200160002054815260200190815260200160002054601f60006001600a546181819190619bd3565b81526020019081526020016000205461819a9190619cc1565b602060008573ffffffffffffffffffffffffffffffffffffffff1673ffffffffffffffffffffffffffffffffffffffff1681526020019081526020016000206000602260008773ffffffffffffffffffffffffffffffffffffffff1673ffffffffffffffffffffffffffffffffffffffff168152602001908152602001600020548152602001908152602001600020546182349190619c07565b61823e9190619c90565b601860008473ffffffffffffffffffffffffffffffffffffffff1673ffffffffffffffffffffffffffffffffffffffff168152602001908152602001600020546182889190619bd3565b601860008473ffffffffffffffffffffffffffffffffffffffff1673ffffffffffffffffffffffffffffffffffffffff168152602001908152602001600020819055506000602060008473ffffffffffffffffffffffffffffffffffffffff1673ffffffffffffffffffffffffffffffffffffffff1681526020019081526020016000206000602260008673ffffffffffffffffffffffffffffffffffffffff1673ffffffffffffffffffffffffffffffffffffffff168152602001908152602001600020548152602001908152602001600020819055506000602260008473ffffffffffffffffffffffffffffffffffffffff1673ffffffffffffffffffffffffffffffffffffffff168152602001908152602001600020819055506000602360008473ffffffffffffffffffffffffffffffffffffffff1673ffffffffffffffffffffffffffffffffffffffff16815260200190815260200160002054146188e4576001602360008473ffffffffffffffffffffffffffffffffffffffff1673ffffffffffffffffffffffffffffffffffffffff1681526020019081526020016000205460095461843b9190619cc1565b111561881a576000602060008473ffffffffffffffffffffffffffffffffffffffff1673ffffffffffffffffffffffffffffffffffffffff1681526020019081526020016000206000602360008673ffffffffffffffffffffffffffffffffffffffff1673ffffffffffffffffffffffffffffffffffffffff16815260200190815260200160002054815260200190815260200160002054905080601760008573ffffffffffffffffffffffffffffffffffffffff1673ffffffffffffffffffffffffffffffffffffffff16815260200190815260200160002060008282546185249190619bd3565b9250508190555080602160008573ffffffffffffffffffffffffffffffffffffffff1673ffffffffffffffffffffffffffffffffffffffff168152602001908152602001600020600082825461857a9190619bd3565b92505081905550670de0b6b3a7640000601f6000602360008773ffffffffffffffffffffffffffffffffffffffff1673ffffffffffffffffffffffffffffffffffffffff16815260200190815260200160002054815260200190815260200160002054601f60006001600a546185f09190619bd3565b8152602001908152602001600020546186099190619cc1565b602060008673ffffffffffffffffffffffffffffffffffffffff1673ffffffffffffffffffffffffffffffffffffffff1681526020019081526020016000206000602360008873ffffffffffffffffffffffffffffffffffffffff1673ffffffffffffffffffffffffffffffffffffffff168152602001908152602001600020548152602001908152602001600020546186a39190619c07565b6186ad9190619c90565b601860008573ffffffffffffffffffffffffffffffffffffffff1673ffffffffffffffffffffffffffffffffffffffff168152602001908152602001600020546186f79190619bd3565b601860008573ffffffffffffffffffffffffffffffffffffffff1673ffffffffffffffffffffffffffffffffffffffff168152602001908152602001600020819055506000602060008573ffffffffffffffffffffffffffffffffffffffff1673ffffffffffffffffffffffffffffffffffffffff1681526020019081526020016000206000602360008773ffffffffffffffffffffffffffffffffffffffff1673ffffffffffffffffffffffffffffffffffffffff168152602001908152602001600020548152602001908152602001600020819055506000602360008573ffffffffffffffffffffffffffffffffffffffff1673ffffffffffffffffffffffffffffffffffffffff16815260200190815260200160002081905550506188e3565b602360008373ffffffffffffffffffffffffffffffffffffffff1673ffffffffffffffffffffffffffffffffffffffff16815260200190815260200160002054602260008473ffffffffffffffffffffffffffffffffffffffff1673ffffffffffffffffffffffffffffffffffffffff168152602001908152602001600020819055506000602360008473ffffffffffffffffffffffffffffffffffffffff1673ffffffffffffffffffffffffffffffffffffffff168152602001908152602001600020819055505b5b505b6000601860006188f4618a75565b73ffffffffffffffffffffffffffffffffffffffff1673ffffffffffffffffffffffffffffffffffffffff16815260200190815260200160002054905060008111618974576040517f08c379a000000000000000000000000000000000000000000000000000000000815260040161896b90619f8b565b60405180910390fd5b600060186000618982618a75565b73ffffffffffffffffffffffffffffffffffffffff1673ffffffffffffffffffffffffffffffffffffffff168152602001908152602001600020819055506189d16189cb618a75565b82618efb565b3373ffffffffffffffffffffffffffffffffffffffff167f1ac537f0ad67b64ac68a04587ff3a4cb6977de22eb2c37ee560897a92c6d07c782618a126171da565b604051618a20929190619e84565b60405180910390a2505050565b6000612723612710600754618a429190619c07565b618a4c9190619c90565b905090565b6103e881565b600c5481565b60186020528060005260406000206000915090505481565b6000618a8033613716565b15618a9457601436033560601c9050618aa3565b618a9c618fac565b9050618aa4565b5b90565b601460008273ffffffffffffffffffffffffffffffffffffffff1673ffffffffffffffffffffffffffffffffffffffff168152602001908152602001600020546009541115618d0f576000601460008373ffffffffffffffffffffffffffffffffffffffff1673ffffffffffffffffffffffffffffffffffffffff1681526020019081526020016000205490506000601060008473ffffffffffffffffffffffffffffffffffffffff1673ffffffffffffffffffffffffffffffffffffffff1681526020019081526020016000205414158015618b9857506000601260008381526020019081526020016000205414155b15618cc75760006012600083815260200190815260200160002054601a600084815260200190815260200160002054618bd19190619c90565b9050612710601060008573ffffffffffffffffffffffffffffffffffffffff1673ffffffffffffffffffffffffffffffffffffffff1681526020019081526020016000205482618c219190619c07565b618c2b9190619c90565b601960008573ffffffffffffffffffffffffffffffffffffffff1673ffffffffffffffffffffffffffffffffffffffff1681526020019081526020016000206000828254618c799190619bd3565b925050819055506000601060008573ffffffffffffffffffffffffffffffffffffffff1673ffffffffffffffffffffffffffffffffffffffff16815260200190815260200160002081905550505b600954601460008473ffffffffffffffffffffffffffffffffffffffff1673ffffffffffffffffffffffffffffffffffffffff16815260200190815260200160002081905550505b600a54600954118015618d6f57506001600a54618d2c9190619bd3565b601560008373ffffffffffffffffffffffffffffffffffffffff1673ffffffffffffffffffffffffffffffffffffffff1681526020019081526020016000205414155b15618ef857670de0b6b3a7640000601f6000601560008573ffffffffffffffffffffffffffffffffffffffff1673ffffffffffffffffffffffffffffffffffffffff16815260200190815260200160002054815260200190815260200160002054601f60006001600a54618de39190619bd3565b815260200190815260200160002054618dfc9190619cc1565b601960008473ffffffffffffffffffffffffffffffffffffffff1673ffffffffffffffffffffffffffffffffffffffff16815260200190815260200160002054618e469190619c07565b618e509190619c90565b601660008373ffffffffffffffffffffffffffffffffffffffff1673ffffffffffffffffffffffffffffffffffffffff1681526020019081526020016000206000828254618e9e9190619bd3565b925050819055506001600a54618eb49190619bd3565b601560008373ffffffffffffffffffffffffffffffffffffffff1673ffffffffffffffffffffffffffffffffffffffff168152602001908152602001600020819055505b50565b60008273ffffffffffffffffffffffffffffffffffffffff1682604051618f219061a4b0565b60006040518083038185875af1925050503d8060008114618f5e576040519150601f19603f3d011682016040523d82523d6000602084013e618f63565b606091505b5050905080618fa7576040517f08c379a0000000000000000000000000000000000000000000000000000000008152600401618f9e9061a511565b60405180910390fd5b505050565b600033905090565b82805482825590600052602060002090810192821561902d579160200282015b8281111561902c5782518260006101000a81548173ffffffffffffffffffffffffffffffffffffffff021916908373ffffffffffffffffffffffffffffffffffffffff16021790555091602001919060010190618fd4565b5b50905061903a919061903e565b5090565b5b8082111561905757600081600090555060010161903f565b5090565b6000604051905090565b600080fd5b600080fd5b6000819050919050565b6190828161906f565b811461908d57600080fd5b50565b60008135905061909f81619079565b92915050565b6000602082840312156190bb576190ba619065565b5b60006190c984828501619090565b91505092915050565b6190db8161906f565b82525050565b60006020820190506190f660008301846190d2565b92915050565b600073ffffffffffffffffffffffffffffffffffffffff82169050919050565b6000619127826190fc565b9050919050565b6191378161911c565b811461914257600080fd5b50565b6000813590506191548161912e565b92915050565b6000602082840312156191705761916f619065565b5b600061917e84828501619145565b91505092915050565b600081519050919050565b600082825260208201905092915050565b6000819050602082019050919050565b600081519050919050565b600082825260208201905092915050565b6000819050602082019050919050565b6191e88161911c565b82525050565b60006191fa83836191df565b60208301905092915050565b6000602082019050919050565b600061921e826191b3565b61922881856191be565b9350619233836191cf565b8060005b8381101561926457815161924b88826191ee565b975061925683619206565b925050600181019050619237565b5085935050505092915050565b600081519050919050565b600082825260208201905092915050565b60005b838110156192ab578082015181840152602081019050619290565b60008484015250505050565b6000601f19601f8301169050919050565b60006192d382619271565b6192dd818561927c565b93506192ed81856020860161928d565b6192f6816192b7565b840191505092915050565b61930a8161906f565b82525050565b6000604083016000830151848203600086015261932d82826192c8565b91505060208301516193426020860182619301565b508091505092915050565b6000604083016000830151848203600086015261936a8282619213565b915050602083015184820360208601526193848282619310565b9150508091505092915050565b600061939d838361934d565b905092915050565b6000602082019050919050565b60006193bd82619187565b6193c78185619192565b9350836020820285016193d9856191a3565b8060005b8581101561941557848403895281516193f68582619391565b9450619401836193a5565b925060208a019950506001810190506193dd565b50829750879550505050505092915050565b6000602082019050818103600083015261944181846193b2565b905092915050565b60008115159050919050565b61945e81619449565b82525050565b60006020820190506194796000830184619455565b92915050565b600082825260208201905092915050565b600061949b826191b3565b6194a5818561947f565b93506194b0836191cf565b8060005b838110156194e15781516194c888826191ee565b97506194d383619206565b9250506001810190506194b4565b5085935050505092915050565b600060208201905081810360008301526195088184619490565b905092915050565b6000806040838503121561952757619526619065565b5b600061953585828601619145565b925050602061954685828601619145565b9150509250929050565b600081519050919050565b600082825260208201905092915050565b6000819050602082019050919050565b60006195888383619310565b905092915050565b6000602082019050919050565b60006195a882619550565b6195b2818561955b565b9350836020820285016195c48561956c565b8060005b8581101561960057848403895281516195e1858261957c565b94506195ec83619590565b925060208a019950506001810190506195c8565b50829750879550505050505092915050565b6000602082019050818103600083015261962c818461959d565b905092915050565b600080fd5b7f4e487b7100000000000000000000000000000000000000000000000000000000600052604160045260246000fd5b619671826192b7565b810181811067ffffffffffffffff821117156196905761968f619639565b5b80604052505050565b60006196a361905b565b90506196af8282619668565b919050565b600067ffffffffffffffff8211156196cf576196ce619639565b5b602082029050602081019050919050565b600080fd5b60006196f86196f3846196b4565b619699565b9050808382526020820190506020840283018581111561971b5761971a6196e0565b5b835b8181101561974457806197308882619145565b84526020840193505060208101905061971d565b5050509392505050565b600082601f83011261976357619762619634565b5b81356197738482602086016196e5565b91505092915050565b600067ffffffffffffffff82111561979757619796619639565b5b602082029050602081019050919050565b600080fd5b600067ffffffffffffffff8211156197c8576197c7619639565b5b6197d1826192b7565b9050602081019050919050565b82818337600083830152505050565b60006198006197fb846197ad565b619699565b90508281526020810184848401111561981c5761981b6197a8565b5b6198278482856197de565b509392505050565b600082601f83011261984457619843619634565b5b81356198548482602086016197ed565b91505092915050565b600061987061986b8461977c565b619699565b90508083825260208201905060208402830185811115619893576198926196e0565b5b835b818110156198da57803567ffffffffffffffff8111156198b8576198b7619634565b5b8086016198c5898261982f565b85526020850194505050602081019050619895565b5050509392505050565b600082601f8301126198f9576198f8619634565b5b813561990984826020860161985d565b91505092915050565b600080600080600060a0868803121561992e5761992d619065565b5b600086013567ffffffffffffffff81111561994c5761994b61906a565b5b6199588882890161974e565b955050602086013567ffffffffffffffff8111156199795761997861906a565b5b619985888289016198e4565b945050604061999688828901619145565b93505060606199a788828901619090565b92505060806199b888828901619090565b9150509295509295909350565b6000819050919050565b60006199ea6199e56199e0846190fc565b6199c5565b6190fc565b9050919050565b60006199fc826199cf565b9050919050565b6000619a0e826199f1565b9050919050565b619a1e81619a03565b82525050565b6000602082019050619a396000830184619a15565b92915050565b600082825260208201905092915050565b6000619a5b82619271565b619a658185619a3f565b9350619a7581856020860161928d565b619a7e816192b7565b840191505092915050565b60006020820190508181036000830152619aa38184619a50565b905092915050565b60008060408385031215619ac257619ac1619065565b5b600083013567ffffffffffffffff811115619ae057619adf61906a565b5b619aec8582860161974e565b925050602083013567ffffffffffffffff811115619b0d57619b0c61906a565b5b619b19858286016198e4565b9150509250929050565b600060208284031215619b3957619b38619065565b5b600082013567ffffffffffffffff811115619b5757619b5661906a565b5b619b638482850161982f565b91505092915050565b600061ffff82169050919050565b619b8381619b6c565b82525050565b6000602082019050619b9e6000830184619b7a565b92915050565b7f4e487b7100000000000000000000000000000000000000000000000000000000600052601160045260246000fd5b6000619bde8261906f565b9150619be98361906f565b9250828201905080821115619c0157619c00619ba4565b5b92915050565b6000619c128261906f565b9150619c1d8361906f565b9250817fffffffffffffffffffffffffffffffffffffffffffffffffffffffffffffffff0483118215151615619c5657619c55619ba4565b5b828202905092915050565b7f4e487b7100000000000000000000000000000000000000000000000000000000600052601260045260246000fd5b6000619c9b8261906f565b9150619ca68361906f565b925082619cb657619cb5619c61565b5b828204905092915050565b6000619ccc8261906f565b9150619cd78361906f565b9250828203905081811115619cef57619cee619ba4565b5b92915050565b7f44656230783a20796f757220616d6f756e742069732030000000000000000000600082015250565b6000619d2b601783619a3f565b9150619d3682619cf5565b602082019050919050565b60006020820190508181036000830152619d5a81619d1e565b9050919050565b7f44656230783a2063616e206e6f7420756e7374616b65206d6f7265207468616e60008201527f20796f75277665207374616b6564000000000000000000000000000000000000602082015250565b6000619dbd602e83619a3f565b9150619dc882619d61565b604082019050919050565b60006020820190508181036000830152619dec81619db0565b9050919050565b619dfc8161911c565b82525050565b6000604082019050619e176000830185619df3565b619e2460208301846190d2565b9392505050565b619e3481619449565b8114619e3f57600080fd5b50565b600081519050619e5181619e2b565b92915050565b600060208284031215619e6d57619e6c619065565b5b6000619e7b84828501619e42565b91505092915050565b6000604082019050619e9960008301856190d2565b619ea660208301846190d2565b9392505050565b7f44656230783a20596f7520646f206e6f74206861766520726577617264730000600082015250565b6000619ee3601e83619a3f565b9150619eee82619ead565b602082019050919050565b60006020820190508181036000830152619f1281619ed6565b9050919050565b7f44656230783a20596f7520646f206e6f7420686176652061636372756564206660008201527f6565730000000000000000000000000000000000000000000000000000000000602082015250565b6000619f75602383619a3f565b9150619f8082619f19565b604082019050919050565b60006020820190508181036000830152619fa481619f68565b9050919050565b7f4e487b7100000000000000000000000000000000000000000000000000000000600052602260045260246000fd5b60006002820490506001821680619ff257607f821691505b60208210810361a0055761a004619fab565b5b50919050565b600061a0168261906f565b91507fffffffffffffffffffffffffffffffffffffffffffffffffffffffffffffffff820361a0485761a047619ba4565b5b600182019050919050565b7f44656230783a206d7573742070617920313025206f66207472616e736163746960008201527f6f6e20636f737400000000000000000000000000000000000000000000000000602082015250565b600061a0af602783619a3f565b915061a0ba8261a053565b604082019050919050565b6000602082019050818103600083015261a0de8161a0a2565b9050919050565b600060608201905061a0fa6000830186619df3565b61a1076020830185619df3565b61a11460408301846190d2565b949350505050565b7f4e487b7100000000000000000000000000000000000000000000000000000000600052603260045260246000fd5b60008190508160005260206000209050919050565b60006020601f8301049050919050565b600082821b905092915050565b60006008830261a1ad7fffffffffffffffffffffffffffffffffffffffffffffffffffffffffffffffff8261a170565b61a1b7868361a170565b95508019841693508086168417925050509392505050565b600061a1ea61a1e561a1e08461906f565b6199c5565b61906f565b9050919050565b6000819050919050565b61a2048361a1cf565b61a21861a2108261a1f1565b84845461a17d565b825550505050565b600090565b61a22d61a220565b61a23881848461a1fb565b505050565b5b8181101561a25c5761a25160008261a225565b60018101905061a23e565b5050565b601f82111561a2a15761a2728161a14b565b61a27b8461a160565b8101602085101561a28a578190505b61a29e61a2968561a160565b83018261a23d565b50505b505050565b600082821c905092915050565b600061a2c46000198460080261a2a6565b1980831691505092915050565b600061a2dd838361a2b3565b9150826002028217905092915050565b61a2f682619271565b67ffffffffffffffff81111561a30f5761a30e619639565b5b61a3198254619fda565b61a32482828561a260565b600060209050601f83116001811461a357576000841561a345578287015190505b61a34f858261a2d1565b86555061a3b7565b601f19841661a3658661a14b565b60005b8281101561a38d5784890151825560018201915060208501945060208101905061a368565b8683101561a3aa578489015161a3a6601f89168261a2b3565b8355505b6001600288020188555050505b505050505050565b600081905092915050565b600061a3d582619271565b61a3df818561a3bf565b935061a3ef81856020860161928d565b80840191505092915050565b600061a407828461a3ca565b915081905092915050565b6000604083016000830151848203600086015261a42f82826192c8565b915050602083015161a4446020860182619301565b508091505092915050565b6000604082019050818103600083015261a469818561a412565b905061a47860208301846190d2565b9392505050565b600081905092915050565b50565b600061a49a60008361a47f565b915061a4a58261a48a565b600082019050919050565b600061a4bb8261a48d565b9150819050919050565b7f44656230783a206661696c656420746f2073656e6420616d6f756e7400000000600082015250565b600061a4fb601c83619a3f565b915061a5068261a4c5565b602082019050919050565b6000602082019050818103600083015261a52a8161a4ee565b905091905056fea2646970667358221220c1b3f513bbd74514b63d483c334b17fd6b383b63c0afc896a50abccf7716e28964736f6c6343000810003360806040523480156200001157600080fd5b506040518060400160405280600581526020017f44656230780000000000000000000000000000000000000000000000000000008152506040518060400160405280600381526020017f444258000000000000000000000000000000000000000000000000000000000081525081600390816200008f919062000365565b508060049081620000a1919062000365565b50505033600560006101000a81548173ffffffffffffffffffffffffffffffffffffffff021916908373ffffffffffffffffffffffffffffffffffffffff1602179055506200044c565b600081519050919050565b7f4e487b7100000000000000000000000000000000000000000000000000000000600052604160045260246000fd5b7f4e487b7100000000000000000000000000000000000000000000000000000000600052602260045260246000fd5b600060028204905060018216806200016d57607f821691505b60208210810362000183576200018262000125565b5b50919050565b60008190508160005260206000209050919050565b60006020601f8301049050919050565b600082821b905092915050565b600060088302620001ed7fffffffffffffffffffffffffffffffffffffffffffffffffffffffffffffffff82620001ae565b620001f98683620001ae565b95508019841693508086168417925050509392505050565b6000819050919050565b6000819050919050565b600062000246620002406200023a8462000211565b6200021b565b62000211565b9050919050565b6000819050919050565b620002628362000225565b6200027a62000271826200024d565b848454620001bb565b825550505050565b600090565b6200029162000282565b6200029e81848462000257565b505050565b5b81811015620002c657620002ba60008262000287565b600181019050620002a4565b5050565b601f8211156200031557620002df8162000189565b620002ea846200019e565b81016020851015620002fa578190505b6200031262000309856200019e565b830182620002a3565b50505b505050565b600082821c905092915050565b60006200033a600019846008026200031a565b1980831691505092915050565b600062000355838362000327565b9150826002028217905092915050565b6200037082620000eb565b67ffffffffffffffff8111156200038c576200038b620000f6565b5b62000398825462000154565b620003a5828285620002ca565b600060209050601f831160018114620003dd5760008415620003c8578287015190505b620003d4858262000347565b86555062000444565b601f198416620003ed8662000189565b60005b828110156200041757848901518255600182019150602085019450602081019050620003f0565b8683101562000437578489015162000433601f89168262000327565b8355505b6001600288020188555050505b505050505050565b6115bd806200045c6000396000f3fe608060405234801561001057600080fd5b50600436106100cf5760003560e01c806370a082311161008c5780639a49090e116100665780639a49090e1461022a578063a457c2d714610246578063a9059cbb14610276578063dd62ed3e146102a6576100cf565b806370a08231146101be5780638da5cb5b146101ee57806395d89b411461020c576100cf565b806306fdde03146100d4578063095ea7b3146100f257806318160ddd1461012257806323b872dd14610140578063313ce56714610170578063395093511461018e575b600080fd5b6100dc6102d6565b6040516100e99190610d98565b60405180910390f35b61010c60048036038101906101079190610e53565b610368565b6040516101199190610eae565b60405180910390f35b61012a61038b565b6040516101379190610ed8565b60405180910390f35b61015a60048036038101906101559190610ef3565b610395565b6040516101679190610eae565b60405180910390f35b6101786103c4565b6040516101859190610f62565b60405180910390f35b6101a860048036038101906101a39190610e53565b6103cd565b6040516101b59190610eae565b60405180910390f35b6101d860048036038101906101d39190610f7d565b610404565b6040516101e59190610ed8565b60405180910390f35b6101f661044c565b6040516102039190610fb9565b60405180910390f35b610214610472565b6040516102219190610d98565b60405180910390f35b610244600480360381019061023f9190610e53565b610504565b005b610260600480360381019061025b9190610e53565b6105a2565b60405161026d9190610eae565b60405180910390f35b610290600480360381019061028b9190610e53565b610619565b60405161029d9190610eae565b60405180910390f35b6102c060048036038101906102bb9190610fd4565b61063c565b6040516102cd9190610ed8565b60405180910390f35b6060600380546102e590611043565b80601f016020809104026020016040519081016040528092919081815260200182805461031190611043565b801561035e5780601f106103335761010080835404028352916020019161035e565b820191906000526020600020905b81548152906001019060200180831161034157829003601f168201915b5050505050905090565b6000806103736106c3565b90506103808185856106cb565b600191505092915050565b6000600254905090565b6000806103a06106c3565b90506103ad858285610894565b6103b8858585610920565b60019150509392505050565b60006012905090565b6000806103d86106c3565b90506103f98185856103ea858961063c565b6103f491906110a3565b6106cb565b600191505092915050565b60008060008373ffffffffffffffffffffffffffffffffffffffff1673ffffffffffffffffffffffffffffffffffffffff168152602001908152602001600020549050919050565b600560009054906101000a900473ffffffffffffffffffffffffffffffffffffffff1681565b60606004805461048190611043565b80601f01602080910402602001604051908101604052809291908181526020018280546104ad90611043565b80156104fa5780601f106104cf576101008083540402835291602001916104fa565b820191906000526020600020905b8154815290600101906020018083116104dd57829003601f168201915b5050505050905090565b600560009054906101000a900473ffffffffffffffffffffffffffffffffffffffff1673ffffffffffffffffffffffffffffffffffffffff163373ffffffffffffffffffffffffffffffffffffffff1614610594576040517f08c379a000000000000000000000000000000000000000000000000000000000815260040161058b90611123565b60405180910390fd5b61059e8282610b9f565b5050565b6000806105ad6106c3565b905060006105bb828661063c565b905083811015610600576040517f08c379a00000000000000000000000000000000000000000000000000000000081526004016105f7906111b5565b60405180910390fd5b61060d82868684036106cb565b60019250505092915050565b6000806106246106c3565b9050610631818585610920565b600191505092915050565b6000600160008473ffffffffffffffffffffffffffffffffffffffff1673ffffffffffffffffffffffffffffffffffffffff16815260200190815260200160002060008373ffffffffffffffffffffffffffffffffffffffff1673ffffffffffffffffffffffffffffffffffffffff16815260200190815260200160002054905092915050565b600033905090565b600073ffffffffffffffffffffffffffffffffffffffff168373ffffffffffffffffffffffffffffffffffffffff160361073a576040517f08c379a000000000000000000000000000000000000000000000000000000000815260040161073190611247565b60405180910390fd5b600073ffffffffffffffffffffffffffffffffffffffff168273ffffffffffffffffffffffffffffffffffffffff16036107a9576040517f08c379a00000000000000000000000000000000000000000000000000000000081526004016107a0906112d9565b60405180910390fd5b80600160008573ffffffffffffffffffffffffffffffffffffffff1673ffffffffffffffffffffffffffffffffffffffff16815260200190815260200160002060008473ffffffffffffffffffffffffffffffffffffffff1673ffffffffffffffffffffffffffffffffffffffff168152602001908152602001600020819055508173ffffffffffffffffffffffffffffffffffffffff168373ffffffffffffffffffffffffffffffffffffffff167f8c5be1e5ebec7d5bd14f71427d1e84f3dd0314c0f7b2291e5b200ac8c7c3b925836040516108879190610ed8565b60405180910390a3505050565b60006108a0848461063c565b90507fffffffffffffffffffffffffffffffffffffffffffffffffffffffffffffffff811461091a578181101561090c576040517f08c379a000000000000000000000000000000000000000000000000000000000815260040161090390611345565b60405180910390fd5b61091984848484036106cb565b5b50505050565b600073ffffffffffffffffffffffffffffffffffffffff168373ffffffffffffffffffffffffffffffffffffffff160361098f576040517f08c379a0000000000000000000000000000000000000000000000000000000008152600401610986906113d7565b60405180910390fd5b600073ffffffffffffffffffffffffffffffffffffffff168273ffffffffffffffffffffffffffffffffffffffff16036109fe576040517f08c379a00000000000000000000000000000000000000000000000000000000081526004016109f590611469565b60405180910390fd5b610a09838383610cfe565b60008060008573ffffffffffffffffffffffffffffffffffffffff1673ffffffffffffffffffffffffffffffffffffffff16815260200190815260200160002054905081811015610a8f576040517f08c379a0000000000000000000000000000000000000000000000000000000008152600401610a86906114fb565b60405180910390fd5b8181036000808673ffffffffffffffffffffffffffffffffffffffff1673ffffffffffffffffffffffffffffffffffffffff16815260200190815260200160002081905550816000808573ffffffffffffffffffffffffffffffffffffffff1673ffffffffffffffffffffffffffffffffffffffff1681526020019081526020016000206000828254610b2291906110a3565b925050819055508273ffffffffffffffffffffffffffffffffffffffff168473ffffffffffffffffffffffffffffffffffffffff167fddf252ad1be2c89b69c2b068fc378daa952ba7f163c4a11628f55a4df523b3ef84604051610b869190610ed8565b60405180910390a3610b99848484610d03565b50505050565b600073ffffffffffffffffffffffffffffffffffffffff168273ffffffffffffffffffffffffffffffffffffffff1603610c0e576040517f08c379a0000000000000000000000000000000000000000000000000000000008152600401610c0590611567565b60405180910390fd5b610c1a60008383610cfe565b8060026000828254610c2c91906110a3565b92505081905550806000808473ffffffffffffffffffffffffffffffffffffffff1673ffffffffffffffffffffffffffffffffffffffff1681526020019081526020016000206000828254610c8191906110a3565b925050819055508173ffffffffffffffffffffffffffffffffffffffff16600073ffffffffffffffffffffffffffffffffffffffff167fddf252ad1be2c89b69c2b068fc378daa952ba7f163c4a11628f55a4df523b3ef83604051610ce69190610ed8565b60405180910390a3610cfa60008383610d03565b5050565b505050565b505050565b600081519050919050565b600082825260208201905092915050565b60005b83811015610d42578082015181840152602081019050610d27565b60008484015250505050565b6000601f19601f8301169050919050565b6000610d6a82610d08565b610d748185610d13565b9350610d84818560208601610d24565b610d8d81610d4e565b840191505092915050565b60006020820190508181036000830152610db28184610d5f565b905092915050565b600080fd5b600073ffffffffffffffffffffffffffffffffffffffff82169050919050565b6000610dea82610dbf565b9050919050565b610dfa81610ddf565b8114610e0557600080fd5b50565b600081359050610e1781610df1565b92915050565b6000819050919050565b610e3081610e1d565b8114610e3b57600080fd5b50565b600081359050610e4d81610e27565b92915050565b60008060408385031215610e6a57610e69610dba565b5b6000610e7885828601610e08565b9250506020610e8985828601610e3e565b9150509250929050565b60008115159050919050565b610ea881610e93565b82525050565b6000602082019050610ec36000830184610e9f565b92915050565b610ed281610e1d565b82525050565b6000602082019050610eed6000830184610ec9565b92915050565b600080600060608486031215610f0c57610f0b610dba565b5b6000610f1a86828701610e08565b9350506020610f2b86828701610e08565b9250506040610f3c86828701610e3e565b9150509250925092565b600060ff82169050919050565b610f5c81610f46565b82525050565b6000602082019050610f776000830184610f53565b92915050565b600060208284031215610f9357610f92610dba565b5b6000610fa184828501610e08565b91505092915050565b610fb381610ddf565b82525050565b6000602082019050610fce6000830184610faa565b92915050565b60008060408385031215610feb57610fea610dba565b5b6000610ff985828601610e08565b925050602061100a85828601610e08565b9150509250929050565b7f4e487b7100000000000000000000000000000000000000000000000000000000600052602260045260246000fd5b6000600282049050600182168061105b57607f821691505b60208210810361106e5761106d611014565b5b50919050565b7f4e487b7100000000000000000000000000000000000000000000000000000000600052601160045260246000fd5b60006110ae82610e1d565b91506110b983610e1d565b92508282019050808211156110d1576110d0611074565b5b92915050565b7f43616c6c6572206973206e6f7420446562307820636f6e74726163742e000000600082015250565b600061110d601d83610d13565b9150611118826110d7565b602082019050919050565b6000602082019050818103600083015261113c81611100565b9050919050565b7f45524332303a2064656372656173656420616c6c6f77616e63652062656c6f7760008201527f207a65726f000000000000000000000000000000000000000000000000000000602082015250565b600061119f602583610d13565b91506111aa82611143565b604082019050919050565b600060208201905081810360008301526111ce81611192565b9050919050565b7f45524332303a20617070726f76652066726f6d20746865207a65726f2061646460008201527f7265737300000000000000000000000000000000000000000000000000000000602082015250565b6000611231602483610d13565b915061123c826111d5565b604082019050919050565b6000602082019050818103600083015261126081611224565b9050919050565b7f45524332303a20617070726f766520746f20746865207a65726f20616464726560008201527f7373000000000000000000000000000000000000000000000000000000000000602082015250565b60006112c3602283610d13565b91506112ce82611267565b604082019050919050565b600060208201905081810360008301526112f2816112b6565b9050919050565b7f45524332303a20696e73756666696369656e7420616c6c6f77616e6365000000600082015250565b600061132f601d83610d13565b915061133a826112f9565b602082019050919050565b6000602082019050818103600083015261135e81611322565b9050919050565b7f45524332303a207472616e736665722066726f6d20746865207a65726f20616460008201527f6472657373000000000000000000000000000000000000000000000000000000602082015250565b60006113c1602583610d13565b91506113cc82611365565b604082019050919050565b600060208201905081810360008301526113f0816113b4565b9050919050565b7f45524332303a207472616e7366657220746f20746865207a65726f206164647260008201527f6573730000000000000000000000000000000000000000000000000000000000602082015250565b6000611453602383610d13565b915061145e826113f7565b604082019050919050565b6000602082019050818103600083015261148281611446565b9050919050565b7f45524332303a207472616e7366657220616d6f756e742065786365656473206260008201527f616c616e63650000000000000000000000000000000000000000000000000000602082015250565b60006114e5602683610d13565b91506114f082611489565b604082019050919050565b60006020820190508181036000830152611514816114d8565b9050919050565b7f45524332303a206d696e7420746f20746865207a65726f206164647265737300600082015250565b6000611551601f83610d13565b915061155c8261151b565b602082019050919050565b6000602082019050818103600083015261158081611544565b905091905056fea26469706673582212208483cc6fafded2805fa1775f806e37eb3ee99d40edc02dd4923f84d720a1625a64736f6c63430008100033",
  "linkReferences": {},
  "deployedLinkReferences": {}
}