{
  "_format": "hh-sol-artifact-1",
  "contractName": "Deb0x",
  "sourceName": "contracts/Deb0x.sol",
  "abi": [
    {
      "inputs": [],
      "stateMutability": "nonpayable",
      "type": "constructor"
    },
    {
      "anonymous": false,
      "inputs": [
        {
          "indexed": true,
          "internalType": "address",
          "name": "previousOwner",
          "type": "address"
        },
        {
          "indexed": true,
          "internalType": "address",
          "name": "newOwner",
          "type": "address"
        }
      ],
      "name": "OwnershipTransferred",
      "type": "event"
    },
    {
      "inputs": [
        {
          "internalType": "address",
          "name": "",
          "type": "address"
        }
      ],
      "name": "balanceERC20",
      "outputs": [
        {
          "internalType": "uint256",
          "name": "",
          "type": "uint256"
        }
      ],
      "stateMutability": "view",
      "type": "function"
    },
    {
      "inputs": [],
      "name": "contractBalance",
      "outputs": [
        {
          "internalType": "uint256",
          "name": "",
          "type": "uint256"
        }
      ],
      "stateMutability": "view",
      "type": "function"
    },
    {
      "inputs": [],
      "name": "deboxERC20",
      "outputs": [
        {
          "internalType": "contract Deb0xERC20",
          "name": "",
          "type": "address"
        }
      ],
      "stateMutability": "view",
      "type": "function"
    },
    {
      "inputs": [
        {
          "internalType": "address",
          "name": "account",
          "type": "address"
        }
      ],
      "name": "earnedNative",
      "outputs": [
        {
          "internalType": "uint256",
          "name": "",
          "type": "uint256"
        }
      ],
      "stateMutability": "view",
      "type": "function"
    },
    {
      "inputs": [],
      "name": "fee",
      "outputs": [
        {
          "internalType": "uint16",
          "name": "",
          "type": "uint16"
        }
      ],
      "stateMutability": "view",
      "type": "function"
    },
    {
      "inputs": [
        {
          "internalType": "address",
          "name": "to",
          "type": "address"
        }
      ],
      "name": "fetchMessageSenders",
      "outputs": [
        {
          "internalType": "address[]",
          "name": "",
          "type": "address[]"
        }
      ],
      "stateMutability": "view",
      "type": "function"
    },
    {
      "inputs": [
        {
          "internalType": "address",
          "name": "to",
          "type": "address"
        },
        {
          "internalType": "address",
          "name": "from",
          "type": "address"
        }
      ],
      "name": "fetchMessages",
      "outputs": [
        {
          "internalType": "string[]",
          "name": "",
          "type": "string[]"
        }
      ],
      "stateMutability": "view",
      "type": "function"
    },
    {
      "inputs": [
        {
          "internalType": "address",
          "name": "account",
          "type": "address"
        }
      ],
      "name": "getKey",
      "outputs": [
        {
          "internalType": "string",
          "name": "",
          "type": "string"
        }
      ],
      "stateMutability": "view",
      "type": "function"
    },
    {
      "inputs": [],
      "name": "getRewardNative",
      "outputs": [],
      "stateMutability": "nonpayable",
      "type": "function"
    },
    {
      "inputs": [],
      "name": "governor",
      "outputs": [
        {
          "internalType": "contract Deb0xGovernor",
          "name": "",
          "type": "address"
        }
      ],
      "stateMutability": "view",
      "type": "function"
    },
    {
      "inputs": [],
      "name": "lastUpdateTime",
      "outputs": [
        {
          "internalType": "uint256",
          "name": "",
          "type": "uint256"
        }
      ],
      "stateMutability": "view",
      "type": "function"
    },
    {
      "inputs": [],
      "name": "owner",
      "outputs": [
        {
          "internalType": "address",
          "name": "",
          "type": "address"
        }
      ],
      "stateMutability": "view",
      "type": "function"
    },
    {
      "inputs": [],
      "name": "renounceOwnership",
      "outputs": [],
      "stateMutability": "nonpayable",
      "type": "function"
    },
    {
      "inputs": [],
      "name": "rewardPerToken",
      "outputs": [
        {
          "internalType": "uint256",
          "name": "",
          "type": "uint256"
        }
      ],
      "stateMutability": "view",
      "type": "function"
    },
    {
      "inputs": [],
      "name": "rewardPerTokenStored",
      "outputs": [
        {
          "internalType": "uint256",
          "name": "",
          "type": "uint256"
        }
      ],
      "stateMutability": "view",
      "type": "function"
    },
    {
      "inputs": [],
      "name": "rewardRate",
      "outputs": [
        {
          "internalType": "uint256",
          "name": "",
          "type": "uint256"
        }
      ],
      "stateMutability": "view",
      "type": "function"
    },
    {
      "inputs": [
        {
          "internalType": "address",
          "name": "",
          "type": "address"
        }
      ],
      "name": "rewards",
      "outputs": [
        {
          "internalType": "uint256",
          "name": "",
          "type": "uint256"
        }
      ],
      "stateMutability": "view",
      "type": "function"
    },
    {
      "inputs": [
        {
          "internalType": "address",
          "name": "to",
          "type": "address"
        },
        {
          "internalType": "string",
          "name": "payload",
          "type": "string"
        }
      ],
      "name": "send",
      "outputs": [],
      "stateMutability": "payable",
      "type": "function"
    },
    {
      "inputs": [
        {
          "internalType": "uint16",
          "name": "newFee",
          "type": "uint16"
        }
      ],
      "name": "setFee",
      "outputs": [],
      "stateMutability": "nonpayable",
      "type": "function"
    },
    {
      "inputs": [
        {
          "internalType": "string",
          "name": "encryptionKey",
          "type": "string"
        }
      ],
      "name": "setKey",
      "outputs": [],
      "stateMutability": "nonpayable",
      "type": "function"
    },
    {
      "inputs": [
        {
          "internalType": "uint256",
          "name": "newRewardRate",
          "type": "uint256"
        }
      ],
      "name": "setRewardRate",
      "outputs": [],
      "stateMutability": "nonpayable",
      "type": "function"
    },
    {
      "inputs": [
        {
          "internalType": "uint256",
          "name": "_amount",
          "type": "uint256"
        }
      ],
      "name": "stakeERC20",
      "outputs": [],
      "stateMutability": "payable",
      "type": "function"
    },
    {
      "inputs": [],
      "name": "totalSupply",
      "outputs": [
        {
          "internalType": "uint256",
          "name": "",
          "type": "uint256"
        }
      ],
      "stateMutability": "view",
      "type": "function"
    },
    {
      "inputs": [
        {
          "internalType": "address",
          "name": "newOwner",
          "type": "address"
        }
      ],
      "name": "transferOwnership",
      "outputs": [],
      "stateMutability": "nonpayable",
      "type": "function"
    },
    {
      "inputs": [
        {
          "internalType": "uint256",
          "name": "_amount",
          "type": "uint256"
        }
      ],
      "name": "unStakeERC20",
      "outputs": [],
      "stateMutability": "nonpayable",
      "type": "function"
    },
    {
      "inputs": [
        {
          "internalType": "address",
          "name": "",
          "type": "address"
        }
      ],
      "name": "userRewardPerTokenPaid",
      "outputs": [
        {
          "internalType": "uint256",
          "name": "",
          "type": "uint256"
        }
      ],
      "stateMutability": "view",
      "type": "function"
    }
  ],
  "bytecode": "0x60806040526103e8600260146101000a81548161ffff021916908361ffff16021790555060646006556001600d60006101000a81548160ff021916908360ff160217905550671f399b1438a10000600f553480156200005d57600080fd5b506200007e620000726200031460201b60201c565b6200031c60201b60201c565b306040516200008d90620003e0565b62000099919062000433565b604051809103906000f080158015620000b6573d6000803e3d6000fd5b50600160006101000a81548173ffffffffffffffffffffffffffffffffffffffff021916908373ffffffffffffffffffffffffffffffffffffffff160217905550600160009054906101000a900473ffffffffffffffffffffffffffffffffffffffff1673ffffffffffffffffffffffffffffffffffffffff1663095ea7b330600160009054906101000a900473ffffffffffffffffffffffffffffffffffffffff1673ffffffffffffffffffffffffffffffffffffffff166318160ddd6040518163ffffffff1660e01b8152600401602060405180830381865afa158015620001a4573d6000803e3d6000fd5b505050506040513d601f19601f82011682018060405250810190620001ca919062000490565b6040518363ffffffff1660e01b8152600401620001e9929190620004d3565b6020604051808303816000875af115801562000209573d6000803e3d6000fd5b505050506040513d601f19601f820116820180604052508101906200022f91906200053d565b50600160009054906101000a900473ffffffffffffffffffffffffffffffffffffffff1673ffffffffffffffffffffffffffffffffffffffff166318160ddd6040518163ffffffff1660e01b8152600401602060405180830381865afa1580156200029e573d6000803e3d6000fd5b505050506040513d601f19601f82011682018060405250810190620002c4919062000490565b600960003073ffffffffffffffffffffffffffffffffffffffff1673ffffffffffffffffffffffffffffffffffffffff1681526020019081526020016000208190555042600e819055506200056f565b600033905090565b60008060009054906101000a900473ffffffffffffffffffffffffffffffffffffffff169050816000806101000a81548173ffffffffffffffffffffffffffffffffffffffff021916908373ffffffffffffffffffffffffffffffffffffffff1602179055508173ffffffffffffffffffffffffffffffffffffffff168173ffffffffffffffffffffffffffffffffffffffff167f8be0079c531659141344cd1fd0a4f28419497f9722a3daafe3b4186f6b6457e060405160405180910390a35050565b61190a8062002ece83390190565b600073ffffffffffffffffffffffffffffffffffffffff82169050919050565b60006200041b82620003ee565b9050919050565b6200042d816200040e565b82525050565b60006020820190506200044a600083018462000422565b92915050565b600080fd5b6000819050919050565b6200046a8162000455565b81146200047657600080fd5b50565b6000815190506200048a816200045f565b92915050565b600060208284031215620004a957620004a862000450565b5b6000620004b98482850162000479565b91505092915050565b620004cd8162000455565b82525050565b6000604082019050620004ea600083018562000422565b620004f96020830184620004c2565b9392505050565b60008115159050919050565b620005178162000500565b81146200052357600080fd5b50565b60008151905062000537816200050c565b92915050565b60006020828403121562000556576200055562000450565b5b6000620005668482850162000526565b91505092915050565b61294f806200057f6000396000f3fe6080604052600436106101815760003560e01c80638e005553116100d1578063b3328d341161008a578063cd3daf9d11610064578063cd3daf9d14610568578063ddca3f4314610593578063df136d65146105be578063f2fde38b146105e957610181565b8063b3328d34146104e4578063c8f33c9114610521578063cc7ef5091461054c57610181565b80638e005553146103e757806390a25a071461041057806393790f441461043957806399142b5f146104765780639e447fc614610492578063af42d106146104bb57610181565b806369131a471161013e5780637b0a47ee116101185780637b0a47ee146103295780638b7afe2e146103545780638b8763471461037f5780638da5cb5b146103bc57610181565b806369131a47146102be5780636d9384f9146102d5578063715018a61461031257610181565b80630700037d146101865780630c340a24146101c35780630f4ac71a146101ee57806318160ddd1461022b57806357a0641f1461025657806358503a9514610281575b600080fd5b34801561019257600080fd5b506101ad60048036038101906101a89190611b85565b610612565b6040516101ba9190611bcb565b60405180910390f35b3480156101cf57600080fd5b506101d861062a565b6040516101e59190611c45565b60405180910390f35b3480156101fa57600080fd5b5061021560048036038101906102109190611b85565b610650565b6040516102229190611bcb565b60405180910390f35b34801561023757600080fd5b50610240610668565b60405161024d9190611bcb565b60405180910390f35b34801561026257600080fd5b5061026b61066e565b6040516102789190611c81565b60405180910390f35b34801561028d57600080fd5b506102a860048036038101906102a39190611b85565b610694565b6040516102b59190611d5a565b60405180910390f35b3480156102ca57600080fd5b506102d3610761565b005b3480156102e157600080fd5b506102fc60048036038101906102f79190611d7c565b6108e3565b6040516103099190611f17565b60405180910390f35b34801561031e57600080fd5b50610327610a39565b005b34801561033557600080fd5b5061033e610ac1565b60405161034b9190611bcb565b60405180910390f35b34801561036057600080fd5b50610369610ac7565b6040516103769190611bcb565b60405180910390f35b34801561038b57600080fd5b506103a660048036038101906103a19190611b85565b610acf565b6040516103b39190611bcb565b60405180910390f35b3480156103c857600080fd5b506103d1610ae7565b6040516103de9190611f48565b60405180910390f35b3480156103f357600080fd5b5061040e60048036038101906104099190611f9d565b610b10565b005b34801561041c57600080fd5b5061043760048036038101906104329190611ff6565b610bac565b005b34801561044557600080fd5b50610460600480360381019061045b9190611b85565b610e3c565b60405161046d919061206d565b60405180910390f35b610490600480360381019061048b91906121c4565b610f0d565b005b34801561049e57600080fd5b506104b960048036038101906104b49190611ff6565b611396565b005b3480156104c757600080fd5b506104e260048036038101906104dd9190612220565b61141c565b005b3480156104f057600080fd5b5061050b60048036038101906105069190611b85565b611473565b6040516105189190611bcb565b60405180910390f35b34801561052d57600080fd5b50610536611575565b6040516105439190611bcb565b60405180910390f35b61056660048036038101906105619190611ff6565b61157b565b005b34801561057457600080fd5b5061057d61177d565b60405161058a9190611bcb565b60405180910390f35b34801561059f57600080fd5b506105a86117e1565b6040516105b59190612278565b60405180910390f35b3480156105ca57600080fd5b506105d36117f5565b6040516105e09190611bcb565b60405180910390f35b3480156105f557600080fd5b50610610600480360381019061060b9190611b85565b6117fb565b005b600b6020528060005260406000206000915090505481565b600260009054906101000a900473ffffffffffffffffffffffffffffffffffffffff1681565b60096020528060005260406000206000915090505481565b600c5481565b600160009054906101000a900473ffffffffffffffffffffffffffffffffffffffff1681565b6060600560008373ffffffffffffffffffffffffffffffffffffffff1673ffffffffffffffffffffffffffffffffffffffff16815260200190815260200160002080548060200260200160405190810160405280929190818152602001828054801561075557602002820191906000526020600020905b8160009054906101000a900473ffffffffffffffffffffffffffffffffffffffff1673ffffffffffffffffffffffffffffffffffffffff168152602001906001019080831161070b575b50505050509050919050565b3361076a61177d565b6008819055504260078190555061078081611473565b600b60008373ffffffffffffffffffffffffffffffffffffffff1673ffffffffffffffffffffffffffffffffffffffff16815260200190815260200160002081905550600854600a60008373ffffffffffffffffffffffffffffffffffffffff1673ffffffffffffffffffffffffffffffffffffffff168152602001908152602001600020819055506000600b60003373ffffffffffffffffffffffffffffffffffffffff1673ffffffffffffffffffffffffffffffffffffffff16815260200190815260200160002054905060008111610890576040517f08c379a0000000000000000000000000000000000000000000000000000000008152600401610887906122df565b60405180910390fd5b6000600b60003373ffffffffffffffffffffffffffffffffffffffff1673ffffffffffffffffffffffffffffffffffffffff168152602001908152602001600020819055506108df33826118f3565b5050565b6060600460008473ffffffffffffffffffffffffffffffffffffffff1673ffffffffffffffffffffffffffffffffffffffff16815260200190815260200160002060008373ffffffffffffffffffffffffffffffffffffffff1673ffffffffffffffffffffffffffffffffffffffff168152602001908152602001600020805480602002602001604051908101604052809291908181526020016000905b82821015610a2d5783829060005260206000200180546109a09061232e565b80601f01602080910402602001604051908101604052809291908181526020018280546109cc9061232e565b8015610a195780601f106109ee57610100808354040283529160200191610a19565b820191906000526020600020905b8154815290600101906020018083116109fc57829003601f168201915b505050505081526020019060010190610981565b50505050905092915050565b610a416119a4565b73ffffffffffffffffffffffffffffffffffffffff16610a5f610ae7565b73ffffffffffffffffffffffffffffffffffffffff1614610ab5576040517f08c379a0000000000000000000000000000000000000000000000000000000008152600401610aac906123ac565b60405180910390fd5b610abf60006119ac565b565b60065481565b600047905090565b600a6020528060005260406000206000915090505481565b60008060009054906101000a900473ffffffffffffffffffffffffffffffffffffffff16905090565b610b186119a4565b73ffffffffffffffffffffffffffffffffffffffff16610b36610ae7565b73ffffffffffffffffffffffffffffffffffffffff1614610b8c576040517f08c379a0000000000000000000000000000000000000000000000000000000008152600401610b83906123ac565b60405180910390fd5b80600260146101000a81548161ffff021916908361ffff16021790555050565b33610bb561177d565b60088190555042600781905550610bcb81611473565b600b60008373ffffffffffffffffffffffffffffffffffffffff1673ffffffffffffffffffffffffffffffffffffffff16815260200190815260200160002081905550600854600a60008373ffffffffffffffffffffffffffffffffffffffff1673ffffffffffffffffffffffffffffffffffffffff168152602001908152602001600020819055506000821415610c98576040517f08c379a0000000000000000000000000000000000000000000000000000000008152600401610c8f90612418565b60405180910390fd5b600082600960003373ffffffffffffffffffffffffffffffffffffffff1673ffffffffffffffffffffffffffffffffffffffff16815260200190815260200160002054610ce59190612467565b1015610d26576040517f08c379a0000000000000000000000000000000000000000000000000000000008152600401610d1d906124e7565b60405180910390fd5b81600c6000828254610d389190612467565b9250508190555081600960003373ffffffffffffffffffffffffffffffffffffffff1673ffffffffffffffffffffffffffffffffffffffff1681526020019081526020016000206000828254610d8e9190612467565b92505081905550600160009054906101000a900473ffffffffffffffffffffffffffffffffffffffff1673ffffffffffffffffffffffffffffffffffffffff166323b872dd3033856040518463ffffffff1660e01b8152600401610df493929190612507565b6020604051808303816000875af1158015610e13573d6000803e3d6000fd5b505050506040513d601f19601f82011682018060405250810190610e379190612576565b505050565b6060600360008373ffffffffffffffffffffffffffffffffffffffff1673ffffffffffffffffffffffffffffffffffffffff1681526020019081526020016000208054610e889061232e565b80601f0160208091040260200160405190810160405280929190818152602001828054610eb49061232e565b8015610f015780601f10610ed657610100808354040283529160200191610f01565b820191906000526020600020905b815481529060010190602001808311610ee457829003601f168201915b50505050509050919050565b33610f1661177d565b60088190555042600781905550610f2c81611473565b600b60008373ffffffffffffffffffffffffffffffffffffffff1673ffffffffffffffffffffffffffffffffffffffff16815260200190815260200160002081905550600854600a60008373ffffffffffffffffffffffffffffffffffffffff1673ffffffffffffffffffffffffffffffffffffffff1681526020019081526020016000208190555060005a9050600e54621f47d0600d60009054906101000a900460ff1660ff16610fde91906125b2565b62ffffff16610fed91906125ef565b421115611041576001600d60008282829054906101000a900460ff166110139190612652565b92506101000a81548160ff021916908360ff1602179055506002600f5461103a91906126b8565b600f819055505b6000600460008673ffffffffffffffffffffffffffffffffffffffff1673ffffffffffffffffffffffffffffffffffffffff16815260200190815260200160002060003373ffffffffffffffffffffffffffffffffffffffff1673ffffffffffffffffffffffffffffffffffffffff16815260200190815260200160002080549050141561116a57600560008573ffffffffffffffffffffffffffffffffffffffff1673ffffffffffffffffffffffffffffffffffffffff168152602001908152602001600020339080600181540180825580915050600190039060005260206000200160009091909190916101000a81548173ffffffffffffffffffffffffffffffffffffffff021916908373ffffffffffffffffffffffffffffffffffffffff1602179055505b600f54600960003073ffffffffffffffffffffffffffffffffffffffff1673ffffffffffffffffffffffffffffffffffffffff16815260200190815260200160002060008282546111bb9190612467565b92505081905550600f54600960003373ffffffffffffffffffffffffffffffffffffffff1673ffffffffffffffffffffffffffffffffffffffff168152602001908152602001600020600082825461121391906125ef565b92505081905550600f54600c600082825461122e91906125ef565b92505081905550600460008573ffffffffffffffffffffffffffffffffffffffff1673ffffffffffffffffffffffffffffffffffffffff16815260200190815260200160002060003373ffffffffffffffffffffffffffffffffffffffff1673ffffffffffffffffffffffffffffffffffffffff168152602001908152602001600020839080600181540180825580915050600190039060005260206000200160009091909190915090805190602001906112ea929190611a70565b5060005a826112f99190612467565b9050612710600260149054906101000a900461ffff1661ffff163a61c3506152088561132591906125ef565b61132f91906125ef565b61133991906126e9565b61134391906126e9565b61134d91906126b8565b34101561138f576040517f08c379a0000000000000000000000000000000000000000000000000000000008152600401611386906127b5565b60405180910390fd5b5050505050565b61139e6119a4565b73ffffffffffffffffffffffffffffffffffffffff166113bc610ae7565b73ffffffffffffffffffffffffffffffffffffffff1614611412576040517f08c379a0000000000000000000000000000000000000000000000000000000008152600401611409906123ac565b60405180910390fd5b8060068190555050565b80600360003373ffffffffffffffffffffffffffffffffffffffff1673ffffffffffffffffffffffffffffffffffffffff168152602001908152602001600020908051906020019061146f929190611a70565b5050565b6000600b60008373ffffffffffffffffffffffffffffffffffffffff1673ffffffffffffffffffffffffffffffffffffffff16815260200190815260200160002054670de0b6b3a7640000600a60008573ffffffffffffffffffffffffffffffffffffffff1673ffffffffffffffffffffffffffffffffffffffff1681526020019081526020016000205461150661177d565b6115109190612467565b600960008673ffffffffffffffffffffffffffffffffffffffff1673ffffffffffffffffffffffffffffffffffffffff1681526020019081526020016000205461155a91906126e9565b61156491906126b8565b61156e91906125ef565b9050919050565b60075481565b3361158461177d565b6008819055504260078190555061159a81611473565b600b60008373ffffffffffffffffffffffffffffffffffffffff1673ffffffffffffffffffffffffffffffffffffffff16815260200190815260200160002081905550600854600a60008373ffffffffffffffffffffffffffffffffffffffff1673ffffffffffffffffffffffffffffffffffffffff168152602001908152602001600020819055506000821415611667576040517f08c379a000000000000000000000000000000000000000000000000000000000815260040161165e90612418565b60405180910390fd5b81600c600082825461167991906125ef565b9250508190555081600960003373ffffffffffffffffffffffffffffffffffffffff1673ffffffffffffffffffffffffffffffffffffffff16815260200190815260200160002060008282546116cf91906125ef565b92505081905550600160009054906101000a900473ffffffffffffffffffffffffffffffffffffffff1673ffffffffffffffffffffffffffffffffffffffff166323b872dd3330856040518463ffffffff1660e01b815260040161173593929190612507565b6020604051808303816000875af1158015611754573d6000803e3d6000fd5b505050506040513d601f19601f820116820180604052508101906117789190612576565b505050565b600080600c5414156117935760085490506117de565b600c54670de0b6b3a7640000600654600754426117b09190612467565b6117ba91906126e9565b6117c491906126e9565b6117ce91906126b8565b6008546117db91906125ef565b90505b90565b600260149054906101000a900461ffff1681565b60085481565b6118036119a4565b73ffffffffffffffffffffffffffffffffffffffff16611821610ae7565b73ffffffffffffffffffffffffffffffffffffffff1614611877576040517f08c379a000000000000000000000000000000000000000000000000000000000815260040161186e906123ac565b60405180910390fd5b600073ffffffffffffffffffffffffffffffffffffffff168173ffffffffffffffffffffffffffffffffffffffff1614156118e7576040517f08c379a00000000000000000000000000000000000000000000000000000000081526004016118de90612847565b60405180910390fd5b6118f0816119ac565b50565b60008273ffffffffffffffffffffffffffffffffffffffff168260405161191990612898565b60006040518083038185875af1925050503d8060008114611956576040519150601f19603f3d011682016040523d82523d6000602084013e61195b565b606091505b505090508061199f576040517f08c379a0000000000000000000000000000000000000000000000000000000008152600401611996906128f9565b60405180910390fd5b505050565b600033905090565b60008060009054906101000a900473ffffffffffffffffffffffffffffffffffffffff169050816000806101000a81548173ffffffffffffffffffffffffffffffffffffffff021916908373ffffffffffffffffffffffffffffffffffffffff1602179055508173ffffffffffffffffffffffffffffffffffffffff168173ffffffffffffffffffffffffffffffffffffffff167f8be0079c531659141344cd1fd0a4f28419497f9722a3daafe3b4186f6b6457e060405160405180910390a35050565b828054611a7c9061232e565b90600052602060002090601f016020900481019282611a9e5760008555611ae5565b82601f10611ab757805160ff1916838001178555611ae5565b82800160010185558215611ae5579182015b82811115611ae4578251825591602001919060010190611ac9565b5b509050611af29190611af6565b5090565b5b80821115611b0f576000816000905550600101611af7565b5090565b6000604051905090565b600080fd5b600080fd5b600073ffffffffffffffffffffffffffffffffffffffff82169050919050565b6000611b5282611b27565b9050919050565b611b6281611b47565b8114611b6d57600080fd5b50565b600081359050611b7f81611b59565b92915050565b600060208284031215611b9b57611b9a611b1d565b5b6000611ba984828501611b70565b91505092915050565b6000819050919050565b611bc581611bb2565b82525050565b6000602082019050611be06000830184611bbc565b92915050565b6000819050919050565b6000611c0b611c06611c0184611b27565b611be6565b611b27565b9050919050565b6000611c1d82611bf0565b9050919050565b6000611c2f82611c12565b9050919050565b611c3f81611c24565b82525050565b6000602082019050611c5a6000830184611c36565b92915050565b6000611c6b82611c12565b9050919050565b611c7b81611c60565b82525050565b6000602082019050611c966000830184611c72565b92915050565b600081519050919050565b600082825260208201905092915050565b6000819050602082019050919050565b611cd181611b47565b82525050565b6000611ce38383611cc8565b60208301905092915050565b6000602082019050919050565b6000611d0782611c9c565b611d118185611ca7565b9350611d1c83611cb8565b8060005b83811015611d4d578151611d348882611cd7565b9750611d3f83611cef565b925050600181019050611d20565b5085935050505092915050565b60006020820190508181036000830152611d748184611cfc565b905092915050565b60008060408385031215611d9357611d92611b1d565b5b6000611da185828601611b70565b9250506020611db285828601611b70565b9150509250929050565b600081519050919050565b600082825260208201905092915050565b6000819050602082019050919050565b600081519050919050565b600082825260208201905092915050565b60005b83811015611e22578082015181840152602081019050611e07565b83811115611e31576000848401525b50505050565b6000601f19601f8301169050919050565b6000611e5382611de8565b611e5d8185611df3565b9350611e6d818560208601611e04565b611e7681611e37565b840191505092915050565b6000611e8d8383611e48565b905092915050565b6000602082019050919050565b6000611ead82611dbc565b611eb78185611dc7565b935083602082028501611ec985611dd8565b8060005b85811015611f055784840389528151611ee68582611e81565b9450611ef183611e95565b925060208a01995050600181019050611ecd565b50829750879550505050505092915050565b60006020820190508181036000830152611f318184611ea2565b905092915050565b611f4281611b47565b82525050565b6000602082019050611f5d6000830184611f39565b92915050565b600061ffff82169050919050565b611f7a81611f63565b8114611f8557600080fd5b50565b600081359050611f9781611f71565b92915050565b600060208284031215611fb357611fb2611b1d565b5b6000611fc184828501611f88565b91505092915050565b611fd381611bb2565b8114611fde57600080fd5b50565b600081359050611ff081611fca565b92915050565b60006020828403121561200c5761200b611b1d565b5b600061201a84828501611fe1565b91505092915050565b600082825260208201905092915050565b600061203f82611de8565b6120498185612023565b9350612059818560208601611e04565b61206281611e37565b840191505092915050565b600060208201905081810360008301526120878184612034565b905092915050565b600080fd5b600080fd5b7f4e487b7100000000000000000000000000000000000000000000000000000000600052604160045260246000fd5b6120d182611e37565b810181811067ffffffffffffffff821117156120f0576120ef612099565b5b80604052505050565b6000612103611b13565b905061210f82826120c8565b919050565b600067ffffffffffffffff82111561212f5761212e612099565b5b61213882611e37565b9050602081019050919050565b82818337600083830152505050565b600061216761216284612114565b6120f9565b90508281526020810184848401111561218357612182612094565b5b61218e848285612145565b509392505050565b600082601f8301126121ab576121aa61208f565b5b81356121bb848260208601612154565b91505092915050565b600080604083850312156121db576121da611b1d565b5b60006121e985828601611b70565b925050602083013567ffffffffffffffff81111561220a57612209611b22565b5b61221685828601612196565b9150509250929050565b60006020828403121561223657612235611b1d565b5b600082013567ffffffffffffffff81111561225457612253611b22565b5b61226084828501612196565b91505092915050565b61227281611f63565b82525050565b600060208201905061228d6000830184612269565b92915050565b7f44656230783a20796f7572207265776172642062616c616e6365206973203000600082015250565b60006122c9601f83612023565b91506122d482612293565b602082019050919050565b600060208201905081810360008301526122f8816122bc565b9050919050565b7f4e487b7100000000000000000000000000000000000000000000000000000000600052602260045260246000fd5b6000600282049050600182168061234657607f821691505b6020821081141561235a576123596122ff565b5b50919050565b7f4f776e61626c653a2063616c6c6572206973206e6f7420746865206f776e6572600082015250565b6000612396602083612023565b91506123a182612360565b602082019050919050565b600060208201905081810360008301526123c581612389565b9050919050565b7f44656230783a20796f757220616d6f756e742069732030000000000000000000600082015250565b6000612402601783612023565b915061240d826123cc565b602082019050919050565b60006020820190508181036000830152612431816123f5565b9050919050565b7f4e487b7100000000000000000000000000000000000000000000000000000000600052601160045260246000fd5b600061247282611bb2565b915061247d83611bb2565b9250828210156124905761248f612438565b5b828203905092915050565b7f44656230783a20696e73756666696369656e742062616c616e63650000000000600082015250565b60006124d1601b83612023565b91506124dc8261249b565b602082019050919050565b60006020820190508181036000830152612500816124c4565b9050919050565b600060608201905061251c6000830186611f39565b6125296020830185611f39565b6125366040830184611bbc565b949350505050565b60008115159050919050565b6125538161253e565b811461255e57600080fd5b50565b6000815190506125708161254a565b92915050565b60006020828403121561258c5761258b611b1d565b5b600061259a84828501612561565b91505092915050565b600062ffffff82169050919050565b60006125bd826125a3565b91506125c8836125a3565b92508162ffffff04831182151516156125e4576125e3612438565b5b828202905092915050565b60006125fa82611bb2565b915061260583611bb2565b9250827fffffffffffffffffffffffffffffffffffffffffffffffffffffffffffffffff0382111561263a57612639612438565b5b828201905092915050565b600060ff82169050919050565b600061265d82612645565b915061266883612645565b92508260ff0382111561267e5761267d612438565b5b828201905092915050565b7f4e487b7100000000000000000000000000000000000000000000000000000000600052601260045260246000fd5b60006126c382611bb2565b91506126ce83611bb2565b9250826126de576126dd612689565b5b828204905092915050565b60006126f482611bb2565b91506126ff83611bb2565b9250817fffffffffffffffffffffffffffffffffffffffffffffffffffffffffffffffff048311821515161561273857612737612438565b5b828202905092915050565b7f44656230783a206d7573742070617920313025206f66207472616e736163746960008201527f6f6e20636f737400000000000000000000000000000000000000000000000000602082015250565b600061279f602783612023565b91506127aa82612743565b604082019050919050565b600060208201905081810360008301526127ce81612792565b9050919050565b7f4f776e61626c653a206e6577206f776e657220697320746865207a65726f206160008201527f6464726573730000000000000000000000000000000000000000000000000000602082015250565b6000612831602683612023565b915061283c826127d5565b604082019050919050565b6000602082019050818103600083015261286081612824565b9050919050565b600081905092915050565b50565b6000612882600083612867565b915061288d82612872565b600082019050919050565b60006128a382612875565b9150819050919050565b7f44656230783a206661696c656420746f2073656e6420616d6f756e7400000000600082015250565b60006128e3601c83612023565b91506128ee826128ad565b602082019050919050565b60006020820190508181036000830152612912816128d6565b905091905056fea2646970667358221220693b1d62f90e8247a9e1a5036b690fb30d14df386ba9f361099207bab8f263da64736f6c634300080c003360806040523480156200001157600080fd5b506040516200190a3803806200190a833981810160405281019062000037919062000397565b6040518060400160405280600581526020017f44656230780000000000000000000000000000000000000000000000000000008152506040518060400160405280600381526020017f44425800000000000000000000000000000000000000000000000000000000008152508160039080519060200190620000bb9291906200027d565b508060049080519060200190620000d49291906200027d565b505050620000f38169d3c21bcecceda1000000620000fa60201b60201c565b5062000575565b600073ffffffffffffffffffffffffffffffffffffffff168273ffffffffffffffffffffffffffffffffffffffff1614156200016d576040517f08c379a000000000000000000000000000000000000000000000000000000000815260040162000164906200042a565b60405180910390fd5b62000181600083836200027360201b60201c565b806002600082825462000195919062000485565b92505081905550806000808473ffffffffffffffffffffffffffffffffffffffff1673ffffffffffffffffffffffffffffffffffffffff1681526020019081526020016000206000828254620001ec919062000485565b925050819055508173ffffffffffffffffffffffffffffffffffffffff16600073ffffffffffffffffffffffffffffffffffffffff167fddf252ad1be2c89b69c2b068fc378daa952ba7f163c4a11628f55a4df523b3ef83604051620002539190620004f3565b60405180910390a36200026f600083836200027860201b60201c565b5050565b505050565b505050565b8280546200028b906200053f565b90600052602060002090601f016020900481019282620002af5760008555620002fb565b82601f10620002ca57805160ff1916838001178555620002fb565b82800160010185558215620002fb579182015b82811115620002fa578251825591602001919060010190620002dd565b5b5090506200030a91906200030e565b5090565b5b80821115620003295760008160009055506001016200030f565b5090565b600080fd5b600073ffffffffffffffffffffffffffffffffffffffff82169050919050565b60006200035f8262000332565b9050919050565b620003718162000352565b81146200037d57600080fd5b50565b600081519050620003918162000366565b92915050565b600060208284031215620003b057620003af6200032d565b5b6000620003c08482850162000380565b91505092915050565b600082825260208201905092915050565b7f45524332303a206d696e7420746f20746865207a65726f206164647265737300600082015250565b600062000412601f83620003c9565b91506200041f82620003da565b602082019050919050565b60006020820190508181036000830152620004458162000403565b9050919050565b6000819050919050565b7f4e487b7100000000000000000000000000000000000000000000000000000000600052601160045260246000fd5b600062000492826200044c565b91506200049f836200044c565b9250827fffffffffffffffffffffffffffffffffffffffffffffffffffffffffffffffff03821115620004d757620004d662000456565b5b828201905092915050565b620004ed816200044c565b82525050565b60006020820190506200050a6000830184620004e2565b92915050565b7f4e487b7100000000000000000000000000000000000000000000000000000000600052602260045260246000fd5b600060028204905060018216806200055857607f821691505b602082108114156200056f576200056e62000510565b5b50919050565b61138580620005856000396000f3fe608060405234801561001057600080fd5b50600436106100b45760003560e01c806370a082311161007157806370a08231146101a3578063902d55a5146101d357806395d89b41146101f1578063a457c2d71461020f578063a9059cbb1461023f578063dd62ed3e1461026f576100b4565b806306fdde03146100b9578063095ea7b3146100d757806318160ddd1461010757806323b872dd14610125578063313ce567146101555780633950935114610173575b600080fd5b6100c161029f565b6040516100ce9190610c3f565b60405180910390f35b6100f160048036038101906100ec9190610cfa565b610331565b6040516100fe9190610d55565b60405180910390f35b61010f610354565b60405161011c9190610d7f565b60405180910390f35b61013f600480360381019061013a9190610d9a565b61035e565b60405161014c9190610d55565b60405180910390f35b61015d61038d565b60405161016a9190610e09565b60405180910390f35b61018d60048036038101906101889190610cfa565b610396565b60405161019a9190610d55565b60405180910390f35b6101bd60048036038101906101b89190610e24565b610440565b6040516101ca9190610d7f565b60405180910390f35b6101db610488565b6040516101e89190610d7f565b60405180910390f35b6101f9610496565b6040516102069190610c3f565b60405180910390f35b61022960048036038101906102249190610cfa565b610528565b6040516102369190610d55565b60405180910390f35b61025960048036038101906102549190610cfa565b610612565b6040516102669190610d55565b60405180910390f35b61028960048036038101906102849190610e51565b610635565b6040516102969190610d7f565b60405180910390f35b6060600380546102ae90610ec0565b80601f01602080910402602001604051908101604052809291908181526020018280546102da90610ec0565b80156103275780601f106102fc57610100808354040283529160200191610327565b820191906000526020600020905b81548152906001019060200180831161030a57829003601f168201915b5050505050905090565b60008061033c6106bc565b90506103498185856106c4565b600191505092915050565b6000600254905090565b6000806103696106bc565b905061037685828561088f565b61038185858561091b565b60019150509392505050565b60006012905090565b6000806103a16106bc565b9050610435818585600160008673ffffffffffffffffffffffffffffffffffffffff1673ffffffffffffffffffffffffffffffffffffffff16815260200190815260200160002060008973ffffffffffffffffffffffffffffffffffffffff1673ffffffffffffffffffffffffffffffffffffffff168152602001908152602001600020546104309190610f21565b6106c4565b600191505092915050565b60008060008373ffffffffffffffffffffffffffffffffffffffff1673ffffffffffffffffffffffffffffffffffffffff168152602001908152602001600020549050919050565b69d3c21bcecceda100000081565b6060600480546104a590610ec0565b80601f01602080910402602001604051908101604052809291908181526020018280546104d190610ec0565b801561051e5780601f106104f35761010080835404028352916020019161051e565b820191906000526020600020905b81548152906001019060200180831161050157829003601f168201915b5050505050905090565b6000806105336106bc565b90506000600160008373ffffffffffffffffffffffffffffffffffffffff1673ffffffffffffffffffffffffffffffffffffffff16815260200190815260200160002060008673ffffffffffffffffffffffffffffffffffffffff1673ffffffffffffffffffffffffffffffffffffffff168152602001908152602001600020549050838110156105f9576040517f08c379a00000000000000000000000000000000000000000000000000000000081526004016105f090610fe9565b60405180910390fd5b61060682868684036106c4565b60019250505092915050565b60008061061d6106bc565b905061062a81858561091b565b600191505092915050565b6000600160008473ffffffffffffffffffffffffffffffffffffffff1673ffffffffffffffffffffffffffffffffffffffff16815260200190815260200160002060008373ffffffffffffffffffffffffffffffffffffffff1673ffffffffffffffffffffffffffffffffffffffff16815260200190815260200160002054905092915050565b600033905090565b600073ffffffffffffffffffffffffffffffffffffffff168373ffffffffffffffffffffffffffffffffffffffff161415610734576040517f08c379a000000000000000000000000000000000000000000000000000000000815260040161072b9061107b565b60405180910390fd5b600073ffffffffffffffffffffffffffffffffffffffff168273ffffffffffffffffffffffffffffffffffffffff1614156107a4576040517f08c379a000000000000000000000000000000000000000000000000000000000815260040161079b9061110d565b60405180910390fd5b80600160008573ffffffffffffffffffffffffffffffffffffffff1673ffffffffffffffffffffffffffffffffffffffff16815260200190815260200160002060008473ffffffffffffffffffffffffffffffffffffffff1673ffffffffffffffffffffffffffffffffffffffff168152602001908152602001600020819055508173ffffffffffffffffffffffffffffffffffffffff168373ffffffffffffffffffffffffffffffffffffffff167f8c5be1e5ebec7d5bd14f71427d1e84f3dd0314c0f7b2291e5b200ac8c7c3b925836040516108829190610d7f565b60405180910390a3505050565b600061089b8484610635565b90507fffffffffffffffffffffffffffffffffffffffffffffffffffffffffffffffff81146109155781811015610907576040517f08c379a00000000000000000000000000000000000000000000000000000000081526004016108fe90611179565b60405180910390fd5b61091484848484036106c4565b5b50505050565b600073ffffffffffffffffffffffffffffffffffffffff168373ffffffffffffffffffffffffffffffffffffffff16141561098b576040517f08c379a00000000000000000000000000000000000000000000000000000000081526004016109829061120b565b60405180910390fd5b600073ffffffffffffffffffffffffffffffffffffffff168273ffffffffffffffffffffffffffffffffffffffff1614156109fb576040517f08c379a00000000000000000000000000000000000000000000000000000000081526004016109f29061129d565b60405180910390fd5b610a06838383610b9c565b60008060008573ffffffffffffffffffffffffffffffffffffffff1673ffffffffffffffffffffffffffffffffffffffff16815260200190815260200160002054905081811015610a8c576040517f08c379a0000000000000000000000000000000000000000000000000000000008152600401610a839061132f565b60405180910390fd5b8181036000808673ffffffffffffffffffffffffffffffffffffffff1673ffffffffffffffffffffffffffffffffffffffff16815260200190815260200160002081905550816000808573ffffffffffffffffffffffffffffffffffffffff1673ffffffffffffffffffffffffffffffffffffffff1681526020019081526020016000206000828254610b1f9190610f21565b925050819055508273ffffffffffffffffffffffffffffffffffffffff168473ffffffffffffffffffffffffffffffffffffffff167fddf252ad1be2c89b69c2b068fc378daa952ba7f163c4a11628f55a4df523b3ef84604051610b839190610d7f565b60405180910390a3610b96848484610ba1565b50505050565b505050565b505050565b600081519050919050565b600082825260208201905092915050565b60005b83811015610be0578082015181840152602081019050610bc5565b83811115610bef576000848401525b50505050565b6000601f19601f8301169050919050565b6000610c1182610ba6565b610c1b8185610bb1565b9350610c2b818560208601610bc2565b610c3481610bf5565b840191505092915050565b60006020820190508181036000830152610c598184610c06565b905092915050565b600080fd5b600073ffffffffffffffffffffffffffffffffffffffff82169050919050565b6000610c9182610c66565b9050919050565b610ca181610c86565b8114610cac57600080fd5b50565b600081359050610cbe81610c98565b92915050565b6000819050919050565b610cd781610cc4565b8114610ce257600080fd5b50565b600081359050610cf481610cce565b92915050565b60008060408385031215610d1157610d10610c61565b5b6000610d1f85828601610caf565b9250506020610d3085828601610ce5565b9150509250929050565b60008115159050919050565b610d4f81610d3a565b82525050565b6000602082019050610d6a6000830184610d46565b92915050565b610d7981610cc4565b82525050565b6000602082019050610d946000830184610d70565b92915050565b600080600060608486031215610db357610db2610c61565b5b6000610dc186828701610caf565b9350506020610dd286828701610caf565b9250506040610de386828701610ce5565b9150509250925092565b600060ff82169050919050565b610e0381610ded565b82525050565b6000602082019050610e1e6000830184610dfa565b92915050565b600060208284031215610e3a57610e39610c61565b5b6000610e4884828501610caf565b91505092915050565b60008060408385031215610e6857610e67610c61565b5b6000610e7685828601610caf565b9250506020610e8785828601610caf565b9150509250929050565b7f4e487b7100000000000000000000000000000000000000000000000000000000600052602260045260246000fd5b60006002820490506001821680610ed857607f821691505b60208210811415610eec57610eeb610e91565b5b50919050565b7f4e487b7100000000000000000000000000000000000000000000000000000000600052601160045260246000fd5b6000610f2c82610cc4565b9150610f3783610cc4565b9250827fffffffffffffffffffffffffffffffffffffffffffffffffffffffffffffffff03821115610f6c57610f6b610ef2565b5b828201905092915050565b7f45524332303a2064656372656173656420616c6c6f77616e63652062656c6f7760008201527f207a65726f000000000000000000000000000000000000000000000000000000602082015250565b6000610fd3602583610bb1565b9150610fde82610f77565b604082019050919050565b6000602082019050818103600083015261100281610fc6565b9050919050565b7f45524332303a20617070726f76652066726f6d20746865207a65726f2061646460008201527f7265737300000000000000000000000000000000000000000000000000000000602082015250565b6000611065602483610bb1565b915061107082611009565b604082019050919050565b6000602082019050818103600083015261109481611058565b9050919050565b7f45524332303a20617070726f766520746f20746865207a65726f20616464726560008201527f7373000000000000000000000000000000000000000000000000000000000000602082015250565b60006110f7602283610bb1565b91506111028261109b565b604082019050919050565b60006020820190508181036000830152611126816110ea565b9050919050565b7f45524332303a20696e73756666696369656e7420616c6c6f77616e6365000000600082015250565b6000611163601d83610bb1565b915061116e8261112d565b602082019050919050565b6000602082019050818103600083015261119281611156565b9050919050565b7f45524332303a207472616e736665722066726f6d20746865207a65726f20616460008201527f6472657373000000000000000000000000000000000000000000000000000000602082015250565b60006111f5602583610bb1565b915061120082611199565b604082019050919050565b60006020820190508181036000830152611224816111e8565b9050919050565b7f45524332303a207472616e7366657220746f20746865207a65726f206164647260008201527f6573730000000000000000000000000000000000000000000000000000000000602082015250565b6000611287602383610bb1565b91506112928261122b565b604082019050919050565b600060208201905081810360008301526112b68161127a565b9050919050565b7f45524332303a207472616e7366657220616d6f756e742065786365656473206260008201527f616c616e63650000000000000000000000000000000000000000000000000000602082015250565b6000611319602683610bb1565b9150611324826112bd565b604082019050919050565b600060208201905081810360008301526113488161130c565b905091905056fea26469706673582212206ded3f1ea307ef989b0a96af827ed244298fe50b5bafda7cb7633263c1dee04d64736f6c634300080c0033",
  "linkReferences": {},
  "deployedLinkReferences": {}
}