{
    "_format": "hh-sol-artifact-1",
    "contractName": "Deb0x",
    "sourceName": "contracts/Deb0x.sol",
    "abi": [
        {
            "inputs": [
                {
                    "internalType": "address",
                    "name": "forwarder",
                    "type": "address"
                }
            ],
            "stateMutability": "nonpayable",
            "type": "constructor"
        },
        {
            "anonymous": false,
            "inputs": [
                {
                    "indexed": false,
                    "internalType": "uint256",
                    "name": "fees",
                    "type": "uint256"
                }
            ],
            "name": "FeesClaimed",
            "type": "event"
        },
        {
            "inputs": [],
            "name": "MAIL_FEE",
            "outputs": [
                {
                    "internalType": "uint16",
                    "name": "",
                    "type": "uint16"
                }
            ],
            "stateMutability": "view",
            "type": "function"
        },
        {
            "inputs": [
                {
                    "internalType": "address",
                    "name": "",
                    "type": "address"
                }
            ],
            "name": "addressAccruedFees",
            "outputs": [
                {
                    "anonymous": false,
                    "inputs": [
                        {
                            "indexed": true,
                            "internalType": "address",
                            "name": "userAddress",
                            "type": "address"
                        },
                        {
                            "indexed": false,
                            "internalType": "uint256",
                            "name": "fees",
                            "type": "uint256"
                        },
                        {
                            "indexed": false,
                            "internalType": "uint256",
                            "name": "cycle",
                            "type": "uint256"
                        }
                    ],
                    "name": "FeesClaimed",
                    "type": "event"
                },
                {
                    "anonymous": false,
                    "inputs": [
                        {
                            "indexed": true,
                            "internalType": "address",
                            "name": "userAddress",
                            "type": "address"
                        },
                        {
                            "indexed": false,
                            "internalType": "uint256",
                            "name": "fees",
                            "type": "uint256"
                        },
                        {
                            "indexed": false,
                            "internalType": "uint256",
                            "name": "cycle",
                            "type": "uint256"
                        }
                    ],
                    "name": "FrontEndFeesClaimed",
                    "type": "event"
                },
                {
                    "anonymous": false,
                    "inputs": [
                        {
                            "indexed": true,
                            "internalType": "address",
                            "name": "userAddress",
                            "type": "address"
                        },
                        {
                            "indexed": false,
                            "internalType": "uint256",
                            "name": "anount",
                            "type": "uint256"
                        },
                        {
                            "indexed": false,
                            "internalType": "uint256",
                            "name": "cycle",
                            "type": "uint256"
                        }
                    ],
                    "name": "FrontEndRewardsClaimed",
                    "type": "event"
                },
                {
                    "anonymous": false,
                    "inputs": [
                        {
                            "indexed": true,
                            "internalType": "address",
                            "name": "to",
                            "type": "address"
                        },
                        {
                            "indexed": true,
                            "internalType": "bytes32",
                            "name": "hash",
                            "type": "bytes32"
                        },
                        {
                            "indexed": false,
                            "internalType": "string",
                            "name": "value",
                            "type": "string"
                        }
                    ],
                    "name": "KeySet",
                    "type": "event"
                },
                {
                    "anonymous": false,
                    "inputs": [
                        {
                            "indexed": true,
                            "internalType": "uint256",
                            "name": "currentCycle",
                            "type": "uint256"
                        },
                        {
                            "indexed": false,
                            "internalType": "uint256",
                            "name": "calculatedCycleReward",
                            "type": "uint256"
                        },
                        {
                            "indexed": false,
                            "internalType": "uint256",
                            "name": "summedCycleStakes",
                            "type": "uint256"
                        }
                    ],
                    "name": "NewCycleStarted",
                    "type": "event"
                },
                {
                    "anonymous": false,
                    "inputs": [
                        {
                            "indexed": true,
                            "internalType": "address",
                            "name": "userAddress",
                            "type": "address"
                        },
                        {
                            "indexed": false,
                            "internalType": "uint256",
                            "name": "anount",
                            "type": "uint256"
                        },
                        {
                            "indexed": false,
                            "internalType": "uint256",
                            "name": "cycle",
                            "type": "uint256"
                        }
                    ],
                    "name": "RewardsClaimed",
                    "type": "event"
                },
                {
                    "anonymous": false,
                    "inputs": [
                        {
                            "indexed": true,
                            "internalType": "address",
                            "name": "to",
                            "type": "address"
                        },
                        {
                            "indexed": true,
                            "internalType": "address",
                            "name": "from",
                            "type": "address"
                        },
                        {
                            "indexed": true,
                            "internalType": "bytes32",
                            "name": "hash",
                            "type": "bytes32"
                        },
                        {
                            "components": [
                                {
                                    "internalType": "string",
                                    "name": "content",
                                    "type": "string"
                                },
                                {
                                    "internalType": "uint256",
                                    "name": "timestamp",
                                    "type": "uint256"
                                }
                            ],
                            "indexed": false,
                            "internalType": "struct Deb0xCore.Envelope",
                            "name": "body",
                            "type": "tuple"
                        },
                        {
                            "indexed": false,
                            "internalType": "uint256",
                            "name": "sentId",
                            "type": "uint256"
                        }
                    ],
                    "name": "Sent",
                    "type": "event"
                },
                {
                    "anonymous": false,
                    "inputs": [
                        {
                            "indexed": true,
                            "internalType": "address",
                            "name": "userAddress",
                            "type": "address"
                        },
                        {
                            "indexed": false,
                            "internalType": "uint256",
                            "name": "amount",
                            "type": "uint256"
                        },
                        {
                            "indexed": false,
                            "internalType": "uint256",
                            "name": "cycle",
                            "type": "uint256"
                        }
                    ],
                    "name": "Staked",
                    "type": "event"
                },
                {
                    "anonymous": false,
                    "inputs": [
                        {
                            "indexed": true,
                            "internalType": "address",
                            "name": "userAddress",
                            "type": "address"
                        },
                        {
                            "indexed": false,
                            "internalType": "uint256",
                            "name": "amount",
                            "type": "uint256"
                        },
                        {
                            "indexed": false,
                            "internalType": "uint256",
                            "name": "cycle",
                            "type": "uint256"
                        }
                    ],
                    "name": "Unstaked",
                    "type": "event"
                },
                {
                    "inputs": [],
                    "name": "MAIL_FEE",
                    "outputs": [
                        {
                            "internalType": "uint16",
                            "name": "",
                            "type": "uint16"
                        }
                    ],
                    "stateMutability": "view",
                    "type": "function"
                },
                {
                    "inputs": [
                        {
                            "internalType": "address",
                            "name": "",
                            "type": "address"
                        }
                    ],
                    "name": "addressAccruedFees",
                    "outputs": [
                        {
                            "internalType": "uint256",
                            "name": "",
                            "type": "uint256"
                        }
                    ],
                    "stateMutability": "view",
                    "type": "function"
                },
                {
                    "inputs": [
                        {
                            "internalType": "address",
                            "name": "",
                            "type": "address"
                        }
                    ],
                    "name": "addressRewards",
                    "outputs": [
                        {
                            "internalType": "uint256",
                            "name": "",
                            "type": "uint256"
                        }
                    ],
                    "stateMutability": "view",
                    "type": "function"
                },
                {
                    "internalType": "uint256",
                    "name": "",
                    "type": "uint256"
                }
            ],
            "stateMutability": "view",
            "type": "function"
        },
        {
            "inputs": [
                {
                    "internalType": "address",
                    "name": "forwarder",
                    "type": "address"
                }
            ],
            "name": "isTrustedForwarder",
            "outputs": [
                {
                    "internalType": "bool",
                    "name": "",
                    "type": "bool"
                }
            ],
            "stateMutability": "view",
            "type": "function"
        },
        {
            "inputs": [],
            "name": "pendingStakeWithdrawal",
            "outputs": [
                {
                    "internalType": "uint256",
                    "name": "",
                    "type": "uint256"
                }
            ],
            "stateMutability": "view",
            "type": "function"
        },
        {
            "inputs": [
                {
                    "internalType": "uint256",
                    "name": "",
                    "type": "uint256"
                }
            ],
            "name": "rewardPerCycle",
            "outputs": [
                {
                    "inputs": [],
                    "name": "claimFees",
                    "outputs": [],
                    "stateMutability": "nonpayable",
                    "type": "function"
                },
                {
                    "inputs": [],
                    "name": "claimFrontEndFees",
                    "outputs": [],
                    "stateMutability": "nonpayable",
                    "type": "function"
                },
                {
                    "inputs": [],
                    "name": "claimFrontEndRewards",
                    "outputs": [],
                    "stateMutability": "nonpayable",
                    "type": "function"
                },
                {
                    "inputs": [],
                    "name": "claimRewards",
                    "outputs": [],
                    "stateMutability": "nonpayable",
                    "type": "function"
                },
                {
                    "inputs": [],
                    "name": "contractBalance",
                    "outputs": [
                        {
                            "internalType": "uint256",
                            "name": "",
                            "type": "uint256"
                        }
                    ],
                    "stateMutability": "view",
                    "type": "function"
                },
                {
                    "inputs": [],
                    "name": "currentStartedCycle",
                    "outputs": [
                        {
                            "internalType": "uint256",
                            "name": "",
                            "type": "uint256"
                        }
                    ],
                    "stateMutability": "view",
                    "type": "function"
                },
                {
                    "inputs": [
                        {
                            "internalType": "uint256",
                            "name": "",
                            "type": "uint256"
                        }
                    ],
                    "name": "cycleAccruedFees",
                    "outputs": [
                        {
                            "internalType": "uint256",
                            "name": "",
                            "type": "uint256"
                        }
                    ],
                    "stateMutability": "view",
                    "type": "function"
                },
                {
                    "internalType": "uint256",
                    "name": "",
                    "type": "uint256"
                }
            ],
            "stateMutability": "view",
            "type": "function"
        }
    ],
    "bytecode": "0x60e06040523480156200001157600080fd5b506040516200bc683803806200bc688339818101604052810190620000379190620001bf565b80808073ffffffffffffffffffffffffffffffffffffffff1660808173ffffffffffffffffffffffffffffffffffffffff168152505050506040516200007d9062000147565b604051809103906000f0801580156200009a573d6000803e3d6000fd5b50600460006101000a81548173ffffffffffffffffffffffffffffffffffffffff021916908373ffffffffffffffffffffffffffffffffffffffff1602179055504260a081815250506201518060c0818152505068056bc75e2d6310000060058190555068056bc75e2d63100000601a60008081526020019081526020016000208190555068056bc75e2d63100000601960008081526020019081526020016000208190555050620001f1565b611a19806200a24f83390190565b600080fd5b600073ffffffffffffffffffffffffffffffffffffffff82169050919050565b600062000187826200015a565b9050919050565b62000199816200017a565b8114620001a557600080fd5b50565b600081519050620001b9816200018e565b92915050565b600060208284031215620001d857620001d762000155565b5b6000620001e884828501620001a8565b91505092915050565b60805160a05160c05161a02e620002216000396000616dae01526000616dcf015260006136a4015261a02e6000f3fe6080604052600436106101f95760003560e01c80638b414de01161010d578063bebc9dfc116100a0578063d294f0931161006f578063d294f0931461079d578063d6aef1c6146107b4578063ea6c77cd146107df578063f1b371e21461080a578063f68f0a3914610835576101f9565b8063bebc9dfc146106a9578063bf992dea146106e6578063c0d7332014610723578063c4235ae914610760576101f9565b80639f33626e116100dc5780639f33626e146105fc578063adc0f68614610618578063af42d10614610655578063be26ed7f1461067e576101f9565b80638b414de01461051a5780638b7afe2e1461055757806393790f441461058257806395e982a9146105bf576101f9565b806352a398d81161019057806369a69e291161015f57806369a69e29146104305780636d9384f91461046d5780636f044d37146104aa5780637d818c23146104c65780637e30d2b5146104f1576101f9565b806352a398d81461034e578063572b6c051461038b57806358503a95146103c857806368f0576914610405576101f9565b80632e17de78116101cc5780632e17de78146102e0578063372500ab146103095780633e19eec3146103205780634cd040fc14610337576101f9565b80630a00dc43146101fe5780630ece21541461023b5780630ff8cf9b146102785780631f4d024d146102a3575b600080fd5b34801561020a57600080fd5b5061022560048036038101906102209190618c55565b610872565b6040516102329190618c91565b60405180910390f35b34801561024757600080fd5b50610262600480360381019061025d9190618c55565b61088a565b60405161026f9190618c91565b60405180910390f35b34801561028457600080fd5b5061028d6108a2565b60405161029a9190618c91565b60405180910390f35b3480156102af57600080fd5b506102ca60048036038101906102c59190618d0a565b6108ae565b6040516102d79190618dc7565b60405180910390f35b3480156102ec57600080fd5b5061030760048036038101906103029190618c55565b61094e565b005b34801561031557600080fd5b5061031e611c8b565b005b34801561032c57600080fd5b50610335612f7a565b005b34801561034357600080fd5b5061034c6131c6565b005b34801561035a57600080fd5b5061037560048036038101906103709190618d0a565b6134c4565b6040516103829190619043565b60405180910390f35b34801561039757600080fd5b506103b260048036038101906103ad9190618d0a565b6136a0565b6040516103bf9190619080565b60405180910390f35b3480156103d457600080fd5b506103ef60048036038101906103ea9190618d0a565b6136f8565b6040516103fc919061910a565b60405180910390f35b34801561041157600080fd5b5061041a6137c5565b6040516104279190618c91565b60405180910390f35b34801561043c57600080fd5b5061045760048036038101906104529190618d0a565b6137cb565b6040516104649190618c91565b60405180910390f35b34801561047957600080fd5b50610494600480360381019061048f919061912c565b613aca565b6040516104a1919061922e565b60405180910390f35b6104c460048036038101906104bf919061952e565b613c42565b005b3480156104d257600080fd5b506104db615154565b6040516104e89190619640565b60405180910390f35b3480156104fd57600080fd5b5061051860048036038101906105139190618c55565b61517a565b005b34801561052657600080fd5b50610541600480360381019061053c9190618d0a565b6165ab565b60405161054e9190618c91565b60405180910390f35b34801561056357600080fd5b5061056c6165c2565b6040516105799190618c91565b60405180910390f35b34801561058e57600080fd5b506105a960048036038101906105a49190618d0a565b6165ca565b6040516105b69190618dc7565b60405180910390f35b3480156105cb57600080fd5b506105e660048036038101906105e19190618d0a565b61669a565b6040516105f39190618c91565b60405180910390f35b6106166004803603810190610611919061965b565b616976565b005b34801561062457600080fd5b5061063f600480360381019061063a9190618c55565b616d3c565b60405161064c9190618c91565b60405180910390f35b34801561066157600080fd5b5061067c600480360381019061067791906196d3565b616d54565b005b34801561068a57600080fd5b50610693616daa565b6040516106a09190618c91565b60405180910390f35b3480156106b557600080fd5b506106d060048036038101906106cb9190618c55565b616e08565b6040516106dd9190618c91565b60405180910390f35b3480156106f257600080fd5b5061070d60048036038101906107089190618d0a565b616e20565b60405161071a9190618c91565b60405180910390f35b34801561072f57600080fd5b5061074a60048036038101906107459190618d0a565b6173d2565b6040516107579190618c91565b60405180910390f35b34801561076c57600080fd5b5061078760048036038101906107829190618c55565b6173ea565b6040516107949190618c91565b60405180910390f35b3480156107a957600080fd5b506107b2617402565b005b3480156107c057600080fd5b506107c96185dd565b6040516107d69190618c91565b60405180910390f35b3480156107eb57600080fd5b506107f4618601565b6040516108019190619739565b60405180910390f35b34801561081657600080fd5b5061081f618607565b60405161082c9190618c91565b60405180910390f35b34801561084157600080fd5b5061085c60048036038101906108579190618d0a565b61860d565b6040516108699190618c91565b60405180910390f35b601d6020528060005260406000206000915090505481565b601c6020528060005260406000206000915090505481565b670de0b6b3a764000081565b600060205280600052604060002060009150905080546108cd90619783565b80601f01602080910402602001604051908101604052809291908181526020018280546108f990619783565b80156109465780601f1061091b57610100808354040283529160200191610946565b820191906000526020600020905b81548152906001019060200180831161092957829003601f168201915b505050505081565b6000610958616daa565b905060085481111561096c57806008819055505b600b546008541461099657600160095461098691906197e3565b600a81905550600b546009819055505b6009546008541180156109ca57506000601e600060016009546109b991906197e3565b815260200190815260200160002054145b15610a64576000601a6000600954815260200190815260200160002054670de0b6b3a7640000601c6000600954815260200190815260200160002054610a109190619817565b610a1a91906198a0565b905080601e6000600a54815260200190815260200160002054610a3d91906197e3565b601e60006001600954610a5091906197e3565b815260200190815260200160002081905550505b610a6c618625565b601260008273ffffffffffffffffffffffffffffffffffffffff1673ffffffffffffffffffffffffffffffffffffffff16815260200190815260200160002054600854118015610afc57506000601060008373ffffffffffffffffffffffffffffffffffffffff1673ffffffffffffffffffffffffffffffffffffffff1681526020019081526020016000205414155b15610e2c57600060116000601260008573ffffffffffffffffffffffffffffffffffffffff1673ffffffffffffffffffffffffffffffffffffffff1681526020019081526020016000205481526020019081526020016000205460196000601260008673ffffffffffffffffffffffffffffffffffffffff1673ffffffffffffffffffffffffffffffffffffffff16815260200190815260200160002054815260200190815260200160002054601060008573ffffffffffffffffffffffffffffffffffffffff1673ffffffffffffffffffffffffffffffffffffffff16815260200190815260200160002054610bf39190619817565b610bfd91906198a0565b905080601660008473ffffffffffffffffffffffffffffffffffffffff1673ffffffffffffffffffffffffffffffffffffffff1681526020019081526020016000206000828254610c4e91906197e3565b925050819055506000600e60008473ffffffffffffffffffffffffffffffffffffffff1673ffffffffffffffffffffffffffffffffffffffff1681526020019081526020016000205414610de5576000601060008473ffffffffffffffffffffffffffffffffffffffff1673ffffffffffffffffffffffffffffffffffffffff1681526020019081526020016000205482610ce991906198a0565b90506000612710600e60008673ffffffffffffffffffffffffffffffffffffffff1673ffffffffffffffffffffffffffffffffffffffff1681526020019081526020016000205483610d3b9190619817565b610d4591906198a0565b905080601660008673ffffffffffffffffffffffffffffffffffffffff1673ffffffffffffffffffffffffffffffffffffffff1681526020019081526020016000206000828254610d9691906198d1565b925050819055506000600e60008673ffffffffffffffffffffffffffffffffffffffff1673ffffffffffffffffffffffffffffffffffffffff1681526020019081526020016000208190555050505b6000601060008473ffffffffffffffffffffffffffffffffffffffff1673ffffffffffffffffffffffffffffffffffffffff16815260200190815260200160002081905550505b600954600854118015610e8c57506001600954610e4991906197e3565b601b60008373ffffffffffffffffffffffffffffffffffffffff1673ffffffffffffffffffffffffffffffffffffffff1681526020019081526020016000205414155b1561104d57670de0b6b3a7640000601e6000601b60008573ffffffffffffffffffffffffffffffffffffffff1673ffffffffffffffffffffffffffffffffffffffff16815260200190815260200160002054815260200190815260200160002054601e60006001600954610f0091906197e3565b815260200190815260200160002054610f1991906198d1565b601660008473ffffffffffffffffffffffffffffffffffffffff1673ffffffffffffffffffffffffffffffffffffffff16815260200190815260200160002054610f639190619817565b610f6d91906198a0565b601760008373ffffffffffffffffffffffffffffffffffffffff1673ffffffffffffffffffffffffffffffffffffffff16815260200190815260200160002054610fb791906197e3565b601760008373ffffffffffffffffffffffffffffffffffffffff1673ffffffffffffffffffffffffffffffffffffffff16815260200190815260200160002081905550600160095461100991906197e3565b601b60008373ffffffffffffffffffffffffffffffffffffffff1673ffffffffffffffffffffffffffffffffffffffff168152602001908152602001600020819055505b6000602160008373ffffffffffffffffffffffffffffffffffffffff1673ffffffffffffffffffffffffffffffffffffffff16815260200190815260200160002054141580156110e957506000602160008373ffffffffffffffffffffffffffffffffffffffff1673ffffffffffffffffffffffffffffffffffffffff168152602001908152602001600020546008546110e791906198d1565b115b15611a02576000601f60008373ffffffffffffffffffffffffffffffffffffffff1673ffffffffffffffffffffffffffffffffffffffff1681526020019081526020016000206000602160008573ffffffffffffffffffffffffffffffffffffffff1673ffffffffffffffffffffffffffffffffffffffff16815260200190815260200160002054815260200190815260200160002054905080601660008473ffffffffffffffffffffffffffffffffffffffff1673ffffffffffffffffffffffffffffffffffffffff16815260200190815260200160002060008282546111d191906197e3565b9250508190555080602060008473ffffffffffffffffffffffffffffffffffffffff1673ffffffffffffffffffffffffffffffffffffffff168152602001908152602001600020600082825461122791906197e3565b92505081905550670de0b6b3a7640000601e6000602160008673ffffffffffffffffffffffffffffffffffffffff1673ffffffffffffffffffffffffffffffffffffffff16815260200190815260200160002054815260200190815260200160002054601e6000600160095461129d91906197e3565b8152602001908152602001600020546112b691906198d1565b601f60008573ffffffffffffffffffffffffffffffffffffffff1673ffffffffffffffffffffffffffffffffffffffff1681526020019081526020016000206000602160008773ffffffffffffffffffffffffffffffffffffffff1673ffffffffffffffffffffffffffffffffffffffff168152602001908152602001600020548152602001908152602001600020546113509190619817565b61135a91906198a0565b601760008473ffffffffffffffffffffffffffffffffffffffff1673ffffffffffffffffffffffffffffffffffffffff168152602001908152602001600020546113a491906197e3565b601760008473ffffffffffffffffffffffffffffffffffffffff1673ffffffffffffffffffffffffffffffffffffffff168152602001908152602001600020819055506000601f60008473ffffffffffffffffffffffffffffffffffffffff1673ffffffffffffffffffffffffffffffffffffffff1681526020019081526020016000206000602160008673ffffffffffffffffffffffffffffffffffffffff1673ffffffffffffffffffffffffffffffffffffffff168152602001908152602001600020548152602001908152602001600020819055506000602160008473ffffffffffffffffffffffffffffffffffffffff1673ffffffffffffffffffffffffffffffffffffffff168152602001908152602001600020819055506000602260008473ffffffffffffffffffffffffffffffffffffffff1673ffffffffffffffffffffffffffffffffffffffff1681526020019081526020016000205414611a00576001602260008473ffffffffffffffffffffffffffffffffffffffff1673ffffffffffffffffffffffffffffffffffffffff1681526020019081526020016000205460085461155791906198d1565b1115611936576000601f60008473ffffffffffffffffffffffffffffffffffffffff1673ffffffffffffffffffffffffffffffffffffffff1681526020019081526020016000206000602260008673ffffffffffffffffffffffffffffffffffffffff1673ffffffffffffffffffffffffffffffffffffffff16815260200190815260200160002054815260200190815260200160002054905080601660008573ffffffffffffffffffffffffffffffffffffffff1673ffffffffffffffffffffffffffffffffffffffff168152602001908152602001600020600082825461164091906197e3565b9250508190555080602060008573ffffffffffffffffffffffffffffffffffffffff1673ffffffffffffffffffffffffffffffffffffffff168152602001908152602001600020600082825461169691906197e3565b92505081905550670de0b6b3a7640000601e6000602260008773ffffffffffffffffffffffffffffffffffffffff1673ffffffffffffffffffffffffffffffffffffffff16815260200190815260200160002054815260200190815260200160002054601e6000600160095461170c91906197e3565b81526020019081526020016000205461172591906198d1565b601f60008673ffffffffffffffffffffffffffffffffffffffff1673ffffffffffffffffffffffffffffffffffffffff1681526020019081526020016000206000602260008873ffffffffffffffffffffffffffffffffffffffff1673ffffffffffffffffffffffffffffffffffffffff168152602001908152602001600020548152602001908152602001600020546117bf9190619817565b6117c991906198a0565b601760008573ffffffffffffffffffffffffffffffffffffffff1673ffffffffffffffffffffffffffffffffffffffff1681526020019081526020016000205461181391906197e3565b601760008573ffffffffffffffffffffffffffffffffffffffff1673ffffffffffffffffffffffffffffffffffffffff168152602001908152602001600020819055506000601f60008573ffffffffffffffffffffffffffffffffffffffff1673ffffffffffffffffffffffffffffffffffffffff1681526020019081526020016000206000602260008773ffffffffffffffffffffffffffffffffffffffff1673ffffffffffffffffffffffffffffffffffffffff168152602001908152602001600020548152602001908152602001600020819055506000602260008573ffffffffffffffffffffffffffffffffffffffff1673ffffffffffffffffffffffffffffffffffffffff16815260200190815260200160002081905550506119ff565b602260008373ffffffffffffffffffffffffffffffffffffffff1673ffffffffffffffffffffffffffffffffffffffff16815260200190815260200160002054602160008473ffffffffffffffffffffffffffffffffffffffff1673ffffffffffffffffffffffffffffffffffffffff168152602001908152602001600020819055506000602260008473ffffffffffffffffffffffffffffffffffffffff1673ffffffffffffffffffffffffffffffffffffffff168152602001908152602001600020819055505b5b505b60008303611a45576040517f08c379a0000000000000000000000000000000000000000000000000000000008152600401611a3c90619951565b60405180910390fd5b60206000611a51618625565b73ffffffffffffffffffffffffffffffffffffffff1673ffffffffffffffffffffffffffffffffffffffff16815260200190815260200160002054831115611ace576040517f08c379a0000000000000000000000000000000000000000000000000000000008152600401611ac5906199e3565b60405180910390fd5b600b5460095403611af75782600d6000828254611aeb91906197e3565b92505081905550611b24565b82601a600060085481526020019081526020016000206000828254611b1c91906198d1565b925050819055505b8260206000611b31618625565b73ffffffffffffffffffffffffffffffffffffffff1673ffffffffffffffffffffffffffffffffffffffff1681526020019081526020016000206000828254611b7a91906198d1565b925050819055508260166000611b8e618625565b73ffffffffffffffffffffffffffffffffffffffff1673ffffffffffffffffffffffffffffffffffffffff1681526020019081526020016000206000828254611bd791906198d1565b92505081905550600460009054906101000a900473ffffffffffffffffffffffffffffffffffffffff1673ffffffffffffffffffffffffffffffffffffffff1663a9059cbb611c24618625565b856040518363ffffffff1660e01b8152600401611c42929190619a12565b6020604051808303816000875af1158015611c61573d6000803e3d6000fd5b505050506040513d601f19601f82011682018060405250810190611c859190619a67565b50505050565b6000611c95616daa565b9050600854811115611ca957806008819055505b600b5460085414611cd3576001600954611cc391906197e3565b600a81905550600b546009819055505b600954600854118015611d0757506000601e60006001600954611cf691906197e3565b815260200190815260200160002054145b15611da1576000601a6000600954815260200190815260200160002054670de0b6b3a7640000601c6000600954815260200190815260200160002054611d4d9190619817565b611d5791906198a0565b905080601e6000600a54815260200190815260200160002054611d7a91906197e3565b601e60006001600954611d8d91906197e3565b815260200190815260200160002081905550505b611da9618625565b601260008273ffffffffffffffffffffffffffffffffffffffff1673ffffffffffffffffffffffffffffffffffffffff16815260200190815260200160002054600854118015611e3957506000601060008373ffffffffffffffffffffffffffffffffffffffff1673ffffffffffffffffffffffffffffffffffffffff1681526020019081526020016000205414155b1561216957600060116000601260008573ffffffffffffffffffffffffffffffffffffffff1673ffffffffffffffffffffffffffffffffffffffff1681526020019081526020016000205481526020019081526020016000205460196000601260008673ffffffffffffffffffffffffffffffffffffffff1673ffffffffffffffffffffffffffffffffffffffff16815260200190815260200160002054815260200190815260200160002054601060008573ffffffffffffffffffffffffffffffffffffffff1673ffffffffffffffffffffffffffffffffffffffff16815260200190815260200160002054611f309190619817565b611f3a91906198a0565b905080601660008473ffffffffffffffffffffffffffffffffffffffff1673ffffffffffffffffffffffffffffffffffffffff1681526020019081526020016000206000828254611f8b91906197e3565b925050819055506000600e60008473ffffffffffffffffffffffffffffffffffffffff1673ffffffffffffffffffffffffffffffffffffffff1681526020019081526020016000205414612122576000601060008473ffffffffffffffffffffffffffffffffffffffff1673ffffffffffffffffffffffffffffffffffffffff168152602001908152602001600020548261202691906198a0565b90506000612710600e60008673ffffffffffffffffffffffffffffffffffffffff1673ffffffffffffffffffffffffffffffffffffffff16815260200190815260200160002054836120789190619817565b61208291906198a0565b905080601660008673ffffffffffffffffffffffffffffffffffffffff1673ffffffffffffffffffffffffffffffffffffffff16815260200190815260200160002060008282546120d391906198d1565b925050819055506000600e60008673ffffffffffffffffffffffffffffffffffffffff1673ffffffffffffffffffffffffffffffffffffffff1681526020019081526020016000208190555050505b6000601060008473ffffffffffffffffffffffffffffffffffffffff1673ffffffffffffffffffffffffffffffffffffffff16815260200190815260200160002081905550505b6009546008541180156121c95750600160095461218691906197e3565b601b60008373ffffffffffffffffffffffffffffffffffffffff1673ffffffffffffffffffffffffffffffffffffffff1681526020019081526020016000205414155b1561238a57670de0b6b3a7640000601e6000601b60008573ffffffffffffffffffffffffffffffffffffffff1673ffffffffffffffffffffffffffffffffffffffff16815260200190815260200160002054815260200190815260200160002054601e6000600160095461223d91906197e3565b81526020019081526020016000205461225691906198d1565b601660008473ffffffffffffffffffffffffffffffffffffffff1673ffffffffffffffffffffffffffffffffffffffff168152602001908152602001600020546122a09190619817565b6122aa91906198a0565b601760008373ffffffffffffffffffffffffffffffffffffffff1673ffffffffffffffffffffffffffffffffffffffff168152602001908152602001600020546122f491906197e3565b601760008373ffffffffffffffffffffffffffffffffffffffff1673ffffffffffffffffffffffffffffffffffffffff16815260200190815260200160002081905550600160095461234691906197e3565b601b60008373ffffffffffffffffffffffffffffffffffffffff1673ffffffffffffffffffffffffffffffffffffffff168152602001908152602001600020819055505b6000602160008373ffffffffffffffffffffffffffffffffffffffff1673ffffffffffffffffffffffffffffffffffffffff168152602001908152602001600020541415801561242657506000602160008373ffffffffffffffffffffffffffffffffffffffff1673ffffffffffffffffffffffffffffffffffffffff1681526020019081526020016000205460085461242491906198d1565b115b15612d3f576000601f60008373ffffffffffffffffffffffffffffffffffffffff1673ffffffffffffffffffffffffffffffffffffffff1681526020019081526020016000206000602160008573ffffffffffffffffffffffffffffffffffffffff1673ffffffffffffffffffffffffffffffffffffffff16815260200190815260200160002054815260200190815260200160002054905080601660008473ffffffffffffffffffffffffffffffffffffffff1673ffffffffffffffffffffffffffffffffffffffff168152602001908152602001600020600082825461250e91906197e3565b9250508190555080602060008473ffffffffffffffffffffffffffffffffffffffff1673ffffffffffffffffffffffffffffffffffffffff168152602001908152602001600020600082825461256491906197e3565b92505081905550670de0b6b3a7640000601e6000602160008673ffffffffffffffffffffffffffffffffffffffff1673ffffffffffffffffffffffffffffffffffffffff16815260200190815260200160002054815260200190815260200160002054601e600060016009546125da91906197e3565b8152602001908152602001600020546125f391906198d1565b601f60008573ffffffffffffffffffffffffffffffffffffffff1673ffffffffffffffffffffffffffffffffffffffff1681526020019081526020016000206000602160008773ffffffffffffffffffffffffffffffffffffffff1673ffffffffffffffffffffffffffffffffffffffff1681526020019081526020016000205481526020019081526020016000205461268d9190619817565b61269791906198a0565b601760008473ffffffffffffffffffffffffffffffffffffffff1673ffffffffffffffffffffffffffffffffffffffff168152602001908152602001600020546126e191906197e3565b601760008473ffffffffffffffffffffffffffffffffffffffff1673ffffffffffffffffffffffffffffffffffffffff168152602001908152602001600020819055506000601f60008473ffffffffffffffffffffffffffffffffffffffff1673ffffffffffffffffffffffffffffffffffffffff1681526020019081526020016000206000602160008673ffffffffffffffffffffffffffffffffffffffff1673ffffffffffffffffffffffffffffffffffffffff168152602001908152602001600020548152602001908152602001600020819055506000602160008473ffffffffffffffffffffffffffffffffffffffff1673ffffffffffffffffffffffffffffffffffffffff168152602001908152602001600020819055506000602260008473ffffffffffffffffffffffffffffffffffffffff1673ffffffffffffffffffffffffffffffffffffffff1681526020019081526020016000205414612d3d576001602260008473ffffffffffffffffffffffffffffffffffffffff1673ffffffffffffffffffffffffffffffffffffffff1681526020019081526020016000205460085461289491906198d1565b1115612c73576000601f60008473ffffffffffffffffffffffffffffffffffffffff1673ffffffffffffffffffffffffffffffffffffffff1681526020019081526020016000206000602260008673ffffffffffffffffffffffffffffffffffffffff1673ffffffffffffffffffffffffffffffffffffffff16815260200190815260200160002054815260200190815260200160002054905080601660008573ffffffffffffffffffffffffffffffffffffffff1673ffffffffffffffffffffffffffffffffffffffff168152602001908152602001600020600082825461297d91906197e3565b9250508190555080602060008573ffffffffffffffffffffffffffffffffffffffff1673ffffffffffffffffffffffffffffffffffffffff16815260200190815260200160002060008282546129d391906197e3565b92505081905550670de0b6b3a7640000601e6000602260008773ffffffffffffffffffffffffffffffffffffffff1673ffffffffffffffffffffffffffffffffffffffff16815260200190815260200160002054815260200190815260200160002054601e60006001600954612a4991906197e3565b815260200190815260200160002054612a6291906198d1565b601f60008673ffffffffffffffffffffffffffffffffffffffff1673ffffffffffffffffffffffffffffffffffffffff1681526020019081526020016000206000602260008873ffffffffffffffffffffffffffffffffffffffff1673ffffffffffffffffffffffffffffffffffffffff16815260200190815260200160002054815260200190815260200160002054612afc9190619817565b612b0691906198a0565b601760008573ffffffffffffffffffffffffffffffffffffffff1673ffffffffffffffffffffffffffffffffffffffff16815260200190815260200160002054612b5091906197e3565b601760008573ffffffffffffffffffffffffffffffffffffffff1673ffffffffffffffffffffffffffffffffffffffff168152602001908152602001600020819055506000601f60008573ffffffffffffffffffffffffffffffffffffffff1673ffffffffffffffffffffffffffffffffffffffff1681526020019081526020016000206000602260008773ffffffffffffffffffffffffffffffffffffffff1673ffffffffffffffffffffffffffffffffffffffff168152602001908152602001600020548152602001908152602001600020819055506000602260008573ffffffffffffffffffffffffffffffffffffffff1673ffffffffffffffffffffffffffffffffffffffff1681526020019081526020016000208190555050612d3c565b602260008373ffffffffffffffffffffffffffffffffffffffff1673ffffffffffffffffffffffffffffffffffffffff16815260200190815260200160002054602160008473ffffffffffffffffffffffffffffffffffffffff1673ffffffffffffffffffffffffffffffffffffffff168152602001908152602001600020819055506000602260008473ffffffffffffffffffffffffffffffffffffffff1673ffffffffffffffffffffffffffffffffffffffff168152602001908152602001600020819055505b5b505b600060206000612d4d618625565b73ffffffffffffffffffffffffffffffffffffffff1673ffffffffffffffffffffffffffffffffffffffff1681526020019081526020016000205460166000612d94618625565b73ffffffffffffffffffffffffffffffffffffffff1673ffffffffffffffffffffffffffffffffffffffff16815260200190815260200160002054612dd991906198d1565b905060008111612e1e576040517f08c379a0000000000000000000000000000000000000000000000000000000008152600401612e1590619ae0565b60405180910390fd5b8060166000612e2b618625565b73ffffffffffffffffffffffffffffffffffffffff1673ffffffffffffffffffffffffffffffffffffffff1681526020019081526020016000206000828254612e7491906198d1565b92505081905550600b5460095403612ea45780600d6000828254612e9891906197e3565b92505081905550612edf565b80601a6000600854815260200190815260200160002054612ec591906198d1565b601a60006008548152602001908152602001600020819055505b600460009054906101000a900473ffffffffffffffffffffffffffffffffffffffff1673ffffffffffffffffffffffffffffffffffffffff16639a49090e612f25618625565b836040518363ffffffff1660e01b8152600401612f43929190619a12565b600060405180830381600087803b158015612f5d57600080fd5b505af1158015612f71573d6000803e3d6000fd5b50505050505050565b6000612f84616daa565b9050600854811115612f9857806008819055505b600b5460085414612fc2576001600954612fb291906197e3565b600a81905550600b546009819055505b600954600854118015612ff657506000601e60006001600954612fe591906197e3565b815260200190815260200160002054145b15613090576000601a6000600954815260200190815260200160002054670de0b6b3a7640000601c600060095481526020019081526020016000205461303c9190619817565b61304691906198a0565b905080601e6000600a5481526020019081526020016000205461306991906197e3565b601e6000600160095461307c91906197e3565b815260200190815260200160002081905550505b6130a061309b618625565b618657565b6000601560006130ae618625565b73ffffffffffffffffffffffffffffffffffffffff1673ffffffffffffffffffffffffffffffffffffffff1681526020019081526020016000205490506000811161312e576040517f08c379a000000000000000000000000000000000000000000000000000000000815260040161312590619b72565b60405180910390fd5b60006015600061313c618625565b73ffffffffffffffffffffffffffffffffffffffff1673ffffffffffffffffffffffffffffffffffffffff1681526020019081526020016000208190555061318b613185618625565b82618aab565b7f83db9dc084973306ecd0b0f10cb495b81dd9ddcc135eb7934d2723bcabc8f4c3816040516131ba9190618c91565b60405180910390a15050565b60006131d0616daa565b90506008548111156131e457806008819055505b600b546008541461320e5760016009546131fe91906197e3565b600a81905550600b546009819055505b60095460085411801561324257506000601e6000600160095461323191906197e3565b815260200190815260200160002054145b156132dc576000601a6000600954815260200190815260200160002054670de0b6b3a7640000601c60006009548152602001908152602001600020546132889190619817565b61329291906198a0565b905080601e6000600a548152602001908152602001600020546132b591906197e3565b601e600060016009546132c891906197e3565b815260200190815260200160002081905550505b6132ec6132e7618625565b618657565b6000601860006132fa618625565b73ffffffffffffffffffffffffffffffffffffffff1673ffffffffffffffffffffffffffffffffffffffff1681526020019081526020016000205490506000811161337a576040517f08c379a000000000000000000000000000000000000000000000000000000000815260040161337190619ae0565b60405180910390fd5b600060186000613388618625565b73ffffffffffffffffffffffffffffffffffffffff1673ffffffffffffffffffffffffffffffffffffffff16815260200190815260200160002081905550600b54600954036133ef5780600d60008282546133e391906197e3565b9250508190555061342a565b80601a600060085481526020019081526020016000205461341091906198d1565b601a60006008548152602001908152602001600020819055505b600460009054906101000a900473ffffffffffffffffffffffffffffffffffffffff1673ffffffffffffffffffffffffffffffffffffffff16639a49090e613470618625565b836040518363ffffffff1660e01b815260040161348e929190619a12565b600060405180830381600087803b1580156134a857600080fd5b505af11580156134bc573d6000803e3d6000fd5b505050505050565b6060600260008373ffffffffffffffffffffffffffffffffffffffff1673ffffffffffffffffffffffffffffffffffffffff168152602001908152602001600020805480602002602001604051908101604052809291908181526020016000905b828210156136955783829060005260206000209060030201604051806040016040529081600082018054806020026020016040519081016040528092919081815260200182805480156135cd57602002820191906000526020600020905b8160009054906101000a900473ffffffffffffffffffffffffffffffffffffffff1673ffffffffffffffffffffffffffffffffffffffff1681526020019060010190808311613583575b50505050508152602001600182016040518060400160405290816000820180546135f690619783565b80601f016020809104026020016040519081016040528092919081815260200182805461362290619783565b801561366f5780601f106136445761010080835404028352916020019161366f565b820191906000526020600020905b81548152906001019060200180831161365257829003601f168201915b505050505081526020016001820154815250508152505081526020019060010190613525565b505050509050919050565b60007f000000000000000000000000000000000000000000000000000000000000000073ffffffffffffffffffffffffffffffffffffffff168273ffffffffffffffffffffffffffffffffffffffff16149050919050565b6060600360008373ffffffffffffffffffffffffffffffffffffffff1673ffffffffffffffffffffffffffffffffffffffff1681526020019081526020016000208054806020026020016040519081016040528092919081815260200182805480156137b957602002820191906000526020600020905b8160009054906101000a900473ffffffffffffffffffffffffffffffffffffffff1673ffffffffffffffffffffffffffffffffffffffff168152602001906001019080831161376f575b50505050509050919050565b600d5481565b600080601660008473ffffffffffffffffffffffffffffffffffffffff1673ffffffffffffffffffffffffffffffffffffffff168152602001908152602001600020549050600061381a616daa565b9050601260008573ffffffffffffffffffffffffffffffffffffffff1673ffffffffffffffffffffffffffffffffffffffff16815260200190815260200160002054811180156138aa57506000601060008673ffffffffffffffffffffffffffffffffffffffff1673ffffffffffffffffffffffffffffffffffffffff1681526020019081526020016000205414155b15613ac057600060116000601260008873ffffffffffffffffffffffffffffffffffffffff1673ffffffffffffffffffffffffffffffffffffffff1681526020019081526020016000205481526020019081526020016000205460196000601260008973ffffffffffffffffffffffffffffffffffffffff1673ffffffffffffffffffffffffffffffffffffffff16815260200190815260200160002054815260200190815260200160002054601060008873ffffffffffffffffffffffffffffffffffffffff1673ffffffffffffffffffffffffffffffffffffffff168152602001908152602001600020546139a19190619817565b6139ab91906198a0565b905080836139b991906197e3565b92506000600e60008773ffffffffffffffffffffffffffffffffffffffff1673ffffffffffffffffffffffffffffffffffffffff1681526020019081526020016000205414613abe576000601060008773ffffffffffffffffffffffffffffffffffffffff1673ffffffffffffffffffffffffffffffffffffffff1681526020019081526020016000205482613a4f91906198a0565b90506000612710600e60008973ffffffffffffffffffffffffffffffffffffffff1673ffffffffffffffffffffffffffffffffffffffff1681526020019081526020016000205483613aa19190619817565b613aab91906198a0565b90508085613ab991906198d1565b945050505b505b8192505050919050565b6060600160008473ffffffffffffffffffffffffffffffffffffffff1673ffffffffffffffffffffffffffffffffffffffff16815260200190815260200160002060008373ffffffffffffffffffffffffffffffffffffffff1673ffffffffffffffffffffffffffffffffffffffff168152602001908152602001600020805480602002602001604051908101604052809291908181526020016000905b82821015613c365783829060005260206000209060020201604051806040016040529081600082018054613b9b90619783565b80601f0160208091040260200160405190810160405280929190818152602001828054613bc790619783565b8015613c145780601f10613be957610100808354040283529160200191613c14565b820191906000526020600020905b815481529060010190602001808311613bf757829003601f168201915b5050505050815260200160018201548152505081526020019060010190613b68565b50505050905092915050565b8060005a90506000613c52616daa565b9050600854811115613c6657806008819055505b600b5460085414613c90576001600954613c8091906197e3565b600a81905550600b546009819055505b600954600854118015613cc457506000601e60006001600954613cb391906197e3565b815260200190815260200160002054145b15613d5e576000601a6000600954815260200190815260200160002054670de0b6b3a7640000601c6000600954815260200190815260200160002054613d0a9190619817565b613d1491906198a0565b905080601e6000600a54815260200190815260200160002054613d3791906197e3565b601e60006001600954613d4a91906197e3565b815260200190815260200160002081905550505b60006019600060085481526020019081526020016000205403613e93576005546006819055506000613d8e6185dd565b905080600581905550806019600060085481526020019081526020016000208190555080600c81905550600854600b81905550600554601a6000600954815260200190815260200160002054613de491906197e3565b601a6000600b5481526020019081526020016000206000828254613e0891906197e3565b92505081905550600060075414613e5057600754601a6000600b5481526020019081526020016000206000828254613e4091906197e3565b9250508190555060006007819055505b6000600d5414613e9157600d54601a6000600b5481526020019081526020016000206000828254613e8191906198d1565b925050819055506000600d819055505b505b613e9b618625565b601260008273ffffffffffffffffffffffffffffffffffffffff1673ffffffffffffffffffffffffffffffffffffffff16815260200190815260200160002054600854118015613f2b57506000601060008373ffffffffffffffffffffffffffffffffffffffff1673ffffffffffffffffffffffffffffffffffffffff1681526020019081526020016000205414155b1561425b57600060116000601260008573ffffffffffffffffffffffffffffffffffffffff1673ffffffffffffffffffffffffffffffffffffffff1681526020019081526020016000205481526020019081526020016000205460196000601260008673ffffffffffffffffffffffffffffffffffffffff1673ffffffffffffffffffffffffffffffffffffffff16815260200190815260200160002054815260200190815260200160002054601060008573ffffffffffffffffffffffffffffffffffffffff1673ffffffffffffffffffffffffffffffffffffffff168152602001908152602001600020546140229190619817565b61402c91906198a0565b905080601660008473ffffffffffffffffffffffffffffffffffffffff1673ffffffffffffffffffffffffffffffffffffffff168152602001908152602001600020600082825461407d91906197e3565b925050819055506000600e60008473ffffffffffffffffffffffffffffffffffffffff1673ffffffffffffffffffffffffffffffffffffffff1681526020019081526020016000205414614214576000601060008473ffffffffffffffffffffffffffffffffffffffff1673ffffffffffffffffffffffffffffffffffffffff168152602001908152602001600020548261411891906198a0565b90506000612710600e60008673ffffffffffffffffffffffffffffffffffffffff1673ffffffffffffffffffffffffffffffffffffffff168152602001908152602001600020548361416a9190619817565b61417491906198a0565b905080601660008673ffffffffffffffffffffffffffffffffffffffff1673ffffffffffffffffffffffffffffffffffffffff16815260200190815260200160002060008282546141c591906198d1565b925050819055506000600e60008673ffffffffffffffffffffffffffffffffffffffff1673ffffffffffffffffffffffffffffffffffffffff1681526020019081526020016000208190555050505b6000601060008473ffffffffffffffffffffffffffffffffffffffff1673ffffffffffffffffffffffffffffffffffffffff16815260200190815260200160002081905550505b6009546008541180156142bb5750600160095461427891906197e3565b601b60008373ffffffffffffffffffffffffffffffffffffffff1673ffffffffffffffffffffffffffffffffffffffff1681526020019081526020016000205414155b1561447c57670de0b6b3a7640000601e6000601b60008573ffffffffffffffffffffffffffffffffffffffff1673ffffffffffffffffffffffffffffffffffffffff16815260200190815260200160002054815260200190815260200160002054601e6000600160095461432f91906197e3565b81526020019081526020016000205461434891906198d1565b601660008473ffffffffffffffffffffffffffffffffffffffff1673ffffffffffffffffffffffffffffffffffffffff168152602001908152602001600020546143929190619817565b61439c91906198a0565b601760008373ffffffffffffffffffffffffffffffffffffffff1673ffffffffffffffffffffffffffffffffffffffff168152602001908152602001600020546143e691906197e3565b601760008373ffffffffffffffffffffffffffffffffffffffff1673ffffffffffffffffffffffffffffffffffffffff16815260200190815260200160002081905550600160095461443891906197e3565b601b60008373ffffffffffffffffffffffffffffffffffffffff1673ffffffffffffffffffffffffffffffffffffffff168152602001908152602001600020819055505b6000602160008373ffffffffffffffffffffffffffffffffffffffff1673ffffffffffffffffffffffffffffffffffffffff168152602001908152602001600020541415801561451857506000602160008373ffffffffffffffffffffffffffffffffffffffff1673ffffffffffffffffffffffffffffffffffffffff1681526020019081526020016000205460085461451691906198d1565b115b15614e31576000601f60008373ffffffffffffffffffffffffffffffffffffffff1673ffffffffffffffffffffffffffffffffffffffff1681526020019081526020016000206000602160008573ffffffffffffffffffffffffffffffffffffffff1673ffffffffffffffffffffffffffffffffffffffff16815260200190815260200160002054815260200190815260200160002054905080601660008473ffffffffffffffffffffffffffffffffffffffff1673ffffffffffffffffffffffffffffffffffffffff168152602001908152602001600020600082825461460091906197e3565b9250508190555080602060008473ffffffffffffffffffffffffffffffffffffffff1673ffffffffffffffffffffffffffffffffffffffff168152602001908152602001600020600082825461465691906197e3565b92505081905550670de0b6b3a7640000601e6000602160008673ffffffffffffffffffffffffffffffffffffffff1673ffffffffffffffffffffffffffffffffffffffff16815260200190815260200160002054815260200190815260200160002054601e600060016009546146cc91906197e3565b8152602001908152602001600020546146e591906198d1565b601f60008573ffffffffffffffffffffffffffffffffffffffff1673ffffffffffffffffffffffffffffffffffffffff1681526020019081526020016000206000602160008773ffffffffffffffffffffffffffffffffffffffff1673ffffffffffffffffffffffffffffffffffffffff1681526020019081526020016000205481526020019081526020016000205461477f9190619817565b61478991906198a0565b601760008473ffffffffffffffffffffffffffffffffffffffff1673ffffffffffffffffffffffffffffffffffffffff168152602001908152602001600020546147d391906197e3565b601760008473ffffffffffffffffffffffffffffffffffffffff1673ffffffffffffffffffffffffffffffffffffffff168152602001908152602001600020819055506000601f60008473ffffffffffffffffffffffffffffffffffffffff1673ffffffffffffffffffffffffffffffffffffffff1681526020019081526020016000206000602160008673ffffffffffffffffffffffffffffffffffffffff1673ffffffffffffffffffffffffffffffffffffffff168152602001908152602001600020548152602001908152602001600020819055506000602160008473ffffffffffffffffffffffffffffffffffffffff1673ffffffffffffffffffffffffffffffffffffffff168152602001908152602001600020819055506000602260008473ffffffffffffffffffffffffffffffffffffffff1673ffffffffffffffffffffffffffffffffffffffff1681526020019081526020016000205414614e2f576001602260008473ffffffffffffffffffffffffffffffffffffffff1673ffffffffffffffffffffffffffffffffffffffff1681526020019081526020016000205460085461498691906198d1565b1115614d65576000601f60008473ffffffffffffffffffffffffffffffffffffffff1673ffffffffffffffffffffffffffffffffffffffff1681526020019081526020016000206000602260008673ffffffffffffffffffffffffffffffffffffffff1673ffffffffffffffffffffffffffffffffffffffff16815260200190815260200160002054815260200190815260200160002054905080601660008573ffffffffffffffffffffffffffffffffffffffff1673ffffffffffffffffffffffffffffffffffffffff1681526020019081526020016000206000828254614a6f91906197e3565b9250508190555080602060008573ffffffffffffffffffffffffffffffffffffffff1673ffffffffffffffffffffffffffffffffffffffff1681526020019081526020016000206000828254614ac591906197e3565b92505081905550670de0b6b3a7640000601e6000602260008773ffffffffffffffffffffffffffffffffffffffff1673ffffffffffffffffffffffffffffffffffffffff16815260200190815260200160002054815260200190815260200160002054601e60006001600954614b3b91906197e3565b815260200190815260200160002054614b5491906198d1565b601f60008673ffffffffffffffffffffffffffffffffffffffff1673ffffffffffffffffffffffffffffffffffffffff1681526020019081526020016000206000602260008873ffffffffffffffffffffffffffffffffffffffff1673ffffffffffffffffffffffffffffffffffffffff16815260200190815260200160002054815260200190815260200160002054614bee9190619817565b614bf891906198a0565b601760008573ffffffffffffffffffffffffffffffffffffffff1673ffffffffffffffffffffffffffffffffffffffff16815260200190815260200160002054614c4291906197e3565b601760008573ffffffffffffffffffffffffffffffffffffffff1673ffffffffffffffffffffffffffffffffffffffff168152602001908152602001600020819055506000601f60008573ffffffffffffffffffffffffffffffffffffffff1673ffffffffffffffffffffffffffffffffffffffff1681526020019081526020016000206000602260008773ffffffffffffffffffffffffffffffffffffffff1673ffffffffffffffffffffffffffffffffffffffff168152602001908152602001600020548152602001908152602001600020819055506000602260008573ffffffffffffffffffffffffffffffffffffffff1673ffffffffffffffffffffffffffffffffffffffff1681526020019081526020016000208190555050614e2e565b602260008373ffffffffffffffffffffffffffffffffffffffff1673ffffffffffffffffffffffffffffffffffffffff16815260200190815260200160002054602160008473ffffffffffffffffffffffffffffffffffffffff1673ffffffffffffffffffffffffffffffffffffffff168152602001908152602001600020819055506000602260008473ffffffffffffffffffffffffffffffffffffffff1673ffffffffffffffffffffffffffffffffffffffff168152602001908152602001600020819055505b5b505b614e3a87618657565b60106000614e46618625565b73ffffffffffffffffffffffffffffffffffffffff1673ffffffffffffffffffffffffffffffffffffffff1681526020019081526020016000206000815480929190614e9190619b92565b91905055506011600060085481526020019081526020016000206000815480929190614ebc90619b92565b919050555060085460126000614ed0618625565b73ffffffffffffffffffffffffffffffffffffffff1673ffffffffffffffffffffffffffffffffffffffff16815260200190815260200160002081905550600073ffffffffffffffffffffffffffffffffffffffff168773ffffffffffffffffffffffffffffffffffffffff161461505e5760008614614ffe5785600e6000614f57618625565b73ffffffffffffffffffffffffffffffffffffffff1673ffffffffffffffffffffffffffffffffffffffff1681526020019081526020016000206000828254614fa091906197e3565b9250508190555085600f60008973ffffffffffffffffffffffffffffffffffffffff1673ffffffffffffffffffffffffffffffffffffffff1681526020019081526020016000206000828254614ff691906197e3565b925050819055505b6000851461505d5784601560008973ffffffffffffffffffffffffffffffffffffffff1673ffffffffffffffffffffffffffffffffffffffff168152602001908152602001600020600082825461505591906197e3565b925050819055505b5b6150688989616976565b505060006127106103e861ffff163a6179845a8661508691906198d1565b61509091906197e3565b61509a9190619817565b6150a49190619817565b6150ae91906198a0565b90508083346150bd91906198d1565b10156150fe576040517f08c379a00000000000000000000000000000000000000000000000000000000081526004016150f590619c4c565b60405180910390fd5b61511e3384833461510f91906198d1565b61511991906198d1565b618aab565b80601c60006008548152602001908152602001600020600082825461514391906197e3565b925050819055505050505050505050565b600460009054906101000a900473ffffffffffffffffffffffffffffffffffffffff1681565b6000615184616daa565b905060085481111561519857806008819055505b600b54600854146151c25760016009546151b291906197e3565b600a81905550600b546009819055505b6009546008541180156151f657506000601e600060016009546151e591906197e3565b815260200190815260200160002054145b15615290576000601a6000600954815260200190815260200160002054670de0b6b3a7640000601c600060095481526020019081526020016000205461523c9190619817565b61524691906198a0565b905080601e6000600a5481526020019081526020016000205461526991906197e3565b601e6000600160095461527c91906197e3565b815260200190815260200160002081905550505b615298618625565b601260008273ffffffffffffffffffffffffffffffffffffffff1673ffffffffffffffffffffffffffffffffffffffff1681526020019081526020016000205460085411801561532857506000601060008373ffffffffffffffffffffffffffffffffffffffff1673ffffffffffffffffffffffffffffffffffffffff1681526020019081526020016000205414155b1561565857600060116000601260008573ffffffffffffffffffffffffffffffffffffffff1673ffffffffffffffffffffffffffffffffffffffff1681526020019081526020016000205481526020019081526020016000205460196000601260008673ffffffffffffffffffffffffffffffffffffffff1673ffffffffffffffffffffffffffffffffffffffff16815260200190815260200160002054815260200190815260200160002054601060008573ffffffffffffffffffffffffffffffffffffffff1673ffffffffffffffffffffffffffffffffffffffff1681526020019081526020016000205461541f9190619817565b61542991906198a0565b905080601660008473ffffffffffffffffffffffffffffffffffffffff1673ffffffffffffffffffffffffffffffffffffffff168152602001908152602001600020600082825461547a91906197e3565b925050819055506000600e60008473ffffffffffffffffffffffffffffffffffffffff1673ffffffffffffffffffffffffffffffffffffffff1681526020019081526020016000205414615611576000601060008473ffffffffffffffffffffffffffffffffffffffff1673ffffffffffffffffffffffffffffffffffffffff168152602001908152602001600020548261551591906198a0565b90506000612710600e60008673ffffffffffffffffffffffffffffffffffffffff1673ffffffffffffffffffffffffffffffffffffffff16815260200190815260200160002054836155679190619817565b61557191906198a0565b905080601660008673ffffffffffffffffffffffffffffffffffffffff1673ffffffffffffffffffffffffffffffffffffffff16815260200190815260200160002060008282546155c291906198d1565b925050819055506000600e60008673ffffffffffffffffffffffffffffffffffffffff1673ffffffffffffffffffffffffffffffffffffffff1681526020019081526020016000208190555050505b6000601060008473ffffffffffffffffffffffffffffffffffffffff1673ffffffffffffffffffffffffffffffffffffffff16815260200190815260200160002081905550505b6009546008541180156156b85750600160095461567591906197e3565b601b60008373ffffffffffffffffffffffffffffffffffffffff1673ffffffffffffffffffffffffffffffffffffffff1681526020019081526020016000205414155b1561587957670de0b6b3a7640000601e6000601b60008573ffffffffffffffffffffffffffffffffffffffff1673ffffffffffffffffffffffffffffffffffffffff16815260200190815260200160002054815260200190815260200160002054601e6000600160095461572c91906197e3565b81526020019081526020016000205461574591906198d1565b601660008473ffffffffffffffffffffffffffffffffffffffff1673ffffffffffffffffffffffffffffffffffffffff1681526020019081526020016000205461578f9190619817565b61579991906198a0565b601760008373ffffffffffffffffffffffffffffffffffffffff1673ffffffffffffffffffffffffffffffffffffffff168152602001908152602001600020546157e391906197e3565b601760008373ffffffffffffffffffffffffffffffffffffffff1673ffffffffffffffffffffffffffffffffffffffff16815260200190815260200160002081905550600160095461583591906197e3565b601b60008373ffffffffffffffffffffffffffffffffffffffff1673ffffffffffffffffffffffffffffffffffffffff168152602001908152602001600020819055505b6000602160008373ffffffffffffffffffffffffffffffffffffffff1673ffffffffffffffffffffffffffffffffffffffff168152602001908152602001600020541415801561591557506000602160008373ffffffffffffffffffffffffffffffffffffffff1673ffffffffffffffffffffffffffffffffffffffff1681526020019081526020016000205460085461591391906198d1565b115b1561622e576000601f60008373ffffffffffffffffffffffffffffffffffffffff1673ffffffffffffffffffffffffffffffffffffffff1681526020019081526020016000206000602160008573ffffffffffffffffffffffffffffffffffffffff1673ffffffffffffffffffffffffffffffffffffffff16815260200190815260200160002054815260200190815260200160002054905080601660008473ffffffffffffffffffffffffffffffffffffffff1673ffffffffffffffffffffffffffffffffffffffff16815260200190815260200160002060008282546159fd91906197e3565b9250508190555080602060008473ffffffffffffffffffffffffffffffffffffffff1673ffffffffffffffffffffffffffffffffffffffff1681526020019081526020016000206000828254615a5391906197e3565b92505081905550670de0b6b3a7640000601e6000602160008673ffffffffffffffffffffffffffffffffffffffff1673ffffffffffffffffffffffffffffffffffffffff16815260200190815260200160002054815260200190815260200160002054601e60006001600954615ac991906197e3565b815260200190815260200160002054615ae291906198d1565b601f60008573ffffffffffffffffffffffffffffffffffffffff1673ffffffffffffffffffffffffffffffffffffffff1681526020019081526020016000206000602160008773ffffffffffffffffffffffffffffffffffffffff1673ffffffffffffffffffffffffffffffffffffffff16815260200190815260200160002054815260200190815260200160002054615b7c9190619817565b615b8691906198a0565b601760008473ffffffffffffffffffffffffffffffffffffffff1673ffffffffffffffffffffffffffffffffffffffff16815260200190815260200160002054615bd091906197e3565b601760008473ffffffffffffffffffffffffffffffffffffffff1673ffffffffffffffffffffffffffffffffffffffff168152602001908152602001600020819055506000601f60008473ffffffffffffffffffffffffffffffffffffffff1673ffffffffffffffffffffffffffffffffffffffff1681526020019081526020016000206000602160008673ffffffffffffffffffffffffffffffffffffffff1673ffffffffffffffffffffffffffffffffffffffff168152602001908152602001600020548152602001908152602001600020819055506000602160008473ffffffffffffffffffffffffffffffffffffffff1673ffffffffffffffffffffffffffffffffffffffff168152602001908152602001600020819055506000602260008473ffffffffffffffffffffffffffffffffffffffff1673ffffffffffffffffffffffffffffffffffffffff168152602001908152602001600020541461622c576001602260008473ffffffffffffffffffffffffffffffffffffffff1673ffffffffffffffffffffffffffffffffffffffff16815260200190815260200160002054600854615d8391906198d1565b1115616162576000601f60008473ffffffffffffffffffffffffffffffffffffffff1673ffffffffffffffffffffffffffffffffffffffff1681526020019081526020016000206000602260008673ffffffffffffffffffffffffffffffffffffffff1673ffffffffffffffffffffffffffffffffffffffff16815260200190815260200160002054815260200190815260200160002054905080601660008573ffffffffffffffffffffffffffffffffffffffff1673ffffffffffffffffffffffffffffffffffffffff1681526020019081526020016000206000828254615e6c91906197e3565b9250508190555080602060008573ffffffffffffffffffffffffffffffffffffffff1673ffffffffffffffffffffffffffffffffffffffff1681526020019081526020016000206000828254615ec291906197e3565b92505081905550670de0b6b3a7640000601e6000602260008773ffffffffffffffffffffffffffffffffffffffff1673ffffffffffffffffffffffffffffffffffffffff16815260200190815260200160002054815260200190815260200160002054601e60006001600954615f3891906197e3565b815260200190815260200160002054615f5191906198d1565b601f60008673ffffffffffffffffffffffffffffffffffffffff1673ffffffffffffffffffffffffffffffffffffffff1681526020019081526020016000206000602260008873ffffffffffffffffffffffffffffffffffffffff1673ffffffffffffffffffffffffffffffffffffffff16815260200190815260200160002054815260200190815260200160002054615feb9190619817565b615ff591906198a0565b601760008573ffffffffffffffffffffffffffffffffffffffff1673ffffffffffffffffffffffffffffffffffffffff1681526020019081526020016000205461603f91906197e3565b601760008573ffffffffffffffffffffffffffffffffffffffff1673ffffffffffffffffffffffffffffffffffffffff168152602001908152602001600020819055506000601f60008573ffffffffffffffffffffffffffffffffffffffff1673ffffffffffffffffffffffffffffffffffffffff1681526020019081526020016000206000602260008773ffffffffffffffffffffffffffffffffffffffff1673ffffffffffffffffffffffffffffffffffffffff168152602001908152602001600020548152602001908152602001600020819055506000602260008573ffffffffffffffffffffffffffffffffffffffff1673ffffffffffffffffffffffffffffffffffffffff168152602001908152602001600020819055505061622b565b602260008373ffffffffffffffffffffffffffffffffffffffff1673ffffffffffffffffffffffffffffffffffffffff16815260200190815260200160002054602160008473ffffffffffffffffffffffffffffffffffffffff1673ffffffffffffffffffffffffffffffffffffffff168152602001908152602001600020819055506000602260008473ffffffffffffffffffffffffffffffffffffffff1673ffffffffffffffffffffffffffffffffffffffff168152602001908152602001600020819055505b5b505b60008303616271576040517f08c379a000000000000000000000000000000000000000000000000000000000815260040161626890619951565b60405180910390fd5b826007600082825461628391906197e3565b925050819055506000600160085461629b91906197e3565b9050600b54600954036162ae5760085490505b602160006162ba618625565b73ffffffffffffffffffffffffffffffffffffffff1673ffffffffffffffffffffffffffffffffffffffff168152602001908152602001600020546008541415801561634e57506022600061630d618625565b73ffffffffffffffffffffffffffffffffffffffff1673ffffffffffffffffffffffffffffffffffffffff1681526020019081526020016000205460085414155b1561648d57600060216000616361618625565b73ffffffffffffffffffffffffffffffffffffffff1673ffffffffffffffffffffffffffffffffffffffff16815260200190815260200160002054036163f15780602160006163ae618625565b73ffffffffffffffffffffffffffffffffffffffff1673ffffffffffffffffffffffffffffffffffffffff1681526020019081526020016000208190555061648c565b6000602260006163ff618625565b73ffffffffffffffffffffffffffffffffffffffff1673ffffffffffffffffffffffffffffffffffffffff168152602001908152602001600020540361648b57806022600061644c618625565b73ffffffffffffffffffffffffffffffffffffffff1673ffffffffffffffffffffffffffffffffffffffff168152602001908152602001600020819055505b5b5b83601f600061649a618625565b73ffffffffffffffffffffffffffffffffffffffff1673ffffffffffffffffffffffffffffffffffffffff168152602001908152602001600020600083815260200190815260200160002060008282546164f491906197e3565b92505081905550600460009054906101000a900473ffffffffffffffffffffffffffffffffffffffff1673ffffffffffffffffffffffffffffffffffffffff166323b872dd616541618625565b30876040518463ffffffff1660e01b815260040161656193929190619c6c565b6020604051808303816000875af1158015616580573d6000803e3d6000fd5b505050506040513d601f19601f820116820180604052508101906165a49190619a67565b5050505050565b602080528060005260406000206000915090505481565b600047905090565b60606000808373ffffffffffffffffffffffffffffffffffffffff1673ffffffffffffffffffffffffffffffffffffffff168152602001908152602001600020805461661590619783565b80601f016020809104026020016040519081016040528092919081815260200182805461664190619783565b801561668e5780601f106166635761010080835404028352916020019161668e565b820191906000526020600020905b81548152906001019060200180831161667157829003601f168201915b50505050509050919050565b6000806166a5616daa565b9050600080602160008673ffffffffffffffffffffffffffffffffffffffff1673ffffffffffffffffffffffffffffffffffffffff168152602001908152602001600020541415801561674257506001602160008673ffffffffffffffffffffffffffffffffffffffff1673ffffffffffffffffffffffffffffffffffffffff168152602001908152602001600020548361674091906198d1565b115b1561692257601f60008573ffffffffffffffffffffffffffffffffffffffff1673ffffffffffffffffffffffffffffffffffffffff1681526020019081526020016000206000602160008773ffffffffffffffffffffffffffffffffffffffff1673ffffffffffffffffffffffffffffffffffffffff16815260200190815260200160002054815260200190815260200160002054816167e291906197e3565b90506000602260008673ffffffffffffffffffffffffffffffffffffffff1673ffffffffffffffffffffffffffffffffffffffff168152602001908152602001600020541415801561687e57506001602260008673ffffffffffffffffffffffffffffffffffffffff1673ffffffffffffffffffffffffffffffffffffffff168152602001908152602001600020548361687c91906198d1565b115b1561692157601f60008573ffffffffffffffffffffffffffffffffffffffff1673ffffffffffffffffffffffffffffffffffffffff1681526020019081526020016000206000602260008773ffffffffffffffffffffffffffffffffffffffff1673ffffffffffffffffffffffffffffffffffffffff168152602001908152602001600020548152602001908152602001600020548161691e91906197e3565b90505b5b80602060008673ffffffffffffffffffffffffffffffffffffffff1673ffffffffffffffffffffffffffffffffffffffff1681526020019081526020016000205461696d91906197e3565b92505050919050565b60005b6001835161698791906198d1565b811015616c28576000600160008584815181106169a7576169a6619ca3565b5b602002602001015173ffffffffffffffffffffffffffffffffffffffff1673ffffffffffffffffffffffffffffffffffffffff16815260200190815260200160002060006169f3618625565b73ffffffffffffffffffffffffffffffffffffffff1673ffffffffffffffffffffffffffffffffffffffff1681526020019081526020016000208054905003616af85760036000848381518110616a4d57616a4c619ca3565b5b602002602001015173ffffffffffffffffffffffffffffffffffffffff1673ffffffffffffffffffffffffffffffffffffffff168152602001908152602001600020616a97618625565b9080600181540180825580915050600190039060005260206000200160009091909190916101000a81548173ffffffffffffffffffffffffffffffffffffffff021916908373ffffffffffffffffffffffffffffffffffffffff1602179055505b60006040518060400160405280848481518110616b1857616b17619ca3565b5b6020026020010151815260200142815250905060016000858481518110616b4257616b41619ca3565b5b602002602001015173ffffffffffffffffffffffffffffffffffffffff1673ffffffffffffffffffffffffffffffffffffffff1681526020019081526020016000206000616b8e618625565b73ffffffffffffffffffffffffffffffffffffffff1673ffffffffffffffffffffffffffffffffffffffff1681526020019081526020016000208190806001815401808255809150506001900390600052602060002090600202016000909190919091506000820151816000019081616c079190619e74565b50602082015181600101555050508080616c2090619b92565b915050616979565b50600060405180604001604052808360018651616c4591906198d1565b81518110616c5657616c55619ca3565b5b6020026020010151815260200142815250905060026000616c75618625565b73ffffffffffffffffffffffffffffffffffffffff1673ffffffffffffffffffffffffffffffffffffffff16815260200190815260200160002060405180604001604052808581526020018381525090806001815401808255809150506001900390600052602060002090600302016000909190919091506000820151816000019080519060200190616d09929190618b64565b506020820151816001016000820151816000019081616d289190619e74565b506020820151816001015550505050505050565b60196020528060005260406000206000915090505481565b80600080616d60618625565b73ffffffffffffffffffffffffffffffffffffffff1673ffffffffffffffffffffffffffffffffffffffff1681526020019081526020016000209081616da69190619e74565b5050565b60007f00000000000000000000000000000000000000000000000000000000000000007f000000000000000000000000000000000000000000000000000000000000000042616df991906198d1565b616e0391906198a0565b905090565b601e6020528060005260406000206000915090505481565b600080616e2b616daa565b90506000601760008573ffffffffffffffffffffffffffffffffffffffff1673ffffffffffffffffffffffffffffffffffffffff168152602001908152602001600020549050600080600a54905060006009549050600b548514616ea0576001600954616e9891906197e3565b9150600b5490505b8085118015616ece57506000601e6000600184616ebd91906197e3565b815260200190815260200160002054145b15616f45576000601a600083815260200190815260200160002054670de0b6b3a7640000601c600085815260200190815260200160002054616f109190619817565b616f1a91906198a0565b905080601e6000600a54815260200190815260200160002054616f3d91906197e3565b935050616f5e565b601e6000600a5481526020019081526020016000205492505b6000616f69886137cb565b90508186118015616fc55750600182616f8291906197e3565b601b60008a73ffffffffffffffffffffffffffffffffffffffff1673ffffffffffffffffffffffffffffffffffffffff1681526020019081526020016000205414155b1561705457670de0b6b3a7640000601e6000601b60008c73ffffffffffffffffffffffffffffffffffffffff1673ffffffffffffffffffffffffffffffffffffffff168152602001908152602001600020548152602001908152602001600020548561703191906198d1565b8261703c9190619817565b61704691906198a0565b8561705191906197e3565b94505b6000602160008a73ffffffffffffffffffffffffffffffffffffffff1673ffffffffffffffffffffffffffffffffffffffff16815260200190815260200160002054141580156170ee57506001602160008a73ffffffffffffffffffffffffffffffffffffffff1673ffffffffffffffffffffffffffffffffffffffff16815260200190815260200160002054876170ec91906198d1565b115b156173c457670de0b6b3a7640000601e6000602160008c73ffffffffffffffffffffffffffffffffffffffff1673ffffffffffffffffffffffffffffffffffffffff168152602001908152602001600020548152602001908152602001600020548561715a91906198d1565b601f60008b73ffffffffffffffffffffffffffffffffffffffff1673ffffffffffffffffffffffffffffffffffffffff1681526020019081526020016000206000602160008d73ffffffffffffffffffffffffffffffffffffffff1673ffffffffffffffffffffffffffffffffffffffff168152602001908152602001600020548152602001908152602001600020546171f49190619817565b6171fe91906198a0565b8561720991906197e3565b94506000602260008a73ffffffffffffffffffffffffffffffffffffffff1673ffffffffffffffffffffffffffffffffffffffff16815260200190815260200160002054141580156172a557506001602260008a73ffffffffffffffffffffffffffffffffffffffff1673ffffffffffffffffffffffffffffffffffffffff16815260200190815260200160002054876172a391906198d1565b115b156173c357670de0b6b3a7640000601e6000602260008c73ffffffffffffffffffffffffffffffffffffffff1673ffffffffffffffffffffffffffffffffffffffff168152602001908152602001600020548152602001908152602001600020548561731191906198d1565b601f60008b73ffffffffffffffffffffffffffffffffffffffff1673ffffffffffffffffffffffffffffffffffffffff1681526020019081526020016000206000602260008d73ffffffffffffffffffffffffffffffffffffffff1673ffffffffffffffffffffffffffffffffffffffff168152602001908152602001600020548152602001908152602001600020546173ab9190619817565b6173b591906198a0565b856173c091906197e3565b94505b5b849650505050505050919050565b60166020528060005260406000206000915090505481565b601a6020528060005260406000206000915090505481565b600061740c616daa565b905060085481111561742057806008819055505b600b546008541461744a57600160095461743a91906197e3565b600a81905550600b546009819055505b60095460085411801561747e57506000601e6000600160095461746d91906197e3565b815260200190815260200160002054145b15617518576000601a6000600954815260200190815260200160002054670de0b6b3a7640000601c60006009548152602001908152602001600020546174c49190619817565b6174ce91906198a0565b905080601e6000600a548152602001908152602001600020546174f191906197e3565b601e6000600160095461750491906197e3565b815260200190815260200160002081905550505b617520618625565b601260008273ffffffffffffffffffffffffffffffffffffffff1673ffffffffffffffffffffffffffffffffffffffff168152602001908152602001600020546008541180156175b057506000601060008373ffffffffffffffffffffffffffffffffffffffff1673ffffffffffffffffffffffffffffffffffffffff1681526020019081526020016000205414155b156178e057600060116000601260008573ffffffffffffffffffffffffffffffffffffffff1673ffffffffffffffffffffffffffffffffffffffff1681526020019081526020016000205481526020019081526020016000205460196000601260008673ffffffffffffffffffffffffffffffffffffffff1673ffffffffffffffffffffffffffffffffffffffff16815260200190815260200160002054815260200190815260200160002054601060008573ffffffffffffffffffffffffffffffffffffffff1673ffffffffffffffffffffffffffffffffffffffff168152602001908152602001600020546176a79190619817565b6176b191906198a0565b905080601660008473ffffffffffffffffffffffffffffffffffffffff1673ffffffffffffffffffffffffffffffffffffffff168152602001908152602001600020600082825461770291906197e3565b925050819055506000600e60008473ffffffffffffffffffffffffffffffffffffffff1673ffffffffffffffffffffffffffffffffffffffff1681526020019081526020016000205414617899576000601060008473ffffffffffffffffffffffffffffffffffffffff1673ffffffffffffffffffffffffffffffffffffffff168152602001908152602001600020548261779d91906198a0565b90506000612710600e60008673ffffffffffffffffffffffffffffffffffffffff1673ffffffffffffffffffffffffffffffffffffffff16815260200190815260200160002054836177ef9190619817565b6177f991906198a0565b905080601660008673ffffffffffffffffffffffffffffffffffffffff1673ffffffffffffffffffffffffffffffffffffffff168152602001908152602001600020600082825461784a91906198d1565b925050819055506000600e60008673ffffffffffffffffffffffffffffffffffffffff1673ffffffffffffffffffffffffffffffffffffffff1681526020019081526020016000208190555050505b6000601060008473ffffffffffffffffffffffffffffffffffffffff1673ffffffffffffffffffffffffffffffffffffffff16815260200190815260200160002081905550505b600954600854118015617940575060016009546178fd91906197e3565b601b60008373ffffffffffffffffffffffffffffffffffffffff1673ffffffffffffffffffffffffffffffffffffffff1681526020019081526020016000205414155b15617b0157670de0b6b3a7640000601e6000601b60008573ffffffffffffffffffffffffffffffffffffffff1673ffffffffffffffffffffffffffffffffffffffff16815260200190815260200160002054815260200190815260200160002054601e600060016009546179b491906197e3565b8152602001908152602001600020546179cd91906198d1565b601660008473ffffffffffffffffffffffffffffffffffffffff1673ffffffffffffffffffffffffffffffffffffffff16815260200190815260200160002054617a179190619817565b617a2191906198a0565b601760008373ffffffffffffffffffffffffffffffffffffffff1673ffffffffffffffffffffffffffffffffffffffff16815260200190815260200160002054617a6b91906197e3565b601760008373ffffffffffffffffffffffffffffffffffffffff1673ffffffffffffffffffffffffffffffffffffffff168152602001908152602001600020819055506001600954617abd91906197e3565b601b60008373ffffffffffffffffffffffffffffffffffffffff1673ffffffffffffffffffffffffffffffffffffffff168152602001908152602001600020819055505b6000602160008373ffffffffffffffffffffffffffffffffffffffff1673ffffffffffffffffffffffffffffffffffffffff1681526020019081526020016000205414158015617b9d57506000602160008373ffffffffffffffffffffffffffffffffffffffff1673ffffffffffffffffffffffffffffffffffffffff16815260200190815260200160002054600854617b9b91906198d1565b115b156184b6576000601f60008373ffffffffffffffffffffffffffffffffffffffff1673ffffffffffffffffffffffffffffffffffffffff1681526020019081526020016000206000602160008573ffffffffffffffffffffffffffffffffffffffff1673ffffffffffffffffffffffffffffffffffffffff16815260200190815260200160002054815260200190815260200160002054905080601660008473ffffffffffffffffffffffffffffffffffffffff1673ffffffffffffffffffffffffffffffffffffffff1681526020019081526020016000206000828254617c8591906197e3565b9250508190555080602060008473ffffffffffffffffffffffffffffffffffffffff1673ffffffffffffffffffffffffffffffffffffffff1681526020019081526020016000206000828254617cdb91906197e3565b92505081905550670de0b6b3a7640000601e6000602160008673ffffffffffffffffffffffffffffffffffffffff1673ffffffffffffffffffffffffffffffffffffffff16815260200190815260200160002054815260200190815260200160002054601e60006001600954617d5191906197e3565b815260200190815260200160002054617d6a91906198d1565b601f60008573ffffffffffffffffffffffffffffffffffffffff1673ffffffffffffffffffffffffffffffffffffffff1681526020019081526020016000206000602160008773ffffffffffffffffffffffffffffffffffffffff1673ffffffffffffffffffffffffffffffffffffffff16815260200190815260200160002054815260200190815260200160002054617e049190619817565b617e0e91906198a0565b601760008473ffffffffffffffffffffffffffffffffffffffff1673ffffffffffffffffffffffffffffffffffffffff16815260200190815260200160002054617e5891906197e3565b601760008473ffffffffffffffffffffffffffffffffffffffff1673ffffffffffffffffffffffffffffffffffffffff168152602001908152602001600020819055506000601f60008473ffffffffffffffffffffffffffffffffffffffff1673ffffffffffffffffffffffffffffffffffffffff1681526020019081526020016000206000602160008673ffffffffffffffffffffffffffffffffffffffff1673ffffffffffffffffffffffffffffffffffffffff168152602001908152602001600020548152602001908152602001600020819055506000602160008473ffffffffffffffffffffffffffffffffffffffff1673ffffffffffffffffffffffffffffffffffffffff168152602001908152602001600020819055506000602260008473ffffffffffffffffffffffffffffffffffffffff1673ffffffffffffffffffffffffffffffffffffffff16815260200190815260200160002054146184b4576001602260008473ffffffffffffffffffffffffffffffffffffffff1673ffffffffffffffffffffffffffffffffffffffff1681526020019081526020016000205460085461800b91906198d1565b11156183ea576000601f60008473ffffffffffffffffffffffffffffffffffffffff1673ffffffffffffffffffffffffffffffffffffffff1681526020019081526020016000206000602260008673ffffffffffffffffffffffffffffffffffffffff1673ffffffffffffffffffffffffffffffffffffffff16815260200190815260200160002054815260200190815260200160002054905080601660008573ffffffffffffffffffffffffffffffffffffffff1673ffffffffffffffffffffffffffffffffffffffff16815260200190815260200160002060008282546180f491906197e3565b9250508190555080602060008573ffffffffffffffffffffffffffffffffffffffff1673ffffffffffffffffffffffffffffffffffffffff168152602001908152602001600020600082825461814a91906197e3565b92505081905550670de0b6b3a7640000601e6000602260008773ffffffffffffffffffffffffffffffffffffffff1673ffffffffffffffffffffffffffffffffffffffff16815260200190815260200160002054815260200190815260200160002054601e600060016009546181c091906197e3565b8152602001908152602001600020546181d991906198d1565b601f60008673ffffffffffffffffffffffffffffffffffffffff1673ffffffffffffffffffffffffffffffffffffffff1681526020019081526020016000206000602260008873ffffffffffffffffffffffffffffffffffffffff1673ffffffffffffffffffffffffffffffffffffffff168152602001908152602001600020548152602001908152602001600020546182739190619817565b61827d91906198a0565b601760008573ffffffffffffffffffffffffffffffffffffffff1673ffffffffffffffffffffffffffffffffffffffff168152602001908152602001600020546182c791906197e3565b601760008573ffffffffffffffffffffffffffffffffffffffff1673ffffffffffffffffffffffffffffffffffffffff168152602001908152602001600020819055506000601f60008573ffffffffffffffffffffffffffffffffffffffff1673ffffffffffffffffffffffffffffffffffffffff1681526020019081526020016000206000602260008773ffffffffffffffffffffffffffffffffffffffff1673ffffffffffffffffffffffffffffffffffffffff168152602001908152602001600020548152602001908152602001600020819055506000602260008573ffffffffffffffffffffffffffffffffffffffff1673ffffffffffffffffffffffffffffffffffffffff16815260200190815260200160002081905550506184b3565b602260008373ffffffffffffffffffffffffffffffffffffffff1673ffffffffffffffffffffffffffffffffffffffff16815260200190815260200160002054602160008473ffffffffffffffffffffffffffffffffffffffff1673ffffffffffffffffffffffffffffffffffffffff168152602001908152602001600020819055506000602260008473ffffffffffffffffffffffffffffffffffffffff1673ffffffffffffffffffffffffffffffffffffffff168152602001908152602001600020819055505b5b505b6000601760006184c4618625565b73ffffffffffffffffffffffffffffffffffffffff1673ffffffffffffffffffffffffffffffffffffffff16815260200190815260200160002054905060008111618544576040517f08c379a000000000000000000000000000000000000000000000000000000000815260040161853b90619b72565b60405180910390fd5b600060176000618552618625565b73ffffffffffffffffffffffffffffffffffffffff1673ffffffffffffffffffffffffffffffffffffffff168152602001908152602001600020819055506185a161859b618625565b82618aab565b7f83db9dc084973306ecd0b0f10cb495b81dd9ddcc135eb7934d2723bcabc8f4c3816040516185d09190618c91565b60405180910390a1505050565b60006127236127106006546185f29190619817565b6185fc91906198a0565b905090565b6103e881565b600b5481565b60176020528060005260406000206000915090505481565b6000618630336136a0565b1561864457601436033560601c9050618653565b61864c618b5c565b9050618654565b5b90565b601360008273ffffffffffffffffffffffffffffffffffffffff1673ffffffffffffffffffffffffffffffffffffffff1681526020019081526020016000205460085411156188bf576000601360008373ffffffffffffffffffffffffffffffffffffffff1673ffffffffffffffffffffffffffffffffffffffff1681526020019081526020016000205490506000600f60008473ffffffffffffffffffffffffffffffffffffffff1673ffffffffffffffffffffffffffffffffffffffff168152602001908152602001600020541415801561874857506000601160008381526020019081526020016000205414155b156188775760006011600083815260200190815260200160002054601960008481526020019081526020016000205461878191906198a0565b9050612710600f60008573ffffffffffffffffffffffffffffffffffffffff1673ffffffffffffffffffffffffffffffffffffffff16815260200190815260200160002054826187d19190619817565b6187db91906198a0565b601860008573ffffffffffffffffffffffffffffffffffffffff1673ffffffffffffffffffffffffffffffffffffffff168152602001908152602001600020600082825461882991906197e3565b925050819055506000600f60008573ffffffffffffffffffffffffffffffffffffffff1673ffffffffffffffffffffffffffffffffffffffff16815260200190815260200160002081905550505b600854601360008473ffffffffffffffffffffffffffffffffffffffff1673ffffffffffffffffffffffffffffffffffffffff16815260200190815260200160002081905550505b60095460085411801561891f575060016009546188dc91906197e3565b601460008373ffffffffffffffffffffffffffffffffffffffff1673ffffffffffffffffffffffffffffffffffffffff1681526020019081526020016000205414155b15618aa857670de0b6b3a7640000601e6000601460008573ffffffffffffffffffffffffffffffffffffffff1673ffffffffffffffffffffffffffffffffffffffff16815260200190815260200160002054815260200190815260200160002054601e6000600160095461899391906197e3565b8152602001908152602001600020546189ac91906198d1565b601860008473ffffffffffffffffffffffffffffffffffffffff1673ffffffffffffffffffffffffffffffffffffffff168152602001908152602001600020546189f69190619817565b618a0091906198a0565b601560008373ffffffffffffffffffffffffffffffffffffffff1673ffffffffffffffffffffffffffffffffffffffff1681526020019081526020016000206000828254618a4e91906197e3565b925050819055506001600954618a6491906197e3565b601460008373ffffffffffffffffffffffffffffffffffffffff1673ffffffffffffffffffffffffffffffffffffffff168152602001908152602001600020819055505b50565b60008273ffffffffffffffffffffffffffffffffffffffff1682604051618ad190619f77565b60006040518083038185875af1925050503d8060008114618b0e576040519150601f19603f3d011682016040523d82523d6000602084013e618b13565b606091505b5050905080618b57576040517f08c379a0000000000000000000000000000000000000000000000000000000008152600401618b4e90619fd8565b60405180910390fd5b505050565b600033905090565b828054828255906000526020600020908101928215618bdd579160200282015b82811115618bdc5782518260006101000a81548173ffffffffffffffffffffffffffffffffffffffff021916908373ffffffffffffffffffffffffffffffffffffffff16021790555091602001919060010190618b84565b5b509050618bea9190618bee565b5090565b5b80821115618c07576000816000905550600101618bef565b5090565b6000604051905090565b600080fd5b600080fd5b6000819050919050565b618c3281618c1f565b8114618c3d57600080fd5b50565b600081359050618c4f81618c29565b92915050565b600060208284031215618c6b57618c6a618c15565b5b6000618c7984828501618c40565b91505092915050565b618c8b81618c1f565b82525050565b6000602082019050618ca66000830184618c82565b92915050565b600073ffffffffffffffffffffffffffffffffffffffff82169050919050565b6000618cd782618cac565b9050919050565b618ce781618ccc565b8114618cf257600080fd5b50565b600081359050618d0481618cde565b92915050565b600060208284031215618d2057618d1f618c15565b5b6000618d2e84828501618cf5565b91505092915050565b600081519050919050565b600082825260208201905092915050565b60005b83811015618d71578082015181840152602081019050618d56565b60008484015250505050565b6000601f19601f8301169050919050565b6000618d9982618d37565b618da38185618d42565b9350618db3818560208601618d53565b618dbc81618d7d565b840191505092915050565b60006020820190508181036000830152618de18184618d8e565b905092915050565b600081519050919050565b600082825260208201905092915050565b6000819050602082019050919050565b600081519050919050565b600082825260208201905092915050565b6000819050602082019050919050565b618e4a81618ccc565b82525050565b6000618e5c8383618e41565b60208301905092915050565b6000602082019050919050565b6000618e8082618e15565b618e8a8185618e20565b9350618e9583618e31565b8060005b83811015618ec6578151618ead8882618e50565b9750618eb883618e68565b925050600181019050618e99565b5085935050505092915050565b600082825260208201905092915050565b6000618eef82618d37565b618ef98185618ed3565b9350618f09818560208601618d53565b618f1281618d7d565b840191505092915050565b618f2681618c1f565b82525050565b60006040830160008301518482036000860152618f498282618ee4565b9150506020830151618f5e6020860182618f1d565b508091505092915050565b60006040830160008301518482036000860152618f868282618e75565b91505060208301518482036020860152618fa08282618f2c565b9150508091505092915050565b6000618fb98383618f69565b905092915050565b6000602082019050919050565b6000618fd982618de9565b618fe38185618df4565b935083602082028501618ff585618e05565b8060005b8581101561903157848403895281516190128582618fad565b945061901d83618fc1565b925060208a01995050600181019050618ff9565b50829750879550505050505092915050565b6000602082019050818103600083015261905d8184618fce565b905092915050565b60008115159050919050565b61907a81619065565b82525050565b60006020820190506190956000830184619071565b92915050565b600082825260208201905092915050565b60006190b782618e15565b6190c1818561909b565b93506190cc83618e31565b8060005b838110156190fd5781516190e48882618e50565b97506190ef83618e68565b9250506001810190506190d0565b5085935050505092915050565b6000602082019050818103600083015261912481846190ac565b905092915050565b6000806040838503121561914357619142618c15565b5b600061915185828601618cf5565b925050602061916285828601618cf5565b9150509250929050565b600081519050919050565b600082825260208201905092915050565b6000819050602082019050919050565b60006191a48383618f2c565b905092915050565b6000602082019050919050565b60006191c48261916c565b6191ce8185619177565b9350836020820285016191e085619188565b8060005b8581101561921c57848403895281516191fd8582619198565b9450619208836191ac565b925060208a019950506001810190506191e4565b50829750879550505050505092915050565b6000602082019050818103600083015261924881846191b9565b905092915050565b600080fd5b7f4e487b7100000000000000000000000000000000000000000000000000000000600052604160045260246000fd5b61928d82618d7d565b810181811067ffffffffffffffff821117156192ac576192ab619255565b5b80604052505050565b60006192bf618c0b565b90506192cb8282619284565b919050565b600067ffffffffffffffff8211156192eb576192ea619255565b5b602082029050602081019050919050565b600080fd5b600061931461930f846192d0565b6192b5565b90508083825260208201905060208402830185811115619337576193366192fc565b5b835b81811015619360578061934c8882618cf5565b845260208401935050602081019050619339565b5050509392505050565b600082601f83011261937f5761937e619250565b5b813561938f848260208601619301565b91505092915050565b600067ffffffffffffffff8211156193b3576193b2619255565b5b602082029050602081019050919050565b600080fd5b600067ffffffffffffffff8211156193e4576193e3619255565b5b6193ed82618d7d565b9050602081019050919050565b82818337600083830152505050565b600061941c619417846193c9565b6192b5565b905082815260208101848484011115619438576194376193c4565b5b6194438482856193fa565b509392505050565b600082601f8301126194605761945f619250565b5b8135619470848260208601619409565b91505092915050565b600061948c61948784619398565b6192b5565b905080838252602082019050602084028301858111156194af576194ae6192fc565b5b835b818110156194f657803567ffffffffffffffff8111156194d4576194d3619250565b5b8086016194e1898261944b565b855260208501945050506020810190506194b1565b5050509392505050565b600082601f83011261951557619514619250565b5b8135619525848260208601619479565b91505092915050565b600080600080600060a0868803121561954a57619549618c15565b5b600086013567ffffffffffffffff81111561956857619567618c1a565b5b6195748882890161936a565b955050602086013567ffffffffffffffff81111561959557619594618c1a565b5b6195a188828901619500565b94505060406195b288828901618cf5565b93505060606195c388828901618c40565b92505060806195d488828901618c40565b9150509295509295909350565b6000819050919050565b60006196066196016195fc84618cac565b6195e1565b618cac565b9050919050565b6000619618826195eb565b9050919050565b600061962a8261960d565b9050919050565b61963a8161961f565b82525050565b60006020820190506196556000830184619631565b92915050565b6000806040838503121561967257619671618c15565b5b600083013567ffffffffffffffff8111156196905761968f618c1a565b5b61969c8582860161936a565b925050602083013567ffffffffffffffff8111156196bd576196bc618c1a565b5b6196c985828601619500565b9150509250929050565b6000602082840312156196e9576196e8618c15565b5b600082013567ffffffffffffffff81111561970757619706618c1a565b5b6197138482850161944b565b91505092915050565b600061ffff82169050919050565b6197338161971c565b82525050565b600060208201905061974e600083018461972a565b92915050565b7f4e487b7100000000000000000000000000000000000000000000000000000000600052602260045260246000fd5b6000600282049050600182168061979b57607f821691505b6020821081036197ae576197ad619754565b5b50919050565b7f4e487b7100000000000000000000000000000000000000000000000000000000600052601160045260246000fd5b60006197ee82618c1f565b91506197f983618c1f565b9250828201905080821115619811576198106197b4565b5b92915050565b600061982282618c1f565b915061982d83618c1f565b9250817fffffffffffffffffffffffffffffffffffffffffffffffffffffffffffffffff0483118215151615619866576198656197b4565b5b828202905092915050565b7f4e487b7100000000000000000000000000000000000000000000000000000000600052601260045260246000fd5b60006198ab82618c1f565b91506198b683618c1f565b9250826198c6576198c5619871565b5b828204905092915050565b60006198dc82618c1f565b91506198e783618c1f565b92508282039050818111156198ff576198fe6197b4565b5b92915050565b7f44656230783a20796f757220616d6f756e742069732030000000000000000000600082015250565b600061993b601783618d42565b915061994682619905565b602082019050919050565b6000602082019050818103600083015261996a8161992e565b9050919050565b7f44656230783a2063616e206e6f7420756e7374616b65206d6f7265207468616e60008201527f20796f75277665207374616b6564000000000000000000000000000000000000602082015250565b60006199cd602e83618d42565b91506199d882619971565b604082019050919050565b600060208201905081810360008301526199fc816199c0565b9050919050565b619a0c81618ccc565b82525050565b6000604082019050619a276000830185619a03565b619a346020830184618c82565b9392505050565b619a4481619065565b8114619a4f57600080fd5b50565b600081519050619a6181619a3b565b92915050565b600060208284031215619a7d57619a7c618c15565b5b6000619a8b84828501619a52565b91505092915050565b7f44656230783a20596f7520646f206e6f74206861766520726577617264730000600082015250565b6000619aca601e83618d42565b9150619ad582619a94565b602082019050919050565b60006020820190508181036000830152619af981619abd565b9050919050565b7f44656230783a20596f7520646f206e6f7420686176652061636372756564206660008201527f6565730000000000000000000000000000000000000000000000000000000000602082015250565b6000619b5c602383618d42565b9150619b6782619b00565b604082019050919050565b60006020820190508181036000830152619b8b81619b4f565b9050919050565b6000619b9d82618c1f565b91507fffffffffffffffffffffffffffffffffffffffffffffffffffffffffffffffff8203619bcf57619bce6197b4565b5b600182019050919050565b7f44656230783a206d7573742070617920313025206f66207472616e736163746960008201527f6f6e20636f737400000000000000000000000000000000000000000000000000602082015250565b6000619c36602783618d42565b9150619c4182619bda565b604082019050919050565b60006020820190508181036000830152619c6581619c29565b9050919050565b6000606082019050619c816000830186619a03565b619c8e6020830185619a03565b619c9b6040830184618c82565b949350505050565b7f4e487b7100000000000000000000000000000000000000000000000000000000600052603260045260246000fd5b60008190508160005260206000209050919050565b60006020601f8301049050919050565b600082821b905092915050565b600060088302619d347fffffffffffffffffffffffffffffffffffffffffffffffffffffffffffffffff82619cf7565b619d3e8683619cf7565b95508019841693508086168417925050509392505050565b6000619d71619d6c619d6784618c1f565b6195e1565b618c1f565b9050919050565b6000819050919050565b619d8b83619d56565b619d9f619d9782619d78565b848454619d04565b825550505050565b600090565b619db4619da7565b619dbf818484619d82565b505050565b5b81811015619de357619dd8600082619dac565b600181019050619dc5565b5050565b601f821115619e2857619df981619cd2565b619e0284619ce7565b81016020851015619e11578190505b619e25619e1d85619ce7565b830182619dc4565b50505b505050565b600082821c905092915050565b6000619e4b60001984600802619e2d565b1980831691505092915050565b6000619e648383619e3a565b9150826002028217905092915050565b619e7d82618d37565b67ffffffffffffffff811115619e9657619e95619255565b5b619ea08254619783565b619eab828285619de7565b600060209050601f831160018114619ede5760008415619ecc578287015190505b619ed68582619e58565b865550619f3e565b601f198416619eec86619cd2565b60005b82811015619f1457848901518255600182019150602085019450602081019050619eef565b86831015619f315784890151619f2d601f891682619e3a565b8355505b6001600288020188555050505b505050505050565b600081905092915050565b50565b6000619f61600083619f46565b9150619f6c82619f51565b600082019050919050565b6000619f8282619f54565b9150819050919050565b7f44656230783a206661696c656420746f2073656e6420616d6f756e7400000000600082015250565b6000619fc2601c83618d42565b9150619fcd82619f8c565b602082019050919050565b60006020820190508181036000830152619ff181619fb5565b905091905056fea26469706673582212204e777d0f5d2b489b84045da11872e6ace73cd7a850aae64dc42b571db3b0b2e464736f6c6343000810003360806040523480156200001157600080fd5b506040518060400160405280600581526020017f44656230780000000000000000000000000000000000000000000000000000008152506040518060400160405280600381526020017f444258000000000000000000000000000000000000000000000000000000000081525081600390816200008f919062000365565b508060049081620000a1919062000365565b50505033600560006101000a81548173ffffffffffffffffffffffffffffffffffffffff021916908373ffffffffffffffffffffffffffffffffffffffff1602179055506200044c565b600081519050919050565b7f4e487b7100000000000000000000000000000000000000000000000000000000600052604160045260246000fd5b7f4e487b7100000000000000000000000000000000000000000000000000000000600052602260045260246000fd5b600060028204905060018216806200016d57607f821691505b60208210810362000183576200018262000125565b5b50919050565b60008190508160005260206000209050919050565b60006020601f8301049050919050565b600082821b905092915050565b600060088302620001ed7fffffffffffffffffffffffffffffffffffffffffffffffffffffffffffffffff82620001ae565b620001f98683620001ae565b95508019841693508086168417925050509392505050565b6000819050919050565b6000819050919050565b600062000246620002406200023a8462000211565b6200021b565b62000211565b9050919050565b6000819050919050565b620002628362000225565b6200027a62000271826200024d565b848454620001bb565b825550505050565b600090565b6200029162000282565b6200029e81848462000257565b505050565b5b81811015620002c657620002ba60008262000287565b600181019050620002a4565b5050565b601f8211156200031557620002df8162000189565b620002ea846200019e565b81016020851015620002fa578190505b6200031262000309856200019e565b830182620002a3565b50505b505050565b600082821c905092915050565b60006200033a600019846008026200031a565b1980831691505092915050565b600062000355838362000327565b9150826002028217905092915050565b6200037082620000eb565b67ffffffffffffffff8111156200038c576200038b620000f6565b5b62000398825462000154565b620003a5828285620002ca565b600060209050601f831160018114620003dd5760008415620003c8578287015190505b620003d4858262000347565b86555062000444565b601f198416620003ed8662000189565b60005b828110156200041757848901518255600182019150602085019450602081019050620003f0565b8683101562000437578489015162000433601f89168262000327565b8355505b6001600288020188555050505b505050505050565b6115bd806200045c6000396000f3fe608060405234801561001057600080fd5b50600436106100cf5760003560e01c806370a082311161008c5780639a49090e116100665780639a49090e1461022a578063a457c2d714610246578063a9059cbb14610276578063dd62ed3e146102a6576100cf565b806370a08231146101be5780638da5cb5b146101ee57806395d89b411461020c576100cf565b806306fdde03146100d4578063095ea7b3146100f257806318160ddd1461012257806323b872dd14610140578063313ce56714610170578063395093511461018e575b600080fd5b6100dc6102d6565b6040516100e99190610d98565b60405180910390f35b61010c60048036038101906101079190610e53565b610368565b6040516101199190610eae565b60405180910390f35b61012a61038b565b6040516101379190610ed8565b60405180910390f35b61015a60048036038101906101559190610ef3565b610395565b6040516101679190610eae565b60405180910390f35b6101786103c4565b6040516101859190610f62565b60405180910390f35b6101a860048036038101906101a39190610e53565b6103cd565b6040516101b59190610eae565b60405180910390f35b6101d860048036038101906101d39190610f7d565b610404565b6040516101e59190610ed8565b60405180910390f35b6101f661044c565b6040516102039190610fb9565b60405180910390f35b610214610472565b6040516102219190610d98565b60405180910390f35b610244600480360381019061023f9190610e53565b610504565b005b610260600480360381019061025b9190610e53565b6105a2565b60405161026d9190610eae565b60405180910390f35b610290600480360381019061028b9190610e53565b610619565b60405161029d9190610eae565b60405180910390f35b6102c060048036038101906102bb9190610fd4565b61063c565b6040516102cd9190610ed8565b60405180910390f35b6060600380546102e590611043565b80601f016020809104026020016040519081016040528092919081815260200182805461031190611043565b801561035e5780601f106103335761010080835404028352916020019161035e565b820191906000526020600020905b81548152906001019060200180831161034157829003601f168201915b5050505050905090565b6000806103736106c3565b90506103808185856106cb565b600191505092915050565b6000600254905090565b6000806103a06106c3565b90506103ad858285610894565b6103b8858585610920565b60019150509392505050565b60006012905090565b6000806103d86106c3565b90506103f98185856103ea858961063c565b6103f491906110a3565b6106cb565b600191505092915050565b60008060008373ffffffffffffffffffffffffffffffffffffffff1673ffffffffffffffffffffffffffffffffffffffff168152602001908152602001600020549050919050565b600560009054906101000a900473ffffffffffffffffffffffffffffffffffffffff1681565b60606004805461048190611043565b80601f01602080910402602001604051908101604052809291908181526020018280546104ad90611043565b80156104fa5780601f106104cf576101008083540402835291602001916104fa565b820191906000526020600020905b8154815290600101906020018083116104dd57829003601f168201915b5050505050905090565b600560009054906101000a900473ffffffffffffffffffffffffffffffffffffffff1673ffffffffffffffffffffffffffffffffffffffff163373ffffffffffffffffffffffffffffffffffffffff1614610594576040517f08c379a000000000000000000000000000000000000000000000000000000000815260040161058b90611123565b60405180910390fd5b61059e8282610b9f565b5050565b6000806105ad6106c3565b905060006105bb828661063c565b905083811015610600576040517f08c379a00000000000000000000000000000000000000000000000000000000081526004016105f7906111b5565b60405180910390fd5b61060d82868684036106cb565b60019250505092915050565b6000806106246106c3565b9050610631818585610920565b600191505092915050565b6000600160008473ffffffffffffffffffffffffffffffffffffffff1673ffffffffffffffffffffffffffffffffffffffff16815260200190815260200160002060008373ffffffffffffffffffffffffffffffffffffffff1673ffffffffffffffffffffffffffffffffffffffff16815260200190815260200160002054905092915050565b600033905090565b600073ffffffffffffffffffffffffffffffffffffffff168373ffffffffffffffffffffffffffffffffffffffff160361073a576040517f08c379a000000000000000000000000000000000000000000000000000000000815260040161073190611247565b60405180910390fd5b600073ffffffffffffffffffffffffffffffffffffffff168273ffffffffffffffffffffffffffffffffffffffff16036107a9576040517f08c379a00000000000000000000000000000000000000000000000000000000081526004016107a0906112d9565b60405180910390fd5b80600160008573ffffffffffffffffffffffffffffffffffffffff1673ffffffffffffffffffffffffffffffffffffffff16815260200190815260200160002060008473ffffffffffffffffffffffffffffffffffffffff1673ffffffffffffffffffffffffffffffffffffffff168152602001908152602001600020819055508173ffffffffffffffffffffffffffffffffffffffff168373ffffffffffffffffffffffffffffffffffffffff167f8c5be1e5ebec7d5bd14f71427d1e84f3dd0314c0f7b2291e5b200ac8c7c3b925836040516108879190610ed8565b60405180910390a3505050565b60006108a0848461063c565b90507fffffffffffffffffffffffffffffffffffffffffffffffffffffffffffffffff811461091a578181101561090c576040517f08c379a000000000000000000000000000000000000000000000000000000000815260040161090390611345565b60405180910390fd5b61091984848484036106cb565b5b50505050565b600073ffffffffffffffffffffffffffffffffffffffff168373ffffffffffffffffffffffffffffffffffffffff160361098f576040517f08c379a0000000000000000000000000000000000000000000000000000000008152600401610986906113d7565b60405180910390fd5b600073ffffffffffffffffffffffffffffffffffffffff168273ffffffffffffffffffffffffffffffffffffffff16036109fe576040517f08c379a00000000000000000000000000000000000000000000000000000000081526004016109f590611469565b60405180910390fd5b610a09838383610cfe565b60008060008573ffffffffffffffffffffffffffffffffffffffff1673ffffffffffffffffffffffffffffffffffffffff16815260200190815260200160002054905081811015610a8f576040517f08c379a0000000000000000000000000000000000000000000000000000000008152600401610a86906114fb565b60405180910390fd5b8181036000808673ffffffffffffffffffffffffffffffffffffffff1673ffffffffffffffffffffffffffffffffffffffff16815260200190815260200160002081905550816000808573ffffffffffffffffffffffffffffffffffffffff1673ffffffffffffffffffffffffffffffffffffffff1681526020019081526020016000206000828254610b2291906110a3565b925050819055508273ffffffffffffffffffffffffffffffffffffffff168473ffffffffffffffffffffffffffffffffffffffff167fddf252ad1be2c89b69c2b068fc378daa952ba7f163c4a11628f55a4df523b3ef84604051610b869190610ed8565b60405180910390a3610b99848484610d03565b50505050565b600073ffffffffffffffffffffffffffffffffffffffff168273ffffffffffffffffffffffffffffffffffffffff1603610c0e576040517f08c379a0000000000000000000000000000000000000000000000000000000008152600401610c0590611567565b60405180910390fd5b610c1a60008383610cfe565b8060026000828254610c2c91906110a3565b92505081905550806000808473ffffffffffffffffffffffffffffffffffffffff1673ffffffffffffffffffffffffffffffffffffffff1681526020019081526020016000206000828254610c8191906110a3565b925050819055508173ffffffffffffffffffffffffffffffffffffffff16600073ffffffffffffffffffffffffffffffffffffffff167fddf252ad1be2c89b69c2b068fc378daa952ba7f163c4a11628f55a4df523b3ef83604051610ce69190610ed8565b60405180910390a3610cfa60008383610d03565b5050565b505050565b505050565b600081519050919050565b600082825260208201905092915050565b60005b83811015610d42578082015181840152602081019050610d27565b60008484015250505050565b6000601f19601f8301169050919050565b6000610d6a82610d08565b610d748185610d13565b9350610d84818560208601610d24565b610d8d81610d4e565b840191505092915050565b60006020820190508181036000830152610db28184610d5f565b905092915050565b600080fd5b600073ffffffffffffffffffffffffffffffffffffffff82169050919050565b6000610dea82610dbf565b9050919050565b610dfa81610ddf565b8114610e0557600080fd5b50565b600081359050610e1781610df1565b92915050565b6000819050919050565b610e3081610e1d565b8114610e3b57600080fd5b50565b600081359050610e4d81610e27565b92915050565b60008060408385031215610e6a57610e69610dba565b5b6000610e7885828601610e08565b9250506020610e8985828601610e3e565b9150509250929050565b60008115159050919050565b610ea881610e93565b82525050565b6000602082019050610ec36000830184610e9f565b92915050565b610ed281610e1d565b82525050565b6000602082019050610eed6000830184610ec9565b92915050565b600080600060608486031215610f0c57610f0b610dba565b5b6000610f1a86828701610e08565b9350506020610f2b86828701610e08565b9250506040610f3c86828701610e3e565b9150509250925092565b600060ff82169050919050565b610f5c81610f46565b82525050565b6000602082019050610f776000830184610f53565b92915050565b600060208284031215610f9357610f92610dba565b5b6000610fa184828501610e08565b91505092915050565b610fb381610ddf565b82525050565b6000602082019050610fce6000830184610faa565b92915050565b60008060408385031215610feb57610fea610dba565b5b6000610ff985828601610e08565b925050602061100a85828601610e08565b9150509250929050565b7f4e487b7100000000000000000000000000000000000000000000000000000000600052602260045260246000fd5b6000600282049050600182168061105b57607f821691505b60208210810361106e5761106d611014565b5b50919050565b7f4e487b7100000000000000000000000000000000000000000000000000000000600052601160045260246000fd5b60006110ae82610e1d565b91506110b983610e1d565b92508282019050808211156110d1576110d0611074565b5b92915050565b7f43616c6c6572206973206e6f7420446562307820636f6e74726163742e000000600082015250565b600061110d601d83610d13565b9150611118826110d7565b602082019050919050565b6000602082019050818103600083015261113c81611100565b9050919050565b7f45524332303a2064656372656173656420616c6c6f77616e63652062656c6f7760008201527f207a65726f000000000000000000000000000000000000000000000000000000602082015250565b600061119f602583610d13565b91506111aa82611143565b604082019050919050565b600060208201905081810360008301526111ce81611192565b9050919050565b7f45524332303a20617070726f76652066726f6d20746865207a65726f2061646460008201527f7265737300000000000000000000000000000000000000000000000000000000602082015250565b6000611231602483610d13565b915061123c826111d5565b604082019050919050565b6000602082019050818103600083015261126081611224565b9050919050565b7f45524332303a20617070726f766520746f20746865207a65726f20616464726560008201527f7373000000000000000000000000000000000000000000000000000000000000602082015250565b60006112c3602283610d13565b91506112ce82611267565b604082019050919050565b600060208201905081810360008301526112f2816112b6565b9050919050565b7f45524332303a20696e73756666696369656e7420616c6c6f77616e6365000000600082015250565b600061132f601d83610d13565b915061133a826112f9565b602082019050919050565b6000602082019050818103600083015261135e81611322565b9050919050565b7f45524332303a207472616e736665722066726f6d20746865207a65726f20616460008201527f6472657373000000000000000000000000000000000000000000000000000000602082015250565b60006113c1602583610d13565b91506113cc82611365565b604082019050919050565b600060208201905081810360008301526113f0816113b4565b9050919050565b7f45524332303a207472616e7366657220746f20746865207a65726f206164647260008201527f6573730000000000000000000000000000000000000000000000000000000000602082015250565b6000611453602383610d13565b915061145e826113f7565b604082019050919050565b6000602082019050818103600083015261148281611446565b9050919050565b7f45524332303a207472616e7366657220616d6f756e742065786365656473206260008201527f616c616e63650000000000000000000000000000000000000000000000000000602082015250565b60006114e5602683610d13565b91506114f082611489565b604082019050919050565b60006020820190508181036000830152611514816114d8565b9050919050565b7f45524332303a206d696e7420746f20746865207a65726f206164647265737300600082015250565b6000611551601f83610d13565b915061155c8261151b565b602082019050919050565b6000602082019050818103600083015261158081611544565b905091905056fea26469706673582212208483cc6fafded2805fa1775f806e37eb3ee99d40edc02dd4923f84d720a1625a64736f6c63430008100033",
    "linkReferences": {},
    "deployedLinkReferences": {}
}