{
    "_format": "hh-sol-artifact-1",
    "contractName": "Deb0x",
    "sourceName": "contracts/Deb0x.sol",
    "abi": [
        {
            "inputs": [],
            "stateMutability": "nonpayable",
            "type": "constructor"
        },
        {
            "anonymous": false,
            "inputs": [
                {
                    "indexed": true,
                    "internalType": "address",
                    "name": "userAddress",
                    "type": "address"
                },
                {
                    "indexed": false,
                    "internalType": "uint256",
                    "name": "fees",
                    "type": "uint256"
                },
                {
                    "indexed": false,
                    "internalType": "uint256",
                    "name": "cycle",
                    "type": "uint256"
                }
            ],
            "name": "FeesClaimed",
            "type": "event"
        },
        {
            "anonymous": false,
            "inputs": [
                {
                    "indexed": true,
                    "internalType": "address",
                    "name": "userAddress",
                    "type": "address"
                },
                {
                    "indexed": false,
                    "internalType": "uint256",
                    "name": "fees",
                    "type": "uint256"
                },
                {
                    "indexed": false,
                    "internalType": "uint256",
                    "name": "cycle",
                    "type": "uint256"
                }
            ],
            "name": "FrontEndFeesClaimed",
            "type": "event"
        },
        {
            "anonymous": false,
            "inputs": [
                {
                    "indexed": true,
                    "internalType": "address",
                    "name": "userAddress",
                    "type": "address"
                },
                {
                    "indexed": false,
                    "internalType": "uint256",
                    "name": "anount",
                    "type": "uint256"
                },
                {
                    "indexed": false,
                    "internalType": "uint256",
                    "name": "cycle",
                    "type": "uint256"
                }
            ],
            "name": "FrontEndRewardsClaimed",
            "type": "event"
        },
        {
            "anonymous": false,
            "inputs": [
                {
                    "indexed": true,
                    "internalType": "address",
                    "name": "to",
                    "type": "address"
                },
                {
                    "indexed": true,
                    "internalType": "bytes32",
                    "name": "hash",
                    "type": "bytes32"
                },
                {
                    "indexed": false,
                    "internalType": "string",
                    "name": "value",
                    "type": "string"
                }
            ],
            "name": "KeySet",
            "type": "event"
        },
        {
            "anonymous": false,
            "inputs": [
                {
                    "indexed": true,
                    "internalType": "uint256",
                    "name": "currentCycle",
                    "type": "uint256"
                },
                {
                    "indexed": false,
                    "internalType": "uint256",
                    "name": "calculatedCycleReward",
                    "type": "uint256"
                },
                {
                    "indexed": false,
                    "internalType": "uint256",
                    "name": "summedCycleStakes",
                    "type": "uint256"
                }
            ],
            "name": "NewCycleStarted",
            "type": "event"
        },
        {
            "anonymous": false,
            "inputs": [
                {
                    "indexed": true,
                    "internalType": "address",
                    "name": "userAddress",
                    "type": "address"
                },
                {
                    "indexed": false,
                    "internalType": "uint256",
                    "name": "anount",
                    "type": "uint256"
                },
                {
                    "indexed": false,
                    "internalType": "uint256",
                    "name": "cycle",
                    "type": "uint256"
                }
            ],
            "name": "RewardsClaimed",
            "type": "event"
        },
        {
            "anonymous": false,
            "inputs": [
                {
                    "indexed": true,
                    "internalType": "address",
                    "name": "to",
                    "type": "address"
                },
                {
                    "indexed": true,
                    "internalType": "address",
                    "name": "from",
                    "type": "address"
                },
                {
                    "indexed": true,
                    "internalType": "bytes32",
                    "name": "hash",
                    "type": "bytes32"
                },
                {
                    "components": [
                        {
                            "internalType": "string",
                            "name": "content",
                            "type": "string"
                        },
                        {
                            "internalType": "uint256",
                            "name": "timestamp",
                            "type": "uint256"
                        }
                    ],
                    "indexed": false,
                    "internalType": "struct Deb0xCore.Envelope",
                    "name": "body",
                    "type": "tuple"
                },
                {
                    "indexed": false,
                    "internalType": "uint256",
                    "name": "sentId",
                    "type": "uint256"
                }
            ],
            "name": "Sent",
            "type": "event"
        },
        {
            "anonymous": false,
            "inputs": [
                {
                    "indexed": true,
                    "internalType": "address",
                    "name": "userAddress",
                    "type": "address"
                },
                {
                    "indexed": false,
                    "internalType": "uint256",
                    "name": "amount",
                    "type": "uint256"
                },
                {
                    "indexed": false,
                    "internalType": "uint256",
                    "name": "cycle",
                    "type": "uint256"
                }
            ],
            "name": "Staked",
            "type": "event"
        },
        {
            "anonymous": false,
            "inputs": [
                {
                    "indexed": true,
                    "internalType": "address",
                    "name": "userAddress",
                    "type": "address"
                },
                {
                    "indexed": false,
                    "internalType": "uint256",
                    "name": "amount",
                    "type": "uint256"
                },
                {
                    "indexed": false,
                    "internalType": "uint256",
                    "name": "cycle",
                    "type": "uint256"
                }
            ],
            "name": "Unstaked",
            "type": "event"
        },
        {
            "inputs": [],
            "name": "MAIL_FEE",
            "outputs": [
                {
                    "internalType": "uint16",
                    "name": "",
                    "type": "uint16"
                }
            ],
            "stateMutability": "view",
            "type": "function"
        },
        {
            "inputs": [
                {
                    "internalType": "address",
                    "name": "",
                    "type": "address"
                }
            ],
            "name": "addressAccruedFees",
            "outputs": [
                {
                    "internalType": "uint256",
                    "name": "",
                    "type": "uint256"
                }
            ],
            "stateMutability": "view",
            "type": "function"
        },
        {
            "inputs": [
                {
                    "internalType": "address",
                    "name": "",
                    "type": "address"
                }
            ],
            "name": "addressRewards",
            "outputs": [
                {
                    "internalType": "uint256",
                    "name": "",
                    "type": "uint256"
                }
            ],
            "stateMutability": "view",
            "type": "function"
        },
        {
            "inputs": [],
            "name": "calculateCycleReward",
            "outputs": [
                {
                    "internalType": "uint256",
                    "name": "",
                    "type": "uint256"
                }
            ],
            "stateMutability": "view",
            "type": "function"
        },
        {
            "inputs": [],
            "name": "claimFees",
            "outputs": [],
            "stateMutability": "nonpayable",
            "type": "function"
        },
        {
            "inputs": [],
            "name": "claimFrontEndFees",
            "outputs": [],
            "stateMutability": "nonpayable",
            "type": "function"
        },
        {
            "inputs": [],
            "name": "claimFrontEndRewards",
            "outputs": [],
            "stateMutability": "nonpayable",
            "type": "function"
        },
        {
            "inputs": [],
            "name": "claimRewards",
            "outputs": [],
            "stateMutability": "nonpayable",
            "type": "function"
        },
        {
            "inputs": [],
            "name": "contractBalance",
            "outputs": [
                {
                    "internalType": "uint256",
                    "name": "",
                    "type": "uint256"
                }
            ],
            "stateMutability": "view",
            "type": "function"
        },
        {
            "inputs": [],
            "name": "currentStartedCycle",
            "outputs": [
                {
                    "internalType": "uint256",
                    "name": "",
                    "type": "uint256"
                }
            ],
            "stateMutability": "view",
            "type": "function"
        },
        {
            "inputs": [
                {
                    "internalType": "uint256",
                    "name": "",
                    "type": "uint256"
                }
            ],
            "name": "cycleAccruedFees",
            "outputs": [
                {
                    "internalType": "uint256",
                    "name": "",
                    "type": "uint256"
                }
            ],
            "stateMutability": "view",
            "type": "function"
        },
        {
            "inputs": [
                {
                    "internalType": "uint256",
                    "name": "",
                    "type": "uint256"
                }
            ],
            "name": "cycleFeesPerStake",
            "outputs": [
                {
                    "internalType": "uint256",
                    "name": "",
                    "type": "uint256"
                }
            ],
            "stateMutability": "view",
            "type": "function"
        },
        {
            "inputs": [
                {
                    "internalType": "uint256",
                    "name": "",
                    "type": "uint256"
                }
            ],
            "name": "cycleFeesPerStakeSummed",
            "outputs": [
                {
                    "internalType": "uint256",
                    "name": "",
                    "type": "uint256"
                }
            ],
            "stateMutability": "view",
            "type": "function"
        },
        {
            "inputs": [],
            "name": "dbx",
            "outputs": [
                {
                    "internalType": "contract DBX",
                    "name": "",
                    "type": "address"
                }
            ],
            "stateMutability": "view",
            "type": "function"
        },
        {
            "inputs": [],
            "name": "dividend",
            "outputs": [
                {
                    "internalType": "uint256",
                    "name": "",
                    "type": "uint256"
                }
            ],
            "stateMutability": "view",
            "type": "function"
        },
        {
            "inputs": [
                {
                    "internalType": "address",
                    "name": "to",
                    "type": "address"
                }
            ],
            "name": "fetchMessageSenders",
            "outputs": [
                {
                    "internalType": "address[]",
                    "name": "",
                    "type": "address[]"
                }
            ],
            "stateMutability": "view",
            "type": "function"
        },
        {
            "inputs": [
                {
                    "internalType": "address",
                    "name": "to",
                    "type": "address"
                },
                {
                    "internalType": "address",
                    "name": "from",
                    "type": "address"
                }
            ],
            "name": "fetchMessages",
            "outputs": [
                {
                    "components": [
                        {
                            "internalType": "string",
                            "name": "content",
                            "type": "string"
                        },
                        {
                            "internalType": "uint256",
                            "name": "timestamp",
                            "type": "uint256"
                        }
                    ],
                    "internalType": "struct Deb0xCore.Envelope[]",
                    "name": "",
                    "type": "tuple[]"
                }
            ],
            "stateMutability": "view",
            "type": "function"
        },
        {
            "inputs": [
                {
                    "internalType": "address",
                    "name": "sender",
                    "type": "address"
                }
            ],
            "name": "fetchSentMessages",
            "outputs": [
                {
                    "components": [
                        {
                            "internalType": "address[]",
                            "name": "recipients",
                            "type": "address[]"
                        },
                        {
                            "components": [
                                {
                                    "internalType": "string",
                                    "name": "content",
                                    "type": "string"
                                },
                                {
                                    "internalType": "uint256",
                                    "name": "timestamp",
                                    "type": "uint256"
                                }
                            ],
                            "internalType": "struct Deb0xCore.Envelope",
                            "name": "contentData",
                            "type": "tuple"
                        }
                    ],
                    "internalType": "struct Deb0xCore.sentMessage[]",
                    "name": "",
                    "type": "tuple[]"
                }
            ],
            "stateMutability": "view",
            "type": "function"
        },
        {
            "inputs": [],
            "name": "getCurrentCycle",
            "outputs": [
                {
                    "internalType": "uint256",
                    "name": "",
                    "type": "uint256"
                }
            ],
            "stateMutability": "view",
            "type": "function"
        },
        {
            "inputs": [
                {
                    "internalType": "address",
                    "name": "account",
                    "type": "address"
                }
            ],
            "name": "getKey",
            "outputs": [
                {
                    "internalType": "string",
                    "name": "",
                    "type": "string"
                }
            ],
            "stateMutability": "view",
            "type": "function"
        },
        {
            "inputs": [
                {
                    "internalType": "address",
                    "name": "user",
                    "type": "address"
                }
            ],
            "name": "getUnclaimedFees",
            "outputs": [
                {
                    "internalType": "uint256",
                    "name": "",
                    "type": "uint256"
                }
            ],
            "stateMutability": "view",
            "type": "function"
        },
        {
            "inputs": [
                {
                    "internalType": "address",
                    "name": "user",
                    "type": "address"
                }
            ],
            "name": "getUnclaimedRewards",
            "outputs": [
                {
                    "internalType": "uint256",
                    "name": "",
                    "type": "uint256"
                }
            ],
            "stateMutability": "view",
            "type": "function"
        },
        {
            "inputs": [
                {
                    "internalType": "address",
                    "name": "staker",
                    "type": "address"
                }
            ],
            "name": "getUserWithdrawableStake",
            "outputs": [
                {
                    "internalType": "uint256",
                    "name": "",
                    "type": "uint256"
                }
            ],
            "stateMutability": "view",
            "type": "function"
        },
        {
            "inputs": [],
            "name": "pendingStakeWithdrawal",
            "outputs": [
                {
                    "internalType": "uint256",
                    "name": "",
                    "type": "uint256"
                }
            ],
            "stateMutability": "view",
            "type": "function"
        },
        {
            "inputs": [
                {
                    "internalType": "address",
                    "name": "",
                    "type": "address"
                }
            ],
            "name": "publicKeys",
            "outputs": [
                {
                    "internalType": "string",
                    "name": "",
                    "type": "string"
                }
            ],
            "stateMutability": "view",
            "type": "function"
        },
        {
            "inputs": [
                {
                    "internalType": "uint256",
                    "name": "",
                    "type": "uint256"
                }
            ],
            "name": "rewardPerCycle",
            "outputs": [
                {
                    "internalType": "uint256",
                    "name": "",
                    "type": "uint256"
                }
            ],
            "stateMutability": "view",
            "type": "function"
        },
        {
            "inputs": [
                {
                    "internalType": "address[]",
                    "name": "to",
                    "type": "address[]"
                },
                {
                    "internalType": "string[]",
                    "name": "payload",
                    "type": "string[]"
                },
                {
                    "internalType": "address",
                    "name": "feeReceiver",
                    "type": "address"
                },
                {
                    "internalType": "uint256",
                    "name": "msgFee",
                    "type": "uint256"
                },
                {
                    "internalType": "uint256",
                    "name": "nativeTokenFee",
                    "type": "uint256"
                }
            ],
            "name": "send",
            "outputs": [],
            "stateMutability": "payable",
            "type": "function"
        },
        {
            "inputs": [
                {
                    "internalType": "address[]",
                    "name": "recipients",
                    "type": "address[]"
                },
                {
                    "internalType": "string[]",
                    "name": "cids",
                    "type": "string[]"
                }
            ],
            "name": "send",
            "outputs": [],
            "stateMutability": "payable",
            "type": "function"
        },
        {
            "inputs": [
                {
                    "internalType": "string",
                    "name": "publicKey",
                    "type": "string"
                }
            ],
            "name": "setKey",
            "outputs": [],
            "stateMutability": "nonpayable",
            "type": "function"
        },
        {
            "inputs": [
                {
                    "internalType": "uint256",
                    "name": "_amount",
                    "type": "uint256"
                }
            ],
            "name": "stakeDBX",
            "outputs": [],
            "stateMutability": "nonpayable",
            "type": "function"
        },
        {
            "inputs": [
                {
                    "internalType": "uint256",
                    "name": "",
                    "type": "uint256"
                }
            ],
            "name": "summedCycleStakes",
            "outputs": [
                {
                    "internalType": "uint256",
                    "name": "",
                    "type": "uint256"
                }
            ],
            "stateMutability": "view",
            "type": "function"
        },
        {
            "inputs": [
                {
                    "internalType": "uint256",
                    "name": "_amount",
                    "type": "uint256"
                }
            ],
            "name": "unstake",
            "outputs": [],
            "stateMutability": "nonpayable",
            "type": "function"
        },
        {
            "inputs": [
                {
                    "internalType": "address",
                    "name": "",
                    "type": "address"
                }
            ],
            "name": "userWithdrawableStake",
            "outputs": [
                {
                    "internalType": "uint256",
                    "name": "",
                    "type": "uint256"
                }
            ],
            "stateMutability": "view",
            "type": "function"
        }
    ],
    "bytecode": "0x60c06040523480156200001157600080fd5b506040516200002090620000e9565b604051809103906000f0801580156200003d573d6000803e3d6000fd5b50600560006101000a81548173ffffffffffffffffffffffffffffffffffffffff021916908373ffffffffffffffffffffffffffffffffffffffff16021790555042608081815250506201518060a0818152505068056bc75e2d6310000060068190555068056bc75e2d63100000601b60008081526020019081526020016000208190555068056bc75e2d63100000601a600080815260200190815260200160002081905550620000f7565b611a19806200a3aa83390190565b60805160a05161a28d6200011d6000396000616f8401526000616fa5015261a28d6000f3fe6080604052600436106101ee5760003560e01c80638b7afe2e1161010d578063bebc9dfc116100a0578063d294f0931161006f578063d294f09314610755578063d6aef1c61461076c578063ea6c77cd14610797578063f1b371e2146107c2578063f68f0a39146107ed576101ee565b8063bebc9dfc14610661578063bf992dea1461069e578063c0d73320146106db578063c4235ae914610718576101ee565b8063a3d6f9a9116100dc578063a3d6f9a914610593578063adc0f686146105d0578063af42d1061461060d578063be26ed7f14610636576101ee565b80638b7afe2e146104d257806393790f44146104fd57806395e982a91461053a5780639f33626e14610577576101ee565b806358503a95116101855780636f044d37116101545780636f044d37146104255780637d818c23146104415780637e30d2b51461046c5780638b414de014610495576101ee565b806358503a951461034357806368f057691461038057806369a69e29146103ab5780636d9384f9146103e8576101ee565b8063372500ab116101c1578063372500ab146102c15780633e19eec3146102d85780634cd040fc146102ef57806352a398d814610306576101ee565b80630a00dc43146101f35780630ece2154146102305780630ff8cf9b1461026d5780632e17de7814610298575b600080fd5b3480156101ff57600080fd5b5061021a60048036038101906102159190618df5565b61082a565b6040516102279190618e31565b60405180910390f35b34801561023c57600080fd5b5061025760048036038101906102529190618df5565b610842565b6040516102649190618e31565b60405180910390f35b34801561027957600080fd5b5061028261085a565b60405161028f9190618e31565b60405180910390f35b3480156102a457600080fd5b506102bf60048036038101906102ba9190618df5565b610866565b005b3480156102cd57600080fd5b506102d6611b80565b005b3480156102e457600080fd5b506102ed612e9e565b005b3480156102fb57600080fd5b506103046130ee565b005b34801561031257600080fd5b5061032d60048036038101906103289190618eaa565b613422565b60405161033a9190619177565b60405180910390f35b34801561034f57600080fd5b5061036a60048036038101906103659190618eaa565b6135fe565b6040516103779190619208565b60405180910390f35b34801561038c57600080fd5b506103956136cb565b6040516103a29190618e31565b60405180910390f35b3480156103b757600080fd5b506103d260048036038101906103cd9190618eaa565b6136d1565b6040516103df9190618e31565b60405180910390f35b3480156103f457600080fd5b5061040f600480360381019061040a919061922a565b6139d0565b60405161041c919061932c565b60405180910390f35b61043f600480360381019061043a919061962c565b613b48565b005b34801561044d57600080fd5b5061045661508f565b604051610463919061973e565b60405180910390f35b34801561047857600080fd5b50610493600480360381019061048e9190618df5565b6150b5565b005b3480156104a157600080fd5b506104bc60048036038101906104b79190618eaa565b6164a7565b6040516104c99190618e31565b60405180910390f35b3480156104de57600080fd5b506104e76164bf565b6040516104f49190618e31565b60405180910390f35b34801561050957600080fd5b50610524600480360381019061051f9190618eaa565b6164c7565b60405161053191906197a3565b60405180910390f35b34801561054657600080fd5b50610561600480360381019061055c9190618eaa565b616598565b60405161056e9190618e31565b60405180910390f35b610591600480360381019061058c91906197c5565b616874565b005b34801561059f57600080fd5b506105ba60048036038101906105b59190618eaa565b616dfd565b6040516105c791906197a3565b60405180910390f35b3480156105dc57600080fd5b506105f760048036038101906105f29190618df5565b616e9d565b6040516106049190618e31565b60405180910390f35b34801561061957600080fd5b50610634600480360381019061062f919061983d565b616eb5565b005b34801561064257600080fd5b5061064b616f80565b6040516106589190618e31565b60405180910390f35b34801561066d57600080fd5b5061068860048036038101906106839190618df5565b616fde565b6040516106959190618e31565b60405180910390f35b3480156106aa57600080fd5b506106c560048036038101906106c09190618eaa565b616ff6565b6040516106d29190618e31565b60405180910390f35b3480156106e757600080fd5b5061070260048036038101906106fd9190618eaa565b6175a8565b60405161070f9190618e31565b60405180910390f35b34801561072457600080fd5b5061073f600480360381019061073a9190618df5565b6175c0565b60405161074c9190618e31565b60405180910390f35b34801561076157600080fd5b5061076a6175d8565b005b34801561077857600080fd5b506107816187b7565b60405161078e9190618e31565b60405180910390f35b3480156107a357600080fd5b506107ac6187db565b6040516107b991906198a3565b60405180910390f35b3480156107ce57600080fd5b506107d76187e1565b6040516107e49190618e31565b60405180910390f35b3480156107f957600080fd5b50610814600480360381019061080f9190618eaa565b6187e7565b6040516108219190618e31565b60405180910390f35b601e6020528060005260406000206000915090505481565b601d6020528060005260406000206000915090505481565b670de0b6b3a764000081565b6000610870616f80565b905060095481111561088457806009819055505b600c54600954146108ae576001600a5461089e91906198ed565b600b81905550600c54600a819055505b600a546009541180156108e257506000601f60006001600a546108d191906198ed565b815260200190815260200160002054145b1561097c576000601b6000600a54815260200190815260200160002054670de0b6b3a7640000601d6000600a548152602001908152602001600020546109289190619921565b61093291906199aa565b905080601f6000600b5481526020019081526020016000205461095591906198ed565b601f60006001600a5461096891906198ed565b815260200190815260200160002081905550505b33601360008273ffffffffffffffffffffffffffffffffffffffff1673ffffffffffffffffffffffffffffffffffffffff16815260200190815260200160002054600954118015610a0d57506000601160008373ffffffffffffffffffffffffffffffffffffffff1673ffffffffffffffffffffffffffffffffffffffff1681526020019081526020016000205414155b15610d3d57600060126000601360008573ffffffffffffffffffffffffffffffffffffffff1673ffffffffffffffffffffffffffffffffffffffff16815260200190815260200160002054815260200190815260200160002054601a6000601360008673ffffffffffffffffffffffffffffffffffffffff1673ffffffffffffffffffffffffffffffffffffffff16815260200190815260200160002054815260200190815260200160002054601160008573ffffffffffffffffffffffffffffffffffffffff1673ffffffffffffffffffffffffffffffffffffffff16815260200190815260200160002054610b049190619921565b610b0e91906199aa565b905080601760008473ffffffffffffffffffffffffffffffffffffffff1673ffffffffffffffffffffffffffffffffffffffff1681526020019081526020016000206000828254610b5f91906198ed565b925050819055506000600f60008473ffffffffffffffffffffffffffffffffffffffff1673ffffffffffffffffffffffffffffffffffffffff1681526020019081526020016000205414610cf6576000601160008473ffffffffffffffffffffffffffffffffffffffff1673ffffffffffffffffffffffffffffffffffffffff1681526020019081526020016000205482610bfa91906199aa565b90506000612710600f60008673ffffffffffffffffffffffffffffffffffffffff1673ffffffffffffffffffffffffffffffffffffffff1681526020019081526020016000205483610c4c9190619921565b610c5691906199aa565b905080601760008673ffffffffffffffffffffffffffffffffffffffff1673ffffffffffffffffffffffffffffffffffffffff1681526020019081526020016000206000828254610ca791906199db565b925050819055506000600f60008673ffffffffffffffffffffffffffffffffffffffff1673ffffffffffffffffffffffffffffffffffffffff1681526020019081526020016000208190555050505b6000601160008473ffffffffffffffffffffffffffffffffffffffff1673ffffffffffffffffffffffffffffffffffffffff16815260200190815260200160002081905550505b600a54600954118015610d9d57506001600a54610d5a91906198ed565b601c60008373ffffffffffffffffffffffffffffffffffffffff1673ffffffffffffffffffffffffffffffffffffffff1681526020019081526020016000205414155b15610f5e57670de0b6b3a7640000601f6000601c60008573ffffffffffffffffffffffffffffffffffffffff1673ffffffffffffffffffffffffffffffffffffffff16815260200190815260200160002054815260200190815260200160002054601f60006001600a54610e1191906198ed565b815260200190815260200160002054610e2a91906199db565b601760008473ffffffffffffffffffffffffffffffffffffffff1673ffffffffffffffffffffffffffffffffffffffff16815260200190815260200160002054610e749190619921565b610e7e91906199aa565b601860008373ffffffffffffffffffffffffffffffffffffffff1673ffffffffffffffffffffffffffffffffffffffff16815260200190815260200160002054610ec891906198ed565b601860008373ffffffffffffffffffffffffffffffffffffffff1673ffffffffffffffffffffffffffffffffffffffff168152602001908152602001600020819055506001600a54610f1a91906198ed565b601c60008373ffffffffffffffffffffffffffffffffffffffff1673ffffffffffffffffffffffffffffffffffffffff168152602001908152602001600020819055505b6000602260008373ffffffffffffffffffffffffffffffffffffffff1673ffffffffffffffffffffffffffffffffffffffff1681526020019081526020016000205414158015610ffa57506000602260008373ffffffffffffffffffffffffffffffffffffffff1673ffffffffffffffffffffffffffffffffffffffff16815260200190815260200160002054600954610ff891906199db565b115b15611913576000602060008373ffffffffffffffffffffffffffffffffffffffff1673ffffffffffffffffffffffffffffffffffffffff1681526020019081526020016000206000602260008573ffffffffffffffffffffffffffffffffffffffff1673ffffffffffffffffffffffffffffffffffffffff16815260200190815260200160002054815260200190815260200160002054905080601760008473ffffffffffffffffffffffffffffffffffffffff1673ffffffffffffffffffffffffffffffffffffffff16815260200190815260200160002060008282546110e291906198ed565b9250508190555080602160008473ffffffffffffffffffffffffffffffffffffffff1673ffffffffffffffffffffffffffffffffffffffff168152602001908152602001600020600082825461113891906198ed565b92505081905550670de0b6b3a7640000601f6000602260008673ffffffffffffffffffffffffffffffffffffffff1673ffffffffffffffffffffffffffffffffffffffff16815260200190815260200160002054815260200190815260200160002054601f60006001600a546111ae91906198ed565b8152602001908152602001600020546111c791906199db565b602060008573ffffffffffffffffffffffffffffffffffffffff1673ffffffffffffffffffffffffffffffffffffffff1681526020019081526020016000206000602260008773ffffffffffffffffffffffffffffffffffffffff1673ffffffffffffffffffffffffffffffffffffffff168152602001908152602001600020548152602001908152602001600020546112619190619921565b61126b91906199aa565b601860008473ffffffffffffffffffffffffffffffffffffffff1673ffffffffffffffffffffffffffffffffffffffff168152602001908152602001600020546112b591906198ed565b601860008473ffffffffffffffffffffffffffffffffffffffff1673ffffffffffffffffffffffffffffffffffffffff168152602001908152602001600020819055506000602060008473ffffffffffffffffffffffffffffffffffffffff1673ffffffffffffffffffffffffffffffffffffffff1681526020019081526020016000206000602260008673ffffffffffffffffffffffffffffffffffffffff1673ffffffffffffffffffffffffffffffffffffffff168152602001908152602001600020548152602001908152602001600020819055506000602260008473ffffffffffffffffffffffffffffffffffffffff1673ffffffffffffffffffffffffffffffffffffffff168152602001908152602001600020819055506000602360008473ffffffffffffffffffffffffffffffffffffffff1673ffffffffffffffffffffffffffffffffffffffff1681526020019081526020016000205414611911576001602360008473ffffffffffffffffffffffffffffffffffffffff1673ffffffffffffffffffffffffffffffffffffffff1681526020019081526020016000205460095461146891906199db565b1115611847576000602060008473ffffffffffffffffffffffffffffffffffffffff1673ffffffffffffffffffffffffffffffffffffffff1681526020019081526020016000206000602360008673ffffffffffffffffffffffffffffffffffffffff1673ffffffffffffffffffffffffffffffffffffffff16815260200190815260200160002054815260200190815260200160002054905080601760008573ffffffffffffffffffffffffffffffffffffffff1673ffffffffffffffffffffffffffffffffffffffff168152602001908152602001600020600082825461155191906198ed565b9250508190555080602160008573ffffffffffffffffffffffffffffffffffffffff1673ffffffffffffffffffffffffffffffffffffffff16815260200190815260200160002060008282546115a791906198ed565b92505081905550670de0b6b3a7640000601f6000602360008773ffffffffffffffffffffffffffffffffffffffff1673ffffffffffffffffffffffffffffffffffffffff16815260200190815260200160002054815260200190815260200160002054601f60006001600a5461161d91906198ed565b81526020019081526020016000205461163691906199db565b602060008673ffffffffffffffffffffffffffffffffffffffff1673ffffffffffffffffffffffffffffffffffffffff1681526020019081526020016000206000602360008873ffffffffffffffffffffffffffffffffffffffff1673ffffffffffffffffffffffffffffffffffffffff168152602001908152602001600020548152602001908152602001600020546116d09190619921565b6116da91906199aa565b601860008573ffffffffffffffffffffffffffffffffffffffff1673ffffffffffffffffffffffffffffffffffffffff1681526020019081526020016000205461172491906198ed565b601860008573ffffffffffffffffffffffffffffffffffffffff1673ffffffffffffffffffffffffffffffffffffffff168152602001908152602001600020819055506000602060008573ffffffffffffffffffffffffffffffffffffffff1673ffffffffffffffffffffffffffffffffffffffff1681526020019081526020016000206000602360008773ffffffffffffffffffffffffffffffffffffffff1673ffffffffffffffffffffffffffffffffffffffff168152602001908152602001600020548152602001908152602001600020819055506000602360008573ffffffffffffffffffffffffffffffffffffffff1673ffffffffffffffffffffffffffffffffffffffff1681526020019081526020016000208190555050611910565b602360008373ffffffffffffffffffffffffffffffffffffffff1673ffffffffffffffffffffffffffffffffffffffff16815260200190815260200160002054602260008473ffffffffffffffffffffffffffffffffffffffff1673ffffffffffffffffffffffffffffffffffffffff168152602001908152602001600020819055506000602360008473ffffffffffffffffffffffffffffffffffffffff1673ffffffffffffffffffffffffffffffffffffffff168152602001908152602001600020819055505b5b505b60008303611956576040517f08c379a000000000000000000000000000000000000000000000000000000000815260040161194d90619a5b565b60405180910390fd5b602160003373ffffffffffffffffffffffffffffffffffffffff1673ffffffffffffffffffffffffffffffffffffffff168152602001908152602001600020548311156119d8576040517f08c379a00000000000000000000000000000000000000000000000000000000081526004016119cf90619aed565b60405180910390fd5b600c54600a5403611a015782600e60008282546119f591906198ed565b92505081905550611a2e565b82601b600060095481526020019081526020016000206000828254611a2691906199db565b925050819055505b82602160003373ffffffffffffffffffffffffffffffffffffffff1673ffffffffffffffffffffffffffffffffffffffff1681526020019081526020016000206000828254611a7d91906199db565b9250508190555082601760003373ffffffffffffffffffffffffffffffffffffffff1673ffffffffffffffffffffffffffffffffffffffff1681526020019081526020016000206000828254611ad391906199db565b92505081905550600560009054906101000a900473ffffffffffffffffffffffffffffffffffffffff1673ffffffffffffffffffffffffffffffffffffffff1663a9059cbb33856040518363ffffffff1660e01b8152600401611b37929190619b1c565b6020604051808303816000875af1158015611b56573d6000803e3d6000fd5b505050506040513d601f19601f82011682018060405250810190611b7a9190619b7d565b50505050565b6000611b8a616f80565b9050600954811115611b9e57806009819055505b600c5460095414611bc8576001600a54611bb891906198ed565b600b81905550600c54600a819055505b600a54600954118015611bfc57506000601f60006001600a54611beb91906198ed565b815260200190815260200160002054145b15611c96576000601b6000600a54815260200190815260200160002054670de0b6b3a7640000601d6000600a54815260200190815260200160002054611c429190619921565b611c4c91906199aa565b905080601f6000600b54815260200190815260200160002054611c6f91906198ed565b601f60006001600a54611c8291906198ed565b815260200190815260200160002081905550505b33601360008273ffffffffffffffffffffffffffffffffffffffff1673ffffffffffffffffffffffffffffffffffffffff16815260200190815260200160002054600954118015611d2757506000601160008373ffffffffffffffffffffffffffffffffffffffff1673ffffffffffffffffffffffffffffffffffffffff1681526020019081526020016000205414155b1561205757600060126000601360008573ffffffffffffffffffffffffffffffffffffffff1673ffffffffffffffffffffffffffffffffffffffff16815260200190815260200160002054815260200190815260200160002054601a6000601360008673ffffffffffffffffffffffffffffffffffffffff1673ffffffffffffffffffffffffffffffffffffffff16815260200190815260200160002054815260200190815260200160002054601160008573ffffffffffffffffffffffffffffffffffffffff1673ffffffffffffffffffffffffffffffffffffffff16815260200190815260200160002054611e1e9190619921565b611e2891906199aa565b905080601760008473ffffffffffffffffffffffffffffffffffffffff1673ffffffffffffffffffffffffffffffffffffffff1681526020019081526020016000206000828254611e7991906198ed565b925050819055506000600f60008473ffffffffffffffffffffffffffffffffffffffff1673ffffffffffffffffffffffffffffffffffffffff1681526020019081526020016000205414612010576000601160008473ffffffffffffffffffffffffffffffffffffffff1673ffffffffffffffffffffffffffffffffffffffff1681526020019081526020016000205482611f1491906199aa565b90506000612710600f60008673ffffffffffffffffffffffffffffffffffffffff1673ffffffffffffffffffffffffffffffffffffffff1681526020019081526020016000205483611f669190619921565b611f7091906199aa565b905080601760008673ffffffffffffffffffffffffffffffffffffffff1673ffffffffffffffffffffffffffffffffffffffff1681526020019081526020016000206000828254611fc191906199db565b925050819055506000600f60008673ffffffffffffffffffffffffffffffffffffffff1673ffffffffffffffffffffffffffffffffffffffff1681526020019081526020016000208190555050505b6000601160008473ffffffffffffffffffffffffffffffffffffffff1673ffffffffffffffffffffffffffffffffffffffff16815260200190815260200160002081905550505b600a546009541180156120b757506001600a5461207491906198ed565b601c60008373ffffffffffffffffffffffffffffffffffffffff1673ffffffffffffffffffffffffffffffffffffffff1681526020019081526020016000205414155b1561227857670de0b6b3a7640000601f6000601c60008573ffffffffffffffffffffffffffffffffffffffff1673ffffffffffffffffffffffffffffffffffffffff16815260200190815260200160002054815260200190815260200160002054601f60006001600a5461212b91906198ed565b81526020019081526020016000205461214491906199db565b601760008473ffffffffffffffffffffffffffffffffffffffff1673ffffffffffffffffffffffffffffffffffffffff1681526020019081526020016000205461218e9190619921565b61219891906199aa565b601860008373ffffffffffffffffffffffffffffffffffffffff1673ffffffffffffffffffffffffffffffffffffffff168152602001908152602001600020546121e291906198ed565b601860008373ffffffffffffffffffffffffffffffffffffffff1673ffffffffffffffffffffffffffffffffffffffff168152602001908152602001600020819055506001600a5461223491906198ed565b601c60008373ffffffffffffffffffffffffffffffffffffffff1673ffffffffffffffffffffffffffffffffffffffff168152602001908152602001600020819055505b6000602260008373ffffffffffffffffffffffffffffffffffffffff1673ffffffffffffffffffffffffffffffffffffffff168152602001908152602001600020541415801561231457506000602260008373ffffffffffffffffffffffffffffffffffffffff1673ffffffffffffffffffffffffffffffffffffffff1681526020019081526020016000205460095461231291906199db565b115b15612c2d576000602060008373ffffffffffffffffffffffffffffffffffffffff1673ffffffffffffffffffffffffffffffffffffffff1681526020019081526020016000206000602260008573ffffffffffffffffffffffffffffffffffffffff1673ffffffffffffffffffffffffffffffffffffffff16815260200190815260200160002054815260200190815260200160002054905080601760008473ffffffffffffffffffffffffffffffffffffffff1673ffffffffffffffffffffffffffffffffffffffff16815260200190815260200160002060008282546123fc91906198ed565b9250508190555080602160008473ffffffffffffffffffffffffffffffffffffffff1673ffffffffffffffffffffffffffffffffffffffff168152602001908152602001600020600082825461245291906198ed565b92505081905550670de0b6b3a7640000601f6000602260008673ffffffffffffffffffffffffffffffffffffffff1673ffffffffffffffffffffffffffffffffffffffff16815260200190815260200160002054815260200190815260200160002054601f60006001600a546124c891906198ed565b8152602001908152602001600020546124e191906199db565b602060008573ffffffffffffffffffffffffffffffffffffffff1673ffffffffffffffffffffffffffffffffffffffff1681526020019081526020016000206000602260008773ffffffffffffffffffffffffffffffffffffffff1673ffffffffffffffffffffffffffffffffffffffff1681526020019081526020016000205481526020019081526020016000205461257b9190619921565b61258591906199aa565b601860008473ffffffffffffffffffffffffffffffffffffffff1673ffffffffffffffffffffffffffffffffffffffff168152602001908152602001600020546125cf91906198ed565b601860008473ffffffffffffffffffffffffffffffffffffffff1673ffffffffffffffffffffffffffffffffffffffff168152602001908152602001600020819055506000602060008473ffffffffffffffffffffffffffffffffffffffff1673ffffffffffffffffffffffffffffffffffffffff1681526020019081526020016000206000602260008673ffffffffffffffffffffffffffffffffffffffff1673ffffffffffffffffffffffffffffffffffffffff168152602001908152602001600020548152602001908152602001600020819055506000602260008473ffffffffffffffffffffffffffffffffffffffff1673ffffffffffffffffffffffffffffffffffffffff168152602001908152602001600020819055506000602360008473ffffffffffffffffffffffffffffffffffffffff1673ffffffffffffffffffffffffffffffffffffffff1681526020019081526020016000205414612c2b576001602360008473ffffffffffffffffffffffffffffffffffffffff1673ffffffffffffffffffffffffffffffffffffffff1681526020019081526020016000205460095461278291906199db565b1115612b61576000602060008473ffffffffffffffffffffffffffffffffffffffff1673ffffffffffffffffffffffffffffffffffffffff1681526020019081526020016000206000602360008673ffffffffffffffffffffffffffffffffffffffff1673ffffffffffffffffffffffffffffffffffffffff16815260200190815260200160002054815260200190815260200160002054905080601760008573ffffffffffffffffffffffffffffffffffffffff1673ffffffffffffffffffffffffffffffffffffffff168152602001908152602001600020600082825461286b91906198ed565b9250508190555080602160008573ffffffffffffffffffffffffffffffffffffffff1673ffffffffffffffffffffffffffffffffffffffff16815260200190815260200160002060008282546128c191906198ed565b92505081905550670de0b6b3a7640000601f6000602360008773ffffffffffffffffffffffffffffffffffffffff1673ffffffffffffffffffffffffffffffffffffffff16815260200190815260200160002054815260200190815260200160002054601f60006001600a5461293791906198ed565b81526020019081526020016000205461295091906199db565b602060008673ffffffffffffffffffffffffffffffffffffffff1673ffffffffffffffffffffffffffffffffffffffff1681526020019081526020016000206000602360008873ffffffffffffffffffffffffffffffffffffffff1673ffffffffffffffffffffffffffffffffffffffff168152602001908152602001600020548152602001908152602001600020546129ea9190619921565b6129f491906199aa565b601860008573ffffffffffffffffffffffffffffffffffffffff1673ffffffffffffffffffffffffffffffffffffffff16815260200190815260200160002054612a3e91906198ed565b601860008573ffffffffffffffffffffffffffffffffffffffff1673ffffffffffffffffffffffffffffffffffffffff168152602001908152602001600020819055506000602060008573ffffffffffffffffffffffffffffffffffffffff1673ffffffffffffffffffffffffffffffffffffffff1681526020019081526020016000206000602360008773ffffffffffffffffffffffffffffffffffffffff1673ffffffffffffffffffffffffffffffffffffffff168152602001908152602001600020548152602001908152602001600020819055506000602360008573ffffffffffffffffffffffffffffffffffffffff1673ffffffffffffffffffffffffffffffffffffffff1681526020019081526020016000208190555050612c2a565b602360008373ffffffffffffffffffffffffffffffffffffffff1673ffffffffffffffffffffffffffffffffffffffff16815260200190815260200160002054602260008473ffffffffffffffffffffffffffffffffffffffff1673ffffffffffffffffffffffffffffffffffffffff168152602001908152602001600020819055506000602360008473ffffffffffffffffffffffffffffffffffffffff1673ffffffffffffffffffffffffffffffffffffffff168152602001908152602001600020819055505b5b505b6000602160003373ffffffffffffffffffffffffffffffffffffffff1673ffffffffffffffffffffffffffffffffffffffff16815260200190815260200160002054601760003373ffffffffffffffffffffffffffffffffffffffff1673ffffffffffffffffffffffffffffffffffffffff16815260200190815260200160002054612cb991906199db565b905060008111612cfe576040517f08c379a0000000000000000000000000000000000000000000000000000000008152600401612cf590619bf6565b60405180910390fd5b80601760003373ffffffffffffffffffffffffffffffffffffffff1673ffffffffffffffffffffffffffffffffffffffff1681526020019081526020016000206000828254612d4d91906199db565b92505081905550600c54600a5403612d7d5780600e6000828254612d7191906198ed565b92505081905550612db8565b80601b6000600954815260200190815260200160002054612d9e91906199db565b601b60006009548152602001908152602001600020819055505b3373ffffffffffffffffffffffffffffffffffffffff167fdacbdde355ba930696a362ea6738feb9f8bd52dfb3d81947558fd3217e23e32582600954604051612e02929190619c16565b60405180910390a2600560009054906101000a900473ffffffffffffffffffffffffffffffffffffffff1673ffffffffffffffffffffffffffffffffffffffff16639a49090e33836040518363ffffffff1660e01b8152600401612e67929190619b1c565b600060405180830381600087803b158015612e8157600080fd5b505af1158015612e95573d6000803e3d6000fd5b50505050505050565b6000612ea8616f80565b9050600954811115612ebc57806009819055505b600c5460095414612ee6576001600a54612ed691906198ed565b600b81905550600c54600a819055505b600a54600954118015612f1a57506000601f60006001600a54612f0991906198ed565b815260200190815260200160002054145b15612fb4576000601b6000600a54815260200190815260200160002054670de0b6b3a7640000601d6000600a54815260200190815260200160002054612f609190619921565b612f6a91906199aa565b905080601f6000600b54815260200190815260200160002054612f8d91906198ed565b601f60006001600a54612fa091906198ed565b815260200190815260200160002081905550505b612fbd336187ff565b6000601660003373ffffffffffffffffffffffffffffffffffffffff1673ffffffffffffffffffffffffffffffffffffffff16815260200190815260200160002054905060008111613044576040517f08c379a000000000000000000000000000000000000000000000000000000000815260040161303b90619cb1565b60405180910390fd5b6000601660003373ffffffffffffffffffffffffffffffffffffffff1673ffffffffffffffffffffffffffffffffffffffff168152602001908152602001600020819055506130933382618c53565b3373ffffffffffffffffffffffffffffffffffffffff167f6adcbba8d7bedc5f07c03fc8c09c792782ef1f447ee999f000294385dc1d7210826130d4616f80565b6040516130e2929190619c16565b60405180910390a25050565b60006130f8616f80565b905060095481111561310c57806009819055505b600c5460095414613136576001600a5461312691906198ed565b600b81905550600c54600a819055505b600a5460095411801561316a57506000601f60006001600a5461315991906198ed565b815260200190815260200160002054145b15613204576000601b6000600a54815260200190815260200160002054670de0b6b3a7640000601d6000600a548152602001908152602001600020546131b09190619921565b6131ba91906199aa565b905080601f6000600b548152602001908152602001600020546131dd91906198ed565b601f60006001600a546131f091906198ed565b815260200190815260200160002081905550505b61320d336187ff565b6000601960003373ffffffffffffffffffffffffffffffffffffffff1673ffffffffffffffffffffffffffffffffffffffff16815260200190815260200160002054905060008111613294576040517f08c379a000000000000000000000000000000000000000000000000000000000815260040161328b90619bf6565b60405180910390fd5b6000601960003373ffffffffffffffffffffffffffffffffffffffff1673ffffffffffffffffffffffffffffffffffffffff16815260200190815260200160002081905550600c54600a54036133025780600e60008282546132f691906198ed565b9250508190555061333d565b80601b600060095481526020019081526020016000205461332391906199db565b601b60006009548152602001908152602001600020819055505b3373ffffffffffffffffffffffffffffffffffffffff167f6adcbba8d7bedc5f07c03fc8c09c792782ef1f447ee999f000294385dc1d721082600954604051613387929190619c16565b60405180910390a2600560009054906101000a900473ffffffffffffffffffffffffffffffffffffffff1673ffffffffffffffffffffffffffffffffffffffff16639a49090e33836040518363ffffffff1660e01b81526004016133ec929190619b1c565b600060405180830381600087803b15801561340657600080fd5b505af115801561341a573d6000803e3d6000fd5b505050505050565b6060600360008373ffffffffffffffffffffffffffffffffffffffff1673ffffffffffffffffffffffffffffffffffffffff168152602001908152602001600020805480602002602001604051908101604052809291908181526020016000905b828210156135f357838290600052602060002090600302016040518060400160405290816000820180548060200260200160405190810160405280929190818152602001828054801561352b57602002820191906000526020600020905b8160009054906101000a900473ffffffffffffffffffffffffffffffffffffffff1673ffffffffffffffffffffffffffffffffffffffff16815260200190600101908083116134e1575b505050505081526020016001820160405180604001604052908160008201805461355490619d00565b80601f016020809104026020016040519081016040528092919081815260200182805461358090619d00565b80156135cd5780601f106135a2576101008083540402835291602001916135cd565b820191906000526020600020905b8154815290600101906020018083116135b057829003601f168201915b505050505081526020016001820154815250508152505081526020019060010190613483565b505050509050919050565b6060600460008373ffffffffffffffffffffffffffffffffffffffff1673ffffffffffffffffffffffffffffffffffffffff1681526020019081526020016000208054806020026020016040519081016040528092919081815260200182805480156136bf57602002820191906000526020600020905b8160009054906101000a900473ffffffffffffffffffffffffffffffffffffffff1673ffffffffffffffffffffffffffffffffffffffff1681526020019060010190808311613675575b50505050509050919050565b600e5481565b600080601760008473ffffffffffffffffffffffffffffffffffffffff1673ffffffffffffffffffffffffffffffffffffffff1681526020019081526020016000205490506000613720616f80565b9050601360008573ffffffffffffffffffffffffffffffffffffffff1673ffffffffffffffffffffffffffffffffffffffff16815260200190815260200160002054811180156137b057506000601160008673ffffffffffffffffffffffffffffffffffffffff1673ffffffffffffffffffffffffffffffffffffffff1681526020019081526020016000205414155b156139c657600060126000601360008873ffffffffffffffffffffffffffffffffffffffff1673ffffffffffffffffffffffffffffffffffffffff16815260200190815260200160002054815260200190815260200160002054601a6000601360008973ffffffffffffffffffffffffffffffffffffffff1673ffffffffffffffffffffffffffffffffffffffff16815260200190815260200160002054815260200190815260200160002054601160008873ffffffffffffffffffffffffffffffffffffffff1673ffffffffffffffffffffffffffffffffffffffff168152602001908152602001600020546138a79190619921565b6138b191906199aa565b905080836138bf91906198ed565b92506000600f60008773ffffffffffffffffffffffffffffffffffffffff1673ffffffffffffffffffffffffffffffffffffffff16815260200190815260200160002054146139c4576000601160008773ffffffffffffffffffffffffffffffffffffffff1673ffffffffffffffffffffffffffffffffffffffff168152602001908152602001600020548261395591906199aa565b90506000612710600f60008973ffffffffffffffffffffffffffffffffffffffff1673ffffffffffffffffffffffffffffffffffffffff16815260200190815260200160002054836139a79190619921565b6139b191906199aa565b905080856139bf91906199db565b945050505b505b8192505050919050565b6060600260008473ffffffffffffffffffffffffffffffffffffffff1673ffffffffffffffffffffffffffffffffffffffff16815260200190815260200160002060008373ffffffffffffffffffffffffffffffffffffffff1673ffffffffffffffffffffffffffffffffffffffff168152602001908152602001600020805480602002602001604051908101604052809291908181526020016000905b82821015613b3c5783829060005260206000209060020201604051806040016040529081600082018054613aa190619d00565b80601f0160208091040260200160405190810160405280929190818152602001828054613acd90619d00565b8015613b1a5780601f10613aef57610100808354040283529160200191613b1a565b820191906000526020600020905b815481529060010190602001808311613afd57829003601f168201915b5050505050815260200160018201548152505081526020019060010190613a6e565b50505050905092915050565b8060005a90506000613b58616f80565b9050600954811115613b6c57806009819055505b600c5460095414613b96576001600a54613b8691906198ed565b600b81905550600c54600a819055505b600a54600954118015613bca57506000601f60006001600a54613bb991906198ed565b815260200190815260200160002054145b15613c64576000601b6000600a54815260200190815260200160002054670de0b6b3a7640000601d6000600a54815260200190815260200160002054613c109190619921565b613c1a91906199aa565b905080601f6000600b54815260200190815260200160002054613c3d91906198ed565b601f60006001600a54613c5091906198ed565b815260200190815260200160002081905550505b6000601a600060095481526020019081526020016000205403613dea576006546007819055506000613c946187b7565b90508060068190555080601a600060095481526020019081526020016000208190555080600d81905550600954600c81905550600654601b6000600a54815260200190815260200160002054613cea91906198ed565b601b6000600c5481526020019081526020016000206000828254613d0e91906198ed565b92505081905550600060085414613d5657600854601b6000600c5481526020019081526020016000206000828254613d4691906198ed565b9250508190555060006008819055505b6000600e5414613d9757600e54601b6000600c5481526020019081526020016000206000828254613d8791906199db565b925050819055506000600e819055505b6009547f0666a61c1092f5b86c2cfe6ea1ad0d9a36032c4fb92d285b4e43f662d48f19b482601b6000600c54815260200190815260200160002054604051613de0929190619c16565b60405180910390a2505b33601360008273ffffffffffffffffffffffffffffffffffffffff1673ffffffffffffffffffffffffffffffffffffffff16815260200190815260200160002054600954118015613e7b57506000601160008373ffffffffffffffffffffffffffffffffffffffff1673ffffffffffffffffffffffffffffffffffffffff1681526020019081526020016000205414155b156141ab57600060126000601360008573ffffffffffffffffffffffffffffffffffffffff1673ffffffffffffffffffffffffffffffffffffffff16815260200190815260200160002054815260200190815260200160002054601a6000601360008673ffffffffffffffffffffffffffffffffffffffff1673ffffffffffffffffffffffffffffffffffffffff16815260200190815260200160002054815260200190815260200160002054601160008573ffffffffffffffffffffffffffffffffffffffff1673ffffffffffffffffffffffffffffffffffffffff16815260200190815260200160002054613f729190619921565b613f7c91906199aa565b905080601760008473ffffffffffffffffffffffffffffffffffffffff1673ffffffffffffffffffffffffffffffffffffffff1681526020019081526020016000206000828254613fcd91906198ed565b925050819055506000600f60008473ffffffffffffffffffffffffffffffffffffffff1673ffffffffffffffffffffffffffffffffffffffff1681526020019081526020016000205414614164576000601160008473ffffffffffffffffffffffffffffffffffffffff1673ffffffffffffffffffffffffffffffffffffffff168152602001908152602001600020548261406891906199aa565b90506000612710600f60008673ffffffffffffffffffffffffffffffffffffffff1673ffffffffffffffffffffffffffffffffffffffff16815260200190815260200160002054836140ba9190619921565b6140c491906199aa565b905080601760008673ffffffffffffffffffffffffffffffffffffffff1673ffffffffffffffffffffffffffffffffffffffff168152602001908152602001600020600082825461411591906199db565b925050819055506000600f60008673ffffffffffffffffffffffffffffffffffffffff1673ffffffffffffffffffffffffffffffffffffffff1681526020019081526020016000208190555050505b6000601160008473ffffffffffffffffffffffffffffffffffffffff1673ffffffffffffffffffffffffffffffffffffffff16815260200190815260200160002081905550505b600a5460095411801561420b57506001600a546141c891906198ed565b601c60008373ffffffffffffffffffffffffffffffffffffffff1673ffffffffffffffffffffffffffffffffffffffff1681526020019081526020016000205414155b156143cc57670de0b6b3a7640000601f6000601c60008573ffffffffffffffffffffffffffffffffffffffff1673ffffffffffffffffffffffffffffffffffffffff16815260200190815260200160002054815260200190815260200160002054601f60006001600a5461427f91906198ed565b81526020019081526020016000205461429891906199db565b601760008473ffffffffffffffffffffffffffffffffffffffff1673ffffffffffffffffffffffffffffffffffffffff168152602001908152602001600020546142e29190619921565b6142ec91906199aa565b601860008373ffffffffffffffffffffffffffffffffffffffff1673ffffffffffffffffffffffffffffffffffffffff1681526020019081526020016000205461433691906198ed565b601860008373ffffffffffffffffffffffffffffffffffffffff1673ffffffffffffffffffffffffffffffffffffffff168152602001908152602001600020819055506001600a5461438891906198ed565b601c60008373ffffffffffffffffffffffffffffffffffffffff1673ffffffffffffffffffffffffffffffffffffffff168152602001908152602001600020819055505b6000602260008373ffffffffffffffffffffffffffffffffffffffff1673ffffffffffffffffffffffffffffffffffffffff168152602001908152602001600020541415801561446857506000602260008373ffffffffffffffffffffffffffffffffffffffff1673ffffffffffffffffffffffffffffffffffffffff1681526020019081526020016000205460095461446691906199db565b115b15614d81576000602060008373ffffffffffffffffffffffffffffffffffffffff1673ffffffffffffffffffffffffffffffffffffffff1681526020019081526020016000206000602260008573ffffffffffffffffffffffffffffffffffffffff1673ffffffffffffffffffffffffffffffffffffffff16815260200190815260200160002054815260200190815260200160002054905080601760008473ffffffffffffffffffffffffffffffffffffffff1673ffffffffffffffffffffffffffffffffffffffff168152602001908152602001600020600082825461455091906198ed565b9250508190555080602160008473ffffffffffffffffffffffffffffffffffffffff1673ffffffffffffffffffffffffffffffffffffffff16815260200190815260200160002060008282546145a691906198ed565b92505081905550670de0b6b3a7640000601f6000602260008673ffffffffffffffffffffffffffffffffffffffff1673ffffffffffffffffffffffffffffffffffffffff16815260200190815260200160002054815260200190815260200160002054601f60006001600a5461461c91906198ed565b81526020019081526020016000205461463591906199db565b602060008573ffffffffffffffffffffffffffffffffffffffff1673ffffffffffffffffffffffffffffffffffffffff1681526020019081526020016000206000602260008773ffffffffffffffffffffffffffffffffffffffff1673ffffffffffffffffffffffffffffffffffffffff168152602001908152602001600020548152602001908152602001600020546146cf9190619921565b6146d991906199aa565b601860008473ffffffffffffffffffffffffffffffffffffffff1673ffffffffffffffffffffffffffffffffffffffff1681526020019081526020016000205461472391906198ed565b601860008473ffffffffffffffffffffffffffffffffffffffff1673ffffffffffffffffffffffffffffffffffffffff168152602001908152602001600020819055506000602060008473ffffffffffffffffffffffffffffffffffffffff1673ffffffffffffffffffffffffffffffffffffffff1681526020019081526020016000206000602260008673ffffffffffffffffffffffffffffffffffffffff1673ffffffffffffffffffffffffffffffffffffffff168152602001908152602001600020548152602001908152602001600020819055506000602260008473ffffffffffffffffffffffffffffffffffffffff1673ffffffffffffffffffffffffffffffffffffffff168152602001908152602001600020819055506000602360008473ffffffffffffffffffffffffffffffffffffffff1673ffffffffffffffffffffffffffffffffffffffff1681526020019081526020016000205414614d7f576001602360008473ffffffffffffffffffffffffffffffffffffffff1673ffffffffffffffffffffffffffffffffffffffff168152602001908152602001600020546009546148d691906199db565b1115614cb5576000602060008473ffffffffffffffffffffffffffffffffffffffff1673ffffffffffffffffffffffffffffffffffffffff1681526020019081526020016000206000602360008673ffffffffffffffffffffffffffffffffffffffff1673ffffffffffffffffffffffffffffffffffffffff16815260200190815260200160002054815260200190815260200160002054905080601760008573ffffffffffffffffffffffffffffffffffffffff1673ffffffffffffffffffffffffffffffffffffffff16815260200190815260200160002060008282546149bf91906198ed565b9250508190555080602160008573ffffffffffffffffffffffffffffffffffffffff1673ffffffffffffffffffffffffffffffffffffffff1681526020019081526020016000206000828254614a1591906198ed565b92505081905550670de0b6b3a7640000601f6000602360008773ffffffffffffffffffffffffffffffffffffffff1673ffffffffffffffffffffffffffffffffffffffff16815260200190815260200160002054815260200190815260200160002054601f60006001600a54614a8b91906198ed565b815260200190815260200160002054614aa491906199db565b602060008673ffffffffffffffffffffffffffffffffffffffff1673ffffffffffffffffffffffffffffffffffffffff1681526020019081526020016000206000602360008873ffffffffffffffffffffffffffffffffffffffff1673ffffffffffffffffffffffffffffffffffffffff16815260200190815260200160002054815260200190815260200160002054614b3e9190619921565b614b4891906199aa565b601860008573ffffffffffffffffffffffffffffffffffffffff1673ffffffffffffffffffffffffffffffffffffffff16815260200190815260200160002054614b9291906198ed565b601860008573ffffffffffffffffffffffffffffffffffffffff1673ffffffffffffffffffffffffffffffffffffffff168152602001908152602001600020819055506000602060008573ffffffffffffffffffffffffffffffffffffffff1673ffffffffffffffffffffffffffffffffffffffff1681526020019081526020016000206000602360008773ffffffffffffffffffffffffffffffffffffffff1673ffffffffffffffffffffffffffffffffffffffff168152602001908152602001600020548152602001908152602001600020819055506000602360008573ffffffffffffffffffffffffffffffffffffffff1673ffffffffffffffffffffffffffffffffffffffff1681526020019081526020016000208190555050614d7e565b602360008373ffffffffffffffffffffffffffffffffffffffff1673ffffffffffffffffffffffffffffffffffffffff16815260200190815260200160002054602260008473ffffffffffffffffffffffffffffffffffffffff1673ffffffffffffffffffffffffffffffffffffffff168152602001908152602001600020819055506000602360008473ffffffffffffffffffffffffffffffffffffffff1673ffffffffffffffffffffffffffffffffffffffff168152602001908152602001600020819055505b5b505b614d8a876187ff565b601160003373ffffffffffffffffffffffffffffffffffffffff1673ffffffffffffffffffffffffffffffffffffffff1681526020019081526020016000206000815480929190614dda90619d31565b91905055506012600060095481526020019081526020016000206000815480929190614e0590619d31565b9190505550600954601360003373ffffffffffffffffffffffffffffffffffffffff1673ffffffffffffffffffffffffffffffffffffffff16815260200190815260200160002081905550600073ffffffffffffffffffffffffffffffffffffffff168773ffffffffffffffffffffffffffffffffffffffff1614614f995760008614614f395785600f60003373ffffffffffffffffffffffffffffffffffffffff1673ffffffffffffffffffffffffffffffffffffffff1681526020019081526020016000206000828254614edb91906198ed565b9250508190555085601060008973ffffffffffffffffffffffffffffffffffffffff1673ffffffffffffffffffffffffffffffffffffffff1681526020019081526020016000206000828254614f3191906198ed565b925050819055505b60008514614f985784601660008973ffffffffffffffffffffffffffffffffffffffff1673ffffffffffffffffffffffffffffffffffffffff1681526020019081526020016000206000828254614f9091906198ed565b925050819055505b5b614fa38989616874565b505060006127106103e861ffff163a6179845a86614fc191906199db565b614fcb91906198ed565b614fd59190619921565b614fdf9190619921565b614fe991906199aa565b9050808334614ff891906199db565b1015615039576040517f08c379a000000000000000000000000000000000000000000000000000000000815260040161503090619deb565b60405180910390fd5b6150593384833461504a91906199db565b61505491906199db565b618c53565b80601d60006009548152602001908152602001600020600082825461507e91906198ed565b925050819055505050505050505050565b600560009054906101000a900473ffffffffffffffffffffffffffffffffffffffff1681565b60006150bf616f80565b90506009548111156150d357806009819055505b600c54600954146150fd576001600a546150ed91906198ed565b600b81905550600c54600a819055505b600a5460095411801561513157506000601f60006001600a5461512091906198ed565b815260200190815260200160002054145b156151cb576000601b6000600a54815260200190815260200160002054670de0b6b3a7640000601d6000600a548152602001908152602001600020546151779190619921565b61518191906199aa565b905080601f6000600b548152602001908152602001600020546151a491906198ed565b601f60006001600a546151b791906198ed565b815260200190815260200160002081905550505b33601360008273ffffffffffffffffffffffffffffffffffffffff1673ffffffffffffffffffffffffffffffffffffffff1681526020019081526020016000205460095411801561525c57506000601160008373ffffffffffffffffffffffffffffffffffffffff1673ffffffffffffffffffffffffffffffffffffffff1681526020019081526020016000205414155b1561558c57600060126000601360008573ffffffffffffffffffffffffffffffffffffffff1673ffffffffffffffffffffffffffffffffffffffff16815260200190815260200160002054815260200190815260200160002054601a6000601360008673ffffffffffffffffffffffffffffffffffffffff1673ffffffffffffffffffffffffffffffffffffffff16815260200190815260200160002054815260200190815260200160002054601160008573ffffffffffffffffffffffffffffffffffffffff1673ffffffffffffffffffffffffffffffffffffffff168152602001908152602001600020546153539190619921565b61535d91906199aa565b905080601760008473ffffffffffffffffffffffffffffffffffffffff1673ffffffffffffffffffffffffffffffffffffffff16815260200190815260200160002060008282546153ae91906198ed565b925050819055506000600f60008473ffffffffffffffffffffffffffffffffffffffff1673ffffffffffffffffffffffffffffffffffffffff1681526020019081526020016000205414615545576000601160008473ffffffffffffffffffffffffffffffffffffffff1673ffffffffffffffffffffffffffffffffffffffff168152602001908152602001600020548261544991906199aa565b90506000612710600f60008673ffffffffffffffffffffffffffffffffffffffff1673ffffffffffffffffffffffffffffffffffffffff168152602001908152602001600020548361549b9190619921565b6154a591906199aa565b905080601760008673ffffffffffffffffffffffffffffffffffffffff1673ffffffffffffffffffffffffffffffffffffffff16815260200190815260200160002060008282546154f691906199db565b925050819055506000600f60008673ffffffffffffffffffffffffffffffffffffffff1673ffffffffffffffffffffffffffffffffffffffff1681526020019081526020016000208190555050505b6000601160008473ffffffffffffffffffffffffffffffffffffffff1673ffffffffffffffffffffffffffffffffffffffff16815260200190815260200160002081905550505b600a546009541180156155ec57506001600a546155a991906198ed565b601c60008373ffffffffffffffffffffffffffffffffffffffff1673ffffffffffffffffffffffffffffffffffffffff1681526020019081526020016000205414155b156157ad57670de0b6b3a7640000601f6000601c60008573ffffffffffffffffffffffffffffffffffffffff1673ffffffffffffffffffffffffffffffffffffffff16815260200190815260200160002054815260200190815260200160002054601f60006001600a5461566091906198ed565b81526020019081526020016000205461567991906199db565b601760008473ffffffffffffffffffffffffffffffffffffffff1673ffffffffffffffffffffffffffffffffffffffff168152602001908152602001600020546156c39190619921565b6156cd91906199aa565b601860008373ffffffffffffffffffffffffffffffffffffffff1673ffffffffffffffffffffffffffffffffffffffff1681526020019081526020016000205461571791906198ed565b601860008373ffffffffffffffffffffffffffffffffffffffff1673ffffffffffffffffffffffffffffffffffffffff168152602001908152602001600020819055506001600a5461576991906198ed565b601c60008373ffffffffffffffffffffffffffffffffffffffff1673ffffffffffffffffffffffffffffffffffffffff168152602001908152602001600020819055505b6000602260008373ffffffffffffffffffffffffffffffffffffffff1673ffffffffffffffffffffffffffffffffffffffff168152602001908152602001600020541415801561584957506000602260008373ffffffffffffffffffffffffffffffffffffffff1673ffffffffffffffffffffffffffffffffffffffff1681526020019081526020016000205460095461584791906199db565b115b15616162576000602060008373ffffffffffffffffffffffffffffffffffffffff1673ffffffffffffffffffffffffffffffffffffffff1681526020019081526020016000206000602260008573ffffffffffffffffffffffffffffffffffffffff1673ffffffffffffffffffffffffffffffffffffffff16815260200190815260200160002054815260200190815260200160002054905080601760008473ffffffffffffffffffffffffffffffffffffffff1673ffffffffffffffffffffffffffffffffffffffff168152602001908152602001600020600082825461593191906198ed565b9250508190555080602160008473ffffffffffffffffffffffffffffffffffffffff1673ffffffffffffffffffffffffffffffffffffffff168152602001908152602001600020600082825461598791906198ed565b92505081905550670de0b6b3a7640000601f6000602260008673ffffffffffffffffffffffffffffffffffffffff1673ffffffffffffffffffffffffffffffffffffffff16815260200190815260200160002054815260200190815260200160002054601f60006001600a546159fd91906198ed565b815260200190815260200160002054615a1691906199db565b602060008573ffffffffffffffffffffffffffffffffffffffff1673ffffffffffffffffffffffffffffffffffffffff1681526020019081526020016000206000602260008773ffffffffffffffffffffffffffffffffffffffff1673ffffffffffffffffffffffffffffffffffffffff16815260200190815260200160002054815260200190815260200160002054615ab09190619921565b615aba91906199aa565b601860008473ffffffffffffffffffffffffffffffffffffffff1673ffffffffffffffffffffffffffffffffffffffff16815260200190815260200160002054615b0491906198ed565b601860008473ffffffffffffffffffffffffffffffffffffffff1673ffffffffffffffffffffffffffffffffffffffff168152602001908152602001600020819055506000602060008473ffffffffffffffffffffffffffffffffffffffff1673ffffffffffffffffffffffffffffffffffffffff1681526020019081526020016000206000602260008673ffffffffffffffffffffffffffffffffffffffff1673ffffffffffffffffffffffffffffffffffffffff168152602001908152602001600020548152602001908152602001600020819055506000602260008473ffffffffffffffffffffffffffffffffffffffff1673ffffffffffffffffffffffffffffffffffffffff168152602001908152602001600020819055506000602360008473ffffffffffffffffffffffffffffffffffffffff1673ffffffffffffffffffffffffffffffffffffffff1681526020019081526020016000205414616160576001602360008473ffffffffffffffffffffffffffffffffffffffff1673ffffffffffffffffffffffffffffffffffffffff16815260200190815260200160002054600954615cb791906199db565b1115616096576000602060008473ffffffffffffffffffffffffffffffffffffffff1673ffffffffffffffffffffffffffffffffffffffff1681526020019081526020016000206000602360008673ffffffffffffffffffffffffffffffffffffffff1673ffffffffffffffffffffffffffffffffffffffff16815260200190815260200160002054815260200190815260200160002054905080601760008573ffffffffffffffffffffffffffffffffffffffff1673ffffffffffffffffffffffffffffffffffffffff1681526020019081526020016000206000828254615da091906198ed565b9250508190555080602160008573ffffffffffffffffffffffffffffffffffffffff1673ffffffffffffffffffffffffffffffffffffffff1681526020019081526020016000206000828254615df691906198ed565b92505081905550670de0b6b3a7640000601f6000602360008773ffffffffffffffffffffffffffffffffffffffff1673ffffffffffffffffffffffffffffffffffffffff16815260200190815260200160002054815260200190815260200160002054601f60006001600a54615e6c91906198ed565b815260200190815260200160002054615e8591906199db565b602060008673ffffffffffffffffffffffffffffffffffffffff1673ffffffffffffffffffffffffffffffffffffffff1681526020019081526020016000206000602360008873ffffffffffffffffffffffffffffffffffffffff1673ffffffffffffffffffffffffffffffffffffffff16815260200190815260200160002054815260200190815260200160002054615f1f9190619921565b615f2991906199aa565b601860008573ffffffffffffffffffffffffffffffffffffffff1673ffffffffffffffffffffffffffffffffffffffff16815260200190815260200160002054615f7391906198ed565b601860008573ffffffffffffffffffffffffffffffffffffffff1673ffffffffffffffffffffffffffffffffffffffff168152602001908152602001600020819055506000602060008573ffffffffffffffffffffffffffffffffffffffff1673ffffffffffffffffffffffffffffffffffffffff1681526020019081526020016000206000602360008773ffffffffffffffffffffffffffffffffffffffff1673ffffffffffffffffffffffffffffffffffffffff168152602001908152602001600020548152602001908152602001600020819055506000602360008573ffffffffffffffffffffffffffffffffffffffff1673ffffffffffffffffffffffffffffffffffffffff168152602001908152602001600020819055505061615f565b602360008373ffffffffffffffffffffffffffffffffffffffff1673ffffffffffffffffffffffffffffffffffffffff16815260200190815260200160002054602260008473ffffffffffffffffffffffffffffffffffffffff1673ffffffffffffffffffffffffffffffffffffffff168152602001908152602001600020819055506000602360008473ffffffffffffffffffffffffffffffffffffffff1673ffffffffffffffffffffffffffffffffffffffff168152602001908152602001600020819055505b5b505b600083036161a5576040517f08c379a000000000000000000000000000000000000000000000000000000000815260040161619c90619a5b565b60405180910390fd5b82600860008282546161b791906198ed565b92505081905550600060016009546161cf91906198ed565b9050600c54600a54036161e25760095490505b602260003373ffffffffffffffffffffffffffffffffffffffff1673ffffffffffffffffffffffffffffffffffffffff16815260200190815260200160002054600954141580156162745750602360003373ffffffffffffffffffffffffffffffffffffffff1673ffffffffffffffffffffffffffffffffffffffff1681526020019081526020016000205460095414155b15616397576000602260003373ffffffffffffffffffffffffffffffffffffffff1673ffffffffffffffffffffffffffffffffffffffff16815260200190815260200160002054036163095780602260003373ffffffffffffffffffffffffffffffffffffffff1673ffffffffffffffffffffffffffffffffffffffff16815260200190815260200160002081905550616396565b6000602360003373ffffffffffffffffffffffffffffffffffffffff1673ffffffffffffffffffffffffffffffffffffffff16815260200190815260200160002054036163955780602360003373ffffffffffffffffffffffffffffffffffffffff1673ffffffffffffffffffffffffffffffffffffffff168152602001908152602001600020819055505b5b5b83602060003373ffffffffffffffffffffffffffffffffffffffff1673ffffffffffffffffffffffffffffffffffffffff168152602001908152602001600020600083815260200190815260200160002060008282546163f791906198ed565b92505081905550600560009054906101000a900473ffffffffffffffffffffffffffffffffffffffff1673ffffffffffffffffffffffffffffffffffffffff166323b872dd3330876040518463ffffffff1660e01b815260040161645d93929190619e0b565b6020604051808303816000875af115801561647c573d6000803e3d6000fd5b505050506040513d601f19601f820116820180604052508101906164a09190619b7d565b5050505050565b60216020528060005260406000206000915090505481565b600047905090565b6060600160008373ffffffffffffffffffffffffffffffffffffffff1673ffffffffffffffffffffffffffffffffffffffff168152602001908152602001600020805461651390619d00565b80601f016020809104026020016040519081016040528092919081815260200182805461653f90619d00565b801561658c5780601f106165615761010080835404028352916020019161658c565b820191906000526020600020905b81548152906001019060200180831161656f57829003601f168201915b50505050509050919050565b6000806165a3616f80565b9050600080602260008673ffffffffffffffffffffffffffffffffffffffff1673ffffffffffffffffffffffffffffffffffffffff168152602001908152602001600020541415801561664057506001602260008673ffffffffffffffffffffffffffffffffffffffff1673ffffffffffffffffffffffffffffffffffffffff168152602001908152602001600020548361663e91906199db565b115b1561682057602060008573ffffffffffffffffffffffffffffffffffffffff1673ffffffffffffffffffffffffffffffffffffffff1681526020019081526020016000206000602260008773ffffffffffffffffffffffffffffffffffffffff1673ffffffffffffffffffffffffffffffffffffffff16815260200190815260200160002054815260200190815260200160002054816166e091906198ed565b90506000602360008673ffffffffffffffffffffffffffffffffffffffff1673ffffffffffffffffffffffffffffffffffffffff168152602001908152602001600020541415801561677c57506001602360008673ffffffffffffffffffffffffffffffffffffffff1673ffffffffffffffffffffffffffffffffffffffff168152602001908152602001600020548361677a91906199db565b115b1561681f57602060008573ffffffffffffffffffffffffffffffffffffffff1673ffffffffffffffffffffffffffffffffffffffff1681526020019081526020016000206000602360008773ffffffffffffffffffffffffffffffffffffffff1673ffffffffffffffffffffffffffffffffffffffff168152602001908152602001600020548152602001908152602001600020548161681c91906198ed565b90505b5b80602160008673ffffffffffffffffffffffffffffffffffffffff1673ffffffffffffffffffffffffffffffffffffffff1681526020019081526020016000205461686b91906198ed565b92505050919050565b60005b6001835161688591906199db565b811015616bdb576000600260008584815181106168a5576168a4619e42565b5b602002602001015173ffffffffffffffffffffffffffffffffffffffff1673ffffffffffffffffffffffffffffffffffffffff16815260200190815260200160002060003373ffffffffffffffffffffffffffffffffffffffff1673ffffffffffffffffffffffffffffffffffffffff16815260200190815260200160002080549050036169e8576004600084838151811061694457616943619e42565b5b602002602001015173ffffffffffffffffffffffffffffffffffffffff1673ffffffffffffffffffffffffffffffffffffffff168152602001908152602001600020339080600181540180825580915050600190039060005260206000200160009091909190916101000a81548173ffffffffffffffffffffffffffffffffffffffff021916908373ffffffffffffffffffffffffffffffffffffffff1602179055505b60006040518060400160405280848481518110616a0857616a07619e42565b5b6020026020010151815260200142815250905060026000858481518110616a3257616a31619e42565b5b602002602001015173ffffffffffffffffffffffffffffffffffffffff1673ffffffffffffffffffffffffffffffffffffffff16815260200190815260200160002060003373ffffffffffffffffffffffffffffffffffffffff1673ffffffffffffffffffffffffffffffffffffffff1681526020019081526020016000208190806001815401808255809150506001900390600052602060002090600202016000909190919091506000820151816000019081616af0919061a013565b506020820151816001015550506000838381518110616b1257616b11619e42565b5b6020026020010151604051602001616b2a919061a121565b604051602081830303815290604052805190602001209050803373ffffffffffffffffffffffffffffffffffffffff16868581518110616b6d57616b6c619e42565b5b602002602001015173ffffffffffffffffffffffffffffffffffffffff167fd255a04e9537ee418651bfdd3be3efed3b9f677f36ba9e488e0d27340c97961f85600054604051616bbe92919061a175565b60405180910390a450508080616bd390619d31565b915050616877565b50600060405180604001604052808360018651616bf891906199db565b81518110616c0957616c08619e42565b5b6020026020010151815260200142815250905060008260018551616c2d91906199db565b81518110616c3e57616c3d619e42565b5b6020026020010151604051602001616c56919061a121565b604051602081830303815290604052805190602001209050803373ffffffffffffffffffffffffffffffffffffffff163373ffffffffffffffffffffffffffffffffffffffff167fd255a04e9537ee418651bfdd3be3efed3b9f677f36ba9e488e0d27340c97961f85600054604051616cd092919061a175565b60405180910390a4600060405180604001604052808560018851616cf491906199db565b81518110616d0557616d04619e42565b5b60200260200101518152602001428152509050600360003373ffffffffffffffffffffffffffffffffffffffff1673ffffffffffffffffffffffffffffffffffffffff16815260200190815260200160002060405180604001604052808781526020018381525090806001815401808255809150506001900390600052602060002090600302016000909190919091506000820151816000019080519060200190616db1929190618d04565b506020820151816001016000820151816000019081616dd0919061a013565b506020820151816001015550505050600080815480929190616df190619d31565b91905055505050505050565b60016020528060005260406000206000915090508054616e1c90619d00565b80601f0160208091040260200160405190810160405280929190818152602001828054616e4890619d00565b8015616e955780601f10616e6a57610100808354040283529160200191616e95565b820191906000526020600020905b815481529060010190602001808311616e7857829003601f168201915b505050505081565b601a6020528060005260406000206000915090505481565b80600160003373ffffffffffffffffffffffffffffffffffffffff1673ffffffffffffffffffffffffffffffffffffffff1681526020019081526020016000209081616f01919061a013565b50600081604051602001616f15919061a121565b604051602081830303815290604052805190602001209050803373ffffffffffffffffffffffffffffffffffffffff167f1db169902a3b228ab764219bfc023384698a05b8a3d1bd2e046867a1dedf78a984604051616f7491906197a3565b60405180910390a35050565b60007f00000000000000000000000000000000000000000000000000000000000000007f000000000000000000000000000000000000000000000000000000000000000042616fcf91906199db565b616fd991906199aa565b905090565b601f6020528060005260406000206000915090505481565b600080617001616f80565b90506000601860008573ffffffffffffffffffffffffffffffffffffffff1673ffffffffffffffffffffffffffffffffffffffff168152602001908152602001600020549050600080600b5490506000600a549050600c548514617076576001600a5461706e91906198ed565b9150600c5490505b80851180156170a457506000601f600060018461709391906198ed565b815260200190815260200160002054145b1561711b576000601b600083815260200190815260200160002054670de0b6b3a7640000601d6000858152602001908152602001600020546170e69190619921565b6170f091906199aa565b905080601f6000600b5481526020019081526020016000205461711391906198ed565b935050617134565b601f6000600b5481526020019081526020016000205492505b600061713f886136d1565b9050818611801561719b575060018261715891906198ed565b601c60008a73ffffffffffffffffffffffffffffffffffffffff1673ffffffffffffffffffffffffffffffffffffffff1681526020019081526020016000205414155b1561722a57670de0b6b3a7640000601f6000601c60008c73ffffffffffffffffffffffffffffffffffffffff1673ffffffffffffffffffffffffffffffffffffffff168152602001908152602001600020548152602001908152602001600020548561720791906199db565b826172129190619921565b61721c91906199aa565b8561722791906198ed565b94505b6000602260008a73ffffffffffffffffffffffffffffffffffffffff1673ffffffffffffffffffffffffffffffffffffffff16815260200190815260200160002054141580156172c457506001602260008a73ffffffffffffffffffffffffffffffffffffffff1673ffffffffffffffffffffffffffffffffffffffff16815260200190815260200160002054876172c291906199db565b115b1561759a57670de0b6b3a7640000601f6000602260008c73ffffffffffffffffffffffffffffffffffffffff1673ffffffffffffffffffffffffffffffffffffffff168152602001908152602001600020548152602001908152602001600020548561733091906199db565b602060008b73ffffffffffffffffffffffffffffffffffffffff1673ffffffffffffffffffffffffffffffffffffffff1681526020019081526020016000206000602260008d73ffffffffffffffffffffffffffffffffffffffff1673ffffffffffffffffffffffffffffffffffffffff168152602001908152602001600020548152602001908152602001600020546173ca9190619921565b6173d491906199aa565b856173df91906198ed565b94506000602360008a73ffffffffffffffffffffffffffffffffffffffff1673ffffffffffffffffffffffffffffffffffffffff168152602001908152602001600020541415801561747b57506001602360008a73ffffffffffffffffffffffffffffffffffffffff1673ffffffffffffffffffffffffffffffffffffffff168152602001908152602001600020548761747991906199db565b115b1561759957670de0b6b3a7640000601f6000602360008c73ffffffffffffffffffffffffffffffffffffffff1673ffffffffffffffffffffffffffffffffffffffff16815260200190815260200160002054815260200190815260200160002054856174e791906199db565b602060008b73ffffffffffffffffffffffffffffffffffffffff1673ffffffffffffffffffffffffffffffffffffffff1681526020019081526020016000206000602360008d73ffffffffffffffffffffffffffffffffffffffff1673ffffffffffffffffffffffffffffffffffffffff168152602001908152602001600020548152602001908152602001600020546175819190619921565b61758b91906199aa565b8561759691906198ed565b94505b5b849650505050505050919050565b60176020528060005260406000206000915090505481565b601b6020528060005260406000206000915090505481565b60006175e2616f80565b90506009548111156175f657806009819055505b600c5460095414617620576001600a5461761091906198ed565b600b81905550600c54600a819055505b600a5460095411801561765457506000601f60006001600a5461764391906198ed565b815260200190815260200160002054145b156176ee576000601b6000600a54815260200190815260200160002054670de0b6b3a7640000601d6000600a5481526020019081526020016000205461769a9190619921565b6176a491906199aa565b905080601f6000600b548152602001908152602001600020546176c791906198ed565b601f60006001600a546176da91906198ed565b815260200190815260200160002081905550505b33601360008273ffffffffffffffffffffffffffffffffffffffff1673ffffffffffffffffffffffffffffffffffffffff1681526020019081526020016000205460095411801561777f57506000601160008373ffffffffffffffffffffffffffffffffffffffff1673ffffffffffffffffffffffffffffffffffffffff1681526020019081526020016000205414155b15617aaf57600060126000601360008573ffffffffffffffffffffffffffffffffffffffff1673ffffffffffffffffffffffffffffffffffffffff16815260200190815260200160002054815260200190815260200160002054601a6000601360008673ffffffffffffffffffffffffffffffffffffffff1673ffffffffffffffffffffffffffffffffffffffff16815260200190815260200160002054815260200190815260200160002054601160008573ffffffffffffffffffffffffffffffffffffffff1673ffffffffffffffffffffffffffffffffffffffff168152602001908152602001600020546178769190619921565b61788091906199aa565b905080601760008473ffffffffffffffffffffffffffffffffffffffff1673ffffffffffffffffffffffffffffffffffffffff16815260200190815260200160002060008282546178d191906198ed565b925050819055506000600f60008473ffffffffffffffffffffffffffffffffffffffff1673ffffffffffffffffffffffffffffffffffffffff1681526020019081526020016000205414617a68576000601160008473ffffffffffffffffffffffffffffffffffffffff1673ffffffffffffffffffffffffffffffffffffffff168152602001908152602001600020548261796c91906199aa565b90506000612710600f60008673ffffffffffffffffffffffffffffffffffffffff1673ffffffffffffffffffffffffffffffffffffffff16815260200190815260200160002054836179be9190619921565b6179c891906199aa565b905080601760008673ffffffffffffffffffffffffffffffffffffffff1673ffffffffffffffffffffffffffffffffffffffff1681526020019081526020016000206000828254617a1991906199db565b925050819055506000600f60008673ffffffffffffffffffffffffffffffffffffffff1673ffffffffffffffffffffffffffffffffffffffff1681526020019081526020016000208190555050505b6000601160008473ffffffffffffffffffffffffffffffffffffffff1673ffffffffffffffffffffffffffffffffffffffff16815260200190815260200160002081905550505b600a54600954118015617b0f57506001600a54617acc91906198ed565b601c60008373ffffffffffffffffffffffffffffffffffffffff1673ffffffffffffffffffffffffffffffffffffffff1681526020019081526020016000205414155b15617cd057670de0b6b3a7640000601f6000601c60008573ffffffffffffffffffffffffffffffffffffffff1673ffffffffffffffffffffffffffffffffffffffff16815260200190815260200160002054815260200190815260200160002054601f60006001600a54617b8391906198ed565b815260200190815260200160002054617b9c91906199db565b601760008473ffffffffffffffffffffffffffffffffffffffff1673ffffffffffffffffffffffffffffffffffffffff16815260200190815260200160002054617be69190619921565b617bf091906199aa565b601860008373ffffffffffffffffffffffffffffffffffffffff1673ffffffffffffffffffffffffffffffffffffffff16815260200190815260200160002054617c3a91906198ed565b601860008373ffffffffffffffffffffffffffffffffffffffff1673ffffffffffffffffffffffffffffffffffffffff168152602001908152602001600020819055506001600a54617c8c91906198ed565b601c60008373ffffffffffffffffffffffffffffffffffffffff1673ffffffffffffffffffffffffffffffffffffffff168152602001908152602001600020819055505b6000602260008373ffffffffffffffffffffffffffffffffffffffff1673ffffffffffffffffffffffffffffffffffffffff1681526020019081526020016000205414158015617d6c57506000602260008373ffffffffffffffffffffffffffffffffffffffff1673ffffffffffffffffffffffffffffffffffffffff16815260200190815260200160002054600954617d6a91906199db565b115b15618685576000602060008373ffffffffffffffffffffffffffffffffffffffff1673ffffffffffffffffffffffffffffffffffffffff1681526020019081526020016000206000602260008573ffffffffffffffffffffffffffffffffffffffff1673ffffffffffffffffffffffffffffffffffffffff16815260200190815260200160002054815260200190815260200160002054905080601760008473ffffffffffffffffffffffffffffffffffffffff1673ffffffffffffffffffffffffffffffffffffffff1681526020019081526020016000206000828254617e5491906198ed565b9250508190555080602160008473ffffffffffffffffffffffffffffffffffffffff1673ffffffffffffffffffffffffffffffffffffffff1681526020019081526020016000206000828254617eaa91906198ed565b92505081905550670de0b6b3a7640000601f6000602260008673ffffffffffffffffffffffffffffffffffffffff1673ffffffffffffffffffffffffffffffffffffffff16815260200190815260200160002054815260200190815260200160002054601f60006001600a54617f2091906198ed565b815260200190815260200160002054617f3991906199db565b602060008573ffffffffffffffffffffffffffffffffffffffff1673ffffffffffffffffffffffffffffffffffffffff1681526020019081526020016000206000602260008773ffffffffffffffffffffffffffffffffffffffff1673ffffffffffffffffffffffffffffffffffffffff16815260200190815260200160002054815260200190815260200160002054617fd39190619921565b617fdd91906199aa565b601860008473ffffffffffffffffffffffffffffffffffffffff1673ffffffffffffffffffffffffffffffffffffffff1681526020019081526020016000205461802791906198ed565b601860008473ffffffffffffffffffffffffffffffffffffffff1673ffffffffffffffffffffffffffffffffffffffff168152602001908152602001600020819055506000602060008473ffffffffffffffffffffffffffffffffffffffff1673ffffffffffffffffffffffffffffffffffffffff1681526020019081526020016000206000602260008673ffffffffffffffffffffffffffffffffffffffff1673ffffffffffffffffffffffffffffffffffffffff168152602001908152602001600020548152602001908152602001600020819055506000602260008473ffffffffffffffffffffffffffffffffffffffff1673ffffffffffffffffffffffffffffffffffffffff168152602001908152602001600020819055506000602360008473ffffffffffffffffffffffffffffffffffffffff1673ffffffffffffffffffffffffffffffffffffffff1681526020019081526020016000205414618683576001602360008473ffffffffffffffffffffffffffffffffffffffff1673ffffffffffffffffffffffffffffffffffffffff168152602001908152602001600020546009546181da91906199db565b11156185b9576000602060008473ffffffffffffffffffffffffffffffffffffffff1673ffffffffffffffffffffffffffffffffffffffff1681526020019081526020016000206000602360008673ffffffffffffffffffffffffffffffffffffffff1673ffffffffffffffffffffffffffffffffffffffff16815260200190815260200160002054815260200190815260200160002054905080601760008573ffffffffffffffffffffffffffffffffffffffff1673ffffffffffffffffffffffffffffffffffffffff16815260200190815260200160002060008282546182c391906198ed565b9250508190555080602160008573ffffffffffffffffffffffffffffffffffffffff1673ffffffffffffffffffffffffffffffffffffffff168152602001908152602001600020600082825461831991906198ed565b92505081905550670de0b6b3a7640000601f6000602360008773ffffffffffffffffffffffffffffffffffffffff1673ffffffffffffffffffffffffffffffffffffffff16815260200190815260200160002054815260200190815260200160002054601f60006001600a5461838f91906198ed565b8152602001908152602001600020546183a891906199db565b602060008673ffffffffffffffffffffffffffffffffffffffff1673ffffffffffffffffffffffffffffffffffffffff1681526020019081526020016000206000602360008873ffffffffffffffffffffffffffffffffffffffff1673ffffffffffffffffffffffffffffffffffffffff168152602001908152602001600020548152602001908152602001600020546184429190619921565b61844c91906199aa565b601860008573ffffffffffffffffffffffffffffffffffffffff1673ffffffffffffffffffffffffffffffffffffffff1681526020019081526020016000205461849691906198ed565b601860008573ffffffffffffffffffffffffffffffffffffffff1673ffffffffffffffffffffffffffffffffffffffff168152602001908152602001600020819055506000602060008573ffffffffffffffffffffffffffffffffffffffff1673ffffffffffffffffffffffffffffffffffffffff1681526020019081526020016000206000602360008773ffffffffffffffffffffffffffffffffffffffff1673ffffffffffffffffffffffffffffffffffffffff168152602001908152602001600020548152602001908152602001600020819055506000602360008573ffffffffffffffffffffffffffffffffffffffff1673ffffffffffffffffffffffffffffffffffffffff1681526020019081526020016000208190555050618682565b602360008373ffffffffffffffffffffffffffffffffffffffff1673ffffffffffffffffffffffffffffffffffffffff16815260200190815260200160002054602260008473ffffffffffffffffffffffffffffffffffffffff1673ffffffffffffffffffffffffffffffffffffffff168152602001908152602001600020819055506000602360008473ffffffffffffffffffffffffffffffffffffffff1673ffffffffffffffffffffffffffffffffffffffff168152602001908152602001600020819055505b5b505b6000601860003373ffffffffffffffffffffffffffffffffffffffff1673ffffffffffffffffffffffffffffffffffffffff1681526020019081526020016000205490506000811161870c576040517f08c379a000000000000000000000000000000000000000000000000000000000815260040161870390619cb1565b60405180910390fd5b6000601860003373ffffffffffffffffffffffffffffffffffffffff1673ffffffffffffffffffffffffffffffffffffffff1681526020019081526020016000208190555061875b3382618c53565b3373ffffffffffffffffffffffffffffffffffffffff167f1ac537f0ad67b64ac68a04587ff3a4cb6977de22eb2c37ee560897a92c6d07c78261879c616f80565b6040516187aa929190619c16565b60405180910390a2505050565b60006127236127106007546187cc9190619921565b6187d691906199aa565b905090565b6103e881565b600c5481565b60186020528060005260406000206000915090505481565b601460008273ffffffffffffffffffffffffffffffffffffffff1673ffffffffffffffffffffffffffffffffffffffff168152602001908152602001600020546009541115618a67576000601460008373ffffffffffffffffffffffffffffffffffffffff1673ffffffffffffffffffffffffffffffffffffffff1681526020019081526020016000205490506000601060008473ffffffffffffffffffffffffffffffffffffffff1673ffffffffffffffffffffffffffffffffffffffff16815260200190815260200160002054141580156188f057506000601260008381526020019081526020016000205414155b15618a1f5760006012600083815260200190815260200160002054601a60008481526020019081526020016000205461892991906199aa565b9050612710601060008573ffffffffffffffffffffffffffffffffffffffff1673ffffffffffffffffffffffffffffffffffffffff16815260200190815260200160002054826189799190619921565b61898391906199aa565b601960008573ffffffffffffffffffffffffffffffffffffffff1673ffffffffffffffffffffffffffffffffffffffff16815260200190815260200160002060008282546189d191906198ed565b925050819055506000601060008573ffffffffffffffffffffffffffffffffffffffff1673ffffffffffffffffffffffffffffffffffffffff16815260200190815260200160002081905550505b600954601460008473ffffffffffffffffffffffffffffffffffffffff1673ffffffffffffffffffffffffffffffffffffffff16815260200190815260200160002081905550505b600a54600954118015618ac757506001600a54618a8491906198ed565b601560008373ffffffffffffffffffffffffffffffffffffffff1673ffffffffffffffffffffffffffffffffffffffff1681526020019081526020016000205414155b15618c5057670de0b6b3a7640000601f6000601560008573ffffffffffffffffffffffffffffffffffffffff1673ffffffffffffffffffffffffffffffffffffffff16815260200190815260200160002054815260200190815260200160002054601f60006001600a54618b3b91906198ed565b815260200190815260200160002054618b5491906199db565b601960008473ffffffffffffffffffffffffffffffffffffffff1673ffffffffffffffffffffffffffffffffffffffff16815260200190815260200160002054618b9e9190619921565b618ba891906199aa565b601660008373ffffffffffffffffffffffffffffffffffffffff1673ffffffffffffffffffffffffffffffffffffffff1681526020019081526020016000206000828254618bf691906198ed565b925050819055506001600a54618c0c91906198ed565b601560008373ffffffffffffffffffffffffffffffffffffffff1673ffffffffffffffffffffffffffffffffffffffff168152602001908152602001600020819055505b50565b60008273ffffffffffffffffffffffffffffffffffffffff1682604051618c799061a1d6565b60006040518083038185875af1925050503d8060008114618cb6576040519150601f19603f3d011682016040523d82523d6000602084013e618cbb565b606091505b5050905080618cff576040517f08c379a0000000000000000000000000000000000000000000000000000000008152600401618cf69061a237565b60405180910390fd5b505050565b828054828255906000526020600020908101928215618d7d579160200282015b82811115618d7c5782518260006101000a81548173ffffffffffffffffffffffffffffffffffffffff021916908373ffffffffffffffffffffffffffffffffffffffff16021790555091602001919060010190618d24565b5b509050618d8a9190618d8e565b5090565b5b80821115618da7576000816000905550600101618d8f565b5090565b6000604051905090565b600080fd5b600080fd5b6000819050919050565b618dd281618dbf565b8114618ddd57600080fd5b50565b600081359050618def81618dc9565b92915050565b600060208284031215618e0b57618e0a618db5565b5b6000618e1984828501618de0565b91505092915050565b618e2b81618dbf565b82525050565b6000602082019050618e466000830184618e22565b92915050565b600073ffffffffffffffffffffffffffffffffffffffff82169050919050565b6000618e7782618e4c565b9050919050565b618e8781618e6c565b8114618e9257600080fd5b50565b600081359050618ea481618e7e565b92915050565b600060208284031215618ec057618ebf618db5565b5b6000618ece84828501618e95565b91505092915050565b600081519050919050565b600082825260208201905092915050565b6000819050602082019050919050565b600081519050919050565b600082825260208201905092915050565b6000819050602082019050919050565b618f3881618e6c565b82525050565b6000618f4a8383618f2f565b60208301905092915050565b6000602082019050919050565b6000618f6e82618f03565b618f788185618f0e565b9350618f8383618f1f565b8060005b83811015618fb4578151618f9b8882618f3e565b9750618fa683618f56565b925050600181019050618f87565b5085935050505092915050565b600081519050919050565b600082825260208201905092915050565b60005b83811015618ffb578082015181840152602081019050618fe0565b60008484015250505050565b6000601f19601f8301169050919050565b600061902382618fc1565b61902d8185618fcc565b935061903d818560208601618fdd565b61904681619007565b840191505092915050565b61905a81618dbf565b82525050565b6000604083016000830151848203600086015261907d8282619018565b91505060208301516190926020860182619051565b508091505092915050565b600060408301600083015184820360008601526190ba8282618f63565b915050602083015184820360208601526190d48282619060565b9150508091505092915050565b60006190ed838361909d565b905092915050565b6000602082019050919050565b600061910d82618ed7565b6191178185618ee2565b93508360208202850161912985618ef3565b8060005b85811015619165578484038952815161914685826190e1565b9450619151836190f5565b925060208a0199505060018101905061912d565b50829750879550505050505092915050565b600060208201905081810360008301526191918184619102565b905092915050565b600082825260208201905092915050565b60006191b582618f03565b6191bf8185619199565b93506191ca83618f1f565b8060005b838110156191fb5781516191e28882618f3e565b97506191ed83618f56565b9250506001810190506191ce565b5085935050505092915050565b6000602082019050818103600083015261922281846191aa565b905092915050565b6000806040838503121561924157619240618db5565b5b600061924f85828601618e95565b925050602061926085828601618e95565b9150509250929050565b600081519050919050565b600082825260208201905092915050565b6000819050602082019050919050565b60006192a28383619060565b905092915050565b6000602082019050919050565b60006192c28261926a565b6192cc8185619275565b9350836020820285016192de85619286565b8060005b8581101561931a57848403895281516192fb8582619296565b9450619306836192aa565b925060208a019950506001810190506192e2565b50829750879550505050505092915050565b6000602082019050818103600083015261934681846192b7565b905092915050565b600080fd5b7f4e487b7100000000000000000000000000000000000000000000000000000000600052604160045260246000fd5b61938b82619007565b810181811067ffffffffffffffff821117156193aa576193a9619353565b5b80604052505050565b60006193bd618dab565b90506193c98282619382565b919050565b600067ffffffffffffffff8211156193e9576193e8619353565b5b602082029050602081019050919050565b600080fd5b600061941261940d846193ce565b6193b3565b90508083825260208201905060208402830185811115619435576194346193fa565b5b835b8181101561945e578061944a8882618e95565b845260208401935050602081019050619437565b5050509392505050565b600082601f83011261947d5761947c61934e565b5b813561948d8482602086016193ff565b91505092915050565b600067ffffffffffffffff8211156194b1576194b0619353565b5b602082029050602081019050919050565b600080fd5b600067ffffffffffffffff8211156194e2576194e1619353565b5b6194eb82619007565b9050602081019050919050565b82818337600083830152505050565b600061951a619515846194c7565b6193b3565b905082815260208101848484011115619536576195356194c2565b5b6195418482856194f8565b509392505050565b600082601f83011261955e5761955d61934e565b5b813561956e848260208601619507565b91505092915050565b600061958a61958584619496565b6193b3565b905080838252602082019050602084028301858111156195ad576195ac6193fa565b5b835b818110156195f457803567ffffffffffffffff8111156195d2576195d161934e565b5b8086016195df8982619549565b855260208501945050506020810190506195af565b5050509392505050565b600082601f8301126196135761961261934e565b5b8135619623848260208601619577565b91505092915050565b600080600080600060a0868803121561964857619647618db5565b5b600086013567ffffffffffffffff81111561966657619665618dba565b5b61967288828901619468565b955050602086013567ffffffffffffffff81111561969357619692618dba565b5b61969f888289016195fe565b94505060406196b088828901618e95565b93505060606196c188828901618de0565b92505060806196d288828901618de0565b9150509295509295909350565b6000819050919050565b60006197046196ff6196fa84618e4c565b6196df565b618e4c565b9050919050565b6000619716826196e9565b9050919050565b60006197288261970b565b9050919050565b6197388161971d565b82525050565b6000602082019050619753600083018461972f565b92915050565b600082825260208201905092915050565b600061977582618fc1565b61977f8185619759565b935061978f818560208601618fdd565b61979881619007565b840191505092915050565b600060208201905081810360008301526197bd818461976a565b905092915050565b600080604083850312156197dc576197db618db5565b5b600083013567ffffffffffffffff8111156197fa576197f9618dba565b5b61980685828601619468565b925050602083013567ffffffffffffffff81111561982757619826618dba565b5b619833858286016195fe565b9150509250929050565b60006020828403121561985357619852618db5565b5b600082013567ffffffffffffffff81111561987157619870618dba565b5b61987d84828501619549565b91505092915050565b600061ffff82169050919050565b61989d81619886565b82525050565b60006020820190506198b86000830184619894565b92915050565b7f4e487b7100000000000000000000000000000000000000000000000000000000600052601160045260246000fd5b60006198f882618dbf565b915061990383618dbf565b925082820190508082111561991b5761991a6198be565b5b92915050565b600061992c82618dbf565b915061993783618dbf565b9250817fffffffffffffffffffffffffffffffffffffffffffffffffffffffffffffffff04831182151516156199705761996f6198be565b5b828202905092915050565b7f4e487b7100000000000000000000000000000000000000000000000000000000600052601260045260246000fd5b60006199b582618dbf565b91506199c083618dbf565b9250826199d0576199cf61997b565b5b828204905092915050565b60006199e682618dbf565b91506199f183618dbf565b9250828203905081811115619a0957619a086198be565b5b92915050565b7f44656230783a20796f757220616d6f756e742069732030000000000000000000600082015250565b6000619a45601783619759565b9150619a5082619a0f565b602082019050919050565b60006020820190508181036000830152619a7481619a38565b9050919050565b7f44656230783a2063616e206e6f7420756e7374616b65206d6f7265207468616e60008201527f20796f75277665207374616b6564000000000000000000000000000000000000602082015250565b6000619ad7602e83619759565b9150619ae282619a7b565b604082019050919050565b60006020820190508181036000830152619b0681619aca565b9050919050565b619b1681618e6c565b82525050565b6000604082019050619b316000830185619b0d565b619b3e6020830184618e22565b9392505050565b60008115159050919050565b619b5a81619b45565b8114619b6557600080fd5b50565b600081519050619b7781619b51565b92915050565b600060208284031215619b9357619b92618db5565b5b6000619ba184828501619b68565b91505092915050565b7f44656230783a20596f7520646f206e6f74206861766520726577617264730000600082015250565b6000619be0601e83619759565b9150619beb82619baa565b602082019050919050565b60006020820190508181036000830152619c0f81619bd3565b9050919050565b6000604082019050619c2b6000830185618e22565b619c386020830184618e22565b9392505050565b7f44656230783a20596f7520646f206e6f7420686176652061636372756564206660008201527f6565730000000000000000000000000000000000000000000000000000000000602082015250565b6000619c9b602383619759565b9150619ca682619c3f565b604082019050919050565b60006020820190508181036000830152619cca81619c8e565b9050919050565b7f4e487b7100000000000000000000000000000000000000000000000000000000600052602260045260246000fd5b60006002820490506001821680619d1857607f821691505b602082108103619d2b57619d2a619cd1565b5b50919050565b6000619d3c82618dbf565b91507fffffffffffffffffffffffffffffffffffffffffffffffffffffffffffffffff8203619d6e57619d6d6198be565b5b600182019050919050565b7f44656230783a206d7573742070617920313025206f66207472616e736163746960008201527f6f6e20636f737400000000000000000000000000000000000000000000000000602082015250565b6000619dd5602783619759565b9150619de082619d79565b604082019050919050565b60006020820190508181036000830152619e0481619dc8565b9050919050565b6000606082019050619e206000830186619b0d565b619e2d6020830185619b0d565b619e3a6040830184618e22565b949350505050565b7f4e487b7100000000000000000000000000000000000000000000000000000000600052603260045260246000fd5b60008190508160005260206000209050919050565b60006020601f8301049050919050565b600082821b905092915050565b600060088302619ed37fffffffffffffffffffffffffffffffffffffffffffffffffffffffffffffffff82619e96565b619edd8683619e96565b95508019841693508086168417925050509392505050565b6000619f10619f0b619f0684618dbf565b6196df565b618dbf565b9050919050565b6000819050919050565b619f2a83619ef5565b619f3e619f3682619f17565b848454619ea3565b825550505050565b600090565b619f53619f46565b619f5e818484619f21565b505050565b5b81811015619f8257619f77600082619f4b565b600181019050619f64565b5050565b601f821115619fc757619f9881619e71565b619fa184619e86565b81016020851015619fb0578190505b619fc4619fbc85619e86565b830182619f63565b50505b505050565b600082821c905092915050565b6000619fea60001984600802619fcc565b1980831691505092915050565b600061a0038383619fd9565b9150826002028217905092915050565b61a01c82618fc1565b67ffffffffffffffff81111561a0355761a034619353565b5b61a03f8254619d00565b61a04a828285619f86565b600060209050601f83116001811461a07d576000841561a06b578287015190505b61a0758582619ff7565b86555061a0dd565b601f19841661a08b86619e71565b60005b8281101561a0b35784890151825560018201915060208501945060208101905061a08e565b8683101561a0d0578489015161a0cc601f891682619fd9565b8355505b6001600288020188555050505b505050505050565b600081905092915050565b600061a0fb82618fc1565b61a105818561a0e5565b935061a115818560208601618fdd565b80840191505092915050565b600061a12d828461a0f0565b915081905092915050565b6000604083016000830151848203600086015261a1558282619018565b915050602083015161a16a6020860182619051565b508091505092915050565b6000604082019050818103600083015261a18f818561a138565b905061a19e6020830184618e22565b9392505050565b600081905092915050565b50565b600061a1c060008361a1a5565b915061a1cb8261a1b0565b600082019050919050565b600061a1e18261a1b3565b9150819050919050565b7f44656230783a206661696c656420746f2073656e6420616d6f756e7400000000600082015250565b600061a221601c83619759565b915061a22c8261a1eb565b602082019050919050565b6000602082019050818103600083015261a2508161a214565b905091905056fea264697066735822122007ae44f9c4a0ea876ae15ed7112dfb833749918f505e0a6453fe49e638c9d9cf64736f6c6343000810003360806040523480156200001157600080fd5b506040518060400160405280600581526020017f44656230780000000000000000000000000000000000000000000000000000008152506040518060400160405280600381526020017f444258000000000000000000000000000000000000000000000000000000000081525081600390816200008f919062000365565b508060049081620000a1919062000365565b50505033600560006101000a81548173ffffffffffffffffffffffffffffffffffffffff021916908373ffffffffffffffffffffffffffffffffffffffff1602179055506200044c565b600081519050919050565b7f4e487b7100000000000000000000000000000000000000000000000000000000600052604160045260246000fd5b7f4e487b7100000000000000000000000000000000000000000000000000000000600052602260045260246000fd5b600060028204905060018216806200016d57607f821691505b60208210810362000183576200018262000125565b5b50919050565b60008190508160005260206000209050919050565b60006020601f8301049050919050565b600082821b905092915050565b600060088302620001ed7fffffffffffffffffffffffffffffffffffffffffffffffffffffffffffffffff82620001ae565b620001f98683620001ae565b95508019841693508086168417925050509392505050565b6000819050919050565b6000819050919050565b600062000246620002406200023a8462000211565b6200021b565b62000211565b9050919050565b6000819050919050565b620002628362000225565b6200027a62000271826200024d565b848454620001bb565b825550505050565b600090565b6200029162000282565b6200029e81848462000257565b505050565b5b81811015620002c657620002ba60008262000287565b600181019050620002a4565b5050565b601f8211156200031557620002df8162000189565b620002ea846200019e565b81016020851015620002fa578190505b6200031262000309856200019e565b830182620002a3565b50505b505050565b600082821c905092915050565b60006200033a600019846008026200031a565b1980831691505092915050565b600062000355838362000327565b9150826002028217905092915050565b6200037082620000eb565b67ffffffffffffffff8111156200038c576200038b620000f6565b5b62000398825462000154565b620003a5828285620002ca565b600060209050601f831160018114620003dd5760008415620003c8578287015190505b620003d4858262000347565b86555062000444565b601f198416620003ed8662000189565b60005b828110156200041757848901518255600182019150602085019450602081019050620003f0565b8683101562000437578489015162000433601f89168262000327565b8355505b6001600288020188555050505b505050505050565b6115bd806200045c6000396000f3fe608060405234801561001057600080fd5b50600436106100cf5760003560e01c806370a082311161008c5780639a49090e116100665780639a49090e1461022a578063a457c2d714610246578063a9059cbb14610276578063dd62ed3e146102a6576100cf565b806370a08231146101be5780638da5cb5b146101ee57806395d89b411461020c576100cf565b806306fdde03146100d4578063095ea7b3146100f257806318160ddd1461012257806323b872dd14610140578063313ce56714610170578063395093511461018e575b600080fd5b6100dc6102d6565b6040516100e99190610d98565b60405180910390f35b61010c60048036038101906101079190610e53565b610368565b6040516101199190610eae565b60405180910390f35b61012a61038b565b6040516101379190610ed8565b60405180910390f35b61015a60048036038101906101559190610ef3565b610395565b6040516101679190610eae565b60405180910390f35b6101786103c4565b6040516101859190610f62565b60405180910390f35b6101a860048036038101906101a39190610e53565b6103cd565b6040516101b59190610eae565b60405180910390f35b6101d860048036038101906101d39190610f7d565b610404565b6040516101e59190610ed8565b60405180910390f35b6101f661044c565b6040516102039190610fb9565b60405180910390f35b610214610472565b6040516102219190610d98565b60405180910390f35b610244600480360381019061023f9190610e53565b610504565b005b610260600480360381019061025b9190610e53565b6105a2565b60405161026d9190610eae565b60405180910390f35b610290600480360381019061028b9190610e53565b610619565b60405161029d9190610eae565b60405180910390f35b6102c060048036038101906102bb9190610fd4565b61063c565b6040516102cd9190610ed8565b60405180910390f35b6060600380546102e590611043565b80601f016020809104026020016040519081016040528092919081815260200182805461031190611043565b801561035e5780601f106103335761010080835404028352916020019161035e565b820191906000526020600020905b81548152906001019060200180831161034157829003601f168201915b5050505050905090565b6000806103736106c3565b90506103808185856106cb565b600191505092915050565b6000600254905090565b6000806103a06106c3565b90506103ad858285610894565b6103b8858585610920565b60019150509392505050565b60006012905090565b6000806103d86106c3565b90506103f98185856103ea858961063c565b6103f491906110a3565b6106cb565b600191505092915050565b60008060008373ffffffffffffffffffffffffffffffffffffffff1673ffffffffffffffffffffffffffffffffffffffff168152602001908152602001600020549050919050565b600560009054906101000a900473ffffffffffffffffffffffffffffffffffffffff1681565b60606004805461048190611043565b80601f01602080910402602001604051908101604052809291908181526020018280546104ad90611043565b80156104fa5780601f106104cf576101008083540402835291602001916104fa565b820191906000526020600020905b8154815290600101906020018083116104dd57829003601f168201915b5050505050905090565b600560009054906101000a900473ffffffffffffffffffffffffffffffffffffffff1673ffffffffffffffffffffffffffffffffffffffff163373ffffffffffffffffffffffffffffffffffffffff1614610594576040517f08c379a000000000000000000000000000000000000000000000000000000000815260040161058b90611123565b60405180910390fd5b61059e8282610b9f565b5050565b6000806105ad6106c3565b905060006105bb828661063c565b905083811015610600576040517f08c379a00000000000000000000000000000000000000000000000000000000081526004016105f7906111b5565b60405180910390fd5b61060d82868684036106cb565b60019250505092915050565b6000806106246106c3565b9050610631818585610920565b600191505092915050565b6000600160008473ffffffffffffffffffffffffffffffffffffffff1673ffffffffffffffffffffffffffffffffffffffff16815260200190815260200160002060008373ffffffffffffffffffffffffffffffffffffffff1673ffffffffffffffffffffffffffffffffffffffff16815260200190815260200160002054905092915050565b600033905090565b600073ffffffffffffffffffffffffffffffffffffffff168373ffffffffffffffffffffffffffffffffffffffff160361073a576040517f08c379a000000000000000000000000000000000000000000000000000000000815260040161073190611247565b60405180910390fd5b600073ffffffffffffffffffffffffffffffffffffffff168273ffffffffffffffffffffffffffffffffffffffff16036107a9576040517f08c379a00000000000000000000000000000000000000000000000000000000081526004016107a0906112d9565b60405180910390fd5b80600160008573ffffffffffffffffffffffffffffffffffffffff1673ffffffffffffffffffffffffffffffffffffffff16815260200190815260200160002060008473ffffffffffffffffffffffffffffffffffffffff1673ffffffffffffffffffffffffffffffffffffffff168152602001908152602001600020819055508173ffffffffffffffffffffffffffffffffffffffff168373ffffffffffffffffffffffffffffffffffffffff167f8c5be1e5ebec7d5bd14f71427d1e84f3dd0314c0f7b2291e5b200ac8c7c3b925836040516108879190610ed8565b60405180910390a3505050565b60006108a0848461063c565b90507fffffffffffffffffffffffffffffffffffffffffffffffffffffffffffffffff811461091a578181101561090c576040517f08c379a000000000000000000000000000000000000000000000000000000000815260040161090390611345565b60405180910390fd5b61091984848484036106cb565b5b50505050565b600073ffffffffffffffffffffffffffffffffffffffff168373ffffffffffffffffffffffffffffffffffffffff160361098f576040517f08c379a0000000000000000000000000000000000000000000000000000000008152600401610986906113d7565b60405180910390fd5b600073ffffffffffffffffffffffffffffffffffffffff168273ffffffffffffffffffffffffffffffffffffffff16036109fe576040517f08c379a00000000000000000000000000000000000000000000000000000000081526004016109f590611469565b60405180910390fd5b610a09838383610cfe565b60008060008573ffffffffffffffffffffffffffffffffffffffff1673ffffffffffffffffffffffffffffffffffffffff16815260200190815260200160002054905081811015610a8f576040517f08c379a0000000000000000000000000000000000000000000000000000000008152600401610a86906114fb565b60405180910390fd5b8181036000808673ffffffffffffffffffffffffffffffffffffffff1673ffffffffffffffffffffffffffffffffffffffff16815260200190815260200160002081905550816000808573ffffffffffffffffffffffffffffffffffffffff1673ffffffffffffffffffffffffffffffffffffffff1681526020019081526020016000206000828254610b2291906110a3565b925050819055508273ffffffffffffffffffffffffffffffffffffffff168473ffffffffffffffffffffffffffffffffffffffff167fddf252ad1be2c89b69c2b068fc378daa952ba7f163c4a11628f55a4df523b3ef84604051610b869190610ed8565b60405180910390a3610b99848484610d03565b50505050565b600073ffffffffffffffffffffffffffffffffffffffff168273ffffffffffffffffffffffffffffffffffffffff1603610c0e576040517f08c379a0000000000000000000000000000000000000000000000000000000008152600401610c0590611567565b60405180910390fd5b610c1a60008383610cfe565b8060026000828254610c2c91906110a3565b92505081905550806000808473ffffffffffffffffffffffffffffffffffffffff1673ffffffffffffffffffffffffffffffffffffffff1681526020019081526020016000206000828254610c8191906110a3565b925050819055508173ffffffffffffffffffffffffffffffffffffffff16600073ffffffffffffffffffffffffffffffffffffffff167fddf252ad1be2c89b69c2b068fc378daa952ba7f163c4a11628f55a4df523b3ef83604051610ce69190610ed8565b60405180910390a3610cfa60008383610d03565b5050565b505050565b505050565b600081519050919050565b600082825260208201905092915050565b60005b83811015610d42578082015181840152602081019050610d27565b60008484015250505050565b6000601f19601f8301169050919050565b6000610d6a82610d08565b610d748185610d13565b9350610d84818560208601610d24565b610d8d81610d4e565b840191505092915050565b60006020820190508181036000830152610db28184610d5f565b905092915050565b600080fd5b600073ffffffffffffffffffffffffffffffffffffffff82169050919050565b6000610dea82610dbf565b9050919050565b610dfa81610ddf565b8114610e0557600080fd5b50565b600081359050610e1781610df1565b92915050565b6000819050919050565b610e3081610e1d565b8114610e3b57600080fd5b50565b600081359050610e4d81610e27565b92915050565b60008060408385031215610e6a57610e69610dba565b5b6000610e7885828601610e08565b9250506020610e8985828601610e3e565b9150509250929050565b60008115159050919050565b610ea881610e93565b82525050565b6000602082019050610ec36000830184610e9f565b92915050565b610ed281610e1d565b82525050565b6000602082019050610eed6000830184610ec9565b92915050565b600080600060608486031215610f0c57610f0b610dba565b5b6000610f1a86828701610e08565b9350506020610f2b86828701610e08565b9250506040610f3c86828701610e3e565b9150509250925092565b600060ff82169050919050565b610f5c81610f46565b82525050565b6000602082019050610f776000830184610f53565b92915050565b600060208284031215610f9357610f92610dba565b5b6000610fa184828501610e08565b91505092915050565b610fb381610ddf565b82525050565b6000602082019050610fce6000830184610faa565b92915050565b60008060408385031215610feb57610fea610dba565b5b6000610ff985828601610e08565b925050602061100a85828601610e08565b9150509250929050565b7f4e487b7100000000000000000000000000000000000000000000000000000000600052602260045260246000fd5b6000600282049050600182168061105b57607f821691505b60208210810361106e5761106d611014565b5b50919050565b7f4e487b7100000000000000000000000000000000000000000000000000000000600052601160045260246000fd5b60006110ae82610e1d565b91506110b983610e1d565b92508282019050808211156110d1576110d0611074565b5b92915050565b7f43616c6c6572206973206e6f7420446562307820636f6e74726163742e000000600082015250565b600061110d601d83610d13565b9150611118826110d7565b602082019050919050565b6000602082019050818103600083015261113c81611100565b9050919050565b7f45524332303a2064656372656173656420616c6c6f77616e63652062656c6f7760008201527f207a65726f000000000000000000000000000000000000000000000000000000602082015250565b600061119f602583610d13565b91506111aa82611143565b604082019050919050565b600060208201905081810360008301526111ce81611192565b9050919050565b7f45524332303a20617070726f76652066726f6d20746865207a65726f2061646460008201527f7265737300000000000000000000000000000000000000000000000000000000602082015250565b6000611231602483610d13565b915061123c826111d5565b604082019050919050565b6000602082019050818103600083015261126081611224565b9050919050565b7f45524332303a20617070726f766520746f20746865207a65726f20616464726560008201527f7373000000000000000000000000000000000000000000000000000000000000602082015250565b60006112c3602283610d13565b91506112ce82611267565b604082019050919050565b600060208201905081810360008301526112f2816112b6565b9050919050565b7f45524332303a20696e73756666696369656e7420616c6c6f77616e6365000000600082015250565b600061132f601d83610d13565b915061133a826112f9565b602082019050919050565b6000602082019050818103600083015261135e81611322565b9050919050565b7f45524332303a207472616e736665722066726f6d20746865207a65726f20616460008201527f6472657373000000000000000000000000000000000000000000000000000000602082015250565b60006113c1602583610d13565b91506113cc82611365565b604082019050919050565b600060208201905081810360008301526113f0816113b4565b9050919050565b7f45524332303a207472616e7366657220746f20746865207a65726f206164647260008201527f6573730000000000000000000000000000000000000000000000000000000000602082015250565b6000611453602383610d13565b915061145e826113f7565b604082019050919050565b6000602082019050818103600083015261148281611446565b9050919050565b7f45524332303a207472616e7366657220616d6f756e742065786365656473206260008201527f616c616e63650000000000000000000000000000000000000000000000000000602082015250565b60006114e5602683610d13565b91506114f082611489565b604082019050919050565b60006020820190508181036000830152611514816114d8565b9050919050565b7f45524332303a206d696e7420746f20746865207a65726f206164647265737300600082015250565b6000611551601f83610d13565b915061155c8261151b565b602082019050919050565b6000602082019050818103600083015261158081611544565b905091905056fea2646970667358221220df46568725155975c34c19abaaedd25b2301786763fb6a23777f97662b7829ba64736f6c63430008100033",
    "linkReferences": {},
    "deployedLinkReferences": {}
}