{
  "_format": "hh-sol-artifact-1",
  "contractName": "Deb0x",
  "sourceName": "contracts/Deb0x.sol",
  "abi": [
    {
      "inputs": [],
      "stateMutability": "nonpayable",
      "type": "constructor"
    },
    {
      "inputs": [
        {
          "internalType": "address",
          "name": "",
          "type": "address"
        }
      ],
      "name": "balanceERC20",
      "outputs": [
        {
          "internalType": "uint256",
          "name": "",
          "type": "uint256"
        }
      ],
      "stateMutability": "view",
      "type": "function"
    },
    {
      "inputs": [],
      "name": "contractBalance",
      "outputs": [
        {
          "internalType": "uint256",
          "name": "",
          "type": "uint256"
        }
      ],
      "stateMutability": "view",
      "type": "function"
    },
    {
      "inputs": [],
      "name": "deboxERC20",
      "outputs": [
        {
          "internalType": "contract Deb0xERC20",
          "name": "",
          "type": "address"
        }
      ],
      "stateMutability": "view",
      "type": "function"
    },
    {
      "inputs": [
        {
          "internalType": "address",
          "name": "account",
          "type": "address"
        }
      ],
      "name": "earnedNative",
      "outputs": [
        {
          "internalType": "uint256",
          "name": "",
          "type": "uint256"
        }
      ],
      "stateMutability": "view",
      "type": "function"
    },
    {
      "inputs": [],
      "name": "fee",
      "outputs": [
        {
          "internalType": "uint16",
          "name": "",
          "type": "uint16"
        }
      ],
      "stateMutability": "view",
      "type": "function"
    },
    {
      "inputs": [
        {
          "internalType": "address",
          "name": "to",
          "type": "address"
        }
      ],
      "name": "fetchMessageSenders",
      "outputs": [
        {
          "internalType": "address[]",
          "name": "",
          "type": "address[]"
        }
      ],
      "stateMutability": "view",
      "type": "function"
    },
    {
      "inputs": [
        {
          "internalType": "address",
          "name": "to",
          "type": "address"
        },
        {
          "internalType": "address",
          "name": "from",
          "type": "address"
        }
      ],
      "name": "fetchMessages",
      "outputs": [
        {
          "internalType": "string[]",
          "name": "",
          "type": "string[]"
        }
      ],
      "stateMutability": "view",
      "type": "function"
    },
    {
      "inputs": [
        {
          "internalType": "address",
          "name": "account",
          "type": "address"
        }
      ],
      "name": "getKey",
      "outputs": [
        {
          "internalType": "string",
          "name": "",
          "type": "string"
        }
      ],
      "stateMutability": "view",
      "type": "function"
    },
    {
      "inputs": [],
      "name": "getRewardNative",
      "outputs": [],
      "stateMutability": "nonpayable",
      "type": "function"
    },
    {
      "inputs": [],
      "name": "initialize",
      "outputs": [],
      "stateMutability": "nonpayable",
      "type": "function"
    },
    {
      "inputs": [],
      "name": "lastUpdateTime",
      "outputs": [
        {
          "internalType": "uint256",
          "name": "",
          "type": "uint256"
        }
      ],
      "stateMutability": "view",
      "type": "function"
    },
    {
      "inputs": [],
      "name": "rewardPerToken",
      "outputs": [
        {
          "internalType": "uint256",
          "name": "",
          "type": "uint256"
        }
      ],
      "stateMutability": "view",
      "type": "function"
    },
    {
      "inputs": [],
      "name": "rewardPerTokenStored",
      "outputs": [
        {
          "internalType": "uint256",
          "name": "",
          "type": "uint256"
        }
      ],
      "stateMutability": "view",
      "type": "function"
    },
    {
      "inputs": [],
      "name": "rewardRate",
      "outputs": [
        {
          "internalType": "uint256",
          "name": "",
          "type": "uint256"
        }
      ],
      "stateMutability": "view",
      "type": "function"
    },
    {
      "inputs": [
        {
          "internalType": "address",
          "name": "",
          "type": "address"
        }
      ],
      "name": "rewards",
      "outputs": [
        {
          "internalType": "uint256",
          "name": "",
          "type": "uint256"
        }
      ],
      "stateMutability": "view",
      "type": "function"
    },
    {
      "inputs": [
        {
          "internalType": "address",
          "name": "to",
          "type": "address"
        },
        {
          "internalType": "string",
          "name": "payload",
          "type": "string"
        }
      ],
      "name": "send",
      "outputs": [],
      "stateMutability": "payable",
      "type": "function"
    },
    {
      "inputs": [
        {
          "internalType": "string",
          "name": "encryptionKey",
          "type": "string"
        }
      ],
      "name": "setKey",
      "outputs": [],
      "stateMutability": "nonpayable",
      "type": "function"
    },
    {
      "inputs": [
        {
          "internalType": "uint256",
          "name": "_amount",
          "type": "uint256"
        }
      ],
      "name": "stakeERC20",
      "outputs": [],
      "stateMutability": "payable",
      "type": "function"
    },
    {
      "inputs": [
        {
          "internalType": "uint256",
          "name": "_amount",
          "type": "uint256"
        }
      ],
      "name": "unStakeERC20",
      "outputs": [],
      "stateMutability": "nonpayable",
      "type": "function"
    },
    {
      "inputs": [
        {
          "internalType": "address",
          "name": "",
          "type": "address"
        }
      ],
      "name": "userRewardPerTokenPaid",
      "outputs": [
        {
          "internalType": "uint256",
          "name": "",
          "type": "uint256"
        }
      ],
      "stateMutability": "view",
      "type": "function"
    }
  ],
  "bytecode": "0x608060405260008060146101000a81548160ff02191690831515021790555060646005553480156200003057600080fd5b50306040516200004090620000af565b6200004c919062000102565b604051809103906000f08015801562000069573d6000803e3d6000fd5b506000806101000a81548173ffffffffffffffffffffffffffffffffffffffff021916908373ffffffffffffffffffffffffffffffffffffffff1602179055506200011f565b61190a80620027e483390190565b600073ffffffffffffffffffffffffffffffffffffffff82169050919050565b6000620000ea82620000bd565b9050919050565b620000fc81620000dd565b82525050565b6000602082019050620001196000830184620000f1565b92915050565b6126b5806200012f6000396000f3fe60806040526004361061011f5760003560e01c806390a25a07116100a0578063c8f33c9111610064578063c8f33c91146103ec578063cc7ef50914610417578063cd3daf9d14610433578063ddca3f431461045e578063df136d65146104895761011f565b806390a25a071461030457806393790f441461032d57806399142b5f1461036a578063af42d10614610386578063b3328d34146103af5761011f565b80636d9384f9116100e75780636d9384f91461021d5780637b0a47ee1461025a5780638129fc1c146102855780638b7afe2e1461029c5780638b876347146102c75761011f565b80630700037d146101245780630f4ac71a1461016157806357a0641f1461019e57806358503a95146101c957806369131a4714610206575b600080fd5b34801561013057600080fd5b5061014b6004803603810190610146919061170d565b6104b4565b6040516101589190611753565b60405180910390f35b34801561016d57600080fd5b506101886004803603810190610183919061170d565b6104cc565b6040516101959190611753565b60405180910390f35b3480156101aa57600080fd5b506101b36104e4565b6040516101c091906117cd565b60405180910390f35b3480156101d557600080fd5b506101f060048036038101906101eb919061170d565b610508565b6040516101fd91906118a6565b60405180910390f35b34801561021257600080fd5b5061021b6105d5565b005b34801561022957600080fd5b50610244600480360381019061023f91906118c8565b610757565b6040516102519190611a63565b60405180910390f35b34801561026657600080fd5b5061026f6108ad565b60405161027c9190611753565b60405180910390f35b34801561029157600080fd5b5061029a6108b3565b005b3480156102a857600080fd5b506102b1610b25565b6040516102be9190611753565b60405180910390f35b3480156102d357600080fd5b506102ee60048036038101906102e9919061170d565b610b2d565b6040516102fb9190611753565b60405180910390f35b34801561031057600080fd5b5061032b60048036038101906103269190611ab1565b610b45565b005b34801561033957600080fd5b50610354600480360381019061034f919061170d565b610dd3565b6040516103619190611b28565b60405180910390f35b610384600480360381019061037f9190611c7f565b610ea4565b005b34801561039257600080fd5b506103ad60048036038101906103a89190611cdb565b611130565b005b3480156103bb57600080fd5b506103d660048036038101906103d1919061170d565b611187565b6040516103e39190611753565b60405180910390f35b3480156103f857600080fd5b506104016112d2565b60405161040e9190611753565b60405180910390f35b610431600480360381019061042c9190611ab1565b6112d8565b005b34801561043f57600080fd5b506104486114d8565b6040516104559190611753565b60405180910390f35b34801561046a57600080fd5b5061047361153b565b6040516104809190611d41565b60405180910390f35b34801561049557600080fd5b5061049e611541565b6040516104ab9190611753565b60405180910390f35b60096020528060005260406000206000915090505481565b60046020528060005260406000206000915090505481565b60008054906101000a900473ffffffffffffffffffffffffffffffffffffffff1681565b6060600360008373ffffffffffffffffffffffffffffffffffffffff1673ffffffffffffffffffffffffffffffffffffffff1681526020019081526020016000208054806020026020016040519081016040528092919081815260200182805480156105c957602002820191906000526020600020905b8160009054906101000a900473ffffffffffffffffffffffffffffffffffffffff1673ffffffffffffffffffffffffffffffffffffffff168152602001906001019080831161057f575b50505050509050919050565b336105de6114d8565b600781905550426006819055506105f481611187565b600960008373ffffffffffffffffffffffffffffffffffffffff1673ffffffffffffffffffffffffffffffffffffffff16815260200190815260200160002081905550600754600860008373ffffffffffffffffffffffffffffffffffffffff1673ffffffffffffffffffffffffffffffffffffffff168152602001908152602001600020819055506000600960003373ffffffffffffffffffffffffffffffffffffffff1673ffffffffffffffffffffffffffffffffffffffff16815260200190815260200160002054905060008111610704576040517f08c379a00000000000000000000000000000000000000000000000000000000081526004016106fb90611da8565b60405180910390fd5b6000600960003373ffffffffffffffffffffffffffffffffffffffff1673ffffffffffffffffffffffffffffffffffffffff168152602001908152602001600020819055506107533382611547565b5050565b6060600260008473ffffffffffffffffffffffffffffffffffffffff1673ffffffffffffffffffffffffffffffffffffffff16815260200190815260200160002060008373ffffffffffffffffffffffffffffffffffffffff1673ffffffffffffffffffffffffffffffffffffffff168152602001908152602001600020805480602002602001604051908101604052809291908181526020016000905b828210156108a157838290600052602060002001805461081490611df7565b80601f016020809104026020016040519081016040528092919081815260200182805461084090611df7565b801561088d5780601f106108625761010080835404028352916020019161088d565b820191906000526020600020905b81548152906001019060200180831161087057829003601f168201915b5050505050815260200190600101906107f5565b50505050905092915050565b60055481565b60001515600060149054906101000a900460ff16151514610909576040517f08c379a000000000000000000000000000000000000000000000000000000000815260040161090090611e9b565b60405180910390fd5b60008054906101000a900473ffffffffffffffffffffffffffffffffffffffff1673ffffffffffffffffffffffffffffffffffffffff1663095ea7b33060008054906101000a900473ffffffffffffffffffffffffffffffffffffffff1673ffffffffffffffffffffffffffffffffffffffff166318160ddd6040518163ffffffff1660e01b8152600401602060405180830381865afa1580156109b1573d6000803e3d6000fd5b505050506040513d601f19601f820116820180604052508101906109d59190611ed0565b6040518363ffffffff1660e01b81526004016109f2929190611f0c565b6020604051808303816000875af1158015610a11573d6000803e3d6000fd5b505050506040513d601f19601f82011682018060405250810190610a359190611f6d565b5060008054906101000a900473ffffffffffffffffffffffffffffffffffffffff1673ffffffffffffffffffffffffffffffffffffffff166318160ddd6040518163ffffffff1660e01b8152600401602060405180830381865afa158015610aa1573d6000803e3d6000fd5b505050506040513d601f19601f82011682018060405250810190610ac59190611ed0565b600460003073ffffffffffffffffffffffffffffffffffffffff1673ffffffffffffffffffffffffffffffffffffffff168152602001908152602001600020819055506001600060146101000a81548160ff021916908315150217905550565b600047905090565b60086020528060005260406000206000915090505481565b33610b4e6114d8565b60078190555042600681905550610b6481611187565b600960008373ffffffffffffffffffffffffffffffffffffffff1673ffffffffffffffffffffffffffffffffffffffff16815260200190815260200160002081905550600754600860008373ffffffffffffffffffffffffffffffffffffffff1673ffffffffffffffffffffffffffffffffffffffff168152602001908152602001600020819055506000821415610c31576040517f08c379a0000000000000000000000000000000000000000000000000000000008152600401610c2890611fe6565b60405180910390fd5b600082600460003373ffffffffffffffffffffffffffffffffffffffff1673ffffffffffffffffffffffffffffffffffffffff16815260200190815260200160002054610c7e9190612035565b1015610cbf576040517f08c379a0000000000000000000000000000000000000000000000000000000008152600401610cb6906120b5565b60405180910390fd5b81600a6000828254610cd19190612035565b9250508190555081600460003373ffffffffffffffffffffffffffffffffffffffff1673ffffffffffffffffffffffffffffffffffffffff1681526020019081526020016000206000828254610d279190612035565b9250508190555060008054906101000a900473ffffffffffffffffffffffffffffffffffffffff1673ffffffffffffffffffffffffffffffffffffffff166323b872dd3033856040518463ffffffff1660e01b8152600401610d8b939291906120d5565b6020604051808303816000875af1158015610daa573d6000803e3d6000fd5b505050506040513d601f19601f82011682018060405250810190610dce9190611f6d565b505050565b6060600160008373ffffffffffffffffffffffffffffffffffffffff1673ffffffffffffffffffffffffffffffffffffffff1681526020019081526020016000208054610e1f90611df7565b80601f0160208091040260200160405190810160405280929190818152602001828054610e4b90611df7565b8015610e985780601f10610e6d57610100808354040283529160200191610e98565b820191906000526020600020905b815481529060010190602001808311610e7b57829003601f168201915b50505050509050919050565b33610ead6114d8565b60078190555042600681905550610ec381611187565b600960008373ffffffffffffffffffffffffffffffffffffffff1673ffffffffffffffffffffffffffffffffffffffff16815260200190815260200160002081905550600754600860008373ffffffffffffffffffffffffffffffffffffffff1673ffffffffffffffffffffffffffffffffffffffff168152602001908152602001600020819055506127106103e861ffff165a610f61919061210c565b610f6b9190612195565b341015610fad576040517f08c379a0000000000000000000000000000000000000000000000000000000008152600401610fa490612238565b60405180910390fd5b6049600460003073ffffffffffffffffffffffffffffffffffffffff1673ffffffffffffffffffffffffffffffffffffffff1681526020019081526020016000206000828254610ffd9190612035565b925050819055506049600460003373ffffffffffffffffffffffffffffffffffffffff1673ffffffffffffffffffffffffffffffffffffffff16815260200190815260200160002060008282546110549190612258565b925050819055506049600a600082825461106e9190612258565b92505081905550600260008473ffffffffffffffffffffffffffffffffffffffff1673ffffffffffffffffffffffffffffffffffffffff16815260200190815260200160002060003373ffffffffffffffffffffffffffffffffffffffff1673ffffffffffffffffffffffffffffffffffffffff1681526020019081526020016000208290806001815401808255809150506001900390600052602060002001600090919091909150908051906020019061112a9291906115f8565b50505050565b80600160003373ffffffffffffffffffffffffffffffffffffffff1673ffffffffffffffffffffffffffffffffffffffff16815260200190815260200160002090805190602001906111839291906115f8565b5050565b600080600960008473ffffffffffffffffffffffffffffffffffffffff1673ffffffffffffffffffffffffffffffffffffffff16815260200190815260200160002054670de0b6b3a7640000600860008673ffffffffffffffffffffffffffffffffffffffff1673ffffffffffffffffffffffffffffffffffffffff1681526020019081526020016000205461121b6114d8565b61122591906122b8565b600460008773ffffffffffffffffffffffffffffffffffffffff1673ffffffffffffffffffffffffffffffffffffffff1681526020019081526020016000205461126f919061234c565b6112799190612463565b61128391906124cd565b905060008112156112c9576040517f08c379a00000000000000000000000000000000000000000000000000000000081526004016112c0906125ad565b60405180910390fd5b80915050919050565b60065481565b336112e16114d8565b600781905550426006819055506112f781611187565b600960008373ffffffffffffffffffffffffffffffffffffffff1673ffffffffffffffffffffffffffffffffffffffff16815260200190815260200160002081905550600754600860008373ffffffffffffffffffffffffffffffffffffffff1673ffffffffffffffffffffffffffffffffffffffff1681526020019081526020016000208190555060008214156113c4576040517f08c379a00000000000000000000000000000000000000000000000000000000081526004016113bb90611fe6565b60405180910390fd5b81600a60008282546113d69190612258565b9250508190555081600460003373ffffffffffffffffffffffffffffffffffffffff1673ffffffffffffffffffffffffffffffffffffffff168152602001908152602001600020600082825461142c9190612258565b9250508190555060008054906101000a900473ffffffffffffffffffffffffffffffffffffffff1673ffffffffffffffffffffffffffffffffffffffff166323b872dd3330856040518463ffffffff1660e01b8152600401611490939291906120d5565b6020604051808303816000875af11580156114af573d6000803e3d6000fd5b505050506040513d601f19601f820116820180604052508101906114d39190611f6d565b505050565b600080600a5414156114ed5760009050611538565b600a54670de0b6b3a76400006005546006544261150a9190612035565b611514919061210c565b61151e919061210c565b6115289190612195565b6007546115359190612258565b90505b90565b6103e881565b60075481565b60008273ffffffffffffffffffffffffffffffffffffffff168260405161156d906125fe565b60006040518083038185875af1925050503d80600081146115aa576040519150601f19603f3d011682016040523d82523d6000602084013e6115af565b606091505b50509050806115f3576040517f08c379a00000000000000000000000000000000000000000000000000000000081526004016115ea9061265f565b60405180910390fd5b505050565b82805461160490611df7565b90600052602060002090601f016020900481019282611626576000855561166d565b82601f1061163f57805160ff191683800117855561166d565b8280016001018555821561166d579182015b8281111561166c578251825591602001919060010190611651565b5b50905061167a919061167e565b5090565b5b8082111561169757600081600090555060010161167f565b5090565b6000604051905090565b600080fd5b600080fd5b600073ffffffffffffffffffffffffffffffffffffffff82169050919050565b60006116da826116af565b9050919050565b6116ea816116cf565b81146116f557600080fd5b50565b600081359050611707816116e1565b92915050565b600060208284031215611723576117226116a5565b5b6000611731848285016116f8565b91505092915050565b6000819050919050565b61174d8161173a565b82525050565b60006020820190506117686000830184611744565b92915050565b6000819050919050565b600061179361178e611789846116af565b61176e565b6116af565b9050919050565b60006117a582611778565b9050919050565b60006117b78261179a565b9050919050565b6117c7816117ac565b82525050565b60006020820190506117e260008301846117be565b92915050565b600081519050919050565b600082825260208201905092915050565b6000819050602082019050919050565b61181d816116cf565b82525050565b600061182f8383611814565b60208301905092915050565b6000602082019050919050565b6000611853826117e8565b61185d81856117f3565b935061186883611804565b8060005b838110156118995781516118808882611823565b975061188b8361183b565b92505060018101905061186c565b5085935050505092915050565b600060208201905081810360008301526118c08184611848565b905092915050565b600080604083850312156118df576118de6116a5565b5b60006118ed858286016116f8565b92505060206118fe858286016116f8565b9150509250929050565b600081519050919050565b600082825260208201905092915050565b6000819050602082019050919050565b600081519050919050565b600082825260208201905092915050565b60005b8381101561196e578082015181840152602081019050611953565b8381111561197d576000848401525b50505050565b6000601f19601f8301169050919050565b600061199f82611934565b6119a9818561193f565b93506119b9818560208601611950565b6119c281611983565b840191505092915050565b60006119d98383611994565b905092915050565b6000602082019050919050565b60006119f982611908565b611a038185611913565b935083602082028501611a1585611924565b8060005b85811015611a515784840389528151611a3285826119cd565b9450611a3d836119e1565b925060208a01995050600181019050611a19565b50829750879550505050505092915050565b60006020820190508181036000830152611a7d81846119ee565b905092915050565b611a8e8161173a565b8114611a9957600080fd5b50565b600081359050611aab81611a85565b92915050565b600060208284031215611ac757611ac66116a5565b5b6000611ad584828501611a9c565b91505092915050565b600082825260208201905092915050565b6000611afa82611934565b611b048185611ade565b9350611b14818560208601611950565b611b1d81611983565b840191505092915050565b60006020820190508181036000830152611b428184611aef565b905092915050565b600080fd5b600080fd5b7f4e487b7100000000000000000000000000000000000000000000000000000000600052604160045260246000fd5b611b8c82611983565b810181811067ffffffffffffffff82111715611bab57611baa611b54565b5b80604052505050565b6000611bbe61169b565b9050611bca8282611b83565b919050565b600067ffffffffffffffff821115611bea57611be9611b54565b5b611bf382611983565b9050602081019050919050565b82818337600083830152505050565b6000611c22611c1d84611bcf565b611bb4565b905082815260208101848484011115611c3e57611c3d611b4f565b5b611c49848285611c00565b509392505050565b600082601f830112611c6657611c65611b4a565b5b8135611c76848260208601611c0f565b91505092915050565b60008060408385031215611c9657611c956116a5565b5b6000611ca4858286016116f8565b925050602083013567ffffffffffffffff811115611cc557611cc46116aa565b5b611cd185828601611c51565b9150509250929050565b600060208284031215611cf157611cf06116a5565b5b600082013567ffffffffffffffff811115611d0f57611d0e6116aa565b5b611d1b84828501611c51565b91505092915050565b600061ffff82169050919050565b611d3b81611d24565b82525050565b6000602082019050611d566000830184611d32565b92915050565b7f44656230783a20796f7572207265776172642062616c616e6365206973203000600082015250565b6000611d92601f83611ade565b9150611d9d82611d5c565b602082019050919050565b60006020820190508181036000830152611dc181611d85565b9050919050565b7f4e487b7100000000000000000000000000000000000000000000000000000000600052602260045260246000fd5b60006002820490506001821680611e0f57607f821691505b60208210811415611e2357611e22611dc8565b5b50919050565b7f44656230783a20696e697469616c697a6528292063616e2062652063616c6c6560008201527f64206a757374206f6e6365000000000000000000000000000000000000000000602082015250565b6000611e85602b83611ade565b9150611e9082611e29565b604082019050919050565b60006020820190508181036000830152611eb481611e78565b9050919050565b600081519050611eca81611a85565b92915050565b600060208284031215611ee657611ee56116a5565b5b6000611ef484828501611ebb565b91505092915050565b611f06816116cf565b82525050565b6000604082019050611f216000830185611efd565b611f2e6020830184611744565b9392505050565b60008115159050919050565b611f4a81611f35565b8114611f5557600080fd5b50565b600081519050611f6781611f41565b92915050565b600060208284031215611f8357611f826116a5565b5b6000611f9184828501611f58565b91505092915050565b7f44656230783a20796f757220616d6f756e742069732030000000000000000000600082015250565b6000611fd0601783611ade565b9150611fdb82611f9a565b602082019050919050565b60006020820190508181036000830152611fff81611fc3565b9050919050565b7f4e487b7100000000000000000000000000000000000000000000000000000000600052601160045260246000fd5b60006120408261173a565b915061204b8361173a565b92508282101561205e5761205d612006565b5b828203905092915050565b7f44656230783a20696e73756666696369656e742062616c616e63650000000000600082015250565b600061209f601b83611ade565b91506120aa82612069565b602082019050919050565b600060208201905081810360008301526120ce81612092565b9050919050565b60006060820190506120ea6000830186611efd565b6120f76020830185611efd565b6121046040830184611744565b949350505050565b60006121178261173a565b91506121228361173a565b9250817fffffffffffffffffffffffffffffffffffffffffffffffffffffffffffffffff048311821515161561215b5761215a612006565b5b828202905092915050565b7f4e487b7100000000000000000000000000000000000000000000000000000000600052601260045260246000fd5b60006121a08261173a565b91506121ab8361173a565b9250826121bb576121ba612166565b5b828204905092915050565b7f44656230783a206d7573742070617920313025206f66207472616e736163746960008201527f6f6e20636f737400000000000000000000000000000000000000000000000000602082015250565b6000612222602783611ade565b915061222d826121c6565b604082019050919050565b6000602082019050818103600083015261225181612215565b9050919050565b60006122638261173a565b915061226e8361173a565b9250827fffffffffffffffffffffffffffffffffffffffffffffffffffffffffffffffff038211156122a3576122a2612006565b5b828201905092915050565b6000819050919050565b60006122c3826122ae565b91506122ce836122ae565b9250827f80000000000000000000000000000000000000000000000000000000000000000182126000841215161561230957612308612006565b5b827f7fffffffffffffffffffffffffffffffffffffffffffffffffffffffffffffff01821360008412161561234157612340612006565b5b828203905092915050565b6000612357826122ae565b9150612362836122ae565b9250827f7fffffffffffffffffffffffffffffffffffffffffffffffffffffffffffffff04821160008413600084131616156123a1576123a0612006565b5b817f800000000000000000000000000000000000000000000000000000000000000005831260008412600084131616156123de576123dd612006565b5b827f8000000000000000000000000000000000000000000000000000000000000000058212600084136000841216161561241b5761241a612006565b5b827f7fffffffffffffffffffffffffffffffffffffffffffffffffffffffffffffff058212600084126000841216161561245857612457612006565b5b828202905092915050565b600061246e826122ae565b9150612479836122ae565b92508261248957612488612166565b5b600160000383147f8000000000000000000000000000000000000000000000000000000000000000831416156124c2576124c1612006565b5b828205905092915050565b60006124d8826122ae565b91506124e3836122ae565b9250817f7fffffffffffffffffffffffffffffffffffffffffffffffffffffffffffffff0383136000831215161561251e5761251d612006565b5b817f800000000000000000000000000000000000000000000000000000000000000003831260008312161561255657612555612006565b5b828201905092915050565b7f44656230783a2063616c63756c757320697320756e6465722030000000000000600082015250565b6000612597601a83611ade565b91506125a282612561565b602082019050919050565b600060208201905081810360008301526125c68161258a565b9050919050565b600081905092915050565b50565b60006125e86000836125cd565b91506125f3826125d8565b600082019050919050565b6000612609826125db565b9150819050919050565b7f44656230783a206661696c656420746f2073656e6420616d6f756e7400000000600082015250565b6000612649601c83611ade565b915061265482612613565b602082019050919050565b600060208201905081810360008301526126788161263c565b905091905056fea26469706673582212200f42a7b75a8ef56966b057c03a67dd5b27ae607f4944b31ab7f62e3d7dfb1e7664736f6c634300080c003360806040523480156200001157600080fd5b506040516200190a3803806200190a833981810160405281019062000037919062000397565b6040518060400160405280600581526020017f44656230780000000000000000000000000000000000000000000000000000008152506040518060400160405280600381526020017f44425800000000000000000000000000000000000000000000000000000000008152508160039080519060200190620000bb9291906200027d565b508060049080519060200190620000d49291906200027d565b505050620000f38169d3c21bcecceda1000000620000fa60201b60201c565b5062000575565b600073ffffffffffffffffffffffffffffffffffffffff168273ffffffffffffffffffffffffffffffffffffffff1614156200016d576040517f08c379a000000000000000000000000000000000000000000000000000000000815260040162000164906200042a565b60405180910390fd5b62000181600083836200027360201b60201c565b806002600082825462000195919062000485565b92505081905550806000808473ffffffffffffffffffffffffffffffffffffffff1673ffffffffffffffffffffffffffffffffffffffff1681526020019081526020016000206000828254620001ec919062000485565b925050819055508173ffffffffffffffffffffffffffffffffffffffff16600073ffffffffffffffffffffffffffffffffffffffff167fddf252ad1be2c89b69c2b068fc378daa952ba7f163c4a11628f55a4df523b3ef83604051620002539190620004f3565b60405180910390a36200026f600083836200027860201b60201c565b5050565b505050565b505050565b8280546200028b906200053f565b90600052602060002090601f016020900481019282620002af5760008555620002fb565b82601f10620002ca57805160ff1916838001178555620002fb565b82800160010185558215620002fb579182015b82811115620002fa578251825591602001919060010190620002dd565b5b5090506200030a91906200030e565b5090565b5b80821115620003295760008160009055506001016200030f565b5090565b600080fd5b600073ffffffffffffffffffffffffffffffffffffffff82169050919050565b60006200035f8262000332565b9050919050565b620003718162000352565b81146200037d57600080fd5b50565b600081519050620003918162000366565b92915050565b600060208284031215620003b057620003af6200032d565b5b6000620003c08482850162000380565b91505092915050565b600082825260208201905092915050565b7f45524332303a206d696e7420746f20746865207a65726f206164647265737300600082015250565b600062000412601f83620003c9565b91506200041f82620003da565b602082019050919050565b60006020820190508181036000830152620004458162000403565b9050919050565b6000819050919050565b7f4e487b7100000000000000000000000000000000000000000000000000000000600052601160045260246000fd5b600062000492826200044c565b91506200049f836200044c565b9250827fffffffffffffffffffffffffffffffffffffffffffffffffffffffffffffffff03821115620004d757620004d662000456565b5b828201905092915050565b620004ed816200044c565b82525050565b60006020820190506200050a6000830184620004e2565b92915050565b7f4e487b7100000000000000000000000000000000000000000000000000000000600052602260045260246000fd5b600060028204905060018216806200055857607f821691505b602082108114156200056f576200056e62000510565b5b50919050565b61138580620005856000396000f3fe608060405234801561001057600080fd5b50600436106100b45760003560e01c806370a082311161007157806370a08231146101a3578063902d55a5146101d357806395d89b41146101f1578063a457c2d71461020f578063a9059cbb1461023f578063dd62ed3e1461026f576100b4565b806306fdde03146100b9578063095ea7b3146100d757806318160ddd1461010757806323b872dd14610125578063313ce567146101555780633950935114610173575b600080fd5b6100c161029f565b6040516100ce9190610c3f565b60405180910390f35b6100f160048036038101906100ec9190610cfa565b610331565b6040516100fe9190610d55565b60405180910390f35b61010f610354565b60405161011c9190610d7f565b60405180910390f35b61013f600480360381019061013a9190610d9a565b61035e565b60405161014c9190610d55565b60405180910390f35b61015d61038d565b60405161016a9190610e09565b60405180910390f35b61018d60048036038101906101889190610cfa565b610396565b60405161019a9190610d55565b60405180910390f35b6101bd60048036038101906101b89190610e24565b610440565b6040516101ca9190610d7f565b60405180910390f35b6101db610488565b6040516101e89190610d7f565b60405180910390f35b6101f9610496565b6040516102069190610c3f565b60405180910390f35b61022960048036038101906102249190610cfa565b610528565b6040516102369190610d55565b60405180910390f35b61025960048036038101906102549190610cfa565b610612565b6040516102669190610d55565b60405180910390f35b61028960048036038101906102849190610e51565b610635565b6040516102969190610d7f565b60405180910390f35b6060600380546102ae90610ec0565b80601f01602080910402602001604051908101604052809291908181526020018280546102da90610ec0565b80156103275780601f106102fc57610100808354040283529160200191610327565b820191906000526020600020905b81548152906001019060200180831161030a57829003601f168201915b5050505050905090565b60008061033c6106bc565b90506103498185856106c4565b600191505092915050565b6000600254905090565b6000806103696106bc565b905061037685828561088f565b61038185858561091b565b60019150509392505050565b60006012905090565b6000806103a16106bc565b9050610435818585600160008673ffffffffffffffffffffffffffffffffffffffff1673ffffffffffffffffffffffffffffffffffffffff16815260200190815260200160002060008973ffffffffffffffffffffffffffffffffffffffff1673ffffffffffffffffffffffffffffffffffffffff168152602001908152602001600020546104309190610f21565b6106c4565b600191505092915050565b60008060008373ffffffffffffffffffffffffffffffffffffffff1673ffffffffffffffffffffffffffffffffffffffff168152602001908152602001600020549050919050565b69d3c21bcecceda100000081565b6060600480546104a590610ec0565b80601f01602080910402602001604051908101604052809291908181526020018280546104d190610ec0565b801561051e5780601f106104f35761010080835404028352916020019161051e565b820191906000526020600020905b81548152906001019060200180831161050157829003601f168201915b5050505050905090565b6000806105336106bc565b90506000600160008373ffffffffffffffffffffffffffffffffffffffff1673ffffffffffffffffffffffffffffffffffffffff16815260200190815260200160002060008673ffffffffffffffffffffffffffffffffffffffff1673ffffffffffffffffffffffffffffffffffffffff168152602001908152602001600020549050838110156105f9576040517f08c379a00000000000000000000000000000000000000000000000000000000081526004016105f090610fe9565b60405180910390fd5b61060682868684036106c4565b60019250505092915050565b60008061061d6106bc565b905061062a81858561091b565b600191505092915050565b6000600160008473ffffffffffffffffffffffffffffffffffffffff1673ffffffffffffffffffffffffffffffffffffffff16815260200190815260200160002060008373ffffffffffffffffffffffffffffffffffffffff1673ffffffffffffffffffffffffffffffffffffffff16815260200190815260200160002054905092915050565b600033905090565b600073ffffffffffffffffffffffffffffffffffffffff168373ffffffffffffffffffffffffffffffffffffffff161415610734576040517f08c379a000000000000000000000000000000000000000000000000000000000815260040161072b9061107b565b60405180910390fd5b600073ffffffffffffffffffffffffffffffffffffffff168273ffffffffffffffffffffffffffffffffffffffff1614156107a4576040517f08c379a000000000000000000000000000000000000000000000000000000000815260040161079b9061110d565b60405180910390fd5b80600160008573ffffffffffffffffffffffffffffffffffffffff1673ffffffffffffffffffffffffffffffffffffffff16815260200190815260200160002060008473ffffffffffffffffffffffffffffffffffffffff1673ffffffffffffffffffffffffffffffffffffffff168152602001908152602001600020819055508173ffffffffffffffffffffffffffffffffffffffff168373ffffffffffffffffffffffffffffffffffffffff167f8c5be1e5ebec7d5bd14f71427d1e84f3dd0314c0f7b2291e5b200ac8c7c3b925836040516108829190610d7f565b60405180910390a3505050565b600061089b8484610635565b90507fffffffffffffffffffffffffffffffffffffffffffffffffffffffffffffffff81146109155781811015610907576040517f08c379a00000000000000000000000000000000000000000000000000000000081526004016108fe90611179565b60405180910390fd5b61091484848484036106c4565b5b50505050565b600073ffffffffffffffffffffffffffffffffffffffff168373ffffffffffffffffffffffffffffffffffffffff16141561098b576040517f08c379a00000000000000000000000000000000000000000000000000000000081526004016109829061120b565b60405180910390fd5b600073ffffffffffffffffffffffffffffffffffffffff168273ffffffffffffffffffffffffffffffffffffffff1614156109fb576040517f08c379a00000000000000000000000000000000000000000000000000000000081526004016109f29061129d565b60405180910390fd5b610a06838383610b9c565b60008060008573ffffffffffffffffffffffffffffffffffffffff1673ffffffffffffffffffffffffffffffffffffffff16815260200190815260200160002054905081811015610a8c576040517f08c379a0000000000000000000000000000000000000000000000000000000008152600401610a839061132f565b60405180910390fd5b8181036000808673ffffffffffffffffffffffffffffffffffffffff1673ffffffffffffffffffffffffffffffffffffffff16815260200190815260200160002081905550816000808573ffffffffffffffffffffffffffffffffffffffff1673ffffffffffffffffffffffffffffffffffffffff1681526020019081526020016000206000828254610b1f9190610f21565b925050819055508273ffffffffffffffffffffffffffffffffffffffff168473ffffffffffffffffffffffffffffffffffffffff167fddf252ad1be2c89b69c2b068fc378daa952ba7f163c4a11628f55a4df523b3ef84604051610b839190610d7f565b60405180910390a3610b96848484610ba1565b50505050565b505050565b505050565b600081519050919050565b600082825260208201905092915050565b60005b83811015610be0578082015181840152602081019050610bc5565b83811115610bef576000848401525b50505050565b6000601f19601f8301169050919050565b6000610c1182610ba6565b610c1b8185610bb1565b9350610c2b818560208601610bc2565b610c3481610bf5565b840191505092915050565b60006020820190508181036000830152610c598184610c06565b905092915050565b600080fd5b600073ffffffffffffffffffffffffffffffffffffffff82169050919050565b6000610c9182610c66565b9050919050565b610ca181610c86565b8114610cac57600080fd5b50565b600081359050610cbe81610c98565b92915050565b6000819050919050565b610cd781610cc4565b8114610ce257600080fd5b50565b600081359050610cf481610cce565b92915050565b60008060408385031215610d1157610d10610c61565b5b6000610d1f85828601610caf565b9250506020610d3085828601610ce5565b9150509250929050565b60008115159050919050565b610d4f81610d3a565b82525050565b6000602082019050610d6a6000830184610d46565b92915050565b610d7981610cc4565b82525050565b6000602082019050610d946000830184610d70565b92915050565b600080600060608486031215610db357610db2610c61565b5b6000610dc186828701610caf565b9350506020610dd286828701610caf565b9250506040610de386828701610ce5565b9150509250925092565b600060ff82169050919050565b610e0381610ded565b82525050565b6000602082019050610e1e6000830184610dfa565b92915050565b600060208284031215610e3a57610e39610c61565b5b6000610e4884828501610caf565b91505092915050565b60008060408385031215610e6857610e67610c61565b5b6000610e7685828601610caf565b9250506020610e8785828601610caf565b9150509250929050565b7f4e487b7100000000000000000000000000000000000000000000000000000000600052602260045260246000fd5b60006002820490506001821680610ed857607f821691505b60208210811415610eec57610eeb610e91565b5b50919050565b7f4e487b7100000000000000000000000000000000000000000000000000000000600052601160045260246000fd5b6000610f2c82610cc4565b9150610f3783610cc4565b9250827fffffffffffffffffffffffffffffffffffffffffffffffffffffffffffffffff03821115610f6c57610f6b610ef2565b5b828201905092915050565b7f45524332303a2064656372656173656420616c6c6f77616e63652062656c6f7760008201527f207a65726f000000000000000000000000000000000000000000000000000000602082015250565b6000610fd3602583610bb1565b9150610fde82610f77565b604082019050919050565b6000602082019050818103600083015261100281610fc6565b9050919050565b7f45524332303a20617070726f76652066726f6d20746865207a65726f2061646460008201527f7265737300000000000000000000000000000000000000000000000000000000602082015250565b6000611065602483610bb1565b915061107082611009565b604082019050919050565b6000602082019050818103600083015261109481611058565b9050919050565b7f45524332303a20617070726f766520746f20746865207a65726f20616464726560008201527f7373000000000000000000000000000000000000000000000000000000000000602082015250565b60006110f7602283610bb1565b91506111028261109b565b604082019050919050565b60006020820190508181036000830152611126816110ea565b9050919050565b7f45524332303a20696e73756666696369656e7420616c6c6f77616e6365000000600082015250565b6000611163601d83610bb1565b915061116e8261112d565b602082019050919050565b6000602082019050818103600083015261119281611156565b9050919050565b7f45524332303a207472616e736665722066726f6d20746865207a65726f20616460008201527f6472657373000000000000000000000000000000000000000000000000000000602082015250565b60006111f5602583610bb1565b915061120082611199565b604082019050919050565b60006020820190508181036000830152611224816111e8565b9050919050565b7f45524332303a207472616e7366657220746f20746865207a65726f206164647260008201527f6573730000000000000000000000000000000000000000000000000000000000602082015250565b6000611287602383610bb1565b91506112928261122b565b604082019050919050565b600060208201905081810360008301526112b68161127a565b9050919050565b7f45524332303a207472616e7366657220616d6f756e742065786365656473206260008201527f616c616e63650000000000000000000000000000000000000000000000000000602082015250565b6000611319602683610bb1565b9150611324826112bd565b604082019050919050565b600060208201905081810360008301526113488161130c565b905091905056fea26469706673582212203f0e735d7498efb898df88c7bb27040b07eb75fac6c01d2087148b9cd6cc91fc64736f6c634300080c0033",
  "linkReferences": {},
  "deployedLinkReferences": {}
}