{
  "_format": "hh-sol-artifact-1",
  "contractName": "Deb0xERC20",
  "sourceName": "contracts/Deb0xERC20.sol",
  "abi": [
    {
      "inputs": [
        {
          "internalType": "address",
          "name": "deb0x",
          "type": "address"
        }
      ],
      "stateMutability": "nonpayable",
      "type": "constructor"
    },
    {
      "anonymous": false,
      "inputs": [
        {
          "indexed": true,
          "internalType": "address",
          "name": "owner",
          "type": "address"
        },
        {
          "indexed": true,
          "internalType": "address",
          "name": "spender",
          "type": "address"
        },
        {
          "indexed": false,
          "internalType": "uint256",
          "name": "value",
          "type": "uint256"
        }
      ],
      "name": "Approval",
      "type": "event"
    },
    {
      "anonymous": false,
      "inputs": [
        {
          "indexed": true,
          "internalType": "address",
          "name": "from",
          "type": "address"
        },
        {
          "indexed": true,
          "internalType": "address",
          "name": "to",
          "type": "address"
        },
        {
          "indexed": false,
          "internalType": "uint256",
          "name": "value",
          "type": "uint256"
        }
      ],
      "name": "Transfer",
      "type": "event"
    },
    {
      "inputs": [],
      "name": "TOTAL_SUPPLY",
      "outputs": [
        {
          "internalType": "uint256",
          "name": "",
          "type": "uint256"
        }
      ],
      "stateMutability": "view",
      "type": "function"
    },
    {
      "inputs": [
        {
          "internalType": "address",
          "name": "owner",
          "type": "address"
        },
        {
          "internalType": "address",
          "name": "spender",
          "type": "address"
        }
      ],
      "name": "allowance",
      "outputs": [
        {
          "internalType": "uint256",
          "name": "",
          "type": "uint256"
        }
      ],
      "stateMutability": "view",
      "type": "function"
    },
    {
      "inputs": [
        {
          "internalType": "address",
          "name": "spender",
          "type": "address"
        },
        {
          "internalType": "uint256",
          "name": "amount",
          "type": "uint256"
        }
      ],
      "name": "approve",
      "outputs": [
        {
          "internalType": "bool",
          "name": "",
          "type": "bool"
        }
      ],
      "stateMutability": "nonpayable",
      "type": "function"
    },
    {
      "inputs": [
        {
          "internalType": "address",
          "name": "account",
          "type": "address"
        }
      ],
      "name": "balanceOf",
      "outputs": [
        {
          "internalType": "uint256",
          "name": "",
          "type": "uint256"
        }
      ],
      "stateMutability": "view",
      "type": "function"
    },
    {
      "inputs": [],
      "name": "decimals",
      "outputs": [
        {
          "internalType": "uint8",
          "name": "",
          "type": "uint8"
        }
      ],
      "stateMutability": "view",
      "type": "function"
    },
    {
      "inputs": [
        {
          "internalType": "address",
          "name": "spender",
          "type": "address"
        },
        {
          "internalType": "uint256",
          "name": "subtractedValue",
          "type": "uint256"
        }
      ],
      "name": "decreaseAllowance",
      "outputs": [
        {
          "internalType": "bool",
          "name": "",
          "type": "bool"
        }
      ],
      "stateMutability": "nonpayable",
      "type": "function"
    },
    {
      "inputs": [
        {
          "internalType": "address",
          "name": "spender",
          "type": "address"
        },
        {
          "internalType": "uint256",
          "name": "addedValue",
          "type": "uint256"
        }
      ],
      "name": "increaseAllowance",
      "outputs": [
        {
          "internalType": "bool",
          "name": "",
          "type": "bool"
        }
      ],
      "stateMutability": "nonpayable",
      "type": "function"
    },
    {
      "inputs": [],
      "name": "name",
      "outputs": [
        {
          "internalType": "string",
          "name": "",
          "type": "string"
        }
      ],
      "stateMutability": "view",
      "type": "function"
    },
    {
      "inputs": [],
      "name": "symbol",
      "outputs": [
        {
          "internalType": "string",
          "name": "",
          "type": "string"
        }
      ],
      "stateMutability": "view",
      "type": "function"
    },
    {
      "inputs": [],
      "name": "totalSupply",
      "outputs": [
        {
          "internalType": "uint256",
          "name": "",
          "type": "uint256"
        }
      ],
      "stateMutability": "view",
      "type": "function"
    },
    {
      "inputs": [
        {
          "internalType": "address",
          "name": "to",
          "type": "address"
        },
        {
          "internalType": "uint256",
          "name": "amount",
          "type": "uint256"
        }
      ],
      "name": "transfer",
      "outputs": [
        {
          "internalType": "bool",
          "name": "",
          "type": "bool"
        }
      ],
      "stateMutability": "nonpayable",
      "type": "function"
    },
    {
      "inputs": [
        {
          "internalType": "address",
          "name": "from",
          "type": "address"
        },
        {
          "internalType": "address",
          "name": "to",
          "type": "address"
        },
        {
          "internalType": "uint256",
          "name": "amount",
          "type": "uint256"
        }
      ],
      "name": "transferFrom",
      "outputs": [
        {
          "internalType": "bool",
          "name": "",
          "type": "bool"
        }
      ],
      "stateMutability": "nonpayable",
      "type": "function"
    }
  ],
  "bytecode": "0x60806040523480156200001157600080fd5b506040516200190a3803806200190a833981810160405281019062000037919062000397565b6040518060400160405280600581526020017f44656230780000000000000000000000000000000000000000000000000000008152506040518060400160405280600381526020017f44425800000000000000000000000000000000000000000000000000000000008152508160039080519060200190620000bb9291906200027d565b508060049080519060200190620000d49291906200027d565b505050620000f38169d3c21bcecceda1000000620000fa60201b60201c565b5062000575565b600073ffffffffffffffffffffffffffffffffffffffff168273ffffffffffffffffffffffffffffffffffffffff1614156200016d576040517f08c379a000000000000000000000000000000000000000000000000000000000815260040162000164906200042a565b60405180910390fd5b62000181600083836200027360201b60201c565b806002600082825462000195919062000485565b92505081905550806000808473ffffffffffffffffffffffffffffffffffffffff1673ffffffffffffffffffffffffffffffffffffffff1681526020019081526020016000206000828254620001ec919062000485565b925050819055508173ffffffffffffffffffffffffffffffffffffffff16600073ffffffffffffffffffffffffffffffffffffffff167fddf252ad1be2c89b69c2b068fc378daa952ba7f163c4a11628f55a4df523b3ef83604051620002539190620004f3565b60405180910390a36200026f600083836200027860201b60201c565b5050565b505050565b505050565b8280546200028b906200053f565b90600052602060002090601f016020900481019282620002af5760008555620002fb565b82601f10620002ca57805160ff1916838001178555620002fb565b82800160010185558215620002fb579182015b82811115620002fa578251825591602001919060010190620002dd565b5b5090506200030a91906200030e565b5090565b5b80821115620003295760008160009055506001016200030f565b5090565b600080fd5b600073ffffffffffffffffffffffffffffffffffffffff82169050919050565b60006200035f8262000332565b9050919050565b620003718162000352565b81146200037d57600080fd5b50565b600081519050620003918162000366565b92915050565b600060208284031215620003b057620003af6200032d565b5b6000620003c08482850162000380565b91505092915050565b600082825260208201905092915050565b7f45524332303a206d696e7420746f20746865207a65726f206164647265737300600082015250565b600062000412601f83620003c9565b91506200041f82620003da565b602082019050919050565b60006020820190508181036000830152620004458162000403565b9050919050565b6000819050919050565b7f4e487b7100000000000000000000000000000000000000000000000000000000600052601160045260246000fd5b600062000492826200044c565b91506200049f836200044c565b9250827fffffffffffffffffffffffffffffffffffffffffffffffffffffffffffffffff03821115620004d757620004d662000456565b5b828201905092915050565b620004ed816200044c565b82525050565b60006020820190506200050a6000830184620004e2565b92915050565b7f4e487b7100000000000000000000000000000000000000000000000000000000600052602260045260246000fd5b600060028204905060018216806200055857607f821691505b602082108114156200056f576200056e62000510565b5b50919050565b61138580620005856000396000f3fe608060405234801561001057600080fd5b50600436106100b45760003560e01c806370a082311161007157806370a08231146101a3578063902d55a5146101d357806395d89b41146101f1578063a457c2d71461020f578063a9059cbb1461023f578063dd62ed3e1461026f576100b4565b806306fdde03146100b9578063095ea7b3146100d757806318160ddd1461010757806323b872dd14610125578063313ce567146101555780633950935114610173575b600080fd5b6100c161029f565b6040516100ce9190610c3f565b60405180910390f35b6100f160048036038101906100ec9190610cfa565b610331565b6040516100fe9190610d55565b60405180910390f35b61010f610354565b60405161011c9190610d7f565b60405180910390f35b61013f600480360381019061013a9190610d9a565b61035e565b60405161014c9190610d55565b60405180910390f35b61015d61038d565b60405161016a9190610e09565b60405180910390f35b61018d60048036038101906101889190610cfa565b610396565b60405161019a9190610d55565b60405180910390f35b6101bd60048036038101906101b89190610e24565b610440565b6040516101ca9190610d7f565b60405180910390f35b6101db610488565b6040516101e89190610d7f565b60405180910390f35b6101f9610496565b6040516102069190610c3f565b60405180910390f35b61022960048036038101906102249190610cfa565b610528565b6040516102369190610d55565b60405180910390f35b61025960048036038101906102549190610cfa565b610612565b6040516102669190610d55565b60405180910390f35b61028960048036038101906102849190610e51565b610635565b6040516102969190610d7f565b60405180910390f35b6060600380546102ae90610ec0565b80601f01602080910402602001604051908101604052809291908181526020018280546102da90610ec0565b80156103275780601f106102fc57610100808354040283529160200191610327565b820191906000526020600020905b81548152906001019060200180831161030a57829003601f168201915b5050505050905090565b60008061033c6106bc565b90506103498185856106c4565b600191505092915050565b6000600254905090565b6000806103696106bc565b905061037685828561088f565b61038185858561091b565b60019150509392505050565b60006012905090565b6000806103a16106bc565b9050610435818585600160008673ffffffffffffffffffffffffffffffffffffffff1673ffffffffffffffffffffffffffffffffffffffff16815260200190815260200160002060008973ffffffffffffffffffffffffffffffffffffffff1673ffffffffffffffffffffffffffffffffffffffff168152602001908152602001600020546104309190610f21565b6106c4565b600191505092915050565b60008060008373ffffffffffffffffffffffffffffffffffffffff1673ffffffffffffffffffffffffffffffffffffffff168152602001908152602001600020549050919050565b69d3c21bcecceda100000081565b6060600480546104a590610ec0565b80601f01602080910402602001604051908101604052809291908181526020018280546104d190610ec0565b801561051e5780601f106104f35761010080835404028352916020019161051e565b820191906000526020600020905b81548152906001019060200180831161050157829003601f168201915b5050505050905090565b6000806105336106bc565b90506000600160008373ffffffffffffffffffffffffffffffffffffffff1673ffffffffffffffffffffffffffffffffffffffff16815260200190815260200160002060008673ffffffffffffffffffffffffffffffffffffffff1673ffffffffffffffffffffffffffffffffffffffff168152602001908152602001600020549050838110156105f9576040517f08c379a00000000000000000000000000000000000000000000000000000000081526004016105f090610fe9565b60405180910390fd5b61060682868684036106c4565b60019250505092915050565b60008061061d6106bc565b905061062a81858561091b565b600191505092915050565b6000600160008473ffffffffffffffffffffffffffffffffffffffff1673ffffffffffffffffffffffffffffffffffffffff16815260200190815260200160002060008373ffffffffffffffffffffffffffffffffffffffff1673ffffffffffffffffffffffffffffffffffffffff16815260200190815260200160002054905092915050565b600033905090565b600073ffffffffffffffffffffffffffffffffffffffff168373ffffffffffffffffffffffffffffffffffffffff161415610734576040517f08c379a000000000000000000000000000000000000000000000000000000000815260040161072b9061107b565b60405180910390fd5b600073ffffffffffffffffffffffffffffffffffffffff168273ffffffffffffffffffffffffffffffffffffffff1614156107a4576040517f08c379a000000000000000000000000000000000000000000000000000000000815260040161079b9061110d565b60405180910390fd5b80600160008573ffffffffffffffffffffffffffffffffffffffff1673ffffffffffffffffffffffffffffffffffffffff16815260200190815260200160002060008473ffffffffffffffffffffffffffffffffffffffff1673ffffffffffffffffffffffffffffffffffffffff168152602001908152602001600020819055508173ffffffffffffffffffffffffffffffffffffffff168373ffffffffffffffffffffffffffffffffffffffff167f8c5be1e5ebec7d5bd14f71427d1e84f3dd0314c0f7b2291e5b200ac8c7c3b925836040516108829190610d7f565b60405180910390a3505050565b600061089b8484610635565b90507fffffffffffffffffffffffffffffffffffffffffffffffffffffffffffffffff81146109155781811015610907576040517f08c379a00000000000000000000000000000000000000000000000000000000081526004016108fe90611179565b60405180910390fd5b61091484848484036106c4565b5b50505050565b600073ffffffffffffffffffffffffffffffffffffffff168373ffffffffffffffffffffffffffffffffffffffff16141561098b576040517f08c379a00000000000000000000000000000000000000000000000000000000081526004016109829061120b565b60405180910390fd5b600073ffffffffffffffffffffffffffffffffffffffff168273ffffffffffffffffffffffffffffffffffffffff1614156109fb576040517f08c379a00000000000000000000000000000000000000000000000000000000081526004016109f29061129d565b60405180910390fd5b610a06838383610b9c565b60008060008573ffffffffffffffffffffffffffffffffffffffff1673ffffffffffffffffffffffffffffffffffffffff16815260200190815260200160002054905081811015610a8c576040517f08c379a0000000000000000000000000000000000000000000000000000000008152600401610a839061132f565b60405180910390fd5b8181036000808673ffffffffffffffffffffffffffffffffffffffff1673ffffffffffffffffffffffffffffffffffffffff16815260200190815260200160002081905550816000808573ffffffffffffffffffffffffffffffffffffffff1673ffffffffffffffffffffffffffffffffffffffff1681526020019081526020016000206000828254610b1f9190610f21565b925050819055508273ffffffffffffffffffffffffffffffffffffffff168473ffffffffffffffffffffffffffffffffffffffff167fddf252ad1be2c89b69c2b068fc378daa952ba7f163c4a11628f55a4df523b3ef84604051610b839190610d7f565b60405180910390a3610b96848484610ba1565b50505050565b505050565b505050565b600081519050919050565b600082825260208201905092915050565b60005b83811015610be0578082015181840152602081019050610bc5565b83811115610bef576000848401525b50505050565b6000601f19601f8301169050919050565b6000610c1182610ba6565b610c1b8185610bb1565b9350610c2b818560208601610bc2565b610c3481610bf5565b840191505092915050565b60006020820190508181036000830152610c598184610c06565b905092915050565b600080fd5b600073ffffffffffffffffffffffffffffffffffffffff82169050919050565b6000610c9182610c66565b9050919050565b610ca181610c86565b8114610cac57600080fd5b50565b600081359050610cbe81610c98565b92915050565b6000819050919050565b610cd781610cc4565b8114610ce257600080fd5b50565b600081359050610cf481610cce565b92915050565b60008060408385031215610d1157610d10610c61565b5b6000610d1f85828601610caf565b9250506020610d3085828601610ce5565b9150509250929050565b60008115159050919050565b610d4f81610d3a565b82525050565b6000602082019050610d6a6000830184610d46565b92915050565b610d7981610cc4565b82525050565b6000602082019050610d946000830184610d70565b92915050565b600080600060608486031215610db357610db2610c61565b5b6000610dc186828701610caf565b9350506020610dd286828701610caf565b9250506040610de386828701610ce5565b9150509250925092565b600060ff82169050919050565b610e0381610ded565b82525050565b6000602082019050610e1e6000830184610dfa565b92915050565b600060208284031215610e3a57610e39610c61565b5b6000610e4884828501610caf565b91505092915050565b60008060408385031215610e6857610e67610c61565b5b6000610e7685828601610caf565b9250506020610e8785828601610caf565b9150509250929050565b7f4e487b7100000000000000000000000000000000000000000000000000000000600052602260045260246000fd5b60006002820490506001821680610ed857607f821691505b60208210811415610eec57610eeb610e91565b5b50919050565b7f4e487b7100000000000000000000000000000000000000000000000000000000600052601160045260246000fd5b6000610f2c82610cc4565b9150610f3783610cc4565b9250827fffffffffffffffffffffffffffffffffffffffffffffffffffffffffffffffff03821115610f6c57610f6b610ef2565b5b828201905092915050565b7f45524332303a2064656372656173656420616c6c6f77616e63652062656c6f7760008201527f207a65726f000000000000000000000000000000000000000000000000000000602082015250565b6000610fd3602583610bb1565b9150610fde82610f77565b604082019050919050565b6000602082019050818103600083015261100281610fc6565b9050919050565b7f45524332303a20617070726f76652066726f6d20746865207a65726f2061646460008201527f7265737300000000000000000000000000000000000000000000000000000000602082015250565b6000611065602483610bb1565b915061107082611009565b604082019050919050565b6000602082019050818103600083015261109481611058565b9050919050565b7f45524332303a20617070726f766520746f20746865207a65726f20616464726560008201527f7373000000000000000000000000000000000000000000000000000000000000602082015250565b60006110f7602283610bb1565b91506111028261109b565b604082019050919050565b60006020820190508181036000830152611126816110ea565b9050919050565b7f45524332303a20696e73756666696369656e7420616c6c6f77616e6365000000600082015250565b6000611163601d83610bb1565b915061116e8261112d565b602082019050919050565b6000602082019050818103600083015261119281611156565b9050919050565b7f45524332303a207472616e736665722066726f6d20746865207a65726f20616460008201527f6472657373000000000000000000000000000000000000000000000000000000602082015250565b60006111f5602583610bb1565b915061120082611199565b604082019050919050565b60006020820190508181036000830152611224816111e8565b9050919050565b7f45524332303a207472616e7366657220746f20746865207a65726f206164647260008201527f6573730000000000000000000000000000000000000000000000000000000000602082015250565b6000611287602383610bb1565b91506112928261122b565b604082019050919050565b600060208201905081810360008301526112b68161127a565b9050919050565b7f45524332303a207472616e7366657220616d6f756e742065786365656473206260008201527f616c616e63650000000000000000000000000000000000000000000000000000602082015250565b6000611319602683610bb1565b9150611324826112bd565b604082019050919050565b600060208201905081810360008301526113488161130c565b905091905056fea26469706673582212203f0e735d7498efb898df88c7bb27040b07eb75fac6c01d2087148b9cd6cc91fc64736f6c634300080c0033",
  "linkReferences": {},
  "deployedLinkReferences": {}
}