{
    "_format": "hh-sol-artifact-1",
    "contractName": "Deb0x",
    "sourceName": "contracts/Deb0x.sol",
    "abi": [
        {
            "inputs": [
                {
                    "internalType": "address",
                    "name": "forwarder",
                    "type": "address"
                }
            ],
            "stateMutability": "nonpayable",
            "type": "constructor"
        },
        {
            "anonymous": false,
            "inputs": [
                {
                    "indexed": true,
                    "internalType": "uint256",
                    "name": "cycle",
                    "type": "uint256"
                },
                {
                    "indexed": true,
                    "internalType": "address",
                    "name": "account",
                    "type": "address"
                },
                {
                    "indexed": false,
                    "internalType": "uint256",
                    "name": "fees",
                    "type": "uint256"
                }
            ],
            "name": "ClientFeesClaimed",
            "type": "event"
        },
        {
            "anonymous": false,
            "inputs": [
                {
                    "indexed": true,
                    "internalType": "uint256",
                    "name": "cycle",
                    "type": "uint256"
                },
                {
                    "indexed": true,
                    "internalType": "address",
                    "name": "account",
                    "type": "address"
                },
                {
                    "indexed": false,
                    "internalType": "uint256",
                    "name": "amount",
                    "type": "uint256"
                }
            ],
            "name": "ClientRewardsClaimed",
            "type": "event"
        },
        {
            "anonymous": false,
            "inputs": [
                {
                    "indexed": true,
                    "internalType": "uint256",
                    "name": "cycle",
                    "type": "uint256"
                },
                {
                    "indexed": true,
                    "internalType": "address",
                    "name": "account",
                    "type": "address"
                },
                {
                    "indexed": false,
                    "internalType": "uint256",
                    "name": "fees",
                    "type": "uint256"
                }
            ],
            "name": "FeesClaimed",
            "type": "event"
        },
        {
            "anonymous": false,
            "inputs": [
                {
                    "indexed": true,
                    "internalType": "address",
                    "name": "to",
                    "type": "address"
                },
                {
                    "indexed": true,
                    "internalType": "bytes32",
                    "name": "hash",
                    "type": "bytes32"
                },
                {
                    "indexed": false,
                    "internalType": "string",
                    "name": "value",
                    "type": "string"
                }
            ],
            "name": "KeySet",
            "type": "event"
        },
        {
            "anonymous": false,
            "inputs": [
                {
                    "indexed": true,
                    "internalType": "uint256",
                    "name": "cycle",
                    "type": "uint256"
                },
                {
                    "indexed": false,
                    "internalType": "uint256",
                    "name": "calculatedCycleReward",
                    "type": "uint256"
                },
                {
                    "indexed": false,
                    "internalType": "uint256",
                    "name": "summedCycleStakes",
                    "type": "uint256"
                }
            ],
            "name": "NewCycleStarted",
            "type": "event"
        },
        {
            "anonymous": false,
            "inputs": [
                {
                    "indexed": true,
                    "internalType": "uint256",
                    "name": "cycle",
                    "type": "uint256"
                },
                {
                    "indexed": true,
                    "internalType": "address",
                    "name": "account",
                    "type": "address"
                },
                {
                    "indexed": false,
                    "internalType": "uint256",
                    "name": "reward",
                    "type": "uint256"
                }
            ],
            "name": "RewardsClaimed",
            "type": "event"
        },
        {
            "anonymous": false,
            "inputs": [
                {
                    "indexed": true,
                    "internalType": "uint256",
                    "name": "cycle",
                    "type": "uint256"
                },
                {
                    "indexed": true,
                    "internalType": "uint256",
                    "name": "sentId",
                    "type": "uint256"
                },
                {
                    "indexed": true,
                    "internalType": "address",
                    "name": "feeReceiver",
                    "type": "address"
                },
                {
                    "indexed": false,
                    "internalType": "uint256",
                    "name": "msgFee",
                    "type": "uint256"
                },
                {
                    "indexed": false,
                    "internalType": "uint256",
                    "name": "nativeTokenFee",
                    "type": "uint256"
                }
            ],
            "name": "SendEntryCreated",
            "type": "event"
        },
        {
            "anonymous": false,
            "inputs": [
                {
                    "indexed": true,
                    "internalType": "address",
                    "name": "to",
                    "type": "address"
                },
                {
                    "indexed": true,
                    "internalType": "address",
                    "name": "from",
                    "type": "address"
                },
                {
                    "indexed": true,
                    "internalType": "bytes32",
                    "name": "hash",
                    "type": "bytes32"
                },
                {
                    "indexed": false,
                    "internalType": "uint256",
                    "name": "sentId",
                    "type": "uint256"
                },
                {
                    "indexed": false,
                    "internalType": "uint256",
                    "name": "timestamp",
                    "type": "uint256"
                },
                {
                    "indexed": false,
                    "internalType": "string",
                    "name": "content",
                    "type": "string"
                }
            ],
            "name": "Sent",
            "type": "event"
        },
        {
            "anonymous": false,
            "inputs": [
                {
                    "indexed": true,
                    "internalType": "uint256",
                    "name": "cycle",
                    "type": "uint256"
                },
                {
                    "indexed": true,
                    "internalType": "address",
                    "name": "account",
                    "type": "address"
                },
                {
                    "indexed": false,
                    "internalType": "uint256",
                    "name": "amount",
                    "type": "uint256"
                }
            ],
            "name": "Staked",
            "type": "event"
        },
        {
            "anonymous": false,
            "inputs": [
                {
                    "indexed": true,
                    "internalType": "uint256",
                    "name": "cycle",
                    "type": "uint256"
                },
                {
                    "indexed": true,
                    "internalType": "address",
                    "name": "account",
                    "type": "address"
                },
                {
                    "indexed": false,
                    "internalType": "uint256",
                    "name": "amount",
                    "type": "uint256"
                }
            ],
            "name": "Unstaked",
            "type": "event"
        },
        {
            "inputs": [],
            "name": "PROTOCOL_FEE",
            "outputs": [
                {
                    "internalType": "uint16",
                    "name": "",
                    "type": "uint16"
                }
            ],
            "stateMutability": "view",
            "type": "function"
        },
        {
            "inputs": [],
            "name": "SCALING_FACTOR",
            "outputs": [
                {
                    "internalType": "uint256",
                    "name": "",
                    "type": "uint256"
                }
            ],
            "stateMutability": "view",
            "type": "function"
        },
        {
            "inputs": [
                {
                    "internalType": "address",
                    "name": "",
                    "type": "address"
                }
            ],
            "name": "accAccruedFees",
            "outputs": [
                {
                    "internalType": "uint256",
                    "name": "",
                    "type": "uint256"
                }
            ],
            "stateMutability": "view",
            "type": "function"
        },
        {
            "inputs": [
                {
                    "internalType": "address",
                    "name": "",
                    "type": "address"
                }
            ],
            "name": "accCycleFeePercent",
            "outputs": [
                {
                    "internalType": "uint256",
                    "name": "",
                    "type": "uint256"
                }
            ],
            "stateMutability": "view",
            "type": "function"
        },
        {
            "inputs": [
                {
                    "internalType": "address",
                    "name": "",
                    "type": "address"
                }
            ],
            "name": "accCycleMessages",
            "outputs": [
                {
                    "internalType": "uint256",
                    "name": "",
                    "type": "uint256"
                }
            ],
            "stateMutability": "view",
            "type": "function"
        },
        {
            "inputs": [
                {
                    "internalType": "address",
                    "name": "",
                    "type": "address"
                }
            ],
            "name": "accFirstStake",
            "outputs": [
                {
                    "internalType": "uint256",
                    "name": "",
                    "type": "uint256"
                }
            ],
            "stateMutability": "view",
            "type": "function"
        },
        {
            "inputs": [
                {
                    "internalType": "address",
                    "name": "",
                    "type": "address"
                }
            ],
            "name": "accRewards",
            "outputs": [
                {
                    "internalType": "uint256",
                    "name": "",
                    "type": "uint256"
                }
            ],
            "stateMutability": "view",
            "type": "function"
        },
        {
            "inputs": [
                {
                    "internalType": "address",
                    "name": "",
                    "type": "address"
                }
            ],
            "name": "accSecondStake",
            "outputs": [
                {
                    "internalType": "uint256",
                    "name": "",
                    "type": "uint256"
                }
            ],
            "stateMutability": "view",
            "type": "function"
        },
        {
            "inputs": [
                {
                    "internalType": "address",
                    "name": "",
                    "type": "address"
                },
                {
                    "internalType": "uint256",
                    "name": "",
                    "type": "uint256"
                }
            ],
            "name": "accStakeCycle",
            "outputs": [
                {
                    "internalType": "uint256",
                    "name": "",
                    "type": "uint256"
                }
            ],
            "stateMutability": "view",
            "type": "function"
        },
        {
            "inputs": [
                {
                    "internalType": "address",
                    "name": "",
                    "type": "address"
                }
            ],
            "name": "accWithdrawableStake",
            "outputs": [
                {
                    "internalType": "uint256",
                    "name": "",
                    "type": "uint256"
                }
            ],
            "stateMutability": "view",
            "type": "function"
        },
        {
            "inputs": [],
            "name": "claimClientFees",
            "outputs": [],
            "stateMutability": "nonpayable",
            "type": "function"
        },
        {
            "inputs": [],
            "name": "claimClientRewards",
            "outputs": [],
            "stateMutability": "nonpayable",
            "type": "function"
        },
        {
            "inputs": [],
            "name": "claimFees",
            "outputs": [],
            "stateMutability": "nonpayable",
            "type": "function"
        },
        {
            "inputs": [],
            "name": "claimRewards",
            "outputs": [],
            "stateMutability": "nonpayable",
            "type": "function"
        },
        {
            "inputs": [
                {
                    "internalType": "address",
                    "name": "",
                    "type": "address"
                }
            ],
            "name": "clientAccruedFees",
            "outputs": [
                {
                    "internalType": "uint256",
                    "name": "",
                    "type": "uint256"
                }
            ],
            "stateMutability": "view",
            "type": "function"
        },
        {
            "inputs": [
                {
                    "internalType": "address",
                    "name": "",
                    "type": "address"
                }
            ],
            "name": "clientCycleFeePercent",
            "outputs": [
                {
                    "internalType": "uint256",
                    "name": "",
                    "type": "uint256"
                }
            ],
            "stateMutability": "view",
            "type": "function"
        },
        {
            "inputs": [
                {
                    "internalType": "address",
                    "name": "",
                    "type": "address"
                }
            ],
            "name": "clientLastFeeUpdate",
            "outputs": [
                {
                    "internalType": "uint256",
                    "name": "",
                    "type": "uint256"
                }
            ],
            "stateMutability": "view",
            "type": "function"
        },
        {
            "inputs": [
                {
                    "internalType": "address",
                    "name": "",
                    "type": "address"
                }
            ],
            "name": "clientLastRewardUpdate",
            "outputs": [
                {
                    "internalType": "uint256",
                    "name": "",
                    "type": "uint256"
                }
            ],
            "stateMutability": "view",
            "type": "function"
        },
        {
            "inputs": [
                {
                    "internalType": "address",
                    "name": "",
                    "type": "address"
                }
            ],
            "name": "clientRewards",
            "outputs": [
                {
                    "internalType": "uint256",
                    "name": "",
                    "type": "uint256"
                }
            ],
            "stateMutability": "view",
            "type": "function"
        },
        {
            "inputs": [],
            "name": "currentCycle",
            "outputs": [
                {
                    "internalType": "uint256",
                    "name": "",
                    "type": "uint256"
                }
            ],
            "stateMutability": "view",
            "type": "function"
        },
        {
            "inputs": [],
            "name": "currentCycleReward",
            "outputs": [
                {
                    "internalType": "uint256",
                    "name": "",
                    "type": "uint256"
                }
            ],
            "stateMutability": "view",
            "type": "function"
        },
        {
            "inputs": [],
            "name": "currentStartedCycle",
            "outputs": [
                {
                    "internalType": "uint256",
                    "name": "",
                    "type": "uint256"
                }
            ],
            "stateMutability": "view",
            "type": "function"
        },
        {
            "inputs": [
                {
                    "internalType": "uint256",
                    "name": "",
                    "type": "uint256"
                }
            ],
            "name": "cycleAccruedFees",
            "outputs": [
                {
                    "internalType": "uint256",
                    "name": "",
                    "type": "uint256"
                }
            ],
            "stateMutability": "view",
            "type": "function"
        },
        {
            "inputs": [
                {
                    "internalType": "uint256",
                    "name": "",
                    "type": "uint256"
                }
            ],
            "name": "cycleFeesPerStakeSummed",
            "outputs": [
                {
                    "internalType": "uint256",
                    "name": "",
                    "type": "uint256"
                }
            ],
            "stateMutability": "view",
            "type": "function"
        },
        {
            "inputs": [
                {
                    "internalType": "uint256",
                    "name": "",
                    "type": "uint256"
                }
            ],
            "name": "cycleTotalMessages",
            "outputs": [
                {
                    "internalType": "uint256",
                    "name": "",
                    "type": "uint256"
                }
            ],
            "stateMutability": "view",
            "type": "function"
        },
        {
            "inputs": [],
            "name": "dbx",
            "outputs": [
                {
                    "internalType": "contract Deb0xERC20",
                    "name": "",
                    "type": "address"
                }
            ],
            "stateMutability": "view",
            "type": "function"
        },
        {
            "inputs": [],
            "name": "getCurrentCycle",
            "outputs": [
                {
                    "internalType": "uint256",
                    "name": "",
                    "type": "uint256"
                }
            ],
            "stateMutability": "view",
            "type": "function"
        },
        {
            "inputs": [],
            "name": "i_initialTimestamp",
            "outputs": [
                {
                    "internalType": "uint256",
                    "name": "",
                    "type": "uint256"
                }
            ],
            "stateMutability": "view",
            "type": "function"
        },
        {
            "inputs": [],
            "name": "i_periodDuration",
            "outputs": [
                {
                    "internalType": "uint256",
                    "name": "",
                    "type": "uint256"
                }
            ],
            "stateMutability": "view",
            "type": "function"
        },
        {
            "inputs": [
                {
                    "internalType": "address",
                    "name": "forwarder",
                    "type": "address"
                }
            ],
            "name": "isTrustedForwarder",
            "outputs": [
                {
                    "internalType": "bool",
                    "name": "",
                    "type": "bool"
                }
            ],
            "stateMutability": "view",
            "type": "function"
        },
        {
            "inputs": [
                {
                    "internalType": "address",
                    "name": "",
                    "type": "address"
                }
            ],
            "name": "lastActiveCycle",
            "outputs": [
                {
                    "internalType": "uint256",
                    "name": "",
                    "type": "uint256"
                }
            ],
            "stateMutability": "view",
            "type": "function"
        },
        {
            "inputs": [],
            "name": "lastCycleReward",
            "outputs": [
                {
                    "internalType": "uint256",
                    "name": "",
                    "type": "uint256"
                }
            ],
            "stateMutability": "view",
            "type": "function"
        },
        {
            "inputs": [
                {
                    "internalType": "address",
                    "name": "",
                    "type": "address"
                }
            ],
            "name": "lastFeeUpdateCycle",
            "outputs": [
                {
                    "internalType": "uint256",
                    "name": "",
                    "type": "uint256"
                }
            ],
            "stateMutability": "view",
            "type": "function"
        },
        {
            "inputs": [],
            "name": "lastStartedCycle",
            "outputs": [
                {
                    "internalType": "uint256",
                    "name": "",
                    "type": "uint256"
                }
            ],
            "stateMutability": "view",
            "type": "function"
        },
        {
            "inputs": [],
            "name": "pendingCycleRewardsStake",
            "outputs": [
                {
                    "internalType": "uint256",
                    "name": "",
                    "type": "uint256"
                }
            ],
            "stateMutability": "view",
            "type": "function"
        },
        {
            "inputs": [],
            "name": "pendingFees",
            "outputs": [
                {
                    "internalType": "uint256",
                    "name": "",
                    "type": "uint256"
                }
            ],
            "stateMutability": "view",
            "type": "function"
        },
        {
            "inputs": [],
            "name": "pendingStake",
            "outputs": [
                {
                    "internalType": "uint256",
                    "name": "",
                    "type": "uint256"
                }
            ],
            "stateMutability": "view",
            "type": "function"
        },
        {
            "inputs": [],
            "name": "pendingStakeWithdrawal",
            "outputs": [
                {
                    "internalType": "uint256",
                    "name": "",
                    "type": "uint256"
                }
            ],
            "stateMutability": "view",
            "type": "function"
        },
        {
            "inputs": [],
            "name": "previousStartedCycle",
            "outputs": [
                {
                    "internalType": "uint256",
                    "name": "",
                    "type": "uint256"
                }
            ],
            "stateMutability": "view",
            "type": "function"
        },
        {
            "inputs": [
                {
                    "internalType": "address",
                    "name": "",
                    "type": "address"
                }
            ],
            "name": "publicKeys",
            "outputs": [
                {
                    "internalType": "string",
                    "name": "",
                    "type": "string"
                }
            ],
            "stateMutability": "view",
            "type": "function"
        },
        {
            "inputs": [
                {
                    "internalType": "uint256",
                    "name": "",
                    "type": "uint256"
                }
            ],
            "name": "rewardPerCycle",
            "outputs": [
                {
                    "internalType": "uint256",
                    "name": "",
                    "type": "uint256"
                }
            ],
            "stateMutability": "view",
            "type": "function"
        },
        {
            "inputs": [
                {
                    "internalType": "address[]",
                    "name": "to",
                    "type": "address[]"
                },
                {
                    "internalType": "string[]",
                    "name": "payload",
                    "type": "string[]"
                },
                {
                    "internalType": "address",
                    "name": "feeReceiver",
                    "type": "address"
                },
                {
                    "internalType": "uint256",
                    "name": "msgFee",
                    "type": "uint256"
                },
                {
                    "internalType": "uint256",
                    "name": "nativeTokenFee",
                    "type": "uint256"
                }
            ],
            "name": "send",
            "outputs": [],
            "stateMutability": "payable",
            "type": "function"
        },
        {
            "inputs": [],
            "name": "sentId",
            "outputs": [
                {
                    "internalType": "uint256",
                    "name": "",
                    "type": "uint256"
                }
            ],
            "stateMutability": "view",
            "type": "function"
        },
        {
            "inputs": [
                {
                    "internalType": "string",
                    "name": "publicKey",
                    "type": "string"
                }
            ],
            "name": "setKey",
            "outputs": [],
            "stateMutability": "nonpayable",
            "type": "function"
        },
        {
            "inputs": [
                {
                    "internalType": "uint256",
                    "name": "amount",
                    "type": "uint256"
                }
            ],
            "name": "stakeDBX",
            "outputs": [],
            "stateMutability": "nonpayable",
            "type": "function"
        },
        {
            "inputs": [
                {
                    "internalType": "address",
                    "name": "",
                    "type": "address"
                }
            ],
            "name": "stakedDuringGapCycle",
            "outputs": [
                {
                    "internalType": "bool",
                    "name": "",
                    "type": "bool"
                }
            ],
            "stateMutability": "view",
            "type": "function"
        },
        {
            "inputs": [
                {
                    "internalType": "uint256",
                    "name": "",
                    "type": "uint256"
                }
            ],
            "name": "summedCycleStakes",
            "outputs": [
                {
                    "internalType": "uint256",
                    "name": "",
                    "type": "uint256"
                }
            ],
            "stateMutability": "view",
            "type": "function"
        },
        {
            "inputs": [
                {
                    "internalType": "uint256",
                    "name": "amount",
                    "type": "uint256"
                }
            ],
            "name": "unstake",
            "outputs": [],
            "stateMutability": "nonpayable",
            "type": "function"
        }
    ],
    "bytecode": "0x60e06040526001600c553480156200001657600080fd5b5060405162006bac38038062006bac833981016040819052620000399162000116565b6001600160a01b0381166080526001600055604051620000599062000108565b604051809103906000f08015801562000076573d6000803e3d6000fd5b50600180546001600160a01b0319166001600160a01b0392909216919091179055504260a0526201518060c05269021e19e0c9bab24000006002819055600080527fb75ecc04ed35f89790e98640e901bda41eceff0cb896cf2765fb69768025375081905560196020527fd2ac945fcc0096878c763e37d6929b78378c1a2defabde8ba7ee5ed1d6e7a5b25562000148565b610c938062005f1983390190565b6000602082840312156200012957600080fd5b81516001600160a01b03811681146200014157600080fd5b9392505050565b60805160a05160c051615d93620001866000396000818161036201526145e80152600081816104df015261460c0152600061227d0152615d936000f3fe6080604052600436106102235760003560e01c80630b4501fd146102285780630ece215414610256578063143a1766146102915780631b4106ae146102be5780631ed6380f146102eb578063224438d1146103185780632e17de781461032e5780632f7cdab014610350578063372500ab14610384578063436091c114610399578063572b6c05146103af5780635f5080b4146103df578063654773cd146103f557806368f057691461040a57806369ec283e146104205780636f044d371461043557806375ee84d3146104485780637d818c23146104755780637e30d2b5146104ad5780638bd95563146104cd57806391b300201461050157806398a5db57146105175780639986314b1461052d578063a3d6f9a91461055a578063a707140b14610587578063a95f1dac146105b4578063aabbb1bd146105ca578063adc0f68614610602578063af42d1061461062f578063bab2f5521461064f578063bc71329014610665578063bdc2b0a814610692578063be26ed7f146106bf578063bebc9dfc146106d4578063c4235ae914610701578063ce96c0af1461072e578063d294f0931461075b578063d4432e4e14610770578063db80a28c14610786578063dd23a9bd146107b3578063df8e8dfc146107e0578063e60c90c4146107f6578063ed414ee314610822578063ed725e831461084f578063ef4cadc51461087c578063f1b371e214610898578063f7400c2a146108ae578063fa845ca9146108de575b600080fd5b34801561023457600080fd5b5061023e6103e881565b60405161ffff90911681526020015b60405180910390f35b34801561026257600080fd5b50610283610271366004615688565b601c6020526000908152604090205481565b60405190815260200161024d565b34801561029d57600080fd5b506102836102ac3660046156bd565b60186020526000908152604090205481565b3480156102ca57600080fd5b506102836102d93660046156bd565b60106020526000908152604090205481565b3480156102f757600080fd5b506102836103063660046156bd565b601f6020526000908152604090205481565b34801561032457600080fd5b50610283600b5481565b34801561033a57600080fd5b5061034e610349366004615688565b61090b565b005b34801561035c57600080fd5b506102837f000000000000000000000000000000000000000000000000000000000000000081565b34801561039057600080fd5b5061034e61160e565b3480156103a557600080fd5b5061028360065481565b3480156103bb57600080fd5b506103cf6103ca3660046156bd565b61227b565b604051901515815260200161024d565b3480156103eb57600080fd5b5061028360075481565b34801561040157600080fd5b5061034e6122ad565b34801561041657600080fd5b50610283600a5481565b34801561042c57600080fd5b5061034e61251a565b61034e610443366004615846565b612821565b34801561045457600080fd5b50610283610463366004615688565b60116020526000908152604090205481565b34801561048157600080fd5b50600154610495906001600160a01b031681565b6040516001600160a01b03909116815260200161024d565b3480156104b957600080fd5b5061034e6104c8366004615688565b613710565b3480156104d957600080fd5b506102837f000000000000000000000000000000000000000000000000000000000000000081565b34801561050d57600080fd5b5061028360025481565b34801561052357600080fd5b50610283600c5481565b34801561053957600080fd5b506102836105483660046156bd565b60136020526000908152604090205481565b34801561056657600080fd5b5061057a6105753660046156bd565b6144a0565b60405161024d9190615977565b34801561059357600080fd5b506102836105a23660046156bd565b601b6020526000908152604090205481565b3480156105c057600080fd5b5061028360035481565b3480156105d657600080fd5b506102836105e536600461598a565b601e60209081526000928352604080842090915290825290205481565b34801561060e57600080fd5b5061028361061d366004615688565b60196020526000908152604090205481565b34801561063b57600080fd5b5061034e61064a3660046159b4565b61453a565b34801561065b57600080fd5b5061028360055481565b34801561067157600080fd5b506102836106803660046156bd565b60176020526000908152604090205481565b34801561069e57600080fd5b506102836106ad3660046156bd565b600e6020526000908152604090205481565b3480156106cb57600080fd5b506102836145e4565b3480156106e057600080fd5b506102836106ef366004615688565b601d6020526000908152604090205481565b34801561070d57600080fd5b5061028361071c366004615688565b601a6020526000908152604090205481565b34801561073a57600080fd5b506102836107493660046156bd565b60146020526000908152604090205481565b34801561076757600080fd5b5061034e614640565b34801561077c57600080fd5b5061028360045481565b34801561079257600080fd5b506102836107a13660046156bd565b60216020526000908152604090205481565b3480156107bf57600080fd5b506102836107ce3660046156bd565b60156020526000908152604090205481565b3480156107ec57600080fd5b5061028360095481565b34801561080257600080fd5b506102836108113660046156bd565b602080526000908152604090205481565b34801561082e57600080fd5b5061028361083d3660046156bd565b600f6020526000908152604090205481565b34801561085b57600080fd5b5061028361086a3660046156bd565b60166020526000908152604090205481565b34801561088857600080fd5b50610283670de0b6b3a764000081565b3480156108a457600080fd5b5061028360085481565b3480156108ba57600080fd5b506103cf6108c93660046156bd565b60226020526000908152604090205460ff1681565b3480156108ea57600080fd5b506102836108f93660046156bd565b60126020526000908152604090205481565b6002600054036109365760405162461bcd60e51b815260040161092d906159f0565b60405180910390fd5b600260009081556109456145e4565b90506005548111156109575760058190555b6008546005541461097a57600654610970906001615a3d565b6007556008546006555b6006546005541180156109ae5750601d6000600654600161099b9190615a3d565b8152602001908152602001600020546000145b15610a91576006546000908152601a602052604081205415610a1d576006546000908152601a6020908152604080832054600b54601c909352922054670de0b6b3a7640000916109fd91615a3d565b610a079190615a50565b610a119190615a67565b6000600b559050610a4e565b601c6000600654815260200190815260200160002054600b6000828254610a449190615a3d565b9091555060009150505b6007546000908152601d6020526040902054610a6b908290615a3d565b601d60006006546001610a7e9190615a3d565b8152602081019190915260400160002055505b610a996151ab565b6001600160a01b038116600090815260126020526040902054600554118015610ad957506001600160a01b03811660009081526010602052604090205415155b15610c40576001600160a01b038116600081815260126020908152604080832054835260118252808320546019835281842054948452601090925282205491929091610b259190615a50565b610b2f9190615a67565b6001600160a01b038316600090815260166020526040812080549293508392909190610b5c908490615a3d565b90915550506001600160a01b0382166000908152600e602052604090205415610c25576001600160a01b038216600090815260106020526040812054610ba29083615a67565b6001600160a01b0384166000908152600e60205260408120549192509061271090610bcd9084615a50565b610bd79190615a67565b6001600160a01b038516600090815260166020526040812080549293508392909190610c04908490615a89565b9091555050506001600160a01b0383166000908152600e6020526040812055505b506001600160a01b0381166000908152601060205260408120555b600654600554118015610c785750600654610c5c906001615a3d565b6001600160a01b0382166000908152601b602052604090205414155b15610d6a576001600160a01b0381166000908152601b60209081526040808320548352601d91829052822054600654670de0b6b3a76400009391929190610cc0906001615a3d565b815260200190815260200160002054610cd99190615a89565b6001600160a01b038316600090815260166020526040902054610cfc9190615a50565b610d069190615a67565b6001600160a01b038216600090815260176020526040902054610d299190615a3d565b6001600160a01b038216600090815260176020526040902055600654610d50906001615a3d565b6001600160a01b0382166000908152601b60205260409020555b6001600160a01b038116600090815260208052604090205415801590610db357506001600160a01b0381166000908152602080526040812054600554610db09190615a89565b10155b8015610dd757506001600160a01b03811660009081526022602052604090205460ff165b15610f9b576001600160a01b0381166000818152601e60209081526040808320828052818420548452825280832054938352601690915281208054839290610e20908490615a3d565b90915550506001600160a01b0382166000908152601f602052604081208054839290610e4d908490615a3d565b90915550506001600160a01b0382166000908152602080526040902054600654610e78906001615a3d565b1115610f53576001600160a01b038216600090815260208080526040808320548352601d91829052822054600654670de0b6b3a76400009391929190610ebf906001615a3d565b815260200190815260200160002054610ed89190615a89565b6001600160a01b0384166000908152601e60209081526040808320828052818420548452909152902054610f0c9190615a50565b610f169190615a67565b6001600160a01b038316600090815260176020526040902054610f399190615a3d565b6001600160a01b0383166000908152601760205260409020555b506001600160a01b0381166000818152601e6020908152604080832082805281842080548552908352818420849055938352928290556022905220805460ff191690556113b2565b6001600160a01b038116600090815260208052604090205415801590610fe357506001600160a01b0381166000908152602080526040812054600554610fe19190615a89565b115b156113b2576001600160a01b0381166000818152601e6020908152604080832082805281842054845282528083205493835260169091528120805483929061102c908490615a3d565b90915550506001600160a01b0382166000908152601f602052604081208054839290611059908490615a3d565b90915550506001600160a01b0382166000908152602080526040902054600654611084906001615a3d565b111561115f576001600160a01b038216600090815260208080526040808320548352601d91829052822054600654670de0b6b3a764000093919291906110cb906001615a3d565b8152602001908152602001600020546110e49190615a89565b6001600160a01b0384166000908152601e602090815260408083208280528184205484529091529020546111189190615a50565b6111229190615a67565b6001600160a01b0383166000908152601760205260409020546111459190615a3d565b6001600160a01b0383166000908152601760205260409020555b6001600160a01b0382166000818152601e602090815260408083208280528184208054855290835281842084905593835292829055602190522054156113b0576001600160a01b0382166000908152602160205260408120546005546111c59190615a89565b1115611384576001600160a01b0382166000818152601e6020908152604080832060218352818420548452825280832054938352601690915281208054839290611210908490615a3d565b90915550506001600160a01b0383166000908152601f60205260408120805483929061123d908490615a3d565b90915550506001600160a01b038316600090815260216020526040902054600654611269906001615a3d565b1115611347576001600160a01b0383166000908152602160209081526040808320548352601d91829052822054600654670de0b6b3a764000093919291906112b2906001615a3d565b8152602001908152602001600020546112cb9190615a89565b6001600160a01b0385166000908152601e60209081526040808320602183528184205484529091529020546113009190615a50565b61130a9190615a67565b6001600160a01b03841660009081526017602052604090205461132d9190615a3d565b6001600160a01b0384166000908152601760205260409020555b506001600160a01b0382166000818152601e60209081526040808320602180845282852080548652918452918420849055938352905290556113b0565b6001600160a01b0382166000908152602160208181526040808420805483805291852091909155919052555b505b826000036113d25760405162461bcd60e51b815260040161092d90615a9c565b601f60006113de6151ab565b6001600160a01b03166001600160a01b031681526020019081526020016000205483111561146a5760405162461bcd60e51b815260206004820152603360248201527f44656230783a2063616e206e6f7420756e7374616b65206d6f7265207468616e60448201527220776974686472617761626c65207374616b6560681b606482015260840161092d565b600854600654036114925782600a60008282546114879190615a3d565b909155506114b99050565b6005546000908152601a6020526040812080548592906114b3908490615a89565b90915550505b82601f60006114c66151ab565b6001600160a01b03166001600160a01b0316815260200190815260200160002060008282546114f59190615a89565b90915550839050601660006115086151ab565b6001600160a01b03166001600160a01b0316815260200190815260200160002060008282546115379190615a89565b90915550506001546001600160a01b031663a9059cbb6115556151ab565b856040518363ffffffff1660e01b8152600401611573929190615acf565b6020604051808303816000875af1158015611592573d6000803e3d6000fd5b505050506040513d601f19601f820116820180604052508101906115b69190615ae8565b506115bf6151ab565b6001600160a01b03166005547f37375b03d8924bd8f076f11f8411b9962aa5c02fb489021507bc6bb6f850e365856040516115fc91815260200190565b60405180910390a35050600160005550565b60006116186145e4565b905060055481111561162a5760058190555b60026000540361164c5760405162461bcd60e51b815260040161092d906159f0565b6002600055600854600554146116745760065461166a906001615a3d565b6007556008546006555b6006546005541180156116a85750601d600060065460016116959190615a3d565b8152602001908152602001600020546000145b1561178b576006546000908152601a602052604081205415611717576006546000908152601a6020908152604080832054600b54601c909352922054670de0b6b3a7640000916116f791615a3d565b6117019190615a50565b61170b9190615a67565b6000600b559050611748565b601c6000600654815260200190815260200160002054600b600082825461173e9190615a3d565b9091555060009150505b6007546000908152601d6020526040902054611765908290615a3d565b601d600060065460016117789190615a3d565b8152602081019190915260400160002055505b6117936151ab565b6001600160a01b0381166000908152601260205260409020546005541180156117d357506001600160a01b03811660009081526010602052604090205415155b1561193a576001600160a01b03811660008181526012602090815260408083205483526011825280832054601983528184205494845260109092528220549192909161181f9190615a50565b6118299190615a67565b6001600160a01b038316600090815260166020526040812080549293508392909190611856908490615a3d565b90915550506001600160a01b0382166000908152600e60205260409020541561191f576001600160a01b03821660009081526010602052604081205461189c9083615a67565b6001600160a01b0384166000908152600e602052604081205491925090612710906118c79084615a50565b6118d19190615a67565b6001600160a01b0385166000908152601660205260408120805492935083929091906118fe908490615a89565b9091555050506001600160a01b0383166000908152600e6020526040812055505b506001600160a01b0381166000908152601060205260408120555b6006546005541180156119725750600654611956906001615a3d565b6001600160a01b0382166000908152601b602052604090205414155b15611a64576001600160a01b0381166000908152601b60209081526040808320548352601d91829052822054600654670de0b6b3a764000093919291906119ba906001615a3d565b8152602001908152602001600020546119d39190615a89565b6001600160a01b0383166000908152601660205260409020546119f69190615a50565b611a009190615a67565b6001600160a01b038216600090815260176020526040902054611a239190615a3d565b6001600160a01b038216600090815260176020526040902055600654611a4a906001615a3d565b6001600160a01b0382166000908152601b60205260409020555b6001600160a01b038116600090815260208052604090205415801590611aad57506001600160a01b0381166000908152602080526040812054600554611aaa9190615a89565b10155b8015611ad157506001600160a01b03811660009081526022602052604090205460ff165b15611c95576001600160a01b0381166000818152601e60209081526040808320828052818420548452825280832054938352601690915281208054839290611b1a908490615a3d565b90915550506001600160a01b0382166000908152601f602052604081208054839290611b47908490615a3d565b90915550506001600160a01b0382166000908152602080526040902054600654611b72906001615a3d565b1115611c4d576001600160a01b038216600090815260208080526040808320548352601d91829052822054600654670de0b6b3a76400009391929190611bb9906001615a3d565b815260200190815260200160002054611bd29190615a89565b6001600160a01b0384166000908152601e60209081526040808320828052818420548452909152902054611c069190615a50565b611c109190615a67565b6001600160a01b038316600090815260176020526040902054611c339190615a3d565b6001600160a01b0383166000908152601760205260409020555b506001600160a01b0381166000818152601e6020908152604080832082805281842080548552908352818420849055938352928290556022905220805460ff191690556120ac565b6001600160a01b038116600090815260208052604090205415801590611cdd57506001600160a01b0381166000908152602080526040812054600554611cdb9190615a89565b115b156120ac576001600160a01b0381166000818152601e60209081526040808320828052818420548452825280832054938352601690915281208054839290611d26908490615a3d565b90915550506001600160a01b0382166000908152601f602052604081208054839290611d53908490615a3d565b90915550506001600160a01b0382166000908152602080526040902054600654611d7e906001615a3d565b1115611e59576001600160a01b038216600090815260208080526040808320548352601d91829052822054600654670de0b6b3a76400009391929190611dc5906001615a3d565b815260200190815260200160002054611dde9190615a89565b6001600160a01b0384166000908152601e60209081526040808320828052818420548452909152902054611e129190615a50565b611e1c9190615a67565b6001600160a01b038316600090815260176020526040902054611e3f9190615a3d565b6001600160a01b0383166000908152601760205260409020555b6001600160a01b0382166000818152601e602090815260408083208280528184208054855290835281842084905593835292829055602190522054156120aa576001600160a01b038216600090815260216020526040812054600554611ebf9190615a89565b111561207e576001600160a01b0382166000818152601e6020908152604080832060218352818420548452825280832054938352601690915281208054839290611f0a908490615a3d565b90915550506001600160a01b0383166000908152601f602052604081208054839290611f37908490615a3d565b90915550506001600160a01b038316600090815260216020526040902054600654611f63906001615a3d565b1115612041576001600160a01b0383166000908152602160209081526040808320548352601d91829052822054600654670de0b6b3a76400009391929190611fac906001615a3d565b815260200190815260200160002054611fc59190615a89565b6001600160a01b0385166000908152601e6020908152604080832060218352818420548452909152902054611ffa9190615a50565b6120049190615a67565b6001600160a01b0384166000908152601760205260409020546120279190615a3d565b6001600160a01b0384166000908152601760205260409020555b506001600160a01b0382166000818152601e60209081526040808320602180845282852080548652918452918420849055938352905290556120aa565b6001600160a01b0382166000908152602160208181526040808420805483805291852091909155919052555b505b6000601f60006120ba6151ab565b6001600160a01b03166001600160a01b0316815260200190815260200160002054601660006120e76151ab565b6001600160a01b03166001600160a01b03168152602001908152602001600020546121129190615a89565b9050600081116121345760405162461bcd60e51b815260040161092d90615b0a565b80601660006121416151ab565b6001600160a01b03166001600160a01b0316815260200190815260200160002060008282546121709190615a89565b90915550506008546006540361219d5780600a60008282546121929190615a3d565b909155506121cd9050565b6005546000908152601a60205260409020546121ba908290615a89565b6005546000908152601a60205260409020555b6001546001600160a01b0316639a49090e6121e66151ab565b836040518363ffffffff1660e01b8152600401612204929190615acf565b600060405180830381600087803b15801561221e57600080fd5b505af1158015612232573d6000803e3d6000fd5b5050505061223e6151ab565b6001600160a01b03166005547f3300bdb359cfb956935bca32e9db727413eab1ca84341f2e36caea85bb796968836040516115fc91815260200190565b7f00000000000000000000000000000000000000000000000000000000000000006001600160a01b0390811691161490565b6002600054036122cf5760405162461bcd60e51b815260040161092d906159f0565b600260009081556122de6145e4565b90506005548111156122f05760058190555b6008546005541461231357600654612309906001615a3d565b6007556008546006555b6006546005541180156123475750601d600060065460016123349190615a3d565b8152602001908152602001600020546000145b1561242a576006546000908152601a6020526040812054156123b6576006546000908152601a6020908152604080832054600b54601c909352922054670de0b6b3a76400009161239691615a3d565b6123a09190615a50565b6123aa9190615a67565b6000600b5590506123e7565b601c6000600654815260200190815260200160002054600b60008282546123dd9190615a3d565b9091555060009150505b6007546000908152601d6020526040902054612404908290615a3d565b601d600060065460016124179190615a3d565b8152602081019190915260400160002055505b61243a6124356151ab565b6151cd565b6000601560006124486151ab565b6001600160a01b03166001600160a01b031681526020019081526020016000205490506000811161248b5760405162461bcd60e51b815260040161092d90615b41565b6000601560006124996151ab565b6001600160a01b031681526020810191909152604001600020556124c46124be6151ab565b82615410565b6124cc6151ab565b6001600160a01b03166124dd6145e4565b6040518381527f71080b6b70140bab68812ff30dd24dd3f4fafdb253085461fcc624ab5f1bbe9b906020015b60405180910390a350506001600055565b60026000540361253c5760405162461bcd60e51b815260040161092d906159f0565b6002600090815561254b6145e4565b905060055481111561255d5760058190555b6008546005541461258057600654612576906001615a3d565b6007556008546006555b6006546005541180156125b45750601d600060065460016125a19190615a3d565b8152602001908152602001600020546000145b15612697576006546000908152601a602052604081205415612623576006546000908152601a6020908152604080832054600b54601c909352922054670de0b6b3a76400009161260391615a3d565b61260d9190615a50565b6126179190615a67565b6000600b559050612654565b601c6000600654815260200190815260200160002054600b600082825461264a9190615a3d565b9091555060009150505b6007546000908152601d6020526040902054612671908290615a3d565b601d600060065460016126849190615a3d565b8152602081019190915260400160002055505b6126a26124356151ab565b6000601860006126b06151ab565b6001600160a01b03166001600160a01b03168152602001908152602001600020549050600081116126f35760405162461bcd60e51b815260040161092d90615b0a565b6000601860006127016151ab565b6001600160a01b03168152602081019190915260400160002055600854600654036127435780600a60008282546127389190615a3d565b909155506127739050565b6005546000908152601a6020526040902054612760908290615a89565b6005546000908152601a60205260409020555b6001546001600160a01b0316639a49090e61278c6151ab565b836040518363ffffffff1660e01b81526004016127aa929190615acf565b600060405180830381600087803b1580156127c457600080fd5b505af11580156127d8573d6000803e3d6000fd5b505050506127e46151ab565b6001600160a01b03166005547f73d4ecbe623e0c89f3cfb75a853104d35d1105e8ec5f0ec6e4bb924da1ffb2928360405161250991815260200190565b8060005a905060006128316145e4565b90506005548111156128435760058190555b600854600554146128665760065461285c906001615a3d565b6007556008546006555b60065460055411801561289a5750601d600060065460016128879190615a3d565b8152602001908152602001600020546000145b1561297d576006546000908152601a602052604081205415612909576006546000908152601a6020908152604080832054600b54601c909352922054670de0b6b3a7640000916128e991615a3d565b6128f39190615a50565b6128fd9190615a67565b6000600b55905061293a565b601c6000600654815260200190815260200160002054600b60008282546129309190615a3d565b9091555060009150505b6007546000908152601d6020526040902054612957908290615a3d565b601d6000600654600161296a9190615a3d565b8152602081019190915260400160002055505b6005546000908152601960205260408120549003612add576002546003819055600090612724906129b090612710615a50565b6129ba9190615a67565b6002819055600580546000908152601960209081526040808320859055600985905592546008556006548252601a905220549091506129fa908290615a3d565b6008546000908152601a602052604081208054909190612a1b908490615a3d565b909155505060045415612a57576004546008546000908152601a602052604081208054909190612a4c908490615a3d565b909155505060006004555b600a5415612a8e57600a546008546000908152601a602052604081208054909190612a83908490615a89565b90915550506000600a555b6005546008546000908152601a6020908152604091829020548251858152918201527f0666a61c1092f5b86c2cfe6ea1ad0d9a36032c4fb92d285b4e43f662d48f19b4910160405180910390a2505b612ae56151ab565b6001600160a01b038116600090815260126020526040902054600554118015612b2557506001600160a01b03811660009081526010602052604090205415155b15612c8c576001600160a01b038116600081815260126020908152604080832054835260118252808320546019835281842054948452601090925282205491929091612b719190615a50565b612b7b9190615a67565b6001600160a01b038316600090815260166020526040812080549293508392909190612ba8908490615a3d565b90915550506001600160a01b0382166000908152600e602052604090205415612c71576001600160a01b038216600090815260106020526040812054612bee9083615a67565b6001600160a01b0384166000908152600e60205260408120549192509061271090612c199084615a50565b612c239190615a67565b6001600160a01b038516600090815260166020526040812080549293508392909190612c50908490615a89565b9091555050506001600160a01b0383166000908152600e6020526040812055505b506001600160a01b0381166000908152601060205260408120555b600654600554118015612cc45750600654612ca8906001615a3d565b6001600160a01b0382166000908152601b602052604090205414155b15612db6576001600160a01b0381166000908152601b60209081526040808320548352601d91829052822054600654670de0b6b3a76400009391929190612d0c906001615a3d565b815260200190815260200160002054612d259190615a89565b6001600160a01b038316600090815260166020526040902054612d489190615a50565b612d529190615a67565b6001600160a01b038216600090815260176020526040902054612d759190615a3d565b6001600160a01b038216600090815260176020526040902055600654612d9c906001615a3d565b6001600160a01b0382166000908152601b60205260409020555b6001600160a01b038116600090815260208052604090205415801590612dff57506001600160a01b0381166000908152602080526040812054600554612dfc9190615a89565b10155b8015612e2357506001600160a01b03811660009081526022602052604090205460ff165b15612fe7576001600160a01b0381166000818152601e60209081526040808320828052818420548452825280832054938352601690915281208054839290612e6c908490615a3d565b90915550506001600160a01b0382166000908152601f602052604081208054839290612e99908490615a3d565b90915550506001600160a01b0382166000908152602080526040902054600654612ec4906001615a3d565b1115612f9f576001600160a01b038216600090815260208080526040808320548352601d91829052822054600654670de0b6b3a76400009391929190612f0b906001615a3d565b815260200190815260200160002054612f249190615a89565b6001600160a01b0384166000908152601e60209081526040808320828052818420548452909152902054612f589190615a50565b612f629190615a67565b6001600160a01b038316600090815260176020526040902054612f859190615a3d565b6001600160a01b0383166000908152601760205260409020555b506001600160a01b0381166000818152601e6020908152604080832082805281842080548552908352818420849055938352928290556022905220805460ff191690556133fe565b6001600160a01b03811660009081526020805260409020541580159061302f57506001600160a01b038116600090815260208052604081205460055461302d9190615a89565b115b156133fe576001600160a01b0381166000818152601e60209081526040808320828052818420548452825280832054938352601690915281208054839290613078908490615a3d565b90915550506001600160a01b0382166000908152601f6020526040812080548392906130a5908490615a3d565b90915550506001600160a01b03821660009081526020805260409020546006546130d0906001615a3d565b11156131ab576001600160a01b038216600090815260208080526040808320548352601d91829052822054600654670de0b6b3a76400009391929190613117906001615a3d565b8152602001908152602001600020546131309190615a89565b6001600160a01b0384166000908152601e602090815260408083208280528184205484529091529020546131649190615a50565b61316e9190615a67565b6001600160a01b0383166000908152601760205260409020546131919190615a3d565b6001600160a01b0383166000908152601760205260409020555b6001600160a01b0382166000818152601e602090815260408083208280528184208054855290835281842084905593835292829055602190522054156133fc576001600160a01b0382166000908152602160205260408120546005546132119190615a89565b11156133d0576001600160a01b0382166000818152601e602090815260408083206021835281842054845282528083205493835260169091528120805483929061325c908490615a3d565b90915550506001600160a01b0383166000908152601f602052604081208054839290613289908490615a3d565b90915550506001600160a01b0383166000908152602160205260409020546006546132b5906001615a3d565b1115613393576001600160a01b0383166000908152602160209081526040808320548352601d91829052822054600654670de0b6b3a764000093919291906132fe906001615a3d565b8152602001908152602001600020546133179190615a89565b6001600160a01b0385166000908152601e602090815260408083206021835281842054845290915290205461334c9190615a50565b6133569190615a67565b6001600160a01b0384166000908152601760205260409020546133799190615a3d565b6001600160a01b0384166000908152601760205260409020555b506001600160a01b0382166000818152601e60209081526040808320602180845282852080548652918452918420849055938352905290556133fc565b6001600160a01b0382166000908152602160208181526040808420805483805291852091909155919052555b505b612711861061345e5760405162461bcd60e51b815260206004820152602660248201527f44656230783a2052657761726420666565732063616e206e6f7420657863656560448201526564203130302560d01b606482015260840161092d565b613467876151cd565b8851601060006134756151ab565b6001600160a01b03166001600160a01b0316815260200190815260200160002060008282546134a49190615a3d565b90915550508851600554600090815260116020526040812080549091906134cc908490615a3d565b9091555050600554601260006134e06151ab565b6001600160a01b0390811682526020820192909252604001600020919091558716156135af57851561357b5785600e60006135196151ab565b6001600160a01b03166001600160a01b0316815260200190815260200160002060008282546135489190615a3d565b90915550506001600160a01b0387166000908152600f602052604081208054889290613575908490615a3d565b90915550505b84156135af576001600160a01b038716600090815260156020526040812080548792906135a9908490615a3d565b90915550505b60006135bb8a8a6154b7565b9050876001600160a01b0316816005547f6288811d8cdbed319ad675bb04053011e25d30480e6eb483c02d54ef3bc863f18a8a604051613605929190918252602082015260400190565b60405180910390a450505060006127106103e861ffff163a5a6136289086615a89565b61363490617984615a3d565b61363e9190615a50565b6136489190615a50565b6136529190615a67565b90508061365f8434615a89565b10156136c25760405162461bcd60e51b815260206004820152602c60248201527f44656230783a2076616c7565206d757374206265203e3d20313025206f66207460448201526b6865207370656e742067617360a01b606482015260840161092d565b6136e033846136d18434615a89565b6136db9190615a89565b615410565b6005546000908152601c602052604081208054839290613701908490615a3d565b90915550505050505050505050565b6002600054036137325760405162461bcd60e51b815260040161092d906159f0565b600260009081556137416145e4565b90506005548111156137535760058190555b600854600554146137765760065461376c906001615a3d565b6007556008546006555b6006546005541180156137aa5750601d600060065460016137979190615a3d565b8152602001908152602001600020546000145b1561388d576006546000908152601a602052604081205415613819576006546000908152601a6020908152604080832054600b54601c909352922054670de0b6b3a7640000916137f991615a3d565b6138039190615a50565b61380d9190615a67565b6000600b55905061384a565b601c6000600654815260200190815260200160002054600b60008282546138409190615a3d565b9091555060009150505b6007546000908152601d6020526040902054613867908290615a3d565b601d6000600654600161387a9190615a3d565b8152602081019190915260400160002055505b6138956151ab565b6001600160a01b0381166000908152601260205260409020546005541180156138d557506001600160a01b03811660009081526010602052604090205415155b15613a3c576001600160a01b0381166000818152601260209081526040808320548352601182528083205460198352818420549484526010909252822054919290916139219190615a50565b61392b9190615a67565b6001600160a01b038316600090815260166020526040812080549293508392909190613958908490615a3d565b90915550506001600160a01b0382166000908152600e602052604090205415613a21576001600160a01b03821660009081526010602052604081205461399e9083615a67565b6001600160a01b0384166000908152600e602052604081205491925090612710906139c99084615a50565b6139d39190615a67565b6001600160a01b038516600090815260166020526040812080549293508392909190613a00908490615a89565b9091555050506001600160a01b0383166000908152600e6020526040812055505b506001600160a01b0381166000908152601060205260408120555b600654600554118015613a745750600654613a58906001615a3d565b6001600160a01b0382166000908152601b602052604090205414155b15613b66576001600160a01b0381166000908152601b60209081526040808320548352601d91829052822054600654670de0b6b3a76400009391929190613abc906001615a3d565b815260200190815260200160002054613ad59190615a89565b6001600160a01b038316600090815260166020526040902054613af89190615a50565b613b029190615a67565b6001600160a01b038216600090815260176020526040902054613b259190615a3d565b6001600160a01b038216600090815260176020526040902055600654613b4c906001615a3d565b6001600160a01b0382166000908152601b60205260409020555b6001600160a01b038116600090815260208052604090205415801590613baf57506001600160a01b0381166000908152602080526040812054600554613bac9190615a89565b10155b8015613bd357506001600160a01b03811660009081526022602052604090205460ff165b15613d97576001600160a01b0381166000818152601e60209081526040808320828052818420548452825280832054938352601690915281208054839290613c1c908490615a3d565b90915550506001600160a01b0382166000908152601f602052604081208054839290613c49908490615a3d565b90915550506001600160a01b0382166000908152602080526040902054600654613c74906001615a3d565b1115613d4f576001600160a01b038216600090815260208080526040808320548352601d91829052822054600654670de0b6b3a76400009391929190613cbb906001615a3d565b815260200190815260200160002054613cd49190615a89565b6001600160a01b0384166000908152601e60209081526040808320828052818420548452909152902054613d089190615a50565b613d129190615a67565b6001600160a01b038316600090815260176020526040902054613d359190615a3d565b6001600160a01b0383166000908152601760205260409020555b506001600160a01b0381166000818152601e6020908152604080832082805281842080548552908352818420849055938352928290556022905220805460ff191690556141ae565b6001600160a01b038116600090815260208052604090205415801590613ddf57506001600160a01b0381166000908152602080526040812054600554613ddd9190615a89565b115b156141ae576001600160a01b0381166000818152601e60209081526040808320828052818420548452825280832054938352601690915281208054839290613e28908490615a3d565b90915550506001600160a01b0382166000908152601f602052604081208054839290613e55908490615a3d565b90915550506001600160a01b0382166000908152602080526040902054600654613e80906001615a3d565b1115613f5b576001600160a01b038216600090815260208080526040808320548352601d91829052822054600654670de0b6b3a76400009391929190613ec7906001615a3d565b815260200190815260200160002054613ee09190615a89565b6001600160a01b0384166000908152601e60209081526040808320828052818420548452909152902054613f149190615a50565b613f1e9190615a67565b6001600160a01b038316600090815260176020526040902054613f419190615a3d565b6001600160a01b0383166000908152601760205260409020555b6001600160a01b0382166000818152601e602090815260408083208280528184208054855290835281842084905593835292829055602190522054156141ac576001600160a01b038216600090815260216020526040812054600554613fc19190615a89565b1115614180576001600160a01b0382166000818152601e602090815260408083206021835281842054845282528083205493835260169091528120805483929061400c908490615a3d565b90915550506001600160a01b0383166000908152601f602052604081208054839290614039908490615a3d565b90915550506001600160a01b038316600090815260216020526040902054600654614065906001615a3d565b1115614143576001600160a01b0383166000908152602160209081526040808320548352601d91829052822054600654670de0b6b3a764000093919291906140ae906001615a3d565b8152602001908152602001600020546140c79190615a89565b6001600160a01b0385166000908152601e60209081526040808320602183528184205484529091529020546140fc9190615a50565b6141069190615a67565b6001600160a01b0384166000908152601760205260409020546141299190615a3d565b6001600160a01b0384166000908152601760205260409020555b506001600160a01b0382166000818152601e60209081526040808320602180845282852080548652918452918420849055938352905290556141ac565b6001600160a01b0382166000908152602160208181526040808420805483805291852091909155919052555b505b826000036141ce5760405162461bcd60e51b815260040161092d90615a9c565b82600460008282546141e09190615a3d565b90915550506005546000906141f6906001615a3d565b90506008546006540361423e57506005546001602260006142156151ab565b6001600160a01b031681526020810191909152604001600020805460ff19169115159190911790555b6020600061424a6151ab565b6001600160a01b03166001600160a01b031681526020019081526020016000205481141580156142a65750602160006142816151ab565b6001600160a01b03166001600160a01b03168152602001908152602001600020548114155b1561436757602060006142b76151ab565b6001600160a01b03166001600160a01b031681526020019081526020016000205460000361430b5780602060006142ec6151ab565b6001600160a01b03168152602081019190915260400160002055614367565b602160006143176151ab565b6001600160a01b03166001600160a01b031681526020019081526020016000205460000361436757806021600061434c6151ab565b6001600160a01b031681526020810191909152604001600020555b83601e60006143746151ab565b6001600160a01b03166001600160a01b03168152602001908152602001600020600083815260200190815260200160002060008282546143b49190615a3d565b90915550506001546001600160a01b03166323b872dd6143d26151ab565b6040516001600160e01b031960e084901b1681526001600160a01b039091166004820152306024820152604481018790526064016020604051808303816000875af1158015614425573d6000803e3d6000fd5b505050506040513d601f19601f820116820180604052508101906144499190615ae8565b506144526151ab565b6001600160a01b0316817f18dcd430020e4d4899772fd94a8b40451dc5044dfb70bc46b532eeae431c864f8660405161448d91815260200190565b60405180910390a3505060016000555050565b600d60205260009081526040902080546144b990615b83565b80601f01602080910402602001604051908101604052809291908181526020018280546144e590615b83565b80156145325780601f1061450757610100808354040283529160200191614532565b820191906000526020600020905b81548152906001019060200180831161451557829003601f168201915b505050505081565b80600d60006145476151ab565b6001600160a01b0316815260208101919091526040016000209061456b9082615c0b565b5060008160405160200161457f9190615cca565b604051602081830303815290604052805190602001209050806145a06151ab565b6001600160a01b03167f1db169902a3b228ab764219bfc023384698a05b8a3d1bd2e046867a1dedf78a9846040516145d89190615977565b60405180910390a35050565b60007f00000000000000000000000000000000000000000000000000000000000000006146317f000000000000000000000000000000000000000000000000000000000000000042615a89565b61463b9190615a67565b905090565b6002600054036146625760405162461bcd60e51b815260040161092d906159f0565b600260009081556146716145e4565b90506005548111156146835760058190555b600854600554146146a65760065461469c906001615a3d565b6007556008546006555b6006546005541180156146da5750601d600060065460016146c79190615a3d565b8152602001908152602001600020546000145b156147bd576006546000908152601a602052604081205415614749576006546000908152601a6020908152604080832054600b54601c909352922054670de0b6b3a76400009161472991615a3d565b6147339190615a50565b61473d9190615a67565b6000600b55905061477a565b601c6000600654815260200190815260200160002054600b60008282546147709190615a3d565b9091555060009150505b6007546000908152601d6020526040902054614797908290615a3d565b601d600060065460016147aa9190615a3d565b8152602081019190915260400160002055505b6147c56151ab565b6001600160a01b03811660009081526012602052604090205460055411801561480557506001600160a01b03811660009081526010602052604090205415155b1561496c576001600160a01b0381166000818152601260209081526040808320548352601182528083205460198352818420549484526010909252822054919290916148519190615a50565b61485b9190615a67565b6001600160a01b038316600090815260166020526040812080549293508392909190614888908490615a3d565b90915550506001600160a01b0382166000908152600e602052604090205415614951576001600160a01b0382166000908152601060205260408120546148ce9083615a67565b6001600160a01b0384166000908152600e602052604081205491925090612710906148f99084615a50565b6149039190615a67565b6001600160a01b038516600090815260166020526040812080549293508392909190614930908490615a89565b9091555050506001600160a01b0383166000908152600e6020526040812055505b506001600160a01b0381166000908152601060205260408120555b6006546005541180156149a45750600654614988906001615a3d565b6001600160a01b0382166000908152601b602052604090205414155b15614a96576001600160a01b0381166000908152601b60209081526040808320548352601d91829052822054600654670de0b6b3a764000093919291906149ec906001615a3d565b815260200190815260200160002054614a059190615a89565b6001600160a01b038316600090815260166020526040902054614a289190615a50565b614a329190615a67565b6001600160a01b038216600090815260176020526040902054614a559190615a3d565b6001600160a01b038216600090815260176020526040902055600654614a7c906001615a3d565b6001600160a01b0382166000908152601b60205260409020555b6001600160a01b038116600090815260208052604090205415801590614adf57506001600160a01b0381166000908152602080526040812054600554614adc9190615a89565b10155b8015614b0357506001600160a01b03811660009081526022602052604090205460ff165b15614cc7576001600160a01b0381166000818152601e60209081526040808320828052818420548452825280832054938352601690915281208054839290614b4c908490615a3d565b90915550506001600160a01b0382166000908152601f602052604081208054839290614b79908490615a3d565b90915550506001600160a01b0382166000908152602080526040902054600654614ba4906001615a3d565b1115614c7f576001600160a01b038216600090815260208080526040808320548352601d91829052822054600654670de0b6b3a76400009391929190614beb906001615a3d565b815260200190815260200160002054614c049190615a89565b6001600160a01b0384166000908152601e60209081526040808320828052818420548452909152902054614c389190615a50565b614c429190615a67565b6001600160a01b038316600090815260176020526040902054614c659190615a3d565b6001600160a01b0383166000908152601760205260409020555b506001600160a01b0381166000818152601e6020908152604080832082805281842080548552908352818420849055938352928290556022905220805460ff191690556150de565b6001600160a01b038116600090815260208052604090205415801590614d0f57506001600160a01b0381166000908152602080526040812054600554614d0d9190615a89565b115b156150de576001600160a01b0381166000818152601e60209081526040808320828052818420548452825280832054938352601690915281208054839290614d58908490615a3d565b90915550506001600160a01b0382166000908152601f602052604081208054839290614d85908490615a3d565b90915550506001600160a01b0382166000908152602080526040902054600654614db0906001615a3d565b1115614e8b576001600160a01b038216600090815260208080526040808320548352601d91829052822054600654670de0b6b3a76400009391929190614df7906001615a3d565b815260200190815260200160002054614e109190615a89565b6001600160a01b0384166000908152601e60209081526040808320828052818420548452909152902054614e449190615a50565b614e4e9190615a67565b6001600160a01b038316600090815260176020526040902054614e719190615a3d565b6001600160a01b0383166000908152601760205260409020555b6001600160a01b0382166000818152601e602090815260408083208280528184208054855290835281842084905593835292829055602190522054156150dc576001600160a01b038216600090815260216020526040812054600554614ef19190615a89565b11156150b0576001600160a01b0382166000818152601e6020908152604080832060218352818420548452825280832054938352601690915281208054839290614f3c908490615a3d565b90915550506001600160a01b0383166000908152601f602052604081208054839290614f69908490615a3d565b90915550506001600160a01b038316600090815260216020526040902054600654614f95906001615a3d565b1115615073576001600160a01b0383166000908152602160209081526040808320548352601d91829052822054600654670de0b6b3a76400009391929190614fde906001615a3d565b815260200190815260200160002054614ff79190615a89565b6001600160a01b0385166000908152601e602090815260408083206021835281842054845290915290205461502c9190615a50565b6150369190615a67565b6001600160a01b0384166000908152601760205260409020546150599190615a3d565b6001600160a01b0384166000908152601760205260409020555b506001600160a01b0382166000818152601e60209081526040808320602180845282852080548652918452918420849055938352905290556150dc565b6001600160a01b0382166000908152602160208181526040808420805483805291852091909155919052555b505b6000601760006150ec6151ab565b6001600160a01b03166001600160a01b031681526020019081526020016000205490506000811161512f5760405162461bcd60e51b815260040161092d90615b41565b60006017600061513d6151ab565b6001600160a01b031681526020810191909152604001600020556151626124be6151ab565b61516a6151ab565b6001600160a01b031661517b6145e4565b6040518381527f2227733fc4c8a9034cb58087dcf6995128b9c0233b038b03366aaf30c92b92d6906020016115fc565b60006151b63361227b565b156151c8575060131936013560601c90565b503390565b6001600160a01b03811660009081526013602052604090205460055411156152f2576001600160a01b038116600090815260136020908152604080832054600f909252909120541580159061522f575060008181526011602052604090205415155b156152d45760008181526011602090815260408083205460199092528220546152589190615a67565b6001600160a01b0384166000908152600f6020526040902054909150612710906152829083615a50565b61528c9190615a67565b6001600160a01b038416600090815260186020526040812080549091906152b4908490615a3d565b9091555050506001600160a01b0382166000908152600f60205260408120555b506005546001600160a01b0382166000908152601360205260409020555b60065460055411801561532a575060065461530e906001615a3d565b6001600160a01b03821660009081526014602052604090205414155b1561540d576001600160a01b0381166000908152601460209081526040808320548352601d91829052822054600654670de0b6b3a76400009391929190615372906001615a3d565b81526020019081526020016000205461538b9190615a89565b6001600160a01b0383166000908152601860205260409020546153ae9190615a50565b6153b89190615a67565b6001600160a01b038216600090815260156020526040812080549091906153e0908490615a3d565b90915550506006546153f3906001615a3d565b6001600160a01b0382166000908152601460205260409020555b50565b6000826001600160a01b03168260405160006040518083038185875af1925050503d806000811461545d576040519150601f19603f3d011682016040523d82523d6000602084013e615462565b606091505b50509050806154b25760405162461bcd60e51b815260206004820152601c60248201527b1119588c1e0e8819985a5b1959081d1bc81cd95b9908185b5bdd5b9d60221b604482015260640161092d565b505050565b6000805b600184516154c99190615a89565b8110156155a05760008382815181106154e4576154e4615ce6565b60200260200101516040516020016154fc9190615cca565b6040516020818303038152906040528051906020012090508061551d6151ab565b6001600160a01b031686848151811061553857615538615ce6565b60200260200101516001600160a01b0316600080516020615d3e833981519152600c544289888151811061556e5761556e615ce6565b602002602001015160405161558593929190615cfc565b60405180910390a4508061559881615d24565b9150506154bb565b50600082600185516155b29190615a89565b815181106155c2576155c2615ce6565b60200260200101516040516020016155da9190615cca565b604051602081830303815290604052805190602001209050806155fb6151ab565b6001600160a01b031661560c6151ab565b6001600160a01b0316600080516020615d3e833981519152600c54428860018b516156379190615a89565b8151811061564757615647615ce6565b602002602001015160405161565e93929190615cfc565b60405180910390a4600c8054908190600061567883615d24565b9091555090925050505b92915050565b60006020828403121561569a57600080fd5b5035919050565b80356001600160a01b03811681146156b857600080fd5b919050565b6000602082840312156156cf57600080fd5b6156d8826156a1565b9392505050565b634e487b7160e01b600052604160045260246000fd5b604051601f8201601f191681016001600160401b038111828210171561571d5761571d6156df565b604052919050565b60006001600160401b0382111561573e5761573e6156df565b5060051b60200190565b600082601f83011261575957600080fd5b81356001600160401b03811115615772576157726156df565b615785601f8201601f19166020016156f5565b81815284602083860101111561579a57600080fd5b816020850160208301376000918101602001919091529392505050565b600082601f8301126157c857600080fd5b813560206157dd6157d883615725565b6156f5565b82815260059290921b840181019181810190868411156157fc57600080fd5b8286015b8481101561583b5780356001600160401b0381111561581f5760008081fd5b61582d8986838b0101615748565b845250918301918301615800565b509695505050505050565b600080600080600060a0868803121561585e57600080fd5b85356001600160401b038082111561587557600080fd5b818801915088601f83011261588957600080fd5b813560206158996157d883615725565b82815260059290921b8401810191818101908c8411156158b857600080fd5b948201945b838610156158dd576158ce866156a1565b825294820194908201906158bd565b995050890135925050808211156158f357600080fd5b50615900888289016157b7565b94505061590f604087016156a1565b94979396509394606081013594506080013592915050565b60005b8381101561594257818101518382015260200161592a565b50506000910152565b60008151808452615963816020860160208601615927565b601f01601f19169290920160200192915050565b6020815260006156d8602083018461594b565b6000806040838503121561599d57600080fd5b6159a6836156a1565b946020939093013593505050565b6000602082840312156159c657600080fd5b81356001600160401b038111156159dc57600080fd5b6159e884828501615748565b949350505050565b6020808252601f908201527f5265656e7472616e637947756172643a207265656e7472616e742063616c6c00604082015260600190565b634e487b7160e01b600052601160045260246000fd5b8082018082111561568257615682615a27565b808202811582820484141761568257615682615a27565b600082615a8457634e487b7160e01b600052601260045260246000fd5b500490565b8181038181111561568257615682615a27565b60208082526019908201527844656230783a20616d6f756e7420617267206973207a65726f60381b604082015260600190565b6001600160a01b03929092168252602082015260400190565b600060208284031215615afa57600080fd5b815180151581146156d857600080fd5b6020808252601d908201527f44656230783a206163636f756e7420686173206e6f2072657761726473000000604082015260600190565b60208082526022908201527f44656230783a206163636f756e7420686173206e6f2061636372756564206665604082015261657360f01b606082015260800190565b600181811c90821680615b9757607f821691505b602082108103615bb757634e487b7160e01b600052602260045260246000fd5b50919050565b601f8211156154b257600081815260208120601f850160051c81016020861015615be45750805b601f850160051c820191505b81811015615c0357828155600101615bf0565b505050505050565b81516001600160401b03811115615c2457615c246156df565b615c3881615c328454615b83565b84615bbd565b602080601f831160018114615c6d5760008415615c555750858301515b600019600386901b1c1916600185901b178555615c03565b600085815260208120601f198616915b82811015615c9c57888601518255948401946001909101908401615c7d565b5085821015615cba5787850151600019600388901b60f8161c191681555b5050505050600190811b01905550565b60008251615cdc818460208701615927565b9190910192915050565b634e487b7160e01b600052603260045260246000fd5b838152826020820152606060408201526000615d1b606083018461594b565b95945050505050565b600060018201615d3657615d36615a27565b506001019056fe30292b34f392337af6a42d59615abadbf77da5245b82b2246293c759a9b9361ea2646970667358221220d99b9fabd03682c4d06a076843472b74aaabc03a091d4a3b16badd673e90bb0a64736f6c6343000811003360806040523480156200001157600080fd5b506040518060400160405280601d81526020017f44656230782052657761726420546f6b656e206f6e20506f6c79676f6e000000815250604051806040016040528060048152602001630e08884b60e31b815250816003908162000076919062000145565b50600462000085828262000145565b5050600580546001600160a01b031916331790555062000211565b634e487b7160e01b600052604160045260246000fd5b600181811c90821680620000cb57607f821691505b602082108103620000ec57634e487b7160e01b600052602260045260246000fd5b50919050565b601f8211156200014057600081815260208120601f850160051c810160208610156200011b5750805b601f850160051c820191505b818110156200013c5782815560010162000127565b5050505b505050565b81516001600160401b03811115620001615762000161620000a0565b6200017981620001728454620000b6565b84620000f2565b602080601f831160018114620001b15760008415620001985750858301515b600019600386901b1c1916600185901b1785556200013c565b600085815260208120601f198616915b82811015620001e257888601518255948401946001909101908401620001c1565b5085821015620002015787850151600019600388901b60f8161c191681555b5050505050600190811b01905550565b610a7280620002216000396000f3fe608060405234801561001057600080fd5b50600436106100af5760003560e01c806306fdde03146100b4578063095ea7b3146100d257806318160ddd146100f557806323b872dd14610107578063313ce5671461011a578063395093511461012957806370a082311461013c5780638da5cb5b1461016557806395d89b41146101905780639a49090e14610198578063a457c2d7146101ad578063a9059cbb146101c0578063dd62ed3e146101d3575b600080fd5b6100bc6101e6565b6040516100c9919061089c565b60405180910390f35b6100e56100e0366004610906565b610278565b60405190151581526020016100c9565b6002545b6040519081526020016100c9565b6100e5610115366004610930565b610292565b604051601281526020016100c9565b6100e5610137366004610906565b6102b6565b6100f961014a36600461096c565b6001600160a01b031660009081526020819052604090205490565b600554610178906001600160a01b031681565b6040516001600160a01b0390911681526020016100c9565b6100bc6102d8565b6101ab6101a6366004610906565b6102e7565b005b6100e56101bb366004610906565b6103c1565b6100e56101ce366004610906565b61043c565b6100f96101e136600461098e565b61044a565b6060600380546101f5906109c1565b80601f0160208091040260200160405190810160405280929190818152602001828054610221906109c1565b801561026e5780601f106102435761010080835404028352916020019161026e565b820191906000526020600020905b81548152906001019060200180831161025157829003601f168201915b5050505050905090565b600033610286818585610475565b60019150505b92915050565b6000336102a0858285610599565b6102ab858585610613565b506001949350505050565b6000336102868185856102c9838361044a565b6102d391906109fb565b610475565b6060600480546101f5906109c1565b6005546001600160a01b031633146103515760405162461bcd60e51b815260206004820152602260248201527f4442583a2063616c6c6572206973206e6f7420446562307820636f6e747261636044820152613a1760f11b60648201526084015b60405180910390fd5b6a0424e8a4eaca5ed740000061036660025490565b106103b35760405162461bcd60e51b815260206004820152601e60248201527f4442583a206d617820737570706c7920616c7265616479206d696e74656400006044820152606401610348565b6103bd82826107cf565b5050565b600033816103cf828661044a565b90508381101561042f5760405162461bcd60e51b815260206004820152602560248201527f45524332303a2064656372656173656420616c6c6f77616e63652062656c6f77604482015264207a65726f60d81b6064820152608401610348565b6102ab8286868403610475565b600033610286818585610613565b6001600160a01b03918216600090815260016020908152604080832093909416825291909152205490565b6001600160a01b0383166104d75760405162461bcd60e51b8152602060048201526024808201527f45524332303a20617070726f76652066726f6d20746865207a65726f206164646044820152637265737360e01b6064820152608401610348565b6001600160a01b0382166105385760405162461bcd60e51b815260206004820152602260248201527f45524332303a20617070726f766520746f20746865207a65726f206164647265604482015261737360f01b6064820152608401610348565b6001600160a01b0383811660008181526001602090815260408083209487168084529482529182902085905590518481527f8c5be1e5ebec7d5bd14f71427d1e84f3dd0314c0f7b2291e5b200ac8c7c3b925910160405180910390a3505050565b60006105a5848461044a565b9050600019811461060d57818110156106005760405162461bcd60e51b815260206004820152601d60248201527f45524332303a20696e73756666696369656e7420616c6c6f77616e63650000006044820152606401610348565b61060d8484848403610475565b50505050565b6001600160a01b0383166106775760405162461bcd60e51b815260206004820152602560248201527f45524332303a207472616e736665722066726f6d20746865207a65726f206164604482015264647265737360d81b6064820152608401610348565b6001600160a01b0382166106d95760405162461bcd60e51b815260206004820152602360248201527f45524332303a207472616e7366657220746f20746865207a65726f206164647260448201526265737360e81b6064820152608401610348565b6001600160a01b038316600090815260208190526040902054818110156107515760405162461bcd60e51b815260206004820152602660248201527f45524332303a207472616e7366657220616d6f756e7420657863656564732062604482015265616c616e636560d01b6064820152608401610348565b6001600160a01b038085166000908152602081905260408082208585039055918516815290812080548492906107889084906109fb565b92505081905550826001600160a01b0316846001600160a01b0316600080516020610a1d833981519152846040516107c291815260200190565b60405180910390a361060d565b6001600160a01b0382166108255760405162461bcd60e51b815260206004820152601f60248201527f45524332303a206d696e7420746f20746865207a65726f2061646472657373006044820152606401610348565b806002600082825461083791906109fb565b90915550506001600160a01b038216600090815260208190526040812080548392906108649084906109fb565b90915550506040518181526001600160a01b03831690600090600080516020610a1d8339815191529060200160405180910390a35050565b600060208083528351808285015260005b818110156108c9578581018301518582016040015282016108ad565b506000604082860101526040601f19601f8301168501019250505092915050565b80356001600160a01b038116811461090157600080fd5b919050565b6000806040838503121561091957600080fd5b610922836108ea565b946020939093013593505050565b60008060006060848603121561094557600080fd5b61094e846108ea565b925061095c602085016108ea565b9150604084013590509250925092565b60006020828403121561097e57600080fd5b610987826108ea565b9392505050565b600080604083850312156109a157600080fd5b6109aa836108ea565b91506109b8602084016108ea565b90509250929050565b600181811c908216806109d557607f821691505b6020821081036109f557634e487b7160e01b600052602260045260246000fd5b50919050565b8082018082111561028c57634e487b7160e01b600052601160045260246000fdfeddf252ad1be2c89b69c2b068fc378daa952ba7f163c4a11628f55a4df523b3efa2646970667358221220141f95afa1aa36510d7a764a1d304448b7c3196aeb14b2ada7b3bf4ceffa202764736f6c63430008110033",
    "linkReferences": {},
    "deployedLinkReferences": {}
}