{
  "_format": "hh-sol-artifact-1",
  "contractName": "Deb0x",
  "sourceName": "contracts/Deb0x.sol",
  "abi": [
    {
      "inputs": [],
      "stateMutability": "nonpayable",
      "type": "constructor"
    },
    {
      "anonymous": false,
      "inputs": [
        {
          "indexed": false,
          "internalType": "uint256",
          "name": "fees",
          "type": "uint256"
        }
      ],
      "name": "FeesClaimed",
      "type": "event"
    },
    {
      "inputs": [],
      "name": "MAIL_FEE",
      "outputs": [
        {
          "internalType": "uint16",
          "name": "",
          "type": "uint16"
        }
      ],
      "stateMutability": "view",
      "type": "function"
    },
    {
      "inputs": [
        {
          "internalType": "address",
          "name": "",
          "type": "address"
        }
      ],
      "name": "addressAccruedFees",
      "outputs": [
        {
          "internalType": "uint256",
          "name": "",
          "type": "uint256"
        }
      ],
      "stateMutability": "view",
      "type": "function"
    },
    {
      "inputs": [
        {
          "internalType": "address",
          "name": "",
          "type": "address"
        }
      ],
      "name": "addressRewards",
      "outputs": [
        {
          "internalType": "uint256",
          "name": "",
          "type": "uint256"
        }
      ],
      "stateMutability": "view",
      "type": "function"
    },
    {
      "inputs": [],
      "name": "calculateCycleReward",
      "outputs": [
        {
          "internalType": "uint256",
          "name": "",
          "type": "uint256"
        }
      ],
      "stateMutability": "view",
      "type": "function"
    },
    {
      "inputs": [],
      "name": "claimFees",
      "outputs": [],
      "stateMutability": "nonpayable",
      "type": "function"
    },
    {
      "inputs": [],
      "name": "claimFrontEndFees",
      "outputs": [],
      "stateMutability": "nonpayable",
      "type": "function"
    },
    {
      "inputs": [],
      "name": "claimFrontEndRewards",
      "outputs": [],
      "stateMutability": "nonpayable",
      "type": "function"
    },
    {
      "inputs": [],
      "name": "claimRewards",
      "outputs": [],
      "stateMutability": "nonpayable",
      "type": "function"
    },
    {
      "inputs": [],
      "name": "contractBalance",
      "outputs": [
        {
          "internalType": "uint256",
          "name": "",
          "type": "uint256"
        }
      ],
      "stateMutability": "view",
      "type": "function"
    },
    {
      "inputs": [],
      "name": "currentStartedCycle",
      "outputs": [
        {
          "internalType": "uint256",
          "name": "",
          "type": "uint256"
        }
      ],
      "stateMutability": "view",
      "type": "function"
    },
    {
      "inputs": [
        {
          "internalType": "uint256",
          "name": "",
          "type": "uint256"
        }
      ],
      "name": "earnedNative",
      "outputs": [
        {
          "internalType": "uint256",
          "name": "",
          "type": "uint256"
        }
      ],
      "stateMutability": "view",
      "type": "function"
    },
    {
      "inputs": [
        {
          "internalType": "address",
          "name": "",
          "type": "address"
        }
      ],
      "name": "encryptionKeys",
      "outputs": [
        {
          "internalType": "string",
          "name": "",
          "type": "string"
        }
      ],
      "stateMutability": "view",
      "type": "function"
    },
    {
      "inputs": [],
      "name": "dbx",
      "outputs": [
        {
          "internalType": "contract DBX",
          "name": "",
          "type": "address"
        }
      ],
      "stateMutability": "view",
      "type": "function"
    },
    {
      "inputs": [
        {
          "internalType": "address",
          "name": "to",
          "type": "address"
        }
      ],
      "name": "fetchMessageSenders",
      "outputs": [
        {
          "internalType": "address[]",
          "name": "",
          "type": "address[]"
        }
      ],
      "stateMutability": "view",
      "type": "function"
    },
    {
      "inputs": [
        {
          "internalType": "address",
          "name": "to",
          "type": "address"
        },
        {
          "internalType": "address",
          "name": "from",
          "type": "address"
        }
      ],
      "name": "fetchMessages",
      "outputs": [
        {
          "components": [
            {
              "internalType": "string",
              "name": "cid",
              "type": "string"
            },
            {
              "internalType": "uint256",
              "name": "blockTimestamp",
              "type": "uint256"
            }
          ],
          "internalType": "struct Deb0xCore.content[]",
          "name": "",
          "type": "tuple[]"
        }
      ],
      "stateMutability": "view",
      "type": "function"
    },
    {
      "inputs": [
        {
          "internalType": "address",
          "name": "sender",
          "type": "address"
        }
      ],
      "name": "fetchSentMessages",
      "outputs": [
        {
          "components": [
            {
              "internalType": "address[]",
              "name": "recipients",
              "type": "address[]"
            },
            {
              "components": [
                {
                  "internalType": "string",
                  "name": "cid",
                  "type": "string"
                },
                {
                  "internalType": "uint256",
                  "name": "blockTimestamp",
                  "type": "uint256"
                }
              ],
              "internalType": "struct Deb0xCore.content",
              "name": "contentData",
              "type": "tuple"
            }
          ],
          "internalType": "struct Deb0xCore.sentMessage[]",
          "name": "",
          "type": "tuple[]"
        }
      ],
      "stateMutability": "view",
      "type": "function"
    },
    {
      "inputs": [],
      "name": "getCurrentCycle",
      "outputs": [
        {
          "internalType": "uint256",
          "name": "",
          "type": "uint256"
        }
      ],
      "stateMutability": "view",
      "type": "function"
    },
    {
      "inputs": [
        {
          "internalType": "address",
          "name": "account",
          "type": "address"
        }
      ],
      "name": "getKey",
      "outputs": [
        {
          "internalType": "string",
          "name": "",
          "type": "string"
        }
      ],
      "stateMutability": "view",
      "type": "function"
    },
    {
      "inputs": [
        {
          "internalType": "address",
          "name": "user",
          "type": "address"
        }
      ],
      "name": "getUnclaimedFees",
      "outputs": [
        {
          "internalType": "uint256",
          "name": "",
          "type": "uint256"
        }
      ],
      "stateMutability": "view",
      "type": "function"
    },
    {
      "inputs": [
        {
          "internalType": "address",
          "name": "user",
          "type": "address"
        }
      ],
      "name": "getUnclaimedRewards",
      "outputs": [
        {
          "internalType": "uint256",
          "name": "",
          "type": "uint256"
        }
      ],
      "stateMutability": "view",
      "type": "function"
    },
    {
      "inputs": [
        {
          "internalType": "address",
          "name": "staker",
          "type": "address"
        }
      ],
      "name": "getUserWithdrawableStake",
      "outputs": [
        {
          "internalType": "uint256",
          "name": "",
          "type": "uint256"
        }
      ],
      "stateMutability": "view",
      "type": "function"
    },
    {
      "inputs": [
        {
          "internalType": "uint256",
          "name": "",
          "type": "uint256"
        }
      ],
      "name": "rewardPerCycle",
      "outputs": [
        {
          "internalType": "uint256",
          "name": "",
          "type": "uint256"
        }
      ],
      "stateMutability": "view",
      "type": "function"
    },
    {
      "inputs": [
        {
          "internalType": "address[]",
          "name": "to",
          "type": "address[]"
        },
        {
          "internalType": "string[]",
          "name": "payload",
          "type": "string[]"
        },
        {
          "internalType": "address",
          "name": "feeReceiver",
          "type": "address"
        },
        {
          "internalType": "uint256",
          "name": "msgFee",
          "type": "uint256"
        },
        {
          "internalType": "uint256",
          "name": "nativeTokenFee",
          "type": "uint256"
        }
      ],
      "name": "send",
      "outputs": [],
      "stateMutability": "payable",
      "type": "function"
    },
    {
      "inputs": [
        {
          "internalType": "address[]",
          "name": "recipients",
          "type": "address[]"
        },
        {
          "internalType": "string[]",
          "name": "cids",
          "type": "string[]"
        }
      ],
      "name": "send",
      "outputs": [],
      "stateMutability": "payable",
      "type": "function"
    },
    {
      "inputs": [
        {
          "internalType": "string",
          "name": "encryptionKey",
          "type": "string"
        }
      ],
      "name": "setKey",
      "outputs": [],
      "stateMutability": "nonpayable",
      "type": "function"
    },
    {
      "inputs": [
        {
          "internalType": "uint256",
          "name": "_amount",
          "type": "uint256"
        }
      ],
      "name": "stakeDBX",
      "outputs": [],
      "stateMutability": "nonpayable",
      "type": "function"
    },
    {
      "inputs": [
        {
          "internalType": "uint256",
          "name": "",
          "type": "uint256"
        }
      ],
      "name": "summedCycleStakes",
      "outputs": [
        {
          "internalType": "uint256",
          "name": "",
          "type": "uint256"
        }
      ],
      "stateMutability": "view",
      "type": "function"
    },
    {
      "inputs": [
        {
          "internalType": "uint256",
          "name": "_amount",
          "type": "uint256"
        }
      ],
      "name": "unstake",
      "outputs": [],
      "stateMutability": "nonpayable",
      "type": "function"
    },
    {
      "inputs": [
        {
          "internalType": "address",
          "name": "",
          "type": "address"
        }
      ],
      "name": "userFirstStake",
      "outputs": [
        {
          "internalType": "uint256",
          "name": "",
          "type": "uint256"
        }
      ],
      "stateMutability": "view",
      "type": "function"
    },
    {
      "inputs": [
        {
          "internalType": "address",
          "name": "",
          "type": "address"
        }
      ],
      "name": "userSecondStake",
      "outputs": [
        {
          "internalType": "uint256",
          "name": "",
          "type": "uint256"
        }
      ],
      "stateMutability": "view",
      "type": "function"
    },
    {
      "inputs": [
        {
          "internalType": "address",
          "name": "",
          "type": "address"
        },
        {
          "internalType": "uint256",
          "name": "",
          "type": "uint256"
        }
      ],
      "name": "userStakeCycle",
      "outputs": [
        {
          "internalType": "uint256",
          "name": "",
          "type": "uint256"
        }
      ],
      "stateMutability": "view",
      "type": "function"
    },
    {
      "inputs": [
        {
          "internalType": "address",
          "name": "",
          "type": "address"
        }
      ],
      "name": "userWithdrawableStake",
      "outputs": [
        {
          "internalType": "uint256",
          "name": "",
          "type": "uint256"
        }
      ],
      "stateMutability": "view",
      "type": "function"
    }
  ],
  "bytecode": "0x60806040526103e8600660146101000a81548161ffff021916908361ffff16021790555060646007556001600e60006101000a81548160ff021916908360ff160217905550671f399b1438a100006010553480156200005d57600080fd5b506200007e620000726200031460201b60201c565b6200031c60201b60201c565b306040516200008d90620003e0565b62000099919062000433565b604051809103906000f080158015620000b6573d6000803e3d6000fd5b50600560006101000a81548173ffffffffffffffffffffffffffffffffffffffff021916908373ffffffffffffffffffffffffffffffffffffffff160217905550600560009054906101000a900473ffffffffffffffffffffffffffffffffffffffff1673ffffffffffffffffffffffffffffffffffffffff1663095ea7b330600560009054906101000a900473ffffffffffffffffffffffffffffffffffffffff1673ffffffffffffffffffffffffffffffffffffffff166318160ddd6040518163ffffffff1660e01b8152600401602060405180830381865afa158015620001a4573d6000803e3d6000fd5b505050506040513d601f19601f82011682018060405250810190620001ca919062000490565b6040518363ffffffff1660e01b8152600401620001e9929190620004d3565b6020604051808303816000875af115801562000209573d6000803e3d6000fd5b505050506040513d601f19601f820116820180604052508101906200022f91906200053d565b50600560009054906101000a900473ffffffffffffffffffffffffffffffffffffffff1673ffffffffffffffffffffffffffffffffffffffff166318160ddd6040518163ffffffff1660e01b8152600401602060405180830381865afa1580156200029e573d6000803e3d6000fd5b505050506040513d601f19601f82011682018060405250810190620002c4919062000490565b600a60003073ffffffffffffffffffffffffffffffffffffffff1673ffffffffffffffffffffffffffffffffffffffff1681526020019081526020016000208190555042600f819055506200056f565b600033905090565b60008060009054906101000a900473ffffffffffffffffffffffffffffffffffffffff169050816000806101000a81548173ffffffffffffffffffffffffffffffffffffffff021916908373ffffffffffffffffffffffffffffffffffffffff1602179055508173ffffffffffffffffffffffffffffffffffffffff168173ffffffffffffffffffffffffffffffffffffffff167f8be0079c531659141344cd1fd0a4f28419497f9722a3daafe3b4186f6b6457e060405160405180910390a35050565b611a058062003a4f83390190565b600073ffffffffffffffffffffffffffffffffffffffff82169050919050565b60006200041b82620003ee565b9050919050565b6200042d816200040e565b82525050565b60006020820190506200044a600083018462000422565b92915050565b600080fd5b6000819050919050565b6200046a8162000455565b81146200047657600080fd5b50565b6000815190506200048a816200045f565b92915050565b600060208284031215620004a957620004a862000450565b5b6000620004b98482850162000479565b91505092915050565b620004cd8162000455565b82525050565b6000604082019050620004ea600083018562000422565b620004f96020830184620004c2565b9392505050565b60008115159050919050565b620005178162000500565b81146200052357600080fd5b50565b60008151905062000537816200050c565b92915050565b60006020828403121562000556576200055562000450565b5b6000620005668482850162000526565b91505092915050565b6134d0806200057f6000396000f3fe6080604052600436106101b75760003560e01c80638da5cb5b116100ec578063b3328d341161008a578063cd3daf9d11610064578063cd3daf9d14610618578063ddca3f4314610643578063df136d651461066e578063f2fde38b14610699576101b7565b8063b3328d3414610594578063c8f33c91146105d1578063cc7ef509146105fc576101b7565b806393790f44116100c657806393790f44146104e95780639e447fc6146105265780639f33626e1461054f578063af42d1061461056b576101b7565b80638da5cb5b1461046c5780638e0055531461049757806390a25a07146104c0576101b7565b806358503a9511610159578063715018a611610133578063715018a6146103c25780637b0a47ee146103d95780638b7afe2e146104045780638b8763471461042f576101b7565b806358503a951461033157806369131a471461036e5780636d9384f914610385576101b7565b806318160ddd1161019557806318160ddd146102615780631f4d024d1461028c57806352a398d8146102c957806357a0641f14610306576101b7565b80630700037d146101bc5780630c340a24146101f95780630f4ac71a14610224575b600080fd5b3480156101c857600080fd5b506101e360048036038101906101de91906120a1565b6106c2565b6040516101f091906120e7565b60405180910390f35b34801561020557600080fd5b5061020e6106da565b60405161021b9190612161565b60405180910390f35b34801561023057600080fd5b5061024b600480360381019061024691906120a1565b610700565b60405161025891906120e7565b60405180910390f35b34801561026d57600080fd5b50610276610718565b60405161028391906120e7565b60405180910390f35b34801561029857600080fd5b506102b360048036038101906102ae91906120a1565b61071e565b6040516102c0919061220c565b60405180910390f35b3480156102d557600080fd5b506102f060048036038101906102eb91906120a1565b6107be565b6040516102fd9190612488565b60405180910390f35b34801561031257600080fd5b5061031b61099a565b60405161032891906124cb565b60405180910390f35b34801561033d57600080fd5b50610358600480360381019061035391906120a1565b6109c0565b6040516103659190612555565b60405180910390f35b34801561037a57600080fd5b50610383610a8d565b005b34801561039157600080fd5b506103ac60048036038101906103a79190612577565b610c0f565b6040516103b99190612679565b60405180910390f35b3480156103ce57600080fd5b506103d7610d87565b005b3480156103e557600080fd5b506103ee610e0f565b6040516103fb91906120e7565b60405180910390f35b34801561041057600080fd5b50610419610e15565b60405161042691906120e7565b60405180910390f35b34801561043b57600080fd5b50610456600480360381019061045191906120a1565b610e1d565b60405161046391906120e7565b60405180910390f35b34801561047857600080fd5b50610481610e35565b60405161048e91906126aa565b60405180910390f35b3480156104a357600080fd5b506104be60048036038101906104b991906126ff565b610e5e565b005b3480156104cc57600080fd5b506104e760048036038101906104e29190612758565b610efa565b005b3480156104f557600080fd5b50610510600480360381019061050b91906120a1565b611189565b60405161051d919061220c565b60405180910390f35b34801561053257600080fd5b5061054d60048036038101906105489190612758565b61125a565b005b61056960048036038101906105649190612a63565b6112e0565b005b34801561057757600080fd5b50610592600480360381019061058d9190612adb565b611594565b005b3480156105a057600080fd5b506105bb60048036038101906105b691906120a1565b6115e4565b6040516105c891906120e7565b60405180910390f35b3480156105dd57600080fd5b506105e66116e6565b6040516105f391906120e7565b60405180910390f35b61061660048036038101906106119190612758565b6116ec565b005b34801561062457600080fd5b5061062d6118ed565b60405161063a91906120e7565b60405180910390f35b34801561064f57600080fd5b50610658611950565b6040516106659190612b33565b60405180910390f35b34801561067a57600080fd5b50610683611964565b60405161069091906120e7565b60405180910390f35b3480156106a557600080fd5b506106c060048036038101906106bb91906120a1565b61196a565b005b600c6020528060005260406000206000915090505481565b600660009054906101000a900473ffffffffffffffffffffffffffffffffffffffff1681565b600a6020528060005260406000206000915090505481565b600d5481565b6001602052806000526040600020600091509050805461073d90612b7d565b80601f016020809104026020016040519081016040528092919081815260200182805461076990612b7d565b80156107b65780601f1061078b576101008083540402835291602001916107b6565b820191906000526020600020905b81548152906001019060200180831161079957829003601f168201915b505050505081565b6060600360008373ffffffffffffffffffffffffffffffffffffffff1673ffffffffffffffffffffffffffffffffffffffff168152602001908152602001600020805480602002602001604051908101604052809291908181526020016000905b8282101561098f5783829060005260206000209060030201604051806040016040529081600082018054806020026020016040519081016040528092919081815260200182805480156108c757602002820191906000526020600020905b8160009054906101000a900473ffffffffffffffffffffffffffffffffffffffff1673ffffffffffffffffffffffffffffffffffffffff168152602001906001019080831161087d575b50505050508152602001600182016040518060400160405290816000820180546108f090612b7d565b80601f016020809104026020016040519081016040528092919081815260200182805461091c90612b7d565b80156109695780601f1061093e57610100808354040283529160200191610969565b820191906000526020600020905b81548152906001019060200180831161094c57829003601f168201915b50505050508152602001600182015481525050815250508152602001906001019061081f565b505050509050919050565b600560009054906101000a900473ffffffffffffffffffffffffffffffffffffffff1681565b6060600460008373ffffffffffffffffffffffffffffffffffffffff1673ffffffffffffffffffffffffffffffffffffffff168152602001908152602001600020805480602002602001604051908101604052809291908181526020018280548015610a8157602002820191906000526020600020905b8160009054906101000a900473ffffffffffffffffffffffffffffffffffffffff1673ffffffffffffffffffffffffffffffffffffffff1681526020019060010190808311610a37575b50505050509050919050565b33610a966118ed565b60098190555042600881905550610aac816115e4565b600c60008373ffffffffffffffffffffffffffffffffffffffff1673ffffffffffffffffffffffffffffffffffffffff16815260200190815260200160002081905550600954600b60008373ffffffffffffffffffffffffffffffffffffffff1673ffffffffffffffffffffffffffffffffffffffff168152602001908152602001600020819055506000600c60003373ffffffffffffffffffffffffffffffffffffffff1673ffffffffffffffffffffffffffffffffffffffff16815260200190815260200160002054905060008111610bbc576040517f08c379a0000000000000000000000000000000000000000000000000000000008152600401610bb390612bfa565b60405180910390fd5b6000600c60003373ffffffffffffffffffffffffffffffffffffffff1673ffffffffffffffffffffffffffffffffffffffff16815260200190815260200160002081905550610c0b3382611a61565b5050565b6060600260008473ffffffffffffffffffffffffffffffffffffffff1673ffffffffffffffffffffffffffffffffffffffff16815260200190815260200160002060008373ffffffffffffffffffffffffffffffffffffffff1673ffffffffffffffffffffffffffffffffffffffff168152602001908152602001600020805480602002602001604051908101604052809291908181526020016000905b82821015610d7b5783829060005260206000209060020201604051806040016040529081600082018054610ce090612b7d565b80601f0160208091040260200160405190810160405280929190818152602001828054610d0c90612b7d565b8015610d595780601f10610d2e57610100808354040283529160200191610d59565b820191906000526020600020905b815481529060010190602001808311610d3c57829003601f168201915b5050505050815260200160018201548152505081526020019060010190610cad565b50505050905092915050565b610d8f611b12565b73ffffffffffffffffffffffffffffffffffffffff16610dad610e35565b73ffffffffffffffffffffffffffffffffffffffff1614610e03576040517f08c379a0000000000000000000000000000000000000000000000000000000008152600401610dfa90612c66565b60405180910390fd5b610e0d6000611b1a565b565b60075481565b600047905090565b600b6020528060005260406000206000915090505481565b60008060009054906101000a900473ffffffffffffffffffffffffffffffffffffffff16905090565b610e66611b12565b73ffffffffffffffffffffffffffffffffffffffff16610e84610e35565b73ffffffffffffffffffffffffffffffffffffffff1614610eda576040517f08c379a0000000000000000000000000000000000000000000000000000000008152600401610ed190612c66565b60405180910390fd5b80600660146101000a81548161ffff021916908361ffff16021790555050565b33610f036118ed565b60098190555042600881905550610f19816115e4565b600c60008373ffffffffffffffffffffffffffffffffffffffff1673ffffffffffffffffffffffffffffffffffffffff16815260200190815260200160002081905550600954600b60008373ffffffffffffffffffffffffffffffffffffffff1673ffffffffffffffffffffffffffffffffffffffff1681526020019081526020016000208190555060008203610fe5576040517f08c379a0000000000000000000000000000000000000000000000000000000008152600401610fdc90612cd2565b60405180910390fd5b600082600a60003373ffffffffffffffffffffffffffffffffffffffff1673ffffffffffffffffffffffffffffffffffffffff168152602001908152602001600020546110329190612d21565b1015611073576040517f08c379a000000000000000000000000000000000000000000000000000000000815260040161106a90612da1565b60405180910390fd5b81600d60008282546110859190612d21565b9250508190555081600a60003373ffffffffffffffffffffffffffffffffffffffff1673ffffffffffffffffffffffffffffffffffffffff16815260200190815260200160002060008282546110db9190612d21565b92505081905550600560009054906101000a900473ffffffffffffffffffffffffffffffffffffffff1673ffffffffffffffffffffffffffffffffffffffff166323b872dd3033856040518463ffffffff1660e01b815260040161114193929190612dc1565b6020604051808303816000875af1158015611160573d6000803e3d6000fd5b505050506040513d601f19601f820116820180604052508101906111849190612e30565b505050565b6060600160008373ffffffffffffffffffffffffffffffffffffffff1673ffffffffffffffffffffffffffffffffffffffff16815260200190815260200160002080546111d590612b7d565b80601f016020809104026020016040519081016040528092919081815260200182805461120190612b7d565b801561124e5780601f106112235761010080835404028352916020019161124e565b820191906000526020600020905b81548152906001019060200180831161123157829003601f168201915b50505050509050919050565b611262611b12565b73ffffffffffffffffffffffffffffffffffffffff16611280610e35565b73ffffffffffffffffffffffffffffffffffffffff16146112d6576040517f08c379a00000000000000000000000000000000000000000000000000000000081526004016112cd90612c66565b60405180910390fd5b8060078190555050565b336112e96118ed565b600981905550426008819055506112ff816115e4565b600c60008373ffffffffffffffffffffffffffffffffffffffff1673ffffffffffffffffffffffffffffffffffffffff16815260200190815260200160002081905550600954600b60008373ffffffffffffffffffffffffffffffffffffffff1673ffffffffffffffffffffffffffffffffffffffff1681526020019081526020016000208190555060005a9050600f54621f47d0600e60009054906101000a900460ff1660ff166113b19190612e6c565b62ffffff166113c09190612ea9565b421115611414576001600e60008282829054906101000a900460ff166113e69190612eea565b92506101000a81548160ff021916908360ff160217905550600260105461140d9190612f4e565b6010819055505b61141e8484611bde565b601054600a60003073ffffffffffffffffffffffffffffffffffffffff1673ffffffffffffffffffffffffffffffffffffffff168152602001908152602001600020600082825461146f9190612d21565b92505081905550601054600a60003373ffffffffffffffffffffffffffffffffffffffff1673ffffffffffffffffffffffffffffffffffffffff16815260200190815260200160002060008282546114c79190612ea9565b92505081905550601054600d60008282546114e29190612ea9565b9250508190555060005a826114f79190612d21565b9050612710600660149054906101000a900461ffff1661ffff163a61c350615208856115239190612ea9565b61152d9190612ea9565b6115379190612f7f565b6115419190612f7f565b61154b9190612f4e565b34101561158d576040517f08c379a00000000000000000000000000000000000000000000000000000000081526004016115849061304b565b60405180910390fd5b5050505050565b80600160003373ffffffffffffffffffffffffffffffffffffffff1673ffffffffffffffffffffffffffffffffffffffff16815260200190815260200160002090816115e0919061320d565b5050565b6000600c60008373ffffffffffffffffffffffffffffffffffffffff1673ffffffffffffffffffffffffffffffffffffffff16815260200190815260200160002054670de0b6b3a7640000600b60008573ffffffffffffffffffffffffffffffffffffffff1673ffffffffffffffffffffffffffffffffffffffff168152602001908152602001600020546116776118ed565b6116819190612d21565b600a60008673ffffffffffffffffffffffffffffffffffffffff1673ffffffffffffffffffffffffffffffffffffffff168152602001908152602001600020546116cb9190612f7f565b6116d59190612f4e565b6116df9190612ea9565b9050919050565b60085481565b336116f56118ed565b6009819055504260088190555061170b816115e4565b600c60008373ffffffffffffffffffffffffffffffffffffffff1673ffffffffffffffffffffffffffffffffffffffff16815260200190815260200160002081905550600954600b60008373ffffffffffffffffffffffffffffffffffffffff1673ffffffffffffffffffffffffffffffffffffffff16815260200190815260200160002081905550600082036117d7576040517f08c379a00000000000000000000000000000000000000000000000000000000081526004016117ce90612cd2565b60405180910390fd5b81600d60008282546117e99190612ea9565b9250508190555081600a60003373ffffffffffffffffffffffffffffffffffffffff1673ffffffffffffffffffffffffffffffffffffffff168152602001908152602001600020600082825461183f9190612ea9565b92505081905550600560009054906101000a900473ffffffffffffffffffffffffffffffffffffffff1673ffffffffffffffffffffffffffffffffffffffff166323b872dd3330856040518463ffffffff1660e01b81526004016118a593929190612dc1565b6020604051808303816000875af11580156118c4573d6000803e3d6000fd5b505050506040513d601f19601f820116820180604052508101906118e89190612e30565b505050565b600080600d540361190257600954905061194d565b600d54670de0b6b3a76400006007546008544261191f9190612d21565b6119299190612f7f565b6119339190612f7f565b61193d9190612f4e565b60095461194a9190612ea9565b90505b90565b600660149054906101000a900461ffff1681565b60095481565b611972611b12565b73ffffffffffffffffffffffffffffffffffffffff16611990610e35565b73ffffffffffffffffffffffffffffffffffffffff16146119e6576040517f08c379a00000000000000000000000000000000000000000000000000000000081526004016119dd90612c66565b60405180910390fd5b600073ffffffffffffffffffffffffffffffffffffffff168173ffffffffffffffffffffffffffffffffffffffff1603611a55576040517f08c379a0000000000000000000000000000000000000000000000000000000008152600401611a4c90613351565b60405180910390fd5b611a5e81611b1a565b50565b60008273ffffffffffffffffffffffffffffffffffffffff1682604051611a87906133a2565b60006040518083038185875af1925050503d8060008114611ac4576040519150601f19603f3d011682016040523d82523d6000602084013e611ac9565b606091505b5050905080611b0d576040517f08c379a0000000000000000000000000000000000000000000000000000000008152600401611b0490613403565b60405180910390fd5b505050565b600033905090565b60008060009054906101000a900473ffffffffffffffffffffffffffffffffffffffff169050816000806101000a81548173ffffffffffffffffffffffffffffffffffffffff021916908373ffffffffffffffffffffffffffffffffffffffff1602179055508173ffffffffffffffffffffffffffffffffffffffff168173ffffffffffffffffffffffffffffffffffffffff167f8be0079c531659141344cd1fd0a4f28419497f9722a3daafe3b4186f6b6457e060405160405180910390a35050565b60005b60018351611bef9190612d21565b811015611e7b57600060026000858481518110611c0f57611c0e613423565b5b602002602001015173ffffffffffffffffffffffffffffffffffffffff1673ffffffffffffffffffffffffffffffffffffffff16815260200190815260200160002060003373ffffffffffffffffffffffffffffffffffffffff1673ffffffffffffffffffffffffffffffffffffffff1681526020019081526020016000208054905003611d525760046000848381518110611cae57611cad613423565b5b602002602001015173ffffffffffffffffffffffffffffffffffffffff1673ffffffffffffffffffffffffffffffffffffffff168152602001908152602001600020339080600181540180825580915050600190039060005260206000200160009091909190916101000a81548173ffffffffffffffffffffffffffffffffffffffff021916908373ffffffffffffffffffffffffffffffffffffffff1602179055505b60006040518060400160405280848481518110611d7257611d71613423565b5b6020026020010151815260200142815250905060026000858481518110611d9c57611d9b613423565b5b602002602001015173ffffffffffffffffffffffffffffffffffffffff1673ffffffffffffffffffffffffffffffffffffffff16815260200190815260200160002060003373ffffffffffffffffffffffffffffffffffffffff1673ffffffffffffffffffffffffffffffffffffffff1681526020019081526020016000208190806001815401808255809150506001900390600052602060002090600202016000909190919091506000820151816000019081611e5a919061320d565b50602082015181600101555050508080611e7390613452565b915050611be1565b50600060405180604001604052808360018651611e989190612d21565b81518110611ea957611ea8613423565b5b60200260200101518152602001428152509050600360003373ffffffffffffffffffffffffffffffffffffffff1673ffffffffffffffffffffffffffffffffffffffff16815260200190815260200160002060405180604001604052808581526020018381525090806001815401808255809150506001900390600052602060002090600302016000909190919091506000820151816000019080519060200190611f55929190611f88565b506020820151816001016000820151816000019081611f74919061320d565b506020820151816001015550505050505050565b828054828255906000526020600020908101928215612001579160200282015b828111156120005782518260006101000a81548173ffffffffffffffffffffffffffffffffffffffff021916908373ffffffffffffffffffffffffffffffffffffffff16021790555091602001919060010190611fa8565b5b50905061200e9190612012565b5090565b5b8082111561202b576000816000905550600101612013565b5090565b6000604051905090565b600080fd5b600080fd5b600073ffffffffffffffffffffffffffffffffffffffff82169050919050565b600061206e82612043565b9050919050565b61207e81612063565b811461208957600080fd5b50565b60008135905061209b81612075565b92915050565b6000602082840312156120b7576120b6612039565b5b60006120c58482850161208c565b91505092915050565b6000819050919050565b6120e1816120ce565b82525050565b60006020820190506120fc60008301846120d8565b92915050565b6000819050919050565b600061212761212261211d84612043565b612102565b612043565b9050919050565b60006121398261210c565b9050919050565b600061214b8261212e565b9050919050565b61215b81612140565b82525050565b60006020820190506121766000830184612152565b92915050565b600081519050919050565b600082825260208201905092915050565b60005b838110156121b657808201518184015260208101905061219b565b60008484015250505050565b6000601f19601f8301169050919050565b60006121de8261217c565b6121e88185612187565b93506121f8818560208601612198565b612201816121c2565b840191505092915050565b6000602082019050818103600083015261222681846121d3565b905092915050565b600081519050919050565b600082825260208201905092915050565b6000819050602082019050919050565b600081519050919050565b600082825260208201905092915050565b6000819050602082019050919050565b61228f81612063565b82525050565b60006122a18383612286565b60208301905092915050565b6000602082019050919050565b60006122c58261225a565b6122cf8185612265565b93506122da83612276565b8060005b8381101561230b5781516122f28882612295565b97506122fd836122ad565b9250506001810190506122de565b5085935050505092915050565b600082825260208201905092915050565b60006123348261217c565b61233e8185612318565b935061234e818560208601612198565b612357816121c2565b840191505092915050565b61236b816120ce565b82525050565b6000604083016000830151848203600086015261238e8282612329565b91505060208301516123a36020860182612362565b508091505092915050565b600060408301600083015184820360008601526123cb82826122ba565b915050602083015184820360208601526123e58282612371565b9150508091505092915050565b60006123fe83836123ae565b905092915050565b6000602082019050919050565b600061241e8261222e565b6124288185612239565b93508360208202850161243a8561224a565b8060005b85811015612476578484038952815161245785826123f2565b945061246283612406565b925060208a0199505060018101905061243e565b50829750879550505050505092915050565b600060208201905081810360008301526124a28184612413565b905092915050565b60006124b58261212e565b9050919050565b6124c5816124aa565b82525050565b60006020820190506124e060008301846124bc565b92915050565b600082825260208201905092915050565b60006125028261225a565b61250c81856124e6565b935061251783612276565b8060005b8381101561254857815161252f8882612295565b975061253a836122ad565b92505060018101905061251b565b5085935050505092915050565b6000602082019050818103600083015261256f81846124f7565b905092915050565b6000806040838503121561258e5761258d612039565b5b600061259c8582860161208c565b92505060206125ad8582860161208c565b9150509250929050565b600081519050919050565b600082825260208201905092915050565b6000819050602082019050919050565b60006125ef8383612371565b905092915050565b6000602082019050919050565b600061260f826125b7565b61261981856125c2565b93508360208202850161262b856125d3565b8060005b85811015612667578484038952815161264885826125e3565b9450612653836125f7565b925060208a0199505060018101905061262f565b50829750879550505050505092915050565b600060208201905081810360008301526126938184612604565b905092915050565b6126a481612063565b82525050565b60006020820190506126bf600083018461269b565b92915050565b600061ffff82169050919050565b6126dc816126c5565b81146126e757600080fd5b50565b6000813590506126f9816126d3565b92915050565b60006020828403121561271557612714612039565b5b6000612723848285016126ea565b91505092915050565b612735816120ce565b811461274057600080fd5b50565b6000813590506127528161272c565b92915050565b60006020828403121561276e5761276d612039565b5b600061277c84828501612743565b91505092915050565b600080fd5b7f4e487b7100000000000000000000000000000000000000000000000000000000600052604160045260246000fd5b6127c2826121c2565b810181811067ffffffffffffffff821117156127e1576127e061278a565b5b80604052505050565b60006127f461202f565b905061280082826127b9565b919050565b600067ffffffffffffffff8211156128205761281f61278a565b5b602082029050602081019050919050565b600080fd5b600061284961284484612805565b6127ea565b9050808382526020820190506020840283018581111561286c5761286b612831565b5b835b818110156128955780612881888261208c565b84526020840193505060208101905061286e565b5050509392505050565b600082601f8301126128b4576128b3612785565b5b81356128c4848260208601612836565b91505092915050565b600067ffffffffffffffff8211156128e8576128e761278a565b5b602082029050602081019050919050565b600080fd5b600067ffffffffffffffff8211156129195761291861278a565b5b612922826121c2565b9050602081019050919050565b82818337600083830152505050565b600061295161294c846128fe565b6127ea565b90508281526020810184848401111561296d5761296c6128f9565b5b61297884828561292f565b509392505050565b600082601f83011261299557612994612785565b5b81356129a584826020860161293e565b91505092915050565b60006129c16129bc846128cd565b6127ea565b905080838252602082019050602084028301858111156129e4576129e3612831565b5b835b81811015612a2b57803567ffffffffffffffff811115612a0957612a08612785565b5b808601612a168982612980565b855260208501945050506020810190506129e6565b5050509392505050565b600082601f830112612a4a57612a49612785565b5b8135612a5a8482602086016129ae565b91505092915050565b60008060408385031215612a7a57612a79612039565b5b600083013567ffffffffffffffff811115612a9857612a9761203e565b5b612aa48582860161289f565b925050602083013567ffffffffffffffff811115612ac557612ac461203e565b5b612ad185828601612a35565b9150509250929050565b600060208284031215612af157612af0612039565b5b600082013567ffffffffffffffff811115612b0f57612b0e61203e565b5b612b1b84828501612980565b91505092915050565b612b2d816126c5565b82525050565b6000602082019050612b486000830184612b24565b92915050565b7f4e487b7100000000000000000000000000000000000000000000000000000000600052602260045260246000fd5b60006002820490506001821680612b9557607f821691505b602082108103612ba857612ba7612b4e565b5b50919050565b7f44656230783a20796f7572207265776172642062616c616e6365206973203000600082015250565b6000612be4601f83612187565b9150612bef82612bae565b602082019050919050565b60006020820190508181036000830152612c1381612bd7565b9050919050565b7f4f776e61626c653a2063616c6c6572206973206e6f7420746865206f776e6572600082015250565b6000612c50602083612187565b9150612c5b82612c1a565b602082019050919050565b60006020820190508181036000830152612c7f81612c43565b9050919050565b7f44656230783a20796f757220616d6f756e742069732030000000000000000000600082015250565b6000612cbc601783612187565b9150612cc782612c86565b602082019050919050565b60006020820190508181036000830152612ceb81612caf565b9050919050565b7f4e487b7100000000000000000000000000000000000000000000000000000000600052601160045260246000fd5b6000612d2c826120ce565b9150612d37836120ce565b9250828203905081811115612d4f57612d4e612cf2565b5b92915050565b7f44656230783a20696e73756666696369656e742062616c616e63650000000000600082015250565b6000612d8b601b83612187565b9150612d9682612d55565b602082019050919050565b60006020820190508181036000830152612dba81612d7e565b9050919050565b6000606082019050612dd6600083018661269b565b612de3602083018561269b565b612df060408301846120d8565b949350505050565b60008115159050919050565b612e0d81612df8565b8114612e1857600080fd5b50565b600081519050612e2a81612e04565b92915050565b600060208284031215612e4657612e45612039565b5b6000612e5484828501612e1b565b91505092915050565b600062ffffff82169050919050565b6000612e7782612e5d565b9150612e8283612e5d565b92508162ffffff0483118215151615612e9e57612e9d612cf2565b5b828202905092915050565b6000612eb4826120ce565b9150612ebf836120ce565b9250828201905080821115612ed757612ed6612cf2565b5b92915050565b600060ff82169050919050565b6000612ef582612edd565b9150612f0083612edd565b9250828201905060ff811115612f1957612f18612cf2565b5b92915050565b7f4e487b7100000000000000000000000000000000000000000000000000000000600052601260045260246000fd5b6000612f59826120ce565b9150612f64836120ce565b925082612f7457612f73612f1f565b5b828204905092915050565b6000612f8a826120ce565b9150612f95836120ce565b9250817fffffffffffffffffffffffffffffffffffffffffffffffffffffffffffffffff0483118215151615612fce57612fcd612cf2565b5b828202905092915050565b7f44656230783a206d7573742070617920313025206f66207472616e736163746960008201527f6f6e20636f737400000000000000000000000000000000000000000000000000602082015250565b6000613035602783612187565b915061304082612fd9565b604082019050919050565b6000602082019050818103600083015261306481613028565b9050919050565b60008190508160005260206000209050919050565b60006020601f8301049050919050565b600082821b905092915050565b6000600883026130cd7fffffffffffffffffffffffffffffffffffffffffffffffffffffffffffffffff82613090565b6130d78683613090565b95508019841693508086168417925050509392505050565b600061310a613105613100846120ce565b612102565b6120ce565b9050919050565b6000819050919050565b613124836130ef565b61313861313082613111565b84845461309d565b825550505050565b600090565b61314d613140565b61315881848461311b565b505050565b5b8181101561317c57613171600082613145565b60018101905061315e565b5050565b601f8211156131c1576131928161306b565b61319b84613080565b810160208510156131aa578190505b6131be6131b685613080565b83018261315d565b50505b505050565b600082821c905092915050565b60006131e4600019846008026131c6565b1980831691505092915050565b60006131fd83836131d3565b9150826002028217905092915050565b6132168261217c565b67ffffffffffffffff81111561322f5761322e61278a565b5b6132398254612b7d565b613244828285613180565b600060209050601f8311600181146132775760008415613265578287015190505b61326f85826131f1565b8655506132d7565b601f1984166132858661306b565b60005b828110156132ad57848901518255600182019150602085019450602081019050613288565b868310156132ca57848901516132c6601f8916826131d3565b8355505b6001600288020188555050505b505050505050565b7f4f776e61626c653a206e6577206f776e657220697320746865207a65726f206160008201527f6464726573730000000000000000000000000000000000000000000000000000602082015250565b600061333b602683612187565b9150613346826132df565b604082019050919050565b6000602082019050818103600083015261336a8161332e565b9050919050565b600081905092915050565b50565b600061338c600083613371565b91506133978261337c565b600082019050919050565b60006133ad8261337f565b9150819050919050565b7f44656230783a206661696c656420746f2073656e6420616d6f756e7400000000600082015250565b60006133ed601c83612187565b91506133f8826133b7565b602082019050919050565b6000602082019050818103600083015261341c816133e0565b9050919050565b7f4e487b7100000000000000000000000000000000000000000000000000000000600052603260045260246000fd5b600061345d826120ce565b91507fffffffffffffffffffffffffffffffffffffffffffffffffffffffffffffffff820361348f5761348e612cf2565b5b60018201905091905056fea2646970667358221220fe56c0e3e36f96a24fda92e5b7d9c1daa974c45a953e651c63eec9180c6b5b5664736f6c6343000810003360806040523480156200001157600080fd5b5060405162001a0538038062001a058339818101604052810190620000379190620002d8565b6040518060400160405280600581526020017f44656230780000000000000000000000000000000000000000000000000000008152506040518060400160405280600381526020017f44425800000000000000000000000000000000000000000000000000000000008152508160039081620000b4919062000584565b508060049081620000c6919062000584565b505050620000e58169d3c21bcecceda1000000620000ec60201b60201c565b5062000786565b600073ffffffffffffffffffffffffffffffffffffffff168273ffffffffffffffffffffffffffffffffffffffff16036200015e576040517f08c379a00000000000000000000000000000000000000000000000000000000081526004016200015590620006cc565b60405180910390fd5b62000172600083836200026460201b60201c565b80600260008282546200018691906200071d565b92505081905550806000808473ffffffffffffffffffffffffffffffffffffffff1673ffffffffffffffffffffffffffffffffffffffff1681526020019081526020016000206000828254620001dd91906200071d565b925050819055508173ffffffffffffffffffffffffffffffffffffffff16600073ffffffffffffffffffffffffffffffffffffffff167fddf252ad1be2c89b69c2b068fc378daa952ba7f163c4a11628f55a4df523b3ef8360405162000244919062000769565b60405180910390a362000260600083836200026960201b60201c565b5050565b505050565b505050565b600080fd5b600073ffffffffffffffffffffffffffffffffffffffff82169050919050565b6000620002a08262000273565b9050919050565b620002b28162000293565b8114620002be57600080fd5b50565b600081519050620002d281620002a7565b92915050565b600060208284031215620002f157620002f06200026e565b5b60006200030184828501620002c1565b91505092915050565b600081519050919050565b7f4e487b7100000000000000000000000000000000000000000000000000000000600052604160045260246000fd5b7f4e487b7100000000000000000000000000000000000000000000000000000000600052602260045260246000fd5b600060028204905060018216806200038c57607f821691505b602082108103620003a257620003a162000344565b5b50919050565b60008190508160005260206000209050919050565b60006020601f8301049050919050565b600082821b905092915050565b6000600883026200040c7fffffffffffffffffffffffffffffffffffffffffffffffffffffffffffffffff82620003cd565b620004188683620003cd565b95508019841693508086168417925050509392505050565b6000819050919050565b6000819050919050565b6000620004656200045f620004598462000430565b6200043a565b62000430565b9050919050565b6000819050919050565b620004818362000444565b6200049962000490826200046c565b848454620003da565b825550505050565b600090565b620004b0620004a1565b620004bd81848462000476565b505050565b5b81811015620004e557620004d9600082620004a6565b600181019050620004c3565b5050565b601f8211156200053457620004fe81620003a8565b6200050984620003bd565b8101602085101562000519578190505b620005316200052885620003bd565b830182620004c2565b50505b505050565b600082821c905092915050565b6000620005596000198460080262000539565b1980831691505092915050565b600062000574838362000546565b9150826002028217905092915050565b6200058f826200030a565b67ffffffffffffffff811115620005ab57620005aa62000315565b5b620005b7825462000373565b620005c4828285620004e9565b600060209050601f831160018114620005fc5760008415620005e7578287015190505b620005f3858262000566565b86555062000663565b601f1984166200060c86620003a8565b60005b8281101562000636578489015182556001820191506020850194506020810190506200060f565b8683101562000656578489015162000652601f89168262000546565b8355505b6001600288020188555050505b505050505050565b600082825260208201905092915050565b7f45524332303a206d696e7420746f20746865207a65726f206164647265737300600082015250565b6000620006b4601f836200066b565b9150620006c1826200067c565b602082019050919050565b60006020820190508181036000830152620006e781620006a5565b9050919050565b7f4e487b7100000000000000000000000000000000000000000000000000000000600052601160045260246000fd5b60006200072a8262000430565b9150620007378362000430565b9250828201905080821115620007525762000751620006ee565b5b92915050565b620007638162000430565b82525050565b600060208201905062000780600083018462000758565b92915050565b61126f80620007966000396000f3fe608060405234801561001057600080fd5b50600436106100b45760003560e01c806370a082311161007157806370a08231146101a3578063902d55a5146101d357806395d89b41146101f1578063a457c2d71461020f578063a9059cbb1461023f578063dd62ed3e1461026f576100b4565b806306fdde03146100b9578063095ea7b3146100d757806318160ddd1461010757806323b872dd14610125578063313ce567146101555780633950935114610173575b600080fd5b6100c161029f565b6040516100ce9190610b4c565b60405180910390f35b6100f160048036038101906100ec9190610c07565b610331565b6040516100fe9190610c62565b60405180910390f35b61010f610354565b60405161011c9190610c8c565b60405180910390f35b61013f600480360381019061013a9190610ca7565b61035e565b60405161014c9190610c62565b60405180910390f35b61015d61038d565b60405161016a9190610d16565b60405180910390f35b61018d60048036038101906101889190610c07565b610396565b60405161019a9190610c62565b60405180910390f35b6101bd60048036038101906101b89190610d31565b6103cd565b6040516101ca9190610c8c565b60405180910390f35b6101db610415565b6040516101e89190610c8c565b60405180910390f35b6101f9610423565b6040516102069190610b4c565b60405180910390f35b61022960048036038101906102249190610c07565b6104b5565b6040516102369190610c62565b60405180910390f35b61025960048036038101906102549190610c07565b61052c565b6040516102669190610c62565b60405180910390f35b61028960048036038101906102849190610d5e565b61054f565b6040516102969190610c8c565b60405180910390f35b6060600380546102ae90610dcd565b80601f01602080910402602001604051908101604052809291908181526020018280546102da90610dcd565b80156103275780601f106102fc57610100808354040283529160200191610327565b820191906000526020600020905b81548152906001019060200180831161030a57829003601f168201915b5050505050905090565b60008061033c6105d6565b90506103498185856105de565b600191505092915050565b6000600254905090565b6000806103696105d6565b90506103768582856107a7565b610381858585610833565b60019150509392505050565b60006012905090565b6000806103a16105d6565b90506103c28185856103b3858961054f565b6103bd9190610e2d565b6105de565b600191505092915050565b60008060008373ffffffffffffffffffffffffffffffffffffffff1673ffffffffffffffffffffffffffffffffffffffff168152602001908152602001600020549050919050565b69d3c21bcecceda100000081565b60606004805461043290610dcd565b80601f016020809104026020016040519081016040528092919081815260200182805461045e90610dcd565b80156104ab5780601f10610480576101008083540402835291602001916104ab565b820191906000526020600020905b81548152906001019060200180831161048e57829003601f168201915b5050505050905090565b6000806104c06105d6565b905060006104ce828661054f565b905083811015610513576040517f08c379a000000000000000000000000000000000000000000000000000000000815260040161050a90610ed3565b60405180910390fd5b61052082868684036105de565b60019250505092915050565b6000806105376105d6565b9050610544818585610833565b600191505092915050565b6000600160008473ffffffffffffffffffffffffffffffffffffffff1673ffffffffffffffffffffffffffffffffffffffff16815260200190815260200160002060008373ffffffffffffffffffffffffffffffffffffffff1673ffffffffffffffffffffffffffffffffffffffff16815260200190815260200160002054905092915050565b600033905090565b600073ffffffffffffffffffffffffffffffffffffffff168373ffffffffffffffffffffffffffffffffffffffff160361064d576040517f08c379a000000000000000000000000000000000000000000000000000000000815260040161064490610f65565b60405180910390fd5b600073ffffffffffffffffffffffffffffffffffffffff168273ffffffffffffffffffffffffffffffffffffffff16036106bc576040517f08c379a00000000000000000000000000000000000000000000000000000000081526004016106b390610ff7565b60405180910390fd5b80600160008573ffffffffffffffffffffffffffffffffffffffff1673ffffffffffffffffffffffffffffffffffffffff16815260200190815260200160002060008473ffffffffffffffffffffffffffffffffffffffff1673ffffffffffffffffffffffffffffffffffffffff168152602001908152602001600020819055508173ffffffffffffffffffffffffffffffffffffffff168373ffffffffffffffffffffffffffffffffffffffff167f8c5be1e5ebec7d5bd14f71427d1e84f3dd0314c0f7b2291e5b200ac8c7c3b9258360405161079a9190610c8c565b60405180910390a3505050565b60006107b3848461054f565b90507fffffffffffffffffffffffffffffffffffffffffffffffffffffffffffffffff811461082d578181101561081f576040517f08c379a000000000000000000000000000000000000000000000000000000000815260040161081690611063565b60405180910390fd5b61082c84848484036105de565b5b50505050565b600073ffffffffffffffffffffffffffffffffffffffff168373ffffffffffffffffffffffffffffffffffffffff16036108a2576040517f08c379a0000000000000000000000000000000000000000000000000000000008152600401610899906110f5565b60405180910390fd5b600073ffffffffffffffffffffffffffffffffffffffff168273ffffffffffffffffffffffffffffffffffffffff1603610911576040517f08c379a000000000000000000000000000000000000000000000000000000000815260040161090890611187565b60405180910390fd5b61091c838383610ab2565b60008060008573ffffffffffffffffffffffffffffffffffffffff1673ffffffffffffffffffffffffffffffffffffffff168152602001908152602001600020549050818110156109a2576040517f08c379a000000000000000000000000000000000000000000000000000000000815260040161099990611219565b60405180910390fd5b8181036000808673ffffffffffffffffffffffffffffffffffffffff1673ffffffffffffffffffffffffffffffffffffffff16815260200190815260200160002081905550816000808573ffffffffffffffffffffffffffffffffffffffff1673ffffffffffffffffffffffffffffffffffffffff1681526020019081526020016000206000828254610a359190610e2d565b925050819055508273ffffffffffffffffffffffffffffffffffffffff168473ffffffffffffffffffffffffffffffffffffffff167fddf252ad1be2c89b69c2b068fc378daa952ba7f163c4a11628f55a4df523b3ef84604051610a999190610c8c565b60405180910390a3610aac848484610ab7565b50505050565b505050565b505050565b600081519050919050565b600082825260208201905092915050565b60005b83811015610af6578082015181840152602081019050610adb565b60008484015250505050565b6000601f19601f8301169050919050565b6000610b1e82610abc565b610b288185610ac7565b9350610b38818560208601610ad8565b610b4181610b02565b840191505092915050565b60006020820190508181036000830152610b668184610b13565b905092915050565b600080fd5b600073ffffffffffffffffffffffffffffffffffffffff82169050919050565b6000610b9e82610b73565b9050919050565b610bae81610b93565b8114610bb957600080fd5b50565b600081359050610bcb81610ba5565b92915050565b6000819050919050565b610be481610bd1565b8114610bef57600080fd5b50565b600081359050610c0181610bdb565b92915050565b60008060408385031215610c1e57610c1d610b6e565b5b6000610c2c85828601610bbc565b9250506020610c3d85828601610bf2565b9150509250929050565b60008115159050919050565b610c5c81610c47565b82525050565b6000602082019050610c776000830184610c53565b92915050565b610c8681610bd1565b82525050565b6000602082019050610ca16000830184610c7d565b92915050565b600080600060608486031215610cc057610cbf610b6e565b5b6000610cce86828701610bbc565b9350506020610cdf86828701610bbc565b9250506040610cf086828701610bf2565b9150509250925092565b600060ff82169050919050565b610d1081610cfa565b82525050565b6000602082019050610d2b6000830184610d07565b92915050565b600060208284031215610d4757610d46610b6e565b5b6000610d5584828501610bbc565b91505092915050565b60008060408385031215610d7557610d74610b6e565b5b6000610d8385828601610bbc565b9250506020610d9485828601610bbc565b9150509250929050565b7f4e487b7100000000000000000000000000000000000000000000000000000000600052602260045260246000fd5b60006002820490506001821680610de557607f821691505b602082108103610df857610df7610d9e565b5b50919050565b7f4e487b7100000000000000000000000000000000000000000000000000000000600052601160045260246000fd5b6000610e3882610bd1565b9150610e4383610bd1565b9250828201905080821115610e5b57610e5a610dfe565b5b92915050565b7f45524332303a2064656372656173656420616c6c6f77616e63652062656c6f7760008201527f207a65726f000000000000000000000000000000000000000000000000000000602082015250565b6000610ebd602583610ac7565b9150610ec882610e61565b604082019050919050565b60006020820190508181036000830152610eec81610eb0565b9050919050565b7f45524332303a20617070726f76652066726f6d20746865207a65726f2061646460008201527f7265737300000000000000000000000000000000000000000000000000000000602082015250565b6000610f4f602483610ac7565b9150610f5a82610ef3565b604082019050919050565b60006020820190508181036000830152610f7e81610f42565b9050919050565b7f45524332303a20617070726f766520746f20746865207a65726f20616464726560008201527f7373000000000000000000000000000000000000000000000000000000000000602082015250565b6000610fe1602283610ac7565b9150610fec82610f85565b604082019050919050565b6000602082019050818103600083015261101081610fd4565b9050919050565b7f45524332303a20696e73756666696369656e7420616c6c6f77616e6365000000600082015250565b600061104d601d83610ac7565b915061105882611017565b602082019050919050565b6000602082019050818103600083015261107c81611040565b9050919050565b7f45524332303a207472616e736665722066726f6d20746865207a65726f20616460008201527f6472657373000000000000000000000000000000000000000000000000000000602082015250565b60006110df602583610ac7565b91506110ea82611083565b604082019050919050565b6000602082019050818103600083015261110e816110d2565b9050919050565b7f45524332303a207472616e7366657220746f20746865207a65726f206164647260008201527f6573730000000000000000000000000000000000000000000000000000000000602082015250565b6000611171602383610ac7565b915061117c82611115565b604082019050919050565b600060208201905081810360008301526111a081611164565b9050919050565b7f45524332303a207472616e7366657220616d6f756e742065786365656473206260008201527f616c616e63650000000000000000000000000000000000000000000000000000602082015250565b6000611203602683610ac7565b915061120e826111a7565b604082019050919050565b60006020820190508181036000830152611232816111f6565b905091905056fea26469706673582212204e67ea8dfd76c98fc83be8a6e9fa976d20e35c6efa1c645e6577c9655f74204a64736f6c63430008100033",
  "linkReferences": {},
  "deployedLinkReferences": {}
}