{
    "_format": "hh-sol-artifact-1",
    "contractName": "Deb0x",
    "sourceName": "contracts/Deb0x.sol",
    "abi": [
        {
            "inputs": [
                {
                    "internalType": "address",
                    "name": "forwarder",
                    "type": "address"
                }
            ],
            "stateMutability": "nonpayable",
            "type": "constructor"
        },
        {
            "anonymous": false,
            "inputs": [
                {
                    "indexed": true,
                    "internalType": "uint256",
                    "name": "cycle",
                    "type": "uint256"
                },
                {
                    "indexed": true,
                    "internalType": "address",
                    "name": "account",
                    "type": "address"
                },
                {
                    "indexed": false,
                    "internalType": "uint256",
                    "name": "fees",
                    "type": "uint256"
                }
            ],
            "name": "ClientFeesClaimed",
            "type": "event"
        },
        {
            "anonymous": false,
            "inputs": [
                {
                    "indexed": true,
                    "internalType": "uint256",
                    "name": "cycle",
                    "type": "uint256"
                },
                {
                    "indexed": true,
                    "internalType": "address",
                    "name": "account",
                    "type": "address"
                },
                {
                    "indexed": false,
                    "internalType": "uint256",
                    "name": "amount",
                    "type": "uint256"
                }
            ],
            "name": "ClientRewardsClaimed",
            "type": "event"
        },
        {
            "anonymous": false,
            "inputs": [
                {
                    "indexed": true,
                    "internalType": "uint256",
                    "name": "cycle",
                    "type": "uint256"
                },
                {
                    "indexed": true,
                    "internalType": "address",
                    "name": "account",
                    "type": "address"
                },
                {
                    "indexed": false,
                    "internalType": "uint256",
                    "name": "fees",
                    "type": "uint256"
                }
            ],
            "name": "FeesClaimed",
            "type": "event"
        },
        {
            "anonymous": false,
            "inputs": [
                {
                    "indexed": true,
                    "internalType": "address",
                    "name": "to",
                    "type": "address"
                },
                {
                    "indexed": true,
                    "internalType": "bytes32",
                    "name": "hash",
                    "type": "bytes32"
                },
                {
                    "indexed": false,
                    "internalType": "string",
                    "name": "value",
                    "type": "string"
                }
            ],
            "name": "KeySet",
            "type": "event"
        },
        {
            "anonymous": false,
            "inputs": [
                {
                    "indexed": true,
                    "internalType": "uint256",
                    "name": "cycle",
                    "type": "uint256"
                },
                {
                    "indexed": false,
                    "internalType": "uint256",
                    "name": "calculatedCycleReward",
                    "type": "uint256"
                },
                {
                    "indexed": false,
                    "internalType": "uint256",
                    "name": "summedCycleStakes",
                    "type": "uint256"
                }
            ],
            "name": "NewCycleStarted",
            "type": "event"
        },
        {
            "anonymous": false,
            "inputs": [
                {
                    "indexed": true,
                    "internalType": "uint256",
                    "name": "cycle",
                    "type": "uint256"
                },
                {
                    "indexed": true,
                    "internalType": "address",
                    "name": "account",
                    "type": "address"
                },
                {
                    "indexed": false,
                    "internalType": "uint256",
                    "name": "reward",
                    "type": "uint256"
                }
            ],
            "name": "RewardsClaimed",
            "type": "event"
        },
        {
            "anonymous": false,
            "inputs": [
                {
                    "indexed": true,
                    "internalType": "uint256",
                    "name": "cycle",
                    "type": "uint256"
                },
                {
                    "indexed": true,
                    "internalType": "uint256",
                    "name": "sentId",
                    "type": "uint256"
                },
                {
                    "indexed": true,
                    "internalType": "address",
                    "name": "feeReceiver",
                    "type": "address"
                },
                {
                    "indexed": false,
                    "internalType": "uint256",
                    "name": "msgFee",
                    "type": "uint256"
                },
                {
                    "indexed": false,
                    "internalType": "uint256",
                    "name": "nativeTokenFee",
                    "type": "uint256"
                }
            ],
            "name": "SendEntryCreated",
            "type": "event"
        },
        {
            "anonymous": false,
            "inputs": [
                {
                    "indexed": true,
                    "internalType": "address",
                    "name": "to",
                    "type": "address"
                },
                {
                    "indexed": true,
                    "internalType": "address",
                    "name": "from",
                    "type": "address"
                },
                {
                    "indexed": true,
                    "internalType": "bytes32",
                    "name": "hash",
                    "type": "bytes32"
                },
                {
                    "indexed": false,
                    "internalType": "uint256",
                    "name": "sentId",
                    "type": "uint256"
                },
                {
                    "indexed": false,
                    "internalType": "uint256",
                    "name": "timestamp",
                    "type": "uint256"
                },
                {
                    "indexed": false,
                    "internalType": "string",
                    "name": "content",
                    "type": "string"
                }
            ],
            "name": "Sent",
            "type": "event"
        },
        {
            "anonymous": false,
            "inputs": [
                {
                    "indexed": true,
                    "internalType": "uint256",
                    "name": "cycle",
                    "type": "uint256"
                },
                {
                    "indexed": true,
                    "internalType": "address",
                    "name": "account",
                    "type": "address"
                },
                {
                    "indexed": false,
                    "internalType": "uint256",
                    "name": "amount",
                    "type": "uint256"
                }
            ],
            "name": "Staked",
            "type": "event"
        },
        {
            "anonymous": false,
            "inputs": [
                {
                    "indexed": true,
                    "internalType": "uint256",
                    "name": "cycle",
                    "type": "uint256"
                },
                {
                    "indexed": true,
                    "internalType": "address",
                    "name": "account",
                    "type": "address"
                },
                {
                    "indexed": false,
                    "internalType": "uint256",
                    "name": "amount",
                    "type": "uint256"
                }
            ],
            "name": "Unstaked",
            "type": "event"
        },
        {
            "inputs": [],
            "name": "PROTOCOL_FEE",
            "outputs": [
                {
                    "internalType": "uint16",
                    "name": "",
                    "type": "uint16"
                }
            ],
            "stateMutability": "view",
            "type": "function"
        },
        {
            "inputs": [],
            "name": "SCALING_FACTOR",
            "outputs": [
                {
                    "internalType": "uint256",
                    "name": "",
                    "type": "uint256"
                }
            ],
            "stateMutability": "view",
            "type": "function"
        },
        {
            "inputs": [
                {
                    "internalType": "address",
                    "name": "",
                    "type": "address"
                }
            ],
            "name": "accAccruedFees",
            "outputs": [
                {
                    "internalType": "uint256",
                    "name": "",
                    "type": "uint256"
                }
            ],
            "stateMutability": "view",
            "type": "function"
        },
        {
            "inputs": [
                {
                    "internalType": "address",
                    "name": "",
                    "type": "address"
                }
            ],
            "name": "accRewards",
            "outputs": [
                {
                    "internalType": "uint256",
                    "name": "",
                    "type": "uint256"
                }
            ],
            "stateMutability": "view",
            "type": "function"
        },
        {
            "inputs": [
                {
                    "internalType": "address",
                    "name": "",
                    "type": "address"
                }
            ],
            "name": "accWithdrawableStake",
            "outputs": [
                {
                    "internalType": "uint256",
                    "name": "",
                    "type": "uint256"
                }
            ],
            "stateMutability": "view",
            "type": "function"
        },
        {
            "inputs": [],
            "name": "calculateCycleReward",
            "outputs": [
                {
                    "internalType": "uint256",
                    "name": "",
                    "type": "uint256"
                }
            ],
            "stateMutability": "view",
            "type": "function"
        },
        {
            "inputs": [],
            "name": "claimClientFees",
            "outputs": [],
            "stateMutability": "nonpayable",
            "type": "function"
        },
        {
            "inputs": [],
            "name": "claimClientRewards",
            "outputs": [],
            "stateMutability": "nonpayable",
            "type": "function"
        },
        {
            "inputs": [],
            "name": "claimFees",
            "outputs": [],
            "stateMutability": "nonpayable",
            "type": "function"
        },
        {
            "inputs": [],
            "name": "claimRewards",
            "outputs": [],
            "stateMutability": "nonpayable",
            "type": "function"
        },
        {
            "inputs": [],
            "name": "contractBalance",
            "outputs": [
                {
                    "internalType": "uint256",
                    "name": "",
                    "type": "uint256"
                }
            ],
            "stateMutability": "view",
            "type": "function"
        },
        {
            "inputs": [],
            "name": "currentStartedCycle",
            "outputs": [
                {
                    "internalType": "uint256",
                    "name": "",
                    "type": "uint256"
                }
            ],
            "stateMutability": "view",
            "type": "function"
        },
        {
            "inputs": [
                {
                    "internalType": "uint256",
                    "name": "",
                    "type": "uint256"
                }
            ],
            "name": "cycleAccruedFees",
            "outputs": [
                {
                    "internalType": "uint256",
                    "name": "",
                    "type": "uint256"
                }
            ],
            "stateMutability": "view",
            "type": "function"
        },
        {
            "inputs": [
                {
                    "internalType": "uint256",
                    "name": "",
                    "type": "uint256"
                }
            ],
            "name": "cycleFeesPerStakeSummed",
            "outputs": [
                {
                    "internalType": "uint256",
                    "name": "",
                    "type": "uint256"
                }
            ],
            "stateMutability": "view",
            "type": "function"
        },
        {
            "inputs": [],
            "name": "dbx",
            "outputs": [
                {
                    "internalType": "contract Deb0xERC20",
                    "name": "",
                    "type": "address"
                }
            ],
            "stateMutability": "view",
            "type": "function"
        },
        {
            "inputs": [
                {
                    "internalType": "address",
                    "name": "staker",
                    "type": "address"
                }
            ],
            "name": "getAccWithdrawableStake",
            "outputs": [
                {
                    "internalType": "uint256",
                    "name": "",
                    "type": "uint256"
                }
            ],
            "stateMutability": "view",
            "type": "function"
        },
        {
            "inputs": [],
            "name": "getCurrentCycle",
            "outputs": [
                {
                    "internalType": "uint256",
                    "name": "",
                    "type": "uint256"
                }
            ],
            "stateMutability": "view",
            "type": "function"
        },
        {
            "inputs": [
                {
                    "internalType": "address",
                    "name": "account",
                    "type": "address"
                }
            ],
            "name": "getKey",
            "outputs": [
                {
                    "internalType": "string",
                    "name": "",
                    "type": "string"
                }
            ],
            "stateMutability": "view",
            "type": "function"
        },
        {
            "inputs": [
                {
                    "internalType": "address",
                    "name": "account",
                    "type": "address"
                }
            ],
            "name": "getUnclaimedFees",
            "outputs": [
                {
                    "internalType": "uint256",
                    "name": "",
                    "type": "uint256"
                }
            ],
            "stateMutability": "view",
            "type": "function"
        },
        {
            "inputs": [
                {
                    "internalType": "address",
                    "name": "account",
                    "type": "address"
                }
            ],
            "name": "getUnclaimedRewards",
            "outputs": [
                {
                    "internalType": "uint256",
                    "name": "",
                    "type": "uint256"
                }
            ],
            "stateMutability": "view",
            "type": "function"
        },
        {
            "inputs": [
                {
                    "internalType": "address",
                    "name": "forwarder",
                    "type": "address"
                }
            ],
            "name": "isTrustedForwarder",
            "outputs": [
                {
                    "internalType": "bool",
                    "name": "",
                    "type": "bool"
                }
            ],
            "stateMutability": "view",
            "type": "function"
        },
        {
            "inputs": [
                {
                    "internalType": "address",
                    "name": "",
                    "type": "address"
                }
            ],
            "name": "lastFeeUpdateCycle",
            "outputs": [
                {
                    "internalType": "uint256",
                    "name": "",
                    "type": "uint256"
                }
            ],
            "stateMutability": "view",
            "type": "function"
        },
        {
            "inputs": [],
            "name": "pendingStakeWithdrawal",
            "outputs": [
                {
                    "internalType": "uint256",
                    "name": "",
                    "type": "uint256"
                }
            ],
            "stateMutability": "view",
            "type": "function"
        },
        {
            "inputs": [
                {
                    "internalType": "uint256",
                    "name": "",
                    "type": "uint256"
                }
            ],
            "name": "rewardPerCycle",
            "outputs": [
                {
                    "internalType": "uint256",
                    "name": "",
                    "type": "uint256"
                }
            ],
            "stateMutability": "view",
            "type": "function"
        },
        {
            "inputs": [
                {
                    "internalType": "address[]",
                    "name": "to",
                    "type": "address[]"
                },
                {
                    "internalType": "string[]",
                    "name": "payload",
                    "type": "string[]"
                },
                {
                    "internalType": "address",
                    "name": "feeReceiver",
                    "type": "address"
                },
                {
                    "internalType": "uint256",
                    "name": "msgFee",
                    "type": "uint256"
                },
                {
                    "internalType": "uint256",
                    "name": "nativeTokenFee",
                    "type": "uint256"
                }
            ],
            "name": "send",
            "outputs": [],
            "stateMutability": "payable",
            "type": "function"
        },
        {
            "inputs": [],
            "name": "sentId",
            "outputs": [
                {
                    "internalType": "uint256",
                    "name": "",
                    "type": "uint256"
                }
            ],
            "stateMutability": "view",
            "type": "function"
        },
        {
            "inputs": [
                {
                    "internalType": "string",
                    "name": "publicKey",
                    "type": "string"
                }
            ],
            "name": "setKey",
            "outputs": [],
            "stateMutability": "nonpayable",
            "type": "function"
        },
        {
            "inputs": [
                {
                    "internalType": "uint256",
                    "name": "amount",
                    "type": "uint256"
                }
            ],
            "name": "stakeDBX",
            "outputs": [],
            "stateMutability": "nonpayable",
            "type": "function"
        },
        {
            "inputs": [
                {
                    "internalType": "address",
                    "name": "",
                    "type": "address"
                }
            ],
            "name": "stakedDuringGapCycle",
            "outputs": [
                {
                    "internalType": "bool",
                    "name": "",
                    "type": "bool"
                }
            ],
            "stateMutability": "view",
            "type": "function"
        },
        {
            "inputs": [
                {
                    "internalType": "uint256",
                    "name": "",
                    "type": "uint256"
                }
            ],
            "name": "summedCycleStakes",
            "outputs": [
                {
                    "internalType": "uint256",
                    "name": "",
                    "type": "uint256"
                }
            ],
            "stateMutability": "view",
            "type": "function"
        },
        {
            "inputs": [
                {
                    "internalType": "uint256",
                    "name": "amount",
                    "type": "uint256"
                }
            ],
            "name": "unstake",
            "outputs": [],
            "stateMutability": "nonpayable",
            "type": "function"
        }
    ],
    "bytecode": "0x60e06040526001600b553480156200001657600080fd5b5060405162006b3638038062006b36833981016040819052620000399162000116565b6001600160a01b0381166080526001600055604051620000599062000108565b604051809103906000f08015801562000076573d6000803e3d6000fd5b50600180546001600160a01b0319166001600160a01b0392909216919091179055504260a0526201518060c05269021e19e0c9bab24000006002819055600080527fd2ac945fcc0096878c763e37d6929b78378c1a2defabde8ba7ee5ed1d6e7a5b281905560186020527f999d26de3473317ead3eeaf34ca78057f1439db67b6953469c3c96ce9caf6bd75562000148565b610c188062005f1e83390190565b6000602082840312156200012957600080fd5b81516001600160a01b03811681146200014157600080fd5b9392505050565b60805160a05160c051615da662000178600039600061413c0152600061416001526000611e5a0152615da66000f3fe6080604052600436106101685760003560e01c80630b4501fd1461016d5780630ece21541461019b5780631ed6380f146101d65780632e17de7814610203578063372500ab14610225578063572b6c051461023a578063654773cd1461026a57806368f057691461027f57806369a69e291461029557806369ec283e146102b55780636f044d37146102ca5780637d818c23146102dd5780637e30d2b5146103155780638b7afe2e1461033557806393790f441461034857806398a5db5714610375578063a707140b1461038b578063adc0f686146103b8578063af42d106146103e5578063bc71329014610405578063be26ed7f14610432578063bebc9dfc14610447578063bf992dea14610474578063c4235ae914610494578063cdd5c81f146104c1578063d294f093146104e1578063d6aef1c6146104f6578063ed725e831461050b578063ef4cadc514610538578063f1b371e214610554578063f7400c2a1461056a575b600080fd5b34801561017957600080fd5b506101836103e881565b60405161ffff90911681526020015b60405180910390f35b3480156101a757600080fd5b506101c86101b63660046156cd565b601b6020526000908152604090205481565b604051908152602001610192565b3480156101e257600080fd5b506101c86101f1366004615702565b601e6020526000908152604090205481565b34801561020f57600080fd5b5061022361021e3660046156cd565b61059a565b005b34801561023157600080fd5b50610223611244565b34801561024657600080fd5b5061025a610255366004615702565b611e58565b6040519015158152602001610192565b34801561027657600080fd5b50610223611e8a565b34801561028b57600080fd5b506101c8600a5481565b3480156102a157600080fd5b506101c86102b0366004615702565b612099565b3480156102c157600080fd5b506102236121f1565b6102236102d836600461588b565b61249a565b3480156102e957600080fd5b506001546102fd906001600160a01b031681565b6040516001600160a01b039091168152602001610192565b34801561032157600080fd5b506102236103303660046156cd565b6132ab565b34801561034157600080fd5b50476101c8565b34801561035457600080fd5b50610368610363366004615702565b613fe2565b60405161019291906159bc565b34801561038157600080fd5b506101c8600b5481565b34801561039757600080fd5b506101c86103a6366004615702565b601a6020526000908152604090205481565b3480156103c457600080fd5b506101c86103d33660046156cd565b60186020526000908152604090205481565b3480156103f157600080fd5b506102236104003660046159cf565b61408e565b34801561041157600080fd5b506101c8610420366004615702565b60166020526000908152604090205481565b34801561043e57600080fd5b506101c8614138565b34801561045357600080fd5b506101c86104623660046156cd565b601c6020526000908152604090205481565b34801561048057600080fd5b506101c861048f366004615702565b614194565b3480156104a057600080fd5b506101c86104af3660046156cd565b60196020526000908152604090205481565b3480156104cd57600080fd5b506101c86104dc366004615702565b6144d9565b3480156104ed57600080fd5b506102236146c9565b34801561050257600080fd5b506101c86151db565b34801561051757600080fd5b506101c8610526366004615702565b60156020526000908152604090205481565b34801561054457600080fd5b506101c8670de0b6b3a764000081565b34801561056057600080fd5b506101c860085481565b34801561057657600080fd5b5061025a610585366004615702565b60216020526000908152604090205460ff1681565b6002600054036105c55760405162461bcd60e51b81526004016105bc90615a03565b60405180910390fd5b600260009081556105d4614138565b90506005548111156105e65760058190555b60085460055414610609576006546105ff906001615a50565b6007556008546006555b60065460055411801561063d5750601c6000600654600161062a9190615a50565b8152602001908152602001600020546000145b156106c257600654600090815260196020908152604080832054601b90925282205461067290670de0b6b3a764000090615a63565b61067c9190615a7a565b6007546000908152601c602052604090205490915061069c908290615a50565b601c600060065460016106af9190615a50565b8152602081019190915260400160002055505b6106ca6151f0565b6001600160a01b03811660009081526011602052604090205460055411801561070a57506001600160a01b0381166000908152600f602052604090205415155b15610871576001600160a01b038116600081815260116020908152604080832054835260108252808320546018835281842054948452600f909252822054919290916107569190615a63565b6107609190615a7a565b6001600160a01b03831660009081526015602052604081208054929350839290919061078d908490615a50565b90915550506001600160a01b0382166000908152600d602052604090205415610856576001600160a01b0382166000908152600f60205260408120546107d39083615a7a565b6001600160a01b0384166000908152600d602052604081205491925090612710906107fe9084615a63565b6108089190615a7a565b6001600160a01b038516600090815260156020526040812080549293508392909190610835908490615a9c565b9091555050506001600160a01b0383166000908152600d6020526040812055505b506001600160a01b0381166000908152600f60205260408120555b6006546005541180156108a9575060065461088d906001615a50565b6001600160a01b0382166000908152601a602052604090205414155b1561099b576001600160a01b0381166000908152601a60209081526040808320548352601c91829052822054600654670de0b6b3a764000093919291906108f1906001615a50565b81526020019081526020016000205461090a9190615a9c565b6001600160a01b03831660009081526015602052604090205461092d9190615a63565b6109379190615a7a565b6001600160a01b03821660009081526016602052604090205461095a9190615a50565b6001600160a01b038216600090815260166020526040902055600654610981906001615a50565b6001600160a01b0382166000908152601a60205260409020555b6001600160a01b0381166000908152601f6020526040902054158015906109e657506001600160a01b0381166000908152601f60205260408120546005546109e39190615a9c565b10155b8015610a0a57506001600160a01b03811660009081526021602052604090205460ff165b15610bd4576001600160a01b0381166000818152601d60209081526040808320601f8352818420548452825280832054938352601590915281208054839290610a54908490615a50565b90915550506001600160a01b0382166000908152601e602052604081208054839290610a81908490615a50565b90915550506001600160a01b0382166000908152601f6020526040902054600654610aad906001615a50565b1115610b8b576001600160a01b0382166000908152601f60209081526040808320548352601c91829052822054600654670de0b6b3a76400009391929190610af6906001615a50565b815260200190815260200160002054610b0f9190615a9c565b6001600160a01b0384166000908152601d60209081526040808320601f8352818420548452909152902054610b449190615a63565b610b4e9190615a7a565b6001600160a01b038316600090815260166020526040902054610b719190615a50565b6001600160a01b0383166000908152601660205260409020555b506001600160a01b0381166000818152601d60209081526040808320601f835281842080548552908352818420849055938352928290556021905220805460ff19169055610fe8565b6001600160a01b0381166000908152601f602052604090205415801590610c1e57506001600160a01b0381166000908152601f6020526040812054600554610c1c9190615a9c565b115b15610fe8576001600160a01b0381166000818152601d60209081526040808320601f8352818420548452825280832054938352601590915281208054839290610c68908490615a50565b90915550506001600160a01b0382166000908152601e602052604081208054839290610c95908490615a50565b90915550506001600160a01b0382166000908152601f6020526040902054600654610cc1906001615a50565b1115610d9f576001600160a01b0382166000908152601f60209081526040808320548352601c91829052822054600654670de0b6b3a76400009391929190610d0a906001615a50565b815260200190815260200160002054610d239190615a9c565b6001600160a01b0384166000908152601d60209081526040808320601f8352818420548452909152902054610d589190615a63565b610d629190615a7a565b6001600160a01b038316600090815260166020526040902054610d859190615a50565b6001600160a01b0383166000908152601660205260409020555b6001600160a01b0382166000818152601d60209081526040808320601f835281842080548552908352818420849055938352928290558052205415610fe6576001600160a01b0382166000908152602080526040812054600554610e039190615a9c565b1115610fbb576001600160a01b0382166000818152601d60209081526040808320828052818420548452825280832054938352601590915281208054839290610e4d908490615a50565b90915550506001600160a01b0383166000908152601e602052604081208054839290610e7a908490615a50565b90915550506001600160a01b0383166000908152602080526040902054600654610ea5906001615a50565b1115610f80576001600160a01b038316600090815260208080526040808320548352601c91829052822054600654670de0b6b3a76400009391929190610eec906001615a50565b815260200190815260200160002054610f059190615a9c565b6001600160a01b0385166000908152601d60209081526040808320828052818420548452909152902054610f399190615a63565b610f439190615a7a565b6001600160a01b038416600090815260166020526040902054610f669190615a50565b6001600160a01b0384166000908152601660205260409020555b506001600160a01b0382166000818152601d602090815260408083208280528184208054855290835290832083905592825280529055610fe6565b6001600160a01b0382166000908152602080805260408083208054601f845291842091909155908052555b505b826000036110085760405162461bcd60e51b81526004016105bc90615aaf565b601e60006110146151f0565b6001600160a01b03166001600160a01b03168152602001908152602001600020548311156110a05760405162461bcd60e51b815260206004820152603360248201527f44656230783a2063616e206e6f7420756e7374616b65206d6f7265207468616e60448201527220776974686472617761626c65207374616b6560681b60648201526084016105bc565b600854600654036110c85782600a60008282546110bd9190615a50565b909155506110ef9050565b600554600090815260196020526040812080548592906110e9908490615a9c565b90915550505b82601e60006110fc6151f0565b6001600160a01b03166001600160a01b03168152602001908152602001600020600082825461112b9190615a9c565b909155508390506015600061113e6151f0565b6001600160a01b03166001600160a01b03168152602001908152602001600020600082825461116d9190615a9c565b90915550506001546001600160a01b031663a9059cbb61118b6151f0565b856040518363ffffffff1660e01b81526004016111a9929190615ae2565b6020604051808303816000875af11580156111c8573d6000803e3d6000fd5b505050506040513d601f19601f820116820180604052508101906111ec9190615afb565b506111f56151f0565b6001600160a01b03166005547f37375b03d8924bd8f076f11f8411b9962aa5c02fb489021507bc6bb6f850e3658560405161123291815260200190565b60405180910390a35050600160005550565b600061124e614138565b90506005548111156112605760058190555b6002600054036112825760405162461bcd60e51b81526004016105bc90615a03565b6002600055600854600554146112aa576006546112a0906001615a50565b6007556008546006555b6006546005541180156112de5750601c600060065460016112cb9190615a50565b8152602001908152602001600020546000145b1561136357600654600090815260196020908152604080832054601b90925282205461131390670de0b6b3a764000090615a63565b61131d9190615a7a565b6007546000908152601c602052604090205490915061133d908290615a50565b601c600060065460016113509190615a50565b8152602081019190915260400160002055505b61136b6151f0565b6001600160a01b0381166000908152601160205260409020546005541180156113ab57506001600160a01b0381166000908152600f602052604090205415155b15611512576001600160a01b038116600081815260116020908152604080832054835260108252808320546018835281842054948452600f909252822054919290916113f79190615a63565b6114019190615a7a565b6001600160a01b03831660009081526015602052604081208054929350839290919061142e908490615a50565b90915550506001600160a01b0382166000908152600d6020526040902054156114f7576001600160a01b0382166000908152600f60205260408120546114749083615a7a565b6001600160a01b0384166000908152600d6020526040812054919250906127109061149f9084615a63565b6114a99190615a7a565b6001600160a01b0385166000908152601560205260408120805492935083929091906114d6908490615a9c565b9091555050506001600160a01b0383166000908152600d6020526040812055505b506001600160a01b0381166000908152600f60205260408120555b60065460055411801561154a575060065461152e906001615a50565b6001600160a01b0382166000908152601a602052604090205414155b1561163c576001600160a01b0381166000908152601a60209081526040808320548352601c91829052822054600654670de0b6b3a76400009391929190611592906001615a50565b8152602001908152602001600020546115ab9190615a9c565b6001600160a01b0383166000908152601560205260409020546115ce9190615a63565b6115d89190615a7a565b6001600160a01b0382166000908152601660205260409020546115fb9190615a50565b6001600160a01b038216600090815260166020526040902055600654611622906001615a50565b6001600160a01b0382166000908152601a60205260409020555b6001600160a01b0381166000908152601f60205260409020541580159061168757506001600160a01b0381166000908152601f60205260408120546005546116849190615a9c565b10155b80156116ab57506001600160a01b03811660009081526021602052604090205460ff165b15611875576001600160a01b0381166000818152601d60209081526040808320601f83528184205484528252808320549383526015909152812080548392906116f5908490615a50565b90915550506001600160a01b0382166000908152601e602052604081208054839290611722908490615a50565b90915550506001600160a01b0382166000908152601f602052604090205460065461174e906001615a50565b111561182c576001600160a01b0382166000908152601f60209081526040808320548352601c91829052822054600654670de0b6b3a76400009391929190611797906001615a50565b8152602001908152602001600020546117b09190615a9c565b6001600160a01b0384166000908152601d60209081526040808320601f83528184205484529091529020546117e59190615a63565b6117ef9190615a7a565b6001600160a01b0383166000908152601660205260409020546118129190615a50565b6001600160a01b0383166000908152601660205260409020555b506001600160a01b0381166000818152601d60209081526040808320601f835281842080548552908352818420849055938352928290556021905220805460ff19169055611c89565b6001600160a01b0381166000908152601f6020526040902054158015906118bf57506001600160a01b0381166000908152601f60205260408120546005546118bd9190615a9c565b115b15611c89576001600160a01b0381166000818152601d60209081526040808320601f8352818420548452825280832054938352601590915281208054839290611909908490615a50565b90915550506001600160a01b0382166000908152601e602052604081208054839290611936908490615a50565b90915550506001600160a01b0382166000908152601f6020526040902054600654611962906001615a50565b1115611a40576001600160a01b0382166000908152601f60209081526040808320548352601c91829052822054600654670de0b6b3a764000093919291906119ab906001615a50565b8152602001908152602001600020546119c49190615a9c565b6001600160a01b0384166000908152601d60209081526040808320601f83528184205484529091529020546119f99190615a63565b611a039190615a7a565b6001600160a01b038316600090815260166020526040902054611a269190615a50565b6001600160a01b0383166000908152601660205260409020555b6001600160a01b0382166000818152601d60209081526040808320601f835281842080548552908352818420849055938352928290558052205415611c87576001600160a01b0382166000908152602080526040812054600554611aa49190615a9c565b1115611c5c576001600160a01b0382166000818152601d60209081526040808320828052818420548452825280832054938352601590915281208054839290611aee908490615a50565b90915550506001600160a01b0383166000908152601e602052604081208054839290611b1b908490615a50565b90915550506001600160a01b0383166000908152602080526040902054600654611b46906001615a50565b1115611c21576001600160a01b038316600090815260208080526040808320548352601c91829052822054600654670de0b6b3a76400009391929190611b8d906001615a50565b815260200190815260200160002054611ba69190615a9c565b6001600160a01b0385166000908152601d60209081526040808320828052818420548452909152902054611bda9190615a63565b611be49190615a7a565b6001600160a01b038416600090815260166020526040902054611c079190615a50565b6001600160a01b0384166000908152601660205260409020555b506001600160a01b0382166000818152601d602090815260408083208280528184208054855290835290832083905592825280529055611c87565b6001600160a01b0382166000908152602080805260408083208054601f845291842091909155908052555b505b6000601e6000611c976151f0565b6001600160a01b03166001600160a01b031681526020019081526020016000205460156000611cc46151f0565b6001600160a01b03166001600160a01b0316815260200190815260200160002054611cef9190615a9c565b905060008111611d115760405162461bcd60e51b81526004016105bc90615b1d565b8060156000611d1e6151f0565b6001600160a01b03166001600160a01b031681526020019081526020016000206000828254611d4d9190615a9c565b909155505060085460065403611d7a5780600a6000828254611d6f9190615a50565b90915550611daa9050565b600554600090815260196020526040902054611d97908290615a9c565b6005546000908152601960205260409020555b6001546001600160a01b0316639a49090e611dc36151f0565b836040518363ffffffff1660e01b8152600401611de1929190615ae2565b600060405180830381600087803b158015611dfb57600080fd5b505af1158015611e0f573d6000803e3d6000fd5b50505050611e1b6151f0565b6001600160a01b03166005547f3300bdb359cfb956935bca32e9db727413eab1ca84341f2e36caea85bb7969688360405161123291815260200190565b7f00000000000000000000000000000000000000000000000000000000000000006001600160a01b0390811691161490565b600260005403611eac5760405162461bcd60e51b81526004016105bc90615a03565b60026000908155611ebb614138565b9050600554811115611ecd5760058190555b60085460055414611ef057600654611ee6906001615a50565b6007556008546006555b600654600554118015611f245750601c60006006546001611f119190615a50565b8152602001908152602001600020546000145b15611fa957600654600090815260196020908152604080832054601b909252822054611f5990670de0b6b3a764000090615a63565b611f639190615a7a565b6007546000908152601c6020526040902054909150611f83908290615a50565b601c60006006546001611f969190615a50565b8152602081019190915260400160002055505b611fb9611fb46151f0565b615212565b600060146000611fc76151f0565b6001600160a01b03166001600160a01b031681526020019081526020016000205490506000811161200a5760405162461bcd60e51b81526004016105bc90615b54565b6000601460006120186151f0565b6001600160a01b0316815260208101919091526040016000205561204361203d6151f0565b82615455565b61204b6151f0565b6001600160a01b031661205c614138565b6040518381527f71080b6b70140bab68812ff30dd24dd3f4fafdb253085461fcc624ab5f1bbe9b906020015b60405180910390a350506001600055565b6001600160a01b038116600090815260156020526040812054816120bb614138565b6001600160a01b038516600090815260116020526040902054909150811180156120fc57506001600160a01b0384166000908152600f602052604090205415155b156121ea576001600160a01b038416600081815260116020908152604080832054835260108252808320546018835281842054948452600f909252822054919290916121489190615a63565b6121529190615a7a565b905061215e8184615a50565b6001600160a01b0386166000908152600d6020526040902054909350156121e8576001600160a01b0385166000908152600f60205260408120546121a29083615a7a565b6001600160a01b0387166000908152600d602052604081205491925090612710906121cd9084615a63565b6121d79190615a7a565b90506121e38186615a9c565b945050505b505b5092915050565b6002600054036122135760405162461bcd60e51b81526004016105bc90615a03565b60026000908155612222614138565b90506005548111156122345760058190555b600854600554146122575760065461224d906001615a50565b6007556008546006555b60065460055411801561228b5750601c600060065460016122789190615a50565b8152602001908152602001600020546000145b1561231057600654600090815260196020908152604080832054601b9092528220546122c090670de0b6b3a764000090615a63565b6122ca9190615a7a565b6007546000908152601c60205260409020549091506122ea908290615a50565b601c600060065460016122fd9190615a50565b8152602081019190915260400160002055505b61231b611fb46151f0565b6000601760006123296151f0565b6001600160a01b03166001600160a01b031681526020019081526020016000205490506000811161236c5760405162461bcd60e51b81526004016105bc90615b1d565b60006017600061237a6151f0565b6001600160a01b03168152602081019190915260400160002055600854600654036123bc5780600a60008282546123b19190615a50565b909155506123ec9050565b6005546000908152601960205260409020546123d9908290615a9c565b6005546000908152601960205260409020555b6001546001600160a01b0316639a49090e6124056151f0565b836040518363ffffffff1660e01b8152600401612423929190615ae2565b600060405180830381600087803b15801561243d57600080fd5b505af1158015612451573d6000803e3d6000fd5b5050505061245d6151f0565b6001600160a01b03166005547f73d4ecbe623e0c89f3cfb75a853104d35d1105e8ec5f0ec6e4bb924da1ffb2928360405161208891815260200190565b8060005a905060006124aa614138565b90506005548111156124bc5760058190555b600854600554146124df576006546124d5906001615a50565b6007556008546006555b6006546005541180156125135750601c600060065460016125009190615a50565b8152602001908152602001600020546000145b1561259857600654600090815260196020908152604080832054601b90925282205461254890670de0b6b3a764000090615a63565b6125529190615a7a565b6007546000908152601c6020526040902054909150612572908290615a50565b601c600060065460016125859190615a50565b8152602081019190915260400160002055505b60055460009081526018602052604081205490036126e35760025460035560006125c06151db565b6002819055600580546000908152601860209081526040808320859055600985905592546008556006548252601990522054909150612600908290615a50565b60085460009081526019602052604081208054909190612621908490615a50565b90915550506004541561265d5760045460085460009081526019602052604081208054909190612652908490615a50565b909155505060006004555b600a541561269457600a5460085460009081526019602052604081208054909190612689908490615a9c565b90915550506000600a555b600554600854600090815260196020908152604091829020548251858152918201527f0666a61c1092f5b86c2cfe6ea1ad0d9a36032c4fb92d285b4e43f662d48f19b4910160405180910390a2505b6126eb6151f0565b6001600160a01b03811660009081526011602052604090205460055411801561272b57506001600160a01b0381166000908152600f602052604090205415155b15612892576001600160a01b038116600081815260116020908152604080832054835260108252808320546018835281842054948452600f909252822054919290916127779190615a63565b6127819190615a7a565b6001600160a01b0383166000908152601560205260408120805492935083929091906127ae908490615a50565b90915550506001600160a01b0382166000908152600d602052604090205415612877576001600160a01b0382166000908152600f60205260408120546127f49083615a7a565b6001600160a01b0384166000908152600d6020526040812054919250906127109061281f9084615a63565b6128299190615a7a565b6001600160a01b038516600090815260156020526040812080549293508392909190612856908490615a9c565b9091555050506001600160a01b0383166000908152600d6020526040812055505b506001600160a01b0381166000908152600f60205260408120555b6006546005541180156128ca57506006546128ae906001615a50565b6001600160a01b0382166000908152601a602052604090205414155b156129bc576001600160a01b0381166000908152601a60209081526040808320548352601c91829052822054600654670de0b6b3a76400009391929190612912906001615a50565b81526020019081526020016000205461292b9190615a9c565b6001600160a01b03831660009081526015602052604090205461294e9190615a63565b6129589190615a7a565b6001600160a01b03821660009081526016602052604090205461297b9190615a50565b6001600160a01b0382166000908152601660205260409020556006546129a2906001615a50565b6001600160a01b0382166000908152601a60205260409020555b6001600160a01b0381166000908152601f602052604090205415801590612a0757506001600160a01b0381166000908152601f6020526040812054600554612a049190615a9c565b10155b8015612a2b57506001600160a01b03811660009081526021602052604090205460ff165b15612bf5576001600160a01b0381166000818152601d60209081526040808320601f8352818420548452825280832054938352601590915281208054839290612a75908490615a50565b90915550506001600160a01b0382166000908152601e602052604081208054839290612aa2908490615a50565b90915550506001600160a01b0382166000908152601f6020526040902054600654612ace906001615a50565b1115612bac576001600160a01b0382166000908152601f60209081526040808320548352601c91829052822054600654670de0b6b3a76400009391929190612b17906001615a50565b815260200190815260200160002054612b309190615a9c565b6001600160a01b0384166000908152601d60209081526040808320601f8352818420548452909152902054612b659190615a63565b612b6f9190615a7a565b6001600160a01b038316600090815260166020526040902054612b929190615a50565b6001600160a01b0383166000908152601660205260409020555b506001600160a01b0381166000818152601d60209081526040808320601f835281842080548552908352818420849055938352928290556021905220805460ff19169055613009565b6001600160a01b0381166000908152601f602052604090205415801590612c3f57506001600160a01b0381166000908152601f6020526040812054600554612c3d9190615a9c565b115b15613009576001600160a01b0381166000818152601d60209081526040808320601f8352818420548452825280832054938352601590915281208054839290612c89908490615a50565b90915550506001600160a01b0382166000908152601e602052604081208054839290612cb6908490615a50565b90915550506001600160a01b0382166000908152601f6020526040902054600654612ce2906001615a50565b1115612dc0576001600160a01b0382166000908152601f60209081526040808320548352601c91829052822054600654670de0b6b3a76400009391929190612d2b906001615a50565b815260200190815260200160002054612d449190615a9c565b6001600160a01b0384166000908152601d60209081526040808320601f8352818420548452909152902054612d799190615a63565b612d839190615a7a565b6001600160a01b038316600090815260166020526040902054612da69190615a50565b6001600160a01b0383166000908152601660205260409020555b6001600160a01b0382166000818152601d60209081526040808320601f835281842080548552908352818420849055938352928290558052205415613007576001600160a01b0382166000908152602080526040812054600554612e249190615a9c565b1115612fdc576001600160a01b0382166000818152601d60209081526040808320828052818420548452825280832054938352601590915281208054839290612e6e908490615a50565b90915550506001600160a01b0383166000908152601e602052604081208054839290612e9b908490615a50565b90915550506001600160a01b0383166000908152602080526040902054600654612ec6906001615a50565b1115612fa1576001600160a01b038316600090815260208080526040808320548352601c91829052822054600654670de0b6b3a76400009391929190612f0d906001615a50565b815260200190815260200160002054612f269190615a9c565b6001600160a01b0385166000908152601d60209081526040808320828052818420548452909152902054612f5a9190615a63565b612f649190615a7a565b6001600160a01b038416600090815260166020526040902054612f879190615a50565b6001600160a01b0384166000908152601660205260409020555b506001600160a01b0382166000818152601d602090815260408083208280528184208054855290835290832083905592825280529055613007565b6001600160a01b0382166000908152602080805260408083208054601f845291842091909155908052555b505b61301287615212565b600f600061301e6151f0565b6001600160a01b031681526020810191909152604001600090812080549161304583615b96565b9091555050600554600090815260106020526040812080549161306783615b96565b91905055506005546011600061307b6151f0565b6001600160a01b03908116825260208201929092526040016000209190915587161561314a5785156131165785600d60006130b46151f0565b6001600160a01b03166001600160a01b0316815260200190815260200160002060008282546130e39190615a50565b90915550506001600160a01b0387166000908152600e602052604081208054889290613110908490615a50565b90915550505b841561314a576001600160a01b03871660009081526014602052604081208054879290613144908490615a50565b90915550505b60006131568a8a6154fc565b9050876001600160a01b0316816005547f6288811d8cdbed319ad675bb04053011e25d30480e6eb483c02d54ef3bc863f18a8a6040516131a0929190918252602082015260400190565b60405180910390a450505060006127106103e861ffff163a5a6131c39086615a9c565b6131cf90617984615a50565b6131d99190615a63565b6131e39190615a63565b6131ed9190615a7a565b9050806131fa8434615a9c565b101561325d5760405162461bcd60e51b815260206004820152602c60248201527f44656230783a2076616c7565206d757374206265203e3d20313025206f66207460448201526b6865207370656e742067617360a01b60648201526084016105bc565b61327b338461326c8434615a9c565b6132769190615a9c565b615455565b6005546000908152601b60205260408120805483929061329c908490615a50565b90915550505050505050505050565b6002600054036132cd5760405162461bcd60e51b81526004016105bc90615a03565b600260009081556132dc614138565b90506005548111156132ee5760058190555b6008546005541461331157600654613307906001615a50565b6007556008546006555b6006546005541180156133455750601c600060065460016133329190615a50565b8152602001908152602001600020546000145b156133ca57600654600090815260196020908152604080832054601b90925282205461337a90670de0b6b3a764000090615a63565b6133849190615a7a565b6007546000908152601c60205260409020549091506133a4908290615a50565b601c600060065460016133b79190615a50565b8152602081019190915260400160002055505b6133d26151f0565b6001600160a01b03811660009081526011602052604090205460055411801561341257506001600160a01b0381166000908152600f602052604090205415155b15613579576001600160a01b038116600081815260116020908152604080832054835260108252808320546018835281842054948452600f9092528220549192909161345e9190615a63565b6134689190615a7a565b6001600160a01b038316600090815260156020526040812080549293508392909190613495908490615a50565b90915550506001600160a01b0382166000908152600d60205260409020541561355e576001600160a01b0382166000908152600f60205260408120546134db9083615a7a565b6001600160a01b0384166000908152600d602052604081205491925090612710906135069084615a63565b6135109190615a7a565b6001600160a01b03851660009081526015602052604081208054929350839290919061353d908490615a9c565b9091555050506001600160a01b0383166000908152600d6020526040812055505b506001600160a01b0381166000908152600f60205260408120555b6006546005541180156135b15750600654613595906001615a50565b6001600160a01b0382166000908152601a602052604090205414155b156136a3576001600160a01b0381166000908152601a60209081526040808320548352601c91829052822054600654670de0b6b3a764000093919291906135f9906001615a50565b8152602001908152602001600020546136129190615a9c565b6001600160a01b0383166000908152601560205260409020546136359190615a63565b61363f9190615a7a565b6001600160a01b0382166000908152601660205260409020546136629190615a50565b6001600160a01b038216600090815260166020526040902055600654613689906001615a50565b6001600160a01b0382166000908152601a60205260409020555b6001600160a01b0381166000908152601f6020526040902054158015906136ee57506001600160a01b0381166000908152601f60205260408120546005546136eb9190615a9c565b10155b801561371257506001600160a01b03811660009081526021602052604090205460ff165b156138dc576001600160a01b0381166000818152601d60209081526040808320601f835281842054845282528083205493835260159091528120805483929061375c908490615a50565b90915550506001600160a01b0382166000908152601e602052604081208054839290613789908490615a50565b90915550506001600160a01b0382166000908152601f60205260409020546006546137b5906001615a50565b1115613893576001600160a01b0382166000908152601f60209081526040808320548352601c91829052822054600654670de0b6b3a764000093919291906137fe906001615a50565b8152602001908152602001600020546138179190615a9c565b6001600160a01b0384166000908152601d60209081526040808320601f835281842054845290915290205461384c9190615a63565b6138569190615a7a565b6001600160a01b0383166000908152601660205260409020546138799190615a50565b6001600160a01b0383166000908152601660205260409020555b506001600160a01b0381166000818152601d60209081526040808320601f835281842080548552908352818420849055938352928290556021905220805460ff19169055613cf0565b6001600160a01b0381166000908152601f60205260409020541580159061392657506001600160a01b0381166000908152601f60205260408120546005546139249190615a9c565b115b15613cf0576001600160a01b0381166000818152601d60209081526040808320601f8352818420548452825280832054938352601590915281208054839290613970908490615a50565b90915550506001600160a01b0382166000908152601e60205260408120805483929061399d908490615a50565b90915550506001600160a01b0382166000908152601f60205260409020546006546139c9906001615a50565b1115613aa7576001600160a01b0382166000908152601f60209081526040808320548352601c91829052822054600654670de0b6b3a76400009391929190613a12906001615a50565b815260200190815260200160002054613a2b9190615a9c565b6001600160a01b0384166000908152601d60209081526040808320601f8352818420548452909152902054613a609190615a63565b613a6a9190615a7a565b6001600160a01b038316600090815260166020526040902054613a8d9190615a50565b6001600160a01b0383166000908152601660205260409020555b6001600160a01b0382166000818152601d60209081526040808320601f835281842080548552908352818420849055938352928290558052205415613cee576001600160a01b0382166000908152602080526040812054600554613b0b9190615a9c565b1115613cc3576001600160a01b0382166000818152601d60209081526040808320828052818420548452825280832054938352601590915281208054839290613b55908490615a50565b90915550506001600160a01b0383166000908152601e602052604081208054839290613b82908490615a50565b90915550506001600160a01b0383166000908152602080526040902054600654613bad906001615a50565b1115613c88576001600160a01b038316600090815260208080526040808320548352601c91829052822054600654670de0b6b3a76400009391929190613bf4906001615a50565b815260200190815260200160002054613c0d9190615a9c565b6001600160a01b0385166000908152601d60209081526040808320828052818420548452909152902054613c419190615a63565b613c4b9190615a7a565b6001600160a01b038416600090815260166020526040902054613c6e9190615a50565b6001600160a01b0384166000908152601660205260409020555b506001600160a01b0382166000818152601d602090815260408083208280528184208054855290835290832083905592825280529055613cee565b6001600160a01b0382166000908152602080805260408083208054601f845291842091909155908052555b505b82600003613d105760405162461bcd60e51b81526004016105bc90615aaf565b8260046000828254613d229190615a50565b9091555050600554600090613d38906001615a50565b905060085460065403613d805750600554600160216000613d576151f0565b6001600160a01b031681526020810191909152604001600020805460ff19169115159190911790555b601f6000613d8c6151f0565b6001600160a01b03166001600160a01b03168152602001908152602001600020548114158015613de8575060206000613dc36151f0565b6001600160a01b03166001600160a01b03168152602001908152602001600020548114155b15613ea957601f6000613df96151f0565b6001600160a01b03166001600160a01b0316815260200190815260200160002054600003613e4d5780601f6000613e2e6151f0565b6001600160a01b03168152602081019190915260400160002055613ea9565b60206000613e596151f0565b6001600160a01b03166001600160a01b0316815260200190815260200160002054600003613ea9578060206000613e8e6151f0565b6001600160a01b031681526020810191909152604001600020555b83601d6000613eb66151f0565b6001600160a01b03166001600160a01b0316815260200190815260200160002060008381526020019081526020016000206000828254613ef69190615a50565b90915550506001546001600160a01b03166323b872dd613f146151f0565b6040516001600160e01b031960e084901b1681526001600160a01b039091166004820152306024820152604481018790526064016020604051808303816000875af1158015613f67573d6000803e3d6000fd5b505050506040513d601f19601f82011682018060405250810190613f8b9190615afb565b50613f946151f0565b6001600160a01b0316817f18dcd430020e4d4899772fd94a8b40451dc5044dfb70bc46b532eeae431c864f86604051613fcf91815260200190565b60405180910390a3505060016000555050565b6001600160a01b0381166000908152600c6020526040902080546060919061400990615baf565b80601f016020809104026020016040519081016040528092919081815260200182805461403590615baf565b80156140825780601f1061405757610100808354040283529160200191614082565b820191906000526020600020905b81548152906001019060200180831161406557829003601f168201915b50505050509050919050565b80600c600061409b6151f0565b6001600160a01b031681526020810191909152604001600020906140bf9082615c37565b506000816040516020016140d39190615cf6565b604051602081830303815290604052805190602001209050806140f46151f0565b6001600160a01b03167f1db169902a3b228ab764219bfc023384698a05b8a3d1bd2e046867a1dedf78a98460405161412c91906159bc565b60405180910390a35050565b60007f00000000000000000000000000000000000000000000000000000000000000006141857f000000000000000000000000000000000000000000000000000000000000000042615a9c565b61418f9190615a7a565b905090565b60008061419f614138565b6001600160a01b038416600090815260166020526040812054600754600654600854949550919390919085146141e5576006546141dd906001615a50565b915060085490505b80851180156142115750601c60006141fe836001615a50565b8152602001908152602001600020546000145b1561427557600081815260196020908152604080832054601b90925282205461424390670de0b6b3a764000090615a63565b61424d9190615a7a565b6007546000908152601c602052604090205490915061426d908290615a50565b93505061428a565b6007546000908152601c602052604090205492505b600061429588612099565b905081861180156142c857506142ac826001615a50565b6001600160a01b0389166000908152601a602052604090205414155b15614328576001600160a01b0388166000908152601a60209081526040808320548352601c909152902054670de0b6b3a7640000906143079086615a9c565b6143119083615a63565b61431b9190615a7a565b6143259086615a50565b94505b6001600160a01b0388166000908152601f60205260409020541580159061437257506001600160a01b0388166000908152601f60205260409020546001906143709088615a9c565b115b156144cd576001600160a01b0388166000908152601f60209081526040808320548352601c909152902054670de0b6b3a7640000906143b19086615a9c565b6001600160a01b038a166000908152601d60209081526040808320601f83528184205484529091529020546143e69190615a63565b6143f09190615a7a565b6143fa9086615a50565b6001600160a01b03891660009081526020805260409020549095501580159061444557506001600160a01b03881660009081526020805260409020546001906144439088615a9c565b115b156144cd576001600160a01b038816600090815260208080526040808320548352601c909152902054670de0b6b3a7640000906144829086615a9c565b6001600160a01b038a166000908152601d602090815260408083208280528184205484529091529020546144b69190615a63565b6144c09190615a7a565b6144ca9086615a50565b94505b50929695505050505050565b6000806144e4614138565b6001600160a01b0384166000908152601f6020526040812054919250901580159061453357506001600160a01b0384166000908152601f60205260408120546005546145309190615a9c565b10155b801561455757506001600160a01b03841660009081526021602052604090205460ff165b15614598576001600160a01b0384166000908152601d60209081526040808320601f83528184205484529091529020546145919082615a50565b905061469d565b6001600160a01b0384166000908152601f6020526040902054158015906145df57506001600160a01b0384166000908152601f60205260408120546145dd9084615a9c565b115b1561469d576001600160a01b0384166000908152601d60209081526040808320601f83528184205484529091529020546146199082615a50565b6001600160a01b03851660009081526020805260409020549091501580159061466157506001600160a01b038416600090815260208052604081205461465f9084615a9c565b115b1561469d576001600160a01b0384166000908152601d6020908152604080832082805281842054845290915290205461469a9082615a50565b90505b6001600160a01b0384166000908152601e60205260409020546146c1908290615a50565b949350505050565b6002600054036146eb5760405162461bcd60e51b81526004016105bc90615a03565b600260009081556146fa614138565b905060055481111561470c5760058190555b6008546005541461472f57600654614725906001615a50565b6007556008546006555b6006546005541180156147635750601c600060065460016147509190615a50565b8152602001908152602001600020546000145b156147e857600654600090815260196020908152604080832054601b90925282205461479890670de0b6b3a764000090615a63565b6147a29190615a7a565b6007546000908152601c60205260409020549091506147c2908290615a50565b601c600060065460016147d59190615a50565b8152602081019190915260400160002055505b6147f06151f0565b6001600160a01b03811660009081526011602052604090205460055411801561483057506001600160a01b0381166000908152600f602052604090205415155b15614997576001600160a01b038116600081815260116020908152604080832054835260108252808320546018835281842054948452600f9092528220549192909161487c9190615a63565b6148869190615a7a565b6001600160a01b0383166000908152601560205260408120805492935083929091906148b3908490615a50565b90915550506001600160a01b0382166000908152600d60205260409020541561497c576001600160a01b0382166000908152600f60205260408120546148f99083615a7a565b6001600160a01b0384166000908152600d602052604081205491925090612710906149249084615a63565b61492e9190615a7a565b6001600160a01b03851660009081526015602052604081208054929350839290919061495b908490615a9c565b9091555050506001600160a01b0383166000908152600d6020526040812055505b506001600160a01b0381166000908152600f60205260408120555b6006546005541180156149cf57506006546149b3906001615a50565b6001600160a01b0382166000908152601a602052604090205414155b15614ac1576001600160a01b0381166000908152601a60209081526040808320548352601c91829052822054600654670de0b6b3a76400009391929190614a17906001615a50565b815260200190815260200160002054614a309190615a9c565b6001600160a01b038316600090815260156020526040902054614a539190615a63565b614a5d9190615a7a565b6001600160a01b038216600090815260166020526040902054614a809190615a50565b6001600160a01b038216600090815260166020526040902055600654614aa7906001615a50565b6001600160a01b0382166000908152601a60205260409020555b6001600160a01b0381166000908152601f602052604090205415801590614b0c57506001600160a01b0381166000908152601f6020526040812054600554614b099190615a9c565b10155b8015614b3057506001600160a01b03811660009081526021602052604090205460ff165b15614cfa576001600160a01b0381166000818152601d60209081526040808320601f8352818420548452825280832054938352601590915281208054839290614b7a908490615a50565b90915550506001600160a01b0382166000908152601e602052604081208054839290614ba7908490615a50565b90915550506001600160a01b0382166000908152601f6020526040902054600654614bd3906001615a50565b1115614cb1576001600160a01b0382166000908152601f60209081526040808320548352601c91829052822054600654670de0b6b3a76400009391929190614c1c906001615a50565b815260200190815260200160002054614c359190615a9c565b6001600160a01b0384166000908152601d60209081526040808320601f8352818420548452909152902054614c6a9190615a63565b614c749190615a7a565b6001600160a01b038316600090815260166020526040902054614c979190615a50565b6001600160a01b0383166000908152601660205260409020555b506001600160a01b0381166000818152601d60209081526040808320601f835281842080548552908352818420849055938352928290556021905220805460ff1916905561510e565b6001600160a01b0381166000908152601f602052604090205415801590614d4457506001600160a01b0381166000908152601f6020526040812054600554614d429190615a9c565b115b1561510e576001600160a01b0381166000818152601d60209081526040808320601f8352818420548452825280832054938352601590915281208054839290614d8e908490615a50565b90915550506001600160a01b0382166000908152601e602052604081208054839290614dbb908490615a50565b90915550506001600160a01b0382166000908152601f6020526040902054600654614de7906001615a50565b1115614ec5576001600160a01b0382166000908152601f60209081526040808320548352601c91829052822054600654670de0b6b3a76400009391929190614e30906001615a50565b815260200190815260200160002054614e499190615a9c565b6001600160a01b0384166000908152601d60209081526040808320601f8352818420548452909152902054614e7e9190615a63565b614e889190615a7a565b6001600160a01b038316600090815260166020526040902054614eab9190615a50565b6001600160a01b0383166000908152601660205260409020555b6001600160a01b0382166000818152601d60209081526040808320601f83528184208054855290835281842084905593835292829055805220541561510c576001600160a01b0382166000908152602080526040812054600554614f299190615a9c565b11156150e1576001600160a01b0382166000818152601d60209081526040808320828052818420548452825280832054938352601590915281208054839290614f73908490615a50565b90915550506001600160a01b0383166000908152601e602052604081208054839290614fa0908490615a50565b90915550506001600160a01b0383166000908152602080526040902054600654614fcb906001615a50565b11156150a6576001600160a01b038316600090815260208080526040808320548352601c91829052822054600654670de0b6b3a76400009391929190615012906001615a50565b81526020019081526020016000205461502b9190615a9c565b6001600160a01b0385166000908152601d6020908152604080832082805281842054845290915290205461505f9190615a63565b6150699190615a7a565b6001600160a01b03841660009081526016602052604090205461508c9190615a50565b6001600160a01b0384166000908152601660205260409020555b506001600160a01b0382166000818152601d60209081526040808320828052818420805485529083529083208390559282528052905561510c565b6001600160a01b0382166000908152602080805260408083208054601f845291842091909155908052555b505b60006016600061511c6151f0565b6001600160a01b03166001600160a01b031681526020019081526020016000205490506000811161515f5760405162461bcd60e51b81526004016105bc90615b54565b60006016600061516d6151f0565b6001600160a01b0316815260208101919091526040016000205561519261203d6151f0565b61519a6151f0565b6001600160a01b03166151ab614138565b6040518381527f2227733fc4c8a9034cb58087dcf6995128b9c0233b038b03366aaf30c92b92d690602001611232565b60006127246003546127106141859190615a63565b60006151fb33611e58565b1561520d575060131936013560601c90565b503390565b6001600160a01b0381166000908152601260205260409020546005541115615337576001600160a01b038116600090815260126020908152604080832054600e9092529091205415801590615274575060008181526010602052604090205415155b1561531957600081815260106020908152604080832054601890925282205461529d9190615a7a565b6001600160a01b0384166000908152600e6020526040902054909150612710906152c79083615a63565b6152d19190615a7a565b6001600160a01b038416600090815260176020526040812080549091906152f9908490615a50565b9091555050506001600160a01b0382166000908152600e60205260408120555b506005546001600160a01b0382166000908152601260205260409020555b60065460055411801561536f5750600654615353906001615a50565b6001600160a01b03821660009081526013602052604090205414155b15615452576001600160a01b0381166000908152601360209081526040808320548352601c91829052822054600654670de0b6b3a764000093919291906153b7906001615a50565b8152602001908152602001600020546153d09190615a9c565b6001600160a01b0383166000908152601760205260409020546153f39190615a63565b6153fd9190615a7a565b6001600160a01b03821660009081526014602052604081208054909190615425908490615a50565b9091555050600654615438906001615a50565b6001600160a01b0382166000908152601360205260409020555b50565b6000826001600160a01b03168260405160006040518083038185875af1925050503d80600081146154a2576040519150601f19603f3d011682016040523d82523d6000602084013e6154a7565b606091505b50509050806154f75760405162461bcd60e51b815260206004820152601c60248201527b1119588c1e0e8819985a5b1959081d1bc81cd95b9908185b5bdd5b9d60221b60448201526064016105bc565b505050565b6000805b6001845161550e9190615a9c565b8110156155e557600083828151811061552957615529615d12565b60200260200101516040516020016155419190615cf6565b604051602081830303815290604052805190602001209050806155626151f0565b6001600160a01b031686848151811061557d5761557d615d12565b60200260200101516001600160a01b0316600080516020615d51833981519152600b54428988815181106155b3576155b3615d12565b60200260200101516040516155ca93929190615d28565b60405180910390a450806155dd81615b96565b915050615500565b50600082600185516155f79190615a9c565b8151811061560757615607615d12565b602002602001015160405160200161561f9190615cf6565b604051602081830303815290604052805190602001209050806156406151f0565b6001600160a01b03166156516151f0565b6001600160a01b0316600080516020615d51833981519152600b54428860018b5161567c9190615a9c565b8151811061568c5761568c615d12565b60200260200101516040516156a393929190615d28565b60405180910390a4600b805490819060006156bd83615b96565b9091555090925050505b92915050565b6000602082840312156156df57600080fd5b5035919050565b80356001600160a01b03811681146156fd57600080fd5b919050565b60006020828403121561571457600080fd5b61571d826156e6565b9392505050565b634e487b7160e01b600052604160045260246000fd5b604051601f8201601f191681016001600160401b038111828210171561576257615762615724565b604052919050565b60006001600160401b0382111561578357615783615724565b5060051b60200190565b600082601f83011261579e57600080fd5b81356001600160401b038111156157b7576157b7615724565b6157ca601f8201601f191660200161573a565b8181528460208386010111156157df57600080fd5b816020850160208301376000918101602001919091529392505050565b600082601f83011261580d57600080fd5b8135602061582261581d8361576a565b61573a565b82815260059290921b8401810191818101908684111561584157600080fd5b8286015b848110156158805780356001600160401b038111156158645760008081fd5b6158728986838b010161578d565b845250918301918301615845565b509695505050505050565b600080600080600060a086880312156158a357600080fd5b85356001600160401b03808211156158ba57600080fd5b818801915088601f8301126158ce57600080fd5b813560206158de61581d8361576a565b82815260059290921b8401810191818101908c8411156158fd57600080fd5b948201945b8386101561592257615913866156e6565b82529482019490820190615902565b9950508901359250508082111561593857600080fd5b50615945888289016157fc565b945050615954604087016156e6565b94979396509394606081013594506080013592915050565b60005b8381101561598757818101518382015260200161596f565b50506000910152565b600081518084526159a881602086016020860161596c565b601f01601f19169290920160200192915050565b60208152600061571d6020830184615990565b6000602082840312156159e157600080fd5b81356001600160401b038111156159f757600080fd5b6146c18482850161578d565b6020808252601f908201527f5265656e7472616e637947756172643a207265656e7472616e742063616c6c00604082015260600190565b634e487b7160e01b600052601160045260246000fd5b808201808211156156c7576156c7615a3a565b80820281158282048414176156c7576156c7615a3a565b600082615a9757634e487b7160e01b600052601260045260246000fd5b500490565b818103818111156156c7576156c7615a3a565b60208082526019908201527844656230783a20616d6f756e7420617267206973207a65726f60381b604082015260600190565b6001600160a01b03929092168252602082015260400190565b600060208284031215615b0d57600080fd5b8151801515811461571d57600080fd5b6020808252601d908201527f44656230783a206163636f756e7420686173206e6f2072657761726473000000604082015260600190565b60208082526022908201527f44656230783a206163636f756e7420686173206e6f2061636372756564206665604082015261657360f01b606082015260800190565b600060018201615ba857615ba8615a3a565b5060010190565b600181811c90821680615bc357607f821691505b602082108103615be357634e487b7160e01b600052602260045260246000fd5b50919050565b601f8211156154f757600081815260208120601f850160051c81016020861015615c105750805b601f850160051c820191505b81811015615c2f57828155600101615c1c565b505050505050565b81516001600160401b03811115615c5057615c50615724565b615c6481615c5e8454615baf565b84615be9565b602080601f831160018114615c995760008415615c815750858301515b600019600386901b1c1916600185901b178555615c2f565b600085815260208120601f198616915b82811015615cc857888601518255948401946001909101908401615ca9565b5085821015615ce65787850151600019600388901b60f8161c191681555b5050505050600190811b01905550565b60008251615d0881846020870161596c565b9190910192915050565b634e487b7160e01b600052603260045260246000fd5b838152826020820152606060408201526000615d476060830184615990565b9594505050505056fe30292b34f392337af6a42d59615abadbf77da5245b82b2246293c759a9b9361ea2646970667358221220fbd85682576e1855dac850084f1d2fa392ef9ba9b86ec81d7089c090d67ff29c64736f6c63430008110033608060405234801561001057600080fd5b506040518060400160405280601d81526020017f44656230782052657761726420546f6b656e206f6e20506f6c79676f6e000000815250604051806040016040528060048152602001630e08884b60e31b81525081600390816100739190610139565b5060046100808282610139565b5050600580546001600160a01b03191633179055506101f8565b634e487b7160e01b600052604160045260246000fd5b600181811c908216806100c457607f821691505b6020821081036100e457634e487b7160e01b600052602260045260246000fd5b50919050565b601f82111561013457600081815260208120601f850160051c810160208610156101115750805b601f850160051c820191505b818110156101305782815560010161011d565b5050505b505050565b81516001600160401b038111156101525761015261009a565b6101668161016084546100b0565b846100ea565b602080601f83116001811461019b57600084156101835750858301515b600019600386901b1c1916600185901b178555610130565b600085815260208120601f198616915b828110156101ca578886015182559484019460019091019084016101ab565b50858210156101e85787850151600019600388901b60f8161c191681555b5050505050600190811b01905550565b610a1080620002086000396000f3fe608060405234801561001057600080fd5b50600436106100af5760003560e01c806306fdde03146100b4578063095ea7b3146100d257806318160ddd146100f557806323b872dd14610107578063313ce5671461011a578063395093511461012957806370a082311461013c5780638da5cb5b1461016557806395d89b41146101905780639a49090e14610198578063a457c2d7146101ad578063a9059cbb146101c0578063dd62ed3e146101d3575b600080fd5b6100bc6101e6565b6040516100c9919061083a565b60405180910390f35b6100e56100e03660046108a4565b610278565b60405190151581526020016100c9565b6002545b6040519081526020016100c9565b6100e56101153660046108ce565b610292565b604051601281526020016100c9565b6100e56101373660046108a4565b6102b6565b6100f961014a36600461090a565b6001600160a01b031660009081526020819052604090205490565b600554610178906001600160a01b031681565b6040516001600160a01b0390911681526020016100c9565b6100bc6102d8565b6101ab6101a63660046108a4565b6102e7565b005b6100e56101bb3660046108a4565b61035f565b6100e56101ce3660046108a4565b6103da565b6100f96101e136600461092c565b6103e8565b6060600380546101f59061095f565b80601f01602080910402602001604051908101604052809291908181526020018280546102219061095f565b801561026e5780601f106102435761010080835404028352916020019161026e565b820191906000526020600020905b81548152906001019060200180831161025157829003601f168201915b5050505050905090565b600033610286818585610413565b60019150505b92915050565b6000336102a0858285610537565b6102ab8585856105b1565b506001949350505050565b6000336102868185856102c983836103e8565b6102d39190610999565b610413565b6060600480546101f59061095f565b6005546001600160a01b031633146103515760405162461bcd60e51b815260206004820152602260248201527f4442583a2063616c6c6572206973206e6f7420446562307820636f6e747261636044820152613a1760f11b60648201526084015b60405180910390fd5b61035b828261076d565b5050565b6000338161036d82866103e8565b9050838110156103cd5760405162461bcd60e51b815260206004820152602560248201527f45524332303a2064656372656173656420616c6c6f77616e63652062656c6f77604482015264207a65726f60d81b6064820152608401610348565b6102ab8286868403610413565b6000336102868185856105b1565b6001600160a01b03918216600090815260016020908152604080832093909416825291909152205490565b6001600160a01b0383166104755760405162461bcd60e51b8152602060048201526024808201527f45524332303a20617070726f76652066726f6d20746865207a65726f206164646044820152637265737360e01b6064820152608401610348565b6001600160a01b0382166104d65760405162461bcd60e51b815260206004820152602260248201527f45524332303a20617070726f766520746f20746865207a65726f206164647265604482015261737360f01b6064820152608401610348565b6001600160a01b0383811660008181526001602090815260408083209487168084529482529182902085905590518481527f8c5be1e5ebec7d5bd14f71427d1e84f3dd0314c0f7b2291e5b200ac8c7c3b925910160405180910390a3505050565b600061054384846103e8565b905060001981146105ab578181101561059e5760405162461bcd60e51b815260206004820152601d60248201527f45524332303a20696e73756666696369656e7420616c6c6f77616e63650000006044820152606401610348565b6105ab8484848403610413565b50505050565b6001600160a01b0383166106155760405162461bcd60e51b815260206004820152602560248201527f45524332303a207472616e736665722066726f6d20746865207a65726f206164604482015264647265737360d81b6064820152608401610348565b6001600160a01b0382166106775760405162461bcd60e51b815260206004820152602360248201527f45524332303a207472616e7366657220746f20746865207a65726f206164647260448201526265737360e81b6064820152608401610348565b6001600160a01b038316600090815260208190526040902054818110156106ef5760405162461bcd60e51b815260206004820152602660248201527f45524332303a207472616e7366657220616d6f756e7420657863656564732062604482015265616c616e636560d01b6064820152608401610348565b6001600160a01b03808516600090815260208190526040808220858503905591851681529081208054849290610726908490610999565b92505081905550826001600160a01b0316846001600160a01b03166000805160206109bb8339815191528460405161076091815260200190565b60405180910390a36105ab565b6001600160a01b0382166107c35760405162461bcd60e51b815260206004820152601f60248201527f45524332303a206d696e7420746f20746865207a65726f2061646472657373006044820152606401610348565b80600260008282546107d59190610999565b90915550506001600160a01b03821660009081526020819052604081208054839290610802908490610999565b90915550506040518181526001600160a01b038316906000906000805160206109bb8339815191529060200160405180910390a35050565b600060208083528351808285015260005b818110156108675785810183015185820160400152820161084b565b506000604082860101526040601f19601f8301168501019250505092915050565b80356001600160a01b038116811461089f57600080fd5b919050565b600080604083850312156108b757600080fd5b6108c083610888565b946020939093013593505050565b6000806000606084860312156108e357600080fd5b6108ec84610888565b92506108fa60208501610888565b9150604084013590509250925092565b60006020828403121561091c57600080fd5b61092582610888565b9392505050565b6000806040838503121561093f57600080fd5b61094883610888565b915061095660208401610888565b90509250929050565b600181811c9082168061097357607f821691505b60208210810361099357634e487b7160e01b600052602260045260246000fd5b50919050565b8082018082111561028c57634e487b7160e01b600052601160045260246000fdfeddf252ad1be2c89b69c2b068fc378daa952ba7f163c4a11628f55a4df523b3efa26469706673582212203ff4614f700f8093fb72051f034c74b8b8e547b551a6963bfebba2f4f625ebc364736f6c63430008110033",
    "linkReferences": {},
    "deployedLinkReferences": {}
}