{
    "_format": "hh-sol-artifact-1",
    "contractName": "Deb0x",
    "sourceName": "contracts/Deb0x.sol",
    "abi": [
        {
            "inputs": [
                {
                    "internalType": "address",
                    "name": "forwarder",
                    "type": "address"
                }
            ],
            "stateMutability": "nonpayable",
            "type": "constructor"
        },
        {
            "anonymous": false,
            "inputs": [
                {
                    "indexed": true,
                    "internalType": "uint256",
                    "name": "cycle",
                    "type": "uint256"
                },
                {
                    "indexed": true,
                    "internalType": "address",
                    "name": "account",
                    "type": "address"
                },
                {
                    "indexed": false,
                    "internalType": "uint256",
                    "name": "fees",
                    "type": "uint256"
                }
            ],
            "name": "ClientFeesClaimed",
            "type": "event"
        },
        {
            "anonymous": false,
            "inputs": [
                {
                    "indexed": true,
                    "internalType": "uint256",
                    "name": "cycle",
                    "type": "uint256"
                },
                {
                    "indexed": true,
                    "internalType": "address",
                    "name": "account",
                    "type": "address"
                },
                {
                    "indexed": false,
                    "internalType": "uint256",
                    "name": "amount",
                    "type": "uint256"
                }
            ],
            "name": "ClientRewardsClaimed",
            "type": "event"
        },
        {
            "anonymous": false,
            "inputs": [
                {
                    "indexed": true,
                    "internalType": "uint256",
                    "name": "cycle",
                    "type": "uint256"
                },
                {
                    "indexed": true,
                    "internalType": "address",
                    "name": "account",
                    "type": "address"
                },
                {
                    "indexed": false,
                    "internalType": "uint256",
                    "name": "fees",
                    "type": "uint256"
                }
            ],
            "name": "FeesClaimed",
            "type": "event"
        },
        {
            "anonymous": false,
            "inputs": [
                {
                    "indexed": true,
                    "internalType": "address",
                    "name": "to",
                    "type": "address"
                },
                {
                    "indexed": true,
                    "internalType": "bytes32",
                    "name": "hash",
                    "type": "bytes32"
                },
                {
                    "indexed": false,
                    "internalType": "string",
                    "name": "value",
                    "type": "string"
                }
            ],
            "name": "KeySet",
            "type": "event"
        },
        {
            "anonymous": false,
            "inputs": [
                {
                    "indexed": true,
                    "internalType": "uint256",
                    "name": "cycle",
                    "type": "uint256"
                },
                {
                    "indexed": false,
                    "internalType": "uint256",
                    "name": "calculatedCycleReward",
                    "type": "uint256"
                },
                {
                    "indexed": false,
                    "internalType": "uint256",
                    "name": "summedCycleStakes",
                    "type": "uint256"
                }
            ],
            "name": "NewCycleStarted",
            "type": "event"
        },
        {
            "anonymous": false,
            "inputs": [
                {
                    "indexed": true,
                    "internalType": "uint256",
                    "name": "cycle",
                    "type": "uint256"
                },
                {
                    "indexed": true,
                    "internalType": "address",
                    "name": "account",
                    "type": "address"
                },
                {
                    "indexed": false,
                    "internalType": "uint256",
                    "name": "reward",
                    "type": "uint256"
                }
            ],
            "name": "RewardsClaimed",
            "type": "event"
        },
        {
            "anonymous": false,
            "inputs": [
                {
                    "indexed": true,
                    "internalType": "uint256",
                    "name": "cycle",
                    "type": "uint256"
                },
                {
                    "indexed": true,
                    "internalType": "uint256",
                    "name": "sentId",
                    "type": "uint256"
                },
                {
                    "indexed": true,
                    "internalType": "address",
                    "name": "feeReceiver",
                    "type": "address"
                },
                {
                    "indexed": false,
                    "internalType": "uint256",
                    "name": "msgFee",
                    "type": "uint256"
                },
                {
                    "indexed": false,
                    "internalType": "uint256",
                    "name": "nativeTokenFee",
                    "type": "uint256"
                }
            ],
            "name": "SendEntryCreated",
            "type": "event"
        },
        {
            "anonymous": false,
            "inputs": [
                {
                    "indexed": true,
                    "internalType": "address",
                    "name": "to",
                    "type": "address"
                },
                {
                    "indexed": true,
                    "internalType": "address",
                    "name": "from",
                    "type": "address"
                },
                {
                    "indexed": true,
                    "internalType": "bytes32",
                    "name": "hash",
                    "type": "bytes32"
                },
                {
                    "components": [
                        {
                            "internalType": "string",
                            "name": "content",
                            "type": "string"
                        },
                        {
                            "internalType": "uint256",
                            "name": "timestamp",
                            "type": "uint256"
                        }
                    ],
                    "indexed": false,
                    "internalType": "struct Deb0x.Envelope",
                    "name": "body",
                    "type": "tuple"
                },
                {
                    "indexed": false,
                    "internalType": "uint256",
                    "name": "sentId",
                    "type": "uint256"
                }
            ],
            "name": "Sent",
            "type": "event"
        },
        {
            "anonymous": false,
            "inputs": [
                {
                    "indexed": true,
                    "internalType": "uint256",
                    "name": "cycle",
                    "type": "uint256"
                },
                {
                    "indexed": true,
                    "internalType": "address",
                    "name": "account",
                    "type": "address"
                },
                {
                    "indexed": false,
                    "internalType": "uint256",
                    "name": "amount",
                    "type": "uint256"
                }
            ],
            "name": "Staked",
            "type": "event"
        },
        {
            "anonymous": false,
            "inputs": [
                {
                    "indexed": true,
                    "internalType": "uint256",
                    "name": "cycle",
                    "type": "uint256"
                },
                {
                    "indexed": true,
                    "internalType": "address",
                    "name": "account",
                    "type": "address"
                },
                {
                    "indexed": false,
                    "internalType": "uint256",
                    "name": "amount",
                    "type": "uint256"
                }
            ],
            "name": "Unstaked",
            "type": "event"
        },
        {
            "inputs": [],
            "name": "PROTOCOL_FEE",
            "outputs": [
                {
                    "internalType": "uint16",
                    "name": "",
                    "type": "uint16"
                }
            ],
            "stateMutability": "view",
            "type": "function"
        },
        {
            "inputs": [],
            "name": "SCALING_FACTOR",
            "outputs": [
                {
                    "internalType": "uint256",
                    "name": "",
                    "type": "uint256"
                }
            ],
            "stateMutability": "view",
            "type": "function"
        },
        {
            "inputs": [
                {
                    "internalType": "address",
                    "name": "",
                    "type": "address"
                }
            ],
            "name": "accAccruedFees",
            "outputs": [
                {
                    "internalType": "uint256",
                    "name": "",
                    "type": "uint256"
                }
            ],
            "stateMutability": "view",
            "type": "function"
        },
        {
            "inputs": [
                {
                    "internalType": "address",
                    "name": "",
                    "type": "address"
                }
            ],
            "name": "accRewards",
            "outputs": [
                {
                    "internalType": "uint256",
                    "name": "",
                    "type": "uint256"
                }
            ],
            "stateMutability": "view",
            "type": "function"
        },
        {
            "inputs": [
                {
                    "internalType": "address",
                    "name": "",
                    "type": "address"
                }
            ],
            "name": "accWithdrawableStake",
            "outputs": [
                {
                    "internalType": "uint256",
                    "name": "",
                    "type": "uint256"
                }
            ],
            "stateMutability": "view",
            "type": "function"
        },
        {
            "inputs": [],
            "name": "calculateCycleReward",
            "outputs": [
                {
                    "internalType": "uint256",
                    "name": "",
                    "type": "uint256"
                }
            ],
            "stateMutability": "view",
            "type": "function"
        },
        {
            "inputs": [],
            "name": "claimClientFees",
            "outputs": [],
            "stateMutability": "nonpayable",
            "type": "function"
        },
        {
            "inputs": [],
            "name": "claimClientRewards",
            "outputs": [],
            "stateMutability": "nonpayable",
            "type": "function"
        },
        {
            "inputs": [],
            "name": "claimFees",
            "outputs": [],
            "stateMutability": "nonpayable",
            "type": "function"
        },
        {
            "inputs": [],
            "name": "claimRewards",
            "outputs": [],
            "stateMutability": "nonpayable",
            "type": "function"
        },
        {
            "inputs": [],
            "name": "contractBalance",
            "outputs": [
                {
                    "internalType": "uint256",
                    "name": "",
                    "type": "uint256"
                }
            ],
            "stateMutability": "view",
            "type": "function"
        },
        {
            "inputs": [],
            "name": "currentStartedCycle",
            "outputs": [
                {
                    "internalType": "uint256",
                    "name": "",
                    "type": "uint256"
                }
            ],
            "stateMutability": "view",
            "type": "function"
        },
        {
            "inputs": [
                {
                    "internalType": "uint256",
                    "name": "",
                    "type": "uint256"
                }
            ],
            "name": "cycleAccruedFees",
            "outputs": [
                {
                    "internalType": "uint256",
                    "name": "",
                    "type": "uint256"
                }
            ],
            "stateMutability": "view",
            "type": "function"
        },
        {
            "inputs": [
                {
                    "internalType": "uint256",
                    "name": "",
                    "type": "uint256"
                }
            ],
            "name": "cycleFeesPerStakeSummed",
            "outputs": [
                {
                    "internalType": "uint256",
                    "name": "",
                    "type": "uint256"
                }
            ],
            "stateMutability": "view",
            "type": "function"
        },
        {
            "inputs": [],
            "name": "dbx",
            "outputs": [
                {
                    "internalType": "contract Deb0xERC20",
                    "name": "",
                    "type": "address"
                }
            ],
            "stateMutability": "view",
            "type": "function"
        },
        {
            "inputs": [
                {
                    "internalType": "address",
                    "name": "staker",
                    "type": "address"
                }
            ],
            "name": "getAccWithdrawableStake",
            "outputs": [
                {
                    "internalType": "uint256",
                    "name": "",
                    "type": "uint256"
                }
            ],
            "stateMutability": "view",
            "type": "function"
        },
        {
            "inputs": [],
            "name": "getCurrentCycle",
            "outputs": [
                {
                    "internalType": "uint256",
                    "name": "",
                    "type": "uint256"
                }
            ],
            "stateMutability": "view",
            "type": "function"
        },
        {
            "inputs": [
                {
                    "internalType": "address",
                    "name": "account",
                    "type": "address"
                }
            ],
            "name": "getKey",
            "outputs": [
                {
                    "internalType": "string",
                    "name": "",
                    "type": "string"
                }
            ],
            "stateMutability": "view",
            "type": "function"
        },
        {
            "inputs": [
                {
                    "internalType": "address",
                    "name": "account",
                    "type": "address"
                }
            ],
            "name": "getUnclaimedFees",
            "outputs": [
                {
                    "internalType": "uint256",
                    "name": "",
                    "type": "uint256"
                }
            ],
            "stateMutability": "view",
            "type": "function"
        },
        {
            "inputs": [
                {
                    "internalType": "address",
                    "name": "account",
                    "type": "address"
                }
            ],
            "name": "getUnclaimedRewards",
            "outputs": [
                {
                    "internalType": "uint256",
                    "name": "",
                    "type": "uint256"
                }
            ],
            "stateMutability": "view",
            "type": "function"
        },
        {
            "inputs": [
                {
                    "internalType": "address",
                    "name": "forwarder",
                    "type": "address"
                }
            ],
            "name": "isTrustedForwarder",
            "outputs": [
                {
                    "internalType": "bool",
                    "name": "",
                    "type": "bool"
                }
            ],
            "stateMutability": "view",
            "type": "function"
        },
        {
            "inputs": [
                {
                    "internalType": "address",
                    "name": "",
                    "type": "address"
                }
            ],
            "name": "lastFeeUpdateCycle",
            "outputs": [
                {
                    "internalType": "uint256",
                    "name": "",
                    "type": "uint256"
                }
            ],
            "stateMutability": "view",
            "type": "function"
        },
        {
            "inputs": [],
            "name": "pendingStakeWithdrawal",
            "outputs": [
                {
                    "internalType": "uint256",
                    "name": "",
                    "type": "uint256"
                }
            ],
            "stateMutability": "view",
            "type": "function"
        },
        {
            "inputs": [
                {
                    "internalType": "uint256",
                    "name": "",
                    "type": "uint256"
                }
            ],
            "name": "rewardPerCycle",
            "outputs": [
                {
                    "internalType": "uint256",
                    "name": "",
                    "type": "uint256"
                }
            ],
            "stateMutability": "view",
            "type": "function"
        },
        {
            "inputs": [
                {
                    "internalType": "address[]",
                    "name": "to",
                    "type": "address[]"
                },
                {
                    "internalType": "string[]",
                    "name": "payload",
                    "type": "string[]"
                },
                {
                    "internalType": "address",
                    "name": "feeReceiver",
                    "type": "address"
                },
                {
                    "internalType": "uint256",
                    "name": "msgFee",
                    "type": "uint256"
                },
                {
                    "internalType": "uint256",
                    "name": "nativeTokenFee",
                    "type": "uint256"
                }
            ],
            "name": "send",
            "outputs": [],
            "stateMutability": "payable",
            "type": "function"
        },
        {
            "inputs": [],
            "name": "sentId",
            "outputs": [
                {
                    "internalType": "uint256",
                    "name": "",
                    "type": "uint256"
                }
            ],
            "stateMutability": "view",
            "type": "function"
        },
        {
            "inputs": [
                {
                    "internalType": "string",
                    "name": "publicKey",
                    "type": "string"
                }
            ],
            "name": "setKey",
            "outputs": [],
            "stateMutability": "nonpayable",
            "type": "function"
        },
        {
            "inputs": [
                {
                    "internalType": "uint256",
                    "name": "amount",
                    "type": "uint256"
                }
            ],
            "name": "stakeDBX",
            "outputs": [],
            "stateMutability": "nonpayable",
            "type": "function"
        },
        {
            "inputs": [
                {
                    "internalType": "address",
                    "name": "",
                    "type": "address"
                }
            ],
            "name": "stakedDuringGapCycle",
            "outputs": [
                {
                    "internalType": "bool",
                    "name": "",
                    "type": "bool"
                }
            ],
            "stateMutability": "view",
            "type": "function"
        },
        {
            "inputs": [
                {
                    "internalType": "uint256",
                    "name": "",
                    "type": "uint256"
                }
            ],
            "name": "summedCycleStakes",
            "outputs": [
                {
                    "internalType": "uint256",
                    "name": "",
                    "type": "uint256"
                }
            ],
            "stateMutability": "view",
            "type": "function"
        },
        {
            "inputs": [
                {
                    "internalType": "uint256",
                    "name": "amount",
                    "type": "uint256"
                }
            ],
            "name": "unstake",
            "outputs": [],
            "stateMutability": "nonpayable",
            "type": "function"
        }
    ],
    "bytecode": "0x60e06040526001600a553480156200001657600080fd5b5060405162006a6438038062006a64833981016040819052620000399162000110565b6001600160a01b038116608052604051620000549062000102565b604051809103906000f08015801562000071573d6000803e3d6000fd5b50600080546001600160a01b0319166001600160a01b03929092169190911781554260a0526201518060c05269021e19e0c9bab240000060018190559080527f999d26de3473317ead3eeaf34ca78057f1439db67b6953469c3c96ce9caf6bd781905560176020527fd840e16649f6b9a295d95876f4633d3a6b10b55e8162971cf78afd886d5ec89b555062000142565b610c188062005e4c83390190565b6000602082840312156200012357600080fd5b81516001600160a01b03811681146200013b57600080fd5b9392505050565b60805160a05160c051615cda620001726000396000614081015260006140a501526000611e180152615cda6000f3fe6080604052600436106101685760003560e01c80630b4501fd1461016d5780630ece21541461019b5780631ed6380f146101d65780632e17de7814610203578063372500ab14610225578063572b6c051461023a578063654773cd1461026a57806368f057691461027f57806369a69e291461029557806369ec283e146102b55780636f044d37146102ca5780637d818c23146102dd5780637e30d2b5146103155780638b7afe2e1461033557806393790f441461034857806398a5db5714610375578063a707140b1461038b578063adc0f686146103b8578063af42d106146103e5578063bc71329014610405578063be26ed7f14610432578063bebc9dfc14610447578063bf992dea14610474578063c4235ae914610494578063cdd5c81f146104c1578063d294f093146104e1578063d6aef1c6146104f6578063ed725e831461050b578063ef4cadc514610538578063f1b371e214610554578063f7400c2a1461056a575b600080fd5b34801561017957600080fd5b506101836103e881565b60405161ffff90911681526020015b60405180910390f35b3480156101a757600080fd5b506101c86101b636600461562c565b601a6020526000908152604090205481565b604051908152602001610192565b3480156101e257600080fd5b506101c86101f1366004615661565b601d6020526000908152604090205481565b34801561020f57600080fd5b5061022361021e36600461562c565b610599565b005b34801561023157600080fd5b50610223611220565b34801561024657600080fd5b5061025a610255366004615661565b611e16565b6040519015158152602001610192565b34801561027657600080fd5b50610223611e48565b34801561028b57600080fd5b506101c860095481565b3480156102a157600080fd5b506101c86102b0366004615661565b61202b565b3480156102c157600080fd5b50610223612183565b6102236102d83660046157ea565b612405565b3480156102e957600080fd5b506000546102fd906001600160a01b031681565b6040516001600160a01b039091168152602001610192565b34801561032157600080fd5b5061022361033036600461562c565b61321f565b34801561034157600080fd5b50476101c8565b34801561035457600080fd5b50610368610363366004615661565b613f33565b604051610192919061591b565b34801561038157600080fd5b506101c8600a5481565b34801561039757600080fd5b506101c86103a6366004615661565b60196020526000908152604090205481565b3480156103c457600080fd5b506101c86103d336600461562c565b60176020526000908152604090205481565b3480156103f157600080fd5b5061022361040036600461592e565b613fdf565b34801561041157600080fd5b506101c8610420366004615661565b60156020526000908152604090205481565b34801561043e57600080fd5b506101c861407d565b34801561045357600080fd5b506101c861046236600461562c565b601b6020526000908152604090205481565b34801561048057600080fd5b506101c861048f366004615661565b6140d9565b3480156104a057600080fd5b506101c86104af36600461562c565b60186020526000908152604090205481565b3480156104cd57600080fd5b506101c86104dc366004615661565b614423565b3480156104ed57600080fd5b50610223614615565b34801561050257600080fd5b506101c8615109565b34801561051757600080fd5b506101c8610526366004615661565b60146020526000908152604090205481565b34801561054457600080fd5b506101c8670de0b6b3a764000081565b34801561056057600080fd5b506101c860075481565b34801561057657600080fd5b5061025a610585366004615661565b602080526000908152604090205460ff1681565b60006105a361407d565b90506004548111156105b55760048190555b600754600454146105d8576005546105ce906001615978565b6006556007546005555b60055460045411801561060c5750601b600060055460016105f99190615978565b8152602001908152602001600020546000145b1561069157600554600090815260186020908152604080832054601a90925282205461064190670de0b6b3a76400009061598b565b61064b91906159a2565b6006546000908152601b602052604090205490915061066b908290615978565b601b6000600554600161067e9190615978565b8152602081019190915260400160002055505b61069961511e565b6001600160a01b0381166000908152601060205260409020546004541180156106d957506001600160a01b0381166000908152600e602052604090205415155b15610840576001600160a01b0381166000818152601060209081526040808320548352600f8252808320546017835281842054948452600e90925282205491929091610725919061598b565b61072f91906159a2565b6001600160a01b03831660009081526014602052604081208054929350839290919061075c908490615978565b90915550506001600160a01b0382166000908152600c602052604090205415610825576001600160a01b0382166000908152600e60205260408120546107a290836159a2565b6001600160a01b0384166000908152600c602052604081205491925090612710906107cd908461598b565b6107d791906159a2565b6001600160a01b0385166000908152601460205260408120805492935083929091906108049084906159c4565b9091555050506001600160a01b0383166000908152600c6020526040812055505b506001600160a01b0381166000908152600e60205260408120555b600554600454118015610878575060055461085c906001615978565b6001600160a01b03821660009081526019602052604090205414155b1561096a576001600160a01b0381166000908152601960209081526040808320548352601b91829052822054600554670de0b6b3a764000093919291906108c0906001615978565b8152602001908152602001600020546108d991906159c4565b6001600160a01b0383166000908152601460205260409020546108fc919061598b565b61090691906159a2565b6001600160a01b0382166000908152601560205260409020546109299190615978565b6001600160a01b038216600090815260156020526040902055600554610950906001615978565b6001600160a01b0382166000908152601960205260409020555b6001600160a01b0381166000908152601e6020526040902054158015906109b557506001600160a01b0381166000908152601e60205260408120546004546109b291906159c4565b10155b80156109d857506001600160a01b038116600090815260208052604090205460ff165b15610ba0576001600160a01b0381166000818152601c60209081526040808320601e8352818420548452825280832054938352601490915281208054839290610a22908490615978565b90915550506001600160a01b0382166000908152601d602052604081208054839290610a4f908490615978565b90915550506001600160a01b0382166000908152601e6020526040902054600554610a7b906001615978565b1115610b59576001600160a01b0382166000908152601e60209081526040808320548352601b91829052822054600554670de0b6b3a76400009391929190610ac4906001615978565b815260200190815260200160002054610add91906159c4565b6001600160a01b0384166000908152601c60209081526040808320601e8352818420548452909152902054610b12919061598b565b610b1c91906159a2565b6001600160a01b038316600090815260156020526040902054610b3f9190615978565b6001600160a01b0383166000908152601560205260409020555b506001600160a01b0381166000818152601c60209081526040808320601e83528184208054855290835281842084905593835292829055805220805460ff19169055610fc0565b6001600160a01b0381166000908152601e602052604090205415801590610bea57506001600160a01b0381166000908152601e6020526040812054600454610be891906159c4565b115b15610fc0576001600160a01b0381166000818152601c60209081526040808320601e8352818420548452825280832054938352601490915281208054839290610c34908490615978565b90915550506001600160a01b0382166000908152601d602052604081208054839290610c61908490615978565b90915550506001600160a01b0382166000908152601e6020526040902054600554610c8d906001615978565b1115610d6b576001600160a01b0382166000908152601e60209081526040808320548352601b91829052822054600554670de0b6b3a76400009391929190610cd6906001615978565b815260200190815260200160002054610cef91906159c4565b6001600160a01b0384166000908152601c60209081526040808320601e8352818420548452909152902054610d24919061598b565b610d2e91906159a2565b6001600160a01b038316600090815260156020526040902054610d519190615978565b6001600160a01b0383166000908152601560205260409020555b6001600160a01b0382166000818152601c60209081526040808320601e83528184208054855290835281842084905593835292829055601f9052205415610fbe576001600160a01b0382166000908152601f6020526040812054600454610dd291906159c4565b1115610f91576001600160a01b0382166000818152601c60209081526040808320601f8352818420548452825280832054938352601490915281208054839290610e1d908490615978565b90915550506001600160a01b0383166000908152601d602052604081208054839290610e4a908490615978565b90915550506001600160a01b0383166000908152601f6020526040902054600554610e76906001615978565b1115610f54576001600160a01b0383166000908152601f60209081526040808320548352601b91829052822054600554670de0b6b3a76400009391929190610ebf906001615978565b815260200190815260200160002054610ed891906159c4565b6001600160a01b0385166000908152601c60209081526040808320601f8352818420548452909152902054610f0d919061598b565b610f1791906159a2565b6001600160a01b038416600090815260156020526040902054610f3a9190615978565b6001600160a01b0384166000908152601560205260409020555b506001600160a01b0382166000818152601c60209081526040808320601f8084528285208054865291845291842084905593835290529055610fbe565b6001600160a01b0382166000908152601f602081815260408084208054601e845291852091909155919052555b505b82600003610fe95760405162461bcd60e51b8152600401610fe0906159d7565b60405180910390fd5b601d6000610ff561511e565b6001600160a01b03166001600160a01b03168152602001908152602001600020548311156110815760405162461bcd60e51b815260206004820152603360248201527f44656230783a2063616e206e6f7420756e7374616b65206d6f7265207468616e60448201527220776974686472617761626c65207374616b6560681b6064820152608401610fe0565b600754600554036110a957826009600082825461109e9190615978565b909155506110d09050565b600454600090815260186020526040812080548592906110ca9084906159c4565b90915550505b82601d60006110dd61511e565b6001600160a01b03166001600160a01b03168152602001908152602001600020600082825461110c91906159c4565b909155508390506014600061111f61511e565b6001600160a01b03166001600160a01b03168152602001908152602001600020600082825461114e91906159c4565b90915550506000546001600160a01b031663a9059cbb61116c61511e565b856040518363ffffffff1660e01b815260040161118a929190615a0a565b6020604051808303816000875af11580156111a9573d6000803e3d6000fd5b505050506040513d601f19601f820116820180604052508101906111cd9190615a23565b506111d661511e565b6001600160a01b03166004547f37375b03d8924bd8f076f11f8411b9962aa5c02fb489021507bc6bb6f850e3658560405161121391815260200190565b60405180910390a3505050565b600061122a61407d565b905060045481111561123c5760048190555b6007546004541461125f57600554611255906001615978565b6006556007546005555b6005546004541180156112935750601b600060055460016112809190615978565b8152602001908152602001600020546000145b1561131857600554600090815260186020908152604080832054601a9092528220546112c890670de0b6b3a76400009061598b565b6112d291906159a2565b6006546000908152601b60205260409020549091506112f2908290615978565b601b600060055460016113059190615978565b8152602081019190915260400160002055505b61132061511e565b6001600160a01b03811660009081526010602052604090205460045411801561136057506001600160a01b0381166000908152600e602052604090205415155b156114c7576001600160a01b0381166000818152601060209081526040808320548352600f8252808320546017835281842054948452600e909252822054919290916113ac919061598b565b6113b691906159a2565b6001600160a01b0383166000908152601460205260408120805492935083929091906113e3908490615978565b90915550506001600160a01b0382166000908152600c6020526040902054156114ac576001600160a01b0382166000908152600e602052604081205461142990836159a2565b6001600160a01b0384166000908152600c60205260408120549192509061271090611454908461598b565b61145e91906159a2565b6001600160a01b03851660009081526014602052604081208054929350839290919061148b9084906159c4565b9091555050506001600160a01b0383166000908152600c6020526040812055505b506001600160a01b0381166000908152600e60205260408120555b6005546004541180156114ff57506005546114e3906001615978565b6001600160a01b03821660009081526019602052604090205414155b156115f1576001600160a01b0381166000908152601960209081526040808320548352601b91829052822054600554670de0b6b3a76400009391929190611547906001615978565b81526020019081526020016000205461156091906159c4565b6001600160a01b038316600090815260146020526040902054611583919061598b565b61158d91906159a2565b6001600160a01b0382166000908152601560205260409020546115b09190615978565b6001600160a01b0382166000908152601560205260409020556005546115d7906001615978565b6001600160a01b0382166000908152601960205260409020555b6001600160a01b0381166000908152601e60205260409020541580159061163c57506001600160a01b0381166000908152601e602052604081205460045461163991906159c4565b10155b801561165f57506001600160a01b038116600090815260208052604090205460ff165b15611827576001600160a01b0381166000818152601c60209081526040808320601e83528184205484528252808320549383526014909152812080548392906116a9908490615978565b90915550506001600160a01b0382166000908152601d6020526040812080548392906116d6908490615978565b90915550506001600160a01b0382166000908152601e6020526040902054600554611702906001615978565b11156117e0576001600160a01b0382166000908152601e60209081526040808320548352601b91829052822054600554670de0b6b3a7640000939192919061174b906001615978565b81526020019081526020016000205461176491906159c4565b6001600160a01b0384166000908152601c60209081526040808320601e8352818420548452909152902054611799919061598b565b6117a391906159a2565b6001600160a01b0383166000908152601560205260409020546117c69190615978565b6001600160a01b0383166000908152601560205260409020555b506001600160a01b0381166000818152601c60209081526040808320601e83528184208054855290835281842084905593835292829055805220805460ff19169055611c47565b6001600160a01b0381166000908152601e60205260409020541580159061187157506001600160a01b0381166000908152601e602052604081205460045461186f91906159c4565b115b15611c47576001600160a01b0381166000818152601c60209081526040808320601e83528184205484528252808320549383526014909152812080548392906118bb908490615978565b90915550506001600160a01b0382166000908152601d6020526040812080548392906118e8908490615978565b90915550506001600160a01b0382166000908152601e6020526040902054600554611914906001615978565b11156119f2576001600160a01b0382166000908152601e60209081526040808320548352601b91829052822054600554670de0b6b3a7640000939192919061195d906001615978565b81526020019081526020016000205461197691906159c4565b6001600160a01b0384166000908152601c60209081526040808320601e83528184205484529091529020546119ab919061598b565b6119b591906159a2565b6001600160a01b0383166000908152601560205260409020546119d89190615978565b6001600160a01b0383166000908152601560205260409020555b6001600160a01b0382166000818152601c60209081526040808320601e83528184208054855290835281842084905593835292829055601f9052205415611c45576001600160a01b0382166000908152601f6020526040812054600454611a5991906159c4565b1115611c18576001600160a01b0382166000818152601c60209081526040808320601f8352818420548452825280832054938352601490915281208054839290611aa4908490615978565b90915550506001600160a01b0383166000908152601d602052604081208054839290611ad1908490615978565b90915550506001600160a01b0383166000908152601f6020526040902054600554611afd906001615978565b1115611bdb576001600160a01b0383166000908152601f60209081526040808320548352601b91829052822054600554670de0b6b3a76400009391929190611b46906001615978565b815260200190815260200160002054611b5f91906159c4565b6001600160a01b0385166000908152601c60209081526040808320601f8352818420548452909152902054611b94919061598b565b611b9e91906159a2565b6001600160a01b038416600090815260156020526040902054611bc19190615978565b6001600160a01b0384166000908152601560205260409020555b506001600160a01b0382166000818152601c60209081526040808320601f8084528285208054865291845291842084905593835290529055611c45565b6001600160a01b0382166000908152601f602081815260408084208054601e845291852091909155919052555b505b6000601d6000611c5561511e565b6001600160a01b03166001600160a01b031681526020019081526020016000205460146000611c8261511e565b6001600160a01b03166001600160a01b0316815260200190815260200160002054611cad91906159c4565b905060008111611ccf5760405162461bcd60e51b8152600401610fe090615a45565b8060146000611cdc61511e565b6001600160a01b03166001600160a01b031681526020019081526020016000206000828254611d0b91906159c4565b909155505060075460055403611d38578060096000828254611d2d9190615978565b90915550611d689050565b600454600090815260186020526040902054611d559082906159c4565b6004546000908152601860205260409020555b6000546001600160a01b0316639a49090e611d8161511e565b836040518363ffffffff1660e01b8152600401611d9f929190615a0a565b600060405180830381600087803b158015611db957600080fd5b505af1158015611dcd573d6000803e3d6000fd5b50505050611dd961511e565b6001600160a01b03166004547f3300bdb359cfb956935bca32e9db727413eab1ca84341f2e36caea85bb7969688360405161121391815260200190565b7f00000000000000000000000000000000000000000000000000000000000000006001600160a01b0390811691161490565b6000611e5261407d565b9050600454811115611e645760048190555b60075460045414611e8757600554611e7d906001615978565b6006556007546005555b600554600454118015611ebb5750601b60006005546001611ea89190615978565b8152602001908152602001600020546000145b15611f4057600554600090815260186020908152604080832054601a909252822054611ef090670de0b6b3a76400009061598b565b611efa91906159a2565b6006546000908152601b6020526040902054909150611f1a908290615978565b601b60006005546001611f2d9190615978565b8152602081019190915260400160002055505b611f50611f4b61511e565b615140565b600060136000611f5e61511e565b6001600160a01b03166001600160a01b0316815260200190815260200160002054905060008111611fa15760405162461bcd60e51b8152600401610fe090615a7c565b600060136000611faf61511e565b6001600160a01b03168152602081019190915260400160002055611fda611fd461511e565b82615383565b611fe261511e565b6001600160a01b0316611ff361407d565b6040518381527f71080b6b70140bab68812ff30dd24dd3f4fafdb253085461fcc624ab5f1bbe9b906020015b60405180910390a35050565b6001600160a01b0381166000908152601460205260408120548161204d61407d565b6001600160a01b0385166000908152601060205260409020549091508111801561208e57506001600160a01b0384166000908152600e602052604090205415155b1561217c576001600160a01b0384166000818152601060209081526040808320548352600f8252808320546017835281842054948452600e909252822054919290916120da919061598b565b6120e491906159a2565b90506120f08184615978565b6001600160a01b0386166000908152600c60205260409020549093501561217a576001600160a01b0385166000908152600e602052604081205461213490836159a2565b6001600160a01b0387166000908152600c6020526040812054919250906127109061215f908461598b565b61216991906159a2565b905061217581866159c4565b945050505b505b5092915050565b600061218d61407d565b905060045481111561219f5760048190555b600754600454146121c2576005546121b8906001615978565b6006556007546005555b6005546004541180156121f65750601b600060055460016121e39190615978565b8152602001908152602001600020546000145b1561227b57600554600090815260186020908152604080832054601a90925282205461222b90670de0b6b3a76400009061598b565b61223591906159a2565b6006546000908152601b6020526040902054909150612255908290615978565b601b600060055460016122689190615978565b8152602081019190915260400160002055505b612286611f4b61511e565b60006016600061229461511e565b6001600160a01b03166001600160a01b03168152602001908152602001600020549050600081116122d75760405162461bcd60e51b8152600401610fe090615a45565b6000601660006122e561511e565b6001600160a01b031681526020810191909152604001600020556007546005540361232757806009600082825461231c9190615978565b909155506123579050565b6004546000908152601860205260409020546123449082906159c4565b6004546000908152601860205260409020555b6000546001600160a01b0316639a49090e61237061511e565b836040518363ffffffff1660e01b815260040161238e929190615a0a565b600060405180830381600087803b1580156123a857600080fd5b505af11580156123bc573d6000803e3d6000fd5b505050506123c861511e565b6001600160a01b03166004547f73d4ecbe623e0c89f3cfb75a853104d35d1105e8ec5f0ec6e4bb924da1ffb2928360405161201f91815260200190565b8060005a9050600061241561407d565b90506004548111156124275760048190555b6007546004541461244a57600554612440906001615978565b6006556007546005555b60055460045411801561247e5750601b6000600554600161246b9190615978565b8152602001908152602001600020546000145b1561250357600554600090815260186020908152604080832054601a9092528220546124b390670de0b6b3a76400009061598b565b6124bd91906159a2565b6006546000908152601b60205260409020549091506124dd908290615978565b601b600060055460016124f09190615978565b8152602081019190915260400160002055505b600454600090815260176020526040812054900361264e57600154600255600061252b615109565b600181905560048054600090815260176020908152604080832085905560088590559254600755600554825260189052205490915061256b908290615978565b6007546000908152601860205260408120805490919061258c908490615978565b9091555050600354156125c857600354600754600090815260186020526040812080549091906125bd908490615978565b909155505060006003555b600954156125ff57600954600754600090815260186020526040812080549091906125f49084906159c4565b909155505060006009555b600454600754600090815260186020908152604091829020548251858152918201527f0666a61c1092f5b86c2cfe6ea1ad0d9a36032c4fb92d285b4e43f662d48f19b4910160405180910390a2505b61265661511e565b6001600160a01b03811660009081526010602052604090205460045411801561269657506001600160a01b0381166000908152600e602052604090205415155b156127fd576001600160a01b0381166000818152601060209081526040808320548352600f8252808320546017835281842054948452600e909252822054919290916126e2919061598b565b6126ec91906159a2565b6001600160a01b038316600090815260146020526040812080549293508392909190612719908490615978565b90915550506001600160a01b0382166000908152600c6020526040902054156127e2576001600160a01b0382166000908152600e602052604081205461275f90836159a2565b6001600160a01b0384166000908152600c6020526040812054919250906127109061278a908461598b565b61279491906159a2565b6001600160a01b0385166000908152601460205260408120805492935083929091906127c19084906159c4565b9091555050506001600160a01b0383166000908152600c6020526040812055505b506001600160a01b0381166000908152600e60205260408120555b6005546004541180156128355750600554612819906001615978565b6001600160a01b03821660009081526019602052604090205414155b15612927576001600160a01b0381166000908152601960209081526040808320548352601b91829052822054600554670de0b6b3a7640000939192919061287d906001615978565b81526020019081526020016000205461289691906159c4565b6001600160a01b0383166000908152601460205260409020546128b9919061598b565b6128c391906159a2565b6001600160a01b0382166000908152601560205260409020546128e69190615978565b6001600160a01b03821660009081526015602052604090205560055461290d906001615978565b6001600160a01b0382166000908152601960205260409020555b6001600160a01b0381166000908152601e60205260409020541580159061297257506001600160a01b0381166000908152601e602052604081205460045461296f91906159c4565b10155b801561299557506001600160a01b038116600090815260208052604090205460ff165b15612b5d576001600160a01b0381166000818152601c60209081526040808320601e83528184205484528252808320549383526014909152812080548392906129df908490615978565b90915550506001600160a01b0382166000908152601d602052604081208054839290612a0c908490615978565b90915550506001600160a01b0382166000908152601e6020526040902054600554612a38906001615978565b1115612b16576001600160a01b0382166000908152601e60209081526040808320548352601b91829052822054600554670de0b6b3a76400009391929190612a81906001615978565b815260200190815260200160002054612a9a91906159c4565b6001600160a01b0384166000908152601c60209081526040808320601e8352818420548452909152902054612acf919061598b565b612ad991906159a2565b6001600160a01b038316600090815260156020526040902054612afc9190615978565b6001600160a01b0383166000908152601560205260409020555b506001600160a01b0381166000818152601c60209081526040808320601e83528184208054855290835281842084905593835292829055805220805460ff19169055612f7d565b6001600160a01b0381166000908152601e602052604090205415801590612ba757506001600160a01b0381166000908152601e6020526040812054600454612ba591906159c4565b115b15612f7d576001600160a01b0381166000818152601c60209081526040808320601e8352818420548452825280832054938352601490915281208054839290612bf1908490615978565b90915550506001600160a01b0382166000908152601d602052604081208054839290612c1e908490615978565b90915550506001600160a01b0382166000908152601e6020526040902054600554612c4a906001615978565b1115612d28576001600160a01b0382166000908152601e60209081526040808320548352601b91829052822054600554670de0b6b3a76400009391929190612c93906001615978565b815260200190815260200160002054612cac91906159c4565b6001600160a01b0384166000908152601c60209081526040808320601e8352818420548452909152902054612ce1919061598b565b612ceb91906159a2565b6001600160a01b038316600090815260156020526040902054612d0e9190615978565b6001600160a01b0383166000908152601560205260409020555b6001600160a01b0382166000818152601c60209081526040808320601e83528184208054855290835281842084905593835292829055601f9052205415612f7b576001600160a01b0382166000908152601f6020526040812054600454612d8f91906159c4565b1115612f4e576001600160a01b0382166000818152601c60209081526040808320601f8352818420548452825280832054938352601490915281208054839290612dda908490615978565b90915550506001600160a01b0383166000908152601d602052604081208054839290612e07908490615978565b90915550506001600160a01b0383166000908152601f6020526040902054600554612e33906001615978565b1115612f11576001600160a01b0383166000908152601f60209081526040808320548352601b91829052822054600554670de0b6b3a76400009391929190612e7c906001615978565b815260200190815260200160002054612e9591906159c4565b6001600160a01b0385166000908152601c60209081526040808320601f8352818420548452909152902054612eca919061598b565b612ed491906159a2565b6001600160a01b038416600090815260156020526040902054612ef79190615978565b6001600160a01b0384166000908152601560205260409020555b506001600160a01b0382166000818152601c60209081526040808320601f8084528285208054865291845291842084905593835290529055612f7b565b6001600160a01b0382166000908152601f602081815260408084208054601e845291852091909155919052555b505b612f8687615140565b600e6000612f9261511e565b6001600160a01b0316815260208101919091526040016000908120805491612fb983615abe565b90915550506004546000908152600f60205260408120805491612fdb83615abe565b919050555060045460106000612fef61511e565b6001600160a01b0390811682526020820192909252604001600020919091558716156130be57851561308a5785600c600061302861511e565b6001600160a01b03166001600160a01b0316815260200190815260200160002060008282546130579190615978565b90915550506001600160a01b0387166000908152600d602052604081208054889290613084908490615978565b90915550505b84156130be576001600160a01b038716600090815260136020526040812080548792906130b8908490615978565b90915550505b60006130ca8a8a61542a565b9050876001600160a01b0316816004547f6288811d8cdbed319ad675bb04053011e25d30480e6eb483c02d54ef3bc863f18a8a604051613114929190918252602082015260400190565b60405180910390a450505060006127106103e861ffff163a5a61313790866159c4565b61314390617984615978565b61314d919061598b565b613157919061598b565b61316191906159a2565b90508061316e84346159c4565b10156131d15760405162461bcd60e51b815260206004820152602c60248201527f44656230783a2076616c7565206d757374206265203e3d20313025206f66207460448201526b6865207370656e742067617360a01b6064820152608401610fe0565b6131ef33846131e084346159c4565b6131ea91906159c4565b615383565b6004546000908152601a602052604081208054839290613210908490615978565b90915550505050505050505050565b600061322961407d565b905060045481111561323b5760048190555b6007546004541461325e57600554613254906001615978565b6006556007546005555b6005546004541180156132925750601b6000600554600161327f9190615978565b8152602001908152602001600020546000145b1561331757600554600090815260186020908152604080832054601a9092528220546132c790670de0b6b3a76400009061598b565b6132d191906159a2565b6006546000908152601b60205260409020549091506132f1908290615978565b601b600060055460016133049190615978565b8152602081019190915260400160002055505b61331f61511e565b6001600160a01b03811660009081526010602052604090205460045411801561335f57506001600160a01b0381166000908152600e602052604090205415155b156134c6576001600160a01b0381166000818152601060209081526040808320548352600f8252808320546017835281842054948452600e909252822054919290916133ab919061598b565b6133b591906159a2565b6001600160a01b0383166000908152601460205260408120805492935083929091906133e2908490615978565b90915550506001600160a01b0382166000908152600c6020526040902054156134ab576001600160a01b0382166000908152600e602052604081205461342890836159a2565b6001600160a01b0384166000908152600c60205260408120549192509061271090613453908461598b565b61345d91906159a2565b6001600160a01b03851660009081526014602052604081208054929350839290919061348a9084906159c4565b9091555050506001600160a01b0383166000908152600c6020526040812055505b506001600160a01b0381166000908152600e60205260408120555b6005546004541180156134fe57506005546134e2906001615978565b6001600160a01b03821660009081526019602052604090205414155b156135f0576001600160a01b0381166000908152601960209081526040808320548352601b91829052822054600554670de0b6b3a76400009391929190613546906001615978565b81526020019081526020016000205461355f91906159c4565b6001600160a01b038316600090815260146020526040902054613582919061598b565b61358c91906159a2565b6001600160a01b0382166000908152601560205260409020546135af9190615978565b6001600160a01b0382166000908152601560205260409020556005546135d6906001615978565b6001600160a01b0382166000908152601960205260409020555b6001600160a01b0381166000908152601e60205260409020541580159061363b57506001600160a01b0381166000908152601e602052604081205460045461363891906159c4565b10155b801561365e57506001600160a01b038116600090815260208052604090205460ff165b15613826576001600160a01b0381166000818152601c60209081526040808320601e83528184205484528252808320549383526014909152812080548392906136a8908490615978565b90915550506001600160a01b0382166000908152601d6020526040812080548392906136d5908490615978565b90915550506001600160a01b0382166000908152601e6020526040902054600554613701906001615978565b11156137df576001600160a01b0382166000908152601e60209081526040808320548352601b91829052822054600554670de0b6b3a7640000939192919061374a906001615978565b81526020019081526020016000205461376391906159c4565b6001600160a01b0384166000908152601c60209081526040808320601e8352818420548452909152902054613798919061598b565b6137a291906159a2565b6001600160a01b0383166000908152601560205260409020546137c59190615978565b6001600160a01b0383166000908152601560205260409020555b506001600160a01b0381166000818152601c60209081526040808320601e83528184208054855290835281842084905593835292829055805220805460ff19169055613c46565b6001600160a01b0381166000908152601e60205260409020541580159061387057506001600160a01b0381166000908152601e602052604081205460045461386e91906159c4565b115b15613c46576001600160a01b0381166000818152601c60209081526040808320601e83528184205484528252808320549383526014909152812080548392906138ba908490615978565b90915550506001600160a01b0382166000908152601d6020526040812080548392906138e7908490615978565b90915550506001600160a01b0382166000908152601e6020526040902054600554613913906001615978565b11156139f1576001600160a01b0382166000908152601e60209081526040808320548352601b91829052822054600554670de0b6b3a7640000939192919061395c906001615978565b81526020019081526020016000205461397591906159c4565b6001600160a01b0384166000908152601c60209081526040808320601e83528184205484529091529020546139aa919061598b565b6139b491906159a2565b6001600160a01b0383166000908152601560205260409020546139d79190615978565b6001600160a01b0383166000908152601560205260409020555b6001600160a01b0382166000818152601c60209081526040808320601e83528184208054855290835281842084905593835292829055601f9052205415613c44576001600160a01b0382166000908152601f6020526040812054600454613a5891906159c4565b1115613c17576001600160a01b0382166000818152601c60209081526040808320601f8352818420548452825280832054938352601490915281208054839290613aa3908490615978565b90915550506001600160a01b0383166000908152601d602052604081208054839290613ad0908490615978565b90915550506001600160a01b0383166000908152601f6020526040902054600554613afc906001615978565b1115613bda576001600160a01b0383166000908152601f60209081526040808320548352601b91829052822054600554670de0b6b3a76400009391929190613b45906001615978565b815260200190815260200160002054613b5e91906159c4565b6001600160a01b0385166000908152601c60209081526040808320601f8352818420548452909152902054613b93919061598b565b613b9d91906159a2565b6001600160a01b038416600090815260156020526040902054613bc09190615978565b6001600160a01b0384166000908152601560205260409020555b506001600160a01b0382166000818152601c60209081526040808320601f8084528285208054865291845291842084905593835290529055613c44565b6001600160a01b0382166000908152601f602081815260408084208054601e845291852091909155919052555b505b82600003613c665760405162461bcd60e51b8152600401610fe0906159d7565b8260036000828254613c789190615978565b9091555050600454600090613c8e906001615978565b905060075460055403613cd65750600454600160206000613cad61511e565b6001600160a01b031681526020810191909152604001600020805460ff19169115159190911790555b601e6000613ce261511e565b6001600160a01b03166001600160a01b03168152602001908152602001600020548114158015613d3e5750601f6000613d1961511e565b6001600160a01b03166001600160a01b03168152602001908152602001600020548114155b15613dff57601e6000613d4f61511e565b6001600160a01b03166001600160a01b0316815260200190815260200160002054600003613da35780601e6000613d8461511e565b6001600160a01b03168152602081019190915260400160002055613dff565b601f6000613daf61511e565b6001600160a01b03166001600160a01b0316815260200190815260200160002054600003613dff5780601f6000613de461511e565b6001600160a01b031681526020810191909152604001600020555b83601c6000613e0c61511e565b6001600160a01b03166001600160a01b0316815260200190815260200160002060008381526020019081526020016000206000828254613e4c9190615978565b90915550506000546001600160a01b03166323b872dd613e6a61511e565b6040516001600160e01b031960e084901b1681526001600160a01b039091166004820152306024820152604481018790526064016020604051808303816000875af1158015613ebd573d6000803e3d6000fd5b505050506040513d601f19601f82011682018060405250810190613ee19190615a23565b50613eea61511e565b6001600160a01b0316817f18dcd430020e4d4899772fd94a8b40451dc5044dfb70bc46b532eeae431c864f86604051613f2591815260200190565b60405180910390a350505050565b6001600160a01b0381166000908152600b60205260409020805460609190613f5a90615ad7565b80601f0160208091040260200160405190810160405280929190818152602001828054613f8690615ad7565b8015613fd35780601f10613fa857610100808354040283529160200191613fd3565b820191906000526020600020905b815481529060010190602001808311613fb657829003601f168201915b50505050509050919050565b80600b6000613fec61511e565b6001600160a01b031681526020810191909152604001600020906140109082615b5f565b506000816040516020016140249190615c1e565b6040516020818303038152906040528051906020012090508061404561511e565b6001600160a01b03167f1db169902a3b228ab764219bfc023384698a05b8a3d1bd2e046867a1dedf78a98460405161201f919061591b565b60007f00000000000000000000000000000000000000000000000000000000000000006140ca7f0000000000000000000000000000000000000000000000000000000000000000426159c4565b6140d491906159a2565b905090565b6000806140e461407d565b6001600160a01b0384166000908152601560205260408120546006546005546007549495509193909190851461412a57600554614122906001615978565b915060075490505b80851180156141565750601b6000614143836001615978565b8152602001908152602001600020546000145b156141ba57600081815260186020908152604080832054601a90925282205461418890670de0b6b3a76400009061598b565b61419291906159a2565b6006546000908152601b60205260409020549091506141b2908290615978565b9350506141cf565b6006546000908152601b602052604090205492505b60006141da8861202b565b9050818611801561420d57506141f1826001615978565b6001600160a01b03891660009081526019602052604090205414155b1561426d576001600160a01b0388166000908152601960209081526040808320548352601b909152902054670de0b6b3a76400009061424c90866159c4565b614256908361598b565b61426091906159a2565b61426a9086615978565b94505b6001600160a01b0388166000908152601e6020526040902054158015906142b757506001600160a01b0388166000908152601e60205260409020546001906142b590886159c4565b115b15614417576001600160a01b0388166000908152601e60209081526040808320548352601b909152902054670de0b6b3a7640000906142f690866159c4565b6001600160a01b038a166000908152601c60209081526040808320601e835281842054845290915290205461432b919061598b565b61433591906159a2565b61433f9086615978565b6001600160a01b0389166000908152601f60205260409020549095501580159061438c57506001600160a01b0388166000908152601f602052604090205460019061438a90886159c4565b115b15614417576001600160a01b0388166000908152601f60209081526040808320548352601b909152902054670de0b6b3a7640000906143cb90866159c4565b6001600160a01b038a166000908152601c60209081526040808320601f8352818420548452909152902054614400919061598b565b61440a91906159a2565b6144149086615978565b94505b50929695505050505050565b60008061442e61407d565b6001600160a01b0384166000908152601e6020526040812054919250901580159061447d57506001600160a01b0384166000908152601e602052604081205460045461447a91906159c4565b10155b80156144a057506001600160a01b038416600090815260208052604090205460ff165b156144e1576001600160a01b0384166000908152601c60209081526040808320601e83528184205484529091529020546144da9082615978565b90506145e9565b6001600160a01b0384166000908152601e60205260409020541580159061452857506001600160a01b0384166000908152601e602052604081205461452690846159c4565b115b156145e9576001600160a01b0384166000908152601c60209081526040808320601e83528184205484529091529020546145629082615978565b6001600160a01b0385166000908152601f6020526040902054909150158015906145ac57506001600160a01b0384166000908152601f60205260408120546145aa90846159c4565b115b156145e9576001600160a01b0384166000908152601c60209081526040808320601f83528184205484529091529020546145e69082615978565b90505b6001600160a01b0384166000908152601d602052604090205461460d908290615978565b949350505050565b600061461f61407d565b90506004548111156146315760048190555b600754600454146146545760055461464a906001615978565b6006556007546005555b6005546004541180156146885750601b600060055460016146759190615978565b8152602001908152602001600020546000145b1561470d57600554600090815260186020908152604080832054601a9092528220546146bd90670de0b6b3a76400009061598b565b6146c791906159a2565b6006546000908152601b60205260409020549091506146e7908290615978565b601b600060055460016146fa9190615978565b8152602081019190915260400160002055505b61471561511e565b6001600160a01b03811660009081526010602052604090205460045411801561475557506001600160a01b0381166000908152600e602052604090205415155b156148bc576001600160a01b0381166000818152601060209081526040808320548352600f8252808320546017835281842054948452600e909252822054919290916147a1919061598b565b6147ab91906159a2565b6001600160a01b0383166000908152601460205260408120805492935083929091906147d8908490615978565b90915550506001600160a01b0382166000908152600c6020526040902054156148a1576001600160a01b0382166000908152600e602052604081205461481e90836159a2565b6001600160a01b0384166000908152600c60205260408120549192509061271090614849908461598b565b61485391906159a2565b6001600160a01b0385166000908152601460205260408120805492935083929091906148809084906159c4565b9091555050506001600160a01b0383166000908152600c6020526040812055505b506001600160a01b0381166000908152600e60205260408120555b6005546004541180156148f457506005546148d8906001615978565b6001600160a01b03821660009081526019602052604090205414155b156149e6576001600160a01b0381166000908152601960209081526040808320548352601b91829052822054600554670de0b6b3a7640000939192919061493c906001615978565b81526020019081526020016000205461495591906159c4565b6001600160a01b038316600090815260146020526040902054614978919061598b565b61498291906159a2565b6001600160a01b0382166000908152601560205260409020546149a59190615978565b6001600160a01b0382166000908152601560205260409020556005546149cc906001615978565b6001600160a01b0382166000908152601960205260409020555b6001600160a01b0381166000908152601e602052604090205415801590614a3157506001600160a01b0381166000908152601e6020526040812054600454614a2e91906159c4565b10155b8015614a5457506001600160a01b038116600090815260208052604090205460ff165b15614c1c576001600160a01b0381166000818152601c60209081526040808320601e8352818420548452825280832054938352601490915281208054839290614a9e908490615978565b90915550506001600160a01b0382166000908152601d602052604081208054839290614acb908490615978565b90915550506001600160a01b0382166000908152601e6020526040902054600554614af7906001615978565b1115614bd5576001600160a01b0382166000908152601e60209081526040808320548352601b91829052822054600554670de0b6b3a76400009391929190614b40906001615978565b815260200190815260200160002054614b5991906159c4565b6001600160a01b0384166000908152601c60209081526040808320601e8352818420548452909152902054614b8e919061598b565b614b9891906159a2565b6001600160a01b038316600090815260156020526040902054614bbb9190615978565b6001600160a01b0383166000908152601560205260409020555b506001600160a01b0381166000818152601c60209081526040808320601e83528184208054855290835281842084905593835292829055805220805460ff1916905561503c565b6001600160a01b0381166000908152601e602052604090205415801590614c6657506001600160a01b0381166000908152601e6020526040812054600454614c6491906159c4565b115b1561503c576001600160a01b0381166000818152601c60209081526040808320601e8352818420548452825280832054938352601490915281208054839290614cb0908490615978565b90915550506001600160a01b0382166000908152601d602052604081208054839290614cdd908490615978565b90915550506001600160a01b0382166000908152601e6020526040902054600554614d09906001615978565b1115614de7576001600160a01b0382166000908152601e60209081526040808320548352601b91829052822054600554670de0b6b3a76400009391929190614d52906001615978565b815260200190815260200160002054614d6b91906159c4565b6001600160a01b0384166000908152601c60209081526040808320601e8352818420548452909152902054614da0919061598b565b614daa91906159a2565b6001600160a01b038316600090815260156020526040902054614dcd9190615978565b6001600160a01b0383166000908152601560205260409020555b6001600160a01b0382166000818152601c60209081526040808320601e83528184208054855290835281842084905593835292829055601f905220541561503a576001600160a01b0382166000908152601f6020526040812054600454614e4e91906159c4565b111561500d576001600160a01b0382166000818152601c60209081526040808320601f8352818420548452825280832054938352601490915281208054839290614e99908490615978565b90915550506001600160a01b0383166000908152601d602052604081208054839290614ec6908490615978565b90915550506001600160a01b0383166000908152601f6020526040902054600554614ef2906001615978565b1115614fd0576001600160a01b0383166000908152601f60209081526040808320548352601b91829052822054600554670de0b6b3a76400009391929190614f3b906001615978565b815260200190815260200160002054614f5491906159c4565b6001600160a01b0385166000908152601c60209081526040808320601f8352818420548452909152902054614f89919061598b565b614f9391906159a2565b6001600160a01b038416600090815260156020526040902054614fb69190615978565b6001600160a01b0384166000908152601560205260409020555b506001600160a01b0382166000818152601c60209081526040808320601f808452828520805486529184529184208490559383529052905561503a565b6001600160a01b0382166000908152601f602081815260408084208054601e845291852091909155919052555b505b60006015600061504a61511e565b6001600160a01b03166001600160a01b031681526020019081526020016000205490506000811161508d5760405162461bcd60e51b8152600401610fe090615a7c565b60006015600061509b61511e565b6001600160a01b031681526020810191909152604001600020556150c0611fd461511e565b6150c861511e565b6001600160a01b03166150d961407d565b6040518381527f2227733fc4c8a9034cb58087dcf6995128b9c0233b038b03366aaf30c92b92d690602001611213565b60006127246002546127106140ca919061598b565b600061512933611e16565b1561513b575060131936013560601c90565b503390565b6001600160a01b0381166000908152601160205260409020546004541115615265576001600160a01b038116600090815260116020908152604080832054600d90925290912054158015906151a257506000818152600f602052604090205415155b15615247576000818152600f602090815260408083205460179092528220546151cb91906159a2565b6001600160a01b0384166000908152600d6020526040902054909150612710906151f5908361598b565b6151ff91906159a2565b6001600160a01b03841660009081526016602052604081208054909190615227908490615978565b9091555050506001600160a01b0382166000908152600d60205260408120555b506004546001600160a01b0382166000908152601160205260409020555b60055460045411801561529d5750600554615281906001615978565b6001600160a01b03821660009081526012602052604090205414155b15615380576001600160a01b0381166000908152601260209081526040808320548352601b91829052822054600554670de0b6b3a764000093919291906152e5906001615978565b8152602001908152602001600020546152fe91906159c4565b6001600160a01b038316600090815260166020526040902054615321919061598b565b61532b91906159a2565b6001600160a01b03821660009081526013602052604081208054909190615353908490615978565b9091555050600554615366906001615978565b6001600160a01b0382166000908152601260205260409020555b50565b6000826001600160a01b03168260405160006040518083038185875af1925050503d80600081146153d0576040519150601f19603f3d011682016040523d82523d6000602084013e6153d5565b606091505b50509050806154255760405162461bcd60e51b815260206004820152601c60248201527b1119588c1e0e8819985a5b1959081d1bc81cd95b9908185b5bdd5b9d60221b6044820152606401610fe0565b505050565b6000805b6001845161543c91906159c4565b81101561552c576000604051806040016040528085848151811061546257615462615c3a565b60200260200101518152602001428152509050600084838151811061548957615489615c3a565b60200260200101516040516020016154a19190615c1e565b604051602081830303815290604052805190602001209050806154c261511e565b6001600160a01b03168785815181106154dd576154dd615c3a565b60200260200101516001600160a01b0316600080516020615c8583398151915285600a5460405161550f929190615c50565b60405180910390a45050808061552490615abe565b91505061542e565b5060006040518060400160405280846001875161554991906159c4565b8151811061555957615559615c3a565b602002602001015181526020014281525090506000836001865161557d91906159c4565b8151811061558d5761558d615c3a565b60200260200101516040516020016155a59190615c1e565b604051602081830303815290604052805190602001209050806155c661511e565b6001600160a01b03166155d761511e565b6001600160a01b0316600080516020615c8583398151915285600a54604051615601929190615c50565b60405180910390a4600a8054908190600061561b83615abe565b909155509093505050505b92915050565b60006020828403121561563e57600080fd5b5035919050565b80356001600160a01b038116811461565c57600080fd5b919050565b60006020828403121561567357600080fd5b61567c82615645565b9392505050565b634e487b7160e01b600052604160045260246000fd5b604051601f8201601f191681016001600160401b03811182821017156156c1576156c1615683565b604052919050565b60006001600160401b038211156156e2576156e2615683565b5060051b60200190565b600082601f8301126156fd57600080fd5b81356001600160401b0381111561571657615716615683565b615729601f8201601f1916602001615699565b81815284602083860101111561573e57600080fd5b816020850160208301376000918101602001919091529392505050565b600082601f83011261576c57600080fd5b8135602061578161577c836156c9565b615699565b82815260059290921b840181019181810190868411156157a057600080fd5b8286015b848110156157df5780356001600160401b038111156157c35760008081fd5b6157d18986838b01016156ec565b8452509183019183016157a4565b509695505050505050565b600080600080600060a0868803121561580257600080fd5b85356001600160401b038082111561581957600080fd5b818801915088601f83011261582d57600080fd5b8135602061583d61577c836156c9565b82815260059290921b8401810191818101908c84111561585c57600080fd5b948201945b838610156158815761587286615645565b82529482019490820190615861565b9950508901359250508082111561589757600080fd5b506158a48882890161575b565b9450506158b360408701615645565b94979396509394606081013594506080013592915050565b60005b838110156158e65781810151838201526020016158ce565b50506000910152565b600081518084526159078160208601602086016158cb565b601f01601f19169290920160200192915050565b60208152600061567c60208301846158ef565b60006020828403121561594057600080fd5b81356001600160401b0381111561595657600080fd5b61460d848285016156ec565b634e487b7160e01b600052601160045260246000fd5b8082018082111561562657615626615962565b808202811582820484141761562657615626615962565b6000826159bf57634e487b7160e01b600052601260045260246000fd5b500490565b8181038181111561562657615626615962565b60208082526019908201527844656230783a20616d6f756e7420617267206973207a65726f60381b604082015260600190565b6001600160a01b03929092168252602082015260400190565b600060208284031215615a3557600080fd5b8151801515811461567c57600080fd5b6020808252601d908201527f44656230783a206163636f756e7420686173206e6f2072657761726473000000604082015260600190565b60208082526022908201527f44656230783a206163636f756e7420686173206e6f2061636372756564206665604082015261657360f01b606082015260800190565b600060018201615ad057615ad0615962565b5060010190565b600181811c90821680615aeb57607f821691505b602082108103615b0b57634e487b7160e01b600052602260045260246000fd5b50919050565b601f82111561542557600081815260208120601f850160051c81016020861015615b385750805b601f850160051c820191505b81811015615b5757828155600101615b44565b505050505050565b81516001600160401b03811115615b7857615b78615683565b615b8c81615b868454615ad7565b84615b11565b602080601f831160018114615bc15760008415615ba95750858301515b600019600386901b1c1916600185901b178555615b57565b600085815260208120601f198616915b82811015615bf057888601518255948401946001909101908401615bd1565b5085821015615c0e5787850151600019600388901b60f8161c191681555b5050505050600190811b01905550565b60008251615c308184602087016158cb565b9190910192915050565b634e487b7160e01b600052603260045260246000fd5b6040815260008351604080840152615c6b60808401826158ef565b602095860151606085015292909401929092529291505056fed255a04e9537ee418651bfdd3be3efed3b9f677f36ba9e488e0d27340c97961fa26469706673582212201992480f74397bd726f5a19aebe0e47c452b93cba32454e69445b584f0b5177264736f6c63430008110033608060405234801561001057600080fd5b506040518060400160405280601d81526020017f44656230782052657761726420546f6b656e206f6e20506f6c79676f6e000000815250604051806040016040528060048152602001630e08884b60e31b81525081600390816100739190610139565b5060046100808282610139565b5050600580546001600160a01b03191633179055506101f8565b634e487b7160e01b600052604160045260246000fd5b600181811c908216806100c457607f821691505b6020821081036100e457634e487b7160e01b600052602260045260246000fd5b50919050565b601f82111561013457600081815260208120601f850160051c810160208610156101115750805b601f850160051c820191505b818110156101305782815560010161011d565b5050505b505050565b81516001600160401b038111156101525761015261009a565b6101668161016084546100b0565b846100ea565b602080601f83116001811461019b57600084156101835750858301515b600019600386901b1c1916600185901b178555610130565b600085815260208120601f198616915b828110156101ca578886015182559484019460019091019084016101ab565b50858210156101e85787850151600019600388901b60f8161c191681555b5050505050600190811b01905550565b610a1080620002086000396000f3fe608060405234801561001057600080fd5b50600436106100af5760003560e01c806306fdde03146100b4578063095ea7b3146100d257806318160ddd146100f557806323b872dd14610107578063313ce5671461011a578063395093511461012957806370a082311461013c5780638da5cb5b1461016557806395d89b41146101905780639a49090e14610198578063a457c2d7146101ad578063a9059cbb146101c0578063dd62ed3e146101d3575b600080fd5b6100bc6101e6565b6040516100c9919061083a565b60405180910390f35b6100e56100e03660046108a4565b610278565b60405190151581526020016100c9565b6002545b6040519081526020016100c9565b6100e56101153660046108ce565b610292565b604051601281526020016100c9565b6100e56101373660046108a4565b6102b6565b6100f961014a36600461090a565b6001600160a01b031660009081526020819052604090205490565b600554610178906001600160a01b031681565b6040516001600160a01b0390911681526020016100c9565b6100bc6102d8565b6101ab6101a63660046108a4565b6102e7565b005b6100e56101bb3660046108a4565b61035f565b6100e56101ce3660046108a4565b6103da565b6100f96101e136600461092c565b6103e8565b6060600380546101f59061095f565b80601f01602080910402602001604051908101604052809291908181526020018280546102219061095f565b801561026e5780601f106102435761010080835404028352916020019161026e565b820191906000526020600020905b81548152906001019060200180831161025157829003601f168201915b5050505050905090565b600033610286818585610413565b60019150505b92915050565b6000336102a0858285610537565b6102ab8585856105b1565b506001949350505050565b6000336102868185856102c983836103e8565b6102d39190610999565b610413565b6060600480546101f59061095f565b6005546001600160a01b031633146103515760405162461bcd60e51b815260206004820152602260248201527f4442583a2063616c6c6572206973206e6f7420446562307820636f6e747261636044820152613a1760f11b60648201526084015b60405180910390fd5b61035b828261076d565b5050565b6000338161036d82866103e8565b9050838110156103cd5760405162461bcd60e51b815260206004820152602560248201527f45524332303a2064656372656173656420616c6c6f77616e63652062656c6f77604482015264207a65726f60d81b6064820152608401610348565b6102ab8286868403610413565b6000336102868185856105b1565b6001600160a01b03918216600090815260016020908152604080832093909416825291909152205490565b6001600160a01b0383166104755760405162461bcd60e51b8152602060048201526024808201527f45524332303a20617070726f76652066726f6d20746865207a65726f206164646044820152637265737360e01b6064820152608401610348565b6001600160a01b0382166104d65760405162461bcd60e51b815260206004820152602260248201527f45524332303a20617070726f766520746f20746865207a65726f206164647265604482015261737360f01b6064820152608401610348565b6001600160a01b0383811660008181526001602090815260408083209487168084529482529182902085905590518481527f8c5be1e5ebec7d5bd14f71427d1e84f3dd0314c0f7b2291e5b200ac8c7c3b925910160405180910390a3505050565b600061054384846103e8565b905060001981146105ab578181101561059e5760405162461bcd60e51b815260206004820152601d60248201527f45524332303a20696e73756666696369656e7420616c6c6f77616e63650000006044820152606401610348565b6105ab8484848403610413565b50505050565b6001600160a01b0383166106155760405162461bcd60e51b815260206004820152602560248201527f45524332303a207472616e736665722066726f6d20746865207a65726f206164604482015264647265737360d81b6064820152608401610348565b6001600160a01b0382166106775760405162461bcd60e51b815260206004820152602360248201527f45524332303a207472616e7366657220746f20746865207a65726f206164647260448201526265737360e81b6064820152608401610348565b6001600160a01b038316600090815260208190526040902054818110156106ef5760405162461bcd60e51b815260206004820152602660248201527f45524332303a207472616e7366657220616d6f756e7420657863656564732062604482015265616c616e636560d01b6064820152608401610348565b6001600160a01b03808516600090815260208190526040808220858503905591851681529081208054849290610726908490610999565b92505081905550826001600160a01b0316846001600160a01b03166000805160206109bb8339815191528460405161076091815260200190565b60405180910390a36105ab565b6001600160a01b0382166107c35760405162461bcd60e51b815260206004820152601f60248201527f45524332303a206d696e7420746f20746865207a65726f2061646472657373006044820152606401610348565b80600260008282546107d59190610999565b90915550506001600160a01b03821660009081526020819052604081208054839290610802908490610999565b90915550506040518181526001600160a01b038316906000906000805160206109bb8339815191529060200160405180910390a35050565b600060208083528351808285015260005b818110156108675785810183015185820160400152820161084b565b506000604082860101526040601f19601f8301168501019250505092915050565b80356001600160a01b038116811461089f57600080fd5b919050565b600080604083850312156108b757600080fd5b6108c083610888565b946020939093013593505050565b6000806000606084860312156108e357600080fd5b6108ec84610888565b92506108fa60208501610888565b9150604084013590509250925092565b60006020828403121561091c57600080fd5b61092582610888565b9392505050565b6000806040838503121561093f57600080fd5b61094883610888565b915061095660208401610888565b90509250929050565b600181811c9082168061097357607f821691505b60208210810361099357634e487b7160e01b600052602260045260246000fd5b50919050565b8082018082111561028c57634e487b7160e01b600052601160045260246000fdfeddf252ad1be2c89b69c2b068fc378daa952ba7f163c4a11628f55a4df523b3efa26469706673582212203ff4614f700f8093fb72051f034c74b8b8e547b551a6963bfebba2f4f625ebc364736f6c63430008110033",
    "linkReferences": {},
    "deployedLinkReferences": {}
}