{
    "_format": "hh-sol-artifact-1",
    "contractName": "Deb0x",
    "sourceName": "contracts/Deb0x.sol",
    "abi": [
        {
            "inputs": [
                {
                    "internalType": "address",
                    "name": "forwarder",
                    "type": "address"
                }
            ],
            "stateMutability": "nonpayable",
            "type": "constructor"
        },
        {
            "anonymous": false,
            "inputs": [
                {
                    "indexed": true,
                    "internalType": "uint256",
                    "name": "cycle",
                    "type": "uint256"
                },
                {
                    "indexed": true,
                    "internalType": "address",
                    "name": "userAddress",
                    "type": "address"
                },
                {
                    "indexed": false,
                    "internalType": "uint256",
                    "name": "fees",
                    "type": "uint256"
                }
            ],
            "name": "FeesClaimed",
            "type": "event"
        },
        {
            "anonymous": false,
            "inputs": [
                {
                    "indexed": true,
                    "internalType": "uint256",
                    "name": "cycle",
                    "type": "uint256"
                },
                {
                    "indexed": true,
                    "internalType": "address",
                    "name": "userAddress",
                    "type": "address"
                },
                {
                    "indexed": false,
                    "internalType": "uint256",
                    "name": "fees",
                    "type": "uint256"
                }
            ],
            "name": "FrontEndFeesClaimed",
            "type": "event"
        },
        {
            "anonymous": false,
            "inputs": [
                {
                    "indexed": true,
                    "internalType": "uint256",
                    "name": "cycle",
                    "type": "uint256"
                },
                {
                    "indexed": true,
                    "internalType": "address",
                    "name": "userAddress",
                    "type": "address"
                },
                {
                    "indexed": false,
                    "internalType": "uint256",
                    "name": "amount",
                    "type": "uint256"
                }
            ],
            "name": "FrontEndRewardsClaimed",
            "type": "event"
        },
        {
            "anonymous": false,
            "inputs": [
                {
                    "indexed": true,
                    "internalType": "address",
                    "name": "to",
                    "type": "address"
                },
                {
                    "indexed": true,
                    "internalType": "bytes32",
                    "name": "hash",
                    "type": "bytes32"
                },
                {
                    "indexed": false,
                    "internalType": "string",
                    "name": "value",
                    "type": "string"
                }
            ],
            "name": "KeySet",
            "type": "event"
        },
        {
            "anonymous": false,
            "inputs": [
                {
                    "indexed": true,
                    "internalType": "uint256",
                    "name": "cycle",
                    "type": "uint256"
                },
                {
                    "indexed": false,
                    "internalType": "uint256",
                    "name": "calculatedCycleReward",
                    "type": "uint256"
                },
                {
                    "indexed": false,
                    "internalType": "uint256",
                    "name": "summedCycleStakes",
                    "type": "uint256"
                }
            ],
            "name": "NewCycleStarted",
            "type": "event"
        },
        {
            "anonymous": false,
            "inputs": [
                {
                    "indexed": true,
                    "internalType": "uint256",
                    "name": "cycle",
                    "type": "uint256"
                },
                {
                    "indexed": true,
                    "internalType": "address",
                    "name": "userAddress",
                    "type": "address"
                },
                {
                    "indexed": false,
                    "internalType": "uint256",
                    "name": "reward",
                    "type": "uint256"
                }
            ],
            "name": "RewardsClaimed",
            "type": "event"
        },
        {
            "anonymous": false,
            "inputs": [
                {
                    "indexed": true,
                    "internalType": "uint256",
                    "name": "cycle",
                    "type": "uint256"
                },
                {
                    "indexed": true,
                    "internalType": "uint256",
                    "name": "sentId",
                    "type": "uint256"
                },
                {
                    "indexed": true,
                    "internalType": "address",
                    "name": "feeReceiver",
                    "type": "address"
                },
                {
                    "indexed": false,
                    "internalType": "uint256",
                    "name": "msgFee",
                    "type": "uint256"
                },
                {
                    "indexed": false,
                    "internalType": "uint256",
                    "name": "nativeTokenFee",
                    "type": "uint256"
                }
            ],
            "name": "SendEntryCreated",
            "type": "event"
        },
        {
            "anonymous": false,
            "inputs": [
                {
                    "indexed": true,
                    "internalType": "address",
                    "name": "to",
                    "type": "address"
                },
                {
                    "indexed": true,
                    "internalType": "address",
                    "name": "from",
                    "type": "address"
                },
                {
                    "indexed": true,
                    "internalType": "bytes32",
                    "name": "hash",
                    "type": "bytes32"
                },
                {
                    "components": [
                        {
                            "internalType": "string",
                            "name": "content",
                            "type": "string"
                        },
                        {
                            "internalType": "uint256",
                            "name": "timestamp",
                            "type": "uint256"
                        }
                    ],
                    "indexed": false,
                    "internalType": "struct Deb0xCore.Envelope",
                    "name": "body",
                    "type": "tuple"
                },
                {
                    "indexed": false,
                    "internalType": "uint256",
                    "name": "sentId",
                    "type": "uint256"
                }
            ],
            "name": "Sent",
            "type": "event"
        },
        {
            "anonymous": false,
            "inputs": [
                {
                    "indexed": true,
                    "internalType": "uint256",
                    "name": "cycle",
                    "type": "uint256"
                },
                {
                    "indexed": true,
                    "internalType": "address",
                    "name": "userAddress",
                    "type": "address"
                },
                {
                    "indexed": false,
                    "internalType": "uint256",
                    "name": "amount",
                    "type": "uint256"
                }
            ],
            "name": "Staked",
            "type": "event"
        },
        {
            "anonymous": false,
            "inputs": [
                {
                    "indexed": true,
                    "internalType": "uint256",
                    "name": "cycle",
                    "type": "uint256"
                },
                {
                    "indexed": true,
                    "internalType": "address",
                    "name": "userAddress",
                    "type": "address"
                },
                {
                    "indexed": false,
                    "internalType": "uint256",
                    "name": "amount",
                    "type": "uint256"
                }
            ],
            "name": "Unstaked",
            "type": "event"
        },
        {
            "inputs": [],
            "name": "MAIL_FEE",
            "outputs": [
                {
                    "internalType": "uint16",
                    "name": "",
                    "type": "uint16"
                }
            ],
            "stateMutability": "view",
            "type": "function"
        },
        {
            "inputs": [
                {
                    "internalType": "address",
                    "name": "",
                    "type": "address"
                }
            ],
            "name": "addressAccruedFees",
            "outputs": [
                {
                    "internalType": "uint256",
                    "name": "",
                    "type": "uint256"
                }
            ],
            "stateMutability": "view",
            "type": "function"
        },
        {
            "inputs": [
                {
                    "internalType": "address",
                    "name": "",
                    "type": "address"
                }
            ],
            "name": "addressRewards",
            "outputs": [
                {
                    "internalType": "uint256",
                    "name": "",
                    "type": "uint256"
                }
            ],
            "stateMutability": "view",
            "type": "function"
        },
        {
            "inputs": [],
            "name": "calculateCycleReward",
            "outputs": [
                {
                    "internalType": "uint256",
                    "name": "",
                    "type": "uint256"
                }
            ],
            "stateMutability": "view",
            "type": "function"
        },
        {
            "inputs": [],
            "name": "claimFees",
            "outputs": [],
            "stateMutability": "nonpayable",
            "type": "function"
        },
        {
            "inputs": [],
            "name": "claimFrontEndFees",
            "outputs": [],
            "stateMutability": "nonpayable",
            "type": "function"
        },
        {
            "inputs": [],
            "name": "claimFrontEndRewards",
            "outputs": [],
            "stateMutability": "nonpayable",
            "type": "function"
        },
        {
            "inputs": [],
            "name": "claimRewards",
            "outputs": [],
            "stateMutability": "nonpayable",
            "type": "function"
        },
        {
            "inputs": [],
            "name": "contractBalance",
            "outputs": [
                {
                    "internalType": "uint256",
                    "name": "",
                    "type": "uint256"
                }
            ],
            "stateMutability": "view",
            "type": "function"
        },
        {
            "inputs": [],
            "name": "currentStartedCycle",
            "outputs": [
                {
                    "internalType": "uint256",
                    "name": "",
                    "type": "uint256"
                }
            ],
            "stateMutability": "view",
            "type": "function"
        },
        {
            "inputs": [
                {
                    "internalType": "uint256",
                    "name": "",
                    "type": "uint256"
                }
            ],
            "name": "cycleAccruedFees",
            "outputs": [
                {
                    "internalType": "uint256",
                    "name": "",
                    "type": "uint256"
                }
            ],
            "stateMutability": "view",
            "type": "function"
        },
        {
            "inputs": [
                {
                    "internalType": "uint256",
                    "name": "",
                    "type": "uint256"
                }
            ],
            "name": "cycleFeesPerStake",
            "outputs": [
                {
                    "internalType": "uint256",
                    "name": "",
                    "type": "uint256"
                }
            ],
            "stateMutability": "view",
            "type": "function"
        },
        {
            "inputs": [
                {
                    "internalType": "uint256",
                    "name": "",
                    "type": "uint256"
                }
            ],
            "name": "cycleFeesPerStakeSummed",
            "outputs": [
                {
                    "internalType": "uint256",
                    "name": "",
                    "type": "uint256"
                }
            ],
            "stateMutability": "view",
            "type": "function"
        },
        {
            "inputs": [],
            "name": "dbx",
            "outputs": [
                {
                    "internalType": "contract DBX",
                    "name": "",
                    "type": "address"
                }
            ],
            "stateMutability": "view",
            "type": "function"
        },
        {
            "inputs": [],
            "name": "dividend",
            "outputs": [
                {
                    "internalType": "uint256",
                    "name": "",
                    "type": "uint256"
                }
            ],
            "stateMutability": "view",
            "type": "function"
        },
        {
            "inputs": [
                {
                    "internalType": "address",
                    "name": "to",
                    "type": "address"
                }
            ],
            "name": "fetchMessageSenders",
            "outputs": [
                {
                    "internalType": "address[]",
                    "name": "",
                    "type": "address[]"
                }
            ],
            "stateMutability": "view",
            "type": "function"
        },
        {
            "inputs": [
                {
                    "internalType": "address",
                    "name": "to",
                    "type": "address"
                },
                {
                    "internalType": "address",
                    "name": "from",
                    "type": "address"
                }
            ],
            "name": "fetchMessages",
            "outputs": [
                {
                    "components": [
                        {
                            "internalType": "string",
                            "name": "content",
                            "type": "string"
                        },
                        {
                            "internalType": "uint256",
                            "name": "timestamp",
                            "type": "uint256"
                        }
                    ],
                    "internalType": "struct Deb0xCore.Envelope[]",
                    "name": "",
                    "type": "tuple[]"
                }
            ],
            "stateMutability": "view",
            "type": "function"
        },
        {
            "inputs": [
                {
                    "internalType": "address",
                    "name": "sender",
                    "type": "address"
                }
            ],
            "name": "fetchSentMessages",
            "outputs": [
                {
                    "components": [
                        {
                            "internalType": "address[]",
                            "name": "recipients",
                            "type": "address[]"
                        },
                        {
                            "components": [
                                {
                                    "internalType": "string",
                                    "name": "content",
                                    "type": "string"
                                },
                                {
                                    "internalType": "uint256",
                                    "name": "timestamp",
                                    "type": "uint256"
                                }
                            ],
                            "internalType": "struct Deb0xCore.Envelope",
                            "name": "contentData",
                            "type": "tuple"
                        }
                    ],
                    "internalType": "struct Deb0xCore.sentMessage[]",
                    "name": "",
                    "type": "tuple[]"
                }
            ],
            "stateMutability": "view",
            "type": "function"
        },
        {
            "inputs": [],
            "name": "getCurrentCycle",
            "outputs": [
                {
                    "internalType": "uint256",
                    "name": "",
                    "type": "uint256"
                }
            ],
            "stateMutability": "view",
            "type": "function"
        },
        {
            "inputs": [
                {
                    "internalType": "address",
                    "name": "account",
                    "type": "address"
                }
            ],
            "name": "getKey",
            "outputs": [
                {
                    "internalType": "string",
                    "name": "",
                    "type": "string"
                }
            ],
            "stateMutability": "view",
            "type": "function"
        },
        {
            "inputs": [
                {
                    "internalType": "address",
                    "name": "user",
                    "type": "address"
                }
            ],
            "name": "getUnclaimedFees",
            "outputs": [
                {
                    "internalType": "uint256",
                    "name": "",
                    "type": "uint256"
                }
            ],
            "stateMutability": "view",
            "type": "function"
        },
        {
            "inputs": [
                {
                    "internalType": "address",
                    "name": "user",
                    "type": "address"
                }
            ],
            "name": "getUnclaimedRewards",
            "outputs": [
                {
                    "internalType": "uint256",
                    "name": "",
                    "type": "uint256"
                }
            ],
            "stateMutability": "view",
            "type": "function"
        },
        {
            "inputs": [
                {
                    "internalType": "address",
                    "name": "staker",
                    "type": "address"
                }
            ],
            "name": "getUserWithdrawableStake",
            "outputs": [
                {
                    "internalType": "uint256",
                    "name": "",
                    "type": "uint256"
                }
            ],
            "stateMutability": "view",
            "type": "function"
        },
        {
            "inputs": [
                {
                    "internalType": "address",
                    "name": "forwarder",
                    "type": "address"
                }
            ],
            "name": "isTrustedForwarder",
            "outputs": [
                {
                    "internalType": "bool",
                    "name": "",
                    "type": "bool"
                }
            ],
            "stateMutability": "view",
            "type": "function"
        },
        {
            "inputs": [],
            "name": "pendingStakeWithdrawal",
            "outputs": [
                {
                    "internalType": "uint256",
                    "name": "",
                    "type": "uint256"
                }
            ],
            "stateMutability": "view",
            "type": "function"
        },
        {
            "inputs": [
                {
                    "internalType": "address",
                    "name": "",
                    "type": "address"
                }
            ],
            "name": "publicKeys",
            "outputs": [
                {
                    "internalType": "string",
                    "name": "",
                    "type": "string"
                }
            ],
            "stateMutability": "view",
            "type": "function"
        },
        {
            "inputs": [
                {
                    "internalType": "uint256",
                    "name": "",
                    "type": "uint256"
                }
            ],
            "name": "rewardPerCycle",
            "outputs": [
                {
                    "internalType": "uint256",
                    "name": "",
                    "type": "uint256"
                }
            ],
            "stateMutability": "view",
            "type": "function"
        },
        {
            "inputs": [
                {
                    "internalType": "address[]",
                    "name": "to",
                    "type": "address[]"
                },
                {
                    "internalType": "string[]",
                    "name": "payload",
                    "type": "string[]"
                },
                {
                    "internalType": "address",
                    "name": "feeReceiver",
                    "type": "address"
                },
                {
                    "internalType": "uint256",
                    "name": "msgFee",
                    "type": "uint256"
                },
                {
                    "internalType": "uint256",
                    "name": "nativeTokenFee",
                    "type": "uint256"
                }
            ],
            "name": "send",
            "outputs": [],
            "stateMutability": "payable",
            "type": "function"
        },
        {
            "inputs": [
                {
                    "internalType": "address[]",
                    "name": "recipients",
                    "type": "address[]"
                },
                {
                    "internalType": "string[]",
                    "name": "cids",
                    "type": "string[]"
                }
            ],
            "name": "send",
            "outputs": [
                {
                    "internalType": "uint256",
                    "name": "",
                    "type": "uint256"
                }
            ],
            "stateMutability": "payable",
            "type": "function"
        },
        {
            "inputs": [],
            "name": "sentId",
            "outputs": [
                {
                    "internalType": "uint256",
                    "name": "",
                    "type": "uint256"
                }
            ],
            "stateMutability": "view",
            "type": "function"
        },
        {
            "inputs": [
                {
                    "internalType": "string",
                    "name": "publicKey",
                    "type": "string"
                }
            ],
            "name": "setKey",
            "outputs": [],
            "stateMutability": "nonpayable",
            "type": "function"
        },
        {
            "inputs": [
                {
                    "internalType": "uint256",
                    "name": "_amount",
                    "type": "uint256"
                }
            ],
            "name": "stakeDBX",
            "outputs": [],
            "stateMutability": "nonpayable",
            "type": "function"
        },
        {
            "inputs": [
                {
                    "internalType": "uint256",
                    "name": "",
                    "type": "uint256"
                }
            ],
            "name": "summedCycleStakes",
            "outputs": [
                {
                    "internalType": "uint256",
                    "name": "",
                    "type": "uint256"
                }
            ],
            "stateMutability": "view",
            "type": "function"
        },
        {
            "inputs": [
                {
                    "internalType": "uint256",
                    "name": "_amount",
                    "type": "uint256"
                }
            ],
            "name": "unstake",
            "outputs": [],
            "stateMutability": "nonpayable",
            "type": "function"
        },
        {
            "inputs": [
                {
                    "internalType": "address",
                    "name": "",
                    "type": "address"
                }
            ],
            "name": "userWithdrawableStake",
            "outputs": [
                {
                    "internalType": "uint256",
                    "name": "",
                    "type": "uint256"
                }
            ],
            "stateMutability": "view",
            "type": "function"
        }
    ],
    "bytecode": "0x60e060405260016000553480156200001657600080fd5b506040516200c25a3803806200c25a83398181016040528101906200003c9190620001c4565b80808073ffffffffffffffffffffffffffffffffffffffff1660808173ffffffffffffffffffffffffffffffffffffffff1681525050505060405162000082906200014c565b604051809103906000f0801580156200009f573d6000803e3d6000fd5b50600560006101000a81548173ffffffffffffffffffffffffffffffffffffffff021916908373ffffffffffffffffffffffffffffffffffffffff1602179055504260a081815250506201518060c0818152505068056bc75e2d6310000060068190555068056bc75e2d63100000601b60008081526020019081526020016000208190555068056bc75e2d63100000601a60008081526020019081526020016000208190555050620001f6565b611a19806200a84183390190565b600080fd5b600073ffffffffffffffffffffffffffffffffffffffff82169050919050565b60006200018c826200015f565b9050919050565b6200019e816200017f565b8114620001aa57600080fd5b50565b600081519050620001be8162000193565b92915050565b600060208284031215620001dd57620001dc6200015a565b5b6000620001ed84828501620001ad565b91505092915050565b60805160a05160c05161a61b620002266000396000617293015260006172b401526000613760015261a61b6000f3fe6080604052600436106102045760003560e01c80638b7afe2e11610118578063bebc9dfc116100a0578063d294f0931161006f578063d294f093146107e7578063d6aef1c6146107fe578063ea6c77cd14610829578063f1b371e214610854578063f68f0a391461087f57610204565b8063bebc9dfc146106f3578063bf992dea14610730578063c0d733201461076d578063c4235ae9146107aa57610204565b80639f33626e116100e75780639f33626e146105f5578063a3d6f9a914610625578063adc0f68614610662578063af42d1061461069f578063be26ed7f146106c857610204565b80638b7afe2e1461052557806393790f441461055057806395e982a91461058d57806398a5db57146105ca57610204565b8063572b6c051161019b5780636d9384f91161016a5780636d9384f91461043b5780636f044d37146104785780637d818c23146104945780637e30d2b5146104bf5780638b414de0146104e857610204565b8063572b6c051461035957806358503a951461039657806368f05769146103d357806369a69e29146103fe57610204565b8063372500ab116101d7578063372500ab146102d75780633e19eec3146102ee5780634cd040fc1461030557806352a398d81461031c57610204565b80630a00dc43146102095780630ece2154146102465780630ff8cf9b146102835780632e17de78146102ae575b600080fd5b34801561021557600080fd5b50610230600480360381019061022b9190619159565b6108bc565b60405161023d9190619195565b60405180910390f35b34801561025257600080fd5b5061026d60048036038101906102689190619159565b6108d4565b60405161027a9190619195565b60405180910390f35b34801561028f57600080fd5b506102986108ec565b6040516102a59190619195565b60405180910390f35b3480156102ba57600080fd5b506102d560048036038101906102d09190619159565b6108f8565b005b3480156102e357600080fd5b506102ec611c86565b005b3480156102fa57600080fd5b50610303612fc6565b005b34801561031157600080fd5b5061031a613231565b005b34801561032857600080fd5b50610343600480360381019061033e919061920e565b613580565b60405161035091906194db565b60405180910390f35b34801561036557600080fd5b50610380600480360381019061037b919061920e565b61375c565b60405161038d9190619518565b60405180910390f35b3480156103a257600080fd5b506103bd60048036038101906103b8919061920e565b6137b4565b6040516103ca91906195a2565b60405180910390f35b3480156103df57600080fd5b506103e8613881565b6040516103f59190619195565b60405180910390f35b34801561040a57600080fd5b506104256004803603810190610420919061920e565b613887565b6040516104329190619195565b60405180910390f35b34801561044757600080fd5b50610462600480360381019061045d91906195c4565b613b86565b60405161046f91906196c6565b60405180910390f35b610492600480360381019061048d91906199c6565b613cfe565b005b3480156104a057600080fd5b506104a96152ba565b6040516104b69190619ad8565b60405180910390f35b3480156104cb57600080fd5b506104e660048036038101906104e19190619159565b6152e0565b005b3480156104f457600080fd5b5061050f600480360381019061050a919061920e565b616760565b60405161051c9190619195565b60405180910390f35b34801561053157600080fd5b5061053a616778565b6040516105479190619195565b60405180910390f35b34801561055c57600080fd5b506105776004803603810190610572919061920e565b616780565b6040516105849190619b3d565b60405180910390f35b34801561059957600080fd5b506105b460048036038101906105af919061920e565b616851565b6040516105c19190619195565b60405180910390f35b3480156105d657600080fd5b506105df616b2d565b6040516105ec9190619195565b60405180910390f35b61060f600480360381019061060a9190619b5f565b616b33565b60405161061c9190619195565b60405180910390f35b34801561063157600080fd5b5061064c6004803603810190610647919061920e565b6170fe565b6040516106599190619b3d565b60405180910390f35b34801561066e57600080fd5b5061068960048036038101906106849190619159565b61719e565b6040516106969190619195565b60405180910390f35b3480156106ab57600080fd5b506106c660048036038101906106c19190619bd7565b6171b6565b005b3480156106d457600080fd5b506106dd61728f565b6040516106ea9190619195565b60405180910390f35b3480156106ff57600080fd5b5061071a60048036038101906107159190619159565b6172ed565b6040516107279190619195565b60405180910390f35b34801561073c57600080fd5b506107576004803603810190610752919061920e565b617305565b6040516107649190619195565b60405180910390f35b34801561077957600080fd5b50610794600480360381019061078f919061920e565b6178b7565b6040516107a19190619195565b60405180910390f35b3480156107b657600080fd5b506107d160048036038101906107cc9190619159565b6178cf565b6040516107de9190619195565b60405180910390f35b3480156107f357600080fd5b506107fc6178e7565b005b34801561080a57600080fd5b50610813618ae1565b6040516108209190619195565b60405180910390f35b34801561083557600080fd5b5061083e618b05565b60405161084b9190619c3d565b60405180910390f35b34801561086057600080fd5b50610869618b0b565b6040516108769190619195565b60405180910390f35b34801561088b57600080fd5b506108a660048036038101906108a1919061920e565b618b11565b6040516108b39190619195565b60405180910390f35b601e6020528060005260406000206000915090505481565b601d6020528060005260406000206000915090505481565b670de0b6b3a764000081565b600061090261728f565b905060095481111561091657806009819055505b600c5460095414610940576001600a546109309190619c87565b600b81905550600c54600a819055505b600a5460095411801561097457506000601f60006001600a546109639190619c87565b815260200190815260200160002054145b15610a0e576000601b6000600a54815260200190815260200160002054670de0b6b3a7640000601d6000600a548152602001908152602001600020546109ba9190619cbb565b6109c49190619d44565b905080601f6000600b548152602001908152602001600020546109e79190619c87565b601f60006001600a546109fa9190619c87565b815260200190815260200160002081905550505b610a16618b29565b601360008273ffffffffffffffffffffffffffffffffffffffff1673ffffffffffffffffffffffffffffffffffffffff16815260200190815260200160002054600954118015610aa657506000601160008373ffffffffffffffffffffffffffffffffffffffff1673ffffffffffffffffffffffffffffffffffffffff1681526020019081526020016000205414155b15610dd657600060126000601360008573ffffffffffffffffffffffffffffffffffffffff1673ffffffffffffffffffffffffffffffffffffffff16815260200190815260200160002054815260200190815260200160002054601a6000601360008673ffffffffffffffffffffffffffffffffffffffff1673ffffffffffffffffffffffffffffffffffffffff16815260200190815260200160002054815260200190815260200160002054601160008573ffffffffffffffffffffffffffffffffffffffff1673ffffffffffffffffffffffffffffffffffffffff16815260200190815260200160002054610b9d9190619cbb565b610ba79190619d44565b905080601760008473ffffffffffffffffffffffffffffffffffffffff1673ffffffffffffffffffffffffffffffffffffffff1681526020019081526020016000206000828254610bf89190619c87565b925050819055506000600f60008473ffffffffffffffffffffffffffffffffffffffff1673ffffffffffffffffffffffffffffffffffffffff1681526020019081526020016000205414610d8f576000601160008473ffffffffffffffffffffffffffffffffffffffff1673ffffffffffffffffffffffffffffffffffffffff1681526020019081526020016000205482610c939190619d44565b90506000612710600f60008673ffffffffffffffffffffffffffffffffffffffff1673ffffffffffffffffffffffffffffffffffffffff1681526020019081526020016000205483610ce59190619cbb565b610cef9190619d44565b905080601760008673ffffffffffffffffffffffffffffffffffffffff1673ffffffffffffffffffffffffffffffffffffffff1681526020019081526020016000206000828254610d409190619d75565b925050819055506000600f60008673ffffffffffffffffffffffffffffffffffffffff1673ffffffffffffffffffffffffffffffffffffffff1681526020019081526020016000208190555050505b6000601160008473ffffffffffffffffffffffffffffffffffffffff1673ffffffffffffffffffffffffffffffffffffffff16815260200190815260200160002081905550505b600a54600954118015610e3657506001600a54610df39190619c87565b601c60008373ffffffffffffffffffffffffffffffffffffffff1673ffffffffffffffffffffffffffffffffffffffff1681526020019081526020016000205414155b15610ff757670de0b6b3a7640000601f6000601c60008573ffffffffffffffffffffffffffffffffffffffff1673ffffffffffffffffffffffffffffffffffffffff16815260200190815260200160002054815260200190815260200160002054601f60006001600a54610eaa9190619c87565b815260200190815260200160002054610ec39190619d75565b601760008473ffffffffffffffffffffffffffffffffffffffff1673ffffffffffffffffffffffffffffffffffffffff16815260200190815260200160002054610f0d9190619cbb565b610f179190619d44565b601860008373ffffffffffffffffffffffffffffffffffffffff1673ffffffffffffffffffffffffffffffffffffffff16815260200190815260200160002054610f619190619c87565b601860008373ffffffffffffffffffffffffffffffffffffffff1673ffffffffffffffffffffffffffffffffffffffff168152602001908152602001600020819055506001600a54610fb39190619c87565b601c60008373ffffffffffffffffffffffffffffffffffffffff1673ffffffffffffffffffffffffffffffffffffffff168152602001908152602001600020819055505b6000602260008373ffffffffffffffffffffffffffffffffffffffff1673ffffffffffffffffffffffffffffffffffffffff168152602001908152602001600020541415801561109357506000602260008373ffffffffffffffffffffffffffffffffffffffff1673ffffffffffffffffffffffffffffffffffffffff168152602001908152602001600020546009546110919190619d75565b115b156119ac576000602060008373ffffffffffffffffffffffffffffffffffffffff1673ffffffffffffffffffffffffffffffffffffffff1681526020019081526020016000206000602260008573ffffffffffffffffffffffffffffffffffffffff1673ffffffffffffffffffffffffffffffffffffffff16815260200190815260200160002054815260200190815260200160002054905080601760008473ffffffffffffffffffffffffffffffffffffffff1673ffffffffffffffffffffffffffffffffffffffff168152602001908152602001600020600082825461117b9190619c87565b9250508190555080602160008473ffffffffffffffffffffffffffffffffffffffff1673ffffffffffffffffffffffffffffffffffffffff16815260200190815260200160002060008282546111d19190619c87565b92505081905550670de0b6b3a7640000601f6000602260008673ffffffffffffffffffffffffffffffffffffffff1673ffffffffffffffffffffffffffffffffffffffff16815260200190815260200160002054815260200190815260200160002054601f60006001600a546112479190619c87565b8152602001908152602001600020546112609190619d75565b602060008573ffffffffffffffffffffffffffffffffffffffff1673ffffffffffffffffffffffffffffffffffffffff1681526020019081526020016000206000602260008773ffffffffffffffffffffffffffffffffffffffff1673ffffffffffffffffffffffffffffffffffffffff168152602001908152602001600020548152602001908152602001600020546112fa9190619cbb565b6113049190619d44565b601860008473ffffffffffffffffffffffffffffffffffffffff1673ffffffffffffffffffffffffffffffffffffffff1681526020019081526020016000205461134e9190619c87565b601860008473ffffffffffffffffffffffffffffffffffffffff1673ffffffffffffffffffffffffffffffffffffffff168152602001908152602001600020819055506000602060008473ffffffffffffffffffffffffffffffffffffffff1673ffffffffffffffffffffffffffffffffffffffff1681526020019081526020016000206000602260008673ffffffffffffffffffffffffffffffffffffffff1673ffffffffffffffffffffffffffffffffffffffff168152602001908152602001600020548152602001908152602001600020819055506000602260008473ffffffffffffffffffffffffffffffffffffffff1673ffffffffffffffffffffffffffffffffffffffff168152602001908152602001600020819055506000602360008473ffffffffffffffffffffffffffffffffffffffff1673ffffffffffffffffffffffffffffffffffffffff16815260200190815260200160002054146119aa576001602360008473ffffffffffffffffffffffffffffffffffffffff1673ffffffffffffffffffffffffffffffffffffffff168152602001908152602001600020546009546115019190619d75565b11156118e0576000602060008473ffffffffffffffffffffffffffffffffffffffff1673ffffffffffffffffffffffffffffffffffffffff1681526020019081526020016000206000602360008673ffffffffffffffffffffffffffffffffffffffff1673ffffffffffffffffffffffffffffffffffffffff16815260200190815260200160002054815260200190815260200160002054905080601760008573ffffffffffffffffffffffffffffffffffffffff1673ffffffffffffffffffffffffffffffffffffffff16815260200190815260200160002060008282546115ea9190619c87565b9250508190555080602160008573ffffffffffffffffffffffffffffffffffffffff1673ffffffffffffffffffffffffffffffffffffffff16815260200190815260200160002060008282546116409190619c87565b92505081905550670de0b6b3a7640000601f6000602360008773ffffffffffffffffffffffffffffffffffffffff1673ffffffffffffffffffffffffffffffffffffffff16815260200190815260200160002054815260200190815260200160002054601f60006001600a546116b69190619c87565b8152602001908152602001600020546116cf9190619d75565b602060008673ffffffffffffffffffffffffffffffffffffffff1673ffffffffffffffffffffffffffffffffffffffff1681526020019081526020016000206000602360008873ffffffffffffffffffffffffffffffffffffffff1673ffffffffffffffffffffffffffffffffffffffff168152602001908152602001600020548152602001908152602001600020546117699190619cbb565b6117739190619d44565b601860008573ffffffffffffffffffffffffffffffffffffffff1673ffffffffffffffffffffffffffffffffffffffff168152602001908152602001600020546117bd9190619c87565b601860008573ffffffffffffffffffffffffffffffffffffffff1673ffffffffffffffffffffffffffffffffffffffff168152602001908152602001600020819055506000602060008573ffffffffffffffffffffffffffffffffffffffff1673ffffffffffffffffffffffffffffffffffffffff1681526020019081526020016000206000602360008773ffffffffffffffffffffffffffffffffffffffff1673ffffffffffffffffffffffffffffffffffffffff168152602001908152602001600020548152602001908152602001600020819055506000602360008573ffffffffffffffffffffffffffffffffffffffff1673ffffffffffffffffffffffffffffffffffffffff16815260200190815260200160002081905550506119a9565b602360008373ffffffffffffffffffffffffffffffffffffffff1673ffffffffffffffffffffffffffffffffffffffff16815260200190815260200160002054602260008473ffffffffffffffffffffffffffffffffffffffff1673ffffffffffffffffffffffffffffffffffffffff168152602001908152602001600020819055506000602360008473ffffffffffffffffffffffffffffffffffffffff1673ffffffffffffffffffffffffffffffffffffffff168152602001908152602001600020819055505b5b505b600083036119ef576040517f08c379a00000000000000000000000000000000000000000000000000000000081526004016119e690619df5565b60405180910390fd5b602160006119fb618b29565b73ffffffffffffffffffffffffffffffffffffffff1673ffffffffffffffffffffffffffffffffffffffff16815260200190815260200160002054831115611a78576040517f08c379a0000000000000000000000000000000000000000000000000000000008152600401611a6f90619e87565b60405180910390fd5b600c54600a5403611aa15782600e6000828254611a959190619c87565b92505081905550611ace565b82601b600060095481526020019081526020016000206000828254611ac69190619d75565b925050819055505b8260216000611adb618b29565b73ffffffffffffffffffffffffffffffffffffffff1673ffffffffffffffffffffffffffffffffffffffff1681526020019081526020016000206000828254611b249190619d75565b925050819055508260176000611b38618b29565b73ffffffffffffffffffffffffffffffffffffffff1673ffffffffffffffffffffffffffffffffffffffff1681526020019081526020016000206000828254611b819190619d75565b92505081905550600560009054906101000a900473ffffffffffffffffffffffffffffffffffffffff1673ffffffffffffffffffffffffffffffffffffffff1663a9059cbb611bce618b29565b856040518363ffffffff1660e01b8152600401611bec929190619eb6565b6020604051808303816000875af1158015611c0b573d6000803e3d6000fd5b505050506040513d601f19601f82011682018060405250810190611c2f9190619f0b565b503373ffffffffffffffffffffffffffffffffffffffff166009547f37375b03d8924bd8f076f11f8411b9962aa5c02fb489021507bc6bb6f850e36585604051611c799190619195565b60405180910390a3505050565b6000611c9061728f565b9050600954811115611ca457806009819055505b600c5460095414611cce576001600a54611cbe9190619c87565b600b81905550600c54600a819055505b600a54600954118015611d0257506000601f60006001600a54611cf19190619c87565b815260200190815260200160002054145b15611d9c576000601b6000600a54815260200190815260200160002054670de0b6b3a7640000601d6000600a54815260200190815260200160002054611d489190619cbb565b611d529190619d44565b905080601f6000600b54815260200190815260200160002054611d759190619c87565b601f60006001600a54611d889190619c87565b815260200190815260200160002081905550505b611da4618b29565b601360008273ffffffffffffffffffffffffffffffffffffffff1673ffffffffffffffffffffffffffffffffffffffff16815260200190815260200160002054600954118015611e3457506000601160008373ffffffffffffffffffffffffffffffffffffffff1673ffffffffffffffffffffffffffffffffffffffff1681526020019081526020016000205414155b1561216457600060126000601360008573ffffffffffffffffffffffffffffffffffffffff1673ffffffffffffffffffffffffffffffffffffffff16815260200190815260200160002054815260200190815260200160002054601a6000601360008673ffffffffffffffffffffffffffffffffffffffff1673ffffffffffffffffffffffffffffffffffffffff16815260200190815260200160002054815260200190815260200160002054601160008573ffffffffffffffffffffffffffffffffffffffff1673ffffffffffffffffffffffffffffffffffffffff16815260200190815260200160002054611f2b9190619cbb565b611f359190619d44565b905080601760008473ffffffffffffffffffffffffffffffffffffffff1673ffffffffffffffffffffffffffffffffffffffff1681526020019081526020016000206000828254611f869190619c87565b925050819055506000600f60008473ffffffffffffffffffffffffffffffffffffffff1673ffffffffffffffffffffffffffffffffffffffff168152602001908152602001600020541461211d576000601160008473ffffffffffffffffffffffffffffffffffffffff1673ffffffffffffffffffffffffffffffffffffffff16815260200190815260200160002054826120219190619d44565b90506000612710600f60008673ffffffffffffffffffffffffffffffffffffffff1673ffffffffffffffffffffffffffffffffffffffff16815260200190815260200160002054836120739190619cbb565b61207d9190619d44565b905080601760008673ffffffffffffffffffffffffffffffffffffffff1673ffffffffffffffffffffffffffffffffffffffff16815260200190815260200160002060008282546120ce9190619d75565b925050819055506000600f60008673ffffffffffffffffffffffffffffffffffffffff1673ffffffffffffffffffffffffffffffffffffffff1681526020019081526020016000208190555050505b6000601160008473ffffffffffffffffffffffffffffffffffffffff1673ffffffffffffffffffffffffffffffffffffffff16815260200190815260200160002081905550505b600a546009541180156121c457506001600a546121819190619c87565b601c60008373ffffffffffffffffffffffffffffffffffffffff1673ffffffffffffffffffffffffffffffffffffffff1681526020019081526020016000205414155b1561238557670de0b6b3a7640000601f6000601c60008573ffffffffffffffffffffffffffffffffffffffff1673ffffffffffffffffffffffffffffffffffffffff16815260200190815260200160002054815260200190815260200160002054601f60006001600a546122389190619c87565b8152602001908152602001600020546122519190619d75565b601760008473ffffffffffffffffffffffffffffffffffffffff1673ffffffffffffffffffffffffffffffffffffffff1681526020019081526020016000205461229b9190619cbb565b6122a59190619d44565b601860008373ffffffffffffffffffffffffffffffffffffffff1673ffffffffffffffffffffffffffffffffffffffff168152602001908152602001600020546122ef9190619c87565b601860008373ffffffffffffffffffffffffffffffffffffffff1673ffffffffffffffffffffffffffffffffffffffff168152602001908152602001600020819055506001600a546123419190619c87565b601c60008373ffffffffffffffffffffffffffffffffffffffff1673ffffffffffffffffffffffffffffffffffffffff168152602001908152602001600020819055505b6000602260008373ffffffffffffffffffffffffffffffffffffffff1673ffffffffffffffffffffffffffffffffffffffff168152602001908152602001600020541415801561242157506000602260008373ffffffffffffffffffffffffffffffffffffffff1673ffffffffffffffffffffffffffffffffffffffff1681526020019081526020016000205460095461241f9190619d75565b115b15612d3a576000602060008373ffffffffffffffffffffffffffffffffffffffff1673ffffffffffffffffffffffffffffffffffffffff1681526020019081526020016000206000602260008573ffffffffffffffffffffffffffffffffffffffff1673ffffffffffffffffffffffffffffffffffffffff16815260200190815260200160002054815260200190815260200160002054905080601760008473ffffffffffffffffffffffffffffffffffffffff1673ffffffffffffffffffffffffffffffffffffffff16815260200190815260200160002060008282546125099190619c87565b9250508190555080602160008473ffffffffffffffffffffffffffffffffffffffff1673ffffffffffffffffffffffffffffffffffffffff168152602001908152602001600020600082825461255f9190619c87565b92505081905550670de0b6b3a7640000601f6000602260008673ffffffffffffffffffffffffffffffffffffffff1673ffffffffffffffffffffffffffffffffffffffff16815260200190815260200160002054815260200190815260200160002054601f60006001600a546125d59190619c87565b8152602001908152602001600020546125ee9190619d75565b602060008573ffffffffffffffffffffffffffffffffffffffff1673ffffffffffffffffffffffffffffffffffffffff1681526020019081526020016000206000602260008773ffffffffffffffffffffffffffffffffffffffff1673ffffffffffffffffffffffffffffffffffffffff168152602001908152602001600020548152602001908152602001600020546126889190619cbb565b6126929190619d44565b601860008473ffffffffffffffffffffffffffffffffffffffff1673ffffffffffffffffffffffffffffffffffffffff168152602001908152602001600020546126dc9190619c87565b601860008473ffffffffffffffffffffffffffffffffffffffff1673ffffffffffffffffffffffffffffffffffffffff168152602001908152602001600020819055506000602060008473ffffffffffffffffffffffffffffffffffffffff1673ffffffffffffffffffffffffffffffffffffffff1681526020019081526020016000206000602260008673ffffffffffffffffffffffffffffffffffffffff1673ffffffffffffffffffffffffffffffffffffffff168152602001908152602001600020548152602001908152602001600020819055506000602260008473ffffffffffffffffffffffffffffffffffffffff1673ffffffffffffffffffffffffffffffffffffffff168152602001908152602001600020819055506000602360008473ffffffffffffffffffffffffffffffffffffffff1673ffffffffffffffffffffffffffffffffffffffff1681526020019081526020016000205414612d38576001602360008473ffffffffffffffffffffffffffffffffffffffff1673ffffffffffffffffffffffffffffffffffffffff1681526020019081526020016000205460095461288f9190619d75565b1115612c6e576000602060008473ffffffffffffffffffffffffffffffffffffffff1673ffffffffffffffffffffffffffffffffffffffff1681526020019081526020016000206000602360008673ffffffffffffffffffffffffffffffffffffffff1673ffffffffffffffffffffffffffffffffffffffff16815260200190815260200160002054815260200190815260200160002054905080601760008573ffffffffffffffffffffffffffffffffffffffff1673ffffffffffffffffffffffffffffffffffffffff16815260200190815260200160002060008282546129789190619c87565b9250508190555080602160008573ffffffffffffffffffffffffffffffffffffffff1673ffffffffffffffffffffffffffffffffffffffff16815260200190815260200160002060008282546129ce9190619c87565b92505081905550670de0b6b3a7640000601f6000602360008773ffffffffffffffffffffffffffffffffffffffff1673ffffffffffffffffffffffffffffffffffffffff16815260200190815260200160002054815260200190815260200160002054601f60006001600a54612a449190619c87565b815260200190815260200160002054612a5d9190619d75565b602060008673ffffffffffffffffffffffffffffffffffffffff1673ffffffffffffffffffffffffffffffffffffffff1681526020019081526020016000206000602360008873ffffffffffffffffffffffffffffffffffffffff1673ffffffffffffffffffffffffffffffffffffffff16815260200190815260200160002054815260200190815260200160002054612af79190619cbb565b612b019190619d44565b601860008573ffffffffffffffffffffffffffffffffffffffff1673ffffffffffffffffffffffffffffffffffffffff16815260200190815260200160002054612b4b9190619c87565b601860008573ffffffffffffffffffffffffffffffffffffffff1673ffffffffffffffffffffffffffffffffffffffff168152602001908152602001600020819055506000602060008573ffffffffffffffffffffffffffffffffffffffff1673ffffffffffffffffffffffffffffffffffffffff1681526020019081526020016000206000602360008773ffffffffffffffffffffffffffffffffffffffff1673ffffffffffffffffffffffffffffffffffffffff168152602001908152602001600020548152602001908152602001600020819055506000602360008573ffffffffffffffffffffffffffffffffffffffff1673ffffffffffffffffffffffffffffffffffffffff1681526020019081526020016000208190555050612d37565b602360008373ffffffffffffffffffffffffffffffffffffffff1673ffffffffffffffffffffffffffffffffffffffff16815260200190815260200160002054602260008473ffffffffffffffffffffffffffffffffffffffff1673ffffffffffffffffffffffffffffffffffffffff168152602001908152602001600020819055506000602360008473ffffffffffffffffffffffffffffffffffffffff1673ffffffffffffffffffffffffffffffffffffffff168152602001908152602001600020819055505b5b505b600060216000612d48618b29565b73ffffffffffffffffffffffffffffffffffffffff1673ffffffffffffffffffffffffffffffffffffffff1681526020019081526020016000205460176000612d8f618b29565b73ffffffffffffffffffffffffffffffffffffffff1673ffffffffffffffffffffffffffffffffffffffff16815260200190815260200160002054612dd49190619d75565b905060008111612e19576040517f08c379a0000000000000000000000000000000000000000000000000000000008152600401612e1090619f84565b60405180910390fd5b8060176000612e26618b29565b73ffffffffffffffffffffffffffffffffffffffff1673ffffffffffffffffffffffffffffffffffffffff1681526020019081526020016000206000828254612e6f9190619d75565b92505081905550600c54600a5403612e9f5780600e6000828254612e939190619c87565b92505081905550612eda565b80601b6000600954815260200190815260200160002054612ec09190619d75565b601b60006009548152602001908152602001600020819055505b3373ffffffffffffffffffffffffffffffffffffffff166009547f3300bdb359cfb956935bca32e9db727413eab1ca84341f2e36caea85bb79696883604051612f239190619195565b60405180910390a3600560009054906101000a900473ffffffffffffffffffffffffffffffffffffffff1673ffffffffffffffffffffffffffffffffffffffff16639a49090e612f71618b29565b836040518363ffffffff1660e01b8152600401612f8f929190619eb6565b600060405180830381600087803b158015612fa957600080fd5b505af1158015612fbd573d6000803e3d6000fd5b50505050505050565b6000612fd061728f565b9050600954811115612fe457806009819055505b600c546009541461300e576001600a54612ffe9190619c87565b600b81905550600c54600a819055505b600a5460095411801561304257506000601f60006001600a546130319190619c87565b815260200190815260200160002054145b156130dc576000601b6000600a54815260200190815260200160002054670de0b6b3a7640000601d6000600a548152602001908152602001600020546130889190619cbb565b6130929190619d44565b905080601f6000600b548152602001908152602001600020546130b59190619c87565b601f60006001600a546130c89190619c87565b815260200190815260200160002081905550505b6130ec6130e7618b29565b618b5b565b6000601660006130fa618b29565b73ffffffffffffffffffffffffffffffffffffffff1673ffffffffffffffffffffffffffffffffffffffff1681526020019081526020016000205490506000811161317a576040517f08c379a00000000000000000000000000000000000000000000000000000000081526004016131719061a016565b60405180910390fd5b600060166000613188618b29565b73ffffffffffffffffffffffffffffffffffffffff1673ffffffffffffffffffffffffffffffffffffffff168152602001908152602001600020819055506131d76131d1618b29565b82618faf565b3373ffffffffffffffffffffffffffffffffffffffff166131f661728f565b7fd7b416e8b7ca57e45e09969e219d4ff056413908e96413a499c6c516ecf924c0836040516132259190619195565b60405180910390a35050565b600061323b61728f565b905060095481111561324f57806009819055505b600c5460095414613279576001600a546132699190619c87565b600b81905550600c54600a819055505b600a546009541180156132ad57506000601f60006001600a5461329c9190619c87565b815260200190815260200160002054145b15613347576000601b6000600a54815260200190815260200160002054670de0b6b3a7640000601d6000600a548152602001908152602001600020546132f39190619cbb565b6132fd9190619d44565b905080601f6000600b548152602001908152602001600020546133209190619c87565b601f60006001600a546133339190619c87565b815260200190815260200160002081905550505b613357613352618b29565b618b5b565b600060196000613365618b29565b73ffffffffffffffffffffffffffffffffffffffff1673ffffffffffffffffffffffffffffffffffffffff168152602001908152602001600020549050600081116133e5576040517f08c379a00000000000000000000000000000000000000000000000000000000081526004016133dc90619f84565b60405180910390fd5b6000601960006133f3618b29565b73ffffffffffffffffffffffffffffffffffffffff1673ffffffffffffffffffffffffffffffffffffffff16815260200190815260200160002081905550600c54600a540361345a5780600e600082825461344e9190619c87565b92505081905550613495565b80601b600060095481526020019081526020016000205461347b9190619d75565b601b60006009548152602001908152602001600020819055505b3373ffffffffffffffffffffffffffffffffffffffff166009547ff6e077fa8aa208fda7f40a3e01cf265fedc892acf37043a708953eaa607c8634836040516134de9190619195565b60405180910390a3600560009054906101000a900473ffffffffffffffffffffffffffffffffffffffff1673ffffffffffffffffffffffffffffffffffffffff16639a49090e61352c618b29565b836040518363ffffffff1660e01b815260040161354a929190619eb6565b600060405180830381600087803b15801561356457600080fd5b505af1158015613578573d6000803e3d6000fd5b505050505050565b6060600360008373ffffffffffffffffffffffffffffffffffffffff1673ffffffffffffffffffffffffffffffffffffffff168152602001908152602001600020805480602002602001604051908101604052809291908181526020016000905b8282101561375157838290600052602060002090600302016040518060400160405290816000820180548060200260200160405190810160405280929190818152602001828054801561368957602002820191906000526020600020905b8160009054906101000a900473ffffffffffffffffffffffffffffffffffffffff1673ffffffffffffffffffffffffffffffffffffffff168152602001906001019080831161363f575b50505050508152602001600182016040518060400160405290816000820180546136b29061a065565b80601f01602080910402602001604051908101604052809291908181526020018280546136de9061a065565b801561372b5780601f106137005761010080835404028352916020019161372b565b820191906000526020600020905b81548152906001019060200180831161370e57829003601f168201915b5050505050815260200160018201548152505081525050815260200190600101906135e1565b505050509050919050565b60007f000000000000000000000000000000000000000000000000000000000000000073ffffffffffffffffffffffffffffffffffffffff168273ffffffffffffffffffffffffffffffffffffffff16149050919050565b6060600460008373ffffffffffffffffffffffffffffffffffffffff1673ffffffffffffffffffffffffffffffffffffffff16815260200190815260200160002080548060200260200160405190810160405280929190818152602001828054801561387557602002820191906000526020600020905b8160009054906101000a900473ffffffffffffffffffffffffffffffffffffffff1673ffffffffffffffffffffffffffffffffffffffff168152602001906001019080831161382b575b50505050509050919050565b600e5481565b600080601760008473ffffffffffffffffffffffffffffffffffffffff1673ffffffffffffffffffffffffffffffffffffffff16815260200190815260200160002054905060006138d661728f565b9050601360008573ffffffffffffffffffffffffffffffffffffffff1673ffffffffffffffffffffffffffffffffffffffff168152602001908152602001600020548111801561396657506000601160008673ffffffffffffffffffffffffffffffffffffffff1673ffffffffffffffffffffffffffffffffffffffff1681526020019081526020016000205414155b15613b7c57600060126000601360008873ffffffffffffffffffffffffffffffffffffffff1673ffffffffffffffffffffffffffffffffffffffff16815260200190815260200160002054815260200190815260200160002054601a6000601360008973ffffffffffffffffffffffffffffffffffffffff1673ffffffffffffffffffffffffffffffffffffffff16815260200190815260200160002054815260200190815260200160002054601160008873ffffffffffffffffffffffffffffffffffffffff1673ffffffffffffffffffffffffffffffffffffffff16815260200190815260200160002054613a5d9190619cbb565b613a679190619d44565b90508083613a759190619c87565b92506000600f60008773ffffffffffffffffffffffffffffffffffffffff1673ffffffffffffffffffffffffffffffffffffffff1681526020019081526020016000205414613b7a576000601160008773ffffffffffffffffffffffffffffffffffffffff1673ffffffffffffffffffffffffffffffffffffffff1681526020019081526020016000205482613b0b9190619d44565b90506000612710600f60008973ffffffffffffffffffffffffffffffffffffffff1673ffffffffffffffffffffffffffffffffffffffff1681526020019081526020016000205483613b5d9190619cbb565b613b679190619d44565b90508085613b759190619d75565b945050505b505b8192505050919050565b6060600260008473ffffffffffffffffffffffffffffffffffffffff1673ffffffffffffffffffffffffffffffffffffffff16815260200190815260200160002060008373ffffffffffffffffffffffffffffffffffffffff1673ffffffffffffffffffffffffffffffffffffffff168152602001908152602001600020805480602002602001604051908101604052809291908181526020016000905b82821015613cf25783829060005260206000209060020201604051806040016040529081600082018054613c579061a065565b80601f0160208091040260200160405190810160405280929190818152602001828054613c839061a065565b8015613cd05780601f10613ca557610100808354040283529160200191613cd0565b820191906000526020600020905b815481529060010190602001808311613cb357829003601f168201915b5050505050815260200160018201548152505081526020019060010190613c24565b50505050905092915050565b8060005a90506000613d0e61728f565b9050600954811115613d2257806009819055505b600c5460095414613d4c576001600a54613d3c9190619c87565b600b81905550600c54600a819055505b600a54600954118015613d8057506000601f60006001600a54613d6f9190619c87565b815260200190815260200160002054145b15613e1a576000601b6000600a54815260200190815260200160002054670de0b6b3a7640000601d6000600a54815260200190815260200160002054613dc69190619cbb565b613dd09190619d44565b905080601f6000600b54815260200190815260200160002054613df39190619c87565b601f60006001600a54613e069190619c87565b815260200190815260200160002081905550505b6000601a600060095481526020019081526020016000205403613fa0576006546007819055506000613e4a618ae1565b90508060068190555080601a600060095481526020019081526020016000208190555080600d81905550600954600c81905550600654601b6000600a54815260200190815260200160002054613ea09190619c87565b601b6000600c5481526020019081526020016000206000828254613ec49190619c87565b92505081905550600060085414613f0c57600854601b6000600c5481526020019081526020016000206000828254613efc9190619c87565b9250508190555060006008819055505b6000600e5414613f4d57600e54601b6000600c5481526020019081526020016000206000828254613f3d9190619d75565b925050819055506000600e819055505b6009547f0666a61c1092f5b86c2cfe6ea1ad0d9a36032c4fb92d285b4e43f662d48f19b482601b6000600c54815260200190815260200160002054604051613f9692919061a096565b60405180910390a2505b613fa8618b29565b601360008273ffffffffffffffffffffffffffffffffffffffff1673ffffffffffffffffffffffffffffffffffffffff1681526020019081526020016000205460095411801561403857506000601160008373ffffffffffffffffffffffffffffffffffffffff1673ffffffffffffffffffffffffffffffffffffffff1681526020019081526020016000205414155b1561436857600060126000601360008573ffffffffffffffffffffffffffffffffffffffff1673ffffffffffffffffffffffffffffffffffffffff16815260200190815260200160002054815260200190815260200160002054601a6000601360008673ffffffffffffffffffffffffffffffffffffffff1673ffffffffffffffffffffffffffffffffffffffff16815260200190815260200160002054815260200190815260200160002054601160008573ffffffffffffffffffffffffffffffffffffffff1673ffffffffffffffffffffffffffffffffffffffff1681526020019081526020016000205461412f9190619cbb565b6141399190619d44565b905080601760008473ffffffffffffffffffffffffffffffffffffffff1673ffffffffffffffffffffffffffffffffffffffff168152602001908152602001600020600082825461418a9190619c87565b925050819055506000600f60008473ffffffffffffffffffffffffffffffffffffffff1673ffffffffffffffffffffffffffffffffffffffff1681526020019081526020016000205414614321576000601160008473ffffffffffffffffffffffffffffffffffffffff1673ffffffffffffffffffffffffffffffffffffffff16815260200190815260200160002054826142259190619d44565b90506000612710600f60008673ffffffffffffffffffffffffffffffffffffffff1673ffffffffffffffffffffffffffffffffffffffff16815260200190815260200160002054836142779190619cbb565b6142819190619d44565b905080601760008673ffffffffffffffffffffffffffffffffffffffff1673ffffffffffffffffffffffffffffffffffffffff16815260200190815260200160002060008282546142d29190619d75565b925050819055506000600f60008673ffffffffffffffffffffffffffffffffffffffff1673ffffffffffffffffffffffffffffffffffffffff1681526020019081526020016000208190555050505b6000601160008473ffffffffffffffffffffffffffffffffffffffff1673ffffffffffffffffffffffffffffffffffffffff16815260200190815260200160002081905550505b600a546009541180156143c857506001600a546143859190619c87565b601c60008373ffffffffffffffffffffffffffffffffffffffff1673ffffffffffffffffffffffffffffffffffffffff1681526020019081526020016000205414155b1561458957670de0b6b3a7640000601f6000601c60008573ffffffffffffffffffffffffffffffffffffffff1673ffffffffffffffffffffffffffffffffffffffff16815260200190815260200160002054815260200190815260200160002054601f60006001600a5461443c9190619c87565b8152602001908152602001600020546144559190619d75565b601760008473ffffffffffffffffffffffffffffffffffffffff1673ffffffffffffffffffffffffffffffffffffffff1681526020019081526020016000205461449f9190619cbb565b6144a99190619d44565b601860008373ffffffffffffffffffffffffffffffffffffffff1673ffffffffffffffffffffffffffffffffffffffff168152602001908152602001600020546144f39190619c87565b601860008373ffffffffffffffffffffffffffffffffffffffff1673ffffffffffffffffffffffffffffffffffffffff168152602001908152602001600020819055506001600a546145459190619c87565b601c60008373ffffffffffffffffffffffffffffffffffffffff1673ffffffffffffffffffffffffffffffffffffffff168152602001908152602001600020819055505b6000602260008373ffffffffffffffffffffffffffffffffffffffff1673ffffffffffffffffffffffffffffffffffffffff168152602001908152602001600020541415801561462557506000602260008373ffffffffffffffffffffffffffffffffffffffff1673ffffffffffffffffffffffffffffffffffffffff168152602001908152602001600020546009546146239190619d75565b115b15614f3e576000602060008373ffffffffffffffffffffffffffffffffffffffff1673ffffffffffffffffffffffffffffffffffffffff1681526020019081526020016000206000602260008573ffffffffffffffffffffffffffffffffffffffff1673ffffffffffffffffffffffffffffffffffffffff16815260200190815260200160002054815260200190815260200160002054905080601760008473ffffffffffffffffffffffffffffffffffffffff1673ffffffffffffffffffffffffffffffffffffffff168152602001908152602001600020600082825461470d9190619c87565b9250508190555080602160008473ffffffffffffffffffffffffffffffffffffffff1673ffffffffffffffffffffffffffffffffffffffff16815260200190815260200160002060008282546147639190619c87565b92505081905550670de0b6b3a7640000601f6000602260008673ffffffffffffffffffffffffffffffffffffffff1673ffffffffffffffffffffffffffffffffffffffff16815260200190815260200160002054815260200190815260200160002054601f60006001600a546147d99190619c87565b8152602001908152602001600020546147f29190619d75565b602060008573ffffffffffffffffffffffffffffffffffffffff1673ffffffffffffffffffffffffffffffffffffffff1681526020019081526020016000206000602260008773ffffffffffffffffffffffffffffffffffffffff1673ffffffffffffffffffffffffffffffffffffffff1681526020019081526020016000205481526020019081526020016000205461488c9190619cbb565b6148969190619d44565b601860008473ffffffffffffffffffffffffffffffffffffffff1673ffffffffffffffffffffffffffffffffffffffff168152602001908152602001600020546148e09190619c87565b601860008473ffffffffffffffffffffffffffffffffffffffff1673ffffffffffffffffffffffffffffffffffffffff168152602001908152602001600020819055506000602060008473ffffffffffffffffffffffffffffffffffffffff1673ffffffffffffffffffffffffffffffffffffffff1681526020019081526020016000206000602260008673ffffffffffffffffffffffffffffffffffffffff1673ffffffffffffffffffffffffffffffffffffffff168152602001908152602001600020548152602001908152602001600020819055506000602260008473ffffffffffffffffffffffffffffffffffffffff1673ffffffffffffffffffffffffffffffffffffffff168152602001908152602001600020819055506000602360008473ffffffffffffffffffffffffffffffffffffffff1673ffffffffffffffffffffffffffffffffffffffff1681526020019081526020016000205414614f3c576001602360008473ffffffffffffffffffffffffffffffffffffffff1673ffffffffffffffffffffffffffffffffffffffff16815260200190815260200160002054600954614a939190619d75565b1115614e72576000602060008473ffffffffffffffffffffffffffffffffffffffff1673ffffffffffffffffffffffffffffffffffffffff1681526020019081526020016000206000602360008673ffffffffffffffffffffffffffffffffffffffff1673ffffffffffffffffffffffffffffffffffffffff16815260200190815260200160002054815260200190815260200160002054905080601760008573ffffffffffffffffffffffffffffffffffffffff1673ffffffffffffffffffffffffffffffffffffffff1681526020019081526020016000206000828254614b7c9190619c87565b9250508190555080602160008573ffffffffffffffffffffffffffffffffffffffff1673ffffffffffffffffffffffffffffffffffffffff1681526020019081526020016000206000828254614bd29190619c87565b92505081905550670de0b6b3a7640000601f6000602360008773ffffffffffffffffffffffffffffffffffffffff1673ffffffffffffffffffffffffffffffffffffffff16815260200190815260200160002054815260200190815260200160002054601f60006001600a54614c489190619c87565b815260200190815260200160002054614c619190619d75565b602060008673ffffffffffffffffffffffffffffffffffffffff1673ffffffffffffffffffffffffffffffffffffffff1681526020019081526020016000206000602360008873ffffffffffffffffffffffffffffffffffffffff1673ffffffffffffffffffffffffffffffffffffffff16815260200190815260200160002054815260200190815260200160002054614cfb9190619cbb565b614d059190619d44565b601860008573ffffffffffffffffffffffffffffffffffffffff1673ffffffffffffffffffffffffffffffffffffffff16815260200190815260200160002054614d4f9190619c87565b601860008573ffffffffffffffffffffffffffffffffffffffff1673ffffffffffffffffffffffffffffffffffffffff168152602001908152602001600020819055506000602060008573ffffffffffffffffffffffffffffffffffffffff1673ffffffffffffffffffffffffffffffffffffffff1681526020019081526020016000206000602360008773ffffffffffffffffffffffffffffffffffffffff1673ffffffffffffffffffffffffffffffffffffffff168152602001908152602001600020548152602001908152602001600020819055506000602360008573ffffffffffffffffffffffffffffffffffffffff1673ffffffffffffffffffffffffffffffffffffffff1681526020019081526020016000208190555050614f3b565b602360008373ffffffffffffffffffffffffffffffffffffffff1673ffffffffffffffffffffffffffffffffffffffff16815260200190815260200160002054602260008473ffffffffffffffffffffffffffffffffffffffff1673ffffffffffffffffffffffffffffffffffffffff168152602001908152602001600020819055506000602360008473ffffffffffffffffffffffffffffffffffffffff1673ffffffffffffffffffffffffffffffffffffffff168152602001908152602001600020819055505b5b505b614f4787618b5b565b60116000614f53618b29565b73ffffffffffffffffffffffffffffffffffffffff1673ffffffffffffffffffffffffffffffffffffffff1681526020019081526020016000206000815480929190614f9e9061a0bf565b91905055506012600060095481526020019081526020016000206000815480929190614fc99061a0bf565b919050555060095460136000614fdd618b29565b73ffffffffffffffffffffffffffffffffffffffff1673ffffffffffffffffffffffffffffffffffffffff16815260200190815260200160002081905550600073ffffffffffffffffffffffffffffffffffffffff168773ffffffffffffffffffffffffffffffffffffffff161461516b576000861461510b5785600f6000615064618b29565b73ffffffffffffffffffffffffffffffffffffffff1673ffffffffffffffffffffffffffffffffffffffff16815260200190815260200160002060008282546150ad9190619c87565b9250508190555085601060008973ffffffffffffffffffffffffffffffffffffffff1673ffffffffffffffffffffffffffffffffffffffff16815260200190815260200160002060008282546151039190619c87565b925050819055505b6000851461516a5784601660008973ffffffffffffffffffffffffffffffffffffffff1673ffffffffffffffffffffffffffffffffffffffff16815260200190815260200160002060008282546151629190619c87565b925050819055505b5b60006151778a8a616b33565b90508773ffffffffffffffffffffffffffffffffffffffff16816009547f6288811d8cdbed319ad675bb04053011e25d30480e6eb483c02d54ef3bc863f18a8a6040516151c592919061a096565b60405180910390a450505060006127106103e861ffff163a6179845a866151ec9190619d75565b6151f69190619c87565b6152009190619cbb565b61520a9190619cbb565b6152149190619d44565b90508083346152239190619d75565b1015615264576040517f08c379a000000000000000000000000000000000000000000000000000000000815260040161525b9061a179565b60405180910390fd5b615284338483346152759190619d75565b61527f9190619d75565b618faf565b80601d6000600954815260200190815260200160002060008282546152a99190619c87565b925050819055505050505050505050565b600560009054906101000a900473ffffffffffffffffffffffffffffffffffffffff1681565b60006152ea61728f565b90506009548111156152fe57806009819055505b600c5460095414615328576001600a546153189190619c87565b600b81905550600c54600a819055505b600a5460095411801561535c57506000601f60006001600a5461534b9190619c87565b815260200190815260200160002054145b156153f6576000601b6000600a54815260200190815260200160002054670de0b6b3a7640000601d6000600a548152602001908152602001600020546153a29190619cbb565b6153ac9190619d44565b905080601f6000600b548152602001908152602001600020546153cf9190619c87565b601f60006001600a546153e29190619c87565b815260200190815260200160002081905550505b6153fe618b29565b601360008273ffffffffffffffffffffffffffffffffffffffff1673ffffffffffffffffffffffffffffffffffffffff1681526020019081526020016000205460095411801561548e57506000601160008373ffffffffffffffffffffffffffffffffffffffff1673ffffffffffffffffffffffffffffffffffffffff1681526020019081526020016000205414155b156157be57600060126000601360008573ffffffffffffffffffffffffffffffffffffffff1673ffffffffffffffffffffffffffffffffffffffff16815260200190815260200160002054815260200190815260200160002054601a6000601360008673ffffffffffffffffffffffffffffffffffffffff1673ffffffffffffffffffffffffffffffffffffffff16815260200190815260200160002054815260200190815260200160002054601160008573ffffffffffffffffffffffffffffffffffffffff1673ffffffffffffffffffffffffffffffffffffffff168152602001908152602001600020546155859190619cbb565b61558f9190619d44565b905080601760008473ffffffffffffffffffffffffffffffffffffffff1673ffffffffffffffffffffffffffffffffffffffff16815260200190815260200160002060008282546155e09190619c87565b925050819055506000600f60008473ffffffffffffffffffffffffffffffffffffffff1673ffffffffffffffffffffffffffffffffffffffff1681526020019081526020016000205414615777576000601160008473ffffffffffffffffffffffffffffffffffffffff1673ffffffffffffffffffffffffffffffffffffffff168152602001908152602001600020548261567b9190619d44565b90506000612710600f60008673ffffffffffffffffffffffffffffffffffffffff1673ffffffffffffffffffffffffffffffffffffffff16815260200190815260200160002054836156cd9190619cbb565b6156d79190619d44565b905080601760008673ffffffffffffffffffffffffffffffffffffffff1673ffffffffffffffffffffffffffffffffffffffff16815260200190815260200160002060008282546157289190619d75565b925050819055506000600f60008673ffffffffffffffffffffffffffffffffffffffff1673ffffffffffffffffffffffffffffffffffffffff1681526020019081526020016000208190555050505b6000601160008473ffffffffffffffffffffffffffffffffffffffff1673ffffffffffffffffffffffffffffffffffffffff16815260200190815260200160002081905550505b600a5460095411801561581e57506001600a546157db9190619c87565b601c60008373ffffffffffffffffffffffffffffffffffffffff1673ffffffffffffffffffffffffffffffffffffffff1681526020019081526020016000205414155b156159df57670de0b6b3a7640000601f6000601c60008573ffffffffffffffffffffffffffffffffffffffff1673ffffffffffffffffffffffffffffffffffffffff16815260200190815260200160002054815260200190815260200160002054601f60006001600a546158929190619c87565b8152602001908152602001600020546158ab9190619d75565b601760008473ffffffffffffffffffffffffffffffffffffffff1673ffffffffffffffffffffffffffffffffffffffff168152602001908152602001600020546158f59190619cbb565b6158ff9190619d44565b601860008373ffffffffffffffffffffffffffffffffffffffff1673ffffffffffffffffffffffffffffffffffffffff168152602001908152602001600020546159499190619c87565b601860008373ffffffffffffffffffffffffffffffffffffffff1673ffffffffffffffffffffffffffffffffffffffff168152602001908152602001600020819055506001600a5461599b9190619c87565b601c60008373ffffffffffffffffffffffffffffffffffffffff1673ffffffffffffffffffffffffffffffffffffffff168152602001908152602001600020819055505b6000602260008373ffffffffffffffffffffffffffffffffffffffff1673ffffffffffffffffffffffffffffffffffffffff1681526020019081526020016000205414158015615a7b57506000602260008373ffffffffffffffffffffffffffffffffffffffff1673ffffffffffffffffffffffffffffffffffffffff16815260200190815260200160002054600954615a799190619d75565b115b15616394576000602060008373ffffffffffffffffffffffffffffffffffffffff1673ffffffffffffffffffffffffffffffffffffffff1681526020019081526020016000206000602260008573ffffffffffffffffffffffffffffffffffffffff1673ffffffffffffffffffffffffffffffffffffffff16815260200190815260200160002054815260200190815260200160002054905080601760008473ffffffffffffffffffffffffffffffffffffffff1673ffffffffffffffffffffffffffffffffffffffff1681526020019081526020016000206000828254615b639190619c87565b9250508190555080602160008473ffffffffffffffffffffffffffffffffffffffff1673ffffffffffffffffffffffffffffffffffffffff1681526020019081526020016000206000828254615bb99190619c87565b92505081905550670de0b6b3a7640000601f6000602260008673ffffffffffffffffffffffffffffffffffffffff1673ffffffffffffffffffffffffffffffffffffffff16815260200190815260200160002054815260200190815260200160002054601f60006001600a54615c2f9190619c87565b815260200190815260200160002054615c489190619d75565b602060008573ffffffffffffffffffffffffffffffffffffffff1673ffffffffffffffffffffffffffffffffffffffff1681526020019081526020016000206000602260008773ffffffffffffffffffffffffffffffffffffffff1673ffffffffffffffffffffffffffffffffffffffff16815260200190815260200160002054815260200190815260200160002054615ce29190619cbb565b615cec9190619d44565b601860008473ffffffffffffffffffffffffffffffffffffffff1673ffffffffffffffffffffffffffffffffffffffff16815260200190815260200160002054615d369190619c87565b601860008473ffffffffffffffffffffffffffffffffffffffff1673ffffffffffffffffffffffffffffffffffffffff168152602001908152602001600020819055506000602060008473ffffffffffffffffffffffffffffffffffffffff1673ffffffffffffffffffffffffffffffffffffffff1681526020019081526020016000206000602260008673ffffffffffffffffffffffffffffffffffffffff1673ffffffffffffffffffffffffffffffffffffffff168152602001908152602001600020548152602001908152602001600020819055506000602260008473ffffffffffffffffffffffffffffffffffffffff1673ffffffffffffffffffffffffffffffffffffffff168152602001908152602001600020819055506000602360008473ffffffffffffffffffffffffffffffffffffffff1673ffffffffffffffffffffffffffffffffffffffff1681526020019081526020016000205414616392576001602360008473ffffffffffffffffffffffffffffffffffffffff1673ffffffffffffffffffffffffffffffffffffffff16815260200190815260200160002054600954615ee99190619d75565b11156162c8576000602060008473ffffffffffffffffffffffffffffffffffffffff1673ffffffffffffffffffffffffffffffffffffffff1681526020019081526020016000206000602360008673ffffffffffffffffffffffffffffffffffffffff1673ffffffffffffffffffffffffffffffffffffffff16815260200190815260200160002054815260200190815260200160002054905080601760008573ffffffffffffffffffffffffffffffffffffffff1673ffffffffffffffffffffffffffffffffffffffff1681526020019081526020016000206000828254615fd29190619c87565b9250508190555080602160008573ffffffffffffffffffffffffffffffffffffffff1673ffffffffffffffffffffffffffffffffffffffff16815260200190815260200160002060008282546160289190619c87565b92505081905550670de0b6b3a7640000601f6000602360008773ffffffffffffffffffffffffffffffffffffffff1673ffffffffffffffffffffffffffffffffffffffff16815260200190815260200160002054815260200190815260200160002054601f60006001600a5461609e9190619c87565b8152602001908152602001600020546160b79190619d75565b602060008673ffffffffffffffffffffffffffffffffffffffff1673ffffffffffffffffffffffffffffffffffffffff1681526020019081526020016000206000602360008873ffffffffffffffffffffffffffffffffffffffff1673ffffffffffffffffffffffffffffffffffffffff168152602001908152602001600020548152602001908152602001600020546161519190619cbb565b61615b9190619d44565b601860008573ffffffffffffffffffffffffffffffffffffffff1673ffffffffffffffffffffffffffffffffffffffff168152602001908152602001600020546161a59190619c87565b601860008573ffffffffffffffffffffffffffffffffffffffff1673ffffffffffffffffffffffffffffffffffffffff168152602001908152602001600020819055506000602060008573ffffffffffffffffffffffffffffffffffffffff1673ffffffffffffffffffffffffffffffffffffffff1681526020019081526020016000206000602360008773ffffffffffffffffffffffffffffffffffffffff1673ffffffffffffffffffffffffffffffffffffffff168152602001908152602001600020548152602001908152602001600020819055506000602360008573ffffffffffffffffffffffffffffffffffffffff1673ffffffffffffffffffffffffffffffffffffffff1681526020019081526020016000208190555050616391565b602360008373ffffffffffffffffffffffffffffffffffffffff1673ffffffffffffffffffffffffffffffffffffffff16815260200190815260200160002054602260008473ffffffffffffffffffffffffffffffffffffffff1673ffffffffffffffffffffffffffffffffffffffff168152602001908152602001600020819055506000602360008473ffffffffffffffffffffffffffffffffffffffff1673ffffffffffffffffffffffffffffffffffffffff168152602001908152602001600020819055505b5b505b600083036163d7576040517f08c379a00000000000000000000000000000000000000000000000000000000081526004016163ce90619df5565b60405180910390fd5b82600860008282546163e99190619c87565b92505081905550600060016009546164019190619c87565b9050600c54600a54036164145760095490505b60226000616420618b29565b73ffffffffffffffffffffffffffffffffffffffff1673ffffffffffffffffffffffffffffffffffffffff16815260200190815260200160002054600954141580156164b4575060236000616473618b29565b73ffffffffffffffffffffffffffffffffffffffff1673ffffffffffffffffffffffffffffffffffffffff1681526020019081526020016000205460095414155b156165f3576000602260006164c7618b29565b73ffffffffffffffffffffffffffffffffffffffff1673ffffffffffffffffffffffffffffffffffffffff1681526020019081526020016000205403616557578060226000616514618b29565b73ffffffffffffffffffffffffffffffffffffffff1673ffffffffffffffffffffffffffffffffffffffff168152602001908152602001600020819055506165f2565b600060236000616565618b29565b73ffffffffffffffffffffffffffffffffffffffff1673ffffffffffffffffffffffffffffffffffffffff16815260200190815260200160002054036165f15780602360006165b2618b29565b73ffffffffffffffffffffffffffffffffffffffff1673ffffffffffffffffffffffffffffffffffffffff168152602001908152602001600020819055505b5b5b8360206000616600618b29565b73ffffffffffffffffffffffffffffffffffffffff1673ffffffffffffffffffffffffffffffffffffffff1681526020019081526020016000206000838152602001908152602001600020600082825461665a9190619c87565b925050819055503373ffffffffffffffffffffffffffffffffffffffff16817f18dcd430020e4d4899772fd94a8b40451dc5044dfb70bc46b532eeae431c864f866040516166a89190619195565b60405180910390a3600560009054906101000a900473ffffffffffffffffffffffffffffffffffffffff1673ffffffffffffffffffffffffffffffffffffffff166323b872dd6166f6618b29565b30876040518463ffffffff1660e01b81526004016167169392919061a199565b6020604051808303816000875af1158015616735573d6000803e3d6000fd5b505050506040513d601f19601f820116820180604052508101906167599190619f0b565b5050505050565b60216020528060005260406000206000915090505481565b600047905090565b6060600160008373ffffffffffffffffffffffffffffffffffffffff1673ffffffffffffffffffffffffffffffffffffffff16815260200190815260200160002080546167cc9061a065565b80601f01602080910402602001604051908101604052809291908181526020018280546167f89061a065565b80156168455780601f1061681a57610100808354040283529160200191616845565b820191906000526020600020905b81548152906001019060200180831161682857829003601f168201915b50505050509050919050565b60008061685c61728f565b9050600080602260008673ffffffffffffffffffffffffffffffffffffffff1673ffffffffffffffffffffffffffffffffffffffff16815260200190815260200160002054141580156168f957506001602260008673ffffffffffffffffffffffffffffffffffffffff1673ffffffffffffffffffffffffffffffffffffffff16815260200190815260200160002054836168f79190619d75565b115b15616ad957602060008573ffffffffffffffffffffffffffffffffffffffff1673ffffffffffffffffffffffffffffffffffffffff1681526020019081526020016000206000602260008773ffffffffffffffffffffffffffffffffffffffff1673ffffffffffffffffffffffffffffffffffffffff16815260200190815260200160002054815260200190815260200160002054816169999190619c87565b90506000602360008673ffffffffffffffffffffffffffffffffffffffff1673ffffffffffffffffffffffffffffffffffffffff1681526020019081526020016000205414158015616a3557506001602360008673ffffffffffffffffffffffffffffffffffffffff1673ffffffffffffffffffffffffffffffffffffffff1681526020019081526020016000205483616a339190619d75565b115b15616ad857602060008573ffffffffffffffffffffffffffffffffffffffff1673ffffffffffffffffffffffffffffffffffffffff1681526020019081526020016000206000602360008773ffffffffffffffffffffffffffffffffffffffff1673ffffffffffffffffffffffffffffffffffffffff1681526020019081526020016000205481526020019081526020016000205481616ad59190619c87565b90505b5b80602160008673ffffffffffffffffffffffffffffffffffffffff1673ffffffffffffffffffffffffffffffffffffffff16815260200190815260200160002054616b249190619c87565b92505050919050565b60005481565b600080600090505b60018451616b499190619d75565b811015616ebb57600060026000868481518110616b6957616b6861a1d0565b5b602002602001015173ffffffffffffffffffffffffffffffffffffffff1673ffffffffffffffffffffffffffffffffffffffff1681526020019081526020016000206000616bb5618b29565b73ffffffffffffffffffffffffffffffffffffffff1673ffffffffffffffffffffffffffffffffffffffff1681526020019081526020016000208054905003616cba5760046000858381518110616c0f57616c0e61a1d0565b5b602002602001015173ffffffffffffffffffffffffffffffffffffffff1673ffffffffffffffffffffffffffffffffffffffff168152602001908152602001600020616c59618b29565b9080600181540180825580915050600190039060005260206000200160009091909190916101000a81548173ffffffffffffffffffffffffffffffffffffffff021916908373ffffffffffffffffffffffffffffffffffffffff1602179055505b60006040518060400160405280858481518110616cda57616cd961a1d0565b5b6020026020010151815260200142815250905060026000868481518110616d0457616d0361a1d0565b5b602002602001015173ffffffffffffffffffffffffffffffffffffffff1673ffffffffffffffffffffffffffffffffffffffff1681526020019081526020016000206000616d50618b29565b73ffffffffffffffffffffffffffffffffffffffff1673ffffffffffffffffffffffffffffffffffffffff1681526020019081526020016000208190806001815401808255809150506001900390600052602060002090600202016000909190919091506000820151816000019081616dc9919061a3a1565b506020820151816001015550506000848381518110616deb57616dea61a1d0565b5b6020026020010151604051602001616e03919061a4af565b60405160208183030381529060405280519060200120905080616e24618b29565b73ffffffffffffffffffffffffffffffffffffffff16878581518110616e4d57616e4c61a1d0565b5b602002602001015173ffffffffffffffffffffffffffffffffffffffff167fd255a04e9537ee418651bfdd3be3efed3b9f677f36ba9e488e0d27340c97961f85600054604051616e9e92919061a503565b60405180910390a450508080616eb39061a0bf565b915050616b3b565b50600060405180604001604052808460018751616ed89190619d75565b81518110616ee957616ee861a1d0565b5b6020026020010151815260200142815250905060008360018651616f0d9190619d75565b81518110616f1e57616f1d61a1d0565b5b6020026020010151604051602001616f36919061a4af565b60405160208183030381529060405280519060200120905080616f57618b29565b73ffffffffffffffffffffffffffffffffffffffff16616f75618b29565b73ffffffffffffffffffffffffffffffffffffffff167fd255a04e9537ee418651bfdd3be3efed3b9f677f36ba9e488e0d27340c97961f85600054604051616fbe92919061a503565b60405180910390a4600060405180604001604052808660018951616fe29190619d75565b81518110616ff357616ff261a1d0565b5b6020026020010151815260200142815250905060036000617012618b29565b73ffffffffffffffffffffffffffffffffffffffff1673ffffffffffffffffffffffffffffffffffffffff168152602001908152602001600020604051806040016040528088815260200183815250908060018154018082558091505060019003906000526020600020906003020160009091909190915060008201518160000190805190602001906170a6929190619068565b5060208201518160010160008201518160000190816170c5919061a3a1565b5060208201518160010155505050506000805490506000808154809291906170ec9061a0bf565b91905055508094505050505092915050565b6001602052806000526040600020600091509050805461711d9061a065565b80601f01602080910402602001604051908101604052809291908181526020018280546171499061a065565b80156171965780601f1061716b57610100808354040283529160200191617196565b820191906000526020600020905b81548152906001019060200180831161717957829003601f168201915b505050505081565b601a6020528060005260406000206000915090505481565b80600160006171c3618b29565b73ffffffffffffffffffffffffffffffffffffffff1673ffffffffffffffffffffffffffffffffffffffff1681526020019081526020016000209081617209919061a3a1565b5060008160405160200161721d919061a4af565b6040516020818303038152906040528051906020012090508061723e618b29565b73ffffffffffffffffffffffffffffffffffffffff167f1db169902a3b228ab764219bfc023384698a05b8a3d1bd2e046867a1dedf78a9846040516172839190619b3d565b60405180910390a35050565b60007f00000000000000000000000000000000000000000000000000000000000000007f0000000000000000000000000000000000000000000000000000000000000000426172de9190619d75565b6172e89190619d44565b905090565b601f6020528060005260406000206000915090505481565b60008061731061728f565b90506000601860008573ffffffffffffffffffffffffffffffffffffffff1673ffffffffffffffffffffffffffffffffffffffff168152602001908152602001600020549050600080600b5490506000600a549050600c548514617385576001600a5461737d9190619c87565b9150600c5490505b80851180156173b357506000601f60006001846173a29190619c87565b815260200190815260200160002054145b1561742a576000601b600083815260200190815260200160002054670de0b6b3a7640000601d6000858152602001908152602001600020546173f59190619cbb565b6173ff9190619d44565b905080601f6000600b548152602001908152602001600020546174229190619c87565b935050617443565b601f6000600b5481526020019081526020016000205492505b600061744e88613887565b905081861180156174aa57506001826174679190619c87565b601c60008a73ffffffffffffffffffffffffffffffffffffffff1673ffffffffffffffffffffffffffffffffffffffff1681526020019081526020016000205414155b1561753957670de0b6b3a7640000601f6000601c60008c73ffffffffffffffffffffffffffffffffffffffff1673ffffffffffffffffffffffffffffffffffffffff16815260200190815260200160002054815260200190815260200160002054856175169190619d75565b826175219190619cbb565b61752b9190619d44565b856175369190619c87565b94505b6000602260008a73ffffffffffffffffffffffffffffffffffffffff1673ffffffffffffffffffffffffffffffffffffffff16815260200190815260200160002054141580156175d357506001602260008a73ffffffffffffffffffffffffffffffffffffffff1673ffffffffffffffffffffffffffffffffffffffff16815260200190815260200160002054876175d19190619d75565b115b156178a957670de0b6b3a7640000601f6000602260008c73ffffffffffffffffffffffffffffffffffffffff1673ffffffffffffffffffffffffffffffffffffffff168152602001908152602001600020548152602001908152602001600020548561763f9190619d75565b602060008b73ffffffffffffffffffffffffffffffffffffffff1673ffffffffffffffffffffffffffffffffffffffff1681526020019081526020016000206000602260008d73ffffffffffffffffffffffffffffffffffffffff1673ffffffffffffffffffffffffffffffffffffffff168152602001908152602001600020548152602001908152602001600020546176d99190619cbb565b6176e39190619d44565b856176ee9190619c87565b94506000602360008a73ffffffffffffffffffffffffffffffffffffffff1673ffffffffffffffffffffffffffffffffffffffff168152602001908152602001600020541415801561778a57506001602360008a73ffffffffffffffffffffffffffffffffffffffff1673ffffffffffffffffffffffffffffffffffffffff16815260200190815260200160002054876177889190619d75565b115b156178a857670de0b6b3a7640000601f6000602360008c73ffffffffffffffffffffffffffffffffffffffff1673ffffffffffffffffffffffffffffffffffffffff16815260200190815260200160002054815260200190815260200160002054856177f69190619d75565b602060008b73ffffffffffffffffffffffffffffffffffffffff1673ffffffffffffffffffffffffffffffffffffffff1681526020019081526020016000206000602360008d73ffffffffffffffffffffffffffffffffffffffff1673ffffffffffffffffffffffffffffffffffffffff168152602001908152602001600020548152602001908152602001600020546178909190619cbb565b61789a9190619d44565b856178a59190619c87565b94505b5b849650505050505050919050565b60176020528060005260406000206000915090505481565b601b6020528060005260406000206000915090505481565b60006178f161728f565b905060095481111561790557806009819055505b600c546009541461792f576001600a5461791f9190619c87565b600b81905550600c54600a819055505b600a5460095411801561796357506000601f60006001600a546179529190619c87565b815260200190815260200160002054145b156179fd576000601b6000600a54815260200190815260200160002054670de0b6b3a7640000601d6000600a548152602001908152602001600020546179a99190619cbb565b6179b39190619d44565b905080601f6000600b548152602001908152602001600020546179d69190619c87565b601f60006001600a546179e99190619c87565b815260200190815260200160002081905550505b617a05618b29565b601360008273ffffffffffffffffffffffffffffffffffffffff1673ffffffffffffffffffffffffffffffffffffffff16815260200190815260200160002054600954118015617a9557506000601160008373ffffffffffffffffffffffffffffffffffffffff1673ffffffffffffffffffffffffffffffffffffffff1681526020019081526020016000205414155b15617dc557600060126000601360008573ffffffffffffffffffffffffffffffffffffffff1673ffffffffffffffffffffffffffffffffffffffff16815260200190815260200160002054815260200190815260200160002054601a6000601360008673ffffffffffffffffffffffffffffffffffffffff1673ffffffffffffffffffffffffffffffffffffffff16815260200190815260200160002054815260200190815260200160002054601160008573ffffffffffffffffffffffffffffffffffffffff1673ffffffffffffffffffffffffffffffffffffffff16815260200190815260200160002054617b8c9190619cbb565b617b969190619d44565b905080601760008473ffffffffffffffffffffffffffffffffffffffff1673ffffffffffffffffffffffffffffffffffffffff1681526020019081526020016000206000828254617be79190619c87565b925050819055506000600f60008473ffffffffffffffffffffffffffffffffffffffff1673ffffffffffffffffffffffffffffffffffffffff1681526020019081526020016000205414617d7e576000601160008473ffffffffffffffffffffffffffffffffffffffff1673ffffffffffffffffffffffffffffffffffffffff1681526020019081526020016000205482617c829190619d44565b90506000612710600f60008673ffffffffffffffffffffffffffffffffffffffff1673ffffffffffffffffffffffffffffffffffffffff1681526020019081526020016000205483617cd49190619cbb565b617cde9190619d44565b905080601760008673ffffffffffffffffffffffffffffffffffffffff1673ffffffffffffffffffffffffffffffffffffffff1681526020019081526020016000206000828254617d2f9190619d75565b925050819055506000600f60008673ffffffffffffffffffffffffffffffffffffffff1673ffffffffffffffffffffffffffffffffffffffff1681526020019081526020016000208190555050505b6000601160008473ffffffffffffffffffffffffffffffffffffffff1673ffffffffffffffffffffffffffffffffffffffff16815260200190815260200160002081905550505b600a54600954118015617e2557506001600a54617de29190619c87565b601c60008373ffffffffffffffffffffffffffffffffffffffff1673ffffffffffffffffffffffffffffffffffffffff1681526020019081526020016000205414155b15617fe657670de0b6b3a7640000601f6000601c60008573ffffffffffffffffffffffffffffffffffffffff1673ffffffffffffffffffffffffffffffffffffffff16815260200190815260200160002054815260200190815260200160002054601f60006001600a54617e999190619c87565b815260200190815260200160002054617eb29190619d75565b601760008473ffffffffffffffffffffffffffffffffffffffff1673ffffffffffffffffffffffffffffffffffffffff16815260200190815260200160002054617efc9190619cbb565b617f069190619d44565b601860008373ffffffffffffffffffffffffffffffffffffffff1673ffffffffffffffffffffffffffffffffffffffff16815260200190815260200160002054617f509190619c87565b601860008373ffffffffffffffffffffffffffffffffffffffff1673ffffffffffffffffffffffffffffffffffffffff168152602001908152602001600020819055506001600a54617fa29190619c87565b601c60008373ffffffffffffffffffffffffffffffffffffffff1673ffffffffffffffffffffffffffffffffffffffff168152602001908152602001600020819055505b6000602260008373ffffffffffffffffffffffffffffffffffffffff1673ffffffffffffffffffffffffffffffffffffffff168152602001908152602001600020541415801561808257506000602260008373ffffffffffffffffffffffffffffffffffffffff1673ffffffffffffffffffffffffffffffffffffffff168152602001908152602001600020546009546180809190619d75565b115b1561899b576000602060008373ffffffffffffffffffffffffffffffffffffffff1673ffffffffffffffffffffffffffffffffffffffff1681526020019081526020016000206000602260008573ffffffffffffffffffffffffffffffffffffffff1673ffffffffffffffffffffffffffffffffffffffff16815260200190815260200160002054815260200190815260200160002054905080601760008473ffffffffffffffffffffffffffffffffffffffff1673ffffffffffffffffffffffffffffffffffffffff168152602001908152602001600020600082825461816a9190619c87565b9250508190555080602160008473ffffffffffffffffffffffffffffffffffffffff1673ffffffffffffffffffffffffffffffffffffffff16815260200190815260200160002060008282546181c09190619c87565b92505081905550670de0b6b3a7640000601f6000602260008673ffffffffffffffffffffffffffffffffffffffff1673ffffffffffffffffffffffffffffffffffffffff16815260200190815260200160002054815260200190815260200160002054601f60006001600a546182369190619c87565b81526020019081526020016000205461824f9190619d75565b602060008573ffffffffffffffffffffffffffffffffffffffff1673ffffffffffffffffffffffffffffffffffffffff1681526020019081526020016000206000602260008773ffffffffffffffffffffffffffffffffffffffff1673ffffffffffffffffffffffffffffffffffffffff168152602001908152602001600020548152602001908152602001600020546182e99190619cbb565b6182f39190619d44565b601860008473ffffffffffffffffffffffffffffffffffffffff1673ffffffffffffffffffffffffffffffffffffffff1681526020019081526020016000205461833d9190619c87565b601860008473ffffffffffffffffffffffffffffffffffffffff1673ffffffffffffffffffffffffffffffffffffffff168152602001908152602001600020819055506000602060008473ffffffffffffffffffffffffffffffffffffffff1673ffffffffffffffffffffffffffffffffffffffff1681526020019081526020016000206000602260008673ffffffffffffffffffffffffffffffffffffffff1673ffffffffffffffffffffffffffffffffffffffff168152602001908152602001600020548152602001908152602001600020819055506000602260008473ffffffffffffffffffffffffffffffffffffffff1673ffffffffffffffffffffffffffffffffffffffff168152602001908152602001600020819055506000602360008473ffffffffffffffffffffffffffffffffffffffff1673ffffffffffffffffffffffffffffffffffffffff1681526020019081526020016000205414618999576001602360008473ffffffffffffffffffffffffffffffffffffffff1673ffffffffffffffffffffffffffffffffffffffff168152602001908152602001600020546009546184f09190619d75565b11156188cf576000602060008473ffffffffffffffffffffffffffffffffffffffff1673ffffffffffffffffffffffffffffffffffffffff1681526020019081526020016000206000602360008673ffffffffffffffffffffffffffffffffffffffff1673ffffffffffffffffffffffffffffffffffffffff16815260200190815260200160002054815260200190815260200160002054905080601760008573ffffffffffffffffffffffffffffffffffffffff1673ffffffffffffffffffffffffffffffffffffffff16815260200190815260200160002060008282546185d99190619c87565b9250508190555080602160008573ffffffffffffffffffffffffffffffffffffffff1673ffffffffffffffffffffffffffffffffffffffff168152602001908152602001600020600082825461862f9190619c87565b92505081905550670de0b6b3a7640000601f6000602360008773ffffffffffffffffffffffffffffffffffffffff1673ffffffffffffffffffffffffffffffffffffffff16815260200190815260200160002054815260200190815260200160002054601f60006001600a546186a59190619c87565b8152602001908152602001600020546186be9190619d75565b602060008673ffffffffffffffffffffffffffffffffffffffff1673ffffffffffffffffffffffffffffffffffffffff1681526020019081526020016000206000602360008873ffffffffffffffffffffffffffffffffffffffff1673ffffffffffffffffffffffffffffffffffffffff168152602001908152602001600020548152602001908152602001600020546187589190619cbb565b6187629190619d44565b601860008573ffffffffffffffffffffffffffffffffffffffff1673ffffffffffffffffffffffffffffffffffffffff168152602001908152602001600020546187ac9190619c87565b601860008573ffffffffffffffffffffffffffffffffffffffff1673ffffffffffffffffffffffffffffffffffffffff168152602001908152602001600020819055506000602060008573ffffffffffffffffffffffffffffffffffffffff1673ffffffffffffffffffffffffffffffffffffffff1681526020019081526020016000206000602360008773ffffffffffffffffffffffffffffffffffffffff1673ffffffffffffffffffffffffffffffffffffffff168152602001908152602001600020548152602001908152602001600020819055506000602360008573ffffffffffffffffffffffffffffffffffffffff1673ffffffffffffffffffffffffffffffffffffffff1681526020019081526020016000208190555050618998565b602360008373ffffffffffffffffffffffffffffffffffffffff1673ffffffffffffffffffffffffffffffffffffffff16815260200190815260200160002054602260008473ffffffffffffffffffffffffffffffffffffffff1673ffffffffffffffffffffffffffffffffffffffff168152602001908152602001600020819055506000602360008473ffffffffffffffffffffffffffffffffffffffff1673ffffffffffffffffffffffffffffffffffffffff168152602001908152602001600020819055505b5b505b6000601860006189a9618b29565b73ffffffffffffffffffffffffffffffffffffffff1673ffffffffffffffffffffffffffffffffffffffff16815260200190815260200160002054905060008111618a29576040517f08c379a0000000000000000000000000000000000000000000000000000000008152600401618a209061a016565b60405180910390fd5b600060186000618a37618b29565b73ffffffffffffffffffffffffffffffffffffffff1673ffffffffffffffffffffffffffffffffffffffff16815260200190815260200160002081905550618a86618a80618b29565b82618faf565b3373ffffffffffffffffffffffffffffffffffffffff16618aa561728f565b7f2227733fc4c8a9034cb58087dcf6995128b9c0233b038b03366aaf30c92b92d683604051618ad49190619195565b60405180910390a3505050565b6000612723612710600754618af69190619cbb565b618b009190619d44565b905090565b6103e881565b600c5481565b60186020528060005260406000206000915090505481565b6000618b343361375c565b15618b4857601436033560601c9050618b57565b618b50619060565b9050618b58565b5b90565b601460008273ffffffffffffffffffffffffffffffffffffffff1673ffffffffffffffffffffffffffffffffffffffff168152602001908152602001600020546009541115618dc3576000601460008373ffffffffffffffffffffffffffffffffffffffff1673ffffffffffffffffffffffffffffffffffffffff1681526020019081526020016000205490506000601060008473ffffffffffffffffffffffffffffffffffffffff1673ffffffffffffffffffffffffffffffffffffffff1681526020019081526020016000205414158015618c4c57506000601260008381526020019081526020016000205414155b15618d7b5760006012600083815260200190815260200160002054601a600084815260200190815260200160002054618c859190619d44565b9050612710601060008573ffffffffffffffffffffffffffffffffffffffff1673ffffffffffffffffffffffffffffffffffffffff1681526020019081526020016000205482618cd59190619cbb565b618cdf9190619d44565b601960008573ffffffffffffffffffffffffffffffffffffffff1673ffffffffffffffffffffffffffffffffffffffff1681526020019081526020016000206000828254618d2d9190619c87565b925050819055506000601060008573ffffffffffffffffffffffffffffffffffffffff1673ffffffffffffffffffffffffffffffffffffffff16815260200190815260200160002081905550505b600954601460008473ffffffffffffffffffffffffffffffffffffffff1673ffffffffffffffffffffffffffffffffffffffff16815260200190815260200160002081905550505b600a54600954118015618e2357506001600a54618de09190619c87565b601560008373ffffffffffffffffffffffffffffffffffffffff1673ffffffffffffffffffffffffffffffffffffffff1681526020019081526020016000205414155b15618fac57670de0b6b3a7640000601f6000601560008573ffffffffffffffffffffffffffffffffffffffff1673ffffffffffffffffffffffffffffffffffffffff16815260200190815260200160002054815260200190815260200160002054601f60006001600a54618e979190619c87565b815260200190815260200160002054618eb09190619d75565b601960008473ffffffffffffffffffffffffffffffffffffffff1673ffffffffffffffffffffffffffffffffffffffff16815260200190815260200160002054618efa9190619cbb565b618f049190619d44565b601660008373ffffffffffffffffffffffffffffffffffffffff1673ffffffffffffffffffffffffffffffffffffffff1681526020019081526020016000206000828254618f529190619c87565b925050819055506001600a54618f689190619c87565b601560008373ffffffffffffffffffffffffffffffffffffffff1673ffffffffffffffffffffffffffffffffffffffff168152602001908152602001600020819055505b50565b60008273ffffffffffffffffffffffffffffffffffffffff1682604051618fd59061a564565b60006040518083038185875af1925050503d8060008114619012576040519150601f19603f3d011682016040523d82523d6000602084013e619017565b606091505b505090508061905b576040517f08c379a00000000000000000000000000000000000000000000000000000000081526004016190529061a5c5565b60405180910390fd5b505050565b600033905090565b8280548282559060005260206000209081019282156190e1579160200282015b828111156190e05782518260006101000a81548173ffffffffffffffffffffffffffffffffffffffff021916908373ffffffffffffffffffffffffffffffffffffffff16021790555091602001919060010190619088565b5b5090506190ee91906190f2565b5090565b5b8082111561910b5760008160009055506001016190f3565b5090565b6000604051905090565b600080fd5b600080fd5b6000819050919050565b61913681619123565b811461914157600080fd5b50565b6000813590506191538161912d565b92915050565b60006020828403121561916f5761916e619119565b5b600061917d84828501619144565b91505092915050565b61918f81619123565b82525050565b60006020820190506191aa6000830184619186565b92915050565b600073ffffffffffffffffffffffffffffffffffffffff82169050919050565b60006191db826191b0565b9050919050565b6191eb816191d0565b81146191f657600080fd5b50565b600081359050619208816191e2565b92915050565b60006020828403121561922457619223619119565b5b6000619232848285016191f9565b91505092915050565b600081519050919050565b600082825260208201905092915050565b6000819050602082019050919050565b600081519050919050565b600082825260208201905092915050565b6000819050602082019050919050565b61929c816191d0565b82525050565b60006192ae8383619293565b60208301905092915050565b6000602082019050919050565b60006192d282619267565b6192dc8185619272565b93506192e783619283565b8060005b838110156193185781516192ff88826192a2565b975061930a836192ba565b9250506001810190506192eb565b5085935050505092915050565b600081519050919050565b600082825260208201905092915050565b60005b8381101561935f578082015181840152602081019050619344565b60008484015250505050565b6000601f19601f8301169050919050565b600061938782619325565b6193918185619330565b93506193a1818560208601619341565b6193aa8161936b565b840191505092915050565b6193be81619123565b82525050565b600060408301600083015184820360008601526193e1828261937c565b91505060208301516193f660208601826193b5565b508091505092915050565b6000604083016000830151848203600086015261941e82826192c7565b9150506020830151848203602086015261943882826193c4565b9150508091505092915050565b60006194518383619401565b905092915050565b6000602082019050919050565b60006194718261923b565b61947b8185619246565b93508360208202850161948d85619257565b8060005b858110156194c957848403895281516194aa8582619445565b94506194b583619459565b925060208a01995050600181019050619491565b50829750879550505050505092915050565b600060208201905081810360008301526194f58184619466565b905092915050565b60008115159050919050565b619512816194fd565b82525050565b600060208201905061952d6000830184619509565b92915050565b600082825260208201905092915050565b600061954f82619267565b6195598185619533565b935061956483619283565b8060005b8381101561959557815161957c88826192a2565b9750619587836192ba565b925050600181019050619568565b5085935050505092915050565b600060208201905081810360008301526195bc8184619544565b905092915050565b600080604083850312156195db576195da619119565b5b60006195e9858286016191f9565b92505060206195fa858286016191f9565b9150509250929050565b600081519050919050565b600082825260208201905092915050565b6000819050602082019050919050565b600061963c83836193c4565b905092915050565b6000602082019050919050565b600061965c82619604565b619666818561960f565b93508360208202850161967885619620565b8060005b858110156196b457848403895281516196958582619630565b94506196a083619644565b925060208a0199505060018101905061967c565b50829750879550505050505092915050565b600060208201905081810360008301526196e08184619651565b905092915050565b600080fd5b7f4e487b7100000000000000000000000000000000000000000000000000000000600052604160045260246000fd5b6197258261936b565b810181811067ffffffffffffffff82111715619744576197436196ed565b5b80604052505050565b600061975761910f565b9050619763828261971c565b919050565b600067ffffffffffffffff821115619783576197826196ed565b5b602082029050602081019050919050565b600080fd5b60006197ac6197a784619768565b61974d565b905080838252602082019050602084028301858111156197cf576197ce619794565b5b835b818110156197f857806197e488826191f9565b8452602084019350506020810190506197d1565b5050509392505050565b600082601f830112619817576198166196e8565b5b8135619827848260208601619799565b91505092915050565b600067ffffffffffffffff82111561984b5761984a6196ed565b5b602082029050602081019050919050565b600080fd5b600067ffffffffffffffff82111561987c5761987b6196ed565b5b6198858261936b565b9050602081019050919050565b82818337600083830152505050565b60006198b46198af84619861565b61974d565b9050828152602081018484840111156198d0576198cf61985c565b5b6198db848285619892565b509392505050565b600082601f8301126198f8576198f76196e8565b5b81356199088482602086016198a1565b91505092915050565b600061992461991f84619830565b61974d565b9050808382526020820190506020840283018581111561994757619946619794565b5b835b8181101561998e57803567ffffffffffffffff81111561996c5761996b6196e8565b5b80860161997989826198e3565b85526020850194505050602081019050619949565b5050509392505050565b600082601f8301126199ad576199ac6196e8565b5b81356199bd848260208601619911565b91505092915050565b600080600080600060a086880312156199e2576199e1619119565b5b600086013567ffffffffffffffff811115619a00576199ff61911e565b5b619a0c88828901619802565b955050602086013567ffffffffffffffff811115619a2d57619a2c61911e565b5b619a3988828901619998565b9450506040619a4a888289016191f9565b9350506060619a5b88828901619144565b9250506080619a6c88828901619144565b9150509295509295909350565b6000819050919050565b6000619a9e619a99619a94846191b0565b619a79565b6191b0565b9050919050565b6000619ab082619a83565b9050919050565b6000619ac282619aa5565b9050919050565b619ad281619ab7565b82525050565b6000602082019050619aed6000830184619ac9565b92915050565b600082825260208201905092915050565b6000619b0f82619325565b619b198185619af3565b9350619b29818560208601619341565b619b328161936b565b840191505092915050565b60006020820190508181036000830152619b578184619b04565b905092915050565b60008060408385031215619b7657619b75619119565b5b600083013567ffffffffffffffff811115619b9457619b9361911e565b5b619ba085828601619802565b925050602083013567ffffffffffffffff811115619bc157619bc061911e565b5b619bcd85828601619998565b9150509250929050565b600060208284031215619bed57619bec619119565b5b600082013567ffffffffffffffff811115619c0b57619c0a61911e565b5b619c17848285016198e3565b91505092915050565b600061ffff82169050919050565b619c3781619c20565b82525050565b6000602082019050619c526000830184619c2e565b92915050565b7f4e487b7100000000000000000000000000000000000000000000000000000000600052601160045260246000fd5b6000619c9282619123565b9150619c9d83619123565b9250828201905080821115619cb557619cb4619c58565b5b92915050565b6000619cc682619123565b9150619cd183619123565b9250817fffffffffffffffffffffffffffffffffffffffffffffffffffffffffffffffff0483118215151615619d0a57619d09619c58565b5b828202905092915050565b7f4e487b7100000000000000000000000000000000000000000000000000000000600052601260045260246000fd5b6000619d4f82619123565b9150619d5a83619123565b925082619d6a57619d69619d15565b5b828204905092915050565b6000619d8082619123565b9150619d8b83619123565b9250828203905081811115619da357619da2619c58565b5b92915050565b7f44656230783a20796f757220616d6f756e742069732030000000000000000000600082015250565b6000619ddf601783619af3565b9150619dea82619da9565b602082019050919050565b60006020820190508181036000830152619e0e81619dd2565b9050919050565b7f44656230783a2063616e206e6f7420756e7374616b65206d6f7265207468616e60008201527f20796f75277665207374616b6564000000000000000000000000000000000000602082015250565b6000619e71602e83619af3565b9150619e7c82619e15565b604082019050919050565b60006020820190508181036000830152619ea081619e64565b9050919050565b619eb0816191d0565b82525050565b6000604082019050619ecb6000830185619ea7565b619ed86020830184619186565b9392505050565b619ee8816194fd565b8114619ef357600080fd5b50565b600081519050619f0581619edf565b92915050565b600060208284031215619f2157619f20619119565b5b6000619f2f84828501619ef6565b91505092915050565b7f44656230783a20596f7520646f206e6f74206861766520726577617264730000600082015250565b6000619f6e601e83619af3565b9150619f7982619f38565b602082019050919050565b60006020820190508181036000830152619f9d81619f61565b9050919050565b7f44656230783a20596f7520646f206e6f7420686176652061636372756564206660008201527f6565730000000000000000000000000000000000000000000000000000000000602082015250565b600061a000602383619af3565b915061a00b82619fa4565b604082019050919050565b6000602082019050818103600083015261a02f81619ff3565b9050919050565b7f4e487b7100000000000000000000000000000000000000000000000000000000600052602260045260246000fd5b6000600282049050600182168061a07d57607f821691505b60208210810361a0905761a08f61a036565b5b50919050565b600060408201905061a0ab6000830185619186565b61a0b86020830184619186565b9392505050565b600061a0ca82619123565b91507fffffffffffffffffffffffffffffffffffffffffffffffffffffffffffffffff820361a0fc5761a0fb619c58565b5b600182019050919050565b7f44656230783a206d7573742070617920313025206f66207472616e736163746960008201527f6f6e20636f737400000000000000000000000000000000000000000000000000602082015250565b600061a163602783619af3565b915061a16e8261a107565b604082019050919050565b6000602082019050818103600083015261a1928161a156565b9050919050565b600060608201905061a1ae6000830186619ea7565b61a1bb6020830185619ea7565b61a1c86040830184619186565b949350505050565b7f4e487b7100000000000000000000000000000000000000000000000000000000600052603260045260246000fd5b60008190508160005260206000209050919050565b60006020601f8301049050919050565b600082821b905092915050565b60006008830261a2617fffffffffffffffffffffffffffffffffffffffffffffffffffffffffffffffff8261a224565b61a26b868361a224565b95508019841693508086168417925050509392505050565b600061a29e61a29961a29484619123565b619a79565b619123565b9050919050565b6000819050919050565b61a2b88361a283565b61a2cc61a2c48261a2a5565b84845461a231565b825550505050565b600090565b61a2e161a2d4565b61a2ec81848461a2af565b505050565b5b8181101561a3105761a30560008261a2d9565b60018101905061a2f2565b5050565b601f82111561a3555761a3268161a1ff565b61a32f8461a214565b8101602085101561a33e578190505b61a35261a34a8561a214565b83018261a2f1565b50505b505050565b600082821c905092915050565b600061a3786000198460080261a35a565b1980831691505092915050565b600061a391838361a367565b9150826002028217905092915050565b61a3aa82619325565b67ffffffffffffffff81111561a3c35761a3c26196ed565b5b61a3cd825461a065565b61a3d882828561a314565b600060209050601f83116001811461a40b576000841561a3f9578287015190505b61a403858261a385565b86555061a46b565b601f19841661a4198661a1ff565b60005b8281101561a4415784890151825560018201915060208501945060208101905061a41c565b8683101561a45e578489015161a45a601f89168261a367565b8355505b6001600288020188555050505b505050505050565b600081905092915050565b600061a48982619325565b61a493818561a473565b935061a4a3818560208601619341565b80840191505092915050565b600061a4bb828461a47e565b915081905092915050565b6000604083016000830151848203600086015261a4e3828261937c565b915050602083015161a4f860208601826193b5565b508091505092915050565b6000604082019050818103600083015261a51d818561a4c6565b905061a52c6020830184619186565b9392505050565b600081905092915050565b50565b600061a54e60008361a533565b915061a5598261a53e565b600082019050919050565b600061a56f8261a541565b9150819050919050565b7f44656230783a206661696c656420746f2073656e6420616d6f756e7400000000600082015250565b600061a5af601c83619af3565b915061a5ba8261a579565b602082019050919050565b6000602082019050818103600083015261a5de8161a5a2565b905091905056fea26469706673582212208b1887848fc465a976e22095dd5d27a7a3928f554957e65853cd4b7314b035f764736f6c6343000810003360806040523480156200001157600080fd5b506040518060400160405280600581526020017f44656230780000000000000000000000000000000000000000000000000000008152506040518060400160405280600381526020017f444258000000000000000000000000000000000000000000000000000000000081525081600390816200008f919062000365565b508060049081620000a1919062000365565b50505033600560006101000a81548173ffffffffffffffffffffffffffffffffffffffff021916908373ffffffffffffffffffffffffffffffffffffffff1602179055506200044c565b600081519050919050565b7f4e487b7100000000000000000000000000000000000000000000000000000000600052604160045260246000fd5b7f4e487b7100000000000000000000000000000000000000000000000000000000600052602260045260246000fd5b600060028204905060018216806200016d57607f821691505b60208210810362000183576200018262000125565b5b50919050565b60008190508160005260206000209050919050565b60006020601f8301049050919050565b600082821b905092915050565b600060088302620001ed7fffffffffffffffffffffffffffffffffffffffffffffffffffffffffffffffff82620001ae565b620001f98683620001ae565b95508019841693508086168417925050509392505050565b6000819050919050565b6000819050919050565b600062000246620002406200023a8462000211565b6200021b565b62000211565b9050919050565b6000819050919050565b620002628362000225565b6200027a62000271826200024d565b848454620001bb565b825550505050565b600090565b6200029162000282565b6200029e81848462000257565b505050565b5b81811015620002c657620002ba60008262000287565b600181019050620002a4565b5050565b601f8211156200031557620002df8162000189565b620002ea846200019e565b81016020851015620002fa578190505b6200031262000309856200019e565b830182620002a3565b50505b505050565b600082821c905092915050565b60006200033a600019846008026200031a565b1980831691505092915050565b600062000355838362000327565b9150826002028217905092915050565b6200037082620000eb565b67ffffffffffffffff8111156200038c576200038b620000f6565b5b62000398825462000154565b620003a5828285620002ca565b600060209050601f831160018114620003dd5760008415620003c8578287015190505b620003d4858262000347565b86555062000444565b601f198416620003ed8662000189565b60005b828110156200041757848901518255600182019150602085019450602081019050620003f0565b8683101562000437578489015162000433601f89168262000327565b8355505b6001600288020188555050505b505050505050565b6115bd806200045c6000396000f3fe608060405234801561001057600080fd5b50600436106100cf5760003560e01c806370a082311161008c5780639a49090e116100665780639a49090e1461022a578063a457c2d714610246578063a9059cbb14610276578063dd62ed3e146102a6576100cf565b806370a08231146101be5780638da5cb5b146101ee57806395d89b411461020c576100cf565b806306fdde03146100d4578063095ea7b3146100f257806318160ddd1461012257806323b872dd14610140578063313ce56714610170578063395093511461018e575b600080fd5b6100dc6102d6565b6040516100e99190610d98565b60405180910390f35b61010c60048036038101906101079190610e53565b610368565b6040516101199190610eae565b60405180910390f35b61012a61038b565b6040516101379190610ed8565b60405180910390f35b61015a60048036038101906101559190610ef3565b610395565b6040516101679190610eae565b60405180910390f35b6101786103c4565b6040516101859190610f62565b60405180910390f35b6101a860048036038101906101a39190610e53565b6103cd565b6040516101b59190610eae565b60405180910390f35b6101d860048036038101906101d39190610f7d565b610404565b6040516101e59190610ed8565b60405180910390f35b6101f661044c565b6040516102039190610fb9565b60405180910390f35b610214610472565b6040516102219190610d98565b60405180910390f35b610244600480360381019061023f9190610e53565b610504565b005b610260600480360381019061025b9190610e53565b6105a2565b60405161026d9190610eae565b60405180910390f35b610290600480360381019061028b9190610e53565b610619565b60405161029d9190610eae565b60405180910390f35b6102c060048036038101906102bb9190610fd4565b61063c565b6040516102cd9190610ed8565b60405180910390f35b6060600380546102e590611043565b80601f016020809104026020016040519081016040528092919081815260200182805461031190611043565b801561035e5780601f106103335761010080835404028352916020019161035e565b820191906000526020600020905b81548152906001019060200180831161034157829003601f168201915b5050505050905090565b6000806103736106c3565b90506103808185856106cb565b600191505092915050565b6000600254905090565b6000806103a06106c3565b90506103ad858285610894565b6103b8858585610920565b60019150509392505050565b60006012905090565b6000806103d86106c3565b90506103f98185856103ea858961063c565b6103f491906110a3565b6106cb565b600191505092915050565b60008060008373ffffffffffffffffffffffffffffffffffffffff1673ffffffffffffffffffffffffffffffffffffffff168152602001908152602001600020549050919050565b600560009054906101000a900473ffffffffffffffffffffffffffffffffffffffff1681565b60606004805461048190611043565b80601f01602080910402602001604051908101604052809291908181526020018280546104ad90611043565b80156104fa5780601f106104cf576101008083540402835291602001916104fa565b820191906000526020600020905b8154815290600101906020018083116104dd57829003601f168201915b5050505050905090565b600560009054906101000a900473ffffffffffffffffffffffffffffffffffffffff1673ffffffffffffffffffffffffffffffffffffffff163373ffffffffffffffffffffffffffffffffffffffff1614610594576040517f08c379a000000000000000000000000000000000000000000000000000000000815260040161058b90611123565b60405180910390fd5b61059e8282610b9f565b5050565b6000806105ad6106c3565b905060006105bb828661063c565b905083811015610600576040517f08c379a00000000000000000000000000000000000000000000000000000000081526004016105f7906111b5565b60405180910390fd5b61060d82868684036106cb565b60019250505092915050565b6000806106246106c3565b9050610631818585610920565b600191505092915050565b6000600160008473ffffffffffffffffffffffffffffffffffffffff1673ffffffffffffffffffffffffffffffffffffffff16815260200190815260200160002060008373ffffffffffffffffffffffffffffffffffffffff1673ffffffffffffffffffffffffffffffffffffffff16815260200190815260200160002054905092915050565b600033905090565b600073ffffffffffffffffffffffffffffffffffffffff168373ffffffffffffffffffffffffffffffffffffffff160361073a576040517f08c379a000000000000000000000000000000000000000000000000000000000815260040161073190611247565b60405180910390fd5b600073ffffffffffffffffffffffffffffffffffffffff168273ffffffffffffffffffffffffffffffffffffffff16036107a9576040517f08c379a00000000000000000000000000000000000000000000000000000000081526004016107a0906112d9565b60405180910390fd5b80600160008573ffffffffffffffffffffffffffffffffffffffff1673ffffffffffffffffffffffffffffffffffffffff16815260200190815260200160002060008473ffffffffffffffffffffffffffffffffffffffff1673ffffffffffffffffffffffffffffffffffffffff168152602001908152602001600020819055508173ffffffffffffffffffffffffffffffffffffffff168373ffffffffffffffffffffffffffffffffffffffff167f8c5be1e5ebec7d5bd14f71427d1e84f3dd0314c0f7b2291e5b200ac8c7c3b925836040516108879190610ed8565b60405180910390a3505050565b60006108a0848461063c565b90507fffffffffffffffffffffffffffffffffffffffffffffffffffffffffffffffff811461091a578181101561090c576040517f08c379a000000000000000000000000000000000000000000000000000000000815260040161090390611345565b60405180910390fd5b61091984848484036106cb565b5b50505050565b600073ffffffffffffffffffffffffffffffffffffffff168373ffffffffffffffffffffffffffffffffffffffff160361098f576040517f08c379a0000000000000000000000000000000000000000000000000000000008152600401610986906113d7565b60405180910390fd5b600073ffffffffffffffffffffffffffffffffffffffff168273ffffffffffffffffffffffffffffffffffffffff16036109fe576040517f08c379a00000000000000000000000000000000000000000000000000000000081526004016109f590611469565b60405180910390fd5b610a09838383610cfe565b60008060008573ffffffffffffffffffffffffffffffffffffffff1673ffffffffffffffffffffffffffffffffffffffff16815260200190815260200160002054905081811015610a8f576040517f08c379a0000000000000000000000000000000000000000000000000000000008152600401610a86906114fb565b60405180910390fd5b8181036000808673ffffffffffffffffffffffffffffffffffffffff1673ffffffffffffffffffffffffffffffffffffffff16815260200190815260200160002081905550816000808573ffffffffffffffffffffffffffffffffffffffff1673ffffffffffffffffffffffffffffffffffffffff1681526020019081526020016000206000828254610b2291906110a3565b925050819055508273ffffffffffffffffffffffffffffffffffffffff168473ffffffffffffffffffffffffffffffffffffffff167fddf252ad1be2c89b69c2b068fc378daa952ba7f163c4a11628f55a4df523b3ef84604051610b869190610ed8565b60405180910390a3610b99848484610d03565b50505050565b600073ffffffffffffffffffffffffffffffffffffffff168273ffffffffffffffffffffffffffffffffffffffff1603610c0e576040517f08c379a0000000000000000000000000000000000000000000000000000000008152600401610c0590611567565b60405180910390fd5b610c1a60008383610cfe565b8060026000828254610c2c91906110a3565b92505081905550806000808473ffffffffffffffffffffffffffffffffffffffff1673ffffffffffffffffffffffffffffffffffffffff1681526020019081526020016000206000828254610c8191906110a3565b925050819055508173ffffffffffffffffffffffffffffffffffffffff16600073ffffffffffffffffffffffffffffffffffffffff167fddf252ad1be2c89b69c2b068fc378daa952ba7f163c4a11628f55a4df523b3ef83604051610ce69190610ed8565b60405180910390a3610cfa60008383610d03565b5050565b505050565b505050565b600081519050919050565b600082825260208201905092915050565b60005b83811015610d42578082015181840152602081019050610d27565b60008484015250505050565b6000601f19601f8301169050919050565b6000610d6a82610d08565b610d748185610d13565b9350610d84818560208601610d24565b610d8d81610d4e565b840191505092915050565b60006020820190508181036000830152610db28184610d5f565b905092915050565b600080fd5b600073ffffffffffffffffffffffffffffffffffffffff82169050919050565b6000610dea82610dbf565b9050919050565b610dfa81610ddf565b8114610e0557600080fd5b50565b600081359050610e1781610df1565b92915050565b6000819050919050565b610e3081610e1d565b8114610e3b57600080fd5b50565b600081359050610e4d81610e27565b92915050565b60008060408385031215610e6a57610e69610dba565b5b6000610e7885828601610e08565b9250506020610e8985828601610e3e565b9150509250929050565b60008115159050919050565b610ea881610e93565b82525050565b6000602082019050610ec36000830184610e9f565b92915050565b610ed281610e1d565b82525050565b6000602082019050610eed6000830184610ec9565b92915050565b600080600060608486031215610f0c57610f0b610dba565b5b6000610f1a86828701610e08565b9350506020610f2b86828701610e08565b9250506040610f3c86828701610e3e565b9150509250925092565b600060ff82169050919050565b610f5c81610f46565b82525050565b6000602082019050610f776000830184610f53565b92915050565b600060208284031215610f9357610f92610dba565b5b6000610fa184828501610e08565b91505092915050565b610fb381610ddf565b82525050565b6000602082019050610fce6000830184610faa565b92915050565b60008060408385031215610feb57610fea610dba565b5b6000610ff985828601610e08565b925050602061100a85828601610e08565b9150509250929050565b7f4e487b7100000000000000000000000000000000000000000000000000000000600052602260045260246000fd5b6000600282049050600182168061105b57607f821691505b60208210810361106e5761106d611014565b5b50919050565b7f4e487b7100000000000000000000000000000000000000000000000000000000600052601160045260246000fd5b60006110ae82610e1d565b91506110b983610e1d565b92508282019050808211156110d1576110d0611074565b5b92915050565b7f43616c6c6572206973206e6f7420446562307820636f6e74726163742e000000600082015250565b600061110d601d83610d13565b9150611118826110d7565b602082019050919050565b6000602082019050818103600083015261113c81611100565b9050919050565b7f45524332303a2064656372656173656420616c6c6f77616e63652062656c6f7760008201527f207a65726f000000000000000000000000000000000000000000000000000000602082015250565b600061119f602583610d13565b91506111aa82611143565b604082019050919050565b600060208201905081810360008301526111ce81611192565b9050919050565b7f45524332303a20617070726f76652066726f6d20746865207a65726f2061646460008201527f7265737300000000000000000000000000000000000000000000000000000000602082015250565b6000611231602483610d13565b915061123c826111d5565b604082019050919050565b6000602082019050818103600083015261126081611224565b9050919050565b7f45524332303a20617070726f766520746f20746865207a65726f20616464726560008201527f7373000000000000000000000000000000000000000000000000000000000000602082015250565b60006112c3602283610d13565b91506112ce82611267565b604082019050919050565b600060208201905081810360008301526112f2816112b6565b9050919050565b7f45524332303a20696e73756666696369656e7420616c6c6f77616e6365000000600082015250565b600061132f601d83610d13565b915061133a826112f9565b602082019050919050565b6000602082019050818103600083015261135e81611322565b9050919050565b7f45524332303a207472616e736665722066726f6d20746865207a65726f20616460008201527f6472657373000000000000000000000000000000000000000000000000000000602082015250565b60006113c1602583610d13565b91506113cc82611365565b604082019050919050565b600060208201905081810360008301526113f0816113b4565b9050919050565b7f45524332303a207472616e7366657220746f20746865207a65726f206164647260008201527f6573730000000000000000000000000000000000000000000000000000000000602082015250565b6000611453602383610d13565b915061145e826113f7565b604082019050919050565b6000602082019050818103600083015261148281611446565b9050919050565b7f45524332303a207472616e7366657220616d6f756e742065786365656473206260008201527f616c616e63650000000000000000000000000000000000000000000000000000602082015250565b60006114e5602683610d13565b91506114f082611489565b604082019050919050565b60006020820190508181036000830152611514816114d8565b9050919050565b7f45524332303a206d696e7420746f20746865207a65726f206164647265737300600082015250565b6000611551601f83610d13565b915061155c8261151b565b602082019050919050565b6000602082019050818103600083015261158081611544565b905091905056fea2646970667358221220df46568725155975c34c19abaaedd25b2301786763fb6a23777f97662b7829ba64736f6c63430008100033",
    "linkReferences": {},
    "deployedLinkReferences": {}
}