{
  "_format": "hh-sol-artifact-1",
  "contractName": "Deb0x",
  "sourceName": "contracts/Deb0x.sol",
  "abi": [
    {
      "inputs": [],
      "stateMutability": "nonpayable",
      "type": "constructor"
    },
    {
      "inputs": [
        {
          "internalType": "address",
          "name": "",
          "type": "address"
        }
      ],
      "name": "balanceERC20",
      "outputs": [
        {
          "internalType": "uint256",
          "name": "",
          "type": "uint256"
        }
      ],
      "stateMutability": "view",
      "type": "function"
    },
    {
      "inputs": [],
      "name": "contractBalance",
      "outputs": [
        {
          "internalType": "uint256",
          "name": "",
          "type": "uint256"
        }
      ],
      "stateMutability": "view",
      "type": "function"
    },
    {
      "inputs": [],
      "name": "deboxERC20",
      "outputs": [
        {
          "internalType": "contract Deb0xERC20",
          "name": "",
          "type": "address"
        }
      ],
      "stateMutability": "view",
      "type": "function"
    },
    {
      "inputs": [
        {
          "internalType": "address",
          "name": "account",
          "type": "address"
        }
      ],
      "name": "earnedNative",
      "outputs": [
        {
          "internalType": "uint256",
          "name": "",
          "type": "uint256"
        }
      ],
      "stateMutability": "view",
      "type": "function"
    },
    {
      "inputs": [],
      "name": "fee",
      "outputs": [
        {
          "internalType": "uint16",
          "name": "",
          "type": "uint16"
        }
      ],
      "stateMutability": "view",
      "type": "function"
    },
    {
      "inputs": [
        {
          "internalType": "address",
          "name": "to",
          "type": "address"
        }
      ],
      "name": "fetchMessageSenders",
      "outputs": [
        {
          "internalType": "address[]",
          "name": "",
          "type": "address[]"
        }
      ],
      "stateMutability": "view",
      "type": "function"
    },
    {
      "inputs": [
        {
          "internalType": "address",
          "name": "to",
          "type": "address"
        },
        {
          "internalType": "address",
          "name": "from",
          "type": "address"
        }
      ],
      "name": "fetchMessages",
      "outputs": [
        {
          "internalType": "string[]",
          "name": "",
          "type": "string[]"
        }
      ],
      "stateMutability": "view",
      "type": "function"
    },
    {
      "inputs": [
        {
          "internalType": "address",
          "name": "account",
          "type": "address"
        }
      ],
      "name": "getKey",
      "outputs": [
        {
          "internalType": "string",
          "name": "",
          "type": "string"
        }
      ],
      "stateMutability": "view",
      "type": "function"
    },
    {
      "inputs": [],
      "name": "getRewardNative",
      "outputs": [],
      "stateMutability": "nonpayable",
      "type": "function"
    },
    {
      "inputs": [],
      "name": "initialize",
      "outputs": [],
      "stateMutability": "nonpayable",
      "type": "function"
    },
    {
      "inputs": [],
      "name": "lastUpdateTime",
      "outputs": [
        {
          "internalType": "uint256",
          "name": "",
          "type": "uint256"
        }
      ],
      "stateMutability": "view",
      "type": "function"
    },
    {
      "inputs": [],
      "name": "rewardPerToken",
      "outputs": [
        {
          "internalType": "uint256",
          "name": "",
          "type": "uint256"
        }
      ],
      "stateMutability": "view",
      "type": "function"
    },
    {
      "inputs": [],
      "name": "rewardPerTokenStored",
      "outputs": [
        {
          "internalType": "uint256",
          "name": "",
          "type": "uint256"
        }
      ],
      "stateMutability": "view",
      "type": "function"
    },
    {
      "inputs": [],
      "name": "rewardRate",
      "outputs": [
        {
          "internalType": "uint256",
          "name": "",
          "type": "uint256"
        }
      ],
      "stateMutability": "view",
      "type": "function"
    },
    {
      "inputs": [
        {
          "internalType": "address",
          "name": "",
          "type": "address"
        }
      ],
      "name": "rewards",
      "outputs": [
        {
          "internalType": "uint256",
          "name": "",
          "type": "uint256"
        }
      ],
      "stateMutability": "view",
      "type": "function"
    },
    {
      "inputs": [
        {
          "internalType": "address",
          "name": "to",
          "type": "address"
        },
        {
          "internalType": "string",
          "name": "payload",
          "type": "string"
        }
      ],
      "name": "send",
      "outputs": [],
      "stateMutability": "payable",
      "type": "function"
    },
    {
      "inputs": [
        {
          "internalType": "string",
          "name": "encryptionKey",
          "type": "string"
        }
      ],
      "name": "setKey",
      "outputs": [],
      "stateMutability": "nonpayable",
      "type": "function"
    },
    {
      "inputs": [
        {
          "internalType": "uint256",
          "name": "_amount",
          "type": "uint256"
        }
      ],
      "name": "stakeERC20",
      "outputs": [],
      "stateMutability": "nonpayable",
      "type": "function"
    },
    {
      "inputs": [],
      "name": "totalSupply",
      "outputs": [
        {
          "internalType": "uint256",
          "name": "",
          "type": "uint256"
        }
      ],
      "stateMutability": "view",
      "type": "function"
    },
    {
      "inputs": [
        {
          "internalType": "uint256",
          "name": "_amount",
          "type": "uint256"
        }
      ],
      "name": "unStakeERC20",
      "outputs": [],
      "stateMutability": "nonpayable",
      "type": "function"
    },
    {
      "inputs": [
        {
          "internalType": "address",
          "name": "",
          "type": "address"
        }
      ],
      "name": "userRewardPerTokenPaid",
      "outputs": [
        {
          "internalType": "uint256",
          "name": "",
          "type": "uint256"
        }
      ],
      "stateMutability": "view",
      "type": "function"
    }
  ],
  "bytecode": "0x608060405260008060146101000a81548160ff02191690831515021790555060646005553480156200003057600080fd5b50306040516200004090620000af565b6200004c919062000102565b604051809103906000f08015801562000069573d6000803e3d6000fd5b506000806101000a81548173ffffffffffffffffffffffffffffffffffffffff021916908373ffffffffffffffffffffffffffffffffffffffff1602179055506200011f565b61190a806200295683390190565b600073ffffffffffffffffffffffffffffffffffffffff82169050919050565b6000620000ea82620000bd565b9050919050565b620000fc81620000dd565b82525050565b6000602082019050620001196000830184620000f1565b92915050565b612827806200012f6000396000f3fe60806040526004361061012a5760003560e01c80638b876347116100ab578063b3328d341161006f578063b3328d34146103e5578063c8f33c9114610422578063cc7ef5091461044d578063cd3daf9d14610476578063ddca3f43146104a1578063df136d65146104cc5761012a565b80638b876347146102fd57806390a25a071461033a57806393790f441461036357806399142b5f146103a0578063af42d106146103bc5761012a565b806369131a47116100f257806369131a471461023c5780636d9384f9146102535780637b0a47ee146102905780638129fc1c146102bb5780638b7afe2e146102d25761012a565b80630700037d1461012f5780630f4ac71a1461016c57806318160ddd146101a957806357a0641f146101d457806358503a95146101ff575b600080fd5b34801561013b57600080fd5b506101566004803603810190610151919061187f565b6104f7565b60405161016391906118c5565b60405180910390f35b34801561017857600080fd5b50610193600480360381019061018e919061187f565b61050f565b6040516101a091906118c5565b60405180910390f35b3480156101b557600080fd5b506101be610527565b6040516101cb91906118c5565b60405180910390f35b3480156101e057600080fd5b506101e961052d565b6040516101f6919061193f565b60405180910390f35b34801561020b57600080fd5b506102266004803603810190610221919061187f565b610551565b6040516102339190611a18565b60405180910390f35b34801561024857600080fd5b5061025161061e565b005b34801561025f57600080fd5b5061027a60048036038101906102759190611a3a565b6107a0565b6040516102879190611bd5565b60405180910390f35b34801561029c57600080fd5b506102a56108f6565b6040516102b291906118c5565b60405180910390f35b3480156102c757600080fd5b506102d06108fc565b005b3480156102de57600080fd5b506102e7610b6e565b6040516102f491906118c5565b60405180910390f35b34801561030957600080fd5b50610324600480360381019061031f919061187f565b610b76565b60405161033191906118c5565b60405180910390f35b34801561034657600080fd5b50610361600480360381019061035c9190611c23565b610b8e565b005b34801561036f57600080fd5b5061038a6004803603810190610385919061187f565b610e1c565b6040516103979190611c9a565b60405180910390f35b6103ba60048036038101906103b59190611df1565b610eed565b005b3480156103c857600080fd5b506103e360048036038101906103de9190611e4d565b6112a2565b005b3480156103f157600080fd5b5061040c6004803603810190610407919061187f565b6112f9565b60405161041991906118c5565b60405180910390f35b34801561042e57600080fd5b50610437611444565b60405161044491906118c5565b60405180910390f35b34801561045957600080fd5b50610474600480360381019061046f9190611c23565b61144a565b005b34801561048257600080fd5b5061048b61164a565b60405161049891906118c5565b60405180910390f35b3480156104ad57600080fd5b506104b66116ad565b6040516104c39190611eb3565b60405180910390f35b3480156104d857600080fd5b506104e16116b3565b6040516104ee91906118c5565b60405180910390f35b60096020528060005260406000206000915090505481565b60046020528060005260406000206000915090505481565b600a5481565b60008054906101000a900473ffffffffffffffffffffffffffffffffffffffff1681565b6060600360008373ffffffffffffffffffffffffffffffffffffffff1673ffffffffffffffffffffffffffffffffffffffff16815260200190815260200160002080548060200260200160405190810160405280929190818152602001828054801561061257602002820191906000526020600020905b8160009054906101000a900473ffffffffffffffffffffffffffffffffffffffff1673ffffffffffffffffffffffffffffffffffffffff16815260200190600101908083116105c8575b50505050509050919050565b3361062761164a565b6007819055504260068190555061063d816112f9565b600960008373ffffffffffffffffffffffffffffffffffffffff1673ffffffffffffffffffffffffffffffffffffffff16815260200190815260200160002081905550600754600860008373ffffffffffffffffffffffffffffffffffffffff1673ffffffffffffffffffffffffffffffffffffffff168152602001908152602001600020819055506000600960003373ffffffffffffffffffffffffffffffffffffffff1673ffffffffffffffffffffffffffffffffffffffff1681526020019081526020016000205490506000811161074d576040517f08c379a000000000000000000000000000000000000000000000000000000000815260040161074490611f1a565b60405180910390fd5b6000600960003373ffffffffffffffffffffffffffffffffffffffff1673ffffffffffffffffffffffffffffffffffffffff1681526020019081526020016000208190555061079c33826116b9565b5050565b6060600260008473ffffffffffffffffffffffffffffffffffffffff1673ffffffffffffffffffffffffffffffffffffffff16815260200190815260200160002060008373ffffffffffffffffffffffffffffffffffffffff1673ffffffffffffffffffffffffffffffffffffffff168152602001908152602001600020805480602002602001604051908101604052809291908181526020016000905b828210156108ea57838290600052602060002001805461085d90611f69565b80601f016020809104026020016040519081016040528092919081815260200182805461088990611f69565b80156108d65780601f106108ab576101008083540402835291602001916108d6565b820191906000526020600020905b8154815290600101906020018083116108b957829003601f168201915b50505050508152602001906001019061083e565b50505050905092915050565b60055481565b60001515600060149054906101000a900460ff16151514610952576040517f08c379a00000000000000000000000000000000000000000000000000000000081526004016109499061200d565b60405180910390fd5b60008054906101000a900473ffffffffffffffffffffffffffffffffffffffff1673ffffffffffffffffffffffffffffffffffffffff1663095ea7b33060008054906101000a900473ffffffffffffffffffffffffffffffffffffffff1673ffffffffffffffffffffffffffffffffffffffff166318160ddd6040518163ffffffff1660e01b8152600401602060405180830381865afa1580156109fa573d6000803e3d6000fd5b505050506040513d601f19601f82011682018060405250810190610a1e9190612042565b6040518363ffffffff1660e01b8152600401610a3b92919061207e565b6020604051808303816000875af1158015610a5a573d6000803e3d6000fd5b505050506040513d601f19601f82011682018060405250810190610a7e91906120df565b5060008054906101000a900473ffffffffffffffffffffffffffffffffffffffff1673ffffffffffffffffffffffffffffffffffffffff166318160ddd6040518163ffffffff1660e01b8152600401602060405180830381865afa158015610aea573d6000803e3d6000fd5b505050506040513d601f19601f82011682018060405250810190610b0e9190612042565b600460003073ffffffffffffffffffffffffffffffffffffffff1673ffffffffffffffffffffffffffffffffffffffff168152602001908152602001600020819055506001600060146101000a81548160ff021916908315150217905550565b600047905090565b60086020528060005260406000206000915090505481565b33610b9761164a565b60078190555042600681905550610bad816112f9565b600960008373ffffffffffffffffffffffffffffffffffffffff1673ffffffffffffffffffffffffffffffffffffffff16815260200190815260200160002081905550600754600860008373ffffffffffffffffffffffffffffffffffffffff1673ffffffffffffffffffffffffffffffffffffffff168152602001908152602001600020819055506000821415610c7a576040517f08c379a0000000000000000000000000000000000000000000000000000000008152600401610c7190612158565b60405180910390fd5b600082600460003373ffffffffffffffffffffffffffffffffffffffff1673ffffffffffffffffffffffffffffffffffffffff16815260200190815260200160002054610cc791906121a7565b1015610d08576040517f08c379a0000000000000000000000000000000000000000000000000000000008152600401610cff90612227565b60405180910390fd5b81600a6000828254610d1a91906121a7565b9250508190555081600460003373ffffffffffffffffffffffffffffffffffffffff1673ffffffffffffffffffffffffffffffffffffffff1681526020019081526020016000206000828254610d7091906121a7565b9250508190555060008054906101000a900473ffffffffffffffffffffffffffffffffffffffff1673ffffffffffffffffffffffffffffffffffffffff166323b872dd3033856040518463ffffffff1660e01b8152600401610dd493929190612247565b6020604051808303816000875af1158015610df3573d6000803e3d6000fd5b505050506040513d601f19601f82011682018060405250810190610e1791906120df565b505050565b6060600160008373ffffffffffffffffffffffffffffffffffffffff1673ffffffffffffffffffffffffffffffffffffffff1681526020019081526020016000208054610e6890611f69565b80601f0160208091040260200160405190810160405280929190818152602001828054610e9490611f69565b8015610ee15780601f10610eb657610100808354040283529160200191610ee1565b820191906000526020600020905b815481529060010190602001808311610ec457829003601f168201915b50505050509050919050565b33610ef661164a565b60078190555042600681905550610f0c816112f9565b600960008373ffffffffffffffffffffffffffffffffffffffff1673ffffffffffffffffffffffffffffffffffffffff16815260200190815260200160002081905550600754600860008373ffffffffffffffffffffffffffffffffffffffff1673ffffffffffffffffffffffffffffffffffffffff168152602001908152602001600020819055506127106103e861ffff165a610faa919061227e565b610fb49190612307565b341015610ff6576040517f08c379a0000000000000000000000000000000000000000000000000000000008152600401610fed906123aa565b60405180910390fd5b6000600260008573ffffffffffffffffffffffffffffffffffffffff1673ffffffffffffffffffffffffffffffffffffffff16815260200190815260200160002060003373ffffffffffffffffffffffffffffffffffffffff1673ffffffffffffffffffffffffffffffffffffffff16815260200190815260200160002080549050141561111f57600360008473ffffffffffffffffffffffffffffffffffffffff1673ffffffffffffffffffffffffffffffffffffffff168152602001908152602001600020339080600181540180825580915050600190039060005260206000200160009091909190916101000a81548173ffffffffffffffffffffffffffffffffffffffff021916908373ffffffffffffffffffffffffffffffffffffffff1602179055505b6049600460003073ffffffffffffffffffffffffffffffffffffffff1673ffffffffffffffffffffffffffffffffffffffff168152602001908152602001600020600082825461116f91906121a7565b925050819055506049600460003373ffffffffffffffffffffffffffffffffffffffff1673ffffffffffffffffffffffffffffffffffffffff16815260200190815260200160002060008282546111c691906123ca565b925050819055506049600a60008282546111e091906123ca565b92505081905550600260008473ffffffffffffffffffffffffffffffffffffffff1673ffffffffffffffffffffffffffffffffffffffff16815260200190815260200160002060003373ffffffffffffffffffffffffffffffffffffffff1673ffffffffffffffffffffffffffffffffffffffff1681526020019081526020016000208290806001815401808255809150506001900390600052602060002001600090919091909150908051906020019061129c92919061176a565b50505050565b80600160003373ffffffffffffffffffffffffffffffffffffffff1673ffffffffffffffffffffffffffffffffffffffff16815260200190815260200160002090805190602001906112f592919061176a565b5050565b600080600960008473ffffffffffffffffffffffffffffffffffffffff1673ffffffffffffffffffffffffffffffffffffffff16815260200190815260200160002054670de0b6b3a7640000600860008673ffffffffffffffffffffffffffffffffffffffff1673ffffffffffffffffffffffffffffffffffffffff1681526020019081526020016000205461138d61164a565b611397919061242a565b600460008773ffffffffffffffffffffffffffffffffffffffff1673ffffffffffffffffffffffffffffffffffffffff168152602001908152602001600020546113e191906124be565b6113eb91906125d5565b6113f5919061263f565b9050600081121561143b576040517f08c379a00000000000000000000000000000000000000000000000000000000081526004016114329061271f565b60405180910390fd5b80915050919050565b60065481565b3361145361164a565b60078190555042600681905550611469816112f9565b600960008373ffffffffffffffffffffffffffffffffffffffff1673ffffffffffffffffffffffffffffffffffffffff16815260200190815260200160002081905550600754600860008373ffffffffffffffffffffffffffffffffffffffff1673ffffffffffffffffffffffffffffffffffffffff168152602001908152602001600020819055506000821415611536576040517f08c379a000000000000000000000000000000000000000000000000000000000815260040161152d90612158565b60405180910390fd5b81600a600082825461154891906123ca565b9250508190555081600460003373ffffffffffffffffffffffffffffffffffffffff1673ffffffffffffffffffffffffffffffffffffffff168152602001908152602001600020600082825461159e91906123ca565b9250508190555060008054906101000a900473ffffffffffffffffffffffffffffffffffffffff1673ffffffffffffffffffffffffffffffffffffffff166323b872dd3330856040518463ffffffff1660e01b815260040161160293929190612247565b6020604051808303816000875af1158015611621573d6000803e3d6000fd5b505050506040513d601f19601f8201168201806040525081019061164591906120df565b505050565b600080600a54141561165f57600090506116aa565b600a54670de0b6b3a76400006005546006544261167c91906121a7565b611686919061227e565b611690919061227e565b61169a9190612307565b6007546116a791906123ca565b90505b90565b6103e881565b60075481565b60008273ffffffffffffffffffffffffffffffffffffffff16826040516116df90612770565b60006040518083038185875af1925050503d806000811461171c576040519150601f19603f3d011682016040523d82523d6000602084013e611721565b606091505b5050905080611765576040517f08c379a000000000000000000000000000000000000000000000000000000000815260040161175c906127d1565b60405180910390fd5b505050565b82805461177690611f69565b90600052602060002090601f01602090048101928261179857600085556117df565b82601f106117b157805160ff19168380011785556117df565b828001600101855582156117df579182015b828111156117de5782518255916020019190600101906117c3565b5b5090506117ec91906117f0565b5090565b5b808211156118095760008160009055506001016117f1565b5090565b6000604051905090565b600080fd5b600080fd5b600073ffffffffffffffffffffffffffffffffffffffff82169050919050565b600061184c82611821565b9050919050565b61185c81611841565b811461186757600080fd5b50565b60008135905061187981611853565b92915050565b60006020828403121561189557611894611817565b5b60006118a38482850161186a565b91505092915050565b6000819050919050565b6118bf816118ac565b82525050565b60006020820190506118da60008301846118b6565b92915050565b6000819050919050565b60006119056119006118fb84611821565b6118e0565b611821565b9050919050565b6000611917826118ea565b9050919050565b60006119298261190c565b9050919050565b6119398161191e565b82525050565b60006020820190506119546000830184611930565b92915050565b600081519050919050565b600082825260208201905092915050565b6000819050602082019050919050565b61198f81611841565b82525050565b60006119a18383611986565b60208301905092915050565b6000602082019050919050565b60006119c58261195a565b6119cf8185611965565b93506119da83611976565b8060005b83811015611a0b5781516119f28882611995565b97506119fd836119ad565b9250506001810190506119de565b5085935050505092915050565b60006020820190508181036000830152611a3281846119ba565b905092915050565b60008060408385031215611a5157611a50611817565b5b6000611a5f8582860161186a565b9250506020611a708582860161186a565b9150509250929050565b600081519050919050565b600082825260208201905092915050565b6000819050602082019050919050565b600081519050919050565b600082825260208201905092915050565b60005b83811015611ae0578082015181840152602081019050611ac5565b83811115611aef576000848401525b50505050565b6000601f19601f8301169050919050565b6000611b1182611aa6565b611b1b8185611ab1565b9350611b2b818560208601611ac2565b611b3481611af5565b840191505092915050565b6000611b4b8383611b06565b905092915050565b6000602082019050919050565b6000611b6b82611a7a565b611b758185611a85565b935083602082028501611b8785611a96565b8060005b85811015611bc35784840389528151611ba48582611b3f565b9450611baf83611b53565b925060208a01995050600181019050611b8b565b50829750879550505050505092915050565b60006020820190508181036000830152611bef8184611b60565b905092915050565b611c00816118ac565b8114611c0b57600080fd5b50565b600081359050611c1d81611bf7565b92915050565b600060208284031215611c3957611c38611817565b5b6000611c4784828501611c0e565b91505092915050565b600082825260208201905092915050565b6000611c6c82611aa6565b611c768185611c50565b9350611c86818560208601611ac2565b611c8f81611af5565b840191505092915050565b60006020820190508181036000830152611cb48184611c61565b905092915050565b600080fd5b600080fd5b7f4e487b7100000000000000000000000000000000000000000000000000000000600052604160045260246000fd5b611cfe82611af5565b810181811067ffffffffffffffff82111715611d1d57611d1c611cc6565b5b80604052505050565b6000611d3061180d565b9050611d3c8282611cf5565b919050565b600067ffffffffffffffff821115611d5c57611d5b611cc6565b5b611d6582611af5565b9050602081019050919050565b82818337600083830152505050565b6000611d94611d8f84611d41565b611d26565b905082815260208101848484011115611db057611daf611cc1565b5b611dbb848285611d72565b509392505050565b600082601f830112611dd857611dd7611cbc565b5b8135611de8848260208601611d81565b91505092915050565b60008060408385031215611e0857611e07611817565b5b6000611e168582860161186a565b925050602083013567ffffffffffffffff811115611e3757611e3661181c565b5b611e4385828601611dc3565b9150509250929050565b600060208284031215611e6357611e62611817565b5b600082013567ffffffffffffffff811115611e8157611e8061181c565b5b611e8d84828501611dc3565b91505092915050565b600061ffff82169050919050565b611ead81611e96565b82525050565b6000602082019050611ec86000830184611ea4565b92915050565b7f44656230783a20796f7572207265776172642062616c616e6365206973203000600082015250565b6000611f04601f83611c50565b9150611f0f82611ece565b602082019050919050565b60006020820190508181036000830152611f3381611ef7565b9050919050565b7f4e487b7100000000000000000000000000000000000000000000000000000000600052602260045260246000fd5b60006002820490506001821680611f8157607f821691505b60208210811415611f9557611f94611f3a565b5b50919050565b7f44656230783a20696e697469616c697a6528292063616e2062652063616c6c6560008201527f64206a757374206f6e6365000000000000000000000000000000000000000000602082015250565b6000611ff7602b83611c50565b915061200282611f9b565b604082019050919050565b6000602082019050818103600083015261202681611fea565b9050919050565b60008151905061203c81611bf7565b92915050565b60006020828403121561205857612057611817565b5b60006120668482850161202d565b91505092915050565b61207881611841565b82525050565b6000604082019050612093600083018561206f565b6120a060208301846118b6565b9392505050565b60008115159050919050565b6120bc816120a7565b81146120c757600080fd5b50565b6000815190506120d9816120b3565b92915050565b6000602082840312156120f5576120f4611817565b5b6000612103848285016120ca565b91505092915050565b7f44656230783a20796f757220616d6f756e742069732030000000000000000000600082015250565b6000612142601783611c50565b915061214d8261210c565b602082019050919050565b6000602082019050818103600083015261217181612135565b9050919050565b7f4e487b7100000000000000000000000000000000000000000000000000000000600052601160045260246000fd5b60006121b2826118ac565b91506121bd836118ac565b9250828210156121d0576121cf612178565b5b828203905092915050565b7f44656230783a20696e73756666696369656e742062616c616e63650000000000600082015250565b6000612211601b83611c50565b915061221c826121db565b602082019050919050565b6000602082019050818103600083015261224081612204565b9050919050565b600060608201905061225c600083018661206f565b612269602083018561206f565b61227660408301846118b6565b949350505050565b6000612289826118ac565b9150612294836118ac565b9250817fffffffffffffffffffffffffffffffffffffffffffffffffffffffffffffffff04831182151516156122cd576122cc612178565b5b828202905092915050565b7f4e487b7100000000000000000000000000000000000000000000000000000000600052601260045260246000fd5b6000612312826118ac565b915061231d836118ac565b92508261232d5761232c6122d8565b5b828204905092915050565b7f44656230783a206d7573742070617920313025206f66207472616e736163746960008201527f6f6e20636f737400000000000000000000000000000000000000000000000000602082015250565b6000612394602783611c50565b915061239f82612338565b604082019050919050565b600060208201905081810360008301526123c381612387565b9050919050565b60006123d5826118ac565b91506123e0836118ac565b9250827fffffffffffffffffffffffffffffffffffffffffffffffffffffffffffffffff0382111561241557612414612178565b5b828201905092915050565b6000819050919050565b600061243582612420565b915061244083612420565b9250827f80000000000000000000000000000000000000000000000000000000000000000182126000841215161561247b5761247a612178565b5b827f7fffffffffffffffffffffffffffffffffffffffffffffffffffffffffffffff0182136000841216156124b3576124b2612178565b5b828203905092915050565b60006124c982612420565b91506124d483612420565b9250827f7fffffffffffffffffffffffffffffffffffffffffffffffffffffffffffffff048211600084136000841316161561251357612512612178565b5b817f800000000000000000000000000000000000000000000000000000000000000005831260008412600084131616156125505761254f612178565b5b827f8000000000000000000000000000000000000000000000000000000000000000058212600084136000841216161561258d5761258c612178565b5b827f7fffffffffffffffffffffffffffffffffffffffffffffffffffffffffffffff05821260008412600084121616156125ca576125c9612178565b5b828202905092915050565b60006125e082612420565b91506125eb83612420565b9250826125fb576125fa6122d8565b5b600160000383147f80000000000000000000000000000000000000000000000000000000000000008314161561263457612633612178565b5b828205905092915050565b600061264a82612420565b915061265583612420565b9250817f7fffffffffffffffffffffffffffffffffffffffffffffffffffffffffffffff038313600083121516156126905761268f612178565b5b817f80000000000000000000000000000000000000000000000000000000000000000383126000831216156126c8576126c7612178565b5b828201905092915050565b7f44656230783a2063616c63756c757320697320756e6465722030000000000000600082015250565b6000612709601a83611c50565b9150612714826126d3565b602082019050919050565b60006020820190508181036000830152612738816126fc565b9050919050565b600081905092915050565b50565b600061275a60008361273f565b91506127658261274a565b600082019050919050565b600061277b8261274d565b9150819050919050565b7f44656230783a206661696c656420746f2073656e6420616d6f756e7400000000600082015250565b60006127bb601c83611c50565b91506127c682612785565b602082019050919050565b600060208201905081810360008301526127ea816127ae565b905091905056fea2646970667358221220777b3738df8ac3a2da65c2bf22d4a0113e1c4828b5df9e2fa06d425a3e15b5eb64736f6c634300080c003360806040523480156200001157600080fd5b506040516200190a3803806200190a833981810160405281019062000037919062000397565b6040518060400160405280600581526020017f44656230780000000000000000000000000000000000000000000000000000008152506040518060400160405280600381526020017f44425800000000000000000000000000000000000000000000000000000000008152508160039080519060200190620000bb9291906200027d565b508060049080519060200190620000d49291906200027d565b505050620000f38169d3c21bcecceda1000000620000fa60201b60201c565b5062000575565b600073ffffffffffffffffffffffffffffffffffffffff168273ffffffffffffffffffffffffffffffffffffffff1614156200016d576040517f08c379a000000000000000000000000000000000000000000000000000000000815260040162000164906200042a565b60405180910390fd5b62000181600083836200027360201b60201c565b806002600082825462000195919062000485565b92505081905550806000808473ffffffffffffffffffffffffffffffffffffffff1673ffffffffffffffffffffffffffffffffffffffff1681526020019081526020016000206000828254620001ec919062000485565b925050819055508173ffffffffffffffffffffffffffffffffffffffff16600073ffffffffffffffffffffffffffffffffffffffff167fddf252ad1be2c89b69c2b068fc378daa952ba7f163c4a11628f55a4df523b3ef83604051620002539190620004f3565b60405180910390a36200026f600083836200027860201b60201c565b5050565b505050565b505050565b8280546200028b906200053f565b90600052602060002090601f016020900481019282620002af5760008555620002fb565b82601f10620002ca57805160ff1916838001178555620002fb565b82800160010185558215620002fb579182015b82811115620002fa578251825591602001919060010190620002dd565b5b5090506200030a91906200030e565b5090565b5b80821115620003295760008160009055506001016200030f565b5090565b600080fd5b600073ffffffffffffffffffffffffffffffffffffffff82169050919050565b60006200035f8262000332565b9050919050565b620003718162000352565b81146200037d57600080fd5b50565b600081519050620003918162000366565b92915050565b600060208284031215620003b057620003af6200032d565b5b6000620003c08482850162000380565b91505092915050565b600082825260208201905092915050565b7f45524332303a206d696e7420746f20746865207a65726f206164647265737300600082015250565b600062000412601f83620003c9565b91506200041f82620003da565b602082019050919050565b60006020820190508181036000830152620004458162000403565b9050919050565b6000819050919050565b7f4e487b7100000000000000000000000000000000000000000000000000000000600052601160045260246000fd5b600062000492826200044c565b91506200049f836200044c565b9250827fffffffffffffffffffffffffffffffffffffffffffffffffffffffffffffffff03821115620004d757620004d662000456565b5b828201905092915050565b620004ed816200044c565b82525050565b60006020820190506200050a6000830184620004e2565b92915050565b7f4e487b7100000000000000000000000000000000000000000000000000000000600052602260045260246000fd5b600060028204905060018216806200055857607f821691505b602082108114156200056f576200056e62000510565b5b50919050565b61138580620005856000396000f3fe608060405234801561001057600080fd5b50600436106100b45760003560e01c806370a082311161007157806370a08231146101a3578063902d55a5146101d357806395d89b41146101f1578063a457c2d71461020f578063a9059cbb1461023f578063dd62ed3e1461026f576100b4565b806306fdde03146100b9578063095ea7b3146100d757806318160ddd1461010757806323b872dd14610125578063313ce567146101555780633950935114610173575b600080fd5b6100c161029f565b6040516100ce9190610c3f565b60405180910390f35b6100f160048036038101906100ec9190610cfa565b610331565b6040516100fe9190610d55565b60405180910390f35b61010f610354565b60405161011c9190610d7f565b60405180910390f35b61013f600480360381019061013a9190610d9a565b61035e565b60405161014c9190610d55565b60405180910390f35b61015d61038d565b60405161016a9190610e09565b60405180910390f35b61018d60048036038101906101889190610cfa565b610396565b60405161019a9190610d55565b60405180910390f35b6101bd60048036038101906101b89190610e24565b610440565b6040516101ca9190610d7f565b60405180910390f35b6101db610488565b6040516101e89190610d7f565b60405180910390f35b6101f9610496565b6040516102069190610c3f565b60405180910390f35b61022960048036038101906102249190610cfa565b610528565b6040516102369190610d55565b60405180910390f35b61025960048036038101906102549190610cfa565b610612565b6040516102669190610d55565b60405180910390f35b61028960048036038101906102849190610e51565b610635565b6040516102969190610d7f565b60405180910390f35b6060600380546102ae90610ec0565b80601f01602080910402602001604051908101604052809291908181526020018280546102da90610ec0565b80156103275780601f106102fc57610100808354040283529160200191610327565b820191906000526020600020905b81548152906001019060200180831161030a57829003601f168201915b5050505050905090565b60008061033c6106bc565b90506103498185856106c4565b600191505092915050565b6000600254905090565b6000806103696106bc565b905061037685828561088f565b61038185858561091b565b60019150509392505050565b60006012905090565b6000806103a16106bc565b9050610435818585600160008673ffffffffffffffffffffffffffffffffffffffff1673ffffffffffffffffffffffffffffffffffffffff16815260200190815260200160002060008973ffffffffffffffffffffffffffffffffffffffff1673ffffffffffffffffffffffffffffffffffffffff168152602001908152602001600020546104309190610f21565b6106c4565b600191505092915050565b60008060008373ffffffffffffffffffffffffffffffffffffffff1673ffffffffffffffffffffffffffffffffffffffff168152602001908152602001600020549050919050565b69d3c21bcecceda100000081565b6060600480546104a590610ec0565b80601f01602080910402602001604051908101604052809291908181526020018280546104d190610ec0565b801561051e5780601f106104f35761010080835404028352916020019161051e565b820191906000526020600020905b81548152906001019060200180831161050157829003601f168201915b5050505050905090565b6000806105336106bc565b90506000600160008373ffffffffffffffffffffffffffffffffffffffff1673ffffffffffffffffffffffffffffffffffffffff16815260200190815260200160002060008673ffffffffffffffffffffffffffffffffffffffff1673ffffffffffffffffffffffffffffffffffffffff168152602001908152602001600020549050838110156105f9576040517f08c379a00000000000000000000000000000000000000000000000000000000081526004016105f090610fe9565b60405180910390fd5b61060682868684036106c4565b60019250505092915050565b60008061061d6106bc565b905061062a81858561091b565b600191505092915050565b6000600160008473ffffffffffffffffffffffffffffffffffffffff1673ffffffffffffffffffffffffffffffffffffffff16815260200190815260200160002060008373ffffffffffffffffffffffffffffffffffffffff1673ffffffffffffffffffffffffffffffffffffffff16815260200190815260200160002054905092915050565b600033905090565b600073ffffffffffffffffffffffffffffffffffffffff168373ffffffffffffffffffffffffffffffffffffffff161415610734576040517f08c379a000000000000000000000000000000000000000000000000000000000815260040161072b9061107b565b60405180910390fd5b600073ffffffffffffffffffffffffffffffffffffffff168273ffffffffffffffffffffffffffffffffffffffff1614156107a4576040517f08c379a000000000000000000000000000000000000000000000000000000000815260040161079b9061110d565b60405180910390fd5b80600160008573ffffffffffffffffffffffffffffffffffffffff1673ffffffffffffffffffffffffffffffffffffffff16815260200190815260200160002060008473ffffffffffffffffffffffffffffffffffffffff1673ffffffffffffffffffffffffffffffffffffffff168152602001908152602001600020819055508173ffffffffffffffffffffffffffffffffffffffff168373ffffffffffffffffffffffffffffffffffffffff167f8c5be1e5ebec7d5bd14f71427d1e84f3dd0314c0f7b2291e5b200ac8c7c3b925836040516108829190610d7f565b60405180910390a3505050565b600061089b8484610635565b90507fffffffffffffffffffffffffffffffffffffffffffffffffffffffffffffffff81146109155781811015610907576040517f08c379a00000000000000000000000000000000000000000000000000000000081526004016108fe90611179565b60405180910390fd5b61091484848484036106c4565b5b50505050565b600073ffffffffffffffffffffffffffffffffffffffff168373ffffffffffffffffffffffffffffffffffffffff16141561098b576040517f08c379a00000000000000000000000000000000000000000000000000000000081526004016109829061120b565b60405180910390fd5b600073ffffffffffffffffffffffffffffffffffffffff168273ffffffffffffffffffffffffffffffffffffffff1614156109fb576040517f08c379a00000000000000000000000000000000000000000000000000000000081526004016109f29061129d565b60405180910390fd5b610a06838383610b9c565b60008060008573ffffffffffffffffffffffffffffffffffffffff1673ffffffffffffffffffffffffffffffffffffffff16815260200190815260200160002054905081811015610a8c576040517f08c379a0000000000000000000000000000000000000000000000000000000008152600401610a839061132f565b60405180910390fd5b8181036000808673ffffffffffffffffffffffffffffffffffffffff1673ffffffffffffffffffffffffffffffffffffffff16815260200190815260200160002081905550816000808573ffffffffffffffffffffffffffffffffffffffff1673ffffffffffffffffffffffffffffffffffffffff1681526020019081526020016000206000828254610b1f9190610f21565b925050819055508273ffffffffffffffffffffffffffffffffffffffff168473ffffffffffffffffffffffffffffffffffffffff167fddf252ad1be2c89b69c2b068fc378daa952ba7f163c4a11628f55a4df523b3ef84604051610b839190610d7f565b60405180910390a3610b96848484610ba1565b50505050565b505050565b505050565b600081519050919050565b600082825260208201905092915050565b60005b83811015610be0578082015181840152602081019050610bc5565b83811115610bef576000848401525b50505050565b6000601f19601f8301169050919050565b6000610c1182610ba6565b610c1b8185610bb1565b9350610c2b818560208601610bc2565b610c3481610bf5565b840191505092915050565b60006020820190508181036000830152610c598184610c06565b905092915050565b600080fd5b600073ffffffffffffffffffffffffffffffffffffffff82169050919050565b6000610c9182610c66565b9050919050565b610ca181610c86565b8114610cac57600080fd5b50565b600081359050610cbe81610c98565b92915050565b6000819050919050565b610cd781610cc4565b8114610ce257600080fd5b50565b600081359050610cf481610cce565b92915050565b60008060408385031215610d1157610d10610c61565b5b6000610d1f85828601610caf565b9250506020610d3085828601610ce5565b9150509250929050565b60008115159050919050565b610d4f81610d3a565b82525050565b6000602082019050610d6a6000830184610d46565b92915050565b610d7981610cc4565b82525050565b6000602082019050610d946000830184610d70565b92915050565b600080600060608486031215610db357610db2610c61565b5b6000610dc186828701610caf565b9350506020610dd286828701610caf565b9250506040610de386828701610ce5565b9150509250925092565b600060ff82169050919050565b610e0381610ded565b82525050565b6000602082019050610e1e6000830184610dfa565b92915050565b600060208284031215610e3a57610e39610c61565b5b6000610e4884828501610caf565b91505092915050565b60008060408385031215610e6857610e67610c61565b5b6000610e7685828601610caf565b9250506020610e8785828601610caf565b9150509250929050565b7f4e487b7100000000000000000000000000000000000000000000000000000000600052602260045260246000fd5b60006002820490506001821680610ed857607f821691505b60208210811415610eec57610eeb610e91565b5b50919050565b7f4e487b7100000000000000000000000000000000000000000000000000000000600052601160045260246000fd5b6000610f2c82610cc4565b9150610f3783610cc4565b9250827fffffffffffffffffffffffffffffffffffffffffffffffffffffffffffffffff03821115610f6c57610f6b610ef2565b5b828201905092915050565b7f45524332303a2064656372656173656420616c6c6f77616e63652062656c6f7760008201527f207a65726f000000000000000000000000000000000000000000000000000000602082015250565b6000610fd3602583610bb1565b9150610fde82610f77565b604082019050919050565b6000602082019050818103600083015261100281610fc6565b9050919050565b7f45524332303a20617070726f76652066726f6d20746865207a65726f2061646460008201527f7265737300000000000000000000000000000000000000000000000000000000602082015250565b6000611065602483610bb1565b915061107082611009565b604082019050919050565b6000602082019050818103600083015261109481611058565b9050919050565b7f45524332303a20617070726f766520746f20746865207a65726f20616464726560008201527f7373000000000000000000000000000000000000000000000000000000000000602082015250565b60006110f7602283610bb1565b91506111028261109b565b604082019050919050565b60006020820190508181036000830152611126816110ea565b9050919050565b7f45524332303a20696e73756666696369656e7420616c6c6f77616e6365000000600082015250565b6000611163601d83610bb1565b915061116e8261112d565b602082019050919050565b6000602082019050818103600083015261119281611156565b9050919050565b7f45524332303a207472616e736665722066726f6d20746865207a65726f20616460008201527f6472657373000000000000000000000000000000000000000000000000000000602082015250565b60006111f5602583610bb1565b915061120082611199565b604082019050919050565b60006020820190508181036000830152611224816111e8565b9050919050565b7f45524332303a207472616e7366657220746f20746865207a65726f206164647260008201527f6573730000000000000000000000000000000000000000000000000000000000602082015250565b6000611287602383610bb1565b91506112928261122b565b604082019050919050565b600060208201905081810360008301526112b68161127a565b9050919050565b7f45524332303a207472616e7366657220616d6f756e742065786365656473206260008201527f616c616e63650000000000000000000000000000000000000000000000000000602082015250565b6000611319602683610bb1565b9150611324826112bd565b604082019050919050565b600060208201905081810360008301526113488161130c565b905091905056fea26469706673582212203f0e735d7498efb898df88c7bb27040b07eb75fac6c01d2087148b9cd6cc91fc64736f6c634300080c0033",
  "linkReferences": {},
  "deployedLinkReferences": {}
}