{
  "_format": "hh-sol-artifact-1",
  "contractName": "Deb0x",
  "sourceName": "contracts/Deb0x.sol",
  "abi": [
    {
      "inputs": [],
      "stateMutability": "nonpayable",
      "type": "constructor"
    },
    {
      "anonymous": false,
      "inputs": [
        {
          "indexed": false,
          "internalType": "uint256",
          "name": "fees",
          "type": "uint256"
        }
      ],
      "name": "FeesClaimed",
      "type": "event"
    },
    {
      "inputs": [],
      "name": "MAIL_FEE",
      "outputs": [
        {
          "internalType": "uint16",
          "name": "",
          "type": "uint16"
        }
      ],
      "stateMutability": "view",
      "type": "function"
    },
    {
      "inputs": [
        {
          "internalType": "address",
          "name": "",
          "type": "address"
        }
      ],
      "name": "addressAccruedFees",
      "outputs": [
        {
          "internalType": "uint256",
          "name": "",
          "type": "uint256"
        }
      ],
      "stateMutability": "view",
      "type": "function"
    },
    {
      "inputs": [
        {
          "internalType": "address",
          "name": "",
          "type": "address"
        }
      ],
      "name": "addressRewards",
      "outputs": [
        {
          "internalType": "uint256",
          "name": "",
          "type": "uint256"
        }
      ],
      "stateMutability": "view",
      "type": "function"
    },
    {
      "inputs": [],
      "name": "calculateCycleReward",
      "outputs": [
        {
          "internalType": "uint256",
          "name": "",
          "type": "uint256"
        }
      ],
      "stateMutability": "view",
      "type": "function"
    },
    {
      "inputs": [],
      "name": "claimFees",
      "outputs": [],
      "stateMutability": "nonpayable",
      "type": "function"
    },
    {
      "inputs": [],
      "name": "claimFrontEndFees",
      "outputs": [],
      "stateMutability": "nonpayable",
      "type": "function"
    },
    {
      "inputs": [],
      "name": "claimFrontEndRewards",
      "outputs": [],
      "stateMutability": "nonpayable",
      "type": "function"
    },
    {
      "inputs": [],
      "name": "claimRewards",
      "outputs": [],
      "stateMutability": "nonpayable",
      "type": "function"
    },
    {
      "inputs": [],
      "name": "contractBalance",
      "outputs": [
        {
          "internalType": "uint256",
          "name": "",
          "type": "uint256"
        }
      ],
      "stateMutability": "view",
      "type": "function"
    },
    {
      "inputs": [],
      "name": "currentStartedCycle",
      "outputs": [
        {
          "internalType": "uint256",
          "name": "",
          "type": "uint256"
        }
      ],
      "stateMutability": "view",
      "type": "function"
    },
    {
      "inputs": [
        {
          "internalType": "uint256",
          "name": "",
          "type": "uint256"
        }
      ],
      "name": "cycleAccruedFees",
      "outputs": [
        {
          "internalType": "uint256",
          "name": "",
          "type": "uint256"
        }
      ],
      "stateMutability": "view",
      "type": "function"
    },
    {
      "inputs": [
        {
          "internalType": "uint256",
          "name": "",
          "type": "uint256"
        }
      ],
      "name": "cycleFeesPerStake",
      "outputs": [
        {
          "internalType": "uint256",
          "name": "",
          "type": "uint256"
        }
      ],
      "stateMutability": "view",
      "type": "function"
    },
    {
      "inputs": [
        {
          "internalType": "uint256",
          "name": "",
          "type": "uint256"
        }
      ],
      "name": "cycleFeesPerStakeSummed",
      "outputs": [
        {
          "internalType": "uint256",
          "name": "",
          "type": "uint256"
        }
      ],
      "stateMutability": "view",
      "type": "function"
    },
    {
      "inputs": [],
      "name": "dbx",
      "outputs": [
        {
          "internalType": "contract DBX",
          "name": "",
          "type": "address"
        }
      ],
      "stateMutability": "view",
      "type": "function"
    },
    {
      "inputs": [
        {
          "internalType": "address",
          "name": "to",
          "type": "address"
        }
      ],
      "name": "fetchMessageSenders",
      "outputs": [
        {
          "internalType": "address[]",
          "name": "",
          "type": "address[]"
        }
      ],
      "stateMutability": "view",
      "type": "function"
    },
    {
      "inputs": [
        {
          "internalType": "address",
          "name": "to",
          "type": "address"
        },
        {
          "internalType": "address",
          "name": "from",
          "type": "address"
        }
      ],
      "name": "fetchMessages",
      "outputs": [
        {
          "components": [
            {
              "internalType": "string",
              "name": "cid",
              "type": "string"
            },
            {
              "internalType": "uint256",
              "name": "blockTimestamp",
              "type": "uint256"
            }
          ],
          "internalType": "struct Deb0xCore.content[]",
          "name": "",
          "type": "tuple[]"
        }
      ],
      "stateMutability": "view",
      "type": "function"
    },
    {
      "inputs": [
        {
          "internalType": "address",
          "name": "sender",
          "type": "address"
        }
      ],
      "name": "fetchSentMessages",
      "outputs": [
        {
          "components": [
            {
              "internalType": "address[]",
              "name": "recipients",
              "type": "address[]"
            },
            {
              "components": [
                {
                  "internalType": "string",
                  "name": "cid",
                  "type": "string"
                },
                {
                  "internalType": "uint256",
                  "name": "blockTimestamp",
                  "type": "uint256"
                }
              ],
              "internalType": "struct Deb0xCore.content",
              "name": "contentData",
              "type": "tuple"
            }
          ],
          "internalType": "struct Deb0xCore.sentMessage[]",
          "name": "",
          "type": "tuple[]"
        }
      ],
      "stateMutability": "view",
      "type": "function"
    },
    {
      "inputs": [],
      "name": "getCurrentCycle",
      "outputs": [
        {
          "internalType": "uint256",
          "name": "",
          "type": "uint256"
        }
      ],
      "stateMutability": "view",
      "type": "function"
    },
    {
      "inputs": [
        {
          "internalType": "address",
          "name": "account",
          "type": "address"
        }
      ],
      "name": "getKey",
      "outputs": [
        {
          "internalType": "string",
          "name": "",
          "type": "string"
        }
      ],
      "stateMutability": "view",
      "type": "function"
    },
    {
      "inputs": [
        {
          "internalType": "address",
          "name": "user",
          "type": "address"
        }
      ],
      "name": "getUnclaimedFees",
      "outputs": [
        {
          "internalType": "uint256",
          "name": "",
          "type": "uint256"
        }
      ],
      "stateMutability": "view",
      "type": "function"
    },
    {
      "inputs": [
        {
          "internalType": "address",
          "name": "user",
          "type": "address"
        }
      ],
      "name": "getUnclaimedRewards",
      "outputs": [
        {
          "internalType": "uint256",
          "name": "",
          "type": "uint256"
        }
      ],
      "stateMutability": "view",
      "type": "function"
    },
    {
      "inputs": [
        {
          "internalType": "address",
          "name": "staker",
          "type": "address"
        }
      ],
      "name": "getUserWithdrawableStake",
      "outputs": [
        {
          "internalType": "uint256",
          "name": "",
          "type": "uint256"
        }
      ],
      "stateMutability": "view",
      "type": "function"
    },
    {
      "inputs": [
        {
          "internalType": "uint256",
          "name": "",
          "type": "uint256"
        }
      ],
      "name": "rewardPerCycle",
      "outputs": [
        {
          "internalType": "uint256",
          "name": "",
          "type": "uint256"
        }
      ],
      "stateMutability": "view",
      "type": "function"
    },
    {
      "inputs": [
        {
          "internalType": "address[]",
          "name": "to",
          "type": "address[]"
        },
        {
          "internalType": "string[]",
          "name": "payload",
          "type": "string[]"
        },
        {
          "internalType": "address",
          "name": "feeReceiver",
          "type": "address"
        },
        {
          "internalType": "uint256",
          "name": "msgFee",
          "type": "uint256"
        },
        {
          "internalType": "uint256",
          "name": "nativeTokenFee",
          "type": "uint256"
        }
      ],
      "name": "send",
      "outputs": [],
      "stateMutability": "payable",
      "type": "function"
    },
    {
      "inputs": [
        {
          "internalType": "address[]",
          "name": "recipients",
          "type": "address[]"
        },
        {
          "internalType": "string[]",
          "name": "cids",
          "type": "string[]"
        }
      ],
      "name": "send",
      "outputs": [],
      "stateMutability": "payable",
      "type": "function"
    },
    {
      "inputs": [
        {
          "internalType": "string",
          "name": "encryptionKey",
          "type": "string"
        }
      ],
      "name": "setKey",
      "outputs": [],
      "stateMutability": "nonpayable",
      "type": "function"
    },
    {
      "inputs": [
        {
          "internalType": "uint256",
          "name": "_amount",
          "type": "uint256"
        }
      ],
      "name": "stakeDBX",
      "outputs": [],
      "stateMutability": "nonpayable",
      "type": "function"
    },
    {
      "inputs": [
        {
          "internalType": "uint256",
          "name": "",
          "type": "uint256"
        }
      ],
      "name": "summedCycleStakes",
      "outputs": [
        {
          "internalType": "uint256",
          "name": "",
          "type": "uint256"
        }
      ],
      "stateMutability": "view",
      "type": "function"
    },
    {
      "inputs": [
        {
          "internalType": "uint256",
          "name": "_amount",
          "type": "uint256"
        }
      ],
      "name": "unstake",
      "outputs": [],
      "stateMutability": "nonpayable",
      "type": "function"
    },
    {
      "inputs": [
        {
          "internalType": "address",
          "name": "",
          "type": "address"
        }
      ],
      "name": "userFirstStake",
      "outputs": [
        {
          "internalType": "uint256",
          "name": "",
          "type": "uint256"
        }
      ],
      "stateMutability": "view",
      "type": "function"
    },
    {
      "inputs": [
        {
          "internalType": "address",
          "name": "",
          "type": "address"
        }
      ],
      "name": "userSecondStake",
      "outputs": [
        {
          "internalType": "uint256",
          "name": "",
          "type": "uint256"
        }
      ],
      "stateMutability": "view",
      "type": "function"
    },
    {
      "inputs": [
        {
          "internalType": "address",
          "name": "",
          "type": "address"
        },
        {
          "internalType": "uint256",
          "name": "",
          "type": "uint256"
        }
      ],
      "name": "userStakeCycle",
      "outputs": [
        {
          "internalType": "uint256",
          "name": "",
          "type": "uint256"
        }
      ],
      "stateMutability": "view",
      "type": "function"
    },
    {
      "inputs": [
        {
          "internalType": "address",
          "name": "",
          "type": "address"
        }
      ],
      "name": "userWithdrawableStake",
      "outputs": [
        {
          "internalType": "uint256",
          "name": "",
          "type": "uint256"
        }
      ],
      "stateMutability": "view",
      "type": "function"
    }
  ],
  "bytecode": "0x60c06040523480156200001157600080fd5b506040516200002090620000e7565b604051809103906000f0801580156200003d573d6000803e3d6000fd5b50600460006101000a81548173ffffffffffffffffffffffffffffffffffffffff021916908373ffffffffffffffffffffffffffffffffffffffff160217905550426080818152505060b460a0818152505068056bc75e2d6310000060058190555068056bc75e2d63100000601560008081526020019081526020016000208190555068056bc75e2d631000006014600080815260200190815260200160002081905550620000f5565b611a19806200a3fd83390190565b60805160a05161a2e26200011b6000396000616f8b01526000616fac015261a2e26000f3fe6080604052600436106101ee5760003560e01c806393790f441161010d578063bf992dea116100a0578063d698de8f1161006f578063d698de8f14610753578063d6aef1c614610790578063ea6c77cd146107bb578063f1b371e2146107e6578063f68f0a3914610811576101ee565b8063bf992dea14610685578063c0d73320146106c2578063c4235ae9146106ff578063d294f0931461073c576101ee565b8063adc0f686116100dc578063adc0f686146105b7578063af42d106146105f4578063be26ed7f1461061d578063bebc9dfc14610648576101ee565b806393790f44146104e45780639392e9b91461052157806395e982a91461055e5780639f33626e1461059b576101ee565b806358503a95116101855780637d818c23116101545780637d818c23146104285780637e30d2b5146104535780638b414de01461047c5780638b7afe2e146104b9576101ee565b806358503a951461035557806369a69e29146103925780636d9384f9146103cf5780636f044d371461040c576101ee565b80633e19eec3116101c15780633e19eec3146102ad5780634b82b365146102c45780634cd040fc1461030157806352a398d814610318576101ee565b80630a00dc43146101f35780630ece2154146102305780632e17de781461026d578063372500ab14610296575b600080fd5b3480156101ff57600080fd5b5061021a60048036038101906102159190618ef3565b61084e565b6040516102279190618f2f565b60405180910390f35b34801561023c57600080fd5b5061025760048036038101906102529190618ef3565b610866565b6040516102649190618f2f565b60405180910390f35b34801561027957600080fd5b50610294600480360381019061028f9190618ef3565b61087e565b005b3480156102a257600080fd5b506102ab611c89565b005b3480156102b957600080fd5b506102c2613044565b005b3480156102d057600080fd5b506102eb60048036038101906102e69190618fa8565b613313565b6040516102f89190618f2f565b60405180910390f35b34801561030d57600080fd5b5061031661332b565b005b34801561032457600080fd5b5061033f600480360381019061033a9190618fa8565b613648565b60405161034c9190619275565b60405180910390f35b34801561036157600080fd5b5061037c60048036038101906103779190618fa8565b613824565b6040516103899190619306565b60405180910390f35b34801561039e57600080fd5b506103b960048036038101906103b49190618fa8565b6138f1565b6040516103c69190618f2f565b60405180910390f35b3480156103db57600080fd5b506103f660048036038101906103f19190619328565b613c04565b604051610403919061942a565b60405180910390f35b6104266004803603810190610421919061972a565b613d7c565b005b34801561043457600080fd5b5061043d615262565b60405161044a919061983c565b60405180910390f35b34801561045f57600080fd5b5061047a60048036038101906104759190618ef3565b615288565b005b34801561048857600080fd5b506104a3600480360381019061049e9190618fa8565b61677a565b6040516104b09190618f2f565b60405180910390f35b3480156104c557600080fd5b506104ce616792565b6040516104db9190618f2f565b60405180910390f35b3480156104f057600080fd5b5061050b60048036038101906105069190618fa8565b61679a565b60405161051891906198a1565b60405180910390f35b34801561052d57600080fd5b5061054860048036038101906105439190618fa8565b61686a565b6040516105559190618f2f565b60405180910390f35b34801561056a57600080fd5b5061058560048036038101906105809190618fa8565b616882565b6040516105929190618f2f565b60405180910390f35b6105b560048036038101906105b091906198c3565b616b76565b005b3480156105c357600080fd5b506105de60048036038101906105d99190618ef3565b616f20565b6040516105eb9190618f2f565b60405180910390f35b34801561060057600080fd5b5061061b6004803603810190610616919061993b565b616f38565b005b34801561062957600080fd5b50610632616f87565b60405161063f9190618f2f565b60405180910390f35b34801561065457600080fd5b5061066f600480360381019061066a9190618ef3565b616fe5565b60405161067c9190618f2f565b60405180910390f35b34801561069157600080fd5b506106ac60048036038101906106a79190618fa8565b616ffd565b6040516106b99190618f2f565b60405180910390f35b3480156106ce57600080fd5b506106e960048036038101906106e49190618fa8565b6175ce565b6040516106f69190618f2f565b60405180910390f35b34801561070b57600080fd5b5061072660048036038101906107219190618ef3565b6175e6565b6040516107339190618f2f565b60405180910390f35b34801561074857600080fd5b506107516175fe565b005b34801561075f57600080fd5b5061077a60048036038101906107759190619984565b6188cd565b6040516107879190618f2f565b60405180910390f35b34801561079c57600080fd5b506107a56188f2565b6040516107b29190618f2f565b60405180910390f35b3480156107c757600080fd5b506107d0618916565b6040516107dd91906199e1565b60405180910390f35b3480156107f257600080fd5b506107fb61891c565b6040516108089190618f2f565b60405180910390f35b34801561081d57600080fd5b5061083860048036038101906108339190618fa8565b618922565b6040516108459190618f2f565b60405180910390f35b60186020528060005260406000206000915090505481565b60176020528060005260406000206000915090505481565b6000610888616f87565b905060006014600083815260200190815260200160002054036108e25760055460068190555060006108b86188f2565b90508060058190555080601460008481526020019081526020016000208190555081600881905550505b60006108ec616f87565b90506000601560008381526020019081526020016000205403610a245760006109136188f2565b9050806007546015600060018661092a9190619a2b565b8152602001908152602001600020546109439190619a5f565b61094d9190619a5f565b60156000848152602001908152602001600020600082825461096f9190619a5f565b9250508190555060006007819055506000601560006001856109919190619a2b565b815260200190815260200160002054670de0b6b3a7640000601760006001876109ba9190619a2b565b8152602001908152602001600020546109d39190619a93565b6109dd9190619b1c565b905080601960006001866109f19190619a2b565b815260200190815260200160002054610a0a9190619a5f565b601960008581526020019081526020016000208190555050505b336000610a2f616f87565b9050600d60008373ffffffffffffffffffffffffffffffffffffffff1673ffffffffffffffffffffffffffffffffffffffff1681526020019081526020016000205481118015610ad257506000600c6000600d60008673ffffffffffffffffffffffffffffffffffffffff1673ffffffffffffffffffffffffffffffffffffffff1681526020019081526020016000205481526020019081526020016000205414155b15610e5d576000600c6000600d60008673ffffffffffffffffffffffffffffffffffffffff1673ffffffffffffffffffffffffffffffffffffffff1681526020019081526020016000205481526020019081526020016000205460146000600d60008773ffffffffffffffffffffffffffffffffffffffff1673ffffffffffffffffffffffffffffffffffffffff16815260200190815260200160002054815260200190815260200160002054600b60008673ffffffffffffffffffffffffffffffffffffffff1673ffffffffffffffffffffffffffffffffffffffff16815260200190815260200160002054610bc99190619a93565b610bd39190619b1c565b90506000600c6000600d60008773ffffffffffffffffffffffffffffffffffffffff1673ffffffffffffffffffffffffffffffffffffffff1681526020019081526020016000205481526020019081526020016000205414610c865780601160008573ffffffffffffffffffffffffffffffffffffffff1673ffffffffffffffffffffffffffffffffffffffff1681526020019081526020016000206000828254610c7e9190619a5f565b925050819055505b6000600960008573ffffffffffffffffffffffffffffffffffffffff1673ffffffffffffffffffffffffffffffffffffffff1681526020019081526020016000205414610e16576000600b60008573ffffffffffffffffffffffffffffffffffffffff1673ffffffffffffffffffffffffffffffffffffffff1681526020019081526020016000205482610d1a9190619b1c565b90506000612710600960008773ffffffffffffffffffffffffffffffffffffffff1673ffffffffffffffffffffffffffffffffffffffff1681526020019081526020016000205483610d6c9190619a93565b610d769190619b1c565b905080601160008773ffffffffffffffffffffffffffffffffffffffff1673ffffffffffffffffffffffffffffffffffffffff1681526020019081526020016000206000828254610dc79190619a2b565b925050819055506000600960008773ffffffffffffffffffffffffffffffffffffffff1673ffffffffffffffffffffffffffffffffffffffff1681526020019081526020016000208190555050505b6000600b60008573ffffffffffffffffffffffffffffffffffffffff1673ffffffffffffffffffffffffffffffffffffffff16815260200190815260200160002081905550505b601660008373ffffffffffffffffffffffffffffffffffffffff1673ffffffffffffffffffffffffffffffffffffffff1681526020019081526020016000205481111561104457670de0b6b3a764000060196000601660008673ffffffffffffffffffffffffffffffffffffffff1673ffffffffffffffffffffffffffffffffffffffff168152602001908152602001600020548152602001908152602001600020546019600084815260200190815260200160002054610f1e9190619a2b565b601160008573ffffffffffffffffffffffffffffffffffffffff1673ffffffffffffffffffffffffffffffffffffffff16815260200190815260200160002054610f689190619a93565b610f729190619b1c565b601260008473ffffffffffffffffffffffffffffffffffffffff1673ffffffffffffffffffffffffffffffffffffffff16815260200190815260200160002054610fbc9190619a5f565b601260008473ffffffffffffffffffffffffffffffffffffffff1673ffffffffffffffffffffffffffffffffffffffff1681526020019081526020016000208190555080601660008473ffffffffffffffffffffffffffffffffffffffff1673ffffffffffffffffffffffffffffffffffffffff168152602001908152602001600020819055505b6000601c60008473ffffffffffffffffffffffffffffffffffffffff1673ffffffffffffffffffffffffffffffffffffffff16815260200190815260200160002054141580156110de57506001601c60008473ffffffffffffffffffffffffffffffffffffffff1673ffffffffffffffffffffffffffffffffffffffff16815260200190815260200160002054826110dc9190619a2b565b115b15611a39576000601a60008473ffffffffffffffffffffffffffffffffffffffff1673ffffffffffffffffffffffffffffffffffffffff16815260200190815260200160002060006001601c60008773ffffffffffffffffffffffffffffffffffffffff1673ffffffffffffffffffffffffffffffffffffffff168152602001908152602001600020546111729190619a5f565b815260200190815260200160002054905080601160008573ffffffffffffffffffffffffffffffffffffffff1673ffffffffffffffffffffffffffffffffffffffff16815260200190815260200160002060008282546111d29190619a5f565b9250508190555080601b60008573ffffffffffffffffffffffffffffffffffffffff1673ffffffffffffffffffffffffffffffffffffffff16815260200190815260200160002060008282546112289190619a5f565b92505081905550670de0b6b3a7640000601960006001601c60008873ffffffffffffffffffffffffffffffffffffffff1673ffffffffffffffffffffffffffffffffffffffff168152602001908152602001600020546112889190619a5f565b81526020019081526020016000205460196000858152602001908152602001600020546112b59190619a2b565b601a60008673ffffffffffffffffffffffffffffffffffffffff1673ffffffffffffffffffffffffffffffffffffffff16815260200190815260200160002060006001601c60008973ffffffffffffffffffffffffffffffffffffffff1673ffffffffffffffffffffffffffffffffffffffff168152602001908152602001600020546113429190619a5f565b81526020019081526020016000205461135b9190619a93565b6113659190619b1c565b601260008573ffffffffffffffffffffffffffffffffffffffff1673ffffffffffffffffffffffffffffffffffffffff168152602001908152602001600020546113af9190619a5f565b601260008573ffffffffffffffffffffffffffffffffffffffff1673ffffffffffffffffffffffffffffffffffffffff168152602001908152602001600020819055506000601a60008573ffffffffffffffffffffffffffffffffffffffff1673ffffffffffffffffffffffffffffffffffffffff16815260200190815260200160002060006001601c60008873ffffffffffffffffffffffffffffffffffffffff1673ffffffffffffffffffffffffffffffffffffffff168152602001908152602001600020546114819190619a5f565b8152602001908152602001600020819055506000601c60008573ffffffffffffffffffffffffffffffffffffffff1673ffffffffffffffffffffffffffffffffffffffff168152602001908152602001600020819055506000601d60008573ffffffffffffffffffffffffffffffffffffffff1673ffffffffffffffffffffffffffffffffffffffff1681526020019081526020016000205414611a37576001601d60008573ffffffffffffffffffffffffffffffffffffffff1673ffffffffffffffffffffffffffffffffffffffff168152602001908152602001600020548361156c9190619a2b565b111561196d576000601a60008573ffffffffffffffffffffffffffffffffffffffff1673ffffffffffffffffffffffffffffffffffffffff16815260200190815260200160002060006001601d60008873ffffffffffffffffffffffffffffffffffffffff1673ffffffffffffffffffffffffffffffffffffffff168152602001908152602001600020546116019190619a5f565b815260200190815260200160002054905080601160008673ffffffffffffffffffffffffffffffffffffffff1673ffffffffffffffffffffffffffffffffffffffff16815260200190815260200160002060008282546116619190619a5f565b9250508190555080601b60008673ffffffffffffffffffffffffffffffffffffffff1673ffffffffffffffffffffffffffffffffffffffff16815260200190815260200160002060008282546116b79190619a5f565b92505081905550670de0b6b3a7640000601960006001601d60008973ffffffffffffffffffffffffffffffffffffffff1673ffffffffffffffffffffffffffffffffffffffff168152602001908152602001600020546117179190619a5f565b81526020019081526020016000205460196000868152602001908152602001600020546117449190619a2b565b601a60008773ffffffffffffffffffffffffffffffffffffffff1673ffffffffffffffffffffffffffffffffffffffff16815260200190815260200160002060006001601d60008a73ffffffffffffffffffffffffffffffffffffffff1673ffffffffffffffffffffffffffffffffffffffff168152602001908152602001600020546117d19190619a5f565b8152602001908152602001600020546117ea9190619a93565b6117f49190619b1c565b601260008673ffffffffffffffffffffffffffffffffffffffff1673ffffffffffffffffffffffffffffffffffffffff1681526020019081526020016000205461183e9190619a5f565b601260008673ffffffffffffffffffffffffffffffffffffffff1673ffffffffffffffffffffffffffffffffffffffff168152602001908152602001600020819055506000601a60008673ffffffffffffffffffffffffffffffffffffffff1673ffffffffffffffffffffffffffffffffffffffff16815260200190815260200160002060006001601d60008973ffffffffffffffffffffffffffffffffffffffff1673ffffffffffffffffffffffffffffffffffffffff168152602001908152602001600020546119109190619a5f565b8152602001908152602001600020819055506000601d60008673ffffffffffffffffffffffffffffffffffffffff1673ffffffffffffffffffffffffffffffffffffffff1681526020019081526020016000208190555050611a36565b601d60008473ffffffffffffffffffffffffffffffffffffffff1673ffffffffffffffffffffffffffffffffffffffff16815260200190815260200160002054601c60008573ffffffffffffffffffffffffffffffffffffffff1673ffffffffffffffffffffffffffffffffffffffff168152602001908152602001600020819055506000601d60008573ffffffffffffffffffffffffffffffffffffffff1673ffffffffffffffffffffffffffffffffffffffff168152602001908152602001600020819055505b5b505b60008503611a7c576040517f08c379a0000000000000000000000000000000000000000000000000000000008152600401611a7390619b99565b60405180910390fd5b601b60003373ffffffffffffffffffffffffffffffffffffffff1673ffffffffffffffffffffffffffffffffffffffff16815260200190815260200160002054851115611afe576040517f08c379a0000000000000000000000000000000000000000000000000000000008152600401611af590619c2b565b60405180910390fd5b6000611b08616f87565b905085601b60003373ffffffffffffffffffffffffffffffffffffffff1673ffffffffffffffffffffffffffffffffffffffff1681526020019081526020016000206000828254611b599190619a2b565b9250508190555085601160003373ffffffffffffffffffffffffffffffffffffffff1673ffffffffffffffffffffffffffffffffffffffff1681526020019081526020016000206000828254611baf9190619a2b565b9250508190555085601560008381526020019081526020016000206000828254611bd99190619a2b565b92505081905550600460009054906101000a900473ffffffffffffffffffffffffffffffffffffffff1673ffffffffffffffffffffffffffffffffffffffff1663a9059cbb33886040518363ffffffff1660e01b8152600401611c3d929190619c5a565b6020604051808303816000875af1158015611c5c573d6000803e3d6000fd5b505050506040513d601f19601f82011682018060405250810190611c809190619cbb565b50505050505050565b6000611c93616f87565b90506000601460008381526020019081526020016000205403611ced576005546006819055506000611cc36188f2565b90508060058190555080601460008481526020019081526020016000208190555081600881905550505b6000611cf7616f87565b90506000601560008381526020019081526020016000205403611e2f576000611d1e6188f2565b90508060075460156000600186611d359190619a2b565b815260200190815260200160002054611d4e9190619a5f565b611d589190619a5f565b601560008481526020019081526020016000206000828254611d7a9190619a5f565b925050819055506000600781905550600060156000600185611d9c9190619a2b565b815260200190815260200160002054670de0b6b3a764000060176000600187611dc59190619a2b565b815260200190815260200160002054611dde9190619a93565b611de89190619b1c565b90508060196000600186611dfc9190619a2b565b815260200190815260200160002054611e159190619a5f565b601960008581526020019081526020016000208190555050505b336000611e3a616f87565b9050600d60008373ffffffffffffffffffffffffffffffffffffffff1673ffffffffffffffffffffffffffffffffffffffff1681526020019081526020016000205481118015611edd57506000600c6000600d60008673ffffffffffffffffffffffffffffffffffffffff1673ffffffffffffffffffffffffffffffffffffffff1681526020019081526020016000205481526020019081526020016000205414155b15612268576000600c6000600d60008673ffffffffffffffffffffffffffffffffffffffff1673ffffffffffffffffffffffffffffffffffffffff1681526020019081526020016000205481526020019081526020016000205460146000600d60008773ffffffffffffffffffffffffffffffffffffffff1673ffffffffffffffffffffffffffffffffffffffff16815260200190815260200160002054815260200190815260200160002054600b60008673ffffffffffffffffffffffffffffffffffffffff1673ffffffffffffffffffffffffffffffffffffffff16815260200190815260200160002054611fd49190619a93565b611fde9190619b1c565b90506000600c6000600d60008773ffffffffffffffffffffffffffffffffffffffff1673ffffffffffffffffffffffffffffffffffffffff16815260200190815260200160002054815260200190815260200160002054146120915780601160008573ffffffffffffffffffffffffffffffffffffffff1673ffffffffffffffffffffffffffffffffffffffff16815260200190815260200160002060008282546120899190619a5f565b925050819055505b6000600960008573ffffffffffffffffffffffffffffffffffffffff1673ffffffffffffffffffffffffffffffffffffffff1681526020019081526020016000205414612221576000600b60008573ffffffffffffffffffffffffffffffffffffffff1673ffffffffffffffffffffffffffffffffffffffff16815260200190815260200160002054826121259190619b1c565b90506000612710600960008773ffffffffffffffffffffffffffffffffffffffff1673ffffffffffffffffffffffffffffffffffffffff16815260200190815260200160002054836121779190619a93565b6121819190619b1c565b905080601160008773ffffffffffffffffffffffffffffffffffffffff1673ffffffffffffffffffffffffffffffffffffffff16815260200190815260200160002060008282546121d29190619a2b565b925050819055506000600960008773ffffffffffffffffffffffffffffffffffffffff1673ffffffffffffffffffffffffffffffffffffffff1681526020019081526020016000208190555050505b6000600b60008573ffffffffffffffffffffffffffffffffffffffff1673ffffffffffffffffffffffffffffffffffffffff16815260200190815260200160002081905550505b601660008373ffffffffffffffffffffffffffffffffffffffff1673ffffffffffffffffffffffffffffffffffffffff1681526020019081526020016000205481111561244f57670de0b6b3a764000060196000601660008673ffffffffffffffffffffffffffffffffffffffff1673ffffffffffffffffffffffffffffffffffffffff1681526020019081526020016000205481526020019081526020016000205460196000848152602001908152602001600020546123299190619a2b565b601160008573ffffffffffffffffffffffffffffffffffffffff1673ffffffffffffffffffffffffffffffffffffffff168152602001908152602001600020546123739190619a93565b61237d9190619b1c565b601260008473ffffffffffffffffffffffffffffffffffffffff1673ffffffffffffffffffffffffffffffffffffffff168152602001908152602001600020546123c79190619a5f565b601260008473ffffffffffffffffffffffffffffffffffffffff1673ffffffffffffffffffffffffffffffffffffffff1681526020019081526020016000208190555080601660008473ffffffffffffffffffffffffffffffffffffffff1673ffffffffffffffffffffffffffffffffffffffff168152602001908152602001600020819055505b6000601c60008473ffffffffffffffffffffffffffffffffffffffff1673ffffffffffffffffffffffffffffffffffffffff16815260200190815260200160002054141580156124e957506001601c60008473ffffffffffffffffffffffffffffffffffffffff1673ffffffffffffffffffffffffffffffffffffffff16815260200190815260200160002054826124e79190619a2b565b115b15612e44576000601a60008473ffffffffffffffffffffffffffffffffffffffff1673ffffffffffffffffffffffffffffffffffffffff16815260200190815260200160002060006001601c60008773ffffffffffffffffffffffffffffffffffffffff1673ffffffffffffffffffffffffffffffffffffffff1681526020019081526020016000205461257d9190619a5f565b815260200190815260200160002054905080601160008573ffffffffffffffffffffffffffffffffffffffff1673ffffffffffffffffffffffffffffffffffffffff16815260200190815260200160002060008282546125dd9190619a5f565b9250508190555080601b60008573ffffffffffffffffffffffffffffffffffffffff1673ffffffffffffffffffffffffffffffffffffffff16815260200190815260200160002060008282546126339190619a5f565b92505081905550670de0b6b3a7640000601960006001601c60008873ffffffffffffffffffffffffffffffffffffffff1673ffffffffffffffffffffffffffffffffffffffff168152602001908152602001600020546126939190619a5f565b81526020019081526020016000205460196000858152602001908152602001600020546126c09190619a2b565b601a60008673ffffffffffffffffffffffffffffffffffffffff1673ffffffffffffffffffffffffffffffffffffffff16815260200190815260200160002060006001601c60008973ffffffffffffffffffffffffffffffffffffffff1673ffffffffffffffffffffffffffffffffffffffff1681526020019081526020016000205461274d9190619a5f565b8152602001908152602001600020546127669190619a93565b6127709190619b1c565b601260008573ffffffffffffffffffffffffffffffffffffffff1673ffffffffffffffffffffffffffffffffffffffff168152602001908152602001600020546127ba9190619a5f565b601260008573ffffffffffffffffffffffffffffffffffffffff1673ffffffffffffffffffffffffffffffffffffffff168152602001908152602001600020819055506000601a60008573ffffffffffffffffffffffffffffffffffffffff1673ffffffffffffffffffffffffffffffffffffffff16815260200190815260200160002060006001601c60008873ffffffffffffffffffffffffffffffffffffffff1673ffffffffffffffffffffffffffffffffffffffff1681526020019081526020016000205461288c9190619a5f565b8152602001908152602001600020819055506000601c60008573ffffffffffffffffffffffffffffffffffffffff1673ffffffffffffffffffffffffffffffffffffffff168152602001908152602001600020819055506000601d60008573ffffffffffffffffffffffffffffffffffffffff1673ffffffffffffffffffffffffffffffffffffffff1681526020019081526020016000205414612e42576001601d60008573ffffffffffffffffffffffffffffffffffffffff1673ffffffffffffffffffffffffffffffffffffffff16815260200190815260200160002054836129779190619a2b565b1115612d78576000601a60008573ffffffffffffffffffffffffffffffffffffffff1673ffffffffffffffffffffffffffffffffffffffff16815260200190815260200160002060006001601d60008873ffffffffffffffffffffffffffffffffffffffff1673ffffffffffffffffffffffffffffffffffffffff16815260200190815260200160002054612a0c9190619a5f565b815260200190815260200160002054905080601160008673ffffffffffffffffffffffffffffffffffffffff1673ffffffffffffffffffffffffffffffffffffffff1681526020019081526020016000206000828254612a6c9190619a5f565b9250508190555080601b60008673ffffffffffffffffffffffffffffffffffffffff1673ffffffffffffffffffffffffffffffffffffffff1681526020019081526020016000206000828254612ac29190619a5f565b92505081905550670de0b6b3a7640000601960006001601d60008973ffffffffffffffffffffffffffffffffffffffff1673ffffffffffffffffffffffffffffffffffffffff16815260200190815260200160002054612b229190619a5f565b8152602001908152602001600020546019600086815260200190815260200160002054612b4f9190619a2b565b601a60008773ffffffffffffffffffffffffffffffffffffffff1673ffffffffffffffffffffffffffffffffffffffff16815260200190815260200160002060006001601d60008a73ffffffffffffffffffffffffffffffffffffffff1673ffffffffffffffffffffffffffffffffffffffff16815260200190815260200160002054612bdc9190619a5f565b815260200190815260200160002054612bf59190619a93565b612bff9190619b1c565b601260008673ffffffffffffffffffffffffffffffffffffffff1673ffffffffffffffffffffffffffffffffffffffff16815260200190815260200160002054612c499190619a5f565b601260008673ffffffffffffffffffffffffffffffffffffffff1673ffffffffffffffffffffffffffffffffffffffff168152602001908152602001600020819055506000601a60008673ffffffffffffffffffffffffffffffffffffffff1673ffffffffffffffffffffffffffffffffffffffff16815260200190815260200160002060006001601d60008973ffffffffffffffffffffffffffffffffffffffff1673ffffffffffffffffffffffffffffffffffffffff16815260200190815260200160002054612d1b9190619a5f565b8152602001908152602001600020819055506000601d60008673ffffffffffffffffffffffffffffffffffffffff1673ffffffffffffffffffffffffffffffffffffffff1681526020019081526020016000208190555050612e41565b601d60008473ffffffffffffffffffffffffffffffffffffffff1673ffffffffffffffffffffffffffffffffffffffff16815260200190815260200160002054601c60008573ffffffffffffffffffffffffffffffffffffffff1673ffffffffffffffffffffffffffffffffffffffff168152602001908152602001600020819055506000601d60008573ffffffffffffffffffffffffffffffffffffffff1673ffffffffffffffffffffffffffffffffffffffff168152602001908152602001600020819055505b5b505b6000612e4e616f87565b90506000601b60003373ffffffffffffffffffffffffffffffffffffffff1673ffffffffffffffffffffffffffffffffffffffff16815260200190815260200160002054601160003373ffffffffffffffffffffffffffffffffffffffff1673ffffffffffffffffffffffffffffffffffffffff16815260200190815260200160002054612edc9190619a2b565b905060008111612f21576040517f08c379a0000000000000000000000000000000000000000000000000000000008152600401612f1890619d34565b60405180910390fd5b80601160003373ffffffffffffffffffffffffffffffffffffffff1673ffffffffffffffffffffffffffffffffffffffff1681526020019081526020016000206000828254612f709190619a2b565b92505081905550806015600084815260200190815260200160002054612f969190619a2b565b6015600084815260200190815260200160002081905550600460009054906101000a900473ffffffffffffffffffffffffffffffffffffffff1673ffffffffffffffffffffffffffffffffffffffff16639a49090e33836040518363ffffffff1660e01b815260040161300a929190619c5a565b600060405180830381600087803b15801561302457600080fd5b505af1158015613038573d6000803e3d6000fd5b50505050505050505050565b600061304e616f87565b905060006014600083815260200190815260200160002054036130a857600554600681905550600061307e6188f2565b90508060058190555080601460008481526020019081526020016000208190555081600881905550505b60006130b2616f87565b905060006015600083815260200190815260200160002054036131ea5760006130d96188f2565b905080600754601560006001866130f09190619a2b565b8152602001908152602001600020546131099190619a5f565b6131139190619a5f565b6015600084815260200190815260200160002060008282546131359190619a5f565b9250508190555060006007819055506000601560006001856131579190619a2b565b815260200190815260200160002054670de0b6b3a7640000601760006001876131809190619a2b565b8152602001908152602001600020546131999190619a93565b6131a39190619b1c565b905080601960006001866131b79190619a2b565b8152602001908152602001600020546131d09190619a5f565b601960008581526020019081526020016000208190555050505b60006131f4616f87565b9050613200338261893a565b6000601060003373ffffffffffffffffffffffffffffffffffffffff1673ffffffffffffffffffffffffffffffffffffffff16815260200190815260200160002054905060008111613287576040517f08c379a000000000000000000000000000000000000000000000000000000000815260040161327e90619dc6565b60405180910390fd5b6000601060003373ffffffffffffffffffffffffffffffffffffffff1673ffffffffffffffffffffffffffffffffffffffff168152602001908152602001600020819055506132d63382618d51565b7f83db9dc084973306ecd0b0f10cb495b81dd9ddcc135eb7934d2723bcabc8f4c3816040516133059190618f2f565b60405180910390a150505050565b601d6020528060005260406000206000915090505481565b6000613335616f87565b9050600060146000838152602001908152602001600020540361338f5760055460068190555060006133656188f2565b90508060058190555080601460008481526020019081526020016000208190555081600881905550505b6000613399616f87565b905060006015600083815260200190815260200160002054036134d15760006133c06188f2565b905080600754601560006001866133d79190619a2b565b8152602001908152602001600020546133f09190619a5f565b6133fa9190619a5f565b60156000848152602001908152602001600020600082825461341c9190619a5f565b92505081905550600060078190555060006015600060018561343e9190619a2b565b815260200190815260200160002054670de0b6b3a7640000601760006001876134679190619a2b565b8152602001908152602001600020546134809190619a93565b61348a9190619b1c565b9050806019600060018661349e9190619a2b565b8152602001908152602001600020546134b79190619a5f565b601960008581526020019081526020016000208190555050505b60006134db616f87565b90506134e7338261893a565b6000601360003373ffffffffffffffffffffffffffffffffffffffff1673ffffffffffffffffffffffffffffffffffffffff1681526020019081526020016000205490506000811161356e576040517f08c379a000000000000000000000000000000000000000000000000000000000815260040161356590619d34565b60405180910390fd5b6000601360003373ffffffffffffffffffffffffffffffffffffffff1673ffffffffffffffffffffffffffffffffffffffff16815260200190815260200160002081905550600460009054906101000a900473ffffffffffffffffffffffffffffffffffffffff1673ffffffffffffffffffffffffffffffffffffffff16639a49090e33836040518363ffffffff1660e01b8152600401613610929190619c5a565b600060405180830381600087803b15801561362a57600080fd5b505af115801561363e573d6000803e3d6000fd5b5050505050505050565b6060600260008373ffffffffffffffffffffffffffffffffffffffff1673ffffffffffffffffffffffffffffffffffffffff168152602001908152602001600020805480602002602001604051908101604052809291908181526020016000905b8282101561381957838290600052602060002090600302016040518060400160405290816000820180548060200260200160405190810160405280929190818152602001828054801561375157602002820191906000526020600020905b8160009054906101000a900473ffffffffffffffffffffffffffffffffffffffff1673ffffffffffffffffffffffffffffffffffffffff1681526020019060010190808311613707575b505050505081526020016001820160405180604001604052908160008201805461377a90619e15565b80601f01602080910402602001604051908101604052809291908181526020018280546137a690619e15565b80156137f35780601f106137c8576101008083540402835291602001916137f3565b820191906000526020600020905b8154815290600101906020018083116137d657829003601f168201915b5050505050815260200160018201548152505081525050815260200190600101906136a9565b505050509050919050565b6060600360008373ffffffffffffffffffffffffffffffffffffffff1673ffffffffffffffffffffffffffffffffffffffff1681526020019081526020016000208054806020026020016040519081016040528092919081815260200182805480156138e557602002820191906000526020600020905b8160009054906101000a900473ffffffffffffffffffffffffffffffffffffffff1673ffffffffffffffffffffffffffffffffffffffff168152602001906001019080831161389b575b50505050509050919050565b6000806138fc616f87565b90506000601160008573ffffffffffffffffffffffffffffffffffffffff1673ffffffffffffffffffffffffffffffffffffffff1681526020019081526020016000205490506000600c6000600d60008873ffffffffffffffffffffffffffffffffffffffff1673ffffffffffffffffffffffffffffffffffffffff16815260200190815260200160002054815260200190815260200160002054141580156139e4575081600d60008673ffffffffffffffffffffffffffffffffffffffff1673ffffffffffffffffffffffffffffffffffffffff1681526020019081526020016000205414155b15613bfa576000600c6000600d60008873ffffffffffffffffffffffffffffffffffffffff1673ffffffffffffffffffffffffffffffffffffffff1681526020019081526020016000205481526020019081526020016000205460146000600d60008973ffffffffffffffffffffffffffffffffffffffff1673ffffffffffffffffffffffffffffffffffffffff16815260200190815260200160002054815260200190815260200160002054600b60008873ffffffffffffffffffffffffffffffffffffffff1673ffffffffffffffffffffffffffffffffffffffff16815260200190815260200160002054613adb9190619a93565b613ae59190619b1c565b90508082613af39190619a5f565b91506000600960008773ffffffffffffffffffffffffffffffffffffffff1673ffffffffffffffffffffffffffffffffffffffff1681526020019081526020016000205414613bf8576000600b60008773ffffffffffffffffffffffffffffffffffffffff1673ffffffffffffffffffffffffffffffffffffffff1681526020019081526020016000205482613b899190619b1c565b90506000612710600960008973ffffffffffffffffffffffffffffffffffffffff1673ffffffffffffffffffffffffffffffffffffffff1681526020019081526020016000205483613bdb9190619a93565b613be59190619b1c565b90508084613bf39190619a2b565b935050505b505b8092505050919050565b6060600160008473ffffffffffffffffffffffffffffffffffffffff1673ffffffffffffffffffffffffffffffffffffffff16815260200190815260200160002060008373ffffffffffffffffffffffffffffffffffffffff1673ffffffffffffffffffffffffffffffffffffffff168152602001908152602001600020805480602002602001604051908101604052809291908181526020016000905b82821015613d705783829060005260206000209060020201604051806040016040529081600082018054613cd590619e15565b80601f0160208091040260200160405190810160405280929190818152602001828054613d0190619e15565b8015613d4e5780601f10613d2357610100808354040283529160200191613d4e565b820191906000526020600020905b815481529060010190602001808311613d3157829003601f168201915b5050505050815260200160018201548152505081526020019060010190613ca2565b50505050905092915050565b8060005a90506000613d8c616f87565b90506000601460008381526020019081526020016000205403613de6576005546006819055506000613dbc6188f2565b90508060058190555080601460008481526020019081526020016000208190555081600881905550505b6000613df0616f87565b90506000601560008381526020019081526020016000205403613f28576000613e176188f2565b90508060075460156000600186613e2e9190619a2b565b815260200190815260200160002054613e479190619a5f565b613e519190619a5f565b601560008481526020019081526020016000206000828254613e739190619a5f565b925050819055506000600781905550600060156000600185613e959190619a2b565b815260200190815260200160002054670de0b6b3a764000060176000600187613ebe9190619a2b565b815260200190815260200160002054613ed79190619a93565b613ee19190619b1c565b90508060196000600186613ef59190619a2b565b815260200190815260200160002054613f0e9190619a5f565b601960008581526020019081526020016000208190555050505b336000613f33616f87565b9050600d60008373ffffffffffffffffffffffffffffffffffffffff1673ffffffffffffffffffffffffffffffffffffffff1681526020019081526020016000205481118015613fd657506000600c6000600d60008673ffffffffffffffffffffffffffffffffffffffff1673ffffffffffffffffffffffffffffffffffffffff1681526020019081526020016000205481526020019081526020016000205414155b15614361576000600c6000600d60008673ffffffffffffffffffffffffffffffffffffffff1673ffffffffffffffffffffffffffffffffffffffff1681526020019081526020016000205481526020019081526020016000205460146000600d60008773ffffffffffffffffffffffffffffffffffffffff1673ffffffffffffffffffffffffffffffffffffffff16815260200190815260200160002054815260200190815260200160002054600b60008673ffffffffffffffffffffffffffffffffffffffff1673ffffffffffffffffffffffffffffffffffffffff168152602001908152602001600020546140cd9190619a93565b6140d79190619b1c565b90506000600c6000600d60008773ffffffffffffffffffffffffffffffffffffffff1673ffffffffffffffffffffffffffffffffffffffff168152602001908152602001600020548152602001908152602001600020541461418a5780601160008573ffffffffffffffffffffffffffffffffffffffff1673ffffffffffffffffffffffffffffffffffffffff16815260200190815260200160002060008282546141829190619a5f565b925050819055505b6000600960008573ffffffffffffffffffffffffffffffffffffffff1673ffffffffffffffffffffffffffffffffffffffff168152602001908152602001600020541461431a576000600b60008573ffffffffffffffffffffffffffffffffffffffff1673ffffffffffffffffffffffffffffffffffffffff168152602001908152602001600020548261421e9190619b1c565b90506000612710600960008773ffffffffffffffffffffffffffffffffffffffff1673ffffffffffffffffffffffffffffffffffffffff16815260200190815260200160002054836142709190619a93565b61427a9190619b1c565b905080601160008773ffffffffffffffffffffffffffffffffffffffff1673ffffffffffffffffffffffffffffffffffffffff16815260200190815260200160002060008282546142cb9190619a2b565b925050819055506000600960008773ffffffffffffffffffffffffffffffffffffffff1673ffffffffffffffffffffffffffffffffffffffff1681526020019081526020016000208190555050505b6000600b60008573ffffffffffffffffffffffffffffffffffffffff1673ffffffffffffffffffffffffffffffffffffffff16815260200190815260200160002081905550505b601660008373ffffffffffffffffffffffffffffffffffffffff1673ffffffffffffffffffffffffffffffffffffffff1681526020019081526020016000205481111561454857670de0b6b3a764000060196000601660008673ffffffffffffffffffffffffffffffffffffffff1673ffffffffffffffffffffffffffffffffffffffff1681526020019081526020016000205481526020019081526020016000205460196000848152602001908152602001600020546144229190619a2b565b601160008573ffffffffffffffffffffffffffffffffffffffff1673ffffffffffffffffffffffffffffffffffffffff1681526020019081526020016000205461446c9190619a93565b6144769190619b1c565b601260008473ffffffffffffffffffffffffffffffffffffffff1673ffffffffffffffffffffffffffffffffffffffff168152602001908152602001600020546144c09190619a5f565b601260008473ffffffffffffffffffffffffffffffffffffffff1673ffffffffffffffffffffffffffffffffffffffff1681526020019081526020016000208190555080601660008473ffffffffffffffffffffffffffffffffffffffff1673ffffffffffffffffffffffffffffffffffffffff168152602001908152602001600020819055505b6000601c60008473ffffffffffffffffffffffffffffffffffffffff1673ffffffffffffffffffffffffffffffffffffffff16815260200190815260200160002054141580156145e257506001601c60008473ffffffffffffffffffffffffffffffffffffffff1673ffffffffffffffffffffffffffffffffffffffff16815260200190815260200160002054826145e09190619a2b565b115b15614f3d576000601a60008473ffffffffffffffffffffffffffffffffffffffff1673ffffffffffffffffffffffffffffffffffffffff16815260200190815260200160002060006001601c60008773ffffffffffffffffffffffffffffffffffffffff1673ffffffffffffffffffffffffffffffffffffffff168152602001908152602001600020546146769190619a5f565b815260200190815260200160002054905080601160008573ffffffffffffffffffffffffffffffffffffffff1673ffffffffffffffffffffffffffffffffffffffff16815260200190815260200160002060008282546146d69190619a5f565b9250508190555080601b60008573ffffffffffffffffffffffffffffffffffffffff1673ffffffffffffffffffffffffffffffffffffffff168152602001908152602001600020600082825461472c9190619a5f565b92505081905550670de0b6b3a7640000601960006001601c60008873ffffffffffffffffffffffffffffffffffffffff1673ffffffffffffffffffffffffffffffffffffffff1681526020019081526020016000205461478c9190619a5f565b81526020019081526020016000205460196000858152602001908152602001600020546147b99190619a2b565b601a60008673ffffffffffffffffffffffffffffffffffffffff1673ffffffffffffffffffffffffffffffffffffffff16815260200190815260200160002060006001601c60008973ffffffffffffffffffffffffffffffffffffffff1673ffffffffffffffffffffffffffffffffffffffff168152602001908152602001600020546148469190619a5f565b81526020019081526020016000205461485f9190619a93565b6148699190619b1c565b601260008573ffffffffffffffffffffffffffffffffffffffff1673ffffffffffffffffffffffffffffffffffffffff168152602001908152602001600020546148b39190619a5f565b601260008573ffffffffffffffffffffffffffffffffffffffff1673ffffffffffffffffffffffffffffffffffffffff168152602001908152602001600020819055506000601a60008573ffffffffffffffffffffffffffffffffffffffff1673ffffffffffffffffffffffffffffffffffffffff16815260200190815260200160002060006001601c60008873ffffffffffffffffffffffffffffffffffffffff1673ffffffffffffffffffffffffffffffffffffffff168152602001908152602001600020546149859190619a5f565b8152602001908152602001600020819055506000601c60008573ffffffffffffffffffffffffffffffffffffffff1673ffffffffffffffffffffffffffffffffffffffff168152602001908152602001600020819055506000601d60008573ffffffffffffffffffffffffffffffffffffffff1673ffffffffffffffffffffffffffffffffffffffff1681526020019081526020016000205414614f3b576001601d60008573ffffffffffffffffffffffffffffffffffffffff1673ffffffffffffffffffffffffffffffffffffffff1681526020019081526020016000205483614a709190619a2b565b1115614e71576000601a60008573ffffffffffffffffffffffffffffffffffffffff1673ffffffffffffffffffffffffffffffffffffffff16815260200190815260200160002060006001601d60008873ffffffffffffffffffffffffffffffffffffffff1673ffffffffffffffffffffffffffffffffffffffff16815260200190815260200160002054614b059190619a5f565b815260200190815260200160002054905080601160008673ffffffffffffffffffffffffffffffffffffffff1673ffffffffffffffffffffffffffffffffffffffff1681526020019081526020016000206000828254614b659190619a5f565b9250508190555080601b60008673ffffffffffffffffffffffffffffffffffffffff1673ffffffffffffffffffffffffffffffffffffffff1681526020019081526020016000206000828254614bbb9190619a5f565b92505081905550670de0b6b3a7640000601960006001601d60008973ffffffffffffffffffffffffffffffffffffffff1673ffffffffffffffffffffffffffffffffffffffff16815260200190815260200160002054614c1b9190619a5f565b8152602001908152602001600020546019600086815260200190815260200160002054614c489190619a2b565b601a60008773ffffffffffffffffffffffffffffffffffffffff1673ffffffffffffffffffffffffffffffffffffffff16815260200190815260200160002060006001601d60008a73ffffffffffffffffffffffffffffffffffffffff1673ffffffffffffffffffffffffffffffffffffffff16815260200190815260200160002054614cd59190619a5f565b815260200190815260200160002054614cee9190619a93565b614cf89190619b1c565b601260008673ffffffffffffffffffffffffffffffffffffffff1673ffffffffffffffffffffffffffffffffffffffff16815260200190815260200160002054614d429190619a5f565b601260008673ffffffffffffffffffffffffffffffffffffffff1673ffffffffffffffffffffffffffffffffffffffff168152602001908152602001600020819055506000601a60008673ffffffffffffffffffffffffffffffffffffffff1673ffffffffffffffffffffffffffffffffffffffff16815260200190815260200160002060006001601d60008973ffffffffffffffffffffffffffffffffffffffff1673ffffffffffffffffffffffffffffffffffffffff16815260200190815260200160002054614e149190619a5f565b8152602001908152602001600020819055506000601d60008673ffffffffffffffffffffffffffffffffffffffff1673ffffffffffffffffffffffffffffffffffffffff1681526020019081526020016000208190555050614f3a565b601d60008473ffffffffffffffffffffffffffffffffffffffff1673ffffffffffffffffffffffffffffffffffffffff16815260200190815260200160002054601c60008573ffffffffffffffffffffffffffffffffffffffff1673ffffffffffffffffffffffffffffffffffffffff168152602001908152602001600020819055506000601d60008573ffffffffffffffffffffffffffffffffffffffff1673ffffffffffffffffffffffffffffffffffffffff168152602001908152602001600020819055505b5b505b6000614f47616f87565b9050614f538a8261893a565b600b60003373ffffffffffffffffffffffffffffffffffffffff1673ffffffffffffffffffffffffffffffffffffffff1681526020019081526020016000206000815480929190614fa390619e46565b9190505550600c60008281526020019081526020016000206000815480929190614fcc90619e46565b919050555080600d60003373ffffffffffffffffffffffffffffffffffffffff1673ffffffffffffffffffffffffffffffffffffffff16815260200190815260200160002081905550600073ffffffffffffffffffffffffffffffffffffffff168a73ffffffffffffffffffffffffffffffffffffffff161461515e57600089146150fe5788600960003373ffffffffffffffffffffffffffffffffffffffff1673ffffffffffffffffffffffffffffffffffffffff16815260200190815260200160002060008282546150a09190619a5f565b9250508190555088600a60008c73ffffffffffffffffffffffffffffffffffffffff1673ffffffffffffffffffffffffffffffffffffffff16815260200190815260200160002060008282546150f69190619a5f565b925050819055505b6000881461515d5787601060008c73ffffffffffffffffffffffffffffffffffffffff1673ffffffffffffffffffffffffffffffffffffffff16815260200190815260200160002060008282546151559190619a5f565b925050819055505b5b6151688c8c616b76565b505050505060006127106103e861ffff163a6179845a866151899190619a2b565b6151939190619a5f565b61519d9190619a93565b6151a79190619a93565b6151b19190619b1c565b90508083346151c09190619a2b565b1015615201576040517f08c379a00000000000000000000000000000000000000000000000000000000081526004016151f890619f00565b60405180910390fd5b615221338483346152129190619a2b565b61521c9190619a2b565b618d51565b600061522b616f87565b9050816017600083815260200190815260200160002060008282546152509190619a5f565b92505081905550505050505050505050565b600460009054906101000a900473ffffffffffffffffffffffffffffffffffffffff1681565b6000615292616f87565b905060006014600083815260200190815260200160002054036152ec5760055460068190555060006152c26188f2565b90508060058190555080601460008481526020019081526020016000208190555081600881905550505b60006152f6616f87565b9050600060156000838152602001908152602001600020540361542e57600061531d6188f2565b905080600754601560006001866153349190619a2b565b81526020019081526020016000205461534d9190619a5f565b6153579190619a5f565b6015600084815260200190815260200160002060008282546153799190619a5f565b92505081905550600060078190555060006015600060018561539b9190619a2b565b815260200190815260200160002054670de0b6b3a7640000601760006001876153c49190619a2b565b8152602001908152602001600020546153dd9190619a93565b6153e79190619b1c565b905080601960006001866153fb9190619a2b565b8152602001908152602001600020546154149190619a5f565b601960008581526020019081526020016000208190555050505b336000615439616f87565b9050600d60008373ffffffffffffffffffffffffffffffffffffffff1673ffffffffffffffffffffffffffffffffffffffff16815260200190815260200160002054811180156154dc57506000600c6000600d60008673ffffffffffffffffffffffffffffffffffffffff1673ffffffffffffffffffffffffffffffffffffffff1681526020019081526020016000205481526020019081526020016000205414155b15615867576000600c6000600d60008673ffffffffffffffffffffffffffffffffffffffff1673ffffffffffffffffffffffffffffffffffffffff1681526020019081526020016000205481526020019081526020016000205460146000600d60008773ffffffffffffffffffffffffffffffffffffffff1673ffffffffffffffffffffffffffffffffffffffff16815260200190815260200160002054815260200190815260200160002054600b60008673ffffffffffffffffffffffffffffffffffffffff1673ffffffffffffffffffffffffffffffffffffffff168152602001908152602001600020546155d39190619a93565b6155dd9190619b1c565b90506000600c6000600d60008773ffffffffffffffffffffffffffffffffffffffff1673ffffffffffffffffffffffffffffffffffffffff16815260200190815260200160002054815260200190815260200160002054146156905780601160008573ffffffffffffffffffffffffffffffffffffffff1673ffffffffffffffffffffffffffffffffffffffff16815260200190815260200160002060008282546156889190619a5f565b925050819055505b6000600960008573ffffffffffffffffffffffffffffffffffffffff1673ffffffffffffffffffffffffffffffffffffffff1681526020019081526020016000205414615820576000600b60008573ffffffffffffffffffffffffffffffffffffffff1673ffffffffffffffffffffffffffffffffffffffff16815260200190815260200160002054826157249190619b1c565b90506000612710600960008773ffffffffffffffffffffffffffffffffffffffff1673ffffffffffffffffffffffffffffffffffffffff16815260200190815260200160002054836157769190619a93565b6157809190619b1c565b905080601160008773ffffffffffffffffffffffffffffffffffffffff1673ffffffffffffffffffffffffffffffffffffffff16815260200190815260200160002060008282546157d19190619a2b565b925050819055506000600960008773ffffffffffffffffffffffffffffffffffffffff1673ffffffffffffffffffffffffffffffffffffffff1681526020019081526020016000208190555050505b6000600b60008573ffffffffffffffffffffffffffffffffffffffff1673ffffffffffffffffffffffffffffffffffffffff16815260200190815260200160002081905550505b601660008373ffffffffffffffffffffffffffffffffffffffff1673ffffffffffffffffffffffffffffffffffffffff16815260200190815260200160002054811115615a4e57670de0b6b3a764000060196000601660008673ffffffffffffffffffffffffffffffffffffffff1673ffffffffffffffffffffffffffffffffffffffff1681526020019081526020016000205481526020019081526020016000205460196000848152602001908152602001600020546159289190619a2b565b601160008573ffffffffffffffffffffffffffffffffffffffff1673ffffffffffffffffffffffffffffffffffffffff168152602001908152602001600020546159729190619a93565b61597c9190619b1c565b601260008473ffffffffffffffffffffffffffffffffffffffff1673ffffffffffffffffffffffffffffffffffffffff168152602001908152602001600020546159c69190619a5f565b601260008473ffffffffffffffffffffffffffffffffffffffff1673ffffffffffffffffffffffffffffffffffffffff1681526020019081526020016000208190555080601660008473ffffffffffffffffffffffffffffffffffffffff1673ffffffffffffffffffffffffffffffffffffffff168152602001908152602001600020819055505b6000601c60008473ffffffffffffffffffffffffffffffffffffffff1673ffffffffffffffffffffffffffffffffffffffff1681526020019081526020016000205414158015615ae857506001601c60008473ffffffffffffffffffffffffffffffffffffffff1673ffffffffffffffffffffffffffffffffffffffff1681526020019081526020016000205482615ae69190619a2b565b115b15616443576000601a60008473ffffffffffffffffffffffffffffffffffffffff1673ffffffffffffffffffffffffffffffffffffffff16815260200190815260200160002060006001601c60008773ffffffffffffffffffffffffffffffffffffffff1673ffffffffffffffffffffffffffffffffffffffff16815260200190815260200160002054615b7c9190619a5f565b815260200190815260200160002054905080601160008573ffffffffffffffffffffffffffffffffffffffff1673ffffffffffffffffffffffffffffffffffffffff1681526020019081526020016000206000828254615bdc9190619a5f565b9250508190555080601b60008573ffffffffffffffffffffffffffffffffffffffff1673ffffffffffffffffffffffffffffffffffffffff1681526020019081526020016000206000828254615c329190619a5f565b92505081905550670de0b6b3a7640000601960006001601c60008873ffffffffffffffffffffffffffffffffffffffff1673ffffffffffffffffffffffffffffffffffffffff16815260200190815260200160002054615c929190619a5f565b8152602001908152602001600020546019600085815260200190815260200160002054615cbf9190619a2b565b601a60008673ffffffffffffffffffffffffffffffffffffffff1673ffffffffffffffffffffffffffffffffffffffff16815260200190815260200160002060006001601c60008973ffffffffffffffffffffffffffffffffffffffff1673ffffffffffffffffffffffffffffffffffffffff16815260200190815260200160002054615d4c9190619a5f565b815260200190815260200160002054615d659190619a93565b615d6f9190619b1c565b601260008573ffffffffffffffffffffffffffffffffffffffff1673ffffffffffffffffffffffffffffffffffffffff16815260200190815260200160002054615db99190619a5f565b601260008573ffffffffffffffffffffffffffffffffffffffff1673ffffffffffffffffffffffffffffffffffffffff168152602001908152602001600020819055506000601a60008573ffffffffffffffffffffffffffffffffffffffff1673ffffffffffffffffffffffffffffffffffffffff16815260200190815260200160002060006001601c60008873ffffffffffffffffffffffffffffffffffffffff1673ffffffffffffffffffffffffffffffffffffffff16815260200190815260200160002054615e8b9190619a5f565b8152602001908152602001600020819055506000601c60008573ffffffffffffffffffffffffffffffffffffffff1673ffffffffffffffffffffffffffffffffffffffff168152602001908152602001600020819055506000601d60008573ffffffffffffffffffffffffffffffffffffffff1673ffffffffffffffffffffffffffffffffffffffff1681526020019081526020016000205414616441576001601d60008573ffffffffffffffffffffffffffffffffffffffff1673ffffffffffffffffffffffffffffffffffffffff1681526020019081526020016000205483615f769190619a2b565b1115616377576000601a60008573ffffffffffffffffffffffffffffffffffffffff1673ffffffffffffffffffffffffffffffffffffffff16815260200190815260200160002060006001601d60008873ffffffffffffffffffffffffffffffffffffffff1673ffffffffffffffffffffffffffffffffffffffff1681526020019081526020016000205461600b9190619a5f565b815260200190815260200160002054905080601160008673ffffffffffffffffffffffffffffffffffffffff1673ffffffffffffffffffffffffffffffffffffffff168152602001908152602001600020600082825461606b9190619a5f565b9250508190555080601b60008673ffffffffffffffffffffffffffffffffffffffff1673ffffffffffffffffffffffffffffffffffffffff16815260200190815260200160002060008282546160c19190619a5f565b92505081905550670de0b6b3a7640000601960006001601d60008973ffffffffffffffffffffffffffffffffffffffff1673ffffffffffffffffffffffffffffffffffffffff168152602001908152602001600020546161219190619a5f565b815260200190815260200160002054601960008681526020019081526020016000205461614e9190619a2b565b601a60008773ffffffffffffffffffffffffffffffffffffffff1673ffffffffffffffffffffffffffffffffffffffff16815260200190815260200160002060006001601d60008a73ffffffffffffffffffffffffffffffffffffffff1673ffffffffffffffffffffffffffffffffffffffff168152602001908152602001600020546161db9190619a5f565b8152602001908152602001600020546161f49190619a93565b6161fe9190619b1c565b601260008673ffffffffffffffffffffffffffffffffffffffff1673ffffffffffffffffffffffffffffffffffffffff168152602001908152602001600020546162489190619a5f565b601260008673ffffffffffffffffffffffffffffffffffffffff1673ffffffffffffffffffffffffffffffffffffffff168152602001908152602001600020819055506000601a60008673ffffffffffffffffffffffffffffffffffffffff1673ffffffffffffffffffffffffffffffffffffffff16815260200190815260200160002060006001601d60008973ffffffffffffffffffffffffffffffffffffffff1673ffffffffffffffffffffffffffffffffffffffff1681526020019081526020016000205461631a9190619a5f565b8152602001908152602001600020819055506000601d60008673ffffffffffffffffffffffffffffffffffffffff1673ffffffffffffffffffffffffffffffffffffffff1681526020019081526020016000208190555050616440565b601d60008473ffffffffffffffffffffffffffffffffffffffff1673ffffffffffffffffffffffffffffffffffffffff16815260200190815260200160002054601c60008573ffffffffffffffffffffffffffffffffffffffff1673ffffffffffffffffffffffffffffffffffffffff168152602001908152602001600020819055506000601d60008573ffffffffffffffffffffffffffffffffffffffff1673ffffffffffffffffffffffffffffffffffffffff168152602001908152602001600020819055505b5b505b60008503616486576040517f08c379a000000000000000000000000000000000000000000000000000000000815260040161647d90619b99565b60405180910390fd5b6000616490616f87565b905085600760008282546164a49190619a5f565b92505081905550601c60003373ffffffffffffffffffffffffffffffffffffffff1673ffffffffffffffffffffffffffffffffffffffff1681526020019081526020016000205481141580156165395750601d60003373ffffffffffffffffffffffffffffffffffffffff1673ffffffffffffffffffffffffffffffffffffffff168152602001908152602001600020548114155b1561665c576000601c60003373ffffffffffffffffffffffffffffffffffffffff1673ffffffffffffffffffffffffffffffffffffffff16815260200190815260200160002054036165ce5780601c60003373ffffffffffffffffffffffffffffffffffffffff1673ffffffffffffffffffffffffffffffffffffffff1681526020019081526020016000208190555061665b565b6000601d60003373ffffffffffffffffffffffffffffffffffffffff1673ffffffffffffffffffffffffffffffffffffffff168152602001908152602001600020540361665a5780601d60003373ffffffffffffffffffffffffffffffffffffffff1673ffffffffffffffffffffffffffffffffffffffff168152602001908152602001600020819055505b5b5b85601a60003373ffffffffffffffffffffffffffffffffffffffff1673ffffffffffffffffffffffffffffffffffffffff16815260200190815260200160002060006001846166ab9190619a5f565b815260200190815260200160002060008282546166c89190619a5f565b92505081905550600460009054906101000a900473ffffffffffffffffffffffffffffffffffffffff1673ffffffffffffffffffffffffffffffffffffffff166323b872dd3330896040518463ffffffff1660e01b815260040161672e93929190619f20565b6020604051808303816000875af115801561674d573d6000803e3d6000fd5b505050506040513d601f19601f820116820180604052508101906167719190619cbb565b50505050505050565b601b6020528060005260406000206000915090505481565b600047905090565b60606000808373ffffffffffffffffffffffffffffffffffffffff1673ffffffffffffffffffffffffffffffffffffffff16815260200190815260200160002080546167e590619e15565b80601f016020809104026020016040519081016040528092919081815260200182805461681190619e15565b801561685e5780601f106168335761010080835404028352916020019161685e565b820191906000526020600020905b81548152906001019060200180831161684157829003601f168201915b50505050509050919050565b601c6020528060005260406000206000915090505481565b60008061688d616f87565b9050600080601c60008673ffffffffffffffffffffffffffffffffffffffff1673ffffffffffffffffffffffffffffffffffffffff168152602001908152602001600020541415801561692a57506001601c60008673ffffffffffffffffffffffffffffffffffffffff1673ffffffffffffffffffffffffffffffffffffffff16815260200190815260200160002054836169289190619a2b565b115b15616b2257601a60008573ffffffffffffffffffffffffffffffffffffffff1673ffffffffffffffffffffffffffffffffffffffff16815260200190815260200160002060006001601c60008873ffffffffffffffffffffffffffffffffffffffff1673ffffffffffffffffffffffffffffffffffffffff168152602001908152602001600020546169bc9190619a5f565b815260200190815260200160002054816169d69190619a5f565b90506000601d60008673ffffffffffffffffffffffffffffffffffffffff1673ffffffffffffffffffffffffffffffffffffffff1681526020019081526020016000205414158015616a7257506001601d60008673ffffffffffffffffffffffffffffffffffffffff1673ffffffffffffffffffffffffffffffffffffffff1681526020019081526020016000205483616a709190619a2b565b115b15616b2157601a60008573ffffffffffffffffffffffffffffffffffffffff1673ffffffffffffffffffffffffffffffffffffffff16815260200190815260200160002060006001601d60008873ffffffffffffffffffffffffffffffffffffffff1673ffffffffffffffffffffffffffffffffffffffff16815260200190815260200160002054616b049190619a5f565b81526020019081526020016000205481616b1e9190619a5f565b90505b5b80601b60008673ffffffffffffffffffffffffffffffffffffffff1673ffffffffffffffffffffffffffffffffffffffff16815260200190815260200160002054616b6d9190619a5f565b92505050919050565b60005b60018351616b879190619a2b565b811015616e1357600060016000858481518110616ba757616ba6619f57565b5b602002602001015173ffffffffffffffffffffffffffffffffffffffff1673ffffffffffffffffffffffffffffffffffffffff16815260200190815260200160002060003373ffffffffffffffffffffffffffffffffffffffff1673ffffffffffffffffffffffffffffffffffffffff1681526020019081526020016000208054905003616cea5760036000848381518110616c4657616c45619f57565b5b602002602001015173ffffffffffffffffffffffffffffffffffffffff1673ffffffffffffffffffffffffffffffffffffffff168152602001908152602001600020339080600181540180825580915050600190039060005260206000200160009091909190916101000a81548173ffffffffffffffffffffffffffffffffffffffff021916908373ffffffffffffffffffffffffffffffffffffffff1602179055505b60006040518060400160405280848481518110616d0a57616d09619f57565b5b6020026020010151815260200142815250905060016000858481518110616d3457616d33619f57565b5b602002602001015173ffffffffffffffffffffffffffffffffffffffff1673ffffffffffffffffffffffffffffffffffffffff16815260200190815260200160002060003373ffffffffffffffffffffffffffffffffffffffff1673ffffffffffffffffffffffffffffffffffffffff1681526020019081526020016000208190806001815401808255809150506001900390600052602060002090600202016000909190919091506000820151816000019081616df2919061a128565b50602082015181600101555050508080616e0b90619e46565b915050616b79565b50600060405180604001604052808360018651616e309190619a2b565b81518110616e4157616e40619f57565b5b60200260200101518152602001428152509050600260003373ffffffffffffffffffffffffffffffffffffffff1673ffffffffffffffffffffffffffffffffffffffff16815260200190815260200160002060405180604001604052808581526020018381525090806001815401808255809150506001900390600052602060002090600302016000909190919091506000820151816000019080519060200190616eed929190618e02565b506020820151816001016000820151816000019081616f0c919061a128565b506020820151816001015550505050505050565b60146020528060005260406000206000915090505481565b806000803373ffffffffffffffffffffffffffffffffffffffff1673ffffffffffffffffffffffffffffffffffffffff1681526020019081526020016000209081616f83919061a128565b5050565b60007f00000000000000000000000000000000000000000000000000000000000000007f000000000000000000000000000000000000000000000000000000000000000042616fd69190619a2b565b616fe09190619b1c565b905090565b60196020528060005260406000206000915090505481565b600080617008616f87565b90506000601260008573ffffffffffffffffffffffffffffffffffffffff1673ffffffffffffffffffffffffffffffffffffffff16815260200190815260200160002054905060008060006015600086815260200190815260200160002054036171435760006170766188f2565b9050806007546015600060018961708d9190619a2b565b8152602001908152602001600020546170a69190619a5f565b6170b09190619a5f565b92506000601560006001886170c59190619a2b565b815260200190815260200160002054670de0b6b3a76400006017600060018a6170ee9190619a2b565b8152602001908152602001600020546171079190619a93565b6171119190619b1c565b905080601960006001896171259190619a2b565b81526020019081526020016000205461713e9190619a5f565b925050505b600061714e876138f1565b9050601660008873ffffffffffffffffffffffffffffffffffffffff1673ffffffffffffffffffffffffffffffffffffffff1681526020019081526020016000205485111561722157670de0b6b3a764000060196000601660008b73ffffffffffffffffffffffffffffffffffffffff1673ffffffffffffffffffffffffffffffffffffffff16815260200190815260200160002054815260200190815260200160002054836171fe9190619a2b565b826172099190619a93565b6172139190619b1c565b8461721e9190619a5f565b93505b6000601c60008973ffffffffffffffffffffffffffffffffffffffff1673ffffffffffffffffffffffffffffffffffffffff16815260200190815260200160002054141580156172bb57506001601c60008973ffffffffffffffffffffffffffffffffffffffff1673ffffffffffffffffffffffffffffffffffffffff16815260200190815260200160002054866172b99190619a2b565b115b156175c157670de0b6b3a7640000601960006001601c60008c73ffffffffffffffffffffffffffffffffffffffff1673ffffffffffffffffffffffffffffffffffffffff168152602001908152602001600020546173199190619a5f565b815260200190815260200160002054836173339190619a2b565b601a60008a73ffffffffffffffffffffffffffffffffffffffff1673ffffffffffffffffffffffffffffffffffffffff16815260200190815260200160002060006001601c60008d73ffffffffffffffffffffffffffffffffffffffff1673ffffffffffffffffffffffffffffffffffffffff168152602001908152602001600020546173c09190619a5f565b8152602001908152602001600020546173d99190619a93565b6173e39190619b1c565b846173ee9190619a5f565b93506000601d60008973ffffffffffffffffffffffffffffffffffffffff1673ffffffffffffffffffffffffffffffffffffffff168152602001908152602001600020541415801561748a57506001601d60008973ffffffffffffffffffffffffffffffffffffffff1673ffffffffffffffffffffffffffffffffffffffff16815260200190815260200160002054866174889190619a2b565b115b156175c057670de0b6b3a7640000601960006001601d60008c73ffffffffffffffffffffffffffffffffffffffff1673ffffffffffffffffffffffffffffffffffffffff168152602001908152602001600020546174e89190619a5f565b815260200190815260200160002054836175029190619a2b565b601a60008a73ffffffffffffffffffffffffffffffffffffffff1673ffffffffffffffffffffffffffffffffffffffff16815260200190815260200160002060006001601d60008d73ffffffffffffffffffffffffffffffffffffffff1673ffffffffffffffffffffffffffffffffffffffff1681526020019081526020016000205461758f9190619a5f565b8152602001908152602001600020546175a89190619a93565b6175b29190619b1c565b846175bd9190619a5f565b93505b5b8395505050505050919050565b60116020528060005260406000206000915090505481565b60156020528060005260406000206000915090505481565b6000617608616f87565b905060006014600083815260200190815260200160002054036176625760055460068190555060006176386188f2565b90508060058190555080601460008481526020019081526020016000208190555081600881905550505b600061766c616f87565b905060006015600083815260200190815260200160002054036177a45760006176936188f2565b905080600754601560006001866176aa9190619a2b565b8152602001908152602001600020546176c39190619a5f565b6176cd9190619a5f565b6015600084815260200190815260200160002060008282546176ef9190619a5f565b9250508190555060006007819055506000601560006001856177119190619a2b565b815260200190815260200160002054670de0b6b3a76400006017600060018761773a9190619a2b565b8152602001908152602001600020546177539190619a93565b61775d9190619b1c565b905080601960006001866177719190619a2b565b81526020019081526020016000205461778a9190619a5f565b601960008581526020019081526020016000208190555050505b3360006177af616f87565b9050600d60008373ffffffffffffffffffffffffffffffffffffffff1673ffffffffffffffffffffffffffffffffffffffff168152602001908152602001600020548111801561785257506000600c6000600d60008673ffffffffffffffffffffffffffffffffffffffff1673ffffffffffffffffffffffffffffffffffffffff1681526020019081526020016000205481526020019081526020016000205414155b15617bdd576000600c6000600d60008673ffffffffffffffffffffffffffffffffffffffff1673ffffffffffffffffffffffffffffffffffffffff1681526020019081526020016000205481526020019081526020016000205460146000600d60008773ffffffffffffffffffffffffffffffffffffffff1673ffffffffffffffffffffffffffffffffffffffff16815260200190815260200160002054815260200190815260200160002054600b60008673ffffffffffffffffffffffffffffffffffffffff1673ffffffffffffffffffffffffffffffffffffffff168152602001908152602001600020546179499190619a93565b6179539190619b1c565b90506000600c6000600d60008773ffffffffffffffffffffffffffffffffffffffff1673ffffffffffffffffffffffffffffffffffffffff1681526020019081526020016000205481526020019081526020016000205414617a065780601160008573ffffffffffffffffffffffffffffffffffffffff1673ffffffffffffffffffffffffffffffffffffffff16815260200190815260200160002060008282546179fe9190619a5f565b925050819055505b6000600960008573ffffffffffffffffffffffffffffffffffffffff1673ffffffffffffffffffffffffffffffffffffffff1681526020019081526020016000205414617b96576000600b60008573ffffffffffffffffffffffffffffffffffffffff1673ffffffffffffffffffffffffffffffffffffffff1681526020019081526020016000205482617a9a9190619b1c565b90506000612710600960008773ffffffffffffffffffffffffffffffffffffffff1673ffffffffffffffffffffffffffffffffffffffff1681526020019081526020016000205483617aec9190619a93565b617af69190619b1c565b905080601160008773ffffffffffffffffffffffffffffffffffffffff1673ffffffffffffffffffffffffffffffffffffffff1681526020019081526020016000206000828254617b479190619a2b565b925050819055506000600960008773ffffffffffffffffffffffffffffffffffffffff1673ffffffffffffffffffffffffffffffffffffffff1681526020019081526020016000208190555050505b6000600b60008573ffffffffffffffffffffffffffffffffffffffff1673ffffffffffffffffffffffffffffffffffffffff16815260200190815260200160002081905550505b601660008373ffffffffffffffffffffffffffffffffffffffff1673ffffffffffffffffffffffffffffffffffffffff16815260200190815260200160002054811115617dc457670de0b6b3a764000060196000601660008673ffffffffffffffffffffffffffffffffffffffff1673ffffffffffffffffffffffffffffffffffffffff168152602001908152602001600020548152602001908152602001600020546019600084815260200190815260200160002054617c9e9190619a2b565b601160008573ffffffffffffffffffffffffffffffffffffffff1673ffffffffffffffffffffffffffffffffffffffff16815260200190815260200160002054617ce89190619a93565b617cf29190619b1c565b601260008473ffffffffffffffffffffffffffffffffffffffff1673ffffffffffffffffffffffffffffffffffffffff16815260200190815260200160002054617d3c9190619a5f565b601260008473ffffffffffffffffffffffffffffffffffffffff1673ffffffffffffffffffffffffffffffffffffffff1681526020019081526020016000208190555080601660008473ffffffffffffffffffffffffffffffffffffffff1673ffffffffffffffffffffffffffffffffffffffff168152602001908152602001600020819055505b6000601c60008473ffffffffffffffffffffffffffffffffffffffff1673ffffffffffffffffffffffffffffffffffffffff1681526020019081526020016000205414158015617e5e57506001601c60008473ffffffffffffffffffffffffffffffffffffffff1673ffffffffffffffffffffffffffffffffffffffff1681526020019081526020016000205482617e5c9190619a2b565b115b156187b9576000601a60008473ffffffffffffffffffffffffffffffffffffffff1673ffffffffffffffffffffffffffffffffffffffff16815260200190815260200160002060006001601c60008773ffffffffffffffffffffffffffffffffffffffff1673ffffffffffffffffffffffffffffffffffffffff16815260200190815260200160002054617ef29190619a5f565b815260200190815260200160002054905080601160008573ffffffffffffffffffffffffffffffffffffffff1673ffffffffffffffffffffffffffffffffffffffff1681526020019081526020016000206000828254617f529190619a5f565b9250508190555080601b60008573ffffffffffffffffffffffffffffffffffffffff1673ffffffffffffffffffffffffffffffffffffffff1681526020019081526020016000206000828254617fa89190619a5f565b92505081905550670de0b6b3a7640000601960006001601c60008873ffffffffffffffffffffffffffffffffffffffff1673ffffffffffffffffffffffffffffffffffffffff168152602001908152602001600020546180089190619a5f565b81526020019081526020016000205460196000858152602001908152602001600020546180359190619a2b565b601a60008673ffffffffffffffffffffffffffffffffffffffff1673ffffffffffffffffffffffffffffffffffffffff16815260200190815260200160002060006001601c60008973ffffffffffffffffffffffffffffffffffffffff1673ffffffffffffffffffffffffffffffffffffffff168152602001908152602001600020546180c29190619a5f565b8152602001908152602001600020546180db9190619a93565b6180e59190619b1c565b601260008573ffffffffffffffffffffffffffffffffffffffff1673ffffffffffffffffffffffffffffffffffffffff1681526020019081526020016000205461812f9190619a5f565b601260008573ffffffffffffffffffffffffffffffffffffffff1673ffffffffffffffffffffffffffffffffffffffff168152602001908152602001600020819055506000601a60008573ffffffffffffffffffffffffffffffffffffffff1673ffffffffffffffffffffffffffffffffffffffff16815260200190815260200160002060006001601c60008873ffffffffffffffffffffffffffffffffffffffff1673ffffffffffffffffffffffffffffffffffffffff168152602001908152602001600020546182019190619a5f565b8152602001908152602001600020819055506000601c60008573ffffffffffffffffffffffffffffffffffffffff1673ffffffffffffffffffffffffffffffffffffffff168152602001908152602001600020819055506000601d60008573ffffffffffffffffffffffffffffffffffffffff1673ffffffffffffffffffffffffffffffffffffffff16815260200190815260200160002054146187b7576001601d60008573ffffffffffffffffffffffffffffffffffffffff1673ffffffffffffffffffffffffffffffffffffffff16815260200190815260200160002054836182ec9190619a2b565b11156186ed576000601a60008573ffffffffffffffffffffffffffffffffffffffff1673ffffffffffffffffffffffffffffffffffffffff16815260200190815260200160002060006001601d60008873ffffffffffffffffffffffffffffffffffffffff1673ffffffffffffffffffffffffffffffffffffffff168152602001908152602001600020546183819190619a5f565b815260200190815260200160002054905080601160008673ffffffffffffffffffffffffffffffffffffffff1673ffffffffffffffffffffffffffffffffffffffff16815260200190815260200160002060008282546183e19190619a5f565b9250508190555080601b60008673ffffffffffffffffffffffffffffffffffffffff1673ffffffffffffffffffffffffffffffffffffffff16815260200190815260200160002060008282546184379190619a5f565b92505081905550670de0b6b3a7640000601960006001601d60008973ffffffffffffffffffffffffffffffffffffffff1673ffffffffffffffffffffffffffffffffffffffff168152602001908152602001600020546184979190619a5f565b81526020019081526020016000205460196000868152602001908152602001600020546184c49190619a2b565b601a60008773ffffffffffffffffffffffffffffffffffffffff1673ffffffffffffffffffffffffffffffffffffffff16815260200190815260200160002060006001601d60008a73ffffffffffffffffffffffffffffffffffffffff1673ffffffffffffffffffffffffffffffffffffffff168152602001908152602001600020546185519190619a5f565b81526020019081526020016000205461856a9190619a93565b6185749190619b1c565b601260008673ffffffffffffffffffffffffffffffffffffffff1673ffffffffffffffffffffffffffffffffffffffff168152602001908152602001600020546185be9190619a5f565b601260008673ffffffffffffffffffffffffffffffffffffffff1673ffffffffffffffffffffffffffffffffffffffff168152602001908152602001600020819055506000601a60008673ffffffffffffffffffffffffffffffffffffffff1673ffffffffffffffffffffffffffffffffffffffff16815260200190815260200160002060006001601d60008973ffffffffffffffffffffffffffffffffffffffff1673ffffffffffffffffffffffffffffffffffffffff168152602001908152602001600020546186909190619a5f565b8152602001908152602001600020819055506000601d60008673ffffffffffffffffffffffffffffffffffffffff1673ffffffffffffffffffffffffffffffffffffffff16815260200190815260200160002081905550506187b6565b601d60008473ffffffffffffffffffffffffffffffffffffffff1673ffffffffffffffffffffffffffffffffffffffff16815260200190815260200160002054601c60008573ffffffffffffffffffffffffffffffffffffffff1673ffffffffffffffffffffffffffffffffffffffff168152602001908152602001600020819055506000601d60008573ffffffffffffffffffffffffffffffffffffffff1673ffffffffffffffffffffffffffffffffffffffff168152602001908152602001600020819055505b5b505b6000601260003373ffffffffffffffffffffffffffffffffffffffff1673ffffffffffffffffffffffffffffffffffffffff16815260200190815260200160002054905060008111618840576040517f08c379a000000000000000000000000000000000000000000000000000000000815260040161883790619dc6565b60405180910390fd5b6000601260003373ffffffffffffffffffffffffffffffffffffffff1673ffffffffffffffffffffffffffffffffffffffff1681526020019081526020016000208190555061888f3382618d51565b7f83db9dc084973306ecd0b0f10cb495b81dd9ddcc135eb7934d2723bcabc8f4c3816040516188be9190618f2f565b60405180910390a15050505050565b601a602052816000526040600020602052806000526040600020600091509150505481565b60006127236127106006546189079190619a93565b6189119190619b1c565b905090565b6103e881565b60085481565b60126020528060005260406000206000915090505481565b600e60008373ffffffffffffffffffffffffffffffffffffffff1673ffffffffffffffffffffffffffffffffffffffff16815260200190815260200160002054811115618b9e576000600e60008473ffffffffffffffffffffffffffffffffffffffff1673ffffffffffffffffffffffffffffffffffffffff1681526020019081526020016000205490506000600a60008573ffffffffffffffffffffffffffffffffffffffff1673ffffffffffffffffffffffffffffffffffffffff1681526020019081526020016000205414158015618a2957506000600c60008381526020019081526020016000205414155b15618b58576000600c6000838152602001908152602001600020546014600084815260200190815260200160002054618a629190619b1c565b9050612710600a60008673ffffffffffffffffffffffffffffffffffffffff1673ffffffffffffffffffffffffffffffffffffffff1681526020019081526020016000205482618ab29190619a93565b618abc9190619b1c565b601360008673ffffffffffffffffffffffffffffffffffffffff1673ffffffffffffffffffffffffffffffffffffffff1681526020019081526020016000206000828254618b0a9190619a5f565b925050819055506000600a60008673ffffffffffffffffffffffffffffffffffffffff1673ffffffffffffffffffffffffffffffffffffffff16815260200190815260200160002081905550505b81600e60008573ffffffffffffffffffffffffffffffffffffffff1673ffffffffffffffffffffffffffffffffffffffff16815260200190815260200160002081905550505b600f60008373ffffffffffffffffffffffffffffffffffffffff1673ffffffffffffffffffffffffffffffffffffffff16815260200190815260200160002054811115618d4d57670de0b6b3a764000060196000600f60008673ffffffffffffffffffffffffffffffffffffffff1673ffffffffffffffffffffffffffffffffffffffff168152602001908152602001600020548152602001908152602001600020546019600084815260200190815260200160002054618c5f9190619a2b565b601360008573ffffffffffffffffffffffffffffffffffffffff1673ffffffffffffffffffffffffffffffffffffffff16815260200190815260200160002054618ca99190619a93565b618cb39190619b1c565b601060008473ffffffffffffffffffffffffffffffffffffffff1673ffffffffffffffffffffffffffffffffffffffff1681526020019081526020016000206000828254618d019190619a5f565b9250508190555080600f60008473ffffffffffffffffffffffffffffffffffffffff1673ffffffffffffffffffffffffffffffffffffffff168152602001908152602001600020819055505b5050565b60008273ffffffffffffffffffffffffffffffffffffffff1682604051618d779061a22b565b60006040518083038185875af1925050503d8060008114618db4576040519150601f19603f3d011682016040523d82523d6000602084013e618db9565b606091505b5050905080618dfd576040517f08c379a0000000000000000000000000000000000000000000000000000000008152600401618df49061a28c565b60405180910390fd5b505050565b828054828255906000526020600020908101928215618e7b579160200282015b82811115618e7a5782518260006101000a81548173ffffffffffffffffffffffffffffffffffffffff021916908373ffffffffffffffffffffffffffffffffffffffff16021790555091602001919060010190618e22565b5b509050618e889190618e8c565b5090565b5b80821115618ea5576000816000905550600101618e8d565b5090565b6000604051905090565b600080fd5b600080fd5b6000819050919050565b618ed081618ebd565b8114618edb57600080fd5b50565b600081359050618eed81618ec7565b92915050565b600060208284031215618f0957618f08618eb3565b5b6000618f1784828501618ede565b91505092915050565b618f2981618ebd565b82525050565b6000602082019050618f446000830184618f20565b92915050565b600073ffffffffffffffffffffffffffffffffffffffff82169050919050565b6000618f7582618f4a565b9050919050565b618f8581618f6a565b8114618f9057600080fd5b50565b600081359050618fa281618f7c565b92915050565b600060208284031215618fbe57618fbd618eb3565b5b6000618fcc84828501618f93565b91505092915050565b600081519050919050565b600082825260208201905092915050565b6000819050602082019050919050565b600081519050919050565b600082825260208201905092915050565b6000819050602082019050919050565b61903681618f6a565b82525050565b6000619048838361902d565b60208301905092915050565b6000602082019050919050565b600061906c82619001565b619076818561900c565b93506190818361901d565b8060005b838110156190b2578151619099888261903c565b97506190a483619054565b925050600181019050619085565b5085935050505092915050565b600081519050919050565b600082825260208201905092915050565b60005b838110156190f95780820151818401526020810190506190de565b60008484015250505050565b6000601f19601f8301169050919050565b6000619121826190bf565b61912b81856190ca565b935061913b8185602086016190db565b61914481619105565b840191505092915050565b61915881618ebd565b82525050565b6000604083016000830151848203600086015261917b8282619116565b9150506020830151619190602086018261914f565b508091505092915050565b600060408301600083015184820360008601526191b88282619061565b915050602083015184820360208601526191d2828261915e565b9150508091505092915050565b60006191eb838361919b565b905092915050565b6000602082019050919050565b600061920b82618fd5565b6192158185618fe0565b93508360208202850161922785618ff1565b8060005b85811015619263578484038952815161924485826191df565b945061924f836191f3565b925060208a0199505060018101905061922b565b50829750879550505050505092915050565b6000602082019050818103600083015261928f8184619200565b905092915050565b600082825260208201905092915050565b60006192b382619001565b6192bd8185619297565b93506192c88361901d565b8060005b838110156192f95781516192e0888261903c565b97506192eb83619054565b9250506001810190506192cc565b5085935050505092915050565b6000602082019050818103600083015261932081846192a8565b905092915050565b6000806040838503121561933f5761933e618eb3565b5b600061934d85828601618f93565b925050602061935e85828601618f93565b9150509250929050565b600081519050919050565b600082825260208201905092915050565b6000819050602082019050919050565b60006193a0838361915e565b905092915050565b6000602082019050919050565b60006193c082619368565b6193ca8185619373565b9350836020820285016193dc85619384565b8060005b8581101561941857848403895281516193f98582619394565b9450619404836193a8565b925060208a019950506001810190506193e0565b50829750879550505050505092915050565b6000602082019050818103600083015261944481846193b5565b905092915050565b600080fd5b7f4e487b7100000000000000000000000000000000000000000000000000000000600052604160045260246000fd5b61948982619105565b810181811067ffffffffffffffff821117156194a8576194a7619451565b5b80604052505050565b60006194bb618ea9565b90506194c78282619480565b919050565b600067ffffffffffffffff8211156194e7576194e6619451565b5b602082029050602081019050919050565b600080fd5b600061951061950b846194cc565b6194b1565b90508083825260208201905060208402830185811115619533576195326194f8565b5b835b8181101561955c57806195488882618f93565b845260208401935050602081019050619535565b5050509392505050565b600082601f83011261957b5761957a61944c565b5b813561958b8482602086016194fd565b91505092915050565b600067ffffffffffffffff8211156195af576195ae619451565b5b602082029050602081019050919050565b600080fd5b600067ffffffffffffffff8211156195e0576195df619451565b5b6195e982619105565b9050602081019050919050565b82818337600083830152505050565b6000619618619613846195c5565b6194b1565b905082815260208101848484011115619634576196336195c0565b5b61963f8482856195f6565b509392505050565b600082601f83011261965c5761965b61944c565b5b813561966c848260208601619605565b91505092915050565b600061968861968384619594565b6194b1565b905080838252602082019050602084028301858111156196ab576196aa6194f8565b5b835b818110156196f257803567ffffffffffffffff8111156196d0576196cf61944c565b5b8086016196dd8982619647565b855260208501945050506020810190506196ad565b5050509392505050565b600082601f8301126197115761971061944c565b5b8135619721848260208601619675565b91505092915050565b600080600080600060a0868803121561974657619745618eb3565b5b600086013567ffffffffffffffff81111561976457619763618eb8565b5b61977088828901619566565b955050602086013567ffffffffffffffff81111561979157619790618eb8565b5b61979d888289016196fc565b94505060406197ae88828901618f93565b93505060606197bf88828901618ede565b92505060806197d088828901618ede565b9150509295509295909350565b6000819050919050565b60006198026197fd6197f884618f4a565b6197dd565b618f4a565b9050919050565b6000619814826197e7565b9050919050565b600061982682619809565b9050919050565b6198368161981b565b82525050565b6000602082019050619851600083018461982d565b92915050565b600082825260208201905092915050565b6000619873826190bf565b61987d8185619857565b935061988d8185602086016190db565b61989681619105565b840191505092915050565b600060208201905081810360008301526198bb8184619868565b905092915050565b600080604083850312156198da576198d9618eb3565b5b600083013567ffffffffffffffff8111156198f8576198f7618eb8565b5b61990485828601619566565b925050602083013567ffffffffffffffff81111561992557619924618eb8565b5b619931858286016196fc565b9150509250929050565b60006020828403121561995157619950618eb3565b5b600082013567ffffffffffffffff81111561996f5761996e618eb8565b5b61997b84828501619647565b91505092915050565b6000806040838503121561999b5761999a618eb3565b5b60006199a985828601618f93565b92505060206199ba85828601618ede565b9150509250929050565b600061ffff82169050919050565b6199db816199c4565b82525050565b60006020820190506199f660008301846199d2565b92915050565b7f4e487b7100000000000000000000000000000000000000000000000000000000600052601160045260246000fd5b6000619a3682618ebd565b9150619a4183618ebd565b9250828203905081811115619a5957619a586199fc565b5b92915050565b6000619a6a82618ebd565b9150619a7583618ebd565b9250828201905080821115619a8d57619a8c6199fc565b5b92915050565b6000619a9e82618ebd565b9150619aa983618ebd565b9250817fffffffffffffffffffffffffffffffffffffffffffffffffffffffffffffffff0483118215151615619ae257619ae16199fc565b5b828202905092915050565b7f4e487b7100000000000000000000000000000000000000000000000000000000600052601260045260246000fd5b6000619b2782618ebd565b9150619b3283618ebd565b925082619b4257619b41619aed565b5b828204905092915050565b7f44656230783a20796f757220616d6f756e742069732030000000000000000000600082015250565b6000619b83601783619857565b9150619b8e82619b4d565b602082019050919050565b60006020820190508181036000830152619bb281619b76565b9050919050565b7f44656230783a2063616e206e6f7420756e7374616b65206d6f7265207468616e60008201527f20796f75277665207374616b6564000000000000000000000000000000000000602082015250565b6000619c15602e83619857565b9150619c2082619bb9565b604082019050919050565b60006020820190508181036000830152619c4481619c08565b9050919050565b619c5481618f6a565b82525050565b6000604082019050619c6f6000830185619c4b565b619c7c6020830184618f20565b9392505050565b60008115159050919050565b619c9881619c83565b8114619ca357600080fd5b50565b600081519050619cb581619c8f565b92915050565b600060208284031215619cd157619cd0618eb3565b5b6000619cdf84828501619ca6565b91505092915050565b7f44656230783a20596f7520646f206e6f74206861766520726577617264730000600082015250565b6000619d1e601e83619857565b9150619d2982619ce8565b602082019050919050565b60006020820190508181036000830152619d4d81619d11565b9050919050565b7f44656230783a20596f7520646f206e6f7420686176652061636372756564206660008201527f6565730000000000000000000000000000000000000000000000000000000000602082015250565b6000619db0602383619857565b9150619dbb82619d54565b604082019050919050565b60006020820190508181036000830152619ddf81619da3565b9050919050565b7f4e487b7100000000000000000000000000000000000000000000000000000000600052602260045260246000fd5b60006002820490506001821680619e2d57607f821691505b602082108103619e4057619e3f619de6565b5b50919050565b6000619e5182618ebd565b91507fffffffffffffffffffffffffffffffffffffffffffffffffffffffffffffffff8203619e8357619e826199fc565b5b600182019050919050565b7f44656230783a206d7573742070617920313025206f66207472616e736163746960008201527f6f6e20636f737400000000000000000000000000000000000000000000000000602082015250565b6000619eea602783619857565b9150619ef582619e8e565b604082019050919050565b60006020820190508181036000830152619f1981619edd565b9050919050565b6000606082019050619f356000830186619c4b565b619f426020830185619c4b565b619f4f6040830184618f20565b949350505050565b7f4e487b7100000000000000000000000000000000000000000000000000000000600052603260045260246000fd5b60008190508160005260206000209050919050565b60006020601f8301049050919050565b600082821b905092915050565b600060088302619fe87fffffffffffffffffffffffffffffffffffffffffffffffffffffffffffffffff82619fab565b619ff28683619fab565b95508019841693508086168417925050509392505050565b600061a02561a02061a01b84618ebd565b6197dd565b618ebd565b9050919050565b6000819050919050565b61a03f8361a00a565b61a05361a04b8261a02c565b848454619fb8565b825550505050565b600090565b61a06861a05b565b61a07381848461a036565b505050565b5b8181101561a0975761a08c60008261a060565b60018101905061a079565b5050565b601f82111561a0dc5761a0ad81619f86565b61a0b684619f9b565b8101602085101561a0c5578190505b61a0d961a0d185619f9b565b83018261a078565b50505b505050565b600082821c905092915050565b600061a0ff6000198460080261a0e1565b1980831691505092915050565b600061a118838361a0ee565b9150826002028217905092915050565b61a131826190bf565b67ffffffffffffffff81111561a14a5761a149619451565b5b61a1548254619e15565b61a15f82828561a09b565b600060209050601f83116001811461a192576000841561a180578287015190505b61a18a858261a10c565b86555061a1f2565b601f19841661a1a086619f86565b60005b8281101561a1c85784890151825560018201915060208501945060208101905061a1a3565b8683101561a1e5578489015161a1e1601f89168261a0ee565b8355505b6001600288020188555050505b505050505050565b600081905092915050565b50565b600061a21560008361a1fa565b915061a2208261a205565b600082019050919050565b600061a2368261a208565b9150819050919050565b7f44656230783a206661696c656420746f2073656e6420616d6f756e7400000000600082015250565b600061a276601c83619857565b915061a2818261a240565b602082019050919050565b6000602082019050818103600083015261a2a58161a269565b905091905056fea2646970667358221220cd641625ac29a036e57db14e932b38b2b9b563361f0fd356eacdf618ae3ac6e064736f6c6343000810003360806040523480156200001157600080fd5b506040518060400160405280600581526020017f44656230780000000000000000000000000000000000000000000000000000008152506040518060400160405280600381526020017f444258000000000000000000000000000000000000000000000000000000000081525081600390816200008f919062000365565b508060049081620000a1919062000365565b50505033600560006101000a81548173ffffffffffffffffffffffffffffffffffffffff021916908373ffffffffffffffffffffffffffffffffffffffff1602179055506200044c565b600081519050919050565b7f4e487b7100000000000000000000000000000000000000000000000000000000600052604160045260246000fd5b7f4e487b7100000000000000000000000000000000000000000000000000000000600052602260045260246000fd5b600060028204905060018216806200016d57607f821691505b60208210810362000183576200018262000125565b5b50919050565b60008190508160005260206000209050919050565b60006020601f8301049050919050565b600082821b905092915050565b600060088302620001ed7fffffffffffffffffffffffffffffffffffffffffffffffffffffffffffffffff82620001ae565b620001f98683620001ae565b95508019841693508086168417925050509392505050565b6000819050919050565b6000819050919050565b600062000246620002406200023a8462000211565b6200021b565b62000211565b9050919050565b6000819050919050565b620002628362000225565b6200027a62000271826200024d565b848454620001bb565b825550505050565b600090565b6200029162000282565b6200029e81848462000257565b505050565b5b81811015620002c657620002ba60008262000287565b600181019050620002a4565b5050565b601f8211156200031557620002df8162000189565b620002ea846200019e565b81016020851015620002fa578190505b6200031262000309856200019e565b830182620002a3565b50505b505050565b600082821c905092915050565b60006200033a600019846008026200031a565b1980831691505092915050565b600062000355838362000327565b9150826002028217905092915050565b6200037082620000eb565b67ffffffffffffffff8111156200038c576200038b620000f6565b5b62000398825462000154565b620003a5828285620002ca565b600060209050601f831160018114620003dd5760008415620003c8578287015190505b620003d4858262000347565b86555062000444565b601f198416620003ed8662000189565b60005b828110156200041757848901518255600182019150602085019450602081019050620003f0565b8683101562000437578489015162000433601f89168262000327565b8355505b6001600288020188555050505b505050505050565b6115bd806200045c6000396000f3fe608060405234801561001057600080fd5b50600436106100cf5760003560e01c806370a082311161008c5780639a49090e116100665780639a49090e1461022a578063a457c2d714610246578063a9059cbb14610276578063dd62ed3e146102a6576100cf565b806370a08231146101be5780638da5cb5b146101ee57806395d89b411461020c576100cf565b806306fdde03146100d4578063095ea7b3146100f257806318160ddd1461012257806323b872dd14610140578063313ce56714610170578063395093511461018e575b600080fd5b6100dc6102d6565b6040516100e99190610d98565b60405180910390f35b61010c60048036038101906101079190610e53565b610368565b6040516101199190610eae565b60405180910390f35b61012a61038b565b6040516101379190610ed8565b60405180910390f35b61015a60048036038101906101559190610ef3565b610395565b6040516101679190610eae565b60405180910390f35b6101786103c4565b6040516101859190610f62565b60405180910390f35b6101a860048036038101906101a39190610e53565b6103cd565b6040516101b59190610eae565b60405180910390f35b6101d860048036038101906101d39190610f7d565b610404565b6040516101e59190610ed8565b60405180910390f35b6101f661044c565b6040516102039190610fb9565b60405180910390f35b610214610472565b6040516102219190610d98565b60405180910390f35b610244600480360381019061023f9190610e53565b610504565b005b610260600480360381019061025b9190610e53565b6105a2565b60405161026d9190610eae565b60405180910390f35b610290600480360381019061028b9190610e53565b610619565b60405161029d9190610eae565b60405180910390f35b6102c060048036038101906102bb9190610fd4565b61063c565b6040516102cd9190610ed8565b60405180910390f35b6060600380546102e590611043565b80601f016020809104026020016040519081016040528092919081815260200182805461031190611043565b801561035e5780601f106103335761010080835404028352916020019161035e565b820191906000526020600020905b81548152906001019060200180831161034157829003601f168201915b5050505050905090565b6000806103736106c3565b90506103808185856106cb565b600191505092915050565b6000600254905090565b6000806103a06106c3565b90506103ad858285610894565b6103b8858585610920565b60019150509392505050565b60006012905090565b6000806103d86106c3565b90506103f98185856103ea858961063c565b6103f491906110a3565b6106cb565b600191505092915050565b60008060008373ffffffffffffffffffffffffffffffffffffffff1673ffffffffffffffffffffffffffffffffffffffff168152602001908152602001600020549050919050565b600560009054906101000a900473ffffffffffffffffffffffffffffffffffffffff1681565b60606004805461048190611043565b80601f01602080910402602001604051908101604052809291908181526020018280546104ad90611043565b80156104fa5780601f106104cf576101008083540402835291602001916104fa565b820191906000526020600020905b8154815290600101906020018083116104dd57829003601f168201915b5050505050905090565b600560009054906101000a900473ffffffffffffffffffffffffffffffffffffffff1673ffffffffffffffffffffffffffffffffffffffff163373ffffffffffffffffffffffffffffffffffffffff1614610594576040517f08c379a000000000000000000000000000000000000000000000000000000000815260040161058b90611123565b60405180910390fd5b61059e8282610b9f565b5050565b6000806105ad6106c3565b905060006105bb828661063c565b905083811015610600576040517f08c379a00000000000000000000000000000000000000000000000000000000081526004016105f7906111b5565b60405180910390fd5b61060d82868684036106cb565b60019250505092915050565b6000806106246106c3565b9050610631818585610920565b600191505092915050565b6000600160008473ffffffffffffffffffffffffffffffffffffffff1673ffffffffffffffffffffffffffffffffffffffff16815260200190815260200160002060008373ffffffffffffffffffffffffffffffffffffffff1673ffffffffffffffffffffffffffffffffffffffff16815260200190815260200160002054905092915050565b600033905090565b600073ffffffffffffffffffffffffffffffffffffffff168373ffffffffffffffffffffffffffffffffffffffff160361073a576040517f08c379a000000000000000000000000000000000000000000000000000000000815260040161073190611247565b60405180910390fd5b600073ffffffffffffffffffffffffffffffffffffffff168273ffffffffffffffffffffffffffffffffffffffff16036107a9576040517f08c379a00000000000000000000000000000000000000000000000000000000081526004016107a0906112d9565b60405180910390fd5b80600160008573ffffffffffffffffffffffffffffffffffffffff1673ffffffffffffffffffffffffffffffffffffffff16815260200190815260200160002060008473ffffffffffffffffffffffffffffffffffffffff1673ffffffffffffffffffffffffffffffffffffffff168152602001908152602001600020819055508173ffffffffffffffffffffffffffffffffffffffff168373ffffffffffffffffffffffffffffffffffffffff167f8c5be1e5ebec7d5bd14f71427d1e84f3dd0314c0f7b2291e5b200ac8c7c3b925836040516108879190610ed8565b60405180910390a3505050565b60006108a0848461063c565b90507fffffffffffffffffffffffffffffffffffffffffffffffffffffffffffffffff811461091a578181101561090c576040517f08c379a000000000000000000000000000000000000000000000000000000000815260040161090390611345565b60405180910390fd5b61091984848484036106cb565b5b50505050565b600073ffffffffffffffffffffffffffffffffffffffff168373ffffffffffffffffffffffffffffffffffffffff160361098f576040517f08c379a0000000000000000000000000000000000000000000000000000000008152600401610986906113d7565b60405180910390fd5b600073ffffffffffffffffffffffffffffffffffffffff168273ffffffffffffffffffffffffffffffffffffffff16036109fe576040517f08c379a00000000000000000000000000000000000000000000000000000000081526004016109f590611469565b60405180910390fd5b610a09838383610cfe565b60008060008573ffffffffffffffffffffffffffffffffffffffff1673ffffffffffffffffffffffffffffffffffffffff16815260200190815260200160002054905081811015610a8f576040517f08c379a0000000000000000000000000000000000000000000000000000000008152600401610a86906114fb565b60405180910390fd5b8181036000808673ffffffffffffffffffffffffffffffffffffffff1673ffffffffffffffffffffffffffffffffffffffff16815260200190815260200160002081905550816000808573ffffffffffffffffffffffffffffffffffffffff1673ffffffffffffffffffffffffffffffffffffffff1681526020019081526020016000206000828254610b2291906110a3565b925050819055508273ffffffffffffffffffffffffffffffffffffffff168473ffffffffffffffffffffffffffffffffffffffff167fddf252ad1be2c89b69c2b068fc378daa952ba7f163c4a11628f55a4df523b3ef84604051610b869190610ed8565b60405180910390a3610b99848484610d03565b50505050565b600073ffffffffffffffffffffffffffffffffffffffff168273ffffffffffffffffffffffffffffffffffffffff1603610c0e576040517f08c379a0000000000000000000000000000000000000000000000000000000008152600401610c0590611567565b60405180910390fd5b610c1a60008383610cfe565b8060026000828254610c2c91906110a3565b92505081905550806000808473ffffffffffffffffffffffffffffffffffffffff1673ffffffffffffffffffffffffffffffffffffffff1681526020019081526020016000206000828254610c8191906110a3565b925050819055508173ffffffffffffffffffffffffffffffffffffffff16600073ffffffffffffffffffffffffffffffffffffffff167fddf252ad1be2c89b69c2b068fc378daa952ba7f163c4a11628f55a4df523b3ef83604051610ce69190610ed8565b60405180910390a3610cfa60008383610d03565b5050565b505050565b505050565b600081519050919050565b600082825260208201905092915050565b60005b83811015610d42578082015181840152602081019050610d27565b60008484015250505050565b6000601f19601f8301169050919050565b6000610d6a82610d08565b610d748185610d13565b9350610d84818560208601610d24565b610d8d81610d4e565b840191505092915050565b60006020820190508181036000830152610db28184610d5f565b905092915050565b600080fd5b600073ffffffffffffffffffffffffffffffffffffffff82169050919050565b6000610dea82610dbf565b9050919050565b610dfa81610ddf565b8114610e0557600080fd5b50565b600081359050610e1781610df1565b92915050565b6000819050919050565b610e3081610e1d565b8114610e3b57600080fd5b50565b600081359050610e4d81610e27565b92915050565b60008060408385031215610e6a57610e69610dba565b5b6000610e7885828601610e08565b9250506020610e8985828601610e3e565b9150509250929050565b60008115159050919050565b610ea881610e93565b82525050565b6000602082019050610ec36000830184610e9f565b92915050565b610ed281610e1d565b82525050565b6000602082019050610eed6000830184610ec9565b92915050565b600080600060608486031215610f0c57610f0b610dba565b5b6000610f1a86828701610e08565b9350506020610f2b86828701610e08565b9250506040610f3c86828701610e3e565b9150509250925092565b600060ff82169050919050565b610f5c81610f46565b82525050565b6000602082019050610f776000830184610f53565b92915050565b600060208284031215610f9357610f92610dba565b5b6000610fa184828501610e08565b91505092915050565b610fb381610ddf565b82525050565b6000602082019050610fce6000830184610faa565b92915050565b60008060408385031215610feb57610fea610dba565b5b6000610ff985828601610e08565b925050602061100a85828601610e08565b9150509250929050565b7f4e487b7100000000000000000000000000000000000000000000000000000000600052602260045260246000fd5b6000600282049050600182168061105b57607f821691505b60208210810361106e5761106d611014565b5b50919050565b7f4e487b7100000000000000000000000000000000000000000000000000000000600052601160045260246000fd5b60006110ae82610e1d565b91506110b983610e1d565b92508282019050808211156110d1576110d0611074565b5b92915050565b7f43616c6c6572206973206e6f7420446562307820636f6e74726163742e000000600082015250565b600061110d601d83610d13565b9150611118826110d7565b602082019050919050565b6000602082019050818103600083015261113c81611100565b9050919050565b7f45524332303a2064656372656173656420616c6c6f77616e63652062656c6f7760008201527f207a65726f000000000000000000000000000000000000000000000000000000602082015250565b600061119f602583610d13565b91506111aa82611143565b604082019050919050565b600060208201905081810360008301526111ce81611192565b9050919050565b7f45524332303a20617070726f76652066726f6d20746865207a65726f2061646460008201527f7265737300000000000000000000000000000000000000000000000000000000602082015250565b6000611231602483610d13565b915061123c826111d5565b604082019050919050565b6000602082019050818103600083015261126081611224565b9050919050565b7f45524332303a20617070726f766520746f20746865207a65726f20616464726560008201527f7373000000000000000000000000000000000000000000000000000000000000602082015250565b60006112c3602283610d13565b91506112ce82611267565b604082019050919050565b600060208201905081810360008301526112f2816112b6565b9050919050565b7f45524332303a20696e73756666696369656e7420616c6c6f77616e6365000000600082015250565b600061132f601d83610d13565b915061133a826112f9565b602082019050919050565b6000602082019050818103600083015261135e81611322565b9050919050565b7f45524332303a207472616e736665722066726f6d20746865207a65726f20616460008201527f6472657373000000000000000000000000000000000000000000000000000000602082015250565b60006113c1602583610d13565b91506113cc82611365565b604082019050919050565b600060208201905081810360008301526113f0816113b4565b9050919050565b7f45524332303a207472616e7366657220746f20746865207a65726f206164647260008201527f6573730000000000000000000000000000000000000000000000000000000000602082015250565b6000611453602383610d13565b915061145e826113f7565b604082019050919050565b6000602082019050818103600083015261148281611446565b9050919050565b7f45524332303a207472616e7366657220616d6f756e742065786365656473206260008201527f616c616e63650000000000000000000000000000000000000000000000000000602082015250565b60006114e5602683610d13565b91506114f082611489565b604082019050919050565b60006020820190508181036000830152611514816114d8565b9050919050565b7f45524332303a206d696e7420746f20746865207a65726f206164647265737300600082015250565b6000611551601f83610d13565b915061155c8261151b565b602082019050919050565b6000602082019050818103600083015261158081611544565b905091905056fea26469706673582212208483cc6fafded2805fa1775f806e37eb3ee99d40edc02dd4923f84d720a1625a64736f6c63430008100033",
  "linkReferences": {},
  "deployedLinkReferences": {}
}