{
    "_format": "hh-sol-artifact-1",
    "contractName": "Deb0x",
    "sourceName": "contracts/Deb0x.sol",
    "abi": [
        {
            "inputs": [],
            "stateMutability": "nonpayable",
            "type": "constructor"
        },
        {
            "anonymous": false,
            "inputs": [
                {
                    "indexed": false,
                    "internalType": "uint256",
                    "name": "fees",
                    "type": "uint256"
                }
            ],
            "name": "FeesClaimed",
            "type": "event"
        },
        {
            "anonymous": false,
            "inputs": [
                {
                    "indexed": true,
                    "internalType": "address",
                    "name": "to",
                    "type": "address"
                },
                {
                    "indexed": true,
                    "internalType": "bytes32",
                    "name": "hash",
                    "type": "bytes32"
                },
                {
                    "indexed": false,
                    "internalType": "string",
                    "name": "value",
                    "type": "string"
                }
            ],
            "name": "KeySet",
            "type": "event"
        },
        {
            "anonymous": false,
            "inputs": [
                {
                    "indexed": true,
                    "internalType": "address",
                    "name": "to",
                    "type": "address"
                },
                {
                    "indexed": true,
                    "internalType": "address",
                    "name": "from",
                    "type": "address"
                },
                {
                    "indexed": true,
                    "internalType": "bytes32",
                    "name": "hash",
                    "type": "bytes32"
                },
                {
                    "components": [
                        {
                            "internalType": "string",
                            "name": "content",
                            "type": "string"
                        },
                        {
                            "internalType": "uint256",
                            "name": "timestamp",
                            "type": "uint256"
                        }
                    ],
                    "indexed": false,
                    "internalType": "struct Deb0xCore.Envelope",
                    "name": "body",
                    "type": "tuple"
                }
            ],
            "name": "Sent",
            "type": "event"
        },
        {
            "inputs": [],
            "name": "MAIL_FEE",
            "outputs": [
                {
                    "internalType": "uint16",
                    "name": "",
                    "type": "uint16"
                }
            ],
            "stateMutability": "view",
            "type": "function"
        },
        {
            "inputs": [
                {
                    "internalType": "address",
                    "name": "",
                    "type": "address"
                }
            ],
            "name": "addressAccruedFees",
            "outputs": [
                {
                    "internalType": "uint256",
                    "name": "",
                    "type": "uint256"
                }
            ],
            "stateMutability": "view",
            "type": "function"
        },
        {
            "inputs": [
                {
                    "internalType": "address",
                    "name": "",
                    "type": "address"
                }
            ],
            "name": "addressRewards",
            "outputs": [
                {
                    "internalType": "uint256",
                    "name": "",
                    "type": "uint256"
                }
            ],
            "stateMutability": "view",
            "type": "function"
        },
        {
            "inputs": [],
            "name": "calculateCycleReward",
            "outputs": [
                {
                    "internalType": "uint256",
                    "name": "",
                    "type": "uint256"
                }
            ],
            "stateMutability": "view",
            "type": "function"
        },
        {
            "inputs": [],
            "name": "claimFees",
            "outputs": [],
            "stateMutability": "nonpayable",
            "type": "function"
        },
        {
            "inputs": [],
            "name": "claimFrontEndFees",
            "outputs": [],
            "stateMutability": "nonpayable",
            "type": "function"
        },
        {
            "inputs": [],
            "name": "claimFrontEndRewards",
            "outputs": [],
            "stateMutability": "nonpayable",
            "type": "function"
        },
        {
            "inputs": [],
            "name": "claimRewards",
            "outputs": [],
            "stateMutability": "nonpayable",
            "type": "function"
        },
        {
            "inputs": [],
            "name": "contractBalance",
            "outputs": [
                {
                    "internalType": "uint256",
                    "name": "",
                    "type": "uint256"
                }
            ],
            "stateMutability": "view",
            "type": "function"
        },
        {
            "inputs": [],
            "name": "currentStartedCycle",
            "outputs": [
                {
                    "internalType": "uint256",
                    "name": "",
                    "type": "uint256"
                }
            ],
            "stateMutability": "view",
            "type": "function"
        },
        {
            "inputs": [
                {
                    "internalType": "uint256",
                    "name": "",
                    "type": "uint256"
                }
            ],
            "name": "cycleAccruedFees",
            "outputs": [
                {
                    "internalType": "uint256",
                    "name": "",
                    "type": "uint256"
                }
            ],
            "stateMutability": "view",
            "type": "function"
        },
        {
            "inputs": [
                {
                    "internalType": "uint256",
                    "name": "",
                    "type": "uint256"
                }
            ],
            "name": "cycleFeesPerStake",
            "outputs": [
                {
                    "internalType": "uint256",
                    "name": "",
                    "type": "uint256"
                }
            ],
            "stateMutability": "view",
            "type": "function"
        },
        {
            "inputs": [
                {
                    "internalType": "uint256",
                    "name": "",
                    "type": "uint256"
                }
            ],
            "name": "cycleFeesPerStakeSummed",
            "outputs": [
                {
                    "internalType": "uint256",
                    "name": "",
                    "type": "uint256"
                }
            ],
            "stateMutability": "view",
            "type": "function"
        },
        {
            "inputs": [],
            "name": "dbx",
            "outputs": [
                {
                    "internalType": "contract DBX",
                    "name": "",
                    "type": "address"
                }
            ],
            "stateMutability": "view",
            "type": "function"
        },
        {
            "inputs": [],
            "name": "dividend",
            "outputs": [
                {
                    "internalType": "uint256",
                    "name": "",
                    "type": "uint256"
                }
            ],
            "stateMutability": "view",
            "type": "function"
        },
        {
            "inputs": [
                {
                    "internalType": "address",
                    "name": "to",
                    "type": "address"
                }
            ],
            "name": "fetchMessageSenders",
            "outputs": [
                {
                    "internalType": "address[]",
                    "name": "",
                    "type": "address[]"
                }
            ],
            "stateMutability": "view",
            "type": "function"
        },
        {
            "inputs": [
                {
                    "internalType": "address",
                    "name": "to",
                    "type": "address"
                },
                {
                    "internalType": "address",
                    "name": "from",
                    "type": "address"
                }
            ],
            "name": "fetchMessages",
            "outputs": [
                {
                    "components": [
                        {
                            "internalType": "string",
                            "name": "content",
                            "type": "string"
                        },
                        {
                            "internalType": "uint256",
                            "name": "timestamp",
                            "type": "uint256"
                        }
                    ],
                    "internalType": "struct Deb0xCore.Envelope[]",
                    "name": "",
                    "type": "tuple[]"
                }
            ],
            "stateMutability": "view",
            "type": "function"
        },
        {
            "inputs": [
                {
                    "internalType": "address",
                    "name": "sender",
                    "type": "address"
                }
            ],
            "name": "fetchSentMessages",
            "outputs": [
                {
                    "components": [
                        {
                            "internalType": "address[]",
                            "name": "recipients",
                            "type": "address[]"
                        },
                        {
                            "components": [
                                {
                                    "internalType": "string",
                                    "name": "content",
                                    "type": "string"
                                },
                                {
                                    "internalType": "uint256",
                                    "name": "timestamp",
                                    "type": "uint256"
                                }
                            ],
                            "internalType": "struct Deb0xCore.Envelope",
                            "name": "contentData",
                            "type": "tuple"
                        }
                    ],
                    "internalType": "struct Deb0xCore.sentMessage[]",
                    "name": "",
                    "type": "tuple[]"
                }
            ],
            "stateMutability": "view",
            "type": "function"
        },
        {
            "inputs": [],
            "name": "getCurrentCycle",
            "outputs": [
                {
                    "internalType": "uint256",
                    "name": "",
                    "type": "uint256"
                }
            ],
            "stateMutability": "view",
            "type": "function"
        },
        {
            "inputs": [
                {
                    "internalType": "address",
                    "name": "account",
                    "type": "address"
                }
            ],
            "name": "getKey",
            "outputs": [
                {
                    "internalType": "string",
                    "name": "",
                    "type": "string"
                }
            ],
            "stateMutability": "view",
            "type": "function"
        },
        {
            "inputs": [
                {
                    "internalType": "address",
                    "name": "user",
                    "type": "address"
                }
            ],
            "name": "getUnclaimedFees",
            "outputs": [
                {
                    "internalType": "uint256",
                    "name": "",
                    "type": "uint256"
                }
            ],
            "stateMutability": "view",
            "type": "function"
        },
        {
            "inputs": [
                {
                    "internalType": "address",
                    "name": "user",
                    "type": "address"
                }
            ],
            "name": "getUnclaimedRewards",
            "outputs": [
                {
                    "internalType": "uint256",
                    "name": "",
                    "type": "uint256"
                }
            ],
            "stateMutability": "view",
            "type": "function"
        },
        {
            "inputs": [
                {
                    "internalType": "address",
                    "name": "staker",
                    "type": "address"
                }
            ],
            "name": "getUserWithdrawableStake",
            "outputs": [
                {
                    "internalType": "uint256",
                    "name": "",
                    "type": "uint256"
                }
            ],
            "stateMutability": "view",
            "type": "function"
        },
        {
            "inputs": [],
            "name": "pendingStakeWithdrawal",
            "outputs": [
                {
                    "internalType": "uint256",
                    "name": "",
                    "type": "uint256"
                }
            ],
            "stateMutability": "view",
            "type": "function"
        },
        {
            "inputs": [
                {
                    "internalType": "address",
                    "name": "",
                    "type": "address"
                }
            ],
            "name": "publicKeys",
            "outputs": [
                {
                    "internalType": "string",
                    "name": "",
                    "type": "string"
                }
            ],
            "stateMutability": "view",
            "type": "function"
        },
        {
            "inputs": [
                {
                    "internalType": "uint256",
                    "name": "",
                    "type": "uint256"
                }
            ],
            "name": "rewardPerCycle",
            "outputs": [
                {
                    "internalType": "uint256",
                    "name": "",
                    "type": "uint256"
                }
            ],
            "stateMutability": "view",
            "type": "function"
        },
        {
            "inputs": [
                {
                    "internalType": "address[]",
                    "name": "to",
                    "type": "address[]"
                },
                {
                    "internalType": "string[]",
                    "name": "payload",
                    "type": "string[]"
                },
                {
                    "internalType": "address",
                    "name": "feeReceiver",
                    "type": "address"
                },
                {
                    "internalType": "uint256",
                    "name": "msgFee",
                    "type": "uint256"
                },
                {
                    "internalType": "uint256",
                    "name": "nativeTokenFee",
                    "type": "uint256"
                }
            ],
            "name": "send",
            "outputs": [],
            "stateMutability": "payable",
            "type": "function"
        },
        {
            "inputs": [
                {
                    "internalType": "address[]",
                    "name": "recipients",
                    "type": "address[]"
                },
                {
                    "internalType": "string[]",
                    "name": "cids",
                    "type": "string[]"
                }
            ],
            "name": "send",
            "outputs": [],
            "stateMutability": "payable",
            "type": "function"
        },
        {
            "inputs": [
                {
                    "internalType": "string",
                    "name": "publicKey",
                    "type": "string"
                }
            ],
            "name": "setKey",
            "outputs": [],
            "stateMutability": "nonpayable",
            "type": "function"
        },
        {
            "inputs": [
                {
                    "internalType": "uint256",
                    "name": "_amount",
                    "type": "uint256"
                }
            ],
            "name": "stakeDBX",
            "outputs": [],
            "stateMutability": "nonpayable",
            "type": "function"
        },
        {
            "inputs": [
                {
                    "internalType": "uint256",
                    "name": "",
                    "type": "uint256"
                }
            ],
            "name": "summedCycleStakes",
            "outputs": [
                {
                    "internalType": "uint256",
                    "name": "",
                    "type": "uint256"
                }
            ],
            "stateMutability": "view",
            "type": "function"
        },
        {
            "inputs": [
                {
                    "internalType": "uint256",
                    "name": "_amount",
                    "type": "uint256"
                }
            ],
            "name": "unstake",
            "outputs": [],
            "stateMutability": "nonpayable",
            "type": "function"
        },
        {
            "inputs": [
                {
                    "internalType": "address",
                    "name": "",
                    "type": "address"
                }
            ],
            "name": "userWithdrawableStake",
            "outputs": [
                {
                    "internalType": "uint256",
                    "name": "",
                    "type": "uint256"
                }
            ],
            "stateMutability": "view",
            "type": "function"
        }
    ],
    "bytecode": "0x60c06040523480156200001157600080fd5b506040516200002090620000e9565b604051809103906000f0801580156200003d573d6000803e3d6000fd5b50600460006101000a81548173ffffffffffffffffffffffffffffffffffffffff021916908373ffffffffffffffffffffffffffffffffffffffff16021790555042608081815250506201518060a0818152505068056bc75e2d6310000060058190555068056bc75e2d63100000601a60008081526020019081526020016000208190555068056bc75e2d631000006019600080815260200190815260200160002081905550620000f7565b611a19806200a12283390190565b60805160a05161a0056200011d6000396000616d5301526000616d74015261a0056000f3fe6080604052600436106101ee5760003560e01c80638b7afe2e1161010d578063bebc9dfc116100a0578063d294f0931161006f578063d294f09314610755578063d6aef1c61461076c578063ea6c77cd14610797578063f1b371e2146107c2578063f68f0a39146107ed576101ee565b8063bebc9dfc14610661578063bf992dea1461069e578063c0d73320146106db578063c4235ae914610718576101ee565b8063a3d6f9a9116100dc578063a3d6f9a914610593578063adc0f686146105d0578063af42d1061461060d578063be26ed7f14610636576101ee565b80638b7afe2e146104d257806393790f44146104fd57806395e982a91461053a5780639f33626e14610577576101ee565b806358503a95116101855780636f044d37116101545780636f044d37146104255780637d818c23146104415780637e30d2b51461046c5780638b414de014610495576101ee565b806358503a951461034357806368f057691461038057806369a69e29146103ab5780636d9384f9146103e8576101ee565b8063372500ab116101c1578063372500ab146102c15780633e19eec3146102d85780634cd040fc146102ef57806352a398d814610306576101ee565b80630a00dc43146101f35780630ece2154146102305780630ff8cf9b1461026d5780632e17de7814610298575b600080fd5b3480156101ff57600080fd5b5061021a60048036038101906102159190618ba4565b61082a565b6040516102279190618be0565b60405180910390f35b34801561023c57600080fd5b5061025760048036038101906102529190618ba4565b610842565b6040516102649190618be0565b60405180910390f35b34801561027957600080fd5b5061028261085a565b60405161028f9190618be0565b60405180910390f35b3480156102a457600080fd5b506102bf60048036038101906102ba9190618ba4565b610866565b005b3480156102cd57600080fd5b506102d6611b80565b005b3480156102e457600080fd5b506102ed612e4c565b005b3480156102fb57600080fd5b5061030461307c565b005b34801561031257600080fd5b5061032d60048036038101906103289190618c59565b61335e565b60405161033a9190618f26565b60405180910390f35b34801561034f57600080fd5b5061036a60048036038101906103659190618c59565b61353a565b6040516103779190618fb7565b60405180910390f35b34801561038c57600080fd5b50610395613607565b6040516103a29190618be0565b60405180910390f35b3480156103b757600080fd5b506103d260048036038101906103cd9190618c59565b61360d565b6040516103df9190618be0565b60405180910390f35b3480156103f457600080fd5b5061040f600480360381019061040a9190618fd9565b61390c565b60405161041c91906190db565b60405180910390f35b61043f600480360381019061043a91906193db565b613a84565b005b34801561044d57600080fd5b50610456614f7a565b60405161046391906194ed565b60405180910390f35b34801561047857600080fd5b50610493600480360381019061048e9190618ba4565b614fa0565b005b3480156104a157600080fd5b506104bc60048036038101906104b79190618c59565b616392565b6040516104c99190618be0565b60405180910390f35b3480156104de57600080fd5b506104e76163a9565b6040516104f49190618be0565b60405180910390f35b34801561050957600080fd5b50610524600480360381019061051f9190618c59565b6163b1565b6040516105319190619552565b60405180910390f35b34801561054657600080fd5b50610561600480360381019061055c9190618c59565b616481565b60405161056e9190618be0565b60405180910390f35b610591600480360381019061058c9190619574565b61675d565b005b34801561059f57600080fd5b506105ba60048036038101906105b59190618c59565b616bcd565b6040516105c79190619552565b60405180910390f35b3480156105dc57600080fd5b506105f760048036038101906105f29190618ba4565b616c6d565b6040516106049190618be0565b60405180910390f35b34801561061957600080fd5b50610634600480360381019061062f91906195ec565b616c85565b005b34801561064257600080fd5b5061064b616d4f565b6040516106589190618be0565b60405180910390f35b34801561066d57600080fd5b5061068860048036038101906106839190618ba4565b616dad565b6040516106959190618be0565b60405180910390f35b3480156106aa57600080fd5b506106c560048036038101906106c09190618c59565b616dc5565b6040516106d29190618be0565b60405180910390f35b3480156106e757600080fd5b5061070260048036038101906106fd9190618c59565b617377565b60405161070f9190618be0565b60405180910390f35b34801561072457600080fd5b5061073f600480360381019061073a9190618ba4565b61738f565b60405161074c9190618be0565b60405180910390f35b34801561076157600080fd5b5061076a6173a7565b005b34801561077857600080fd5b50610781618566565b60405161078e9190618be0565b60405180910390f35b3480156107a357600080fd5b506107ac61858a565b6040516107b99190619652565b60405180910390f35b3480156107ce57600080fd5b506107d7618590565b6040516107e49190618be0565b60405180910390f35b3480156107f957600080fd5b50610814600480360381019061080f9190618c59565b618596565b6040516108219190618be0565b60405180910390f35b601d6020528060005260406000206000915090505481565b601c6020528060005260406000206000915090505481565b670de0b6b3a764000081565b6000610870616d4f565b905060085481111561088457806008819055505b600b54600854146108ae57600160095461089e919061969c565b600a81905550600b546009819055505b6009546008541180156108e257506000601e600060016009546108d1919061969c565b815260200190815260200160002054145b1561097c576000601a6000600954815260200190815260200160002054670de0b6b3a7640000601c600060095481526020019081526020016000205461092891906196d0565b6109329190619759565b905080601e6000600a54815260200190815260200160002054610955919061969c565b601e60006001600954610968919061969c565b815260200190815260200160002081905550505b33601260008273ffffffffffffffffffffffffffffffffffffffff1673ffffffffffffffffffffffffffffffffffffffff16815260200190815260200160002054600854118015610a0d57506000601060008373ffffffffffffffffffffffffffffffffffffffff1673ffffffffffffffffffffffffffffffffffffffff1681526020019081526020016000205414155b15610d3d57600060116000601260008573ffffffffffffffffffffffffffffffffffffffff1673ffffffffffffffffffffffffffffffffffffffff1681526020019081526020016000205481526020019081526020016000205460196000601260008673ffffffffffffffffffffffffffffffffffffffff1673ffffffffffffffffffffffffffffffffffffffff16815260200190815260200160002054815260200190815260200160002054601060008573ffffffffffffffffffffffffffffffffffffffff1673ffffffffffffffffffffffffffffffffffffffff16815260200190815260200160002054610b0491906196d0565b610b0e9190619759565b905080601660008473ffffffffffffffffffffffffffffffffffffffff1673ffffffffffffffffffffffffffffffffffffffff1681526020019081526020016000206000828254610b5f919061969c565b925050819055506000600e60008473ffffffffffffffffffffffffffffffffffffffff1673ffffffffffffffffffffffffffffffffffffffff1681526020019081526020016000205414610cf6576000601060008473ffffffffffffffffffffffffffffffffffffffff1673ffffffffffffffffffffffffffffffffffffffff1681526020019081526020016000205482610bfa9190619759565b90506000612710600e60008673ffffffffffffffffffffffffffffffffffffffff1673ffffffffffffffffffffffffffffffffffffffff1681526020019081526020016000205483610c4c91906196d0565b610c569190619759565b905080601660008673ffffffffffffffffffffffffffffffffffffffff1673ffffffffffffffffffffffffffffffffffffffff1681526020019081526020016000206000828254610ca7919061978a565b925050819055506000600e60008673ffffffffffffffffffffffffffffffffffffffff1673ffffffffffffffffffffffffffffffffffffffff1681526020019081526020016000208190555050505b6000601060008473ffffffffffffffffffffffffffffffffffffffff1673ffffffffffffffffffffffffffffffffffffffff16815260200190815260200160002081905550505b600954600854118015610d9d57506001600954610d5a919061969c565b601b60008373ffffffffffffffffffffffffffffffffffffffff1673ffffffffffffffffffffffffffffffffffffffff1681526020019081526020016000205414155b15610f5e57670de0b6b3a7640000601e6000601b60008573ffffffffffffffffffffffffffffffffffffffff1673ffffffffffffffffffffffffffffffffffffffff16815260200190815260200160002054815260200190815260200160002054601e60006001600954610e11919061969c565b815260200190815260200160002054610e2a919061978a565b601660008473ffffffffffffffffffffffffffffffffffffffff1673ffffffffffffffffffffffffffffffffffffffff16815260200190815260200160002054610e7491906196d0565b610e7e9190619759565b601760008373ffffffffffffffffffffffffffffffffffffffff1673ffffffffffffffffffffffffffffffffffffffff16815260200190815260200160002054610ec8919061969c565b601760008373ffffffffffffffffffffffffffffffffffffffff1673ffffffffffffffffffffffffffffffffffffffff168152602001908152602001600020819055506001600954610f1a919061969c565b601b60008373ffffffffffffffffffffffffffffffffffffffff1673ffffffffffffffffffffffffffffffffffffffff168152602001908152602001600020819055505b6000602160008373ffffffffffffffffffffffffffffffffffffffff1673ffffffffffffffffffffffffffffffffffffffff1681526020019081526020016000205414158015610ffa57506000602160008373ffffffffffffffffffffffffffffffffffffffff1673ffffffffffffffffffffffffffffffffffffffff16815260200190815260200160002054600854610ff8919061978a565b115b15611913576000601f60008373ffffffffffffffffffffffffffffffffffffffff1673ffffffffffffffffffffffffffffffffffffffff1681526020019081526020016000206000602160008573ffffffffffffffffffffffffffffffffffffffff1673ffffffffffffffffffffffffffffffffffffffff16815260200190815260200160002054815260200190815260200160002054905080601660008473ffffffffffffffffffffffffffffffffffffffff1673ffffffffffffffffffffffffffffffffffffffff16815260200190815260200160002060008282546110e2919061969c565b9250508190555080602060008473ffffffffffffffffffffffffffffffffffffffff1673ffffffffffffffffffffffffffffffffffffffff1681526020019081526020016000206000828254611138919061969c565b92505081905550670de0b6b3a7640000601e6000602160008673ffffffffffffffffffffffffffffffffffffffff1673ffffffffffffffffffffffffffffffffffffffff16815260200190815260200160002054815260200190815260200160002054601e600060016009546111ae919061969c565b8152602001908152602001600020546111c7919061978a565b601f60008573ffffffffffffffffffffffffffffffffffffffff1673ffffffffffffffffffffffffffffffffffffffff1681526020019081526020016000206000602160008773ffffffffffffffffffffffffffffffffffffffff1673ffffffffffffffffffffffffffffffffffffffff1681526020019081526020016000205481526020019081526020016000205461126191906196d0565b61126b9190619759565b601760008473ffffffffffffffffffffffffffffffffffffffff1673ffffffffffffffffffffffffffffffffffffffff168152602001908152602001600020546112b5919061969c565b601760008473ffffffffffffffffffffffffffffffffffffffff1673ffffffffffffffffffffffffffffffffffffffff168152602001908152602001600020819055506000601f60008473ffffffffffffffffffffffffffffffffffffffff1673ffffffffffffffffffffffffffffffffffffffff1681526020019081526020016000206000602160008673ffffffffffffffffffffffffffffffffffffffff1673ffffffffffffffffffffffffffffffffffffffff168152602001908152602001600020548152602001908152602001600020819055506000602160008473ffffffffffffffffffffffffffffffffffffffff1673ffffffffffffffffffffffffffffffffffffffff168152602001908152602001600020819055506000602260008473ffffffffffffffffffffffffffffffffffffffff1673ffffffffffffffffffffffffffffffffffffffff1681526020019081526020016000205414611911576001602260008473ffffffffffffffffffffffffffffffffffffffff1673ffffffffffffffffffffffffffffffffffffffff16815260200190815260200160002054600854611468919061978a565b1115611847576000601f60008473ffffffffffffffffffffffffffffffffffffffff1673ffffffffffffffffffffffffffffffffffffffff1681526020019081526020016000206000602260008673ffffffffffffffffffffffffffffffffffffffff1673ffffffffffffffffffffffffffffffffffffffff16815260200190815260200160002054815260200190815260200160002054905080601660008573ffffffffffffffffffffffffffffffffffffffff1673ffffffffffffffffffffffffffffffffffffffff1681526020019081526020016000206000828254611551919061969c565b9250508190555080602060008573ffffffffffffffffffffffffffffffffffffffff1673ffffffffffffffffffffffffffffffffffffffff16815260200190815260200160002060008282546115a7919061969c565b92505081905550670de0b6b3a7640000601e6000602260008773ffffffffffffffffffffffffffffffffffffffff1673ffffffffffffffffffffffffffffffffffffffff16815260200190815260200160002054815260200190815260200160002054601e6000600160095461161d919061969c565b815260200190815260200160002054611636919061978a565b601f60008673ffffffffffffffffffffffffffffffffffffffff1673ffffffffffffffffffffffffffffffffffffffff1681526020019081526020016000206000602260008873ffffffffffffffffffffffffffffffffffffffff1673ffffffffffffffffffffffffffffffffffffffff168152602001908152602001600020548152602001908152602001600020546116d091906196d0565b6116da9190619759565b601760008573ffffffffffffffffffffffffffffffffffffffff1673ffffffffffffffffffffffffffffffffffffffff16815260200190815260200160002054611724919061969c565b601760008573ffffffffffffffffffffffffffffffffffffffff1673ffffffffffffffffffffffffffffffffffffffff168152602001908152602001600020819055506000601f60008573ffffffffffffffffffffffffffffffffffffffff1673ffffffffffffffffffffffffffffffffffffffff1681526020019081526020016000206000602260008773ffffffffffffffffffffffffffffffffffffffff1673ffffffffffffffffffffffffffffffffffffffff168152602001908152602001600020548152602001908152602001600020819055506000602260008573ffffffffffffffffffffffffffffffffffffffff1673ffffffffffffffffffffffffffffffffffffffff1681526020019081526020016000208190555050611910565b602260008373ffffffffffffffffffffffffffffffffffffffff1673ffffffffffffffffffffffffffffffffffffffff16815260200190815260200160002054602160008473ffffffffffffffffffffffffffffffffffffffff1673ffffffffffffffffffffffffffffffffffffffff168152602001908152602001600020819055506000602260008473ffffffffffffffffffffffffffffffffffffffff1673ffffffffffffffffffffffffffffffffffffffff168152602001908152602001600020819055505b5b505b60008303611956576040517f08c379a000000000000000000000000000000000000000000000000000000000815260040161194d9061980a565b60405180910390fd5b602060003373ffffffffffffffffffffffffffffffffffffffff1673ffffffffffffffffffffffffffffffffffffffff168152602001908152602001600020548311156119d8576040517f08c379a00000000000000000000000000000000000000000000000000000000081526004016119cf9061989c565b60405180910390fd5b600b5460095403611a015782600d60008282546119f5919061969c565b92505081905550611a2e565b82601a600060085481526020019081526020016000206000828254611a26919061978a565b925050819055505b82602060003373ffffffffffffffffffffffffffffffffffffffff1673ffffffffffffffffffffffffffffffffffffffff1681526020019081526020016000206000828254611a7d919061978a565b9250508190555082601660003373ffffffffffffffffffffffffffffffffffffffff1673ffffffffffffffffffffffffffffffffffffffff1681526020019081526020016000206000828254611ad3919061978a565b92505081905550600460009054906101000a900473ffffffffffffffffffffffffffffffffffffffff1673ffffffffffffffffffffffffffffffffffffffff1663a9059cbb33856040518363ffffffff1660e01b8152600401611b379291906198cb565b6020604051808303816000875af1158015611b56573d6000803e3d6000fd5b505050506040513d601f19601f82011682018060405250810190611b7a919061992c565b50505050565b6000611b8a616d4f565b9050600854811115611b9e57806008819055505b600b5460085414611bc8576001600954611bb8919061969c565b600a81905550600b546009819055505b600954600854118015611bfc57506000601e60006001600954611beb919061969c565b815260200190815260200160002054145b15611c96576000601a6000600954815260200190815260200160002054670de0b6b3a7640000601c6000600954815260200190815260200160002054611c4291906196d0565b611c4c9190619759565b905080601e6000600a54815260200190815260200160002054611c6f919061969c565b601e60006001600954611c82919061969c565b815260200190815260200160002081905550505b33601260008273ffffffffffffffffffffffffffffffffffffffff1673ffffffffffffffffffffffffffffffffffffffff16815260200190815260200160002054600854118015611d2757506000601060008373ffffffffffffffffffffffffffffffffffffffff1673ffffffffffffffffffffffffffffffffffffffff1681526020019081526020016000205414155b1561205757600060116000601260008573ffffffffffffffffffffffffffffffffffffffff1673ffffffffffffffffffffffffffffffffffffffff1681526020019081526020016000205481526020019081526020016000205460196000601260008673ffffffffffffffffffffffffffffffffffffffff1673ffffffffffffffffffffffffffffffffffffffff16815260200190815260200160002054815260200190815260200160002054601060008573ffffffffffffffffffffffffffffffffffffffff1673ffffffffffffffffffffffffffffffffffffffff16815260200190815260200160002054611e1e91906196d0565b611e289190619759565b905080601660008473ffffffffffffffffffffffffffffffffffffffff1673ffffffffffffffffffffffffffffffffffffffff1681526020019081526020016000206000828254611e79919061969c565b925050819055506000600e60008473ffffffffffffffffffffffffffffffffffffffff1673ffffffffffffffffffffffffffffffffffffffff1681526020019081526020016000205414612010576000601060008473ffffffffffffffffffffffffffffffffffffffff1673ffffffffffffffffffffffffffffffffffffffff1681526020019081526020016000205482611f149190619759565b90506000612710600e60008673ffffffffffffffffffffffffffffffffffffffff1673ffffffffffffffffffffffffffffffffffffffff1681526020019081526020016000205483611f6691906196d0565b611f709190619759565b905080601660008673ffffffffffffffffffffffffffffffffffffffff1673ffffffffffffffffffffffffffffffffffffffff1681526020019081526020016000206000828254611fc1919061978a565b925050819055506000600e60008673ffffffffffffffffffffffffffffffffffffffff1673ffffffffffffffffffffffffffffffffffffffff1681526020019081526020016000208190555050505b6000601060008473ffffffffffffffffffffffffffffffffffffffff1673ffffffffffffffffffffffffffffffffffffffff16815260200190815260200160002081905550505b6009546008541180156120b757506001600954612074919061969c565b601b60008373ffffffffffffffffffffffffffffffffffffffff1673ffffffffffffffffffffffffffffffffffffffff1681526020019081526020016000205414155b1561227857670de0b6b3a7640000601e6000601b60008573ffffffffffffffffffffffffffffffffffffffff1673ffffffffffffffffffffffffffffffffffffffff16815260200190815260200160002054815260200190815260200160002054601e6000600160095461212b919061969c565b815260200190815260200160002054612144919061978a565b601660008473ffffffffffffffffffffffffffffffffffffffff1673ffffffffffffffffffffffffffffffffffffffff1681526020019081526020016000205461218e91906196d0565b6121989190619759565b601760008373ffffffffffffffffffffffffffffffffffffffff1673ffffffffffffffffffffffffffffffffffffffff168152602001908152602001600020546121e2919061969c565b601760008373ffffffffffffffffffffffffffffffffffffffff1673ffffffffffffffffffffffffffffffffffffffff168152602001908152602001600020819055506001600954612234919061969c565b601b60008373ffffffffffffffffffffffffffffffffffffffff1673ffffffffffffffffffffffffffffffffffffffff168152602001908152602001600020819055505b6000602160008373ffffffffffffffffffffffffffffffffffffffff1673ffffffffffffffffffffffffffffffffffffffff168152602001908152602001600020541415801561231457506000602160008373ffffffffffffffffffffffffffffffffffffffff1673ffffffffffffffffffffffffffffffffffffffff16815260200190815260200160002054600854612312919061978a565b115b15612c2d576000601f60008373ffffffffffffffffffffffffffffffffffffffff1673ffffffffffffffffffffffffffffffffffffffff1681526020019081526020016000206000602160008573ffffffffffffffffffffffffffffffffffffffff1673ffffffffffffffffffffffffffffffffffffffff16815260200190815260200160002054815260200190815260200160002054905080601660008473ffffffffffffffffffffffffffffffffffffffff1673ffffffffffffffffffffffffffffffffffffffff16815260200190815260200160002060008282546123fc919061969c565b9250508190555080602060008473ffffffffffffffffffffffffffffffffffffffff1673ffffffffffffffffffffffffffffffffffffffff1681526020019081526020016000206000828254612452919061969c565b92505081905550670de0b6b3a7640000601e6000602160008673ffffffffffffffffffffffffffffffffffffffff1673ffffffffffffffffffffffffffffffffffffffff16815260200190815260200160002054815260200190815260200160002054601e600060016009546124c8919061969c565b8152602001908152602001600020546124e1919061978a565b601f60008573ffffffffffffffffffffffffffffffffffffffff1673ffffffffffffffffffffffffffffffffffffffff1681526020019081526020016000206000602160008773ffffffffffffffffffffffffffffffffffffffff1673ffffffffffffffffffffffffffffffffffffffff1681526020019081526020016000205481526020019081526020016000205461257b91906196d0565b6125859190619759565b601760008473ffffffffffffffffffffffffffffffffffffffff1673ffffffffffffffffffffffffffffffffffffffff168152602001908152602001600020546125cf919061969c565b601760008473ffffffffffffffffffffffffffffffffffffffff1673ffffffffffffffffffffffffffffffffffffffff168152602001908152602001600020819055506000601f60008473ffffffffffffffffffffffffffffffffffffffff1673ffffffffffffffffffffffffffffffffffffffff1681526020019081526020016000206000602160008673ffffffffffffffffffffffffffffffffffffffff1673ffffffffffffffffffffffffffffffffffffffff168152602001908152602001600020548152602001908152602001600020819055506000602160008473ffffffffffffffffffffffffffffffffffffffff1673ffffffffffffffffffffffffffffffffffffffff168152602001908152602001600020819055506000602260008473ffffffffffffffffffffffffffffffffffffffff1673ffffffffffffffffffffffffffffffffffffffff1681526020019081526020016000205414612c2b576001602260008473ffffffffffffffffffffffffffffffffffffffff1673ffffffffffffffffffffffffffffffffffffffff16815260200190815260200160002054600854612782919061978a565b1115612b61576000601f60008473ffffffffffffffffffffffffffffffffffffffff1673ffffffffffffffffffffffffffffffffffffffff1681526020019081526020016000206000602260008673ffffffffffffffffffffffffffffffffffffffff1673ffffffffffffffffffffffffffffffffffffffff16815260200190815260200160002054815260200190815260200160002054905080601660008573ffffffffffffffffffffffffffffffffffffffff1673ffffffffffffffffffffffffffffffffffffffff168152602001908152602001600020600082825461286b919061969c565b9250508190555080602060008573ffffffffffffffffffffffffffffffffffffffff1673ffffffffffffffffffffffffffffffffffffffff16815260200190815260200160002060008282546128c1919061969c565b92505081905550670de0b6b3a7640000601e6000602260008773ffffffffffffffffffffffffffffffffffffffff1673ffffffffffffffffffffffffffffffffffffffff16815260200190815260200160002054815260200190815260200160002054601e60006001600954612937919061969c565b815260200190815260200160002054612950919061978a565b601f60008673ffffffffffffffffffffffffffffffffffffffff1673ffffffffffffffffffffffffffffffffffffffff1681526020019081526020016000206000602260008873ffffffffffffffffffffffffffffffffffffffff1673ffffffffffffffffffffffffffffffffffffffff168152602001908152602001600020548152602001908152602001600020546129ea91906196d0565b6129f49190619759565b601760008573ffffffffffffffffffffffffffffffffffffffff1673ffffffffffffffffffffffffffffffffffffffff16815260200190815260200160002054612a3e919061969c565b601760008573ffffffffffffffffffffffffffffffffffffffff1673ffffffffffffffffffffffffffffffffffffffff168152602001908152602001600020819055506000601f60008573ffffffffffffffffffffffffffffffffffffffff1673ffffffffffffffffffffffffffffffffffffffff1681526020019081526020016000206000602260008773ffffffffffffffffffffffffffffffffffffffff1673ffffffffffffffffffffffffffffffffffffffff168152602001908152602001600020548152602001908152602001600020819055506000602260008573ffffffffffffffffffffffffffffffffffffffff1673ffffffffffffffffffffffffffffffffffffffff1681526020019081526020016000208190555050612c2a565b602260008373ffffffffffffffffffffffffffffffffffffffff1673ffffffffffffffffffffffffffffffffffffffff16815260200190815260200160002054602160008473ffffffffffffffffffffffffffffffffffffffff1673ffffffffffffffffffffffffffffffffffffffff168152602001908152602001600020819055506000602260008473ffffffffffffffffffffffffffffffffffffffff1673ffffffffffffffffffffffffffffffffffffffff168152602001908152602001600020819055505b5b505b6000602060003373ffffffffffffffffffffffffffffffffffffffff1673ffffffffffffffffffffffffffffffffffffffff16815260200190815260200160002054601660003373ffffffffffffffffffffffffffffffffffffffff1673ffffffffffffffffffffffffffffffffffffffff16815260200190815260200160002054612cb9919061978a565b905060008111612cfe576040517f08c379a0000000000000000000000000000000000000000000000000000000008152600401612cf5906199a5565b60405180910390fd5b80601660003373ffffffffffffffffffffffffffffffffffffffff1673ffffffffffffffffffffffffffffffffffffffff1681526020019081526020016000206000828254612d4d919061978a565b92505081905550600b5460095403612d7d5780600d6000828254612d71919061969c565b92505081905550612db8565b80601a6000600854815260200190815260200160002054612d9e919061978a565b601a60006008548152602001908152602001600020819055505b600460009054906101000a900473ffffffffffffffffffffffffffffffffffffffff1673ffffffffffffffffffffffffffffffffffffffff16639a49090e33836040518363ffffffff1660e01b8152600401612e159291906198cb565b600060405180830381600087803b158015612e2f57600080fd5b505af1158015612e43573d6000803e3d6000fd5b50505050505050565b6000612e56616d4f565b9050600854811115612e6a57806008819055505b600b5460085414612e94576001600954612e84919061969c565b600a81905550600b546009819055505b600954600854118015612ec857506000601e60006001600954612eb7919061969c565b815260200190815260200160002054145b15612f62576000601a6000600954815260200190815260200160002054670de0b6b3a7640000601c6000600954815260200190815260200160002054612f0e91906196d0565b612f189190619759565b905080601e6000600a54815260200190815260200160002054612f3b919061969c565b601e60006001600954612f4e919061969c565b815260200190815260200160002081905550505b612f6b336185ae565b6000601560003373ffffffffffffffffffffffffffffffffffffffff1673ffffffffffffffffffffffffffffffffffffffff16815260200190815260200160002054905060008111612ff2576040517f08c379a0000000000000000000000000000000000000000000000000000000008152600401612fe990619a37565b60405180910390fd5b6000601560003373ffffffffffffffffffffffffffffffffffffffff1673ffffffffffffffffffffffffffffffffffffffff168152602001908152602001600020819055506130413382618a02565b7f83db9dc084973306ecd0b0f10cb495b81dd9ddcc135eb7934d2723bcabc8f4c3816040516130709190618be0565b60405180910390a15050565b6000613086616d4f565b905060085481111561309a57806008819055505b600b54600854146130c45760016009546130b4919061969c565b600a81905550600b546009819055505b6009546008541180156130f857506000601e600060016009546130e7919061969c565b815260200190815260200160002054145b15613192576000601a6000600954815260200190815260200160002054670de0b6b3a7640000601c600060095481526020019081526020016000205461313e91906196d0565b6131489190619759565b905080601e6000600a5481526020019081526020016000205461316b919061969c565b601e6000600160095461317e919061969c565b815260200190815260200160002081905550505b61319b336185ae565b6000601860003373ffffffffffffffffffffffffffffffffffffffff1673ffffffffffffffffffffffffffffffffffffffff16815260200190815260200160002054905060008111613222576040517f08c379a0000000000000000000000000000000000000000000000000000000008152600401613219906199a5565b60405180910390fd5b6000601860003373ffffffffffffffffffffffffffffffffffffffff1673ffffffffffffffffffffffffffffffffffffffff16815260200190815260200160002081905550600b54600954036132905780600d6000828254613284919061969c565b925050819055506132cb565b80601a60006008548152602001908152602001600020546132b1919061978a565b601a60006008548152602001908152602001600020819055505b600460009054906101000a900473ffffffffffffffffffffffffffffffffffffffff1673ffffffffffffffffffffffffffffffffffffffff16639a49090e33836040518363ffffffff1660e01b81526004016133289291906198cb565b600060405180830381600087803b15801561334257600080fd5b505af1158015613356573d6000803e3d6000fd5b505050505050565b6060600260008373ffffffffffffffffffffffffffffffffffffffff1673ffffffffffffffffffffffffffffffffffffffff168152602001908152602001600020805480602002602001604051908101604052809291908181526020016000905b8282101561352f57838290600052602060002090600302016040518060400160405290816000820180548060200260200160405190810160405280929190818152602001828054801561346757602002820191906000526020600020905b8160009054906101000a900473ffffffffffffffffffffffffffffffffffffffff1673ffffffffffffffffffffffffffffffffffffffff168152602001906001019080831161341d575b505050505081526020016001820160405180604001604052908160008201805461349090619a86565b80601f01602080910402602001604051908101604052809291908181526020018280546134bc90619a86565b80156135095780601f106134de57610100808354040283529160200191613509565b820191906000526020600020905b8154815290600101906020018083116134ec57829003601f168201915b5050505050815260200160018201548152505081525050815260200190600101906133bf565b505050509050919050565b6060600360008373ffffffffffffffffffffffffffffffffffffffff1673ffffffffffffffffffffffffffffffffffffffff1681526020019081526020016000208054806020026020016040519081016040528092919081815260200182805480156135fb57602002820191906000526020600020905b8160009054906101000a900473ffffffffffffffffffffffffffffffffffffffff1673ffffffffffffffffffffffffffffffffffffffff16815260200190600101908083116135b1575b50505050509050919050565b600d5481565b600080601660008473ffffffffffffffffffffffffffffffffffffffff1673ffffffffffffffffffffffffffffffffffffffff168152602001908152602001600020549050600061365c616d4f565b9050601260008573ffffffffffffffffffffffffffffffffffffffff1673ffffffffffffffffffffffffffffffffffffffff16815260200190815260200160002054811180156136ec57506000601060008673ffffffffffffffffffffffffffffffffffffffff1673ffffffffffffffffffffffffffffffffffffffff1681526020019081526020016000205414155b1561390257600060116000601260008873ffffffffffffffffffffffffffffffffffffffff1673ffffffffffffffffffffffffffffffffffffffff1681526020019081526020016000205481526020019081526020016000205460196000601260008973ffffffffffffffffffffffffffffffffffffffff1673ffffffffffffffffffffffffffffffffffffffff16815260200190815260200160002054815260200190815260200160002054601060008873ffffffffffffffffffffffffffffffffffffffff1673ffffffffffffffffffffffffffffffffffffffff168152602001908152602001600020546137e391906196d0565b6137ed9190619759565b905080836137fb919061969c565b92506000600e60008773ffffffffffffffffffffffffffffffffffffffff1673ffffffffffffffffffffffffffffffffffffffff1681526020019081526020016000205414613900576000601060008773ffffffffffffffffffffffffffffffffffffffff1673ffffffffffffffffffffffffffffffffffffffff16815260200190815260200160002054826138919190619759565b90506000612710600e60008973ffffffffffffffffffffffffffffffffffffffff1673ffffffffffffffffffffffffffffffffffffffff16815260200190815260200160002054836138e391906196d0565b6138ed9190619759565b905080856138fb919061978a565b945050505b505b8192505050919050565b6060600160008473ffffffffffffffffffffffffffffffffffffffff1673ffffffffffffffffffffffffffffffffffffffff16815260200190815260200160002060008373ffffffffffffffffffffffffffffffffffffffff1673ffffffffffffffffffffffffffffffffffffffff168152602001908152602001600020805480602002602001604051908101604052809291908181526020016000905b82821015613a7857838290600052602060002090600202016040518060400160405290816000820180546139dd90619a86565b80601f0160208091040260200160405190810160405280929190818152602001828054613a0990619a86565b8015613a565780601f10613a2b57610100808354040283529160200191613a56565b820191906000526020600020905b815481529060010190602001808311613a3957829003601f168201915b50505050508152602001600182015481525050815260200190600101906139aa565b50505050905092915050565b8060005a90506000613a94616d4f565b9050600854811115613aa857806008819055505b600b5460085414613ad2576001600954613ac2919061969c565b600a81905550600b546009819055505b600954600854118015613b0657506000601e60006001600954613af5919061969c565b815260200190815260200160002054145b15613ba0576000601a6000600954815260200190815260200160002054670de0b6b3a7640000601c6000600954815260200190815260200160002054613b4c91906196d0565b613b569190619759565b905080601e6000600a54815260200190815260200160002054613b79919061969c565b601e60006001600954613b8c919061969c565b815260200190815260200160002081905550505b60006019600060085481526020019081526020016000205403613cd5576005546006819055506000613bd0618566565b905080600581905550806019600060085481526020019081526020016000208190555080600c81905550600854600b81905550600554601a6000600954815260200190815260200160002054613c26919061969c565b601a6000600b5481526020019081526020016000206000828254613c4a919061969c565b92505081905550600060075414613c9257600754601a6000600b5481526020019081526020016000206000828254613c82919061969c565b9250508190555060006007819055505b6000600d5414613cd357600d54601a6000600b5481526020019081526020016000206000828254613cc3919061978a565b925050819055506000600d819055505b505b33601260008273ffffffffffffffffffffffffffffffffffffffff1673ffffffffffffffffffffffffffffffffffffffff16815260200190815260200160002054600854118015613d6657506000601060008373ffffffffffffffffffffffffffffffffffffffff1673ffffffffffffffffffffffffffffffffffffffff1681526020019081526020016000205414155b1561409657600060116000601260008573ffffffffffffffffffffffffffffffffffffffff1673ffffffffffffffffffffffffffffffffffffffff1681526020019081526020016000205481526020019081526020016000205460196000601260008673ffffffffffffffffffffffffffffffffffffffff1673ffffffffffffffffffffffffffffffffffffffff16815260200190815260200160002054815260200190815260200160002054601060008573ffffffffffffffffffffffffffffffffffffffff1673ffffffffffffffffffffffffffffffffffffffff16815260200190815260200160002054613e5d91906196d0565b613e679190619759565b905080601660008473ffffffffffffffffffffffffffffffffffffffff1673ffffffffffffffffffffffffffffffffffffffff1681526020019081526020016000206000828254613eb8919061969c565b925050819055506000600e60008473ffffffffffffffffffffffffffffffffffffffff1673ffffffffffffffffffffffffffffffffffffffff168152602001908152602001600020541461404f576000601060008473ffffffffffffffffffffffffffffffffffffffff1673ffffffffffffffffffffffffffffffffffffffff1681526020019081526020016000205482613f539190619759565b90506000612710600e60008673ffffffffffffffffffffffffffffffffffffffff1673ffffffffffffffffffffffffffffffffffffffff1681526020019081526020016000205483613fa591906196d0565b613faf9190619759565b905080601660008673ffffffffffffffffffffffffffffffffffffffff1673ffffffffffffffffffffffffffffffffffffffff1681526020019081526020016000206000828254614000919061978a565b925050819055506000600e60008673ffffffffffffffffffffffffffffffffffffffff1673ffffffffffffffffffffffffffffffffffffffff1681526020019081526020016000208190555050505b6000601060008473ffffffffffffffffffffffffffffffffffffffff1673ffffffffffffffffffffffffffffffffffffffff16815260200190815260200160002081905550505b6009546008541180156140f6575060016009546140b3919061969c565b601b60008373ffffffffffffffffffffffffffffffffffffffff1673ffffffffffffffffffffffffffffffffffffffff1681526020019081526020016000205414155b156142b757670de0b6b3a7640000601e6000601b60008573ffffffffffffffffffffffffffffffffffffffff1673ffffffffffffffffffffffffffffffffffffffff16815260200190815260200160002054815260200190815260200160002054601e6000600160095461416a919061969c565b815260200190815260200160002054614183919061978a565b601660008473ffffffffffffffffffffffffffffffffffffffff1673ffffffffffffffffffffffffffffffffffffffff168152602001908152602001600020546141cd91906196d0565b6141d79190619759565b601760008373ffffffffffffffffffffffffffffffffffffffff1673ffffffffffffffffffffffffffffffffffffffff16815260200190815260200160002054614221919061969c565b601760008373ffffffffffffffffffffffffffffffffffffffff1673ffffffffffffffffffffffffffffffffffffffff168152602001908152602001600020819055506001600954614273919061969c565b601b60008373ffffffffffffffffffffffffffffffffffffffff1673ffffffffffffffffffffffffffffffffffffffff168152602001908152602001600020819055505b6000602160008373ffffffffffffffffffffffffffffffffffffffff1673ffffffffffffffffffffffffffffffffffffffff168152602001908152602001600020541415801561435357506000602160008373ffffffffffffffffffffffffffffffffffffffff1673ffffffffffffffffffffffffffffffffffffffff16815260200190815260200160002054600854614351919061978a565b115b15614c6c576000601f60008373ffffffffffffffffffffffffffffffffffffffff1673ffffffffffffffffffffffffffffffffffffffff1681526020019081526020016000206000602160008573ffffffffffffffffffffffffffffffffffffffff1673ffffffffffffffffffffffffffffffffffffffff16815260200190815260200160002054815260200190815260200160002054905080601660008473ffffffffffffffffffffffffffffffffffffffff1673ffffffffffffffffffffffffffffffffffffffff168152602001908152602001600020600082825461443b919061969c565b9250508190555080602060008473ffffffffffffffffffffffffffffffffffffffff1673ffffffffffffffffffffffffffffffffffffffff1681526020019081526020016000206000828254614491919061969c565b92505081905550670de0b6b3a7640000601e6000602160008673ffffffffffffffffffffffffffffffffffffffff1673ffffffffffffffffffffffffffffffffffffffff16815260200190815260200160002054815260200190815260200160002054601e60006001600954614507919061969c565b815260200190815260200160002054614520919061978a565b601f60008573ffffffffffffffffffffffffffffffffffffffff1673ffffffffffffffffffffffffffffffffffffffff1681526020019081526020016000206000602160008773ffffffffffffffffffffffffffffffffffffffff1673ffffffffffffffffffffffffffffffffffffffff168152602001908152602001600020548152602001908152602001600020546145ba91906196d0565b6145c49190619759565b601760008473ffffffffffffffffffffffffffffffffffffffff1673ffffffffffffffffffffffffffffffffffffffff1681526020019081526020016000205461460e919061969c565b601760008473ffffffffffffffffffffffffffffffffffffffff1673ffffffffffffffffffffffffffffffffffffffff168152602001908152602001600020819055506000601f60008473ffffffffffffffffffffffffffffffffffffffff1673ffffffffffffffffffffffffffffffffffffffff1681526020019081526020016000206000602160008673ffffffffffffffffffffffffffffffffffffffff1673ffffffffffffffffffffffffffffffffffffffff168152602001908152602001600020548152602001908152602001600020819055506000602160008473ffffffffffffffffffffffffffffffffffffffff1673ffffffffffffffffffffffffffffffffffffffff168152602001908152602001600020819055506000602260008473ffffffffffffffffffffffffffffffffffffffff1673ffffffffffffffffffffffffffffffffffffffff1681526020019081526020016000205414614c6a576001602260008473ffffffffffffffffffffffffffffffffffffffff1673ffffffffffffffffffffffffffffffffffffffff168152602001908152602001600020546008546147c1919061978a565b1115614ba0576000601f60008473ffffffffffffffffffffffffffffffffffffffff1673ffffffffffffffffffffffffffffffffffffffff1681526020019081526020016000206000602260008673ffffffffffffffffffffffffffffffffffffffff1673ffffffffffffffffffffffffffffffffffffffff16815260200190815260200160002054815260200190815260200160002054905080601660008573ffffffffffffffffffffffffffffffffffffffff1673ffffffffffffffffffffffffffffffffffffffff16815260200190815260200160002060008282546148aa919061969c565b9250508190555080602060008573ffffffffffffffffffffffffffffffffffffffff1673ffffffffffffffffffffffffffffffffffffffff1681526020019081526020016000206000828254614900919061969c565b92505081905550670de0b6b3a7640000601e6000602260008773ffffffffffffffffffffffffffffffffffffffff1673ffffffffffffffffffffffffffffffffffffffff16815260200190815260200160002054815260200190815260200160002054601e60006001600954614976919061969c565b81526020019081526020016000205461498f919061978a565b601f60008673ffffffffffffffffffffffffffffffffffffffff1673ffffffffffffffffffffffffffffffffffffffff1681526020019081526020016000206000602260008873ffffffffffffffffffffffffffffffffffffffff1673ffffffffffffffffffffffffffffffffffffffff16815260200190815260200160002054815260200190815260200160002054614a2991906196d0565b614a339190619759565b601760008573ffffffffffffffffffffffffffffffffffffffff1673ffffffffffffffffffffffffffffffffffffffff16815260200190815260200160002054614a7d919061969c565b601760008573ffffffffffffffffffffffffffffffffffffffff1673ffffffffffffffffffffffffffffffffffffffff168152602001908152602001600020819055506000601f60008573ffffffffffffffffffffffffffffffffffffffff1673ffffffffffffffffffffffffffffffffffffffff1681526020019081526020016000206000602260008773ffffffffffffffffffffffffffffffffffffffff1673ffffffffffffffffffffffffffffffffffffffff168152602001908152602001600020548152602001908152602001600020819055506000602260008573ffffffffffffffffffffffffffffffffffffffff1673ffffffffffffffffffffffffffffffffffffffff1681526020019081526020016000208190555050614c69565b602260008373ffffffffffffffffffffffffffffffffffffffff1673ffffffffffffffffffffffffffffffffffffffff16815260200190815260200160002054602160008473ffffffffffffffffffffffffffffffffffffffff1673ffffffffffffffffffffffffffffffffffffffff168152602001908152602001600020819055506000602260008473ffffffffffffffffffffffffffffffffffffffff1673ffffffffffffffffffffffffffffffffffffffff168152602001908152602001600020819055505b5b505b614c75876185ae565b601060003373ffffffffffffffffffffffffffffffffffffffff1673ffffffffffffffffffffffffffffffffffffffff1681526020019081526020016000206000815480929190614cc590619ab7565b91905055506011600060085481526020019081526020016000206000815480929190614cf090619ab7565b9190505550600854601260003373ffffffffffffffffffffffffffffffffffffffff1673ffffffffffffffffffffffffffffffffffffffff16815260200190815260200160002081905550600073ffffffffffffffffffffffffffffffffffffffff168773ffffffffffffffffffffffffffffffffffffffff1614614e845760008614614e245785600e60003373ffffffffffffffffffffffffffffffffffffffff1673ffffffffffffffffffffffffffffffffffffffff1681526020019081526020016000206000828254614dc6919061969c565b9250508190555085600f60008973ffffffffffffffffffffffffffffffffffffffff1673ffffffffffffffffffffffffffffffffffffffff1681526020019081526020016000206000828254614e1c919061969c565b925050819055505b60008514614e835784601560008973ffffffffffffffffffffffffffffffffffffffff1673ffffffffffffffffffffffffffffffffffffffff1681526020019081526020016000206000828254614e7b919061969c565b925050819055505b5b614e8e898961675d565b505060006127106103e861ffff163a6179845a86614eac919061978a565b614eb6919061969c565b614ec091906196d0565b614eca91906196d0565b614ed49190619759565b9050808334614ee3919061978a565b1015614f24576040517f08c379a0000000000000000000000000000000000000000000000000000000008152600401614f1b90619b71565b60405180910390fd5b614f4433848334614f35919061978a565b614f3f919061978a565b618a02565b80601c600060085481526020019081526020016000206000828254614f69919061969c565b925050819055505050505050505050565b600460009054906101000a900473ffffffffffffffffffffffffffffffffffffffff1681565b6000614faa616d4f565b9050600854811115614fbe57806008819055505b600b5460085414614fe8576001600954614fd8919061969c565b600a81905550600b546009819055505b60095460085411801561501c57506000601e6000600160095461500b919061969c565b815260200190815260200160002054145b156150b6576000601a6000600954815260200190815260200160002054670de0b6b3a7640000601c600060095481526020019081526020016000205461506291906196d0565b61506c9190619759565b905080601e6000600a5481526020019081526020016000205461508f919061969c565b601e600060016009546150a2919061969c565b815260200190815260200160002081905550505b33601260008273ffffffffffffffffffffffffffffffffffffffff1673ffffffffffffffffffffffffffffffffffffffff1681526020019081526020016000205460085411801561514757506000601060008373ffffffffffffffffffffffffffffffffffffffff1673ffffffffffffffffffffffffffffffffffffffff1681526020019081526020016000205414155b1561547757600060116000601260008573ffffffffffffffffffffffffffffffffffffffff1673ffffffffffffffffffffffffffffffffffffffff1681526020019081526020016000205481526020019081526020016000205460196000601260008673ffffffffffffffffffffffffffffffffffffffff1673ffffffffffffffffffffffffffffffffffffffff16815260200190815260200160002054815260200190815260200160002054601060008573ffffffffffffffffffffffffffffffffffffffff1673ffffffffffffffffffffffffffffffffffffffff1681526020019081526020016000205461523e91906196d0565b6152489190619759565b905080601660008473ffffffffffffffffffffffffffffffffffffffff1673ffffffffffffffffffffffffffffffffffffffff1681526020019081526020016000206000828254615299919061969c565b925050819055506000600e60008473ffffffffffffffffffffffffffffffffffffffff1673ffffffffffffffffffffffffffffffffffffffff1681526020019081526020016000205414615430576000601060008473ffffffffffffffffffffffffffffffffffffffff1673ffffffffffffffffffffffffffffffffffffffff16815260200190815260200160002054826153349190619759565b90506000612710600e60008673ffffffffffffffffffffffffffffffffffffffff1673ffffffffffffffffffffffffffffffffffffffff168152602001908152602001600020548361538691906196d0565b6153909190619759565b905080601660008673ffffffffffffffffffffffffffffffffffffffff1673ffffffffffffffffffffffffffffffffffffffff16815260200190815260200160002060008282546153e1919061978a565b925050819055506000600e60008673ffffffffffffffffffffffffffffffffffffffff1673ffffffffffffffffffffffffffffffffffffffff1681526020019081526020016000208190555050505b6000601060008473ffffffffffffffffffffffffffffffffffffffff1673ffffffffffffffffffffffffffffffffffffffff16815260200190815260200160002081905550505b6009546008541180156154d757506001600954615494919061969c565b601b60008373ffffffffffffffffffffffffffffffffffffffff1673ffffffffffffffffffffffffffffffffffffffff1681526020019081526020016000205414155b1561569857670de0b6b3a7640000601e6000601b60008573ffffffffffffffffffffffffffffffffffffffff1673ffffffffffffffffffffffffffffffffffffffff16815260200190815260200160002054815260200190815260200160002054601e6000600160095461554b919061969c565b815260200190815260200160002054615564919061978a565b601660008473ffffffffffffffffffffffffffffffffffffffff1673ffffffffffffffffffffffffffffffffffffffff168152602001908152602001600020546155ae91906196d0565b6155b89190619759565b601760008373ffffffffffffffffffffffffffffffffffffffff1673ffffffffffffffffffffffffffffffffffffffff16815260200190815260200160002054615602919061969c565b601760008373ffffffffffffffffffffffffffffffffffffffff1673ffffffffffffffffffffffffffffffffffffffff168152602001908152602001600020819055506001600954615654919061969c565b601b60008373ffffffffffffffffffffffffffffffffffffffff1673ffffffffffffffffffffffffffffffffffffffff168152602001908152602001600020819055505b6000602160008373ffffffffffffffffffffffffffffffffffffffff1673ffffffffffffffffffffffffffffffffffffffff168152602001908152602001600020541415801561573457506000602160008373ffffffffffffffffffffffffffffffffffffffff1673ffffffffffffffffffffffffffffffffffffffff16815260200190815260200160002054600854615732919061978a565b115b1561604d576000601f60008373ffffffffffffffffffffffffffffffffffffffff1673ffffffffffffffffffffffffffffffffffffffff1681526020019081526020016000206000602160008573ffffffffffffffffffffffffffffffffffffffff1673ffffffffffffffffffffffffffffffffffffffff16815260200190815260200160002054815260200190815260200160002054905080601660008473ffffffffffffffffffffffffffffffffffffffff1673ffffffffffffffffffffffffffffffffffffffff168152602001908152602001600020600082825461581c919061969c565b9250508190555080602060008473ffffffffffffffffffffffffffffffffffffffff1673ffffffffffffffffffffffffffffffffffffffff1681526020019081526020016000206000828254615872919061969c565b92505081905550670de0b6b3a7640000601e6000602160008673ffffffffffffffffffffffffffffffffffffffff1673ffffffffffffffffffffffffffffffffffffffff16815260200190815260200160002054815260200190815260200160002054601e600060016009546158e8919061969c565b815260200190815260200160002054615901919061978a565b601f60008573ffffffffffffffffffffffffffffffffffffffff1673ffffffffffffffffffffffffffffffffffffffff1681526020019081526020016000206000602160008773ffffffffffffffffffffffffffffffffffffffff1673ffffffffffffffffffffffffffffffffffffffff1681526020019081526020016000205481526020019081526020016000205461599b91906196d0565b6159a59190619759565b601760008473ffffffffffffffffffffffffffffffffffffffff1673ffffffffffffffffffffffffffffffffffffffff168152602001908152602001600020546159ef919061969c565b601760008473ffffffffffffffffffffffffffffffffffffffff1673ffffffffffffffffffffffffffffffffffffffff168152602001908152602001600020819055506000601f60008473ffffffffffffffffffffffffffffffffffffffff1673ffffffffffffffffffffffffffffffffffffffff1681526020019081526020016000206000602160008673ffffffffffffffffffffffffffffffffffffffff1673ffffffffffffffffffffffffffffffffffffffff168152602001908152602001600020548152602001908152602001600020819055506000602160008473ffffffffffffffffffffffffffffffffffffffff1673ffffffffffffffffffffffffffffffffffffffff168152602001908152602001600020819055506000602260008473ffffffffffffffffffffffffffffffffffffffff1673ffffffffffffffffffffffffffffffffffffffff168152602001908152602001600020541461604b576001602260008473ffffffffffffffffffffffffffffffffffffffff1673ffffffffffffffffffffffffffffffffffffffff16815260200190815260200160002054600854615ba2919061978a565b1115615f81576000601f60008473ffffffffffffffffffffffffffffffffffffffff1673ffffffffffffffffffffffffffffffffffffffff1681526020019081526020016000206000602260008673ffffffffffffffffffffffffffffffffffffffff1673ffffffffffffffffffffffffffffffffffffffff16815260200190815260200160002054815260200190815260200160002054905080601660008573ffffffffffffffffffffffffffffffffffffffff1673ffffffffffffffffffffffffffffffffffffffff1681526020019081526020016000206000828254615c8b919061969c565b9250508190555080602060008573ffffffffffffffffffffffffffffffffffffffff1673ffffffffffffffffffffffffffffffffffffffff1681526020019081526020016000206000828254615ce1919061969c565b92505081905550670de0b6b3a7640000601e6000602260008773ffffffffffffffffffffffffffffffffffffffff1673ffffffffffffffffffffffffffffffffffffffff16815260200190815260200160002054815260200190815260200160002054601e60006001600954615d57919061969c565b815260200190815260200160002054615d70919061978a565b601f60008673ffffffffffffffffffffffffffffffffffffffff1673ffffffffffffffffffffffffffffffffffffffff1681526020019081526020016000206000602260008873ffffffffffffffffffffffffffffffffffffffff1673ffffffffffffffffffffffffffffffffffffffff16815260200190815260200160002054815260200190815260200160002054615e0a91906196d0565b615e149190619759565b601760008573ffffffffffffffffffffffffffffffffffffffff1673ffffffffffffffffffffffffffffffffffffffff16815260200190815260200160002054615e5e919061969c565b601760008573ffffffffffffffffffffffffffffffffffffffff1673ffffffffffffffffffffffffffffffffffffffff168152602001908152602001600020819055506000601f60008573ffffffffffffffffffffffffffffffffffffffff1673ffffffffffffffffffffffffffffffffffffffff1681526020019081526020016000206000602260008773ffffffffffffffffffffffffffffffffffffffff1673ffffffffffffffffffffffffffffffffffffffff168152602001908152602001600020548152602001908152602001600020819055506000602260008573ffffffffffffffffffffffffffffffffffffffff1673ffffffffffffffffffffffffffffffffffffffff168152602001908152602001600020819055505061604a565b602260008373ffffffffffffffffffffffffffffffffffffffff1673ffffffffffffffffffffffffffffffffffffffff16815260200190815260200160002054602160008473ffffffffffffffffffffffffffffffffffffffff1673ffffffffffffffffffffffffffffffffffffffff168152602001908152602001600020819055506000602260008473ffffffffffffffffffffffffffffffffffffffff1673ffffffffffffffffffffffffffffffffffffffff168152602001908152602001600020819055505b5b505b60008303616090576040517f08c379a00000000000000000000000000000000000000000000000000000000081526004016160879061980a565b60405180910390fd5b82600760008282546160a2919061969c565b92505081905550600060016008546160ba919061969c565b9050600b54600954036160cd5760085490505b602160003373ffffffffffffffffffffffffffffffffffffffff1673ffffffffffffffffffffffffffffffffffffffff168152602001908152602001600020546008541415801561615f5750602260003373ffffffffffffffffffffffffffffffffffffffff1673ffffffffffffffffffffffffffffffffffffffff1681526020019081526020016000205460085414155b15616282576000602160003373ffffffffffffffffffffffffffffffffffffffff1673ffffffffffffffffffffffffffffffffffffffff16815260200190815260200160002054036161f45780602160003373ffffffffffffffffffffffffffffffffffffffff1673ffffffffffffffffffffffffffffffffffffffff16815260200190815260200160002081905550616281565b6000602260003373ffffffffffffffffffffffffffffffffffffffff1673ffffffffffffffffffffffffffffffffffffffff16815260200190815260200160002054036162805780602260003373ffffffffffffffffffffffffffffffffffffffff1673ffffffffffffffffffffffffffffffffffffffff168152602001908152602001600020819055505b5b5b83601f60003373ffffffffffffffffffffffffffffffffffffffff1673ffffffffffffffffffffffffffffffffffffffff168152602001908152602001600020600083815260200190815260200160002060008282546162e2919061969c565b92505081905550600460009054906101000a900473ffffffffffffffffffffffffffffffffffffffff1673ffffffffffffffffffffffffffffffffffffffff166323b872dd3330876040518463ffffffff1660e01b815260040161634893929190619b91565b6020604051808303816000875af1158015616367573d6000803e3d6000fd5b505050506040513d601f19601f8201168201806040525081019061638b919061992c565b5050505050565b602080528060005260406000206000915090505481565b600047905090565b60606000808373ffffffffffffffffffffffffffffffffffffffff1673ffffffffffffffffffffffffffffffffffffffff16815260200190815260200160002080546163fc90619a86565b80601f016020809104026020016040519081016040528092919081815260200182805461642890619a86565b80156164755780601f1061644a57610100808354040283529160200191616475565b820191906000526020600020905b81548152906001019060200180831161645857829003601f168201915b50505050509050919050565b60008061648c616d4f565b9050600080602160008673ffffffffffffffffffffffffffffffffffffffff1673ffffffffffffffffffffffffffffffffffffffff168152602001908152602001600020541415801561652957506001602160008673ffffffffffffffffffffffffffffffffffffffff1673ffffffffffffffffffffffffffffffffffffffff1681526020019081526020016000205483616527919061978a565b115b1561670957601f60008573ffffffffffffffffffffffffffffffffffffffff1673ffffffffffffffffffffffffffffffffffffffff1681526020019081526020016000206000602160008773ffffffffffffffffffffffffffffffffffffffff1673ffffffffffffffffffffffffffffffffffffffff16815260200190815260200160002054815260200190815260200160002054816165c9919061969c565b90506000602260008673ffffffffffffffffffffffffffffffffffffffff1673ffffffffffffffffffffffffffffffffffffffff168152602001908152602001600020541415801561666557506001602260008673ffffffffffffffffffffffffffffffffffffffff1673ffffffffffffffffffffffffffffffffffffffff1681526020019081526020016000205483616663919061978a565b115b1561670857601f60008573ffffffffffffffffffffffffffffffffffffffff1673ffffffffffffffffffffffffffffffffffffffff1681526020019081526020016000206000602260008773ffffffffffffffffffffffffffffffffffffffff1673ffffffffffffffffffffffffffffffffffffffff1681526020019081526020016000205481526020019081526020016000205481616705919061969c565b90505b5b80602060008673ffffffffffffffffffffffffffffffffffffffff1673ffffffffffffffffffffffffffffffffffffffff16815260200190815260200160002054616754919061969c565b92505050919050565b60005b6001835161676e919061978a565b811015616ac05760006001600085848151811061678e5761678d619bc8565b5b602002602001015173ffffffffffffffffffffffffffffffffffffffff1673ffffffffffffffffffffffffffffffffffffffff16815260200190815260200160002060003373ffffffffffffffffffffffffffffffffffffffff1673ffffffffffffffffffffffffffffffffffffffff16815260200190815260200160002080549050036168d1576003600084838151811061682d5761682c619bc8565b5b602002602001015173ffffffffffffffffffffffffffffffffffffffff1673ffffffffffffffffffffffffffffffffffffffff168152602001908152602001600020339080600181540180825580915050600190039060005260206000200160009091909190916101000a81548173ffffffffffffffffffffffffffffffffffffffff021916908373ffffffffffffffffffffffffffffffffffffffff1602179055505b600060405180604001604052808484815181106168f1576168f0619bc8565b5b602002602001015181526020014281525090506001600085848151811061691b5761691a619bc8565b5b602002602001015173ffffffffffffffffffffffffffffffffffffffff1673ffffffffffffffffffffffffffffffffffffffff16815260200190815260200160002060003373ffffffffffffffffffffffffffffffffffffffff1673ffffffffffffffffffffffffffffffffffffffff16815260200190815260200160002081908060018154018082558091505060019003906000526020600020906002020160009091909190915060008201518160000190816169d99190619d99565b5060208201518160010155505060008383815181106169fb576169fa619bc8565b5b6020026020010151604051602001616a139190619ea7565b604051602081830303815290604052805190602001209050803373ffffffffffffffffffffffffffffffffffffffff16868581518110616a5657616a55619bc8565b5b602002602001015173ffffffffffffffffffffffffffffffffffffffff167f66dd7e98380c788629fa11caec71d64cd699c90624ee0a01ebb578fc73c2e79685604051616aa39190619efb565b60405180910390a450508080616ab890619ab7565b915050616760565b50600060405180604001604052808360018651616add919061978a565b81518110616aee57616aed619bc8565b5b60200260200101518152602001428152509050600260003373ffffffffffffffffffffffffffffffffffffffff1673ffffffffffffffffffffffffffffffffffffffff16815260200190815260200160002060405180604001604052808581526020018381525090806001815401808255809150506001900390600052602060002090600302016000909190919091506000820151816000019080519060200190616b9a929190618ab3565b506020820151816001016000820151816000019081616bb99190619d99565b506020820151816001015550505050505050565b60006020528060005260406000206000915090508054616bec90619a86565b80601f0160208091040260200160405190810160405280929190818152602001828054616c1890619a86565b8015616c655780601f10616c3a57610100808354040283529160200191616c65565b820191906000526020600020905b815481529060010190602001808311616c4857829003601f168201915b505050505081565b60196020528060005260406000206000915090505481565b806000803373ffffffffffffffffffffffffffffffffffffffff1673ffffffffffffffffffffffffffffffffffffffff1681526020019081526020016000209081616cd09190619d99565b50600081604051602001616ce49190619ea7565b604051602081830303815290604052805190602001209050803373ffffffffffffffffffffffffffffffffffffffff167f1db169902a3b228ab764219bfc023384698a05b8a3d1bd2e046867a1dedf78a984604051616d439190619552565b60405180910390a35050565b60007f00000000000000000000000000000000000000000000000000000000000000007f000000000000000000000000000000000000000000000000000000000000000042616d9e919061978a565b616da89190619759565b905090565b601e6020528060005260406000206000915090505481565b600080616dd0616d4f565b90506000601760008573ffffffffffffffffffffffffffffffffffffffff1673ffffffffffffffffffffffffffffffffffffffff168152602001908152602001600020549050600080600a54905060006009549050600b548514616e45576001600954616e3d919061969c565b9150600b5490505b8085118015616e7357506000601e6000600184616e62919061969c565b815260200190815260200160002054145b15616eea576000601a600083815260200190815260200160002054670de0b6b3a7640000601c600085815260200190815260200160002054616eb591906196d0565b616ebf9190619759565b905080601e6000600a54815260200190815260200160002054616ee2919061969c565b935050616f03565b601e6000600a5481526020019081526020016000205492505b6000616f0e8861360d565b90508186118015616f6a5750600182616f27919061969c565b601b60008a73ffffffffffffffffffffffffffffffffffffffff1673ffffffffffffffffffffffffffffffffffffffff1681526020019081526020016000205414155b15616ff957670de0b6b3a7640000601e6000601b60008c73ffffffffffffffffffffffffffffffffffffffff1673ffffffffffffffffffffffffffffffffffffffff1681526020019081526020016000205481526020019081526020016000205485616fd6919061978a565b82616fe191906196d0565b616feb9190619759565b85616ff6919061969c565b94505b6000602160008a73ffffffffffffffffffffffffffffffffffffffff1673ffffffffffffffffffffffffffffffffffffffff168152602001908152602001600020541415801561709357506001602160008a73ffffffffffffffffffffffffffffffffffffffff1673ffffffffffffffffffffffffffffffffffffffff1681526020019081526020016000205487617091919061978a565b115b1561736957670de0b6b3a7640000601e6000602160008c73ffffffffffffffffffffffffffffffffffffffff1673ffffffffffffffffffffffffffffffffffffffff16815260200190815260200160002054815260200190815260200160002054856170ff919061978a565b601f60008b73ffffffffffffffffffffffffffffffffffffffff1673ffffffffffffffffffffffffffffffffffffffff1681526020019081526020016000206000602160008d73ffffffffffffffffffffffffffffffffffffffff1673ffffffffffffffffffffffffffffffffffffffff1681526020019081526020016000205481526020019081526020016000205461719991906196d0565b6171a39190619759565b856171ae919061969c565b94506000602260008a73ffffffffffffffffffffffffffffffffffffffff1673ffffffffffffffffffffffffffffffffffffffff168152602001908152602001600020541415801561724a57506001602260008a73ffffffffffffffffffffffffffffffffffffffff1673ffffffffffffffffffffffffffffffffffffffff1681526020019081526020016000205487617248919061978a565b115b1561736857670de0b6b3a7640000601e6000602260008c73ffffffffffffffffffffffffffffffffffffffff1673ffffffffffffffffffffffffffffffffffffffff16815260200190815260200160002054815260200190815260200160002054856172b6919061978a565b601f60008b73ffffffffffffffffffffffffffffffffffffffff1673ffffffffffffffffffffffffffffffffffffffff1681526020019081526020016000206000602260008d73ffffffffffffffffffffffffffffffffffffffff1673ffffffffffffffffffffffffffffffffffffffff1681526020019081526020016000205481526020019081526020016000205461735091906196d0565b61735a9190619759565b85617365919061969c565b94505b5b849650505050505050919050565b60166020528060005260406000206000915090505481565b601a6020528060005260406000206000915090505481565b60006173b1616d4f565b90506008548111156173c557806008819055505b600b54600854146173ef5760016009546173df919061969c565b600a81905550600b546009819055505b60095460085411801561742357506000601e60006001600954617412919061969c565b815260200190815260200160002054145b156174bd576000601a6000600954815260200190815260200160002054670de0b6b3a7640000601c600060095481526020019081526020016000205461746991906196d0565b6174739190619759565b905080601e6000600a54815260200190815260200160002054617496919061969c565b601e600060016009546174a9919061969c565b815260200190815260200160002081905550505b33601260008273ffffffffffffffffffffffffffffffffffffffff1673ffffffffffffffffffffffffffffffffffffffff1681526020019081526020016000205460085411801561754e57506000601060008373ffffffffffffffffffffffffffffffffffffffff1673ffffffffffffffffffffffffffffffffffffffff1681526020019081526020016000205414155b1561787e57600060116000601260008573ffffffffffffffffffffffffffffffffffffffff1673ffffffffffffffffffffffffffffffffffffffff1681526020019081526020016000205481526020019081526020016000205460196000601260008673ffffffffffffffffffffffffffffffffffffffff1673ffffffffffffffffffffffffffffffffffffffff16815260200190815260200160002054815260200190815260200160002054601060008573ffffffffffffffffffffffffffffffffffffffff1673ffffffffffffffffffffffffffffffffffffffff1681526020019081526020016000205461764591906196d0565b61764f9190619759565b905080601660008473ffffffffffffffffffffffffffffffffffffffff1673ffffffffffffffffffffffffffffffffffffffff16815260200190815260200160002060008282546176a0919061969c565b925050819055506000600e60008473ffffffffffffffffffffffffffffffffffffffff1673ffffffffffffffffffffffffffffffffffffffff1681526020019081526020016000205414617837576000601060008473ffffffffffffffffffffffffffffffffffffffff1673ffffffffffffffffffffffffffffffffffffffff168152602001908152602001600020548261773b9190619759565b90506000612710600e60008673ffffffffffffffffffffffffffffffffffffffff1673ffffffffffffffffffffffffffffffffffffffff168152602001908152602001600020548361778d91906196d0565b6177979190619759565b905080601660008673ffffffffffffffffffffffffffffffffffffffff1673ffffffffffffffffffffffffffffffffffffffff16815260200190815260200160002060008282546177e8919061978a565b925050819055506000600e60008673ffffffffffffffffffffffffffffffffffffffff1673ffffffffffffffffffffffffffffffffffffffff1681526020019081526020016000208190555050505b6000601060008473ffffffffffffffffffffffffffffffffffffffff1673ffffffffffffffffffffffffffffffffffffffff16815260200190815260200160002081905550505b6009546008541180156178de5750600160095461789b919061969c565b601b60008373ffffffffffffffffffffffffffffffffffffffff1673ffffffffffffffffffffffffffffffffffffffff1681526020019081526020016000205414155b15617a9f57670de0b6b3a7640000601e6000601b60008573ffffffffffffffffffffffffffffffffffffffff1673ffffffffffffffffffffffffffffffffffffffff16815260200190815260200160002054815260200190815260200160002054601e60006001600954617952919061969c565b81526020019081526020016000205461796b919061978a565b601660008473ffffffffffffffffffffffffffffffffffffffff1673ffffffffffffffffffffffffffffffffffffffff168152602001908152602001600020546179b591906196d0565b6179bf9190619759565b601760008373ffffffffffffffffffffffffffffffffffffffff1673ffffffffffffffffffffffffffffffffffffffff16815260200190815260200160002054617a09919061969c565b601760008373ffffffffffffffffffffffffffffffffffffffff1673ffffffffffffffffffffffffffffffffffffffff168152602001908152602001600020819055506001600954617a5b919061969c565b601b60008373ffffffffffffffffffffffffffffffffffffffff1673ffffffffffffffffffffffffffffffffffffffff168152602001908152602001600020819055505b6000602160008373ffffffffffffffffffffffffffffffffffffffff1673ffffffffffffffffffffffffffffffffffffffff1681526020019081526020016000205414158015617b3b57506000602160008373ffffffffffffffffffffffffffffffffffffffff1673ffffffffffffffffffffffffffffffffffffffff16815260200190815260200160002054600854617b39919061978a565b115b15618454576000601f60008373ffffffffffffffffffffffffffffffffffffffff1673ffffffffffffffffffffffffffffffffffffffff1681526020019081526020016000206000602160008573ffffffffffffffffffffffffffffffffffffffff1673ffffffffffffffffffffffffffffffffffffffff16815260200190815260200160002054815260200190815260200160002054905080601660008473ffffffffffffffffffffffffffffffffffffffff1673ffffffffffffffffffffffffffffffffffffffff1681526020019081526020016000206000828254617c23919061969c565b9250508190555080602060008473ffffffffffffffffffffffffffffffffffffffff1673ffffffffffffffffffffffffffffffffffffffff1681526020019081526020016000206000828254617c79919061969c565b92505081905550670de0b6b3a7640000601e6000602160008673ffffffffffffffffffffffffffffffffffffffff1673ffffffffffffffffffffffffffffffffffffffff16815260200190815260200160002054815260200190815260200160002054601e60006001600954617cef919061969c565b815260200190815260200160002054617d08919061978a565b601f60008573ffffffffffffffffffffffffffffffffffffffff1673ffffffffffffffffffffffffffffffffffffffff1681526020019081526020016000206000602160008773ffffffffffffffffffffffffffffffffffffffff1673ffffffffffffffffffffffffffffffffffffffff16815260200190815260200160002054815260200190815260200160002054617da291906196d0565b617dac9190619759565b601760008473ffffffffffffffffffffffffffffffffffffffff1673ffffffffffffffffffffffffffffffffffffffff16815260200190815260200160002054617df6919061969c565b601760008473ffffffffffffffffffffffffffffffffffffffff1673ffffffffffffffffffffffffffffffffffffffff168152602001908152602001600020819055506000601f60008473ffffffffffffffffffffffffffffffffffffffff1673ffffffffffffffffffffffffffffffffffffffff1681526020019081526020016000206000602160008673ffffffffffffffffffffffffffffffffffffffff1673ffffffffffffffffffffffffffffffffffffffff168152602001908152602001600020548152602001908152602001600020819055506000602160008473ffffffffffffffffffffffffffffffffffffffff1673ffffffffffffffffffffffffffffffffffffffff168152602001908152602001600020819055506000602260008473ffffffffffffffffffffffffffffffffffffffff1673ffffffffffffffffffffffffffffffffffffffff1681526020019081526020016000205414618452576001602260008473ffffffffffffffffffffffffffffffffffffffff1673ffffffffffffffffffffffffffffffffffffffff16815260200190815260200160002054600854617fa9919061978a565b1115618388576000601f60008473ffffffffffffffffffffffffffffffffffffffff1673ffffffffffffffffffffffffffffffffffffffff1681526020019081526020016000206000602260008673ffffffffffffffffffffffffffffffffffffffff1673ffffffffffffffffffffffffffffffffffffffff16815260200190815260200160002054815260200190815260200160002054905080601660008573ffffffffffffffffffffffffffffffffffffffff1673ffffffffffffffffffffffffffffffffffffffff1681526020019081526020016000206000828254618092919061969c565b9250508190555080602060008573ffffffffffffffffffffffffffffffffffffffff1673ffffffffffffffffffffffffffffffffffffffff16815260200190815260200160002060008282546180e8919061969c565b92505081905550670de0b6b3a7640000601e6000602260008773ffffffffffffffffffffffffffffffffffffffff1673ffffffffffffffffffffffffffffffffffffffff16815260200190815260200160002054815260200190815260200160002054601e6000600160095461815e919061969c565b815260200190815260200160002054618177919061978a565b601f60008673ffffffffffffffffffffffffffffffffffffffff1673ffffffffffffffffffffffffffffffffffffffff1681526020019081526020016000206000602260008873ffffffffffffffffffffffffffffffffffffffff1673ffffffffffffffffffffffffffffffffffffffff1681526020019081526020016000205481526020019081526020016000205461821191906196d0565b61821b9190619759565b601760008573ffffffffffffffffffffffffffffffffffffffff1673ffffffffffffffffffffffffffffffffffffffff16815260200190815260200160002054618265919061969c565b601760008573ffffffffffffffffffffffffffffffffffffffff1673ffffffffffffffffffffffffffffffffffffffff168152602001908152602001600020819055506000601f60008573ffffffffffffffffffffffffffffffffffffffff1673ffffffffffffffffffffffffffffffffffffffff1681526020019081526020016000206000602260008773ffffffffffffffffffffffffffffffffffffffff1673ffffffffffffffffffffffffffffffffffffffff168152602001908152602001600020548152602001908152602001600020819055506000602260008573ffffffffffffffffffffffffffffffffffffffff1673ffffffffffffffffffffffffffffffffffffffff1681526020019081526020016000208190555050618451565b602260008373ffffffffffffffffffffffffffffffffffffffff1673ffffffffffffffffffffffffffffffffffffffff16815260200190815260200160002054602160008473ffffffffffffffffffffffffffffffffffffffff1673ffffffffffffffffffffffffffffffffffffffff168152602001908152602001600020819055506000602260008473ffffffffffffffffffffffffffffffffffffffff1673ffffffffffffffffffffffffffffffffffffffff168152602001908152602001600020819055505b5b505b6000601760003373ffffffffffffffffffffffffffffffffffffffff1673ffffffffffffffffffffffffffffffffffffffff168152602001908152602001600020549050600081116184db576040517f08c379a00000000000000000000000000000000000000000000000000000000081526004016184d290619a37565b60405180910390fd5b6000601760003373ffffffffffffffffffffffffffffffffffffffff1673ffffffffffffffffffffffffffffffffffffffff1681526020019081526020016000208190555061852a3382618a02565b7f83db9dc084973306ecd0b0f10cb495b81dd9ddcc135eb7934d2723bcabc8f4c3816040516185599190618be0565b60405180910390a1505050565b600061272361271060065461857b91906196d0565b6185859190619759565b905090565b6103e881565b600b5481565b60176020528060005260406000206000915090505481565b601360008273ffffffffffffffffffffffffffffffffffffffff1673ffffffffffffffffffffffffffffffffffffffff168152602001908152602001600020546008541115618816576000601360008373ffffffffffffffffffffffffffffffffffffffff1673ffffffffffffffffffffffffffffffffffffffff1681526020019081526020016000205490506000600f60008473ffffffffffffffffffffffffffffffffffffffff1673ffffffffffffffffffffffffffffffffffffffff168152602001908152602001600020541415801561869f57506000601160008381526020019081526020016000205414155b156187ce576000601160008381526020019081526020016000205460196000848152602001908152602001600020546186d89190619759565b9050612710600f60008573ffffffffffffffffffffffffffffffffffffffff1673ffffffffffffffffffffffffffffffffffffffff168152602001908152602001600020548261872891906196d0565b6187329190619759565b601860008573ffffffffffffffffffffffffffffffffffffffff1673ffffffffffffffffffffffffffffffffffffffff1681526020019081526020016000206000828254618780919061969c565b925050819055506000600f60008573ffffffffffffffffffffffffffffffffffffffff1673ffffffffffffffffffffffffffffffffffffffff16815260200190815260200160002081905550505b600854601360008473ffffffffffffffffffffffffffffffffffffffff1673ffffffffffffffffffffffffffffffffffffffff16815260200190815260200160002081905550505b60095460085411801561887657506001600954618833919061969c565b601460008373ffffffffffffffffffffffffffffffffffffffff1673ffffffffffffffffffffffffffffffffffffffff1681526020019081526020016000205414155b156189ff57670de0b6b3a7640000601e6000601460008573ffffffffffffffffffffffffffffffffffffffff1673ffffffffffffffffffffffffffffffffffffffff16815260200190815260200160002054815260200190815260200160002054601e600060016009546188ea919061969c565b815260200190815260200160002054618903919061978a565b601860008473ffffffffffffffffffffffffffffffffffffffff1673ffffffffffffffffffffffffffffffffffffffff1681526020019081526020016000205461894d91906196d0565b6189579190619759565b601560008373ffffffffffffffffffffffffffffffffffffffff1673ffffffffffffffffffffffffffffffffffffffff16815260200190815260200160002060008282546189a5919061969c565b9250508190555060016009546189bb919061969c565b601460008373ffffffffffffffffffffffffffffffffffffffff1673ffffffffffffffffffffffffffffffffffffffff168152602001908152602001600020819055505b50565b60008273ffffffffffffffffffffffffffffffffffffffff1682604051618a2890619f4e565b60006040518083038185875af1925050503d8060008114618a65576040519150601f19603f3d011682016040523d82523d6000602084013e618a6a565b606091505b5050905080618aae576040517f08c379a0000000000000000000000000000000000000000000000000000000008152600401618aa590619faf565b60405180910390fd5b505050565b828054828255906000526020600020908101928215618b2c579160200282015b82811115618b2b5782518260006101000a81548173ffffffffffffffffffffffffffffffffffffffff021916908373ffffffffffffffffffffffffffffffffffffffff16021790555091602001919060010190618ad3565b5b509050618b399190618b3d565b5090565b5b80821115618b56576000816000905550600101618b3e565b5090565b6000604051905090565b600080fd5b600080fd5b6000819050919050565b618b8181618b6e565b8114618b8c57600080fd5b50565b600081359050618b9e81618b78565b92915050565b600060208284031215618bba57618bb9618b64565b5b6000618bc884828501618b8f565b91505092915050565b618bda81618b6e565b82525050565b6000602082019050618bf56000830184618bd1565b92915050565b600073ffffffffffffffffffffffffffffffffffffffff82169050919050565b6000618c2682618bfb565b9050919050565b618c3681618c1b565b8114618c4157600080fd5b50565b600081359050618c5381618c2d565b92915050565b600060208284031215618c6f57618c6e618b64565b5b6000618c7d84828501618c44565b91505092915050565b600081519050919050565b600082825260208201905092915050565b6000819050602082019050919050565b600081519050919050565b600082825260208201905092915050565b6000819050602082019050919050565b618ce781618c1b565b82525050565b6000618cf98383618cde565b60208301905092915050565b6000602082019050919050565b6000618d1d82618cb2565b618d278185618cbd565b9350618d3283618cce565b8060005b83811015618d63578151618d4a8882618ced565b9750618d5583618d05565b925050600181019050618d36565b5085935050505092915050565b600081519050919050565b600082825260208201905092915050565b60005b83811015618daa578082015181840152602081019050618d8f565b60008484015250505050565b6000601f19601f8301169050919050565b6000618dd282618d70565b618ddc8185618d7b565b9350618dec818560208601618d8c565b618df581618db6565b840191505092915050565b618e0981618b6e565b82525050565b60006040830160008301518482036000860152618e2c8282618dc7565b9150506020830151618e416020860182618e00565b508091505092915050565b60006040830160008301518482036000860152618e698282618d12565b91505060208301518482036020860152618e838282618e0f565b9150508091505092915050565b6000618e9c8383618e4c565b905092915050565b6000602082019050919050565b6000618ebc82618c86565b618ec68185618c91565b935083602082028501618ed885618ca2565b8060005b85811015618f145784840389528151618ef58582618e90565b9450618f0083618ea4565b925060208a01995050600181019050618edc565b50829750879550505050505092915050565b60006020820190508181036000830152618f408184618eb1565b905092915050565b600082825260208201905092915050565b6000618f6482618cb2565b618f6e8185618f48565b9350618f7983618cce565b8060005b83811015618faa578151618f918882618ced565b9750618f9c83618d05565b925050600181019050618f7d565b5085935050505092915050565b60006020820190508181036000830152618fd18184618f59565b905092915050565b60008060408385031215618ff057618fef618b64565b5b6000618ffe85828601618c44565b925050602061900f85828601618c44565b9150509250929050565b600081519050919050565b600082825260208201905092915050565b6000819050602082019050919050565b60006190518383618e0f565b905092915050565b6000602082019050919050565b600061907182619019565b61907b8185619024565b93508360208202850161908d85619035565b8060005b858110156190c957848403895281516190aa8582619045565b94506190b583619059565b925060208a01995050600181019050619091565b50829750879550505050505092915050565b600060208201905081810360008301526190f58184619066565b905092915050565b600080fd5b7f4e487b7100000000000000000000000000000000000000000000000000000000600052604160045260246000fd5b61913a82618db6565b810181811067ffffffffffffffff8211171561915957619158619102565b5b80604052505050565b600061916c618b5a565b90506191788282619131565b919050565b600067ffffffffffffffff82111561919857619197619102565b5b602082029050602081019050919050565b600080fd5b60006191c16191bc8461917d565b619162565b905080838252602082019050602084028301858111156191e4576191e36191a9565b5b835b8181101561920d57806191f98882618c44565b8452602084019350506020810190506191e6565b5050509392505050565b600082601f83011261922c5761922b6190fd565b5b813561923c8482602086016191ae565b91505092915050565b600067ffffffffffffffff8211156192605761925f619102565b5b602082029050602081019050919050565b600080fd5b600067ffffffffffffffff82111561929157619290619102565b5b61929a82618db6565b9050602081019050919050565b82818337600083830152505050565b60006192c96192c484619276565b619162565b9050828152602081018484840111156192e5576192e4619271565b5b6192f08482856192a7565b509392505050565b600082601f83011261930d5761930c6190fd565b5b813561931d8482602086016192b6565b91505092915050565b600061933961933484619245565b619162565b9050808382526020820190506020840283018581111561935c5761935b6191a9565b5b835b818110156193a357803567ffffffffffffffff811115619381576193806190fd565b5b80860161938e89826192f8565b8552602085019450505060208101905061935e565b5050509392505050565b600082601f8301126193c2576193c16190fd565b5b81356193d2848260208601619326565b91505092915050565b600080600080600060a086880312156193f7576193f6618b64565b5b600086013567ffffffffffffffff81111561941557619414618b69565b5b61942188828901619217565b955050602086013567ffffffffffffffff81111561944257619441618b69565b5b61944e888289016193ad565b945050604061945f88828901618c44565b935050606061947088828901618b8f565b925050608061948188828901618b8f565b9150509295509295909350565b6000819050919050565b60006194b36194ae6194a984618bfb565b61948e565b618bfb565b9050919050565b60006194c582619498565b9050919050565b60006194d7826194ba565b9050919050565b6194e7816194cc565b82525050565b600060208201905061950260008301846194de565b92915050565b600082825260208201905092915050565b600061952482618d70565b61952e8185619508565b935061953e818560208601618d8c565b61954781618db6565b840191505092915050565b6000602082019050818103600083015261956c8184619519565b905092915050565b6000806040838503121561958b5761958a618b64565b5b600083013567ffffffffffffffff8111156195a9576195a8618b69565b5b6195b585828601619217565b925050602083013567ffffffffffffffff8111156195d6576195d5618b69565b5b6195e2858286016193ad565b9150509250929050565b60006020828403121561960257619601618b64565b5b600082013567ffffffffffffffff8111156196205761961f618b69565b5b61962c848285016192f8565b91505092915050565b600061ffff82169050919050565b61964c81619635565b82525050565b60006020820190506196676000830184619643565b92915050565b7f4e487b7100000000000000000000000000000000000000000000000000000000600052601160045260246000fd5b60006196a782618b6e565b91506196b283618b6e565b92508282019050808211156196ca576196c961966d565b5b92915050565b60006196db82618b6e565b91506196e683618b6e565b9250817fffffffffffffffffffffffffffffffffffffffffffffffffffffffffffffffff048311821515161561971f5761971e61966d565b5b828202905092915050565b7f4e487b7100000000000000000000000000000000000000000000000000000000600052601260045260246000fd5b600061976482618b6e565b915061976f83618b6e565b92508261977f5761977e61972a565b5b828204905092915050565b600061979582618b6e565b91506197a083618b6e565b92508282039050818111156197b8576197b761966d565b5b92915050565b7f44656230783a20796f757220616d6f756e742069732030000000000000000000600082015250565b60006197f4601783619508565b91506197ff826197be565b602082019050919050565b60006020820190508181036000830152619823816197e7565b9050919050565b7f44656230783a2063616e206e6f7420756e7374616b65206d6f7265207468616e60008201527f20796f75277665207374616b6564000000000000000000000000000000000000602082015250565b6000619886602e83619508565b91506198918261982a565b604082019050919050565b600060208201905081810360008301526198b581619879565b9050919050565b6198c581618c1b565b82525050565b60006040820190506198e060008301856198bc565b6198ed6020830184618bd1565b9392505050565b60008115159050919050565b619909816198f4565b811461991457600080fd5b50565b60008151905061992681619900565b92915050565b60006020828403121561994257619941618b64565b5b600061995084828501619917565b91505092915050565b7f44656230783a20596f7520646f206e6f74206861766520726577617264730000600082015250565b600061998f601e83619508565b915061999a82619959565b602082019050919050565b600060208201905081810360008301526199be81619982565b9050919050565b7f44656230783a20596f7520646f206e6f7420686176652061636372756564206660008201527f6565730000000000000000000000000000000000000000000000000000000000602082015250565b6000619a21602383619508565b9150619a2c826199c5565b604082019050919050565b60006020820190508181036000830152619a5081619a14565b9050919050565b7f4e487b7100000000000000000000000000000000000000000000000000000000600052602260045260246000fd5b60006002820490506001821680619a9e57607f821691505b602082108103619ab157619ab0619a57565b5b50919050565b6000619ac282618b6e565b91507fffffffffffffffffffffffffffffffffffffffffffffffffffffffffffffffff8203619af457619af361966d565b5b600182019050919050565b7f44656230783a206d7573742070617920313025206f66207472616e736163746960008201527f6f6e20636f737400000000000000000000000000000000000000000000000000602082015250565b6000619b5b602783619508565b9150619b6682619aff565b604082019050919050565b60006020820190508181036000830152619b8a81619b4e565b9050919050565b6000606082019050619ba660008301866198bc565b619bb360208301856198bc565b619bc06040830184618bd1565b949350505050565b7f4e487b7100000000000000000000000000000000000000000000000000000000600052603260045260246000fd5b60008190508160005260206000209050919050565b60006020601f8301049050919050565b600082821b905092915050565b600060088302619c597fffffffffffffffffffffffffffffffffffffffffffffffffffffffffffffffff82619c1c565b619c638683619c1c565b95508019841693508086168417925050509392505050565b6000619c96619c91619c8c84618b6e565b61948e565b618b6e565b9050919050565b6000819050919050565b619cb083619c7b565b619cc4619cbc82619c9d565b848454619c29565b825550505050565b600090565b619cd9619ccc565b619ce4818484619ca7565b505050565b5b81811015619d0857619cfd600082619cd1565b600181019050619cea565b5050565b601f821115619d4d57619d1e81619bf7565b619d2784619c0c565b81016020851015619d36578190505b619d4a619d4285619c0c565b830182619ce9565b50505b505050565b600082821c905092915050565b6000619d7060001984600802619d52565b1980831691505092915050565b6000619d898383619d5f565b9150826002028217905092915050565b619da282618d70565b67ffffffffffffffff811115619dbb57619dba619102565b5b619dc58254619a86565b619dd0828285619d0c565b600060209050601f831160018114619e035760008415619df1578287015190505b619dfb8582619d7d565b865550619e63565b601f198416619e1186619bf7565b60005b82811015619e3957848901518255600182019150602085019450602081019050619e14565b86831015619e565784890151619e52601f891682619d5f565b8355505b6001600288020188555050505b505050505050565b600081905092915050565b6000619e8182618d70565b619e8b8185619e6b565b9350619e9b818560208601618d8c565b80840191505092915050565b6000619eb38284619e76565b915081905092915050565b60006040830160008301518482036000860152619edb8282618dc7565b9150506020830151619ef06020860182618e00565b508091505092915050565b60006020820190508181036000830152619f158184619ebe565b905092915050565b600081905092915050565b50565b6000619f38600083619f1d565b9150619f4382619f28565b600082019050919050565b6000619f5982619f2b565b9150819050919050565b7f44656230783a206661696c656420746f2073656e6420616d6f756e7400000000600082015250565b6000619f99601c83619508565b9150619fa482619f63565b602082019050919050565b60006020820190508181036000830152619fc881619f8c565b905091905056fea2646970667358221220932fff57b82639df70371823a4d533b56f3095d491cf9f8cbdd1b709e9b6b8b864736f6c6343000810003360806040523480156200001157600080fd5b506040518060400160405280600581526020017f44656230780000000000000000000000000000000000000000000000000000008152506040518060400160405280600381526020017f444258000000000000000000000000000000000000000000000000000000000081525081600390816200008f919062000365565b508060049081620000a1919062000365565b50505033600560006101000a81548173ffffffffffffffffffffffffffffffffffffffff021916908373ffffffffffffffffffffffffffffffffffffffff1602179055506200044c565b600081519050919050565b7f4e487b7100000000000000000000000000000000000000000000000000000000600052604160045260246000fd5b7f4e487b7100000000000000000000000000000000000000000000000000000000600052602260045260246000fd5b600060028204905060018216806200016d57607f821691505b60208210810362000183576200018262000125565b5b50919050565b60008190508160005260206000209050919050565b60006020601f8301049050919050565b600082821b905092915050565b600060088302620001ed7fffffffffffffffffffffffffffffffffffffffffffffffffffffffffffffffff82620001ae565b620001f98683620001ae565b95508019841693508086168417925050509392505050565b6000819050919050565b6000819050919050565b600062000246620002406200023a8462000211565b6200021b565b62000211565b9050919050565b6000819050919050565b620002628362000225565b6200027a62000271826200024d565b848454620001bb565b825550505050565b600090565b6200029162000282565b6200029e81848462000257565b505050565b5b81811015620002c657620002ba60008262000287565b600181019050620002a4565b5050565b601f8211156200031557620002df8162000189565b620002ea846200019e565b81016020851015620002fa578190505b6200031262000309856200019e565b830182620002a3565b50505b505050565b600082821c905092915050565b60006200033a600019846008026200031a565b1980831691505092915050565b600062000355838362000327565b9150826002028217905092915050565b6200037082620000eb565b67ffffffffffffffff8111156200038c576200038b620000f6565b5b62000398825462000154565b620003a5828285620002ca565b600060209050601f831160018114620003dd5760008415620003c8578287015190505b620003d4858262000347565b86555062000444565b601f198416620003ed8662000189565b60005b828110156200041757848901518255600182019150602085019450602081019050620003f0565b8683101562000437578489015162000433601f89168262000327565b8355505b6001600288020188555050505b505050505050565b6115bd806200045c6000396000f3fe608060405234801561001057600080fd5b50600436106100cf5760003560e01c806370a082311161008c5780639a49090e116100665780639a49090e1461022a578063a457c2d714610246578063a9059cbb14610276578063dd62ed3e146102a6576100cf565b806370a08231146101be5780638da5cb5b146101ee57806395d89b411461020c576100cf565b806306fdde03146100d4578063095ea7b3146100f257806318160ddd1461012257806323b872dd14610140578063313ce56714610170578063395093511461018e575b600080fd5b6100dc6102d6565b6040516100e99190610d98565b60405180910390f35b61010c60048036038101906101079190610e53565b610368565b6040516101199190610eae565b60405180910390f35b61012a61038b565b6040516101379190610ed8565b60405180910390f35b61015a60048036038101906101559190610ef3565b610395565b6040516101679190610eae565b60405180910390f35b6101786103c4565b6040516101859190610f62565b60405180910390f35b6101a860048036038101906101a39190610e53565b6103cd565b6040516101b59190610eae565b60405180910390f35b6101d860048036038101906101d39190610f7d565b610404565b6040516101e59190610ed8565b60405180910390f35b6101f661044c565b6040516102039190610fb9565b60405180910390f35b610214610472565b6040516102219190610d98565b60405180910390f35b610244600480360381019061023f9190610e53565b610504565b005b610260600480360381019061025b9190610e53565b6105a2565b60405161026d9190610eae565b60405180910390f35b610290600480360381019061028b9190610e53565b610619565b60405161029d9190610eae565b60405180910390f35b6102c060048036038101906102bb9190610fd4565b61063c565b6040516102cd9190610ed8565b60405180910390f35b6060600380546102e590611043565b80601f016020809104026020016040519081016040528092919081815260200182805461031190611043565b801561035e5780601f106103335761010080835404028352916020019161035e565b820191906000526020600020905b81548152906001019060200180831161034157829003601f168201915b5050505050905090565b6000806103736106c3565b90506103808185856106cb565b600191505092915050565b6000600254905090565b6000806103a06106c3565b90506103ad858285610894565b6103b8858585610920565b60019150509392505050565b60006012905090565b6000806103d86106c3565b90506103f98185856103ea858961063c565b6103f491906110a3565b6106cb565b600191505092915050565b60008060008373ffffffffffffffffffffffffffffffffffffffff1673ffffffffffffffffffffffffffffffffffffffff168152602001908152602001600020549050919050565b600560009054906101000a900473ffffffffffffffffffffffffffffffffffffffff1681565b60606004805461048190611043565b80601f01602080910402602001604051908101604052809291908181526020018280546104ad90611043565b80156104fa5780601f106104cf576101008083540402835291602001916104fa565b820191906000526020600020905b8154815290600101906020018083116104dd57829003601f168201915b5050505050905090565b600560009054906101000a900473ffffffffffffffffffffffffffffffffffffffff1673ffffffffffffffffffffffffffffffffffffffff163373ffffffffffffffffffffffffffffffffffffffff1614610594576040517f08c379a000000000000000000000000000000000000000000000000000000000815260040161058b90611123565b60405180910390fd5b61059e8282610b9f565b5050565b6000806105ad6106c3565b905060006105bb828661063c565b905083811015610600576040517f08c379a00000000000000000000000000000000000000000000000000000000081526004016105f7906111b5565b60405180910390fd5b61060d82868684036106cb565b60019250505092915050565b6000806106246106c3565b9050610631818585610920565b600191505092915050565b6000600160008473ffffffffffffffffffffffffffffffffffffffff1673ffffffffffffffffffffffffffffffffffffffff16815260200190815260200160002060008373ffffffffffffffffffffffffffffffffffffffff1673ffffffffffffffffffffffffffffffffffffffff16815260200190815260200160002054905092915050565b600033905090565b600073ffffffffffffffffffffffffffffffffffffffff168373ffffffffffffffffffffffffffffffffffffffff160361073a576040517f08c379a000000000000000000000000000000000000000000000000000000000815260040161073190611247565b60405180910390fd5b600073ffffffffffffffffffffffffffffffffffffffff168273ffffffffffffffffffffffffffffffffffffffff16036107a9576040517f08c379a00000000000000000000000000000000000000000000000000000000081526004016107a0906112d9565b60405180910390fd5b80600160008573ffffffffffffffffffffffffffffffffffffffff1673ffffffffffffffffffffffffffffffffffffffff16815260200190815260200160002060008473ffffffffffffffffffffffffffffffffffffffff1673ffffffffffffffffffffffffffffffffffffffff168152602001908152602001600020819055508173ffffffffffffffffffffffffffffffffffffffff168373ffffffffffffffffffffffffffffffffffffffff167f8c5be1e5ebec7d5bd14f71427d1e84f3dd0314c0f7b2291e5b200ac8c7c3b925836040516108879190610ed8565b60405180910390a3505050565b60006108a0848461063c565b90507fffffffffffffffffffffffffffffffffffffffffffffffffffffffffffffffff811461091a578181101561090c576040517f08c379a000000000000000000000000000000000000000000000000000000000815260040161090390611345565b60405180910390fd5b61091984848484036106cb565b5b50505050565b600073ffffffffffffffffffffffffffffffffffffffff168373ffffffffffffffffffffffffffffffffffffffff160361098f576040517f08c379a0000000000000000000000000000000000000000000000000000000008152600401610986906113d7565b60405180910390fd5b600073ffffffffffffffffffffffffffffffffffffffff168273ffffffffffffffffffffffffffffffffffffffff16036109fe576040517f08c379a00000000000000000000000000000000000000000000000000000000081526004016109f590611469565b60405180910390fd5b610a09838383610cfe565b60008060008573ffffffffffffffffffffffffffffffffffffffff1673ffffffffffffffffffffffffffffffffffffffff16815260200190815260200160002054905081811015610a8f576040517f08c379a0000000000000000000000000000000000000000000000000000000008152600401610a86906114fb565b60405180910390fd5b8181036000808673ffffffffffffffffffffffffffffffffffffffff1673ffffffffffffffffffffffffffffffffffffffff16815260200190815260200160002081905550816000808573ffffffffffffffffffffffffffffffffffffffff1673ffffffffffffffffffffffffffffffffffffffff1681526020019081526020016000206000828254610b2291906110a3565b925050819055508273ffffffffffffffffffffffffffffffffffffffff168473ffffffffffffffffffffffffffffffffffffffff167fddf252ad1be2c89b69c2b068fc378daa952ba7f163c4a11628f55a4df523b3ef84604051610b869190610ed8565b60405180910390a3610b99848484610d03565b50505050565b600073ffffffffffffffffffffffffffffffffffffffff168273ffffffffffffffffffffffffffffffffffffffff1603610c0e576040517f08c379a0000000000000000000000000000000000000000000000000000000008152600401610c0590611567565b60405180910390fd5b610c1a60008383610cfe565b8060026000828254610c2c91906110a3565b92505081905550806000808473ffffffffffffffffffffffffffffffffffffffff1673ffffffffffffffffffffffffffffffffffffffff1681526020019081526020016000206000828254610c8191906110a3565b925050819055508173ffffffffffffffffffffffffffffffffffffffff16600073ffffffffffffffffffffffffffffffffffffffff167fddf252ad1be2c89b69c2b068fc378daa952ba7f163c4a11628f55a4df523b3ef83604051610ce69190610ed8565b60405180910390a3610cfa60008383610d03565b5050565b505050565b505050565b600081519050919050565b600082825260208201905092915050565b60005b83811015610d42578082015181840152602081019050610d27565b60008484015250505050565b6000601f19601f8301169050919050565b6000610d6a82610d08565b610d748185610d13565b9350610d84818560208601610d24565b610d8d81610d4e565b840191505092915050565b60006020820190508181036000830152610db28184610d5f565b905092915050565b600080fd5b600073ffffffffffffffffffffffffffffffffffffffff82169050919050565b6000610dea82610dbf565b9050919050565b610dfa81610ddf565b8114610e0557600080fd5b50565b600081359050610e1781610df1565b92915050565b6000819050919050565b610e3081610e1d565b8114610e3b57600080fd5b50565b600081359050610e4d81610e27565b92915050565b60008060408385031215610e6a57610e69610dba565b5b6000610e7885828601610e08565b9250506020610e8985828601610e3e565b9150509250929050565b60008115159050919050565b610ea881610e93565b82525050565b6000602082019050610ec36000830184610e9f565b92915050565b610ed281610e1d565b82525050565b6000602082019050610eed6000830184610ec9565b92915050565b600080600060608486031215610f0c57610f0b610dba565b5b6000610f1a86828701610e08565b9350506020610f2b86828701610e08565b9250506040610f3c86828701610e3e565b9150509250925092565b600060ff82169050919050565b610f5c81610f46565b82525050565b6000602082019050610f776000830184610f53565b92915050565b600060208284031215610f9357610f92610dba565b5b6000610fa184828501610e08565b91505092915050565b610fb381610ddf565b82525050565b6000602082019050610fce6000830184610faa565b92915050565b60008060408385031215610feb57610fea610dba565b5b6000610ff985828601610e08565b925050602061100a85828601610e08565b9150509250929050565b7f4e487b7100000000000000000000000000000000000000000000000000000000600052602260045260246000fd5b6000600282049050600182168061105b57607f821691505b60208210810361106e5761106d611014565b5b50919050565b7f4e487b7100000000000000000000000000000000000000000000000000000000600052601160045260246000fd5b60006110ae82610e1d565b91506110b983610e1d565b92508282019050808211156110d1576110d0611074565b5b92915050565b7f43616c6c6572206973206e6f7420446562307820636f6e74726163742e000000600082015250565b600061110d601d83610d13565b9150611118826110d7565b602082019050919050565b6000602082019050818103600083015261113c81611100565b9050919050565b7f45524332303a2064656372656173656420616c6c6f77616e63652062656c6f7760008201527f207a65726f000000000000000000000000000000000000000000000000000000602082015250565b600061119f602583610d13565b91506111aa82611143565b604082019050919050565b600060208201905081810360008301526111ce81611192565b9050919050565b7f45524332303a20617070726f76652066726f6d20746865207a65726f2061646460008201527f7265737300000000000000000000000000000000000000000000000000000000602082015250565b6000611231602483610d13565b915061123c826111d5565b604082019050919050565b6000602082019050818103600083015261126081611224565b9050919050565b7f45524332303a20617070726f766520746f20746865207a65726f20616464726560008201527f7373000000000000000000000000000000000000000000000000000000000000602082015250565b60006112c3602283610d13565b91506112ce82611267565b604082019050919050565b600060208201905081810360008301526112f2816112b6565b9050919050565b7f45524332303a20696e73756666696369656e7420616c6c6f77616e6365000000600082015250565b600061132f601d83610d13565b915061133a826112f9565b602082019050919050565b6000602082019050818103600083015261135e81611322565b9050919050565b7f45524332303a207472616e736665722066726f6d20746865207a65726f20616460008201527f6472657373000000000000000000000000000000000000000000000000000000602082015250565b60006113c1602583610d13565b91506113cc82611365565b604082019050919050565b600060208201905081810360008301526113f0816113b4565b9050919050565b7f45524332303a207472616e7366657220746f20746865207a65726f206164647260008201527f6573730000000000000000000000000000000000000000000000000000000000602082015250565b6000611453602383610d13565b915061145e826113f7565b604082019050919050565b6000602082019050818103600083015261148281611446565b9050919050565b7f45524332303a207472616e7366657220616d6f756e742065786365656473206260008201527f616c616e63650000000000000000000000000000000000000000000000000000602082015250565b60006114e5602683610d13565b91506114f082611489565b604082019050919050565b60006020820190508181036000830152611514816114d8565b9050919050565b7f45524332303a206d696e7420746f20746865207a65726f206164647265737300600082015250565b6000611551601f83610d13565b915061155c8261151b565b602082019050919050565b6000602082019050818103600083015261158081611544565b905091905056fea2646970667358221220df46568725155975c34c19abaaedd25b2301786763fb6a23777f97662b7829ba64736f6c63430008100033",
    "linkReferences": {},
    "deployedLinkReferences": {}
}