{
  "_format": "hh-sol-artifact-1",
  "contractName": "Deb0x",
  "sourceName": "contracts/Deb0x.sol",
  "abi": [
    {
      "inputs": [],
      "stateMutability": "nonpayable",
      "type": "constructor"
    },
    {
      "anonymous": false,
      "inputs": [
        {
          "indexed": true,
          "internalType": "address",
          "name": "previousOwner",
          "type": "address"
        },
        {
          "indexed": true,
          "internalType": "address",
          "name": "newOwner",
          "type": "address"
        }
      ],
      "name": "OwnershipTransferred",
      "type": "event"
    },
    {
      "inputs": [
        {
          "internalType": "address",
          "name": "",
          "type": "address"
        }
      ],
      "name": "balanceERC20",
      "outputs": [
        {
          "internalType": "uint256",
          "name": "",
          "type": "uint256"
        }
      ],
      "stateMutability": "view",
      "type": "function"
    },
    {
      "inputs": [],
      "name": "contractBalance",
      "outputs": [
        {
          "internalType": "uint256",
          "name": "",
          "type": "uint256"
        }
      ],
      "stateMutability": "view",
      "type": "function"
    },
    {
      "inputs": [],
      "name": "deboxERC20",
      "outputs": [
        {
          "internalType": "contract Deb0xERC20",
          "name": "",
          "type": "address"
        }
      ],
      "stateMutability": "view",
      "type": "function"
    },
    {
      "inputs": [
        {
          "internalType": "address",
          "name": "account",
          "type": "address"
        }
      ],
      "name": "earnedNative",
      "outputs": [
        {
          "internalType": "uint256",
          "name": "",
          "type": "uint256"
        }
      ],
      "stateMutability": "view",
      "type": "function"
    },
    {
      "inputs": [],
      "name": "fee",
      "outputs": [
        {
          "internalType": "uint16",
          "name": "",
          "type": "uint16"
        }
      ],
      "stateMutability": "view",
      "type": "function"
    },
    {
      "inputs": [
        {
          "internalType": "address",
          "name": "to",
          "type": "address"
        }
      ],
      "name": "fetchMessageSenders",
      "outputs": [
        {
          "internalType": "address[]",
          "name": "",
          "type": "address[]"
        }
      ],
      "stateMutability": "view",
      "type": "function"
    },
    {
      "inputs": [
        {
          "internalType": "address",
          "name": "to",
          "type": "address"
        },
        {
          "internalType": "address",
          "name": "from",
          "type": "address"
        }
      ],
      "name": "fetchMessages",
      "outputs": [
        {
          "components": [
            {
              "internalType": "string",
              "name": "cid",
              "type": "string"
            },
            {
              "internalType": "uint256",
              "name": "blockTimestamp",
              "type": "uint256"
            }
          ],
          "internalType": "struct Deb0xCore.content[]",
          "name": "",
          "type": "tuple[]"
        }
      ],
      "stateMutability": "view",
      "type": "function"
    },
    {
      "inputs": [
        {
          "internalType": "address",
          "name": "sender",
          "type": "address"
        }
      ],
      "name": "fetchSentMessages",
      "outputs": [
        {
          "components": [
            {
              "internalType": "address[]",
              "name": "recipients",
              "type": "address[]"
            },
            {
              "components": [
                {
                  "internalType": "string",
                  "name": "cid",
                  "type": "string"
                },
                {
                  "internalType": "uint256",
                  "name": "blockTimestamp",
                  "type": "uint256"
                }
              ],
              "internalType": "struct Deb0xCore.content",
              "name": "contentData",
              "type": "tuple"
            }
          ],
          "internalType": "struct Deb0xCore.sentMessage[]",
          "name": "",
          "type": "tuple[]"
        }
      ],
      "stateMutability": "view",
      "type": "function"
    },
    {
      "inputs": [
        {
          "internalType": "address",
          "name": "account",
          "type": "address"
        }
      ],
      "name": "getKey",
      "outputs": [
        {
          "internalType": "string",
          "name": "",
          "type": "string"
        }
      ],
      "stateMutability": "view",
      "type": "function"
    },
    {
      "inputs": [],
      "name": "getRewardNative",
      "outputs": [],
      "stateMutability": "nonpayable",
      "type": "function"
    },
    {
      "inputs": [],
      "name": "governor",
      "outputs": [
        {
          "internalType": "contract Deb0xGovernor",
          "name": "",
          "type": "address"
        }
      ],
      "stateMutability": "view",
      "type": "function"
    },
    {
      "inputs": [],
      "name": "lastUpdateTime",
      "outputs": [
        {
          "internalType": "uint256",
          "name": "",
          "type": "uint256"
        }
      ],
      "stateMutability": "view",
      "type": "function"
    },
    {
      "inputs": [],
      "name": "owner",
      "outputs": [
        {
          "internalType": "address",
          "name": "",
          "type": "address"
        }
      ],
      "stateMutability": "view",
      "type": "function"
    },
    {
      "inputs": [],
      "name": "renounceOwnership",
      "outputs": [],
      "stateMutability": "nonpayable",
      "type": "function"
    },
    {
      "inputs": [],
      "name": "rewardPerToken",
      "outputs": [
        {
          "internalType": "uint256",
          "name": "",
          "type": "uint256"
        }
      ],
      "stateMutability": "view",
      "type": "function"
    },
    {
      "inputs": [],
      "name": "rewardPerTokenStored",
      "outputs": [
        {
          "internalType": "uint256",
          "name": "",
          "type": "uint256"
        }
      ],
      "stateMutability": "view",
      "type": "function"
    },
    {
      "inputs": [],
      "name": "rewardRate",
      "outputs": [
        {
          "internalType": "uint256",
          "name": "",
          "type": "uint256"
        }
      ],
      "stateMutability": "view",
      "type": "function"
    },
    {
      "inputs": [
        {
          "internalType": "address",
          "name": "",
          "type": "address"
        }
      ],
      "name": "rewards",
      "outputs": [
        {
          "internalType": "uint256",
          "name": "",
          "type": "uint256"
        }
      ],
      "stateMutability": "view",
      "type": "function"
    },
    {
      "inputs": [
        {
          "internalType": "address[]",
          "name": "to",
          "type": "address[]"
        },
        {
          "internalType": "string[]",
          "name": "payload",
          "type": "string[]"
        }
      ],
      "name": "send",
      "outputs": [],
      "stateMutability": "payable",
      "type": "function"
    },
    {
      "inputs": [
        {
          "internalType": "uint16",
          "name": "newFee",
          "type": "uint16"
        }
      ],
      "name": "setFee",
      "outputs": [],
      "stateMutability": "nonpayable",
      "type": "function"
    },
    {
      "inputs": [
        {
          "internalType": "string",
          "name": "encryptionKey",
          "type": "string"
        }
      ],
      "name": "setKey",
      "outputs": [],
      "stateMutability": "nonpayable",
      "type": "function"
    },
    {
      "inputs": [
        {
          "internalType": "uint256",
          "name": "newRewardRate",
          "type": "uint256"
        }
      ],
      "name": "setRewardRate",
      "outputs": [],
      "stateMutability": "nonpayable",
      "type": "function"
    },
    {
      "inputs": [
        {
          "internalType": "uint256",
          "name": "_amount",
          "type": "uint256"
        }
      ],
      "name": "stakeERC20",
      "outputs": [],
      "stateMutability": "payable",
      "type": "function"
    },
    {
      "inputs": [],
      "name": "totalSupply",
      "outputs": [
        {
          "internalType": "uint256",
          "name": "",
          "type": "uint256"
        }
      ],
      "stateMutability": "view",
      "type": "function"
    },
    {
      "inputs": [
        {
          "internalType": "address",
          "name": "newOwner",
          "type": "address"
        }
      ],
      "name": "transferOwnership",
      "outputs": [],
      "stateMutability": "nonpayable",
      "type": "function"
    },
    {
      "inputs": [
        {
          "internalType": "uint256",
          "name": "_amount",
          "type": "uint256"
        }
      ],
      "name": "unStakeERC20",
      "outputs": [],
      "stateMutability": "nonpayable",
      "type": "function"
    },
    {
      "inputs": [
        {
          "internalType": "address",
          "name": "",
          "type": "address"
        }
      ],
      "name": "userRewardPerTokenPaid",
      "outputs": [
        {
          "internalType": "uint256",
          "name": "",
          "type": "uint256"
        }
      ],
      "stateMutability": "view",
      "type": "function"
    }
  ],
  "bytecode": "0x60806040526103e8600660146101000a81548161ffff021916908361ffff16021790555060646007556001600e60006101000a81548160ff021916908360ff160217905550671f399b1438a100006010553480156200005d57600080fd5b506200007e620000726200031460201b60201c565b6200031c60201b60201c565b306040516200008d90620003e0565b62000099919062000433565b604051809103906000f080158015620000b6573d6000803e3d6000fd5b50600560006101000a81548173ffffffffffffffffffffffffffffffffffffffff021916908373ffffffffffffffffffffffffffffffffffffffff160217905550600560009054906101000a900473ffffffffffffffffffffffffffffffffffffffff1673ffffffffffffffffffffffffffffffffffffffff1663095ea7b330600560009054906101000a900473ffffffffffffffffffffffffffffffffffffffff1673ffffffffffffffffffffffffffffffffffffffff166318160ddd6040518163ffffffff1660e01b8152600401602060405180830381865afa158015620001a4573d6000803e3d6000fd5b505050506040513d601f19601f82011682018060405250810190620001ca919062000490565b6040518363ffffffff1660e01b8152600401620001e9929190620004d3565b6020604051808303816000875af115801562000209573d6000803e3d6000fd5b505050506040513d601f19601f820116820180604052508101906200022f91906200053d565b50600560009054906101000a900473ffffffffffffffffffffffffffffffffffffffff1673ffffffffffffffffffffffffffffffffffffffff166318160ddd6040518163ffffffff1660e01b8152600401602060405180830381865afa1580156200029e573d6000803e3d6000fd5b505050506040513d601f19601f82011682018060405250810190620002c4919062000490565b600a60003073ffffffffffffffffffffffffffffffffffffffff1673ffffffffffffffffffffffffffffffffffffffff1681526020019081526020016000208190555042600f819055506200056f565b600033905090565b60008060009054906101000a900473ffffffffffffffffffffffffffffffffffffffff169050816000806101000a81548173ffffffffffffffffffffffffffffffffffffffff021916908373ffffffffffffffffffffffffffffffffffffffff1602179055508173ffffffffffffffffffffffffffffffffffffffff168173ffffffffffffffffffffffffffffffffffffffff167f8be0079c531659141344cd1fd0a4f28419497f9722a3daafe3b4186f6b6457e060405160405180910390a35050565b611a05806200395783390190565b600073ffffffffffffffffffffffffffffffffffffffff82169050919050565b60006200041b82620003ee565b9050919050565b6200042d816200040e565b82525050565b60006020820190506200044a600083018462000422565b92915050565b600080fd5b6000819050919050565b6200046a8162000455565b81146200047657600080fd5b50565b6000815190506200048a816200045f565b92915050565b600060208284031215620004a957620004a862000450565b5b6000620004b98482850162000479565b91505092915050565b620004cd8162000455565b82525050565b6000604082019050620004ea600083018562000422565b620004f96020830184620004c2565b9392505050565b60008115159050919050565b620005178162000500565b81146200052357600080fd5b50565b60008151905062000537816200050c565b92915050565b60006020828403121562000556576200055562000450565b5b6000620005668482850162000526565b91505092915050565b6133d8806200057f6000396000f3fe60806040526004361061019c5760003560e01c80638da5cb5b116100ec578063b3328d341161008a578063cd3daf9d11610064578063cd3daf9d146105c0578063ddca3f43146105eb578063df136d6514610616578063f2fde38b146106415761019c565b8063b3328d341461053c578063c8f33c9114610579578063cc7ef509146105a45761019c565b806393790f44116100c657806393790f44146104915780639e447fc6146104ce5780639f33626e146104f7578063af42d106146105135761019c565b80638da5cb5b146104145780638e0055531461043f57806390a25a07146104685761019c565b806358503a9511610159578063715018a611610133578063715018a61461036a5780637b0a47ee146103815780638b7afe2e146103ac5780638b876347146103d75761019c565b806358503a95146102d957806369131a47146103165780636d9384f91461032d5761019c565b80630700037d146101a15780630c340a24146101de5780630f4ac71a1461020957806318160ddd1461024657806352a398d81461027157806357a0641f146102ae575b600080fd5b3480156101ad57600080fd5b506101c860048036038101906101c39190611fa9565b61066a565b6040516101d59190611fef565b60405180910390f35b3480156101ea57600080fd5b506101f3610682565b6040516102009190612069565b60405180910390f35b34801561021557600080fd5b50610230600480360381019061022b9190611fa9565b6106a8565b60405161023d9190611fef565b60405180910390f35b34801561025257600080fd5b5061025b6106c0565b6040516102689190611fef565b60405180910390f35b34801561027d57600080fd5b5061029860048036038101906102939190611fa9565b6106c6565b6040516102a59190612324565b60405180910390f35b3480156102ba57600080fd5b506102c36108a2565b6040516102d09190612367565b60405180910390f35b3480156102e557600080fd5b5061030060048036038101906102fb9190611fa9565b6108c8565b60405161030d91906123f1565b60405180910390f35b34801561032257600080fd5b5061032b610995565b005b34801561033957600080fd5b50610354600480360381019061034f9190612413565b610b17565b6040516103619190612515565b60405180910390f35b34801561037657600080fd5b5061037f610c8f565b005b34801561038d57600080fd5b50610396610d17565b6040516103a39190611fef565b60405180910390f35b3480156103b857600080fd5b506103c1610d1d565b6040516103ce9190611fef565b60405180910390f35b3480156103e357600080fd5b506103fe60048036038101906103f99190611fa9565b610d25565b60405161040b9190611fef565b60405180910390f35b34801561042057600080fd5b50610429610d3d565b6040516104369190612546565b60405180910390f35b34801561044b57600080fd5b506104666004803603810190610461919061259b565b610d66565b005b34801561047457600080fd5b5061048f600480360381019061048a91906125f4565b610e02565b005b34801561049d57600080fd5b506104b860048036038101906104b39190611fa9565b611091565b6040516104c5919061266b565b60405180910390f35b3480156104da57600080fd5b506104f560048036038101906104f091906125f4565b611162565b005b610511600480360381019061050c919061296b565b6111e8565b005b34801561051f57600080fd5b5061053a600480360381019061053591906129e3565b61149c565b005b34801561054857600080fd5b50610563600480360381019061055e9190611fa9565b6114ec565b6040516105709190611fef565b60405180910390f35b34801561058557600080fd5b5061058e6115ee565b60405161059b9190611fef565b60405180910390f35b6105be60048036038101906105b991906125f4565b6115f4565b005b3480156105cc57600080fd5b506105d56117f5565b6040516105e29190611fef565b60405180910390f35b3480156105f757600080fd5b50610600611858565b60405161060d9190612a3b565b60405180910390f35b34801561062257600080fd5b5061062b61186c565b6040516106389190611fef565b60405180910390f35b34801561064d57600080fd5b5061066860048036038101906106639190611fa9565b611872565b005b600c6020528060005260406000206000915090505481565b600660009054906101000a900473ffffffffffffffffffffffffffffffffffffffff1681565b600a6020528060005260406000206000915090505481565b600d5481565b6060600360008373ffffffffffffffffffffffffffffffffffffffff1673ffffffffffffffffffffffffffffffffffffffff168152602001908152602001600020805480602002602001604051908101604052809291908181526020016000905b828210156108975783829060005260206000209060030201604051806040016040529081600082018054806020026020016040519081016040528092919081815260200182805480156107cf57602002820191906000526020600020905b8160009054906101000a900473ffffffffffffffffffffffffffffffffffffffff1673ffffffffffffffffffffffffffffffffffffffff1681526020019060010190808311610785575b50505050508152602001600182016040518060400160405290816000820180546107f890612a85565b80601f016020809104026020016040519081016040528092919081815260200182805461082490612a85565b80156108715780601f1061084657610100808354040283529160200191610871565b820191906000526020600020905b81548152906001019060200180831161085457829003601f168201915b505050505081526020016001820154815250508152505081526020019060010190610727565b505050509050919050565b600560009054906101000a900473ffffffffffffffffffffffffffffffffffffffff1681565b6060600460008373ffffffffffffffffffffffffffffffffffffffff1673ffffffffffffffffffffffffffffffffffffffff16815260200190815260200160002080548060200260200160405190810160405280929190818152602001828054801561098957602002820191906000526020600020905b8160009054906101000a900473ffffffffffffffffffffffffffffffffffffffff1673ffffffffffffffffffffffffffffffffffffffff168152602001906001019080831161093f575b50505050509050919050565b3361099e6117f5565b600981905550426008819055506109b4816114ec565b600c60008373ffffffffffffffffffffffffffffffffffffffff1673ffffffffffffffffffffffffffffffffffffffff16815260200190815260200160002081905550600954600b60008373ffffffffffffffffffffffffffffffffffffffff1673ffffffffffffffffffffffffffffffffffffffff168152602001908152602001600020819055506000600c60003373ffffffffffffffffffffffffffffffffffffffff1673ffffffffffffffffffffffffffffffffffffffff16815260200190815260200160002054905060008111610ac4576040517f08c379a0000000000000000000000000000000000000000000000000000000008152600401610abb90612b02565b60405180910390fd5b6000600c60003373ffffffffffffffffffffffffffffffffffffffff1673ffffffffffffffffffffffffffffffffffffffff16815260200190815260200160002081905550610b133382611969565b5050565b6060600260008473ffffffffffffffffffffffffffffffffffffffff1673ffffffffffffffffffffffffffffffffffffffff16815260200190815260200160002060008373ffffffffffffffffffffffffffffffffffffffff1673ffffffffffffffffffffffffffffffffffffffff168152602001908152602001600020805480602002602001604051908101604052809291908181526020016000905b82821015610c835783829060005260206000209060020201604051806040016040529081600082018054610be890612a85565b80601f0160208091040260200160405190810160405280929190818152602001828054610c1490612a85565b8015610c615780601f10610c3657610100808354040283529160200191610c61565b820191906000526020600020905b815481529060010190602001808311610c4457829003601f168201915b5050505050815260200160018201548152505081526020019060010190610bb5565b50505050905092915050565b610c97611a1a565b73ffffffffffffffffffffffffffffffffffffffff16610cb5610d3d565b73ffffffffffffffffffffffffffffffffffffffff1614610d0b576040517f08c379a0000000000000000000000000000000000000000000000000000000008152600401610d0290612b6e565b60405180910390fd5b610d156000611a22565b565b60075481565b600047905090565b600b6020528060005260406000206000915090505481565b60008060009054906101000a900473ffffffffffffffffffffffffffffffffffffffff16905090565b610d6e611a1a565b73ffffffffffffffffffffffffffffffffffffffff16610d8c610d3d565b73ffffffffffffffffffffffffffffffffffffffff1614610de2576040517f08c379a0000000000000000000000000000000000000000000000000000000008152600401610dd990612b6e565b60405180910390fd5b80600660146101000a81548161ffff021916908361ffff16021790555050565b33610e0b6117f5565b60098190555042600881905550610e21816114ec565b600c60008373ffffffffffffffffffffffffffffffffffffffff1673ffffffffffffffffffffffffffffffffffffffff16815260200190815260200160002081905550600954600b60008373ffffffffffffffffffffffffffffffffffffffff1673ffffffffffffffffffffffffffffffffffffffff1681526020019081526020016000208190555060008203610eed576040517f08c379a0000000000000000000000000000000000000000000000000000000008152600401610ee490612bda565b60405180910390fd5b600082600a60003373ffffffffffffffffffffffffffffffffffffffff1673ffffffffffffffffffffffffffffffffffffffff16815260200190815260200160002054610f3a9190612c29565b1015610f7b576040517f08c379a0000000000000000000000000000000000000000000000000000000008152600401610f7290612ca9565b60405180910390fd5b81600d6000828254610f8d9190612c29565b9250508190555081600a60003373ffffffffffffffffffffffffffffffffffffffff1673ffffffffffffffffffffffffffffffffffffffff1681526020019081526020016000206000828254610fe39190612c29565b92505081905550600560009054906101000a900473ffffffffffffffffffffffffffffffffffffffff1673ffffffffffffffffffffffffffffffffffffffff166323b872dd3033856040518463ffffffff1660e01b815260040161104993929190612cc9565b6020604051808303816000875af1158015611068573d6000803e3d6000fd5b505050506040513d601f19601f8201168201806040525081019061108c9190612d38565b505050565b6060600160008373ffffffffffffffffffffffffffffffffffffffff1673ffffffffffffffffffffffffffffffffffffffff16815260200190815260200160002080546110dd90612a85565b80601f016020809104026020016040519081016040528092919081815260200182805461110990612a85565b80156111565780601f1061112b57610100808354040283529160200191611156565b820191906000526020600020905b81548152906001019060200180831161113957829003601f168201915b50505050509050919050565b61116a611a1a565b73ffffffffffffffffffffffffffffffffffffffff16611188610d3d565b73ffffffffffffffffffffffffffffffffffffffff16146111de576040517f08c379a00000000000000000000000000000000000000000000000000000000081526004016111d590612b6e565b60405180910390fd5b8060078190555050565b336111f16117f5565b60098190555042600881905550611207816114ec565b600c60008373ffffffffffffffffffffffffffffffffffffffff1673ffffffffffffffffffffffffffffffffffffffff16815260200190815260200160002081905550600954600b60008373ffffffffffffffffffffffffffffffffffffffff1673ffffffffffffffffffffffffffffffffffffffff1681526020019081526020016000208190555060005a9050600f54621f47d0600e60009054906101000a900460ff1660ff166112b99190612d74565b62ffffff166112c89190612db1565b42111561131c576001600e60008282829054906101000a900460ff166112ee9190612df2565b92506101000a81548160ff021916908360ff16021790555060026010546113159190612e56565b6010819055505b6113268484611ae6565b601054600a60003073ffffffffffffffffffffffffffffffffffffffff1673ffffffffffffffffffffffffffffffffffffffff16815260200190815260200160002060008282546113779190612c29565b92505081905550601054600a60003373ffffffffffffffffffffffffffffffffffffffff1673ffffffffffffffffffffffffffffffffffffffff16815260200190815260200160002060008282546113cf9190612db1565b92505081905550601054600d60008282546113ea9190612db1565b9250508190555060005a826113ff9190612c29565b9050612710600660149054906101000a900461ffff1661ffff163a61c3506152088561142b9190612db1565b6114359190612db1565b61143f9190612e87565b6114499190612e87565b6114539190612e56565b341015611495576040517f08c379a000000000000000000000000000000000000000000000000000000000815260040161148c90612f53565b60405180910390fd5b5050505050565b80600160003373ffffffffffffffffffffffffffffffffffffffff1673ffffffffffffffffffffffffffffffffffffffff16815260200190815260200160002090816114e89190613115565b5050565b6000600c60008373ffffffffffffffffffffffffffffffffffffffff1673ffffffffffffffffffffffffffffffffffffffff16815260200190815260200160002054670de0b6b3a7640000600b60008573ffffffffffffffffffffffffffffffffffffffff1673ffffffffffffffffffffffffffffffffffffffff1681526020019081526020016000205461157f6117f5565b6115899190612c29565b600a60008673ffffffffffffffffffffffffffffffffffffffff1673ffffffffffffffffffffffffffffffffffffffff168152602001908152602001600020546115d39190612e87565b6115dd9190612e56565b6115e79190612db1565b9050919050565b60085481565b336115fd6117f5565b60098190555042600881905550611613816114ec565b600c60008373ffffffffffffffffffffffffffffffffffffffff1673ffffffffffffffffffffffffffffffffffffffff16815260200190815260200160002081905550600954600b60008373ffffffffffffffffffffffffffffffffffffffff1673ffffffffffffffffffffffffffffffffffffffff16815260200190815260200160002081905550600082036116df576040517f08c379a00000000000000000000000000000000000000000000000000000000081526004016116d690612bda565b60405180910390fd5b81600d60008282546116f19190612db1565b9250508190555081600a60003373ffffffffffffffffffffffffffffffffffffffff1673ffffffffffffffffffffffffffffffffffffffff16815260200190815260200160002060008282546117479190612db1565b92505081905550600560009054906101000a900473ffffffffffffffffffffffffffffffffffffffff1673ffffffffffffffffffffffffffffffffffffffff166323b872dd3330856040518463ffffffff1660e01b81526004016117ad93929190612cc9565b6020604051808303816000875af11580156117cc573d6000803e3d6000fd5b505050506040513d601f19601f820116820180604052508101906117f09190612d38565b505050565b600080600d540361180a576009549050611855565b600d54670de0b6b3a7640000600754600854426118279190612c29565b6118319190612e87565b61183b9190612e87565b6118459190612e56565b6009546118529190612db1565b90505b90565b600660149054906101000a900461ffff1681565b60095481565b61187a611a1a565b73ffffffffffffffffffffffffffffffffffffffff16611898610d3d565b73ffffffffffffffffffffffffffffffffffffffff16146118ee576040517f08c379a00000000000000000000000000000000000000000000000000000000081526004016118e590612b6e565b60405180910390fd5b600073ffffffffffffffffffffffffffffffffffffffff168173ffffffffffffffffffffffffffffffffffffffff160361195d576040517f08c379a000000000000000000000000000000000000000000000000000000000815260040161195490613259565b60405180910390fd5b61196681611a22565b50565b60008273ffffffffffffffffffffffffffffffffffffffff168260405161198f906132aa565b60006040518083038185875af1925050503d80600081146119cc576040519150601f19603f3d011682016040523d82523d6000602084013e6119d1565b606091505b5050905080611a15576040517f08c379a0000000000000000000000000000000000000000000000000000000008152600401611a0c9061330b565b60405180910390fd5b505050565b600033905090565b60008060009054906101000a900473ffffffffffffffffffffffffffffffffffffffff169050816000806101000a81548173ffffffffffffffffffffffffffffffffffffffff021916908373ffffffffffffffffffffffffffffffffffffffff1602179055508173ffffffffffffffffffffffffffffffffffffffff168173ffffffffffffffffffffffffffffffffffffffff167f8be0079c531659141344cd1fd0a4f28419497f9722a3daafe3b4186f6b6457e060405160405180910390a35050565b60005b60018351611af79190612c29565b811015611d8357600060026000858481518110611b1757611b1661332b565b5b602002602001015173ffffffffffffffffffffffffffffffffffffffff1673ffffffffffffffffffffffffffffffffffffffff16815260200190815260200160002060003373ffffffffffffffffffffffffffffffffffffffff1673ffffffffffffffffffffffffffffffffffffffff1681526020019081526020016000208054905003611c5a5760046000848381518110611bb657611bb561332b565b5b602002602001015173ffffffffffffffffffffffffffffffffffffffff1673ffffffffffffffffffffffffffffffffffffffff168152602001908152602001600020339080600181540180825580915050600190039060005260206000200160009091909190916101000a81548173ffffffffffffffffffffffffffffffffffffffff021916908373ffffffffffffffffffffffffffffffffffffffff1602179055505b60006040518060400160405280848481518110611c7a57611c7961332b565b5b6020026020010151815260200142815250905060026000858481518110611ca457611ca361332b565b5b602002602001015173ffffffffffffffffffffffffffffffffffffffff1673ffffffffffffffffffffffffffffffffffffffff16815260200190815260200160002060003373ffffffffffffffffffffffffffffffffffffffff1673ffffffffffffffffffffffffffffffffffffffff1681526020019081526020016000208190806001815401808255809150506001900390600052602060002090600202016000909190919091506000820151816000019081611d629190613115565b50602082015181600101555050508080611d7b9061335a565b915050611ae9565b50600060405180604001604052808360018651611da09190612c29565b81518110611db157611db061332b565b5b60200260200101518152602001428152509050600360003373ffffffffffffffffffffffffffffffffffffffff1673ffffffffffffffffffffffffffffffffffffffff16815260200190815260200160002060405180604001604052808581526020018381525090806001815401808255809150506001900390600052602060002090600302016000909190919091506000820151816000019080519060200190611e5d929190611e90565b506020820151816001016000820151816000019081611e7c9190613115565b506020820151816001015550505050505050565b828054828255906000526020600020908101928215611f09579160200282015b82811115611f085782518260006101000a81548173ffffffffffffffffffffffffffffffffffffffff021916908373ffffffffffffffffffffffffffffffffffffffff16021790555091602001919060010190611eb0565b5b509050611f169190611f1a565b5090565b5b80821115611f33576000816000905550600101611f1b565b5090565b6000604051905090565b600080fd5b600080fd5b600073ffffffffffffffffffffffffffffffffffffffff82169050919050565b6000611f7682611f4b565b9050919050565b611f8681611f6b565b8114611f9157600080fd5b50565b600081359050611fa381611f7d565b92915050565b600060208284031215611fbf57611fbe611f41565b5b6000611fcd84828501611f94565b91505092915050565b6000819050919050565b611fe981611fd6565b82525050565b60006020820190506120046000830184611fe0565b92915050565b6000819050919050565b600061202f61202a61202584611f4b565b61200a565b611f4b565b9050919050565b600061204182612014565b9050919050565b600061205382612036565b9050919050565b61206381612048565b82525050565b600060208201905061207e600083018461205a565b92915050565b600081519050919050565b600082825260208201905092915050565b6000819050602082019050919050565b600081519050919050565b600082825260208201905092915050565b6000819050602082019050919050565b6120e581611f6b565b82525050565b60006120f783836120dc565b60208301905092915050565b6000602082019050919050565b600061211b826120b0565b61212581856120bb565b9350612130836120cc565b8060005b8381101561216157815161214888826120eb565b975061215383612103565b925050600181019050612134565b5085935050505092915050565b600081519050919050565b600082825260208201905092915050565b60005b838110156121a857808201518184015260208101905061218d565b60008484015250505050565b6000601f19601f8301169050919050565b60006121d08261216e565b6121da8185612179565b93506121ea81856020860161218a565b6121f3816121b4565b840191505092915050565b61220781611fd6565b82525050565b6000604083016000830151848203600086015261222a82826121c5565b915050602083015161223f60208601826121fe565b508091505092915050565b600060408301600083015184820360008601526122678282612110565b91505060208301518482036020860152612281828261220d565b9150508091505092915050565b600061229a838361224a565b905092915050565b6000602082019050919050565b60006122ba82612084565b6122c4818561208f565b9350836020820285016122d6856120a0565b8060005b8581101561231257848403895281516122f3858261228e565b94506122fe836122a2565b925060208a019950506001810190506122da565b50829750879550505050505092915050565b6000602082019050818103600083015261233e81846122af565b905092915050565b600061235182612036565b9050919050565b61236181612346565b82525050565b600060208201905061237c6000830184612358565b92915050565b600082825260208201905092915050565b600061239e826120b0565b6123a88185612382565b93506123b3836120cc565b8060005b838110156123e45781516123cb88826120eb565b97506123d683612103565b9250506001810190506123b7565b5085935050505092915050565b6000602082019050818103600083015261240b8184612393565b905092915050565b6000806040838503121561242a57612429611f41565b5b600061243885828601611f94565b925050602061244985828601611f94565b9150509250929050565b600081519050919050565b600082825260208201905092915050565b6000819050602082019050919050565b600061248b838361220d565b905092915050565b6000602082019050919050565b60006124ab82612453565b6124b5818561245e565b9350836020820285016124c78561246f565b8060005b8581101561250357848403895281516124e4858261247f565b94506124ef83612493565b925060208a019950506001810190506124cb565b50829750879550505050505092915050565b6000602082019050818103600083015261252f81846124a0565b905092915050565b61254081611f6b565b82525050565b600060208201905061255b6000830184612537565b92915050565b600061ffff82169050919050565b61257881612561565b811461258357600080fd5b50565b6000813590506125958161256f565b92915050565b6000602082840312156125b1576125b0611f41565b5b60006125bf84828501612586565b91505092915050565b6125d181611fd6565b81146125dc57600080fd5b50565b6000813590506125ee816125c8565b92915050565b60006020828403121561260a57612609611f41565b5b6000612618848285016125df565b91505092915050565b600082825260208201905092915050565b600061263d8261216e565b6126478185612621565b935061265781856020860161218a565b612660816121b4565b840191505092915050565b600060208201905081810360008301526126858184612632565b905092915050565b600080fd5b7f4e487b7100000000000000000000000000000000000000000000000000000000600052604160045260246000fd5b6126ca826121b4565b810181811067ffffffffffffffff821117156126e9576126e8612692565b5b80604052505050565b60006126fc611f37565b905061270882826126c1565b919050565b600067ffffffffffffffff82111561272857612727612692565b5b602082029050602081019050919050565b600080fd5b600061275161274c8461270d565b6126f2565b9050808382526020820190506020840283018581111561277457612773612739565b5b835b8181101561279d57806127898882611f94565b845260208401935050602081019050612776565b5050509392505050565b600082601f8301126127bc576127bb61268d565b5b81356127cc84826020860161273e565b91505092915050565b600067ffffffffffffffff8211156127f0576127ef612692565b5b602082029050602081019050919050565b600080fd5b600067ffffffffffffffff82111561282157612820612692565b5b61282a826121b4565b9050602081019050919050565b82818337600083830152505050565b600061285961285484612806565b6126f2565b90508281526020810184848401111561287557612874612801565b5b612880848285612837565b509392505050565b600082601f83011261289d5761289c61268d565b5b81356128ad848260208601612846565b91505092915050565b60006128c96128c4846127d5565b6126f2565b905080838252602082019050602084028301858111156128ec576128eb612739565b5b835b8181101561293357803567ffffffffffffffff8111156129115761291061268d565b5b80860161291e8982612888565b855260208501945050506020810190506128ee565b5050509392505050565b600082601f8301126129525761295161268d565b5b81356129628482602086016128b6565b91505092915050565b6000806040838503121561298257612981611f41565b5b600083013567ffffffffffffffff8111156129a05761299f611f46565b5b6129ac858286016127a7565b925050602083013567ffffffffffffffff8111156129cd576129cc611f46565b5b6129d98582860161293d565b9150509250929050565b6000602082840312156129f9576129f8611f41565b5b600082013567ffffffffffffffff811115612a1757612a16611f46565b5b612a2384828501612888565b91505092915050565b612a3581612561565b82525050565b6000602082019050612a506000830184612a2c565b92915050565b7f4e487b7100000000000000000000000000000000000000000000000000000000600052602260045260246000fd5b60006002820490506001821680612a9d57607f821691505b602082108103612ab057612aaf612a56565b5b50919050565b7f44656230783a20796f7572207265776172642062616c616e6365206973203000600082015250565b6000612aec601f83612621565b9150612af782612ab6565b602082019050919050565b60006020820190508181036000830152612b1b81612adf565b9050919050565b7f4f776e61626c653a2063616c6c6572206973206e6f7420746865206f776e6572600082015250565b6000612b58602083612621565b9150612b6382612b22565b602082019050919050565b60006020820190508181036000830152612b8781612b4b565b9050919050565b7f44656230783a20796f757220616d6f756e742069732030000000000000000000600082015250565b6000612bc4601783612621565b9150612bcf82612b8e565b602082019050919050565b60006020820190508181036000830152612bf381612bb7565b9050919050565b7f4e487b7100000000000000000000000000000000000000000000000000000000600052601160045260246000fd5b6000612c3482611fd6565b9150612c3f83611fd6565b9250828203905081811115612c5757612c56612bfa565b5b92915050565b7f44656230783a20696e73756666696369656e742062616c616e63650000000000600082015250565b6000612c93601b83612621565b9150612c9e82612c5d565b602082019050919050565b60006020820190508181036000830152612cc281612c86565b9050919050565b6000606082019050612cde6000830186612537565b612ceb6020830185612537565b612cf86040830184611fe0565b949350505050565b60008115159050919050565b612d1581612d00565b8114612d2057600080fd5b50565b600081519050612d3281612d0c565b92915050565b600060208284031215612d4e57612d4d611f41565b5b6000612d5c84828501612d23565b91505092915050565b600062ffffff82169050919050565b6000612d7f82612d65565b9150612d8a83612d65565b92508162ffffff0483118215151615612da657612da5612bfa565b5b828202905092915050565b6000612dbc82611fd6565b9150612dc783611fd6565b9250828201905080821115612ddf57612dde612bfa565b5b92915050565b600060ff82169050919050565b6000612dfd82612de5565b9150612e0883612de5565b9250828201905060ff811115612e2157612e20612bfa565b5b92915050565b7f4e487b7100000000000000000000000000000000000000000000000000000000600052601260045260246000fd5b6000612e6182611fd6565b9150612e6c83611fd6565b925082612e7c57612e7b612e27565b5b828204905092915050565b6000612e9282611fd6565b9150612e9d83611fd6565b9250817fffffffffffffffffffffffffffffffffffffffffffffffffffffffffffffffff0483118215151615612ed657612ed5612bfa565b5b828202905092915050565b7f44656230783a206d7573742070617920313025206f66207472616e736163746960008201527f6f6e20636f737400000000000000000000000000000000000000000000000000602082015250565b6000612f3d602783612621565b9150612f4882612ee1565b604082019050919050565b60006020820190508181036000830152612f6c81612f30565b9050919050565b60008190508160005260206000209050919050565b60006020601f8301049050919050565b600082821b905092915050565b600060088302612fd57fffffffffffffffffffffffffffffffffffffffffffffffffffffffffffffffff82612f98565b612fdf8683612f98565b95508019841693508086168417925050509392505050565b600061301261300d61300884611fd6565b61200a565b611fd6565b9050919050565b6000819050919050565b61302c83612ff7565b61304061303882613019565b848454612fa5565b825550505050565b600090565b613055613048565b613060818484613023565b505050565b5b818110156130845761307960008261304d565b600181019050613066565b5050565b601f8211156130c95761309a81612f73565b6130a384612f88565b810160208510156130b2578190505b6130c66130be85612f88565b830182613065565b50505b505050565b600082821c905092915050565b60006130ec600019846008026130ce565b1980831691505092915050565b600061310583836130db565b9150826002028217905092915050565b61311e8261216e565b67ffffffffffffffff81111561313757613136612692565b5b6131418254612a85565b61314c828285613088565b600060209050601f83116001811461317f576000841561316d578287015190505b61317785826130f9565b8655506131df565b601f19841661318d86612f73565b60005b828110156131b557848901518255600182019150602085019450602081019050613190565b868310156131d257848901516131ce601f8916826130db565b8355505b6001600288020188555050505b505050505050565b7f4f776e61626c653a206e6577206f776e657220697320746865207a65726f206160008201527f6464726573730000000000000000000000000000000000000000000000000000602082015250565b6000613243602683612621565b915061324e826131e7565b604082019050919050565b6000602082019050818103600083015261327281613236565b9050919050565b600081905092915050565b50565b6000613294600083613279565b915061329f82613284565b600082019050919050565b60006132b582613287565b9150819050919050565b7f44656230783a206661696c656420746f2073656e6420616d6f756e7400000000600082015250565b60006132f5601c83612621565b9150613300826132bf565b602082019050919050565b60006020820190508181036000830152613324816132e8565b9050919050565b7f4e487b7100000000000000000000000000000000000000000000000000000000600052603260045260246000fd5b600061336582611fd6565b91507fffffffffffffffffffffffffffffffffffffffffffffffffffffffffffffffff820361339757613396612bfa565b5b60018201905091905056fea2646970667358221220cbcbbebab6c72cffef211cb7a1629c269bfaad343a2e4903692dbdbfead8feb564736f6c6343000810003360806040523480156200001157600080fd5b5060405162001a0538038062001a058339818101604052810190620000379190620002d8565b6040518060400160405280600581526020017f44656230780000000000000000000000000000000000000000000000000000008152506040518060400160405280600381526020017f44425800000000000000000000000000000000000000000000000000000000008152508160039081620000b4919062000584565b508060049081620000c6919062000584565b505050620000e58169d3c21bcecceda1000000620000ec60201b60201c565b5062000786565b600073ffffffffffffffffffffffffffffffffffffffff168273ffffffffffffffffffffffffffffffffffffffff16036200015e576040517f08c379a00000000000000000000000000000000000000000000000000000000081526004016200015590620006cc565b60405180910390fd5b62000172600083836200026460201b60201c565b80600260008282546200018691906200071d565b92505081905550806000808473ffffffffffffffffffffffffffffffffffffffff1673ffffffffffffffffffffffffffffffffffffffff1681526020019081526020016000206000828254620001dd91906200071d565b925050819055508173ffffffffffffffffffffffffffffffffffffffff16600073ffffffffffffffffffffffffffffffffffffffff167fddf252ad1be2c89b69c2b068fc378daa952ba7f163c4a11628f55a4df523b3ef8360405162000244919062000769565b60405180910390a362000260600083836200026960201b60201c565b5050565b505050565b505050565b600080fd5b600073ffffffffffffffffffffffffffffffffffffffff82169050919050565b6000620002a08262000273565b9050919050565b620002b28162000293565b8114620002be57600080fd5b50565b600081519050620002d281620002a7565b92915050565b600060208284031215620002f157620002f06200026e565b5b60006200030184828501620002c1565b91505092915050565b600081519050919050565b7f4e487b7100000000000000000000000000000000000000000000000000000000600052604160045260246000fd5b7f4e487b7100000000000000000000000000000000000000000000000000000000600052602260045260246000fd5b600060028204905060018216806200038c57607f821691505b602082108103620003a257620003a162000344565b5b50919050565b60008190508160005260206000209050919050565b60006020601f8301049050919050565b600082821b905092915050565b6000600883026200040c7fffffffffffffffffffffffffffffffffffffffffffffffffffffffffffffffff82620003cd565b620004188683620003cd565b95508019841693508086168417925050509392505050565b6000819050919050565b6000819050919050565b6000620004656200045f620004598462000430565b6200043a565b62000430565b9050919050565b6000819050919050565b620004818362000444565b6200049962000490826200046c565b848454620003da565b825550505050565b600090565b620004b0620004a1565b620004bd81848462000476565b505050565b5b81811015620004e557620004d9600082620004a6565b600181019050620004c3565b5050565b601f8211156200053457620004fe81620003a8565b6200050984620003bd565b8101602085101562000519578190505b620005316200052885620003bd565b830182620004c2565b50505b505050565b600082821c905092915050565b6000620005596000198460080262000539565b1980831691505092915050565b600062000574838362000546565b9150826002028217905092915050565b6200058f826200030a565b67ffffffffffffffff811115620005ab57620005aa62000315565b5b620005b7825462000373565b620005c4828285620004e9565b600060209050601f831160018114620005fc5760008415620005e7578287015190505b620005f3858262000566565b86555062000663565b601f1984166200060c86620003a8565b60005b8281101562000636578489015182556001820191506020850194506020810190506200060f565b8683101562000656578489015162000652601f89168262000546565b8355505b6001600288020188555050505b505050505050565b600082825260208201905092915050565b7f45524332303a206d696e7420746f20746865207a65726f206164647265737300600082015250565b6000620006b4601f836200066b565b9150620006c1826200067c565b602082019050919050565b60006020820190508181036000830152620006e781620006a5565b9050919050565b7f4e487b7100000000000000000000000000000000000000000000000000000000600052601160045260246000fd5b60006200072a8262000430565b9150620007378362000430565b9250828201905080821115620007525762000751620006ee565b5b92915050565b620007638162000430565b82525050565b600060208201905062000780600083018462000758565b92915050565b61126f80620007966000396000f3fe608060405234801561001057600080fd5b50600436106100b45760003560e01c806370a082311161007157806370a08231146101a3578063902d55a5146101d357806395d89b41146101f1578063a457c2d71461020f578063a9059cbb1461023f578063dd62ed3e1461026f576100b4565b806306fdde03146100b9578063095ea7b3146100d757806318160ddd1461010757806323b872dd14610125578063313ce567146101555780633950935114610173575b600080fd5b6100c161029f565b6040516100ce9190610b4c565b60405180910390f35b6100f160048036038101906100ec9190610c07565b610331565b6040516100fe9190610c62565b60405180910390f35b61010f610354565b60405161011c9190610c8c565b60405180910390f35b61013f600480360381019061013a9190610ca7565b61035e565b60405161014c9190610c62565b60405180910390f35b61015d61038d565b60405161016a9190610d16565b60405180910390f35b61018d60048036038101906101889190610c07565b610396565b60405161019a9190610c62565b60405180910390f35b6101bd60048036038101906101b89190610d31565b6103cd565b6040516101ca9190610c8c565b60405180910390f35b6101db610415565b6040516101e89190610c8c565b60405180910390f35b6101f9610423565b6040516102069190610b4c565b60405180910390f35b61022960048036038101906102249190610c07565b6104b5565b6040516102369190610c62565b60405180910390f35b61025960048036038101906102549190610c07565b61052c565b6040516102669190610c62565b60405180910390f35b61028960048036038101906102849190610d5e565b61054f565b6040516102969190610c8c565b60405180910390f35b6060600380546102ae90610dcd565b80601f01602080910402602001604051908101604052809291908181526020018280546102da90610dcd565b80156103275780601f106102fc57610100808354040283529160200191610327565b820191906000526020600020905b81548152906001019060200180831161030a57829003601f168201915b5050505050905090565b60008061033c6105d6565b90506103498185856105de565b600191505092915050565b6000600254905090565b6000806103696105d6565b90506103768582856107a7565b610381858585610833565b60019150509392505050565b60006012905090565b6000806103a16105d6565b90506103c28185856103b3858961054f565b6103bd9190610e2d565b6105de565b600191505092915050565b60008060008373ffffffffffffffffffffffffffffffffffffffff1673ffffffffffffffffffffffffffffffffffffffff168152602001908152602001600020549050919050565b69d3c21bcecceda100000081565b60606004805461043290610dcd565b80601f016020809104026020016040519081016040528092919081815260200182805461045e90610dcd565b80156104ab5780601f10610480576101008083540402835291602001916104ab565b820191906000526020600020905b81548152906001019060200180831161048e57829003601f168201915b5050505050905090565b6000806104c06105d6565b905060006104ce828661054f565b905083811015610513576040517f08c379a000000000000000000000000000000000000000000000000000000000815260040161050a90610ed3565b60405180910390fd5b61052082868684036105de565b60019250505092915050565b6000806105376105d6565b9050610544818585610833565b600191505092915050565b6000600160008473ffffffffffffffffffffffffffffffffffffffff1673ffffffffffffffffffffffffffffffffffffffff16815260200190815260200160002060008373ffffffffffffffffffffffffffffffffffffffff1673ffffffffffffffffffffffffffffffffffffffff16815260200190815260200160002054905092915050565b600033905090565b600073ffffffffffffffffffffffffffffffffffffffff168373ffffffffffffffffffffffffffffffffffffffff160361064d576040517f08c379a000000000000000000000000000000000000000000000000000000000815260040161064490610f65565b60405180910390fd5b600073ffffffffffffffffffffffffffffffffffffffff168273ffffffffffffffffffffffffffffffffffffffff16036106bc576040517f08c379a00000000000000000000000000000000000000000000000000000000081526004016106b390610ff7565b60405180910390fd5b80600160008573ffffffffffffffffffffffffffffffffffffffff1673ffffffffffffffffffffffffffffffffffffffff16815260200190815260200160002060008473ffffffffffffffffffffffffffffffffffffffff1673ffffffffffffffffffffffffffffffffffffffff168152602001908152602001600020819055508173ffffffffffffffffffffffffffffffffffffffff168373ffffffffffffffffffffffffffffffffffffffff167f8c5be1e5ebec7d5bd14f71427d1e84f3dd0314c0f7b2291e5b200ac8c7c3b9258360405161079a9190610c8c565b60405180910390a3505050565b60006107b3848461054f565b90507fffffffffffffffffffffffffffffffffffffffffffffffffffffffffffffffff811461082d578181101561081f576040517f08c379a000000000000000000000000000000000000000000000000000000000815260040161081690611063565b60405180910390fd5b61082c84848484036105de565b5b50505050565b600073ffffffffffffffffffffffffffffffffffffffff168373ffffffffffffffffffffffffffffffffffffffff16036108a2576040517f08c379a0000000000000000000000000000000000000000000000000000000008152600401610899906110f5565b60405180910390fd5b600073ffffffffffffffffffffffffffffffffffffffff168273ffffffffffffffffffffffffffffffffffffffff1603610911576040517f08c379a000000000000000000000000000000000000000000000000000000000815260040161090890611187565b60405180910390fd5b61091c838383610ab2565b60008060008573ffffffffffffffffffffffffffffffffffffffff1673ffffffffffffffffffffffffffffffffffffffff168152602001908152602001600020549050818110156109a2576040517f08c379a000000000000000000000000000000000000000000000000000000000815260040161099990611219565b60405180910390fd5b8181036000808673ffffffffffffffffffffffffffffffffffffffff1673ffffffffffffffffffffffffffffffffffffffff16815260200190815260200160002081905550816000808573ffffffffffffffffffffffffffffffffffffffff1673ffffffffffffffffffffffffffffffffffffffff1681526020019081526020016000206000828254610a359190610e2d565b925050819055508273ffffffffffffffffffffffffffffffffffffffff168473ffffffffffffffffffffffffffffffffffffffff167fddf252ad1be2c89b69c2b068fc378daa952ba7f163c4a11628f55a4df523b3ef84604051610a999190610c8c565b60405180910390a3610aac848484610ab7565b50505050565b505050565b505050565b600081519050919050565b600082825260208201905092915050565b60005b83811015610af6578082015181840152602081019050610adb565b60008484015250505050565b6000601f19601f8301169050919050565b6000610b1e82610abc565b610b288185610ac7565b9350610b38818560208601610ad8565b610b4181610b02565b840191505092915050565b60006020820190508181036000830152610b668184610b13565b905092915050565b600080fd5b600073ffffffffffffffffffffffffffffffffffffffff82169050919050565b6000610b9e82610b73565b9050919050565b610bae81610b93565b8114610bb957600080fd5b50565b600081359050610bcb81610ba5565b92915050565b6000819050919050565b610be481610bd1565b8114610bef57600080fd5b50565b600081359050610c0181610bdb565b92915050565b60008060408385031215610c1e57610c1d610b6e565b5b6000610c2c85828601610bbc565b9250506020610c3d85828601610bf2565b9150509250929050565b60008115159050919050565b610c5c81610c47565b82525050565b6000602082019050610c776000830184610c53565b92915050565b610c8681610bd1565b82525050565b6000602082019050610ca16000830184610c7d565b92915050565b600080600060608486031215610cc057610cbf610b6e565b5b6000610cce86828701610bbc565b9350506020610cdf86828701610bbc565b9250506040610cf086828701610bf2565b9150509250925092565b600060ff82169050919050565b610d1081610cfa565b82525050565b6000602082019050610d2b6000830184610d07565b92915050565b600060208284031215610d4757610d46610b6e565b5b6000610d5584828501610bbc565b91505092915050565b60008060408385031215610d7557610d74610b6e565b5b6000610d8385828601610bbc565b9250506020610d9485828601610bbc565b9150509250929050565b7f4e487b7100000000000000000000000000000000000000000000000000000000600052602260045260246000fd5b60006002820490506001821680610de557607f821691505b602082108103610df857610df7610d9e565b5b50919050565b7f4e487b7100000000000000000000000000000000000000000000000000000000600052601160045260246000fd5b6000610e3882610bd1565b9150610e4383610bd1565b9250828201905080821115610e5b57610e5a610dfe565b5b92915050565b7f45524332303a2064656372656173656420616c6c6f77616e63652062656c6f7760008201527f207a65726f000000000000000000000000000000000000000000000000000000602082015250565b6000610ebd602583610ac7565b9150610ec882610e61565b604082019050919050565b60006020820190508181036000830152610eec81610eb0565b9050919050565b7f45524332303a20617070726f76652066726f6d20746865207a65726f2061646460008201527f7265737300000000000000000000000000000000000000000000000000000000602082015250565b6000610f4f602483610ac7565b9150610f5a82610ef3565b604082019050919050565b60006020820190508181036000830152610f7e81610f42565b9050919050565b7f45524332303a20617070726f766520746f20746865207a65726f20616464726560008201527f7373000000000000000000000000000000000000000000000000000000000000602082015250565b6000610fe1602283610ac7565b9150610fec82610f85565b604082019050919050565b6000602082019050818103600083015261101081610fd4565b9050919050565b7f45524332303a20696e73756666696369656e7420616c6c6f77616e6365000000600082015250565b600061104d601d83610ac7565b915061105882611017565b602082019050919050565b6000602082019050818103600083015261107c81611040565b9050919050565b7f45524332303a207472616e736665722066726f6d20746865207a65726f20616460008201527f6472657373000000000000000000000000000000000000000000000000000000602082015250565b60006110df602583610ac7565b91506110ea82611083565b604082019050919050565b6000602082019050818103600083015261110e816110d2565b9050919050565b7f45524332303a207472616e7366657220746f20746865207a65726f206164647260008201527f6573730000000000000000000000000000000000000000000000000000000000602082015250565b6000611171602383610ac7565b915061117c82611115565b604082019050919050565b600060208201905081810360008301526111a081611164565b9050919050565b7f45524332303a207472616e7366657220616d6f756e742065786365656473206260008201527f616c616e63650000000000000000000000000000000000000000000000000000602082015250565b6000611203602683610ac7565b915061120e826111a7565b604082019050919050565b60006020820190508181036000830152611232816111f6565b905091905056fea26469706673582212204e67ea8dfd76c98fc83be8a6e9fa976d20e35c6efa1c645e6577c9655f74204a64736f6c63430008100033",
  "linkReferences": {},
  "deployedLinkReferences": {}
}