{"contracts/Deb0xViews.sol":{"Deb0xViews":{"abi":[{"inputs":[{"internalType":"contract Deb0x","name":"_deb0x","type":"address"}],"stateMutability":"nonpayable","type":"constructor"},{"inputs":[],"name":"calculateCycleReward","outputs":[{"internalType":"uint256","name":"","type":"uint256"}],"stateMutability":"view","type":"function"},{"inputs":[],"name":"deb0xContractBalance","outputs":[{"internalType":"uint256","name":"","type":"uint256"}],"stateMutability":"view","type":"function"},{"inputs":[{"internalType":"address","name":"staker","type":"address"}],"name":"getAccWithdrawableStake","outputs":[{"internalType":"uint256","name":"","type":"uint256"}],"stateMutability":"view","type":"function"},{"inputs":[],"name":"getCurrentCycle","outputs":[{"internalType":"uint256","name":"","type":"uint256"}],"stateMutability":"view","type":"function"},{"inputs":[{"internalType":"address","name":"account","type":"address"}],"name":"getUnclaimedFees","outputs":[{"internalType":"uint256","name":"","type":"uint256"}],"stateMutability":"view","type":"function"},{"inputs":[{"internalType":"address","name":"account","type":"address"}],"name":"getUnclaimedRewards","outputs":[{"internalType":"uint256","name":"","type":"uint256"}],"stateMutability":"view","type":"function"}],"evm":{"bytecode":{"linkReferences":{},"object":"608060405234801561001057600080fd5b506040516200220c3803806200220c83398101604081905261003191610056565b600080546001600160a01b0319166001600160a01b0392909216919091179055610086565b60006020828403121561006857600080fd5b81516001600160a01b038116811461007f57600080fd5b9392505050565b61217680620000966000396000f3fe608060405234801561001057600080fd5b50600436106100625760003560e01c806369a69e2914610067578063be26ed7f1461008c578063bf992dea14610094578063cdd5c81f146100a7578063d6aef1c6146100ba578063e10bf06a146100c2575b600080fd5b61007a61007536600461202d565b6100d4565b60405190815260200160405180910390f35b61007a61075e565b61007a6100a236600461202d565b610864565b61007a6100b536600461202d565b611821565b61007a611fb1565b6000546001600160a01b03163161007a565b6000805460405163ed725e8360e01b815282916001600160a01b03169063ed725e839061010590869060040161205d565b602060405180830381865afa158015610122573d6000803e3d6000fd5b505050506040513d601f19601f820116820180604052508101906101469190612071565b905060008060009054906101000a90046001600160a01b03166001600160a01b031663be26ed7f6040518163ffffffff1660e01b8152600401602060405180830381865afa15801561019c573d6000803e3d6000fd5b505050506040513d601f19601f820116820180604052508101906101c09190612071565b60005460405163fa845ca960e01b81529192506001600160a01b03169063fa845ca9906101f190879060040161205d565b602060405180830381865afa15801561020e573d6000803e3d6000fd5b505050506040513d601f19601f820116820180604052508101906102329190612071565b811180156102af5750600054604051631526bda560e21b81526001600160a01b039091169063549af6949061026b90879060040161205d565b602060405180830381865afa158015610288573d6000803e3d6000fd5b505050506040513d601f19601f820116820180604052508101906102ac9190612071565b15155b15610757576000805460405163fa845ca960e01b81526001600160a01b03909116906313e6589090829063fa845ca9906102ed908a9060040161205d565b602060405180830381865afa15801561030a573d6000803e3d6000fd5b505050506040513d601f19601f8201168201806040525081019061032e9190612071565b6040518263ffffffff1660e01b815260040161034c91815260200190565b602060405180830381865afa158015610369573d6000803e3d6000fd5b505050506040513d601f19601f8201168201806040525081019061038d9190612071565b60005460405163fa845ca960e01b81526001600160a01b039091169063adc0f68690829063fa845ca9906103c5908b9060040161205d565b602060405180830381865afa1580156103e2573d6000803e3d6000fd5b505050506040513d601f19601f820116820180604052508101906104069190612071565b6040518263ffffffff1660e01b815260040161042491815260200190565b602060405180830381865afa158015610441573d6000803e3d6000fd5b505050506040513d601f19601f820116820180604052508101906104659190612071565b600054604051631526bda560e21b81526001600160a01b039091169063549af69490610495908a9060040161205d565b602060405180830381865afa1580156104b2573d6000803e3d6000fd5b505050506040513d601f19601f820116820180604052508101906104d69190612071565b6104e091906120a0565b6104ea91906120bd565b90506104f681846120df565b600054604051635730c8fd60e01b81529194506001600160a01b031690635730c8fd9061052790889060040161205d565b602060405180830381865afa158015610544573d6000803e3d6000fd5b505050506040513d601f19601f820116820180604052508101906105689190612071565b15610755576000805460405163fa845ca960e01b81526001600160a01b039091169063fa845ca99061059e90899060040161205d565b602060405180830381865afa1580156105bb573d6000803e3d6000fd5b505050506040513d601f19601f820116820180604052508101906105df9190612071565b6000805460405163013e658960e41b81526004810184905292935090916001600160a01b03909116906313e6589090602401602060405180830381865afa15801561062e573d6000803e3d6000fd5b505050506040513d601f19601f820116820180604052508101906106529190612071565b6000546040516356e07b4360e11b8152600481018590526001600160a01b039091169063adc0f68690602401602060405180830381865afa15801561069b573d6000803e3d6000fd5b505050506040513d601f19601f820116820180604052508101906106bf9190612071565b600054604051635730c8fd60e01b81526001600160a01b0390911690635730c8fd906106ef908c9060040161205d565b602060405180830381865afa15801561070c573d6000803e3d6000fd5b505050506040513d601f19601f820116820180604052508101906107309190612071565b61073a91906120a0565b61074491906120bd565b905061075081866120f2565b945050505b505b5092915050565b60008060009054906101000a90046001600160a01b03166001600160a01b0316632f7cdab06040518163ffffffff1660e01b8152600401602060405180830381865afa1580156107b2573d6000803e3d6000fd5b505050506040513d601f19601f820116820180604052508101906107d69190612071565b60008054906101000a90046001600160a01b03166001600160a01b0316638bd955636040518163ffffffff1660e01b8152600401602060405180830381865afa158015610827573d6000803e3d6000fd5b505050506040513d601f19601f8201168201806040525081019061084b9190612071565b61085590426120f2565b61085f91906120bd565b905090565b600080546040805163be26ed7f60e01b8152905183926001600160a01b03169163be26ed7f9160048083019260209291908290030181865afa1580156108ae573d6000803e3d6000fd5b505050506040513d601f19601f820116820180604052508101906108d29190612071565b60008054604051630bc7132960e41b815292935090916001600160a01b039091169063bc7132909061090890879060040161205d565b602060405180830381865afa158015610925573d6000803e3d6000fd5b505050506040513d601f19601f820116820180604052508101906109499190612071565b905060008060008054906101000a90046001600160a01b03166001600160a01b0316635f5080b46040518163ffffffff1660e01b8152600401602060405180830381865afa15801561099f573d6000803e3d6000fd5b505050506040513d601f19601f820116820180604052508101906109c39190612071565b905060008060009054906101000a90046001600160a01b03166001600160a01b031663436091c16040518163ffffffff1660e01b8152600401602060405180830381865afa158015610a19573d6000803e3d6000fd5b505050506040513d601f19601f82011682018060405250810190610a3d9190612071565b905060008054906101000a90046001600160a01b03166001600160a01b031663f1b371e26040518163ffffffff1660e01b8152600401602060405180830381865afa158015610a90573d6000803e3d6000fd5b505050506040513d601f19601f82011682018060405250810190610ab49190612071565b8514610bb45760008054906101000a90046001600160a01b03166001600160a01b031663436091c16040518163ffffffff1660e01b8152600401602060405180830381865afa158015610b0b573d6000803e3d6000fd5b505050506040513d601f19601f82011682018060405250810190610b2f9190612071565b610b3a9060016120df565b915060008054906101000a90046001600160a01b03166001600160a01b031663f1b371e26040518163ffffffff1660e01b8152600401602060405180830381865afa158015610b8d573d6000803e3d6000fd5b505050506040513d601f19601f82011682018060405250810190610bb19190612071565b90505b8085118015610c3b57506000546001600160a01b031663bebc9dfc610bda8360016120df565b6040518263ffffffff1660e01b8152600401610bf891815260200190565b602060405180830381865afa158015610c15573d6000803e3d6000fd5b505050506040513d601f19601f82011682018060405250810190610c399190612071565b155b15610e90576000805460405163c4235ae960e01b8152600481018490526001600160a01b039091169063c4235ae990602401602060405180830381865afa158015610c8a573d6000803e3d6000fd5b505050506040513d601f19601f82011682018060405250810190610cae9190612071565b60008054906101000a90046001600160a01b03166001600160a01b031663ef4cadc56040518163ffffffff1660e01b8152600401602060405180830381865afa158015610cff573d6000803e3d6000fd5b505050506040513d601f19601f82011682018060405250810190610d239190612071565b6000546040516303b3885560e21b8152600481018690526001600160a01b0390911690630ece215490602401602060405180830381865afa158015610d6c573d6000803e3d6000fd5b505050506040513d601f19601f82011682018060405250810190610d909190612071565b610d9a91906120a0565b610da491906120bd565b600054604080516317d4202d60e21b8152905192935083926001600160a01b039092169163bebc9dfc918391635f5080b4916004808201926020929091908290030181865afa158015610dfb573d6000803e3d6000fd5b505050506040513d601f19601f82011682018060405250810190610e1f9190612071565b6040518263ffffffff1660e01b8152600401610e3d91815260200190565b602060405180830381865afa158015610e5a573d6000803e3d6000fd5b505050506040513d601f19601f82011682018060405250810190610e7e9190612071565b610e8891906120df565b935050610f68565b600054604080516317d4202d60e21b815290516001600160a01b039092169163bebc9dfc918391635f5080b4916004808201926020929091908290030181865afa158015610ee2573d6000803e3d6000fd5b505050506040513d601f19601f82011682018060405250810190610f069190612071565b6040518263ffffffff1660e01b8152600401610f2491815260200190565b602060405180830381865afa158015610f41573d6000803e3d6000fd5b505050506040513d601f19601f82011682018060405250810190610f659190612071565b92505b6000610f73886100d4565b90508186118015610ffe5750610f8a8260016120df565b60005460405163a707140b60e01b81526001600160a01b039091169063a707140b90610fba908c9060040161205d565b602060405180830381865afa158015610fd7573d6000803e3d6000fd5b505050506040513d601f19601f82011682018060405250810190610ffb9190612071565b14155b1561117b5760008054906101000a90046001600160a01b03166001600160a01b031663ef4cadc56040518163ffffffff1660e01b8152600401602060405180830381865afa158015611054573d6000803e3d6000fd5b505050506040513d601f19601f820116820180604052508101906110789190612071565b60005460405163a707140b60e01b81526001600160a01b039091169063bebc9dfc90829063a707140b906110b0908e9060040161205d565b602060405180830381865afa1580156110cd573d6000803e3d6000fd5b505050506040513d601f19601f820116820180604052508101906110f19190612071565b6040518263ffffffff1660e01b815260040161110f91815260200190565b602060405180830381865afa15801561112c573d6000803e3d6000fd5b505050506040513d601f19601f820116820180604052508101906111509190612071565b61115a90866120f2565b61116490836120a0565b61116e91906120bd565b61117890866120df565b94505b600054604051633983243160e21b81526001600160a01b039091169063e60c90c4906111ab908b9060040161205d565b602060405180830381865afa1580156111c8573d6000803e3d6000fd5b505050506040513d601f19601f820116820180604052508101906111ec9190612071565b158015906112735750600054604051633983243160e21b81526001916001600160a01b03169063e60c90c490611226908c9060040161205d565b602060405180830381865afa158015611243573d6000803e3d6000fd5b505050506040513d601f19601f820116820180604052508101906112679190612071565b61127190886120f2565b115b156118155760008054906101000a90046001600160a01b03166001600160a01b031663ef4cadc56040518163ffffffff1660e01b8152600401602060405180830381865afa1580156112c9573d6000803e3d6000fd5b505050506040513d601f19601f820116820180604052508101906112ed9190612071565b600054604051633983243160e21b81526001600160a01b039091169063bebc9dfc90829063e60c90c490611325908e9060040161205d565b602060405180830381865afa158015611342573d6000803e3d6000fd5b505050506040513d601f19601f820116820180604052508101906113669190612071565b6040518263ffffffff1660e01b815260040161138491815260200190565b602060405180830381865afa1580156113a1573d6000803e3d6000fd5b505050506040513d601f19601f820116820180604052508101906113c59190612071565b6113cf90866120f2565b600054604051633983243160e21b81526001600160a01b039091169063aabbb1bd908c90839063e60c90c49061140990849060040161205d565b602060405180830381865afa158015611426573d6000803e3d6000fd5b505050506040513d601f19601f8201168201806040525081019061144a9190612071565b6040518363ffffffff1660e01b8152600401611467929190612105565b602060405180830381865afa158015611484573d6000803e3d6000fd5b505050506040513d601f19601f820116820180604052508101906114a89190612071565b6114b291906120a0565b6114bc91906120bd565b6114c690866120df565b6000546040516336e028a360e21b81529196506001600160a01b03169063db80a28c906114f7908b9060040161205d565b602060405180830381865afa158015611514573d6000803e3d6000fd5b505050506040513d601f19601f820116820180604052508101906115389190612071565b158015906115bf57506000546040516336e028a360e21b81526001916001600160a01b03169063db80a28c90611572908c9060040161205d565b602060405180830381865afa15801561158f573d6000803e3d6000fd5b505050506040513d601f19601f820116820180604052508101906115b39190612071565b6115bd90886120f2565b115b156118155760008054906101000a90046001600160a01b03166001600160a01b031663ef4cadc56040518163ffffffff1660e01b8152600401602060405180830381865afa158015611615573d6000803e3d6000fd5b505050506040513d601f19601f820116820180604052508101906116399190612071565b6000546040516336e028a360e21b81526001600160a01b039091169063bebc9dfc90829063db80a28c90611671908e9060040161205d565b602060405180830381865afa15801561168e573d6000803e3d6000fd5b505050506040513d601f19601f820116820180604052508101906116b29190612071565b6040518263ffffffff1660e01b81526004016116d091815260200190565b602060405180830381865afa1580156116ed573d6000803e3d6000fd5b505050506040513d601f19601f820116820180604052508101906117119190612071565b61171b90866120f2565b6000546040516336e028a360e21b81526001600160a01b039091169063aabbb1bd908c90839063db80a28c9061175590849060040161205d565b602060405180830381865afa158015611772573d6000803e3d6000fd5b505050506040513d601f19601f820116820180604052508101906117969190612071565b6040518363ffffffff1660e01b81526004016117b3929190612105565b602060405180830381865afa1580156117d0573d6000803e3d6000fd5b505050506040513d601f19601f820116820180604052508101906117f49190612071565b6117fe91906120a0565b61180891906120bd565b61181290866120df565b94505b50929695505050505050565b600080546040805163be26ed7f60e01b8152905183926001600160a01b03169163be26ed7f9160048083019260209291908290030181865afa15801561186b573d6000803e3d6000fd5b505050506040513d601f19601f8201168201806040525081019061188f9190612071565b60008054604051633983243160e21b815292935090916001600160a01b039091169063e60c90c4906118c590879060040161205d565b602060405180830381865afa1580156118e2573d6000803e3d6000fd5b505050506040513d601f19601f820116820180604052508101906119069190612071565b15801590611a03575060008054604051633983243160e21b81526001600160a01b039091169063e60c90c49061194090889060040161205d565b602060405180830381865afa15801561195d573d6000803e3d6000fd5b505050506040513d601f19601f820116820180604052508101906119819190612071565b60008054906101000a90046001600160a01b03166001600160a01b031663bab2f5526040518163ffffffff1660e01b8152600401602060405180830381865afa1580156119d2573d6000803e3d6000fd5b505050506040513d601f19601f820116820180604052508101906119f69190612071565b611a0091906120f2565b10155b8015611a7b5750600054604051637ba0061560e11b81526001600160a01b039091169063f7400c2a90611a3a90879060040161205d565b602060405180830381865afa158015611a57573d6000803e3d6000fd5b505050506040513d601f19601f82011682018060405250810190611a7b919061211e565b15611b6a57600054604051633983243160e21b81526001600160a01b039091169063aabbb1bd908690839063e60c90c490611aba90849060040161205d565b602060405180830381865afa158015611ad7573d6000803e3d6000fd5b505050506040513d601f19601f82011682018060405250810190611afb9190612071565b6040518363ffffffff1660e01b8152600401611b18929190612105565b602060405180830381865afa158015611b35573d6000803e3d6000fd5b505050506040513d601f19601f82011682018060405250810190611b599190612071565b611b6390826120df565b9050611f2e565b600054604051633983243160e21b81526001600160a01b039091169063e60c90c490611b9a90879060040161205d565b602060405180830381865afa158015611bb7573d6000803e3d6000fd5b505050506040513d601f19601f82011682018060405250810190611bdb9190612071565b15801590611c62575060008054604051633983243160e21b81526001600160a01b039091169063e60c90c490611c1590889060040161205d565b602060405180830381865afa158015611c32573d6000803e3d6000fd5b505050506040513d601f19601f82011682018060405250810190611c569190612071565b611c6090846120f2565b115b15611f2e57600054604051633983243160e21b81526001600160a01b039091169063aabbb1bd908690839063e60c90c490611ca190849060040161205d565b602060405180830381865afa158015611cbe573d6000803e3d6000fd5b505050506040513d601f19601f82011682018060405250810190611ce29190612071565b6040518363ffffffff1660e01b8152600401611cff929190612105565b602060405180830381865afa158015611d1c573d6000803e3d6000fd5b505050506040513d601f19601f82011682018060405250810190611d409190612071565b611d4a90826120df565b6000546040516336e028a360e21b81529192506001600160a01b03169063db80a28c90611d7b90879060040161205d565b602060405180830381865afa158015611d98573d6000803e3d6000fd5b505050506040513d601f19601f82011682018060405250810190611dbc9190612071565b15801590611e435750600080546040516336e028a360e21b81526001600160a01b039091169063db80a28c90611df690889060040161205d565b602060405180830381865afa158015611e13573d6000803e3d6000fd5b505050506040513d601f19601f82011682018060405250810190611e379190612071565b611e4190846120f2565b115b15611f2e576000546040516336e028a360e21b81526001600160a01b039091169063aabbb1bd908690839063db80a28c90611e8290849060040161205d565b602060405180830381865afa158015611e9f573d6000803e3d6000fd5b505050506040513d601f19601f82011682018060405250810190611ec39190612071565b6040518363ffffffff1660e01b8152600401611ee0929190612105565b602060405180830381865afa158015611efd573d6000803e3d6000fd5b505050506040513d601f19601f82011682018060405250810190611f219190612071565b611f2b90826120df565b90505b600054604051631ed6380f60e01b815282916001600160a01b031690631ed6380f90611f5e90889060040161205d565b602060405180830381865afa158015611f7b573d6000803e3d6000fd5b505050506040513d601f19601f82011682018060405250810190611f9f9190612071565b611fa991906120df565b949350505050565b6000805460408051632a57c76b60e21b81529051612724926001600160a01b03169163a95f1dac9160048083019260209291908290030181865afa158015611ffd573d6000803e3d6000fd5b505050506040513d601f19601f820116820180604052508101906120219190612071565b610855906127106120a0565b60006020828403121561203f57600080fd5b81356001600160a01b038116811461205657600080fd5b9392505050565b6001600160a01b0391909116815260200190565b60006020828403121561208357600080fd5b5051919050565b634e487b7160e01b600052601160045260246000fd5b80820281158282048414176120b7576120b761208a565b92915050565b6000826120da57634e487b7160e01b600052601260045260246000fd5b500490565b808201808211156120b7576120b761208a565b818103818111156120b7576120b761208a565b6001600160a01b03929092168252602082015260400190565b60006020828403121561213057600080fd5b8151801515811461205657600080fdfea26469706673582212202835841959833e9e1560a7fcf92df5b94680f6a8cbba6ed3ff1694c3fe2f7bd764736f6c63430008110033","opcodes":"PUSH1 0x80 PUSH1 0x40 MSTORE CALLVALUE DUP1 ISZERO PUSH2 0x10 JUMPI PUSH1 0x0 DUP1 REVERT JUMPDEST POP PUSH1 0x40 MLOAD PUSH3 0x220C CODESIZE SUB DUP1 PUSH3 0x220C DUP4 CODECOPY DUP2 ADD PUSH1 0x40 DUP2 SWAP1 MSTORE PUSH2 0x31 SWAP2 PUSH2 0x56 JUMP JUMPDEST PUSH1 0x0 DUP1 SLOAD PUSH1 0x1 PUSH1 0x1 PUSH1 0xA0 SHL SUB NOT AND PUSH1 0x1 PUSH1 0x1 PUSH1 0xA0 SHL SUB SWAP3 SWAP1 SWAP3 AND SWAP2 SWAP1 SWAP2 OR SWAP1 SSTORE PUSH2 0x86 JUMP JUMPDEST PUSH1 0x0 PUSH1 0x20 DUP3 DUP5 SUB SLT ISZERO PUSH2 0x68 JUMPI PUSH1 0x0 DUP1 REVERT JUMPDEST DUP2 MLOAD PUSH1 0x1 PUSH1 0x1 PUSH1 0xA0 SHL SUB DUP2 AND DUP2 EQ PUSH2 0x7F JUMPI PUSH1 0x0 DUP1 REVERT JUMPDEST SWAP4 SWAP3 POP POP POP JUMP JUMPDEST PUSH2 0x2176 DUP1 PUSH3 0x96 PUSH1 0x0 CODECOPY PUSH1 0x0 RETURN INVALID PUSH1 0x80 PUSH1 0x40 MSTORE CALLVALUE DUP1 ISZERO PUSH2 0x10 JUMPI PUSH1 0x0 DUP1 REVERT JUMPDEST POP PUSH1 0x4 CALLDATASIZE LT PUSH2 0x62 JUMPI PUSH1 0x0 CALLDATALOAD PUSH1 0xE0 SHR DUP1 PUSH4 0x69A69E29 EQ PUSH2 0x67 JUMPI DUP1 PUSH4 0xBE26ED7F EQ PUSH2 0x8C JUMPI DUP1 PUSH4 0xBF992DEA EQ PUSH2 0x94 JUMPI DUP1 PUSH4 0xCDD5C81F EQ PUSH2 0xA7 JUMPI DUP1 PUSH4 0xD6AEF1C6 EQ PUSH2 0xBA JUMPI DUP1 PUSH4 0xE10BF06A EQ PUSH2 0xC2 JUMPI JUMPDEST PUSH1 0x0 DUP1 REVERT JUMPDEST PUSH2 0x7A PUSH2 0x75 CALLDATASIZE PUSH1 0x4 PUSH2 0x202D JUMP JUMPDEST PUSH2 0xD4 JUMP JUMPDEST PUSH1 0x40 MLOAD SWAP1 DUP2 MSTORE PUSH1 0x20 ADD PUSH1 0x40 MLOAD DUP1 SWAP2 SUB SWAP1 RETURN JUMPDEST PUSH2 0x7A PUSH2 0x75E JUMP JUMPDEST PUSH2 0x7A PUSH2 0xA2 CALLDATASIZE PUSH1 0x4 PUSH2 0x202D JUMP JUMPDEST PUSH2 0x864 JUMP JUMPDEST PUSH2 0x7A PUSH2 0xB5 CALLDATASIZE PUSH1 0x4 PUSH2 0x202D JUMP JUMPDEST PUSH2 0x1821 JUMP JUMPDEST PUSH2 0x7A PUSH2 0x1FB1 JUMP JUMPDEST PUSH1 0x0 SLOAD PUSH1 0x1 PUSH1 0x1 PUSH1 0xA0 SHL SUB AND BALANCE PUSH2 0x7A JUMP JUMPDEST PUSH1 0x0 DUP1 SLOAD PUSH1 0x40 MLOAD PUSH4 0xED725E83 PUSH1 0xE0 SHL DUP2 MSTORE DUP3 SWAP2 PUSH1 0x1 PUSH1 0x1 PUSH1 0xA0 SHL SUB AND SWAP1 PUSH4 0xED725E83 SWAP1 PUSH2 0x105 SWAP1 DUP7 SWAP1 PUSH1 0x4 ADD PUSH2 0x205D JUMP JUMPDEST PUSH1 0x20 PUSH1 0x40 MLOAD DUP1 DUP4 SUB DUP2 DUP7 GAS STATICCALL ISZERO DUP1 ISZERO PUSH2 0x122 JUMPI RETURNDATASIZE PUSH1 0x0 DUP1 RETURNDATACOPY RETURNDATASIZE PUSH1 0x0 REVERT JUMPDEST POP POP POP POP PUSH1 0x40 MLOAD RETURNDATASIZE PUSH1 0x1F NOT PUSH1 0x1F DUP3 ADD AND DUP3 ADD DUP1 PUSH1 0x40 MSTORE POP DUP2 ADD SWAP1 PUSH2 0x146 SWAP2 SWAP1 PUSH2 0x2071 JUMP JUMPDEST SWAP1 POP PUSH1 0x0 DUP1 PUSH1 0x0 SWAP1 SLOAD SWAP1 PUSH2 0x100 EXP SWAP1 DIV PUSH1 0x1 PUSH1 0x1 PUSH1 0xA0 SHL SUB AND PUSH1 0x1 PUSH1 0x1 PUSH1 0xA0 SHL SUB AND PUSH4 0xBE26ED7F PUSH1 0x40 MLOAD DUP2 PUSH4 0xFFFFFFFF AND PUSH1 0xE0 SHL DUP2 MSTORE PUSH1 0x4 ADD PUSH1 0x20 PUSH1 0x40 MLOAD DUP1 DUP4 SUB DUP2 DUP7 GAS STATICCALL ISZERO DUP1 ISZERO PUSH2 0x19C JUMPI RETURNDATASIZE PUSH1 0x0 DUP1 RETURNDATACOPY RETURNDATASIZE PUSH1 0x0 REVERT JUMPDEST POP POP POP POP PUSH1 0x40 MLOAD RETURNDATASIZE PUSH1 0x1F NOT PUSH1 0x1F DUP3 ADD AND DUP3 ADD DUP1 PUSH1 0x40 MSTORE POP DUP2 ADD SWAP1 PUSH2 0x1C0 SWAP2 SWAP1 PUSH2 0x2071 JUMP JUMPDEST PUSH1 0x0 SLOAD PUSH1 0x40 MLOAD PUSH4 0xFA845CA9 PUSH1 0xE0 SHL DUP2 MSTORE SWAP2 SWAP3 POP PUSH1 0x1 PUSH1 0x1 PUSH1 0xA0 SHL SUB AND SWAP1 PUSH4 0xFA845CA9 SWAP1 PUSH2 0x1F1 SWAP1 DUP8 SWAP1 PUSH1 0x4 ADD PUSH2 0x205D JUMP JUMPDEST PUSH1 0x20 PUSH1 0x40 MLOAD DUP1 DUP4 SUB DUP2 DUP7 GAS STATICCALL ISZERO DUP1 ISZERO PUSH2 0x20E JUMPI RETURNDATASIZE PUSH1 0x0 DUP1 RETURNDATACOPY RETURNDATASIZE PUSH1 0x0 REVERT JUMPDEST POP POP POP POP PUSH1 0x40 MLOAD RETURNDATASIZE PUSH1 0x1F NOT PUSH1 0x1F DUP3 ADD AND DUP3 ADD DUP1 PUSH1 0x40 MSTORE POP DUP2 ADD SWAP1 PUSH2 0x232 SWAP2 SWAP1 PUSH2 0x2071 JUMP JUMPDEST DUP2 GT DUP1 ISZERO PUSH2 0x2AF JUMPI POP PUSH1 0x0 SLOAD PUSH1 0x40 MLOAD PUSH4 0x1526BDA5 PUSH1 0xE2 SHL DUP2 MSTORE PUSH1 0x1 PUSH1 0x1 PUSH1 0xA0 SHL SUB SWAP1 SWAP2 AND SWAP1 PUSH4 0x549AF694 SWAP1 PUSH2 0x26B SWAP1 DUP8 SWAP1 PUSH1 0x4 ADD PUSH2 0x205D JUMP JUMPDEST PUSH1 0x20 PUSH1 0x40 MLOAD DUP1 DUP4 SUB DUP2 DUP7 GAS STATICCALL ISZERO DUP1 ISZERO PUSH2 0x288 JUMPI RETURNDATASIZE PUSH1 0x0 DUP1 RETURNDATACOPY RETURNDATASIZE PUSH1 0x0 REVERT JUMPDEST POP POP POP POP PUSH1 0x40 MLOAD RETURNDATASIZE PUSH1 0x1F NOT PUSH1 0x1F DUP3 ADD AND DUP3 ADD DUP1 PUSH1 0x40 MSTORE POP DUP2 ADD SWAP1 PUSH2 0x2AC SWAP2 SWAP1 PUSH2 0x2071 JUMP JUMPDEST ISZERO ISZERO JUMPDEST ISZERO PUSH2 0x757 JUMPI PUSH1 0x0 DUP1 SLOAD PUSH1 0x40 MLOAD PUSH4 0xFA845CA9 PUSH1 0xE0 SHL DUP2 MSTORE PUSH1 0x1 PUSH1 0x1 PUSH1 0xA0 SHL SUB SWAP1 SWAP2 AND SWAP1 PUSH4 0x13E65890 SWAP1 DUP3 SWAP1 PUSH4 0xFA845CA9 SWAP1 PUSH2 0x2ED SWAP1 DUP11 SWAP1 PUSH1 0x4 ADD PUSH2 0x205D JUMP JUMPDEST PUSH1 0x20 PUSH1 0x40 MLOAD DUP1 DUP4 SUB DUP2 DUP7 GAS STATICCALL ISZERO DUP1 ISZERO PUSH2 0x30A JUMPI RETURNDATASIZE PUSH1 0x0 DUP1 RETURNDATACOPY RETURNDATASIZE PUSH1 0x0 REVERT JUMPDEST POP POP POP POP PUSH1 0x40 MLOAD RETURNDATASIZE PUSH1 0x1F NOT PUSH1 0x1F DUP3 ADD AND DUP3 ADD DUP1 PUSH1 0x40 MSTORE POP DUP2 ADD SWAP1 PUSH2 0x32E SWAP2 SWAP1 PUSH2 0x2071 JUMP JUMPDEST PUSH1 0x40 MLOAD DUP3 PUSH4 0xFFFFFFFF AND PUSH1 0xE0 SHL DUP2 MSTORE PUSH1 0x4 ADD PUSH2 0x34C SWAP2 DUP2 MSTORE PUSH1 0x20 ADD SWAP1 JUMP JUMPDEST PUSH1 0x20 PUSH1 0x40 MLOAD DUP1 DUP4 SUB DUP2 DUP7 GAS STATICCALL ISZERO DUP1 ISZERO PUSH2 0x369 JUMPI RETURNDATASIZE PUSH1 0x0 DUP1 RETURNDATACOPY RETURNDATASIZE PUSH1 0x0 REVERT JUMPDEST POP POP POP POP PUSH1 0x40 MLOAD RETURNDATASIZE PUSH1 0x1F NOT PUSH1 0x1F DUP3 ADD AND DUP3 ADD DUP1 PUSH1 0x40 MSTORE POP DUP2 ADD SWAP1 PUSH2 0x38D SWAP2 SWAP1 PUSH2 0x2071 JUMP JUMPDEST PUSH1 0x0 SLOAD PUSH1 0x40 MLOAD PUSH4 0xFA845CA9 PUSH1 0xE0 SHL DUP2 MSTORE PUSH1 0x1 PUSH1 0x1 PUSH1 0xA0 SHL SUB SWAP1 SWAP2 AND SWAP1 PUSH4 0xADC0F686 SWAP1 DUP3 SWAP1 PUSH4 0xFA845CA9 SWAP1 PUSH2 0x3C5 SWAP1 DUP12 SWAP1 PUSH1 0x4 ADD PUSH2 0x205D JUMP JUMPDEST PUSH1 0x20 PUSH1 0x40 MLOAD DUP1 DUP4 SUB DUP2 DUP7 GAS STATICCALL ISZERO DUP1 ISZERO PUSH2 0x3E2 JUMPI RETURNDATASIZE PUSH1 0x0 DUP1 RETURNDATACOPY RETURNDATASIZE PUSH1 0x0 REVERT JUMPDEST POP POP POP POP PUSH1 0x40 MLOAD RETURNDATASIZE PUSH1 0x1F NOT PUSH1 0x1F DUP3 ADD AND DUP3 ADD DUP1 PUSH1 0x40 MSTORE POP DUP2 ADD SWAP1 PUSH2 0x406 SWAP2 SWAP1 PUSH2 0x2071 JUMP JUMPDEST PUSH1 0x40 MLOAD DUP3 PUSH4 0xFFFFFFFF AND PUSH1 0xE0 SHL DUP2 MSTORE PUSH1 0x4 ADD PUSH2 0x424 SWAP2 DUP2 MSTORE PUSH1 0x20 ADD SWAP1 JUMP JUMPDEST PUSH1 0x20 PUSH1 0x40 MLOAD DUP1 DUP4 SUB DUP2 DUP7 GAS STATICCALL ISZERO DUP1 ISZERO PUSH2 0x441 JUMPI RETURNDATASIZE PUSH1 0x0 DUP1 RETURNDATACOPY RETURNDATASIZE PUSH1 0x0 REVERT JUMPDEST POP POP POP POP PUSH1 0x40 MLOAD RETURNDATASIZE PUSH1 0x1F NOT PUSH1 0x1F DUP3 ADD AND DUP3 ADD DUP1 PUSH1 0x40 MSTORE POP DUP2 ADD SWAP1 PUSH2 0x465 SWAP2 SWAP1 PUSH2 0x2071 JUMP JUMPDEST PUSH1 0x0 SLOAD PUSH1 0x40 MLOAD PUSH4 0x1526BDA5 PUSH1 0xE2 SHL DUP2 MSTORE PUSH1 0x1 PUSH1 0x1 PUSH1 0xA0 SHL SUB SWAP1 SWAP2 AND SWAP1 PUSH4 0x549AF694 SWAP1 PUSH2 0x495 SWAP1 DUP11 SWAP1 PUSH1 0x4 ADD PUSH2 0x205D JUMP JUMPDEST PUSH1 0x20 PUSH1 0x40 MLOAD DUP1 DUP4 SUB DUP2 DUP7 GAS STATICCALL ISZERO DUP1 ISZERO PUSH2 0x4B2 JUMPI RETURNDATASIZE PUSH1 0x0 DUP1 RETURNDATACOPY RETURNDATASIZE PUSH1 0x0 REVERT JUMPDEST POP POP POP POP PUSH1 0x40 MLOAD RETURNDATASIZE PUSH1 0x1F NOT PUSH1 0x1F DUP3 ADD AND DUP3 ADD DUP1 PUSH1 0x40 MSTORE POP DUP2 ADD SWAP1 PUSH2 0x4D6 SWAP2 SWAP1 PUSH2 0x2071 JUMP JUMPDEST PUSH2 0x4E0 SWAP2 SWAP1 PUSH2 0x20A0 JUMP JUMPDEST PUSH2 0x4EA SWAP2 SWAP1 PUSH2 0x20BD JUMP JUMPDEST SWAP1 POP PUSH2 0x4F6 DUP2 DUP5 PUSH2 0x20DF JUMP JUMPDEST PUSH1 0x0 SLOAD PUSH1 0x40 MLOAD PUSH4 0x5730C8FD PUSH1 0xE0 SHL DUP2 MSTORE SWAP2 SWAP5 POP PUSH1 0x1 PUSH1 0x1 PUSH1 0xA0 SHL SUB AND SWAP1 PUSH4 0x5730C8FD SWAP1 PUSH2 0x527 SWAP1 DUP9 SWAP1 PUSH1 0x4 ADD PUSH2 0x205D JUMP JUMPDEST PUSH1 0x20 PUSH1 0x40 MLOAD DUP1 DUP4 SUB DUP2 DUP7 GAS STATICCALL ISZERO DUP1 ISZERO PUSH2 0x544 JUMPI RETURNDATASIZE PUSH1 0x0 DUP1 RETURNDATACOPY RETURNDATASIZE PUSH1 0x0 REVERT JUMPDEST POP POP POP POP PUSH1 0x40 MLOAD RETURNDATASIZE PUSH1 0x1F NOT PUSH1 0x1F DUP3 ADD AND DUP3 ADD DUP1 PUSH1 0x40 MSTORE POP DUP2 ADD SWAP1 PUSH2 0x568 SWAP2 SWAP1 PUSH2 0x2071 JUMP JUMPDEST ISZERO PUSH2 0x755 JUMPI PUSH1 0x0 DUP1 SLOAD PUSH1 0x40 MLOAD PUSH4 0xFA845CA9 PUSH1 0xE0 SHL DUP2 MSTORE PUSH1 0x1 PUSH1 0x1 PUSH1 0xA0 SHL SUB SWAP1 SWAP2 AND SWAP1 PUSH4 0xFA845CA9 SWAP1 PUSH2 0x59E SWAP1 DUP10 SWAP1 PUSH1 0x4 ADD PUSH2 0x205D JUMP JUMPDEST PUSH1 0x20 PUSH1 0x40 MLOAD DUP1 DUP4 SUB DUP2 DUP7 GAS STATICCALL ISZERO DUP1 ISZERO PUSH2 0x5BB JUMPI RETURNDATASIZE PUSH1 0x0 DUP1 RETURNDATACOPY RETURNDATASIZE PUSH1 0x0 REVERT JUMPDEST POP POP POP POP PUSH1 0x40 MLOAD RETURNDATASIZE PUSH1 0x1F NOT PUSH1 0x1F DUP3 ADD AND DUP3 ADD DUP1 PUSH1 0x40 MSTORE POP DUP2 ADD SWAP1 PUSH2 0x5DF SWAP2 SWAP1 PUSH2 0x2071 JUMP JUMPDEST PUSH1 0x0 DUP1 SLOAD PUSH1 0x40 MLOAD PUSH4 0x13E6589 PUSH1 0xE4 SHL DUP2 MSTORE PUSH1 0x4 DUP2 ADD DUP5 SWAP1 MSTORE SWAP3 SWAP4 POP SWAP1 SWAP2 PUSH1 0x1 PUSH1 0x1 PUSH1 0xA0 SHL SUB SWAP1 SWAP2 AND SWAP1 PUSH4 0x13E65890 SWAP1 PUSH1 0x24 ADD PUSH1 0x20 PUSH1 0x40 MLOAD DUP1 DUP4 SUB DUP2 DUP7 GAS STATICCALL ISZERO DUP1 ISZERO PUSH2 0x62E JUMPI RETURNDATASIZE PUSH1 0x0 DUP1 RETURNDATACOPY RETURNDATASIZE PUSH1 0x0 REVERT JUMPDEST POP POP POP POP PUSH1 0x40 MLOAD RETURNDATASIZE PUSH1 0x1F NOT PUSH1 0x1F DUP3 ADD AND DUP3 ADD DUP1 PUSH1 0x40 MSTORE POP DUP2 ADD SWAP1 PUSH2 0x652 SWAP2 SWAP1 PUSH2 0x2071 JUMP JUMPDEST PUSH1 0x0 SLOAD PUSH1 0x40 MLOAD PUSH4 0x56E07B43 PUSH1 0xE1 SHL DUP2 MSTORE PUSH1 0x4 DUP2 ADD DUP6 SWAP1 MSTORE PUSH1 0x1 PUSH1 0x1 PUSH1 0xA0 SHL SUB SWAP1 SWAP2 AND SWAP1 PUSH4 0xADC0F686 SWAP1 PUSH1 0x24 ADD PUSH1 0x20 PUSH1 0x40 MLOAD DUP1 DUP4 SUB DUP2 DUP7 GAS STATICCALL ISZERO DUP1 ISZERO PUSH2 0x69B JUMPI RETURNDATASIZE PUSH1 0x0 DUP1 RETURNDATACOPY RETURNDATASIZE PUSH1 0x0 REVERT JUMPDEST POP POP POP POP PUSH1 0x40 MLOAD RETURNDATASIZE PUSH1 0x1F NOT PUSH1 0x1F DUP3 ADD AND DUP3 ADD DUP1 PUSH1 0x40 MSTORE POP DUP2 ADD SWAP1 PUSH2 0x6BF SWAP2 SWAP1 PUSH2 0x2071 JUMP JUMPDEST PUSH1 0x0 SLOAD PUSH1 0x40 MLOAD PUSH4 0x5730C8FD PUSH1 0xE0 SHL DUP2 MSTORE PUSH1 0x1 PUSH1 0x1 PUSH1 0xA0 SHL SUB SWAP1 SWAP2 AND SWAP1 PUSH4 0x5730C8FD SWAP1 PUSH2 0x6EF SWAP1 DUP13 SWAP1 PUSH1 0x4 ADD PUSH2 0x205D JUMP JUMPDEST PUSH1 0x20 PUSH1 0x40 MLOAD DUP1 DUP4 SUB DUP2 DUP7 GAS STATICCALL ISZERO DUP1 ISZERO PUSH2 0x70C JUMPI RETURNDATASIZE PUSH1 0x0 DUP1 RETURNDATACOPY RETURNDATASIZE PUSH1 0x0 REVERT JUMPDEST POP POP POP POP PUSH1 0x40 MLOAD RETURNDATASIZE PUSH1 0x1F NOT PUSH1 0x1F DUP3 ADD AND DUP3 ADD DUP1 PUSH1 0x40 MSTORE POP DUP2 ADD SWAP1 PUSH2 0x730 SWAP2 SWAP1 PUSH2 0x2071 JUMP JUMPDEST PUSH2 0x73A SWAP2 SWAP1 PUSH2 0x20A0 JUMP JUMPDEST PUSH2 0x744 SWAP2 SWAP1 PUSH2 0x20BD JUMP JUMPDEST SWAP1 POP PUSH2 0x750 DUP2 DUP7 PUSH2 0x20F2 JUMP JUMPDEST SWAP5 POP POP POP JUMPDEST POP JUMPDEST POP SWAP3 SWAP2 POP POP JUMP JUMPDEST PUSH1 0x0 DUP1 PUSH1 0x0 SWAP1 SLOAD SWAP1 PUSH2 0x100 EXP SWAP1 DIV PUSH1 0x1 PUSH1 0x1 PUSH1 0xA0 SHL SUB AND PUSH1 0x1 PUSH1 0x1 PUSH1 0xA0 SHL SUB AND PUSH4 0x2F7CDAB0 PUSH1 0x40 MLOAD DUP2 PUSH4 0xFFFFFFFF AND PUSH1 0xE0 SHL DUP2 MSTORE PUSH1 0x4 ADD PUSH1 0x20 PUSH1 0x40 MLOAD DUP1 DUP4 SUB DUP2 DUP7 GAS STATICCALL ISZERO DUP1 ISZERO PUSH2 0x7B2 JUMPI RETURNDATASIZE PUSH1 0x0 DUP1 RETURNDATACOPY RETURNDATASIZE PUSH1 0x0 REVERT JUMPDEST POP POP POP POP PUSH1 0x40 MLOAD RETURNDATASIZE PUSH1 0x1F NOT PUSH1 0x1F DUP3 ADD AND DUP3 ADD DUP1 PUSH1 0x40 MSTORE POP DUP2 ADD SWAP1 PUSH2 0x7D6 SWAP2 SWAP1 PUSH2 0x2071 JUMP JUMPDEST PUSH1 0x0 DUP1 SLOAD SWAP1 PUSH2 0x100 EXP SWAP1 DIV PUSH1 0x1 PUSH1 0x1 PUSH1 0xA0 SHL SUB AND PUSH1 0x1 PUSH1 0x1 PUSH1 0xA0 SHL SUB AND PUSH4 0x8BD95563 PUSH1 0x40 MLOAD DUP2 PUSH4 0xFFFFFFFF AND PUSH1 0xE0 SHL DUP2 MSTORE PUSH1 0x4 ADD PUSH1 0x20 PUSH1 0x40 MLOAD DUP1 DUP4 SUB DUP2 DUP7 GAS STATICCALL ISZERO DUP1 ISZERO PUSH2 0x827 JUMPI RETURNDATASIZE PUSH1 0x0 DUP1 RETURNDATACOPY RETURNDATASIZE PUSH1 0x0 REVERT JUMPDEST POP POP POP POP PUSH1 0x40 MLOAD RETURNDATASIZE PUSH1 0x1F NOT PUSH1 0x1F DUP3 ADD AND DUP3 ADD DUP1 PUSH1 0x40 MSTORE POP DUP2 ADD SWAP1 PUSH2 0x84B SWAP2 SWAP1 PUSH2 0x2071 JUMP JUMPDEST PUSH2 0x855 SWAP1 TIMESTAMP PUSH2 0x20F2 JUMP JUMPDEST PUSH2 0x85F SWAP2 SWAP1 PUSH2 0x20BD JUMP JUMPDEST SWAP1 POP SWAP1 JUMP JUMPDEST PUSH1 0x0 DUP1 SLOAD PUSH1 0x40 DUP1 MLOAD PUSH4 0xBE26ED7F PUSH1 0xE0 SHL DUP2 MSTORE SWAP1 MLOAD DUP4 SWAP3 PUSH1 0x1 PUSH1 0x1 PUSH1 0xA0 SHL SUB AND SWAP2 PUSH4 0xBE26ED7F SWAP2 PUSH1 0x4 DUP1 DUP4 ADD SWAP3 PUSH1 0x20 SWAP3 SWAP2 SWAP1 DUP3 SWAP1 SUB ADD DUP2 DUP7 GAS STATICCALL ISZERO DUP1 ISZERO PUSH2 0x8AE JUMPI RETURNDATASIZE PUSH1 0x0 DUP1 RETURNDATACOPY RETURNDATASIZE PUSH1 0x0 REVERT JUMPDEST POP POP POP POP PUSH1 0x40 MLOAD RETURNDATASIZE PUSH1 0x1F NOT PUSH1 0x1F DUP3 ADD AND DUP3 ADD DUP1 PUSH1 0x40 MSTORE POP DUP2 ADD SWAP1 PUSH2 0x8D2 SWAP2 SWAP1 PUSH2 0x2071 JUMP JUMPDEST PUSH1 0x0 DUP1 SLOAD PUSH1 0x40 MLOAD PUSH4 0xBC71329 PUSH1 0xE4 SHL DUP2 MSTORE SWAP3 SWAP4 POP SWAP1 SWAP2 PUSH1 0x1 PUSH1 0x1 PUSH1 0xA0 SHL SUB SWAP1 SWAP2 AND SWAP1 PUSH4 0xBC713290 SWAP1 PUSH2 0x908 SWAP1 DUP8 SWAP1 PUSH1 0x4 ADD PUSH2 0x205D JUMP JUMPDEST PUSH1 0x20 PUSH1 0x40 MLOAD DUP1 DUP4 SUB DUP2 DUP7 GAS STATICCALL ISZERO DUP1 ISZERO PUSH2 0x925 JUMPI RETURNDATASIZE PUSH1 0x0 DUP1 RETURNDATACOPY RETURNDATASIZE PUSH1 0x0 REVERT JUMPDEST POP POP POP POP PUSH1 0x40 MLOAD RETURNDATASIZE PUSH1 0x1F NOT PUSH1 0x1F DUP3 ADD AND DUP3 ADD DUP1 PUSH1 0x40 MSTORE POP DUP2 ADD SWAP1 PUSH2 0x949 SWAP2 SWAP1 PUSH2 0x2071 JUMP JUMPDEST SWAP1 POP PUSH1 0x0 DUP1 PUSH1 0x0 DUP1 SLOAD SWAP1 PUSH2 0x100 EXP SWAP1 DIV PUSH1 0x1 PUSH1 0x1 PUSH1 0xA0 SHL SUB AND PUSH1 0x1 PUSH1 0x1 PUSH1 0xA0 SHL SUB AND PUSH4 0x5F5080B4 PUSH1 0x40 MLOAD DUP2 PUSH4 0xFFFFFFFF AND PUSH1 0xE0 SHL DUP2 MSTORE PUSH1 0x4 ADD PUSH1 0x20 PUSH1 0x40 MLOAD DUP1 DUP4 SUB DUP2 DUP7 GAS STATICCALL ISZERO DUP1 ISZERO PUSH2 0x99F JUMPI RETURNDATASIZE PUSH1 0x0 DUP1 RETURNDATACOPY RETURNDATASIZE PUSH1 0x0 REVERT JUMPDEST POP POP POP POP PUSH1 0x40 MLOAD RETURNDATASIZE PUSH1 0x1F NOT PUSH1 0x1F DUP3 ADD AND DUP3 ADD DUP1 PUSH1 0x40 MSTORE POP DUP2 ADD SWAP1 PUSH2 0x9C3 SWAP2 SWAP1 PUSH2 0x2071 JUMP JUMPDEST SWAP1 POP PUSH1 0x0 DUP1 PUSH1 0x0 SWAP1 SLOAD SWAP1 PUSH2 0x100 EXP SWAP1 DIV PUSH1 0x1 PUSH1 0x1 PUSH1 0xA0 SHL SUB AND PUSH1 0x1 PUSH1 0x1 PUSH1 0xA0 SHL SUB AND PUSH4 0x436091C1 PUSH1 0x40 MLOAD DUP2 PUSH4 0xFFFFFFFF AND PUSH1 0xE0 SHL DUP2 MSTORE PUSH1 0x4 ADD PUSH1 0x20 PUSH1 0x40 MLOAD DUP1 DUP4 SUB DUP2 DUP7 GAS STATICCALL ISZERO DUP1 ISZERO PUSH2 0xA19 JUMPI RETURNDATASIZE PUSH1 0x0 DUP1 RETURNDATACOPY RETURNDATASIZE PUSH1 0x0 REVERT JUMPDEST POP POP POP POP PUSH1 0x40 MLOAD RETURNDATASIZE PUSH1 0x1F NOT PUSH1 0x1F DUP3 ADD AND DUP3 ADD DUP1 PUSH1 0x40 MSTORE POP DUP2 ADD SWAP1 PUSH2 0xA3D SWAP2 SWAP1 PUSH2 0x2071 JUMP JUMPDEST SWAP1 POP PUSH1 0x0 DUP1 SLOAD SWAP1 PUSH2 0x100 EXP SWAP1 DIV PUSH1 0x1 PUSH1 0x1 PUSH1 0xA0 SHL SUB AND PUSH1 0x1 PUSH1 0x1 PUSH1 0xA0 SHL SUB AND PUSH4 0xF1B371E2 PUSH1 0x40 MLOAD DUP2 PUSH4 0xFFFFFFFF AND PUSH1 0xE0 SHL DUP2 MSTORE PUSH1 0x4 ADD PUSH1 0x20 PUSH1 0x40 MLOAD DUP1 DUP4 SUB DUP2 DUP7 GAS STATICCALL ISZERO DUP1 ISZERO PUSH2 0xA90 JUMPI RETURNDATASIZE PUSH1 0x0 DUP1 RETURNDATACOPY RETURNDATASIZE PUSH1 0x0 REVERT JUMPDEST POP POP POP POP PUSH1 0x40 MLOAD RETURNDATASIZE PUSH1 0x1F NOT PUSH1 0x1F DUP3 ADD AND DUP3 ADD DUP1 PUSH1 0x40 MSTORE POP DUP2 ADD SWAP1 PUSH2 0xAB4 SWAP2 SWAP1 PUSH2 0x2071 JUMP JUMPDEST DUP6 EQ PUSH2 0xBB4 JUMPI PUSH1 0x0 DUP1 SLOAD SWAP1 PUSH2 0x100 EXP SWAP1 DIV PUSH1 0x1 PUSH1 0x1 PUSH1 0xA0 SHL SUB AND PUSH1 0x1 PUSH1 0x1 PUSH1 0xA0 SHL SUB AND PUSH4 0x436091C1 PUSH1 0x40 MLOAD DUP2 PUSH4 0xFFFFFFFF AND PUSH1 0xE0 SHL DUP2 MSTORE PUSH1 0x4 ADD PUSH1 0x20 PUSH1 0x40 MLOAD DUP1 DUP4 SUB DUP2 DUP7 GAS STATICCALL ISZERO DUP1 ISZERO PUSH2 0xB0B JUMPI RETURNDATASIZE PUSH1 0x0 DUP1 RETURNDATACOPY RETURNDATASIZE PUSH1 0x0 REVERT JUMPDEST POP POP POP POP PUSH1 0x40 MLOAD RETURNDATASIZE PUSH1 0x1F NOT PUSH1 0x1F DUP3 ADD AND DUP3 ADD DUP1 PUSH1 0x40 MSTORE POP DUP2 ADD SWAP1 PUSH2 0xB2F SWAP2 SWAP1 PUSH2 0x2071 JUMP JUMPDEST PUSH2 0xB3A SWAP1 PUSH1 0x1 PUSH2 0x20DF JUMP JUMPDEST SWAP2 POP PUSH1 0x0 DUP1 SLOAD SWAP1 PUSH2 0x100 EXP SWAP1 DIV PUSH1 0x1 PUSH1 0x1 PUSH1 0xA0 SHL SUB AND PUSH1 0x1 PUSH1 0x1 PUSH1 0xA0 SHL SUB AND PUSH4 0xF1B371E2 PUSH1 0x40 MLOAD DUP2 PUSH4 0xFFFFFFFF AND PUSH1 0xE0 SHL DUP2 MSTORE PUSH1 0x4 ADD PUSH1 0x20 PUSH1 0x40 MLOAD DUP1 DUP4 SUB DUP2 DUP7 GAS STATICCALL ISZERO DUP1 ISZERO PUSH2 0xB8D JUMPI RETURNDATASIZE PUSH1 0x0 DUP1 RETURNDATACOPY RETURNDATASIZE PUSH1 0x0 REVERT JUMPDEST POP POP POP POP PUSH1 0x40 MLOAD RETURNDATASIZE PUSH1 0x1F NOT PUSH1 0x1F DUP3 ADD AND DUP3 ADD DUP1 PUSH1 0x40 MSTORE POP DUP2 ADD SWAP1 PUSH2 0xBB1 SWAP2 SWAP1 PUSH2 0x2071 JUMP JUMPDEST SWAP1 POP JUMPDEST DUP1 DUP6 GT DUP1 ISZERO PUSH2 0xC3B JUMPI POP PUSH1 0x0 SLOAD PUSH1 0x1 PUSH1 0x1 PUSH1 0xA0 SHL SUB AND PUSH4 0xBEBC9DFC PUSH2 0xBDA DUP4 PUSH1 0x1 PUSH2 0x20DF JUMP JUMPDEST PUSH1 0x40 MLOAD DUP3 PUSH4 0xFFFFFFFF AND PUSH1 0xE0 SHL DUP2 MSTORE PUSH1 0x4 ADD PUSH2 0xBF8 SWAP2 DUP2 MSTORE PUSH1 0x20 ADD SWAP1 JUMP JUMPDEST PUSH1 0x20 PUSH1 0x40 MLOAD DUP1 DUP4 SUB DUP2 DUP7 GAS STATICCALL ISZERO DUP1 ISZERO PUSH2 0xC15 JUMPI RETURNDATASIZE PUSH1 0x0 DUP1 RETURNDATACOPY RETURNDATASIZE PUSH1 0x0 REVERT JUMPDEST POP POP POP POP PUSH1 0x40 MLOAD RETURNDATASIZE PUSH1 0x1F NOT PUSH1 0x1F DUP3 ADD AND DUP3 ADD DUP1 PUSH1 0x40 MSTORE POP DUP2 ADD SWAP1 PUSH2 0xC39 SWAP2 SWAP1 PUSH2 0x2071 JUMP JUMPDEST ISZERO JUMPDEST ISZERO PUSH2 0xE90 JUMPI PUSH1 0x0 DUP1 SLOAD PUSH1 0x40 MLOAD PUSH4 0xC4235AE9 PUSH1 0xE0 SHL DUP2 MSTORE PUSH1 0x4 DUP2 ADD DUP5 SWAP1 MSTORE PUSH1 0x1 PUSH1 0x1 PUSH1 0xA0 SHL SUB SWAP1 SWAP2 AND SWAP1 PUSH4 0xC4235AE9 SWAP1 PUSH1 0x24 ADD PUSH1 0x20 PUSH1 0x40 MLOAD DUP1 DUP4 SUB DUP2 DUP7 GAS STATICCALL ISZERO DUP1 ISZERO PUSH2 0xC8A JUMPI RETURNDATASIZE PUSH1 0x0 DUP1 RETURNDATACOPY RETURNDATASIZE PUSH1 0x0 REVERT JUMPDEST POP POP POP POP PUSH1 0x40 MLOAD RETURNDATASIZE PUSH1 0x1F NOT PUSH1 0x1F DUP3 ADD AND DUP3 ADD DUP1 PUSH1 0x40 MSTORE POP DUP2 ADD SWAP1 PUSH2 0xCAE SWAP2 SWAP1 PUSH2 0x2071 JUMP JUMPDEST PUSH1 0x0 DUP1 SLOAD SWAP1 PUSH2 0x100 EXP SWAP1 DIV PUSH1 0x1 PUSH1 0x1 PUSH1 0xA0 SHL SUB AND PUSH1 0x1 PUSH1 0x1 PUSH1 0xA0 SHL SUB AND PUSH4 0xEF4CADC5 PUSH1 0x40 MLOAD DUP2 PUSH4 0xFFFFFFFF AND PUSH1 0xE0 SHL DUP2 MSTORE PUSH1 0x4 ADD PUSH1 0x20 PUSH1 0x40 MLOAD DUP1 DUP4 SUB DUP2 DUP7 GAS STATICCALL ISZERO DUP1 ISZERO PUSH2 0xCFF JUMPI RETURNDATASIZE PUSH1 0x0 DUP1 RETURNDATACOPY RETURNDATASIZE PUSH1 0x0 REVERT JUMPDEST POP POP POP POP PUSH1 0x40 MLOAD RETURNDATASIZE PUSH1 0x1F NOT PUSH1 0x1F DUP3 ADD AND DUP3 ADD DUP1 PUSH1 0x40 MSTORE POP DUP2 ADD SWAP1 PUSH2 0xD23 SWAP2 SWAP1 PUSH2 0x2071 JUMP JUMPDEST PUSH1 0x0 SLOAD PUSH1 0x40 MLOAD PUSH4 0x3B38855 PUSH1 0xE2 SHL DUP2 MSTORE PUSH1 0x4 DUP2 ADD DUP7 SWAP1 MSTORE PUSH1 0x1 PUSH1 0x1 PUSH1 0xA0 SHL SUB SWAP1 SWAP2 AND SWAP1 PUSH4 0xECE2154 SWAP1 PUSH1 0x24 ADD PUSH1 0x20 PUSH1 0x40 MLOAD DUP1 DUP4 SUB DUP2 DUP7 GAS STATICCALL ISZERO DUP1 ISZERO PUSH2 0xD6C JUMPI RETURNDATASIZE PUSH1 0x0 DUP1 RETURNDATACOPY RETURNDATASIZE PUSH1 0x0 REVERT JUMPDEST POP POP POP POP PUSH1 0x40 MLOAD RETURNDATASIZE PUSH1 0x1F NOT PUSH1 0x1F DUP3 ADD AND DUP3 ADD DUP1 PUSH1 0x40 MSTORE POP DUP2 ADD SWAP1 PUSH2 0xD90 SWAP2 SWAP1 PUSH2 0x2071 JUMP JUMPDEST PUSH2 0xD9A SWAP2 SWAP1 PUSH2 0x20A0 JUMP JUMPDEST PUSH2 0xDA4 SWAP2 SWAP1 PUSH2 0x20BD JUMP JUMPDEST PUSH1 0x0 SLOAD PUSH1 0x40 DUP1 MLOAD PUSH4 0x17D4202D PUSH1 0xE2 SHL DUP2 MSTORE SWAP1 MLOAD SWAP3 SWAP4 POP DUP4 SWAP3 PUSH1 0x1 PUSH1 0x1 PUSH1 0xA0 SHL SUB SWAP1 SWAP3 AND SWAP2 PUSH4 0xBEBC9DFC SWAP2 DUP4 SWAP2 PUSH4 0x5F5080B4 SWAP2 PUSH1 0x4 DUP1 DUP3 ADD SWAP3 PUSH1 0x20 SWAP3 SWAP1 SWAP2 SWAP1 DUP3 SWAP1 SUB ADD DUP2 DUP7 GAS STATICCALL ISZERO DUP1 ISZERO PUSH2 0xDFB JUMPI RETURNDATASIZE PUSH1 0x0 DUP1 RETURNDATACOPY RETURNDATASIZE PUSH1 0x0 REVERT JUMPDEST POP POP POP POP PUSH1 0x40 MLOAD RETURNDATASIZE PUSH1 0x1F NOT PUSH1 0x1F DUP3 ADD AND DUP3 ADD DUP1 PUSH1 0x40 MSTORE POP DUP2 ADD SWAP1 PUSH2 0xE1F SWAP2 SWAP1 PUSH2 0x2071 JUMP JUMPDEST PUSH1 0x40 MLOAD DUP3 PUSH4 0xFFFFFFFF AND PUSH1 0xE0 SHL DUP2 MSTORE PUSH1 0x4 ADD PUSH2 0xE3D SWAP2 DUP2 MSTORE PUSH1 0x20 ADD SWAP1 JUMP JUMPDEST PUSH1 0x20 PUSH1 0x40 MLOAD DUP1 DUP4 SUB DUP2 DUP7 GAS STATICCALL ISZERO DUP1 ISZERO PUSH2 0xE5A JUMPI RETURNDATASIZE PUSH1 0x0 DUP1 RETURNDATACOPY RETURNDATASIZE PUSH1 0x0 REVERT JUMPDEST POP POP POP POP PUSH1 0x40 MLOAD RETURNDATASIZE PUSH1 0x1F NOT PUSH1 0x1F DUP3 ADD AND DUP3 ADD DUP1 PUSH1 0x40 MSTORE POP DUP2 ADD SWAP1 PUSH2 0xE7E SWAP2 SWAP1 PUSH2 0x2071 JUMP JUMPDEST PUSH2 0xE88 SWAP2 SWAP1 PUSH2 0x20DF JUMP JUMPDEST SWAP4 POP POP PUSH2 0xF68 JUMP JUMPDEST PUSH1 0x0 SLOAD PUSH1 0x40 DUP1 MLOAD PUSH4 0x17D4202D PUSH1 0xE2 SHL DUP2 MSTORE SWAP1 MLOAD PUSH1 0x1 PUSH1 0x1 PUSH1 0xA0 SHL SUB SWAP1 SWAP3 AND SWAP2 PUSH4 0xBEBC9DFC SWAP2 DUP4 SWAP2 PUSH4 0x5F5080B4 SWAP2 PUSH1 0x4 DUP1 DUP3 ADD SWAP3 PUSH1 0x20 SWAP3 SWAP1 SWAP2 SWAP1 DUP3 SWAP1 SUB ADD DUP2 DUP7 GAS STATICCALL ISZERO DUP1 ISZERO PUSH2 0xEE2 JUMPI RETURNDATASIZE PUSH1 0x0 DUP1 RETURNDATACOPY RETURNDATASIZE PUSH1 0x0 REVERT JUMPDEST POP POP POP POP PUSH1 0x40 MLOAD RETURNDATASIZE PUSH1 0x1F NOT PUSH1 0x1F DUP3 ADD AND DUP3 ADD DUP1 PUSH1 0x40 MSTORE POP DUP2 ADD SWAP1 PUSH2 0xF06 SWAP2 SWAP1 PUSH2 0x2071 JUMP JUMPDEST PUSH1 0x40 MLOAD DUP3 PUSH4 0xFFFFFFFF AND PUSH1 0xE0 SHL DUP2 MSTORE PUSH1 0x4 ADD PUSH2 0xF24 SWAP2 DUP2 MSTORE PUSH1 0x20 ADD SWAP1 JUMP JUMPDEST PUSH1 0x20 PUSH1 0x40 MLOAD DUP1 DUP4 SUB DUP2 DUP7 GAS STATICCALL ISZERO DUP1 ISZERO PUSH2 0xF41 JUMPI RETURNDATASIZE PUSH1 0x0 DUP1 RETURNDATACOPY RETURNDATASIZE PUSH1 0x0 REVERT JUMPDEST POP POP POP POP PUSH1 0x40 MLOAD RETURNDATASIZE PUSH1 0x1F NOT PUSH1 0x1F DUP3 ADD AND DUP3 ADD DUP1 PUSH1 0x40 MSTORE POP DUP2 ADD SWAP1 PUSH2 0xF65 SWAP2 SWAP1 PUSH2 0x2071 JUMP JUMPDEST SWAP3 POP JUMPDEST PUSH1 0x0 PUSH2 0xF73 DUP9 PUSH2 0xD4 JUMP JUMPDEST SWAP1 POP DUP2 DUP7 GT DUP1 ISZERO PUSH2 0xFFE JUMPI POP PUSH2 0xF8A DUP3 PUSH1 0x1 PUSH2 0x20DF JUMP JUMPDEST PUSH1 0x0 SLOAD PUSH1 0x40 MLOAD PUSH4 0xA707140B PUSH1 0xE0 SHL DUP2 MSTORE PUSH1 0x1 PUSH1 0x1 PUSH1 0xA0 SHL SUB SWAP1 SWAP2 AND SWAP1 PUSH4 0xA707140B SWAP1 PUSH2 0xFBA SWAP1 DUP13 SWAP1 PUSH1 0x4 ADD PUSH2 0x205D JUMP JUMPDEST PUSH1 0x20 PUSH1 0x40 MLOAD DUP1 DUP4 SUB DUP2 DUP7 GAS STATICCALL ISZERO DUP1 ISZERO PUSH2 0xFD7 JUMPI RETURNDATASIZE PUSH1 0x0 DUP1 RETURNDATACOPY RETURNDATASIZE PUSH1 0x0 REVERT JUMPDEST POP POP POP POP PUSH1 0x40 MLOAD RETURNDATASIZE PUSH1 0x1F NOT PUSH1 0x1F DUP3 ADD AND DUP3 ADD DUP1 PUSH1 0x40 MSTORE POP DUP2 ADD SWAP1 PUSH2 0xFFB SWAP2 SWAP1 PUSH2 0x2071 JUMP JUMPDEST EQ ISZERO JUMPDEST ISZERO PUSH2 0x117B JUMPI PUSH1 0x0 DUP1 SLOAD SWAP1 PUSH2 0x100 EXP SWAP1 DIV PUSH1 0x1 PUSH1 0x1 PUSH1 0xA0 SHL SUB AND PUSH1 0x1 PUSH1 0x1 PUSH1 0xA0 SHL SUB AND PUSH4 0xEF4CADC5 PUSH1 0x40 MLOAD DUP2 PUSH4 0xFFFFFFFF AND PUSH1 0xE0 SHL DUP2 MSTORE PUSH1 0x4 ADD PUSH1 0x20 PUSH1 0x40 MLOAD DUP1 DUP4 SUB DUP2 DUP7 GAS STATICCALL ISZERO DUP1 ISZERO PUSH2 0x1054 JUMPI RETURNDATASIZE PUSH1 0x0 DUP1 RETURNDATACOPY RETURNDATASIZE PUSH1 0x0 REVERT JUMPDEST POP POP POP POP PUSH1 0x40 MLOAD RETURNDATASIZE PUSH1 0x1F NOT PUSH1 0x1F DUP3 ADD AND DUP3 ADD DUP1 PUSH1 0x40 MSTORE POP DUP2 ADD SWAP1 PUSH2 0x1078 SWAP2 SWAP1 PUSH2 0x2071 JUMP JUMPDEST PUSH1 0x0 SLOAD PUSH1 0x40 MLOAD PUSH4 0xA707140B PUSH1 0xE0 SHL DUP2 MSTORE PUSH1 0x1 PUSH1 0x1 PUSH1 0xA0 SHL SUB SWAP1 SWAP2 AND SWAP1 PUSH4 0xBEBC9DFC SWAP1 DUP3 SWAP1 PUSH4 0xA707140B SWAP1 PUSH2 0x10B0 SWAP1 DUP15 SWAP1 PUSH1 0x4 ADD PUSH2 0x205D JUMP JUMPDEST PUSH1 0x20 PUSH1 0x40 MLOAD DUP1 DUP4 SUB DUP2 DUP7 GAS STATICCALL ISZERO DUP1 ISZERO PUSH2 0x10CD JUMPI RETURNDATASIZE PUSH1 0x0 DUP1 RETURNDATACOPY RETURNDATASIZE PUSH1 0x0 REVERT JUMPDEST POP POP POP POP PUSH1 0x40 MLOAD RETURNDATASIZE PUSH1 0x1F NOT PUSH1 0x1F DUP3 ADD AND DUP3 ADD DUP1 PUSH1 0x40 MSTORE POP DUP2 ADD SWAP1 PUSH2 0x10F1 SWAP2 SWAP1 PUSH2 0x2071 JUMP JUMPDEST PUSH1 0x40 MLOAD DUP3 PUSH4 0xFFFFFFFF AND PUSH1 0xE0 SHL DUP2 MSTORE PUSH1 0x4 ADD PUSH2 0x110F SWAP2 DUP2 MSTORE PUSH1 0x20 ADD SWAP1 JUMP JUMPDEST PUSH1 0x20 PUSH1 0x40 MLOAD DUP1 DUP4 SUB DUP2 DUP7 GAS STATICCALL ISZERO DUP1 ISZERO PUSH2 0x112C JUMPI RETURNDATASIZE PUSH1 0x0 DUP1 RETURNDATACOPY RETURNDATASIZE PUSH1 0x0 REVERT JUMPDEST POP POP POP POP PUSH1 0x40 MLOAD RETURNDATASIZE PUSH1 0x1F NOT PUSH1 0x1F DUP3 ADD AND DUP3 ADD DUP1 PUSH1 0x40 MSTORE POP DUP2 ADD SWAP1 PUSH2 0x1150 SWAP2 SWAP1 PUSH2 0x2071 JUMP JUMPDEST PUSH2 0x115A SWAP1 DUP7 PUSH2 0x20F2 JUMP JUMPDEST PUSH2 0x1164 SWAP1 DUP4 PUSH2 0x20A0 JUMP JUMPDEST PUSH2 0x116E SWAP2 SWAP1 PUSH2 0x20BD JUMP JUMPDEST PUSH2 0x1178 SWAP1 DUP7 PUSH2 0x20DF JUMP JUMPDEST SWAP5 POP JUMPDEST PUSH1 0x0 SLOAD PUSH1 0x40 MLOAD PUSH4 0x39832431 PUSH1 0xE2 SHL DUP2 MSTORE PUSH1 0x1 PUSH1 0x1 PUSH1 0xA0 SHL SUB SWAP1 SWAP2 AND SWAP1 PUSH4 0xE60C90C4 SWAP1 PUSH2 0x11AB SWAP1 DUP12 SWAP1 PUSH1 0x4 ADD PUSH2 0x205D JUMP JUMPDEST PUSH1 0x20 PUSH1 0x40 MLOAD DUP1 DUP4 SUB DUP2 DUP7 GAS STATICCALL ISZERO DUP1 ISZERO PUSH2 0x11C8 JUMPI RETURNDATASIZE PUSH1 0x0 DUP1 RETURNDATACOPY RETURNDATASIZE PUSH1 0x0 REVERT JUMPDEST POP POP POP POP PUSH1 0x40 MLOAD RETURNDATASIZE PUSH1 0x1F NOT PUSH1 0x1F DUP3 ADD AND DUP3 ADD DUP1 PUSH1 0x40 MSTORE POP DUP2 ADD SWAP1 PUSH2 0x11EC SWAP2 SWAP1 PUSH2 0x2071 JUMP JUMPDEST ISZERO DUP1 ISZERO SWAP1 PUSH2 0x1273 JUMPI POP PUSH1 0x0 SLOAD PUSH1 0x40 MLOAD PUSH4 0x39832431 PUSH1 0xE2 SHL DUP2 MSTORE PUSH1 0x1 SWAP2 PUSH1 0x1 PUSH1 0x1 PUSH1 0xA0 SHL SUB AND SWAP1 PUSH4 0xE60C90C4 SWAP1 PUSH2 0x1226 SWAP1 DUP13 SWAP1 PUSH1 0x4 ADD PUSH2 0x205D JUMP JUMPDEST PUSH1 0x20 PUSH1 0x40 MLOAD DUP1 DUP4 SUB DUP2 DUP7 GAS STATICCALL ISZERO DUP1 ISZERO PUSH2 0x1243 JUMPI RETURNDATASIZE PUSH1 0x0 DUP1 RETURNDATACOPY RETURNDATASIZE PUSH1 0x0 REVERT JUMPDEST POP POP POP POP PUSH1 0x40 MLOAD RETURNDATASIZE PUSH1 0x1F NOT PUSH1 0x1F DUP3 ADD AND DUP3 ADD DUP1 PUSH1 0x40 MSTORE POP DUP2 ADD SWAP1 PUSH2 0x1267 SWAP2 SWAP1 PUSH2 0x2071 JUMP JUMPDEST PUSH2 0x1271 SWAP1 DUP9 PUSH2 0x20F2 JUMP JUMPDEST GT JUMPDEST ISZERO PUSH2 0x1815 JUMPI PUSH1 0x0 DUP1 SLOAD SWAP1 PUSH2 0x100 EXP SWAP1 DIV PUSH1 0x1 PUSH1 0x1 PUSH1 0xA0 SHL SUB AND PUSH1 0x1 PUSH1 0x1 PUSH1 0xA0 SHL SUB AND PUSH4 0xEF4CADC5 PUSH1 0x40 MLOAD DUP2 PUSH4 0xFFFFFFFF AND PUSH1 0xE0 SHL DUP2 MSTORE PUSH1 0x4 ADD PUSH1 0x20 PUSH1 0x40 MLOAD DUP1 DUP4 SUB DUP2 DUP7 GAS STATICCALL ISZERO DUP1 ISZERO PUSH2 0x12C9 JUMPI RETURNDATASIZE PUSH1 0x0 DUP1 RETURNDATACOPY RETURNDATASIZE PUSH1 0x0 REVERT JUMPDEST POP POP POP POP PUSH1 0x40 MLOAD RETURNDATASIZE PUSH1 0x1F NOT PUSH1 0x1F DUP3 ADD AND DUP3 ADD DUP1 PUSH1 0x40 MSTORE POP DUP2 ADD SWAP1 PUSH2 0x12ED SWAP2 SWAP1 PUSH2 0x2071 JUMP JUMPDEST PUSH1 0x0 SLOAD PUSH1 0x40 MLOAD PUSH4 0x39832431 PUSH1 0xE2 SHL DUP2 MSTORE PUSH1 0x1 PUSH1 0x1 PUSH1 0xA0 SHL SUB SWAP1 SWAP2 AND SWAP1 PUSH4 0xBEBC9DFC SWAP1 DUP3 SWAP1 PUSH4 0xE60C90C4 SWAP1 PUSH2 0x1325 SWAP1 DUP15 SWAP1 PUSH1 0x4 ADD PUSH2 0x205D JUMP JUMPDEST PUSH1 0x20 PUSH1 0x40 MLOAD DUP1 DUP4 SUB DUP2 DUP7 GAS STATICCALL ISZERO DUP1 ISZERO PUSH2 0x1342 JUMPI RETURNDATASIZE PUSH1 0x0 DUP1 RETURNDATACOPY RETURNDATASIZE PUSH1 0x0 REVERT JUMPDEST POP POP POP POP PUSH1 0x40 MLOAD RETURNDATASIZE PUSH1 0x1F NOT PUSH1 0x1F DUP3 ADD AND DUP3 ADD DUP1 PUSH1 0x40 MSTORE POP DUP2 ADD SWAP1 PUSH2 0x1366 SWAP2 SWAP1 PUSH2 0x2071 JUMP JUMPDEST PUSH1 0x40 MLOAD DUP3 PUSH4 0xFFFFFFFF AND PUSH1 0xE0 SHL DUP2 MSTORE PUSH1 0x4 ADD PUSH2 0x1384 SWAP2 DUP2 MSTORE PUSH1 0x20 ADD SWAP1 JUMP JUMPDEST PUSH1 0x20 PUSH1 0x40 MLOAD DUP1 DUP4 SUB DUP2 DUP7 GAS STATICCALL ISZERO DUP1 ISZERO PUSH2 0x13A1 JUMPI RETURNDATASIZE PUSH1 0x0 DUP1 RETURNDATACOPY RETURNDATASIZE PUSH1 0x0 REVERT JUMPDEST POP POP POP POP PUSH1 0x40 MLOAD RETURNDATASIZE PUSH1 0x1F NOT PUSH1 0x1F DUP3 ADD AND DUP3 ADD DUP1 PUSH1 0x40 MSTORE POP DUP2 ADD SWAP1 PUSH2 0x13C5 SWAP2 SWAP1 PUSH2 0x2071 JUMP JUMPDEST PUSH2 0x13CF SWAP1 DUP7 PUSH2 0x20F2 JUMP JUMPDEST PUSH1 0x0 SLOAD PUSH1 0x40 MLOAD PUSH4 0x39832431 PUSH1 0xE2 SHL DUP2 MSTORE PUSH1 0x1 PUSH1 0x1 PUSH1 0xA0 SHL SUB SWAP1 SWAP2 AND SWAP1 PUSH4 0xAABBB1BD SWAP1 DUP13 SWAP1 DUP4 SWAP1 PUSH4 0xE60C90C4 SWAP1 PUSH2 0x1409 SWAP1 DUP5 SWAP1 PUSH1 0x4 ADD PUSH2 0x205D JUMP JUMPDEST PUSH1 0x20 PUSH1 0x40 MLOAD DUP1 DUP4 SUB DUP2 DUP7 GAS STATICCALL ISZERO DUP1 ISZERO PUSH2 0x1426 JUMPI RETURNDATASIZE PUSH1 0x0 DUP1 RETURNDATACOPY RETURNDATASIZE PUSH1 0x0 REVERT JUMPDEST POP POP POP POP PUSH1 0x40 MLOAD RETURNDATASIZE PUSH1 0x1F NOT PUSH1 0x1F DUP3 ADD AND DUP3 ADD DUP1 PUSH1 0x40 MSTORE POP DUP2 ADD SWAP1 PUSH2 0x144A SWAP2 SWAP1 PUSH2 0x2071 JUMP JUMPDEST PUSH1 0x40 MLOAD DUP4 PUSH4 0xFFFFFFFF AND PUSH1 0xE0 SHL DUP2 MSTORE PUSH1 0x4 ADD PUSH2 0x1467 SWAP3 SWAP2 SWAP1 PUSH2 0x2105 JUMP JUMPDEST PUSH1 0x20 PUSH1 0x40 MLOAD DUP1 DUP4 SUB DUP2 DUP7 GAS STATICCALL ISZERO DUP1 ISZERO PUSH2 0x1484 JUMPI RETURNDATASIZE PUSH1 0x0 DUP1 RETURNDATACOPY RETURNDATASIZE PUSH1 0x0 REVERT JUMPDEST POP POP POP POP PUSH1 0x40 MLOAD RETURNDATASIZE PUSH1 0x1F NOT PUSH1 0x1F DUP3 ADD AND DUP3 ADD DUP1 PUSH1 0x40 MSTORE POP DUP2 ADD SWAP1 PUSH2 0x14A8 SWAP2 SWAP1 PUSH2 0x2071 JUMP JUMPDEST PUSH2 0x14B2 SWAP2 SWAP1 PUSH2 0x20A0 JUMP JUMPDEST PUSH2 0x14BC SWAP2 SWAP1 PUSH2 0x20BD JUMP JUMPDEST PUSH2 0x14C6 SWAP1 DUP7 PUSH2 0x20DF JUMP JUMPDEST PUSH1 0x0 SLOAD PUSH1 0x40 MLOAD PUSH4 0x36E028A3 PUSH1 0xE2 SHL DUP2 MSTORE SWAP2 SWAP7 POP PUSH1 0x1 PUSH1 0x1 PUSH1 0xA0 SHL SUB AND SWAP1 PUSH4 0xDB80A28C SWAP1 PUSH2 0x14F7 SWAP1 DUP12 SWAP1 PUSH1 0x4 ADD PUSH2 0x205D JUMP JUMPDEST PUSH1 0x20 PUSH1 0x40 MLOAD DUP1 DUP4 SUB DUP2 DUP7 GAS STATICCALL ISZERO DUP1 ISZERO PUSH2 0x1514 JUMPI RETURNDATASIZE PUSH1 0x0 DUP1 RETURNDATACOPY RETURNDATASIZE PUSH1 0x0 REVERT JUMPDEST POP POP POP POP PUSH1 0x40 MLOAD RETURNDATASIZE PUSH1 0x1F NOT PUSH1 0x1F DUP3 ADD AND DUP3 ADD DUP1 PUSH1 0x40 MSTORE POP DUP2 ADD SWAP1 PUSH2 0x1538 SWAP2 SWAP1 PUSH2 0x2071 JUMP JUMPDEST ISZERO DUP1 ISZERO SWAP1 PUSH2 0x15BF JUMPI POP PUSH1 0x0 SLOAD PUSH1 0x40 MLOAD PUSH4 0x36E028A3 PUSH1 0xE2 SHL DUP2 MSTORE PUSH1 0x1 SWAP2 PUSH1 0x1 PUSH1 0x1 PUSH1 0xA0 SHL SUB AND SWAP1 PUSH4 0xDB80A28C SWAP1 PUSH2 0x1572 SWAP1 DUP13 SWAP1 PUSH1 0x4 ADD PUSH2 0x205D JUMP JUMPDEST PUSH1 0x20 PUSH1 0x40 MLOAD DUP1 DUP4 SUB DUP2 DUP7 GAS STATICCALL ISZERO DUP1 ISZERO PUSH2 0x158F JUMPI RETURNDATASIZE PUSH1 0x0 DUP1 RETURNDATACOPY RETURNDATASIZE PUSH1 0x0 REVERT JUMPDEST POP POP POP POP PUSH1 0x40 MLOAD RETURNDATASIZE PUSH1 0x1F NOT PUSH1 0x1F DUP3 ADD AND DUP3 ADD DUP1 PUSH1 0x40 MSTORE POP DUP2 ADD SWAP1 PUSH2 0x15B3 SWAP2 SWAP1 PUSH2 0x2071 JUMP JUMPDEST PUSH2 0x15BD SWAP1 DUP9 PUSH2 0x20F2 JUMP JUMPDEST GT JUMPDEST ISZERO PUSH2 0x1815 JUMPI PUSH1 0x0 DUP1 SLOAD SWAP1 PUSH2 0x100 EXP SWAP1 DIV PUSH1 0x1 PUSH1 0x1 PUSH1 0xA0 SHL SUB AND PUSH1 0x1 PUSH1 0x1 PUSH1 0xA0 SHL SUB AND PUSH4 0xEF4CADC5 PUSH1 0x40 MLOAD DUP2 PUSH4 0xFFFFFFFF AND PUSH1 0xE0 SHL DUP2 MSTORE PUSH1 0x4 ADD PUSH1 0x20 PUSH1 0x40 MLOAD DUP1 DUP4 SUB DUP2 DUP7 GAS STATICCALL ISZERO DUP1 ISZERO PUSH2 0x1615 JUMPI RETURNDATASIZE PUSH1 0x0 DUP1 RETURNDATACOPY RETURNDATASIZE PUSH1 0x0 REVERT JUMPDEST POP POP POP POP PUSH1 0x40 MLOAD RETURNDATASIZE PUSH1 0x1F NOT PUSH1 0x1F DUP3 ADD AND DUP3 ADD DUP1 PUSH1 0x40 MSTORE POP DUP2 ADD SWAP1 PUSH2 0x1639 SWAP2 SWAP1 PUSH2 0x2071 JUMP JUMPDEST PUSH1 0x0 SLOAD PUSH1 0x40 MLOAD PUSH4 0x36E028A3 PUSH1 0xE2 SHL DUP2 MSTORE PUSH1 0x1 PUSH1 0x1 PUSH1 0xA0 SHL SUB SWAP1 SWAP2 AND SWAP1 PUSH4 0xBEBC9DFC SWAP1 DUP3 SWAP1 PUSH4 0xDB80A28C SWAP1 PUSH2 0x1671 SWAP1 DUP15 SWAP1 PUSH1 0x4 ADD PUSH2 0x205D JUMP JUMPDEST PUSH1 0x20 PUSH1 0x40 MLOAD DUP1 DUP4 SUB DUP2 DUP7 GAS STATICCALL ISZERO DUP1 ISZERO PUSH2 0x168E JUMPI RETURNDATASIZE PUSH1 0x0 DUP1 RETURNDATACOPY RETURNDATASIZE PUSH1 0x0 REVERT JUMPDEST POP POP POP POP PUSH1 0x40 MLOAD RETURNDATASIZE PUSH1 0x1F NOT PUSH1 0x1F DUP3 ADD AND DUP3 ADD DUP1 PUSH1 0x40 MSTORE POP DUP2 ADD SWAP1 PUSH2 0x16B2 SWAP2 SWAP1 PUSH2 0x2071 JUMP JUMPDEST PUSH1 0x40 MLOAD DUP3 PUSH4 0xFFFFFFFF AND PUSH1 0xE0 SHL DUP2 MSTORE PUSH1 0x4 ADD PUSH2 0x16D0 SWAP2 DUP2 MSTORE PUSH1 0x20 ADD SWAP1 JUMP JUMPDEST PUSH1 0x20 PUSH1 0x40 MLOAD DUP1 DUP4 SUB DUP2 DUP7 GAS STATICCALL ISZERO DUP1 ISZERO PUSH2 0x16ED JUMPI RETURNDATASIZE PUSH1 0x0 DUP1 RETURNDATACOPY RETURNDATASIZE PUSH1 0x0 REVERT JUMPDEST POP POP POP POP PUSH1 0x40 MLOAD RETURNDATASIZE PUSH1 0x1F NOT PUSH1 0x1F DUP3 ADD AND DUP3 ADD DUP1 PUSH1 0x40 MSTORE POP DUP2 ADD SWAP1 PUSH2 0x1711 SWAP2 SWAP1 PUSH2 0x2071 JUMP JUMPDEST PUSH2 0x171B SWAP1 DUP7 PUSH2 0x20F2 JUMP JUMPDEST PUSH1 0x0 SLOAD PUSH1 0x40 MLOAD PUSH4 0x36E028A3 PUSH1 0xE2 SHL DUP2 MSTORE PUSH1 0x1 PUSH1 0x1 PUSH1 0xA0 SHL SUB SWAP1 SWAP2 AND SWAP1 PUSH4 0xAABBB1BD SWAP1 DUP13 SWAP1 DUP4 SWAP1 PUSH4 0xDB80A28C SWAP1 PUSH2 0x1755 SWAP1 DUP5 SWAP1 PUSH1 0x4 ADD PUSH2 0x205D JUMP JUMPDEST PUSH1 0x20 PUSH1 0x40 MLOAD DUP1 DUP4 SUB DUP2 DUP7 GAS STATICCALL ISZERO DUP1 ISZERO PUSH2 0x1772 JUMPI RETURNDATASIZE PUSH1 0x0 DUP1 RETURNDATACOPY RETURNDATASIZE PUSH1 0x0 REVERT JUMPDEST POP POP POP POP PUSH1 0x40 MLOAD RETURNDATASIZE PUSH1 0x1F NOT PUSH1 0x1F DUP3 ADD AND DUP3 ADD DUP1 PUSH1 0x40 MSTORE POP DUP2 ADD SWAP1 PUSH2 0x1796 SWAP2 SWAP1 PUSH2 0x2071 JUMP JUMPDEST PUSH1 0x40 MLOAD DUP4 PUSH4 0xFFFFFFFF AND PUSH1 0xE0 SHL DUP2 MSTORE PUSH1 0x4 ADD PUSH2 0x17B3 SWAP3 SWAP2 SWAP1 PUSH2 0x2105 JUMP JUMPDEST PUSH1 0x20 PUSH1 0x40 MLOAD DUP1 DUP4 SUB DUP2 DUP7 GAS STATICCALL ISZERO DUP1 ISZERO PUSH2 0x17D0 JUMPI RETURNDATASIZE PUSH1 0x0 DUP1 RETURNDATACOPY RETURNDATASIZE PUSH1 0x0 REVERT JUMPDEST POP POP POP POP PUSH1 0x40 MLOAD RETURNDATASIZE PUSH1 0x1F NOT PUSH1 0x1F DUP3 ADD AND DUP3 ADD DUP1 PUSH1 0x40 MSTORE POP DUP2 ADD SWAP1 PUSH2 0x17F4 SWAP2 SWAP1 PUSH2 0x2071 JUMP JUMPDEST PUSH2 0x17FE SWAP2 SWAP1 PUSH2 0x20A0 JUMP JUMPDEST PUSH2 0x1808 SWAP2 SWAP1 PUSH2 0x20BD JUMP JUMPDEST PUSH2 0x1812 SWAP1 DUP7 PUSH2 0x20DF JUMP JUMPDEST SWAP5 POP JUMPDEST POP SWAP3 SWAP7 SWAP6 POP POP POP POP POP POP JUMP JUMPDEST PUSH1 0x0 DUP1 SLOAD PUSH1 0x40 DUP1 MLOAD PUSH4 0xBE26ED7F PUSH1 0xE0 SHL DUP2 MSTORE SWAP1 MLOAD DUP4 SWAP3 PUSH1 0x1 PUSH1 0x1 PUSH1 0xA0 SHL SUB AND SWAP2 PUSH4 0xBE26ED7F SWAP2 PUSH1 0x4 DUP1 DUP4 ADD SWAP3 PUSH1 0x20 SWAP3 SWAP2 SWAP1 DUP3 SWAP1 SUB ADD DUP2 DUP7 GAS STATICCALL ISZERO DUP1 ISZERO PUSH2 0x186B JUMPI RETURNDATASIZE PUSH1 0x0 DUP1 RETURNDATACOPY RETURNDATASIZE PUSH1 0x0 REVERT JUMPDEST POP POP POP POP PUSH1 0x40 MLOAD RETURNDATASIZE PUSH1 0x1F NOT PUSH1 0x1F DUP3 ADD AND DUP3 ADD DUP1 PUSH1 0x40 MSTORE POP DUP2 ADD SWAP1 PUSH2 0x188F SWAP2 SWAP1 PUSH2 0x2071 JUMP JUMPDEST PUSH1 0x0 DUP1 SLOAD PUSH1 0x40 MLOAD PUSH4 0x39832431 PUSH1 0xE2 SHL DUP2 MSTORE SWAP3 SWAP4 POP SWAP1 SWAP2 PUSH1 0x1 PUSH1 0x1 PUSH1 0xA0 SHL SUB SWAP1 SWAP2 AND SWAP1 PUSH4 0xE60C90C4 SWAP1 PUSH2 0x18C5 SWAP1 DUP8 SWAP1 PUSH1 0x4 ADD PUSH2 0x205D JUMP JUMPDEST PUSH1 0x20 PUSH1 0x40 MLOAD DUP1 DUP4 SUB DUP2 DUP7 GAS STATICCALL ISZERO DUP1 ISZERO PUSH2 0x18E2 JUMPI RETURNDATASIZE PUSH1 0x0 DUP1 RETURNDATACOPY RETURNDATASIZE PUSH1 0x0 REVERT JUMPDEST POP POP POP POP PUSH1 0x40 MLOAD RETURNDATASIZE PUSH1 0x1F NOT PUSH1 0x1F DUP3 ADD AND DUP3 ADD DUP1 PUSH1 0x40 MSTORE POP DUP2 ADD SWAP1 PUSH2 0x1906 SWAP2 SWAP1 PUSH2 0x2071 JUMP JUMPDEST ISZERO DUP1 ISZERO SWAP1 PUSH2 0x1A03 JUMPI POP PUSH1 0x0 DUP1 SLOAD PUSH1 0x40 MLOAD PUSH4 0x39832431 PUSH1 0xE2 SHL DUP2 MSTORE PUSH1 0x1 PUSH1 0x1 PUSH1 0xA0 SHL SUB SWAP1 SWAP2 AND SWAP1 PUSH4 0xE60C90C4 SWAP1 PUSH2 0x1940 SWAP1 DUP9 SWAP1 PUSH1 0x4 ADD PUSH2 0x205D JUMP JUMPDEST PUSH1 0x20 PUSH1 0x40 MLOAD DUP1 DUP4 SUB DUP2 DUP7 GAS STATICCALL ISZERO DUP1 ISZERO PUSH2 0x195D JUMPI RETURNDATASIZE PUSH1 0x0 DUP1 RETURNDATACOPY RETURNDATASIZE PUSH1 0x0 REVERT JUMPDEST POP POP POP POP PUSH1 0x40 MLOAD RETURNDATASIZE PUSH1 0x1F NOT PUSH1 0x1F DUP3 ADD AND DUP3 ADD DUP1 PUSH1 0x40 MSTORE POP DUP2 ADD SWAP1 PUSH2 0x1981 SWAP2 SWAP1 PUSH2 0x2071 JUMP JUMPDEST PUSH1 0x0 DUP1 SLOAD SWAP1 PUSH2 0x100 EXP SWAP1 DIV PUSH1 0x1 PUSH1 0x1 PUSH1 0xA0 SHL SUB AND PUSH1 0x1 PUSH1 0x1 PUSH1 0xA0 SHL SUB AND PUSH4 0xBAB2F552 PUSH1 0x40 MLOAD DUP2 PUSH4 0xFFFFFFFF AND PUSH1 0xE0 SHL DUP2 MSTORE PUSH1 0x4 ADD PUSH1 0x20 PUSH1 0x40 MLOAD DUP1 DUP4 SUB DUP2 DUP7 GAS STATICCALL ISZERO DUP1 ISZERO PUSH2 0x19D2 JUMPI RETURNDATASIZE PUSH1 0x0 DUP1 RETURNDATACOPY RETURNDATASIZE PUSH1 0x0 REVERT JUMPDEST POP POP POP POP PUSH1 0x40 MLOAD RETURNDATASIZE PUSH1 0x1F NOT PUSH1 0x1F DUP3 ADD AND DUP3 ADD DUP1 PUSH1 0x40 MSTORE POP DUP2 ADD SWAP1 PUSH2 0x19F6 SWAP2 SWAP1 PUSH2 0x2071 JUMP JUMPDEST PUSH2 0x1A00 SWAP2 SWAP1 PUSH2 0x20F2 JUMP JUMPDEST LT ISZERO JUMPDEST DUP1 ISZERO PUSH2 0x1A7B JUMPI POP PUSH1 0x0 SLOAD PUSH1 0x40 MLOAD PUSH4 0x7BA00615 PUSH1 0xE1 SHL DUP2 MSTORE PUSH1 0x1 PUSH1 0x1 PUSH1 0xA0 SHL SUB SWAP1 SWAP2 AND SWAP1 PUSH4 0xF7400C2A SWAP1 PUSH2 0x1A3A SWAP1 DUP8 SWAP1 PUSH1 0x4 ADD PUSH2 0x205D JUMP JUMPDEST PUSH1 0x20 PUSH1 0x40 MLOAD DUP1 DUP4 SUB DUP2 DUP7 GAS STATICCALL ISZERO DUP1 ISZERO PUSH2 0x1A57 JUMPI RETURNDATASIZE PUSH1 0x0 DUP1 RETURNDATACOPY RETURNDATASIZE PUSH1 0x0 REVERT JUMPDEST POP POP POP POP PUSH1 0x40 MLOAD RETURNDATASIZE PUSH1 0x1F NOT PUSH1 0x1F DUP3 ADD AND DUP3 ADD DUP1 PUSH1 0x40 MSTORE POP DUP2 ADD SWAP1 PUSH2 0x1A7B SWAP2 SWAP1 PUSH2 0x211E JUMP JUMPDEST ISZERO PUSH2 0x1B6A JUMPI PUSH1 0x0 SLOAD PUSH1 0x40 MLOAD PUSH4 0x39832431 PUSH1 0xE2 SHL DUP2 MSTORE PUSH1 0x1 PUSH1 0x1 PUSH1 0xA0 SHL SUB SWAP1 SWAP2 AND SWAP1 PUSH4 0xAABBB1BD SWAP1 DUP7 SWAP1 DUP4 SWAP1 PUSH4 0xE60C90C4 SWAP1 PUSH2 0x1ABA SWAP1 DUP5 SWAP1 PUSH1 0x4 ADD PUSH2 0x205D JUMP JUMPDEST PUSH1 0x20 PUSH1 0x40 MLOAD DUP1 DUP4 SUB DUP2 DUP7 GAS STATICCALL ISZERO DUP1 ISZERO PUSH2 0x1AD7 JUMPI RETURNDATASIZE PUSH1 0x0 DUP1 RETURNDATACOPY RETURNDATASIZE PUSH1 0x0 REVERT JUMPDEST POP POP POP POP PUSH1 0x40 MLOAD RETURNDATASIZE PUSH1 0x1F NOT PUSH1 0x1F DUP3 ADD AND DUP3 ADD DUP1 PUSH1 0x40 MSTORE POP DUP2 ADD SWAP1 PUSH2 0x1AFB SWAP2 SWAP1 PUSH2 0x2071 JUMP JUMPDEST PUSH1 0x40 MLOAD DUP4 PUSH4 0xFFFFFFFF AND PUSH1 0xE0 SHL DUP2 MSTORE PUSH1 0x4 ADD PUSH2 0x1B18 SWAP3 SWAP2 SWAP1 PUSH2 0x2105 JUMP JUMPDEST PUSH1 0x20 PUSH1 0x40 MLOAD DUP1 DUP4 SUB DUP2 DUP7 GAS STATICCALL ISZERO DUP1 ISZERO PUSH2 0x1B35 JUMPI RETURNDATASIZE PUSH1 0x0 DUP1 RETURNDATACOPY RETURNDATASIZE PUSH1 0x0 REVERT JUMPDEST POP POP POP POP PUSH1 0x40 MLOAD RETURNDATASIZE PUSH1 0x1F NOT PUSH1 0x1F DUP3 ADD AND DUP3 ADD DUP1 PUSH1 0x40 MSTORE POP DUP2 ADD SWAP1 PUSH2 0x1B59 SWAP2 SWAP1 PUSH2 0x2071 JUMP JUMPDEST PUSH2 0x1B63 SWAP1 DUP3 PUSH2 0x20DF JUMP JUMPDEST SWAP1 POP PUSH2 0x1F2E JUMP JUMPDEST PUSH1 0x0 SLOAD PUSH1 0x40 MLOAD PUSH4 0x39832431 PUSH1 0xE2 SHL DUP2 MSTORE PUSH1 0x1 PUSH1 0x1 PUSH1 0xA0 SHL SUB SWAP1 SWAP2 AND SWAP1 PUSH4 0xE60C90C4 SWAP1 PUSH2 0x1B9A SWAP1 DUP8 SWAP1 PUSH1 0x4 ADD PUSH2 0x205D JUMP JUMPDEST PUSH1 0x20 PUSH1 0x40 MLOAD DUP1 DUP4 SUB DUP2 DUP7 GAS STATICCALL ISZERO DUP1 ISZERO PUSH2 0x1BB7 JUMPI RETURNDATASIZE PUSH1 0x0 DUP1 RETURNDATACOPY RETURNDATASIZE PUSH1 0x0 REVERT JUMPDEST POP POP POP POP PUSH1 0x40 MLOAD RETURNDATASIZE PUSH1 0x1F NOT PUSH1 0x1F DUP3 ADD AND DUP3 ADD DUP1 PUSH1 0x40 MSTORE POP DUP2 ADD SWAP1 PUSH2 0x1BDB SWAP2 SWAP1 PUSH2 0x2071 JUMP JUMPDEST ISZERO DUP1 ISZERO SWAP1 PUSH2 0x1C62 JUMPI POP PUSH1 0x0 DUP1 SLOAD PUSH1 0x40 MLOAD PUSH4 0x39832431 PUSH1 0xE2 SHL DUP2 MSTORE PUSH1 0x1 PUSH1 0x1 PUSH1 0xA0 SHL SUB SWAP1 SWAP2 AND SWAP1 PUSH4 0xE60C90C4 SWAP1 PUSH2 0x1C15 SWAP1 DUP9 SWAP1 PUSH1 0x4 ADD PUSH2 0x205D JUMP JUMPDEST PUSH1 0x20 PUSH1 0x40 MLOAD DUP1 DUP4 SUB DUP2 DUP7 GAS STATICCALL ISZERO DUP1 ISZERO PUSH2 0x1C32 JUMPI RETURNDATASIZE PUSH1 0x0 DUP1 RETURNDATACOPY RETURNDATASIZE PUSH1 0x0 REVERT JUMPDEST POP POP POP POP PUSH1 0x40 MLOAD RETURNDATASIZE PUSH1 0x1F NOT PUSH1 0x1F DUP3 ADD AND DUP3 ADD DUP1 PUSH1 0x40 MSTORE POP DUP2 ADD SWAP1 PUSH2 0x1C56 SWAP2 SWAP1 PUSH2 0x2071 JUMP JUMPDEST PUSH2 0x1C60 SWAP1 DUP5 PUSH2 0x20F2 JUMP JUMPDEST GT JUMPDEST ISZERO PUSH2 0x1F2E JUMPI PUSH1 0x0 SLOAD PUSH1 0x40 MLOAD PUSH4 0x39832431 PUSH1 0xE2 SHL DUP2 MSTORE PUSH1 0x1 PUSH1 0x1 PUSH1 0xA0 SHL SUB SWAP1 SWAP2 AND SWAP1 PUSH4 0xAABBB1BD SWAP1 DUP7 SWAP1 DUP4 SWAP1 PUSH4 0xE60C90C4 SWAP1 PUSH2 0x1CA1 SWAP1 DUP5 SWAP1 PUSH1 0x4 ADD PUSH2 0x205D JUMP JUMPDEST PUSH1 0x20 PUSH1 0x40 MLOAD DUP1 DUP4 SUB DUP2 DUP7 GAS STATICCALL ISZERO DUP1 ISZERO PUSH2 0x1CBE JUMPI RETURNDATASIZE PUSH1 0x0 DUP1 RETURNDATACOPY RETURNDATASIZE PUSH1 0x0 REVERT JUMPDEST POP POP POP POP PUSH1 0x40 MLOAD RETURNDATASIZE PUSH1 0x1F NOT PUSH1 0x1F DUP3 ADD AND DUP3 ADD DUP1 PUSH1 0x40 MSTORE POP DUP2 ADD SWAP1 PUSH2 0x1CE2 SWAP2 SWAP1 PUSH2 0x2071 JUMP JUMPDEST PUSH1 0x40 MLOAD DUP4 PUSH4 0xFFFFFFFF AND PUSH1 0xE0 SHL DUP2 MSTORE PUSH1 0x4 ADD PUSH2 0x1CFF SWAP3 SWAP2 SWAP1 PUSH2 0x2105 JUMP JUMPDEST PUSH1 0x20 PUSH1 0x40 MLOAD DUP1 DUP4 SUB DUP2 DUP7 GAS STATICCALL ISZERO DUP1 ISZERO PUSH2 0x1D1C JUMPI RETURNDATASIZE PUSH1 0x0 DUP1 RETURNDATACOPY RETURNDATASIZE PUSH1 0x0 REVERT JUMPDEST POP POP POP POP PUSH1 0x40 MLOAD RETURNDATASIZE PUSH1 0x1F NOT PUSH1 0x1F DUP3 ADD AND DUP3 ADD DUP1 PUSH1 0x40 MSTORE POP DUP2 ADD SWAP1 PUSH2 0x1D40 SWAP2 SWAP1 PUSH2 0x2071 JUMP JUMPDEST PUSH2 0x1D4A SWAP1 DUP3 PUSH2 0x20DF JUMP JUMPDEST PUSH1 0x0 SLOAD PUSH1 0x40 MLOAD PUSH4 0x36E028A3 PUSH1 0xE2 SHL DUP2 MSTORE SWAP2 SWAP3 POP PUSH1 0x1 PUSH1 0x1 PUSH1 0xA0 SHL SUB AND SWAP1 PUSH4 0xDB80A28C SWAP1 PUSH2 0x1D7B SWAP1 DUP8 SWAP1 PUSH1 0x4 ADD PUSH2 0x205D JUMP JUMPDEST PUSH1 0x20 PUSH1 0x40 MLOAD DUP1 DUP4 SUB DUP2 DUP7 GAS STATICCALL ISZERO DUP1 ISZERO PUSH2 0x1D98 JUMPI RETURNDATASIZE PUSH1 0x0 DUP1 RETURNDATACOPY RETURNDATASIZE PUSH1 0x0 REVERT JUMPDEST POP POP POP POP PUSH1 0x40 MLOAD RETURNDATASIZE PUSH1 0x1F NOT PUSH1 0x1F DUP3 ADD AND DUP3 ADD DUP1 PUSH1 0x40 MSTORE POP DUP2 ADD SWAP1 PUSH2 0x1DBC SWAP2 SWAP1 PUSH2 0x2071 JUMP JUMPDEST ISZERO DUP1 ISZERO SWAP1 PUSH2 0x1E43 JUMPI POP PUSH1 0x0 DUP1 SLOAD PUSH1 0x40 MLOAD PUSH4 0x36E028A3 PUSH1 0xE2 SHL DUP2 MSTORE PUSH1 0x1 PUSH1 0x1 PUSH1 0xA0 SHL SUB SWAP1 SWAP2 AND SWAP1 PUSH4 0xDB80A28C SWAP1 PUSH2 0x1DF6 SWAP1 DUP9 SWAP1 PUSH1 0x4 ADD PUSH2 0x205D JUMP JUMPDEST PUSH1 0x20 PUSH1 0x40 MLOAD DUP1 DUP4 SUB DUP2 DUP7 GAS STATICCALL ISZERO DUP1 ISZERO PUSH2 0x1E13 JUMPI RETURNDATASIZE PUSH1 0x0 DUP1 RETURNDATACOPY RETURNDATASIZE PUSH1 0x0 REVERT JUMPDEST POP POP POP POP PUSH1 0x40 MLOAD RETURNDATASIZE PUSH1 0x1F NOT PUSH1 0x1F DUP3 ADD AND DUP3 ADD DUP1 PUSH1 0x40 MSTORE POP DUP2 ADD SWAP1 PUSH2 0x1E37 SWAP2 SWAP1 PUSH2 0x2071 JUMP JUMPDEST PUSH2 0x1E41 SWAP1 DUP5 PUSH2 0x20F2 JUMP JUMPDEST GT JUMPDEST ISZERO PUSH2 0x1F2E JUMPI PUSH1 0x0 SLOAD PUSH1 0x40 MLOAD PUSH4 0x36E028A3 PUSH1 0xE2 SHL DUP2 MSTORE PUSH1 0x1 PUSH1 0x1 PUSH1 0xA0 SHL SUB SWAP1 SWAP2 AND SWAP1 PUSH4 0xAABBB1BD SWAP1 DUP7 SWAP1 DUP4 SWAP1 PUSH4 0xDB80A28C SWAP1 PUSH2 0x1E82 SWAP1 DUP5 SWAP1 PUSH1 0x4 ADD PUSH2 0x205D JUMP JUMPDEST PUSH1 0x20 PUSH1 0x40 MLOAD DUP1 DUP4 SUB DUP2 DUP7 GAS STATICCALL ISZERO DUP1 ISZERO PUSH2 0x1E9F JUMPI RETURNDATASIZE PUSH1 0x0 DUP1 RETURNDATACOPY RETURNDATASIZE PUSH1 0x0 REVERT JUMPDEST POP POP POP POP PUSH1 0x40 MLOAD RETURNDATASIZE PUSH1 0x1F NOT PUSH1 0x1F DUP3 ADD AND DUP3 ADD DUP1 PUSH1 0x40 MSTORE POP DUP2 ADD SWAP1 PUSH2 0x1EC3 SWAP2 SWAP1 PUSH2 0x2071 JUMP JUMPDEST PUSH1 0x40 MLOAD DUP4 PUSH4 0xFFFFFFFF AND PUSH1 0xE0 SHL DUP2 MSTORE PUSH1 0x4 ADD PUSH2 0x1EE0 SWAP3 SWAP2 SWAP1 PUSH2 0x2105 JUMP JUMPDEST PUSH1 0x20 PUSH1 0x40 MLOAD DUP1 DUP4 SUB DUP2 DUP7 GAS STATICCALL ISZERO DUP1 ISZERO PUSH2 0x1EFD JUMPI RETURNDATASIZE PUSH1 0x0 DUP1 RETURNDATACOPY RETURNDATASIZE PUSH1 0x0 REVERT JUMPDEST POP POP POP POP PUSH1 0x40 MLOAD RETURNDATASIZE PUSH1 0x1F NOT PUSH1 0x1F DUP3 ADD AND DUP3 ADD DUP1 PUSH1 0x40 MSTORE POP DUP2 ADD SWAP1 PUSH2 0x1F21 SWAP2 SWAP1 PUSH2 0x2071 JUMP JUMPDEST PUSH2 0x1F2B SWAP1 DUP3 PUSH2 0x20DF JUMP JUMPDEST SWAP1 POP JUMPDEST PUSH1 0x0 SLOAD PUSH1 0x40 MLOAD PUSH4 0x1ED6380F PUSH1 0xE0 SHL DUP2 MSTORE DUP3 SWAP2 PUSH1 0x1 PUSH1 0x1 PUSH1 0xA0 SHL SUB AND SWAP1 PUSH4 0x1ED6380F SWAP1 PUSH2 0x1F5E SWAP1 DUP9 SWAP1 PUSH1 0x4 ADD PUSH2 0x205D JUMP JUMPDEST PUSH1 0x20 PUSH1 0x40 MLOAD DUP1 DUP4 SUB DUP2 DUP7 GAS STATICCALL ISZERO DUP1 ISZERO PUSH2 0x1F7B JUMPI RETURNDATASIZE PUSH1 0x0 DUP1 RETURNDATACOPY RETURNDATASIZE PUSH1 0x0 REVERT JUMPDEST POP POP POP POP PUSH1 0x40 MLOAD RETURNDATASIZE PUSH1 0x1F NOT PUSH1 0x1F DUP3 ADD AND DUP3 ADD DUP1 PUSH1 0x40 MSTORE POP DUP2 ADD SWAP1 PUSH2 0x1F9F SWAP2 SWAP1 PUSH2 0x2071 JUMP JUMPDEST PUSH2 0x1FA9 SWAP2 SWAP1 PUSH2 0x20DF JUMP JUMPDEST SWAP5 SWAP4 POP POP POP POP JUMP JUMPDEST PUSH1 0x0 DUP1 SLOAD PUSH1 0x40 DUP1 MLOAD PUSH4 0x2A57C76B PUSH1 0xE2 SHL DUP2 MSTORE SWAP1 MLOAD PUSH2 0x2724 SWAP3 PUSH1 0x1 PUSH1 0x1 PUSH1 0xA0 SHL SUB AND SWAP2 PUSH4 0xA95F1DAC SWAP2 PUSH1 0x4 DUP1 DUP4 ADD SWAP3 PUSH1 0x20 SWAP3 SWAP2 SWAP1 DUP3 SWAP1 SUB ADD DUP2 DUP7 GAS STATICCALL ISZERO DUP1 ISZERO PUSH2 0x1FFD JUMPI RETURNDATASIZE PUSH1 0x0 DUP1 RETURNDATACOPY RETURNDATASIZE PUSH1 0x0 REVERT JUMPDEST POP POP POP POP PUSH1 0x40 MLOAD RETURNDATASIZE PUSH1 0x1F NOT PUSH1 0x1F DUP3 ADD AND DUP3 ADD DUP1 PUSH1 0x40 MSTORE POP DUP2 ADD SWAP1 PUSH2 0x2021 SWAP2 SWAP1 PUSH2 0x2071 JUMP JUMPDEST PUSH2 0x855 SWAP1 PUSH2 0x2710 PUSH2 0x20A0 JUMP JUMPDEST PUSH1 0x0 PUSH1 0x20 DUP3 DUP5 SUB SLT ISZERO PUSH2 0x203F JUMPI PUSH1 0x0 DUP1 REVERT JUMPDEST DUP2 CALLDATALOAD PUSH1 0x1 PUSH1 0x1 PUSH1 0xA0 SHL SUB DUP2 AND DUP2 EQ PUSH2 0x2056 JUMPI PUSH1 0x0 DUP1 REVERT JUMPDEST SWAP4 SWAP3 POP POP POP JUMP JUMPDEST PUSH1 0x1 PUSH1 0x1 PUSH1 0xA0 SHL SUB SWAP2 SWAP1 SWAP2 AND DUP2 MSTORE PUSH1 0x20 ADD SWAP1 JUMP JUMPDEST PUSH1 0x0 PUSH1 0x20 DUP3 DUP5 SUB SLT ISZERO PUSH2 0x2083 JUMPI PUSH1 0x0 DUP1 REVERT JUMPDEST POP MLOAD SWAP2 SWAP1 POP JUMP JUMPDEST PUSH4 0x4E487B71 PUSH1 0xE0 SHL PUSH1 0x0 MSTORE PUSH1 0x11 PUSH1 0x4 MSTORE PUSH1 0x24 PUSH1 0x0 REVERT JUMPDEST DUP1 DUP3 MUL DUP2 ISZERO DUP3 DUP3 DIV DUP5 EQ OR PUSH2 0x20B7 JUMPI PUSH2 0x20B7 PUSH2 0x208A JUMP JUMPDEST SWAP3 SWAP2 POP POP JUMP JUMPDEST PUSH1 0x0 DUP3 PUSH2 0x20DA JUMPI PUSH4 0x4E487B71 PUSH1 0xE0 SHL PUSH1 0x0 MSTORE PUSH1 0x12 PUSH1 0x4 MSTORE PUSH1 0x24 PUSH1 0x0 REVERT JUMPDEST POP DIV SWAP1 JUMP JUMPDEST DUP1 DUP3 ADD DUP1 DUP3 GT ISZERO PUSH2 0x20B7 JUMPI PUSH2 0x20B7 PUSH2 0x208A JUMP JUMPDEST DUP2 DUP2 SUB DUP2 DUP2 GT ISZERO PUSH2 0x20B7 JUMPI PUSH2 0x20B7 PUSH2 0x208A JUMP JUMPDEST PUSH1 0x1 PUSH1 0x1 PUSH1 0xA0 SHL SUB SWAP3 SWAP1 SWAP3 AND DUP3 MSTORE PUSH1 0x20 DUP3 ADD MSTORE PUSH1 0x40 ADD SWAP1 JUMP JUMPDEST PUSH1 0x0 PUSH1 0x20 DUP3 DUP5 SUB SLT ISZERO PUSH2 0x2130 JUMPI PUSH1 0x0 DUP1 REVERT JUMPDEST DUP2 MLOAD DUP1 ISZERO ISZERO DUP2 EQ PUSH2 0x2056 JUMPI PUSH1 0x0 DUP1 REVERT INVALID LOG2 PUSH5 0x6970667358 0x22 SLT KECCAK256 0x28 CALLDATALOAD DUP5 NOT MSIZE DUP4 RETURNDATACOPY SWAP15 ISZERO PUSH1 0xA7 0xFC 0xF9 0x2D CREATE2 0xB9 CHAINID DUP1 0xF6 0xA8 0xCB 0xBA PUSH15 0xD3FF1694C3FE2F7BD764736F6C6343 STOP ADDMOD GT STOP CALLER "},"methodIdentifiers":{"calculateCycleReward()":"d6aef1c6","deb0xContractBalance()":"e10bf06a","getAccWithdrawableStake(address)":"cdd5c81f","getCurrentCycle()":"be26ed7f","getUnclaimedFees(address)":"bf992dea","getUnclaimedRewards(address)":"69a69e29"}}}}}