{
	"data": {
		"bytecode": {
			"linkReferences": {},
			"object": "60e06040526001600b553480156200001657600080fd5b5060405162006a1838038062006a18833981016040819052620000399162000116565b6001600160a01b0381166080526001600055604051620000599062000108565b604051809103906000f08015801562000076573d6000803e3d6000fd5b50600180546001600160a01b0319166001600160a01b0392909216919091179055504260a0526201518060c05269021e19e0c9bab24000006002819055600080527fd2ac945fcc0096878c763e37d6929b78378c1a2defabde8ba7ee5ed1d6e7a5b281905560186020527f999d26de3473317ead3eeaf34ca78057f1439db67b6953469c3c96ce9caf6bd75562000148565b610cb78062005d6183390190565b6000602082840312156200012957600080fd5b81516001600160a01b03811681146200014157600080fd5b9392505050565b60805160a05160c051615bd46200018d600039600081816103b1015261449a01526000818161055b01526144be01526000818161041b01526150080152615bd46000f3fe6080604052600436106102885760003560e01c8063a707140b1161015a578063d294f093116100c1578063ed414ee31161007a578063ed414ee31461089e578063ed725e83146108cb578063ef4cadc5146108f8578063f1b371e214610914578063f7400c2a1461092a578063fa845ca91461095a57600080fd5b8063d294f093146107d7578063d4432e4e146107ec578063db80a28c14610802578063dd23a9bd1461082e578063df8e8dfc1461085b578063e60c90c41461087157600080fd5b8063bc71329011610113578063bc713290146106e1578063bdc2b0a81461070e578063be26ed7f1461073b578063bebc9dfc14610750578063c4235ae91461077d578063ce96c0af146107aa57600080fd5b8063a707140b14610603578063a95f1dac14610630578063aabbb1bd14610646578063adc0f6861461067e578063af42d106146106ab578063bab2f552146106cb57600080fd5b8063654773cd116101fe5780637e30d2b5116101b75780637e30d2b5146105295780638bd955631461054957806391b300201461057d57806398a5db57146105935780639986314b146105a9578063a3d6f9a9146105d657600080fd5b8063654773cd1461047157806368f057691461048657806369ec283e1461049c5780636f044d37146104b157806375ee84d3146104c45780637d818c23146104f157600080fd5b80632e17de78116102505780632e17de781461037d5780632f7cdab01461039f578063372500ab146103d3578063436091c1146103e8578063572b6c05146103fe5780635f5080b41461045b57600080fd5b80630b4501fd1461028d5780630ece2154146102bb578063143a1766146102f65780631b4106ae146103235780631ed6380f14610350575b600080fd5b34801561029957600080fd5b506102a36103e881565b60405161ffff90911681526020015b60405180910390f35b3480156102c757600080fd5b506102e86102d6366004615559565b601b6020526000908152604090205481565b6040519081526020016102b2565b34801561030257600080fd5b506102e861031136600461558e565b60176020526000908152604090205481565b34801561032f57600080fd5b506102e861033e36600461558e565b600f6020526000908152604090205481565b34801561035c57600080fd5b506102e861036b36600461558e565b601e6020526000908152604090205481565b34801561038957600080fd5b5061039d610398366004615559565b610987565b005b3480156103ab57600080fd5b506102e87f000000000000000000000000000000000000000000000000000000000000000081565b3480156103df57600080fd5b5061039d61166d565b3480156103f457600080fd5b506102e860065481565b34801561040a57600080fd5b5061044b61041936600461558e565b7f00000000000000000000000000000000000000000000000000000000000000006001600160a01b0390811691161490565b60405190151581526020016102b2565b34801561046757600080fd5b506102e860075481565b34801561047d57600080fd5b5061039d6122c1565b34801561049257600080fd5b506102e8600a5481565b3480156104a857600080fd5b5061039d6124d0565b61039d6104bf36600461571b565b6127b9565b3480156104d057600080fd5b506102e86104df366004615559565b60106020526000908152604090205481565b3480156104fd57600080fd5b50600154610511906001600160a01b031681565b6040516001600160a01b0390911681526020016102b2565b34801561053557600080fd5b5061039d610544366004615559565b6135ef565b34801561055557600080fd5b506102e87f000000000000000000000000000000000000000000000000000000000000000081565b34801561058957600080fd5b506102e860025481565b34801561059f57600080fd5b506102e8600b5481565b3480156105b557600080fd5b506102e86105c436600461558e565b60126020526000908152604090205481565b3480156105e257600080fd5b506105f66105f136600461558e565b614352565b6040516102b2919061584d565b34801561060f57600080fd5b506102e861061e36600461558e565b601a6020526000908152604090205481565b34801561063c57600080fd5b506102e860035481565b34801561065257600080fd5b506102e8610661366004615860565b601d60209081526000928352604080842090915290825290205481565b34801561068a57600080fd5b506102e8610699366004615559565b60186020526000908152604090205481565b3480156106b757600080fd5b5061039d6106c636600461588a565b6143ec565b3480156106d757600080fd5b506102e860055481565b3480156106ed57600080fd5b506102e86106fc36600461558e565b60166020526000908152604090205481565b34801561071a57600080fd5b506102e861072936600461558e565b600d6020526000908152604090205481565b34801561074757600080fd5b506102e8614496565b34801561075c57600080fd5b506102e861076b366004615559565b601c6020526000908152604090205481565b34801561078957600080fd5b506102e8610798366004615559565b60196020526000908152604090205481565b3480156107b657600080fd5b506102e86107c536600461558e565b60136020526000908152604090205481565b3480156107e357600080fd5b5061039d6144f2565b3480156107f857600080fd5b506102e860045481565b34801561080e57600080fd5b506102e861081d36600461558e565b602080526000908152604090205481565b34801561083a57600080fd5b506102e861084936600461558e565b60146020526000908152604090205481565b34801561086757600080fd5b506102e860095481565b34801561087d57600080fd5b506102e861088c36600461558e565b601f6020526000908152604090205481565b3480156108aa57600080fd5b506102e86108b936600461558e565b600e6020526000908152604090205481565b3480156108d757600080fd5b506102e86108e636600461558e565b60156020526000908152604090205481565b34801561090457600080fd5b506102e8670de0b6b3a764000081565b34801561092057600080fd5b506102e860085481565b34801561093657600080fd5b5061044b61094536600461558e565b60216020526000908152604090205460ff1681565b34801561096657600080fd5b506102e861097536600461558e565b60116020526000908152604090205481565b6002600054036109b25760405162461bcd60e51b81526004016109a9906158c7565b60405180910390fd5b600260009081556109c1614496565b90506005548111156109d35760058190555b600854600554146109f6576006546109ec906001615914565b6007556008546006555b600654600554118015610a2a5750601c60006006546001610a179190615914565b8152602001908152602001600020546000145b15610aaf57600654600090815260196020908152604080832054601b909252822054610a5f90670de0b6b3a764000090615927565b610a69919061593e565b6007546000908152601c6020526040902054909150610a89908290615914565b601c60006006546001610a9c9190615914565b8152602081019190915260400160002055505b610ab7615004565b6001600160a01b038116600090815260116020526040902054600554118015610af757506001600160a01b0381166000908152600f602052604090205415155b15610c5e576001600160a01b038116600081815260116020908152604080832054835260108252808320546018835281842054948452600f90925282205491929091610b439190615927565b610b4d919061593e565b6001600160a01b038316600090815260156020526040812080549293508392909190610b7a908490615914565b90915550506001600160a01b0382166000908152600d602052604090205415610c43576001600160a01b0382166000908152600f6020526040812054610bc0908361593e565b6001600160a01b0384166000908152600d60205260408120549192509061271090610beb9084615927565b610bf5919061593e565b6001600160a01b038516600090815260156020526040812080549293508392909190610c22908490615960565b9091555050506001600160a01b0383166000908152600d6020526040812055505b506001600160a01b0381166000908152600f60205260408120555b600654600554118015610c965750600654610c7a906001615914565b6001600160a01b0382166000908152601a602052604090205414155b15610d88576001600160a01b0381166000908152601a60209081526040808320548352601c91829052822054600654670de0b6b3a76400009391929190610cde906001615914565b815260200190815260200160002054610cf79190615960565b6001600160a01b038316600090815260156020526040902054610d1a9190615927565b610d24919061593e565b6001600160a01b038216600090815260166020526040902054610d479190615914565b6001600160a01b038216600090815260166020526040902055600654610d6e906001615914565b6001600160a01b0382166000908152601a60205260409020555b6001600160a01b0381166000908152601f602052604090205415801590610dd357506001600160a01b0381166000908152601f6020526040812054600554610dd09190615960565b10155b8015610df757506001600160a01b03811660009081526021602052604090205460ff165b15610fc1576001600160a01b0381166000818152601d60209081526040808320601f8352818420548452825280832054938352601590915281208054839290610e41908490615914565b90915550506001600160a01b0382166000908152601e602052604081208054839290610e6e908490615914565b90915550506001600160a01b0382166000908152601f6020526040902054600654610e9a906001615914565b1115610f78576001600160a01b0382166000908152601f60209081526040808320548352601c91829052822054600654670de0b6b3a76400009391929190610ee3906001615914565b815260200190815260200160002054610efc9190615960565b6001600160a01b0384166000908152601d60209081526040808320601f8352818420548452909152902054610f319190615927565b610f3b919061593e565b6001600160a01b038316600090815260166020526040902054610f5e9190615914565b6001600160a01b0383166000908152601660205260409020555b506001600160a01b0381166000818152601d60209081526040808320601f835281842080548552908352818420849055938352928290556021905220805460ff191690556113d5565b6001600160a01b0381166000908152601f60205260409020541580159061100b57506001600160a01b0381166000908152601f60205260408120546005546110099190615960565b115b156113d5576001600160a01b0381166000818152601d60209081526040808320601f8352818420548452825280832054938352601590915281208054839290611055908490615914565b90915550506001600160a01b0382166000908152601e602052604081208054839290611082908490615914565b90915550506001600160a01b0382166000908152601f60205260409020546006546110ae906001615914565b111561118c576001600160a01b0382166000908152601f60209081526040808320548352601c91829052822054600654670de0b6b3a764000093919291906110f7906001615914565b8152602001908152602001600020546111109190615960565b6001600160a01b0384166000908152601d60209081526040808320601f83528184205484529091529020546111459190615927565b61114f919061593e565b6001600160a01b0383166000908152601660205260409020546111729190615914565b6001600160a01b0383166000908152601660205260409020555b6001600160a01b0382166000818152601d60209081526040808320601f8352818420805485529083528184208490559383529282905580522054156113d3576001600160a01b03821660009081526020805260408120546005546111f09190615960565b11156113a8576001600160a01b0382166000818152601d6020908152604080832082805281842054845282528083205493835260159091528120805483929061123a908490615914565b90915550506001600160a01b0383166000908152601e602052604081208054839290611267908490615914565b90915550506001600160a01b0383166000908152602080526040902054600654611292906001615914565b111561136d576001600160a01b038316600090815260208080526040808320548352601c91829052822054600654670de0b6b3a764000093919291906112d9906001615914565b8152602001908152602001600020546112f29190615960565b6001600160a01b0385166000908152601d602090815260408083208280528184205484529091529020546113269190615927565b611330919061593e565b6001600160a01b0384166000908152601660205260409020546113539190615914565b6001600160a01b0384166000908152601660205260409020555b506001600160a01b0382166000818152601d6020908152604080832082805281842080548552908352908320839055928252805290556113d3565b6001600160a01b0382166000908152602080805260408083208054601f845291842091909155908052555b505b826000036114215760405162461bcd60e51b815260206004820152601960248201527844656230783a20616d6f756e7420617267206973207a65726f60381b60448201526064016109a9565b601e600061142d615004565b6001600160a01b03166001600160a01b03168152602001908152602001600020548311156114b95760405162461bcd60e51b815260206004820152603360248201527f44656230783a2063616e206e6f7420756e7374616b65206d6f7265207468616e60448201527220776974686472617761626c65207374616b6560681b60648201526084016109a9565b600854600654036114e15782600a60008282546114d69190615914565b909155506115089050565b60055460009081526019602052604081208054859290611502908490615960565b90915550505b82601e6000611515615004565b6001600160a01b03166001600160a01b0316815260200190815260200160002060008282546115449190615960565b9091555083905060156000611557615004565b6001600160a01b03166001600160a01b0316815260200190815260200160002060008282546115869190615960565b90915550506001546001600160a01b031663a9059cbb6115a4615004565b6040516001600160e01b031960e084901b1681526001600160a01b039091166004820152602481018690526044016020604051808303816000875af11580156115f1573d6000803e3d6000fd5b505050506040513d601f19601f820116820180604052508101906116159190615973565b5061161e615004565b6001600160a01b03166005547f37375b03d8924bd8f076f11f8411b9962aa5c02fb489021507bc6bb6f850e3658560405161165b91815260200190565b60405180910390a35050600160005550565b6000611677614496565b90506005548111156116895760058190555b6002600054036116ab5760405162461bcd60e51b81526004016109a9906158c7565b6002600055600854600554146116d3576006546116c9906001615914565b6007556008546006555b6006546005541180156117075750601c600060065460016116f49190615914565b8152602001908152602001600020546000145b1561178c57600654600090815260196020908152604080832054601b90925282205461173c90670de0b6b3a764000090615927565b611746919061593e565b6007546000908152601c6020526040902054909150611766908290615914565b601c600060065460016117799190615914565b8152602081019190915260400160002055505b611794615004565b6001600160a01b0381166000908152601160205260409020546005541180156117d457506001600160a01b0381166000908152600f602052604090205415155b1561193b576001600160a01b038116600081815260116020908152604080832054835260108252808320546018835281842054948452600f909252822054919290916118209190615927565b61182a919061593e565b6001600160a01b038316600090815260156020526040812080549293508392909190611857908490615914565b90915550506001600160a01b0382166000908152600d602052604090205415611920576001600160a01b0382166000908152600f602052604081205461189d908361593e565b6001600160a01b0384166000908152600d602052604081205491925090612710906118c89084615927565b6118d2919061593e565b6001600160a01b0385166000908152601560205260408120805492935083929091906118ff908490615960565b9091555050506001600160a01b0383166000908152600d6020526040812055505b506001600160a01b0381166000908152600f60205260408120555b6006546005541180156119735750600654611957906001615914565b6001600160a01b0382166000908152601a602052604090205414155b15611a65576001600160a01b0381166000908152601a60209081526040808320548352601c91829052822054600654670de0b6b3a764000093919291906119bb906001615914565b8152602001908152602001600020546119d49190615960565b6001600160a01b0383166000908152601560205260409020546119f79190615927565b611a01919061593e565b6001600160a01b038216600090815260166020526040902054611a249190615914565b6001600160a01b038216600090815260166020526040902055600654611a4b906001615914565b6001600160a01b0382166000908152601a60205260409020555b6001600160a01b0381166000908152601f602052604090205415801590611ab057506001600160a01b0381166000908152601f6020526040812054600554611aad9190615960565b10155b8015611ad457506001600160a01b03811660009081526021602052604090205460ff165b15611c9e576001600160a01b0381166000818152601d60209081526040808320601f8352818420548452825280832054938352601590915281208054839290611b1e908490615914565b90915550506001600160a01b0382166000908152601e602052604081208054839290611b4b908490615914565b90915550506001600160a01b0382166000908152601f6020526040902054600654611b77906001615914565b1115611c55576001600160a01b0382166000908152601f60209081526040808320548352601c91829052822054600654670de0b6b3a76400009391929190611bc0906001615914565b815260200190815260200160002054611bd99190615960565b6001600160a01b0384166000908152601d60209081526040808320601f8352818420548452909152902054611c0e9190615927565b611c18919061593e565b6001600160a01b038316600090815260166020526040902054611c3b9190615914565b6001600160a01b0383166000908152601660205260409020555b506001600160a01b0381166000818152601d60209081526040808320601f835281842080548552908352818420849055938352928290556021905220805460ff191690556120b2565b6001600160a01b0381166000908152601f602052604090205415801590611ce857506001600160a01b0381166000908152601f6020526040812054600554611ce69190615960565b115b156120b2576001600160a01b0381166000818152601d60209081526040808320601f8352818420548452825280832054938352601590915281208054839290611d32908490615914565b90915550506001600160a01b0382166000908152601e602052604081208054839290611d5f908490615914565b90915550506001600160a01b0382166000908152601f6020526040902054600654611d8b906001615914565b1115611e69576001600160a01b0382166000908152601f60209081526040808320548352601c91829052822054600654670de0b6b3a76400009391929190611dd4906001615914565b815260200190815260200160002054611ded9190615960565b6001600160a01b0384166000908152601d60209081526040808320601f8352818420548452909152902054611e229190615927565b611e2c919061593e565b6001600160a01b038316600090815260166020526040902054611e4f9190615914565b6001600160a01b0383166000908152601660205260409020555b6001600160a01b0382166000818152601d60209081526040808320601f8352818420805485529083528184208490559383529282905580522054156120b0576001600160a01b0382166000908152602080526040812054600554611ecd9190615960565b1115612085576001600160a01b0382166000818152601d60209081526040808320828052818420548452825280832054938352601590915281208054839290611f17908490615914565b90915550506001600160a01b0383166000908152601e602052604081208054839290611f44908490615914565b90915550506001600160a01b0383166000908152602080526040902054600654611f6f906001615914565b111561204a576001600160a01b038316600090815260208080526040808320548352601c91829052822054600654670de0b6b3a76400009391929190611fb6906001615914565b815260200190815260200160002054611fcf9190615960565b6001600160a01b0385166000908152601d602090815260408083208280528184205484529091529020546120039190615927565b61200d919061593e565b6001600160a01b0384166000908152601660205260409020546120309190615914565b6001600160a01b0384166000908152601660205260409020555b506001600160a01b0382166000818152601d6020908152604080832082805281842080548552908352908320839055928252805290556120b0565b6001600160a01b0382166000908152602080805260408083208054601f845291842091909155908052555b505b6000601e60006120c0615004565b6001600160a01b03166001600160a01b0316815260200190815260200160002054601560006120ed615004565b6001600160a01b03166001600160a01b03168152602001908152602001600020546121189190615960565b90506000811161216a5760405162461bcd60e51b815260206004820152601d60248201527f44656230783a206163636f756e7420686173206e6f207265776172647300000060448201526064016109a9565b8060156000612177615004565b6001600160a01b03166001600160a01b0316815260200190815260200160002060008282546121a69190615960565b9091555050600854600654036121d35780600a60008282546121c89190615914565b909155506122039050565b6005546000908152601960205260409020546121f0908290615960565b6005546000908152601960205260409020555b6001546001600160a01b0316639a49090e61221c615004565b6040516001600160e01b031960e084901b1681526001600160a01b03909116600482015260248101849052604401600060405180830381600087803b15801561226457600080fd5b505af1158015612278573d6000803e3d6000fd5b50505050612284615004565b6001600160a01b03166005547f3300bdb359cfb956935bca32e9db727413eab1ca84341f2e36caea85bb7969688360405161165b91815260200190565b6002600054036122e35760405162461bcd60e51b81526004016109a9906158c7565b600260009081556122f2614496565b90506005548111156123045760058190555b600854600554146123275760065461231d906001615914565b6007556008546006555b60065460055411801561235b5750601c600060065460016123489190615914565b8152602001908152602001600020546000145b156123e057600654600090815260196020908152604080832054601b90925282205461239090670de0b6b3a764000090615927565b61239a919061593e565b6007546000908152601c60205260409020549091506123ba908290615914565b601c600060065460016123cd9190615914565b8152602081019190915260400160002055505b6123f06123eb615004565b615048565b6000601460006123fe615004565b6001600160a01b03166001600160a01b03168152602001908152602001600020549050600081116124415760405162461bcd60e51b81526004016109a990615995565b60006014600061244f615004565b6001600160a01b0316815260208101919091526040016000205561247a612474615004565b8261528b565b612482615004565b6001600160a01b0316612493614496565b6040518381527f71080b6b70140bab68812ff30dd24dd3f4fafdb253085461fcc624ab5f1bbe9b906020015b60405180910390a350506001600055565b6002600054036124f25760405162461bcd60e51b81526004016109a9906158c7565b60026000908155612501614496565b90506005548111156125135760058190555b600854600554146125365760065461252c906001615914565b6007556008546006555b60065460055411801561256a5750601c600060065460016125579190615914565b8152602001908152602001600020546000145b156125ef57600654600090815260196020908152604080832054601b90925282205461259f90670de0b6b3a764000090615927565b6125a9919061593e565b6007546000908152601c60205260409020549091506125c9908290615914565b601c600060065460016125dc9190615914565b8152602081019190915260400160002055505b6125fa6123eb615004565b600060176000612608615004565b6001600160a01b03166001600160a01b031681526020019081526020016000205490506000811161267b5760405162461bcd60e51b815260206004820152601d60248201527f44656230783a206163636f756e7420686173206e6f207265776172647300000060448201526064016109a9565b600060176000612689615004565b6001600160a01b03168152602081019190915260400160002055600854600654036126cb5780600a60008282546126c09190615914565b909155506126fb9050565b6005546000908152601960205260409020546126e8908290615960565b6005546000908152601960205260409020555b6001546001600160a01b0316639a49090e612714615004565b6040516001600160e01b031960e084901b1681526001600160a01b03909116600482015260248101849052604401600060405180830381600087803b15801561275c57600080fd5b505af1158015612770573d6000803e3d6000fd5b5050505061277c615004565b6001600160a01b03166005547f73d4ecbe623e0c89f3cfb75a853104d35d1105e8ec5f0ec6e4bb924da1ffb292836040516124bf91815260200190565b8060005a905060006127c9614496565b90506005548111156127db5760058190555b600854600554146127fe576006546127f4906001615914565b6007556008546006555b6006546005541180156128325750601c6000600654600161281f9190615914565b8152602001908152602001600020546000145b156128b757600654600090815260196020908152604080832054601b90925282205461286790670de0b6b3a764000090615927565b612871919061593e565b6007546000908152601c6020526040902054909150612891908290615914565b601c600060065460016128a49190615914565b8152602081019190915260400160002055505b6005546000908152601860205260408120549003612a17576002546003819055600090612724906128ea90612710615927565b6128f4919061593e565b6002819055600580546000908152601860209081526040808320859055600985905592546008556006548252601990522054909150612934908290615914565b60085460009081526019602052604081208054909190612955908490615914565b9091555050600454156129915760045460085460009081526019602052604081208054909190612986908490615914565b909155505060006004555b600a54156129c857600a54600854600090815260196020526040812080549091906129bd908490615960565b90915550506000600a555b600554600854600090815260196020908152604091829020548251858152918201527f0666a61c1092f5b86c2cfe6ea1ad0d9a36032c4fb92d285b4e43f662d48f19b4910160405180910390a2505b612a1f615004565b6001600160a01b038116600090815260116020526040902054600554118015612a5f57506001600160a01b0381166000908152600f602052604090205415155b15612bc6576001600160a01b038116600081815260116020908152604080832054835260108252808320546018835281842054948452600f90925282205491929091612aab9190615927565b612ab5919061593e565b6001600160a01b038316600090815260156020526040812080549293508392909190612ae2908490615914565b90915550506001600160a01b0382166000908152600d602052604090205415612bab576001600160a01b0382166000908152600f6020526040812054612b28908361593e565b6001600160a01b0384166000908152600d60205260408120549192509061271090612b539084615927565b612b5d919061593e565b6001600160a01b038516600090815260156020526040812080549293508392909190612b8a908490615960565b9091555050506001600160a01b0383166000908152600d6020526040812055505b506001600160a01b0381166000908152600f60205260408120555b600654600554118015612bfe5750600654612be2906001615914565b6001600160a01b0382166000908152601a602052604090205414155b15612cf0576001600160a01b0381166000908152601a60209081526040808320548352601c91829052822054600654670de0b6b3a76400009391929190612c46906001615914565b815260200190815260200160002054612c5f9190615960565b6001600160a01b038316600090815260156020526040902054612c829190615927565b612c8c919061593e565b6001600160a01b038216600090815260166020526040902054612caf9190615914565b6001600160a01b038216600090815260166020526040902055600654612cd6906001615914565b6001600160a01b0382166000908152601a60205260409020555b6001600160a01b0381166000908152601f602052604090205415801590612d3b57506001600160a01b0381166000908152601f6020526040812054600554612d389190615960565b10155b8015612d5f57506001600160a01b03811660009081526021602052604090205460ff165b15612f29576001600160a01b0381166000818152601d60209081526040808320601f8352818420548452825280832054938352601590915281208054839290612da9908490615914565b90915550506001600160a01b0382166000908152601e602052604081208054839290612dd6908490615914565b90915550506001600160a01b0382166000908152601f6020526040902054600654612e02906001615914565b1115612ee0576001600160a01b0382166000908152601f60209081526040808320548352601c91829052822054600654670de0b6b3a76400009391929190612e4b906001615914565b815260200190815260200160002054612e649190615960565b6001600160a01b0384166000908152601d60209081526040808320601f8352818420548452909152902054612e999190615927565b612ea3919061593e565b6001600160a01b038316600090815260166020526040902054612ec69190615914565b6001600160a01b0383166000908152601660205260409020555b506001600160a01b0381166000818152601d60209081526040808320601f835281842080548552908352818420849055938352928290556021905220805460ff1916905561333d565b6001600160a01b0381166000908152601f602052604090205415801590612f7357506001600160a01b0381166000908152601f6020526040812054600554612f719190615960565b115b1561333d576001600160a01b0381166000818152601d60209081526040808320601f8352818420548452825280832054938352601590915281208054839290612fbd908490615914565b90915550506001600160a01b0382166000908152601e602052604081208054839290612fea908490615914565b90915550506001600160a01b0382166000908152601f6020526040902054600654613016906001615914565b11156130f4576001600160a01b0382166000908152601f60209081526040808320548352601c91829052822054600654670de0b6b3a7640000939192919061305f906001615914565b8152602001908152602001600020546130789190615960565b6001600160a01b0384166000908152601d60209081526040808320601f83528184205484529091529020546130ad9190615927565b6130b7919061593e565b6001600160a01b0383166000908152601660205260409020546130da9190615914565b6001600160a01b0383166000908152601660205260409020555b6001600160a01b0382166000818152601d60209081526040808320601f83528184208054855290835281842084905593835292829055805220541561333b576001600160a01b03821660009081526020805260408120546005546131589190615960565b1115613310576001600160a01b0382166000818152601d602090815260408083208280528184205484528252808320549383526015909152812080548392906131a2908490615914565b90915550506001600160a01b0383166000908152601e6020526040812080548392906131cf908490615914565b90915550506001600160a01b03831660009081526020805260409020546006546131fa906001615914565b11156132d5576001600160a01b038316600090815260208080526040808320548352601c91829052822054600654670de0b6b3a76400009391929190613241906001615914565b81526020019081526020016000205461325a9190615960565b6001600160a01b0385166000908152601d6020908152604080832082805281842054845290915290205461328e9190615927565b613298919061593e565b6001600160a01b0384166000908152601660205260409020546132bb9190615914565b6001600160a01b0384166000908152601660205260409020555b506001600160a01b0382166000818152601d60209081526040808320828052818420805485529083529083208390559282528052905561333b565b6001600160a01b0382166000908152602080805260408083208054601f845291842091909155908052555b505b61334687615048565b8851600f6000613354615004565b6001600160a01b03166001600160a01b0316815260200190815260200160002060008282546133839190615914565b90915550508851600554600090815260106020526040812080549091906133ab908490615914565b9091555050600554601160006133bf615004565b6001600160a01b03908116825260208201929092526040016000209190915587161561348e57851561345a5785600d60006133f8615004565b6001600160a01b03166001600160a01b0316815260200190815260200160002060008282546134279190615914565b90915550506001600160a01b0387166000908152600e602052604081208054889290613454908490615914565b90915550505b841561348e576001600160a01b03871660009081526014602052604081208054879290613488908490615914565b90915550505b600061349a8a8a615333565b9050876001600160a01b0316816005547f6288811d8cdbed319ad675bb04053011e25d30480e6eb483c02d54ef3bc863f18a8a6040516134e4929190918252602082015260400190565b60405180910390a450505060006127106103e861ffff163a5a6135079086615960565b61351390617984615914565b61351d9190615927565b6135279190615927565b613531919061593e565b90508061353e8434615960565b10156135a15760405162461bcd60e51b815260206004820152602c60248201527f44656230783a2076616c7565206d757374206265203e3d20313025206f66207460448201526b6865207370656e742067617360a01b60648201526084016109a9565b6135bf33846135b08434615960565b6135ba9190615960565b61528b565b6005546000908152601b6020526040812080548392906135e0908490615914565b90915550505050505050505050565b6002600054036136115760405162461bcd60e51b81526004016109a9906158c7565b60026000908155613620614496565b90506005548111156136325760058190555b600854600554146136555760065461364b906001615914565b6007556008546006555b6006546005541180156136895750601c600060065460016136769190615914565b8152602001908152602001600020546000145b1561370e57600654600090815260196020908152604080832054601b9092528220546136be90670de0b6b3a764000090615927565b6136c8919061593e565b6007546000908152601c60205260409020549091506136e8908290615914565b601c600060065460016136fb9190615914565b8152602081019190915260400160002055505b613716615004565b6001600160a01b03811660009081526011602052604090205460055411801561375657506001600160a01b0381166000908152600f602052604090205415155b156138bd576001600160a01b038116600081815260116020908152604080832054835260108252808320546018835281842054948452600f909252822054919290916137a29190615927565b6137ac919061593e565b6001600160a01b0383166000908152601560205260408120805492935083929091906137d9908490615914565b90915550506001600160a01b0382166000908152600d6020526040902054156138a2576001600160a01b0382166000908152600f602052604081205461381f908361593e565b6001600160a01b0384166000908152600d6020526040812054919250906127109061384a9084615927565b613854919061593e565b6001600160a01b038516600090815260156020526040812080549293508392909190613881908490615960565b9091555050506001600160a01b0383166000908152600d6020526040812055505b506001600160a01b0381166000908152600f60205260408120555b6006546005541180156138f557506006546138d9906001615914565b6001600160a01b0382166000908152601a602052604090205414155b156139e7576001600160a01b0381166000908152601a60209081526040808320548352601c91829052822054600654670de0b6b3a7640000939192919061393d906001615914565b8152602001908152602001600020546139569190615960565b6001600160a01b0383166000908152601560205260409020546139799190615927565b613983919061593e565b6001600160a01b0382166000908152601660205260409020546139a69190615914565b6001600160a01b0382166000908152601660205260409020556006546139cd906001615914565b6001600160a01b0382166000908152601a60205260409020555b6001600160a01b0381166000908152601f602052604090205415801590613a3257506001600160a01b0381166000908152601f6020526040812054600554613a2f9190615960565b10155b8015613a5657506001600160a01b03811660009081526021602052604090205460ff165b15613c20576001600160a01b0381166000818152601d60209081526040808320601f8352818420548452825280832054938352601590915281208054839290613aa0908490615914565b90915550506001600160a01b0382166000908152601e602052604081208054839290613acd908490615914565b90915550506001600160a01b0382166000908152601f6020526040902054600654613af9906001615914565b1115613bd7576001600160a01b0382166000908152601f60209081526040808320548352601c91829052822054600654670de0b6b3a76400009391929190613b42906001615914565b815260200190815260200160002054613b5b9190615960565b6001600160a01b0384166000908152601d60209081526040808320601f8352818420548452909152902054613b909190615927565b613b9a919061593e565b6001600160a01b038316600090815260166020526040902054613bbd9190615914565b6001600160a01b0383166000908152601660205260409020555b506001600160a01b0381166000818152601d60209081526040808320601f835281842080548552908352818420849055938352928290556021905220805460ff19169055614034565b6001600160a01b0381166000908152601f602052604090205415801590613c6a57506001600160a01b0381166000908152601f6020526040812054600554613c689190615960565b115b15614034576001600160a01b0381166000818152601d60209081526040808320601f8352818420548452825280832054938352601590915281208054839290613cb4908490615914565b90915550506001600160a01b0382166000908152601e602052604081208054839290613ce1908490615914565b90915550506001600160a01b0382166000908152601f6020526040902054600654613d0d906001615914565b1115613deb576001600160a01b0382166000908152601f60209081526040808320548352601c91829052822054600654670de0b6b3a76400009391929190613d56906001615914565b815260200190815260200160002054613d6f9190615960565b6001600160a01b0384166000908152601d60209081526040808320601f8352818420548452909152902054613da49190615927565b613dae919061593e565b6001600160a01b038316600090815260166020526040902054613dd19190615914565b6001600160a01b0383166000908152601660205260409020555b6001600160a01b0382166000818152601d60209081526040808320601f835281842080548552908352818420849055938352928290558052205415614032576001600160a01b0382166000908152602080526040812054600554613e4f9190615960565b1115614007576001600160a01b0382166000818152601d60209081526040808320828052818420548452825280832054938352601590915281208054839290613e99908490615914565b90915550506001600160a01b0383166000908152601e602052604081208054839290613ec6908490615914565b90915550506001600160a01b0383166000908152602080526040902054600654613ef1906001615914565b1115613fcc576001600160a01b038316600090815260208080526040808320548352601c91829052822054600654670de0b6b3a76400009391929190613f38906001615914565b815260200190815260200160002054613f519190615960565b6001600160a01b0385166000908152601d60209081526040808320828052818420548452909152902054613f859190615927565b613f8f919061593e565b6001600160a01b038416600090815260166020526040902054613fb29190615914565b6001600160a01b0384166000908152601660205260409020555b506001600160a01b0382166000818152601d602090815260408083208280528184208054855290835290832083905592825280529055614032565b6001600160a01b0382166000908152602080805260408083208054601f845291842091909155908052555b505b826000036140805760405162461bcd60e51b815260206004820152601960248201527844656230783a20616d6f756e7420617267206973207a65726f60381b60448201526064016109a9565b82600460008282546140929190615914565b90915550506005546000906140a8906001615914565b9050600854600654036140f057506005546001602160006140c7615004565b6001600160a01b031681526020810191909152604001600020805460ff19169115159190911790555b601f60006140fc615004565b6001600160a01b03166001600160a01b03168152602001908152602001600020548114158015614158575060206000614133615004565b6001600160a01b03166001600160a01b03168152602001908152602001600020548114155b1561421957601f6000614169615004565b6001600160a01b03166001600160a01b03168152602001908152602001600020546000036141bd5780601f600061419e615004565b6001600160a01b03168152602081019190915260400160002055614219565b602060006141c9615004565b6001600160a01b03166001600160a01b03168152602001908152602001600020546000036142195780602060006141fe615004565b6001600160a01b031681526020810191909152604001600020555b83601d6000614226615004565b6001600160a01b03166001600160a01b03168152602001908152602001600020600083815260200190815260200160002060008282546142669190615914565b90915550506001546001600160a01b03166323b872dd614284615004565b6040516001600160e01b031960e084901b1681526001600160a01b039091166004820152306024820152604481018790526064016020604051808303816000875af11580156142d7573d6000803e3d6000fd5b505050506040513d601f19601f820116820180604052508101906142fb9190615973565b50614304615004565b6001600160a01b0316817f18dcd430020e4d4899772fd94a8b40451dc5044dfb70bc46b532eeae431c864f8660405161433f91815260200190565b60405180910390a3505060016000555050565b600c602052600090815260409020805461436b906159d7565b80601f0160208091040260200160405190810160405280929190818152602001828054614397906159d7565b80156143e45780601f106143b9576101008083540402835291602001916143e4565b820191906000526020600020905b8154815290600101906020018083116143c757829003601f168201915b505050505081565b80600c60006143f9615004565b6001600160a01b0316815260208101919091526040016000209061441d9082615a5f565b506000816040516020016144319190615b1f565b60405160208183030381529060405280519060200120905080614452615004565b6001600160a01b03167f1db169902a3b228ab764219bfc023384698a05b8a3d1bd2e046867a1dedf78a98460405161448a919061584d565b60405180910390a35050565b60007f00000000000000000000000000000000000000000000000000000000000000006144e37f000000000000000000000000000000000000000000000000000000000000000042615960565b6144ed919061593e565b905090565b6002600054036145145760405162461bcd60e51b81526004016109a9906158c7565b60026000908155614523614496565b90506005548111156145355760058190555b600854600554146145585760065461454e906001615914565b6007556008546006555b60065460055411801561458c5750601c600060065460016145799190615914565b8152602001908152602001600020546000145b1561461157600654600090815260196020908152604080832054601b9092528220546145c190670de0b6b3a764000090615927565b6145cb919061593e565b6007546000908152601c60205260409020549091506145eb908290615914565b601c600060065460016145fe9190615914565b8152602081019190915260400160002055505b614619615004565b6001600160a01b03811660009081526011602052604090205460055411801561465957506001600160a01b0381166000908152600f602052604090205415155b156147c0576001600160a01b038116600081815260116020908152604080832054835260108252808320546018835281842054948452600f909252822054919290916146a59190615927565b6146af919061593e565b6001600160a01b0383166000908152601560205260408120805492935083929091906146dc908490615914565b90915550506001600160a01b0382166000908152600d6020526040902054156147a5576001600160a01b0382166000908152600f6020526040812054614722908361593e565b6001600160a01b0384166000908152600d6020526040812054919250906127109061474d9084615927565b614757919061593e565b6001600160a01b038516600090815260156020526040812080549293508392909190614784908490615960565b9091555050506001600160a01b0383166000908152600d6020526040812055505b506001600160a01b0381166000908152600f60205260408120555b6006546005541180156147f857506006546147dc906001615914565b6001600160a01b0382166000908152601a602052604090205414155b156148ea576001600160a01b0381166000908152601a60209081526040808320548352601c91829052822054600654670de0b6b3a76400009391929190614840906001615914565b8152602001908152602001600020546148599190615960565b6001600160a01b03831660009081526015602052604090205461487c9190615927565b614886919061593e565b6001600160a01b0382166000908152601660205260409020546148a99190615914565b6001600160a01b0382166000908152601660205260409020556006546148d0906001615914565b6001600160a01b0382166000908152601a60205260409020555b6001600160a01b0381166000908152601f60205260409020541580159061493557506001600160a01b0381166000908152601f60205260408120546005546149329190615960565b10155b801561495957506001600160a01b03811660009081526021602052604090205460ff165b15614b23576001600160a01b0381166000818152601d60209081526040808320601f83528184205484528252808320549383526015909152812080548392906149a3908490615914565b90915550506001600160a01b0382166000908152601e6020526040812080548392906149d0908490615914565b90915550506001600160a01b0382166000908152601f60205260409020546006546149fc906001615914565b1115614ada576001600160a01b0382166000908152601f60209081526040808320548352601c91829052822054600654670de0b6b3a76400009391929190614a45906001615914565b815260200190815260200160002054614a5e9190615960565b6001600160a01b0384166000908152601d60209081526040808320601f8352818420548452909152902054614a939190615927565b614a9d919061593e565b6001600160a01b038316600090815260166020526040902054614ac09190615914565b6001600160a01b0383166000908152601660205260409020555b506001600160a01b0381166000818152601d60209081526040808320601f835281842080548552908352818420849055938352928290556021905220805460ff19169055614f37565b6001600160a01b0381166000908152601f602052604090205415801590614b6d57506001600160a01b0381166000908152601f6020526040812054600554614b6b9190615960565b115b15614f37576001600160a01b0381166000818152601d60209081526040808320601f8352818420548452825280832054938352601590915281208054839290614bb7908490615914565b90915550506001600160a01b0382166000908152601e602052604081208054839290614be4908490615914565b90915550506001600160a01b0382166000908152601f6020526040902054600654614c10906001615914565b1115614cee576001600160a01b0382166000908152601f60209081526040808320548352601c91829052822054600654670de0b6b3a76400009391929190614c59906001615914565b815260200190815260200160002054614c729190615960565b6001600160a01b0384166000908152601d60209081526040808320601f8352818420548452909152902054614ca79190615927565b614cb1919061593e565b6001600160a01b038316600090815260166020526040902054614cd49190615914565b6001600160a01b0383166000908152601660205260409020555b6001600160a01b0382166000818152601d60209081526040808320601f835281842080548552908352818420849055938352928290558052205415614f35576001600160a01b0382166000908152602080526040812054600554614d529190615960565b1115614f0a576001600160a01b0382166000818152601d60209081526040808320828052818420548452825280832054938352601590915281208054839290614d9c908490615914565b90915550506001600160a01b0383166000908152601e602052604081208054839290614dc9908490615914565b90915550506001600160a01b0383166000908152602080526040902054600654614df4906001615914565b1115614ecf576001600160a01b038316600090815260208080526040808320548352601c91829052822054600654670de0b6b3a76400009391929190614e3b906001615914565b815260200190815260200160002054614e549190615960565b6001600160a01b0385166000908152601d60209081526040808320828052818420548452909152902054614e889190615927565b614e92919061593e565b6001600160a01b038416600090815260166020526040902054614eb59190615914565b6001600160a01b0384166000908152601660205260409020555b506001600160a01b0382166000818152601d602090815260408083208280528184208054855290835290832083905592825280529055614f35565b6001600160a01b0382166000908152602080805260408083208054601f845291842091909155908052555b505b600060166000614f45615004565b6001600160a01b03166001600160a01b0316815260200190815260200160002054905060008111614f885760405162461bcd60e51b81526004016109a990615995565b600060166000614f96615004565b6001600160a01b03168152602081019190915260400160002055614fbb612474615004565b614fc3615004565b6001600160a01b0316614fd4614496565b6040518381527f2227733fc4c8a9034cb58087dcf6995128b9c0233b038b03366aaf30c92b92d69060200161165b565b60007f00000000000000000000000000000000000000000000000000000000000000006001600160a01b03163303615043575060131936013560601c90565b503390565b6001600160a01b038116600090815260126020526040902054600554111561516d576001600160a01b038116600090815260126020908152604080832054600e90925290912054158015906150aa575060008181526010602052604090205415155b1561514f5760008181526010602090815260408083205460189092528220546150d3919061593e565b6001600160a01b0384166000908152600e6020526040902054909150612710906150fd9083615927565b615107919061593e565b6001600160a01b0384166000908152601760205260408120805490919061512f908490615914565b9091555050506001600160a01b0382166000908152600e60205260408120555b506005546001600160a01b0382166000908152601260205260409020555b6006546005541180156151a55750600654615189906001615914565b6001600160a01b03821660009081526013602052604090205414155b15615288576001600160a01b0381166000908152601360209081526040808320548352601c91829052822054600654670de0b6b3a764000093919291906151ed906001615914565b8152602001908152602001600020546152069190615960565b6001600160a01b0383166000908152601760205260409020546152299190615927565b615233919061593e565b6001600160a01b0382166000908152601460205260408120805490919061525b908490615914565b909155505060065461526e906001615914565b6001600160a01b0382166000908152601360205260409020555b50565b6000826001600160a01b03168260405160006040518083038185875af1925050503d80600081146152d8576040519150601f19603f3d011682016040523d82523d6000602084013e6152dd565b606091505b505090508061532e5760405162461bcd60e51b815260206004820152601c60248201527f44656230783a206661696c656420746f2073656e6420616d6f756e740000000060448201526064016109a9565b505050565b6000805b600184516153459190615960565b811015615447576000604051806040016040528085848151811061536b5761536b615b3b565b60200260200101518152602001428152509050600084838151811061539257615392615b3b565b60200260200101516040516020016153aa9190615b1f565b604051602081830303815290604052805190602001209050806153cb615004565b6001600160a01b03168785815181106153e6576153e6615b3b565b60200260200101516001600160a01b03167fd255a04e9537ee418651bfdd3be3efed3b9f677f36ba9e488e0d27340c97961f85600b5460405161542a929190615b51565b60405180910390a45050808061543f90615b85565b915050615337565b506000604051806040016040528084600187516154649190615960565b8151811061547457615474615b3b565b60200260200101518152602001428152509050600083600186516154989190615960565b815181106154a8576154a8615b3b565b60200260200101516040516020016154c09190615b1f565b604051602081830303815290604052805190602001209050806154e1615004565b6001600160a01b03166154f2615004565b6001600160a01b03167fd255a04e9537ee418651bfdd3be3efed3b9f677f36ba9e488e0d27340c97961f85600b5460405161552e929190615b51565b60405180910390a4600b8054908190600061554883615b85565b909155509093505050505b92915050565b60006020828403121561556b57600080fd5b5035919050565b80356001600160a01b038116811461558957600080fd5b919050565b6000602082840312156155a057600080fd5b6155a982615572565b9392505050565b634e487b7160e01b600052604160045260246000fd5b604051601f8201601f1916810167ffffffffffffffff811182821017156155ef576155ef6155b0565b604052919050565b600067ffffffffffffffff821115615611576156116155b0565b5060051b60200190565b600082601f83011261562c57600080fd5b813567ffffffffffffffff811115615646576156466155b0565b615659601f8201601f19166020016155c6565b81815284602083860101111561566e57600080fd5b816020850160208301376000918101602001919091529392505050565b600082601f83011261569c57600080fd5b813560206156b16156ac836155f7565b6155c6565b82815260059290921b840181019181810190868411156156d057600080fd5b8286015b8481101561571057803567ffffffffffffffff8111156156f45760008081fd5b6157028986838b010161561b565b8452509183019183016156d4565b509695505050505050565b600080600080600060a0868803121561573357600080fd5b853567ffffffffffffffff8082111561574b57600080fd5b818801915088601f83011261575f57600080fd5b8135602061576f6156ac836155f7565b82815260059290921b8401810191818101908c84111561578e57600080fd5b948201945b838610156157b3576157a486615572565b82529482019490820190615793565b995050890135925050808211156157c957600080fd5b506157d68882890161568b565b9450506157e560408701615572565b94979396509394606081013594506080013592915050565b60005b83811015615818578181015183820152602001615800565b50506000910152565b600081518084526158398160208601602086016157fd565b601f01601f19169290920160200192915050565b6020815260006155a96020830184615821565b6000806040838503121561587357600080fd5b61587c83615572565b946020939093013593505050565b60006020828403121561589c57600080fd5b813567ffffffffffffffff8111156158b357600080fd5b6158bf8482850161561b565b949350505050565b6020808252601f908201527f5265656e7472616e637947756172643a207265656e7472616e742063616c6c00604082015260600190565b634e487b7160e01b600052601160045260246000fd5b80820180821115615553576155536158fe565b8082028115828204841417615553576155536158fe565b60008261595b57634e487b7160e01b600052601260045260246000fd5b500490565b81810381811115615553576155536158fe565b60006020828403121561598557600080fd5b815180151581146155a957600080fd5b60208082526022908201527f44656230783a206163636f756e7420686173206e6f2061636372756564206665604082015261657360f01b606082015260800190565b600181811c908216806159eb57607f821691505b602082108103615a0b57634e487b7160e01b600052602260045260246000fd5b50919050565b601f82111561532e57600081815260208120601f850160051c81016020861015615a385750805b601f850160051c820191505b81811015615a5757828155600101615a44565b505050505050565b815167ffffffffffffffff811115615a7957615a796155b0565b615a8d81615a8784546159d7565b84615a11565b602080601f831160018114615ac25760008415615aaa5750858301515b600019600386901b1c1916600185901b178555615a57565b600085815260208120601f198616915b82811015615af157888601518255948401946001909101908401615ad2565b5085821015615b0f5787850151600019600388901b60f8161c191681555b5050505050600190811b01905550565b60008251615b318184602087016157fd565b9190910192915050565b634e487b7160e01b600052603260045260246000fd5b6040815260008351604080840152615b6c6080840182615821565b6020958601516060850152929094019290925292915050565b600060018201615b9757615b976158fe565b506001019056fea26469706673582212204d04c9c0eb1066d437d3c9925adff7630c136afc1decea3f995d2b265f3dbcd064736f6c6343000811003360806040523480156200001157600080fd5b506040518060400160405280601d81526020017f44656230782052657761726420546f6b656e206f6e20506f6c79676f6e000000815250604051806040016040528060048152602001630e08884b60e31b815250816003908162000076919062000145565b50600462000085828262000145565b5050600580546001600160a01b031916331790555062000211565b634e487b7160e01b600052604160045260246000fd5b600181811c90821680620000cb57607f821691505b602082108103620000ec57634e487b7160e01b600052602260045260246000fd5b50919050565b601f8211156200014057600081815260208120601f850160051c810160208610156200011b5750805b601f850160051c820191505b818110156200013c5782815560010162000127565b5050505b505050565b81516001600160401b03811115620001615762000161620000a0565b6200017981620001728454620000b6565b84620000f2565b602080601f831160018114620001b15760008415620001985750858301515b600019600386901b1c1916600185901b1785556200013c565b600085815260208120601f198616915b82811015620001e257888601518255948401946001909101908401620001c1565b5085821015620002015787850151600019600388901b60f8161c191681555b5050505050600190811b01905550565b610a9680620002216000396000f3fe608060405234801561001057600080fd5b50600436106100cf5760003560e01c806370a082311161008c5780639a49090e116100665780639a49090e146101b8578063a457c2d7146101cd578063a9059cbb146101e0578063dd62ed3e146101f357600080fd5b806370a082311461015c5780638da5cb5b1461018557806395d89b41146101b057600080fd5b806306fdde03146100d4578063095ea7b3146100f257806318160ddd1461011557806323b872dd14610127578063313ce5671461013a5780633950935114610149575b600080fd5b6100dc610206565b6040516100e991906108e0565b60405180910390f35b61010561010036600461094a565b610298565b60405190151581526020016100e9565b6002545b6040519081526020016100e9565b610105610135366004610974565b6102b2565b604051601281526020016100e9565b61010561015736600461094a565b6102d6565b61011961016a3660046109b0565b6001600160a01b031660009081526020819052604090205490565b600554610198906001600160a01b031681565b6040516001600160a01b0390911681526020016100e9565b6100dc6102f8565b6101cb6101c636600461094a565b610307565b005b6101056101db36600461094a565b6103e1565b6101056101ee36600461094a565b61045c565b6101196102013660046109d2565b61046a565b60606003805461021590610a05565b80601f016020809104026020016040519081016040528092919081815260200182805461024190610a05565b801561028e5780601f106102635761010080835404028352916020019161028e565b820191906000526020600020905b81548152906001019060200180831161027157829003601f168201915b5050505050905090565b6000336102a6818585610495565b60019150505b92915050565b6000336102c08582856105b9565b6102cb858585610633565b506001949350505050565b6000336102a68185856102e9838361046a565b6102f39190610a3f565b610495565b60606004805461021590610a05565b6005546001600160a01b031633146103715760405162461bcd60e51b815260206004820152602260248201527f4442583a2063616c6c6572206973206e6f7420446562307820636f6e747261636044820152613a1760f11b60648201526084015b60405180910390fd5b6a0424e8a4eaca5ed740000061038660025490565b106103d35760405162461bcd60e51b815260206004820152601e60248201527f4442583a206d617820737570706c7920616c7265616479206d696e74656400006044820152606401610368565b6103dd8282610801565b5050565b600033816103ef828661046a565b90508381101561044f5760405162461bcd60e51b815260206004820152602560248201527f45524332303a2064656372656173656420616c6c6f77616e63652062656c6f77604482015264207a65726f60d81b6064820152608401610368565b6102cb8286868403610495565b6000336102a6818585610633565b6001600160a01b03918216600090815260016020908152604080832093909416825291909152205490565b6001600160a01b0383166104f75760405162461bcd60e51b8152602060048201526024808201527f45524332303a20617070726f76652066726f6d20746865207a65726f206164646044820152637265737360e01b6064820152608401610368565b6001600160a01b0382166105585760405162461bcd60e51b815260206004820152602260248201527f45524332303a20617070726f766520746f20746865207a65726f206164647265604482015261737360f01b6064820152608401610368565b6001600160a01b0383811660008181526001602090815260408083209487168084529482529182902085905590518481527f8c5be1e5ebec7d5bd14f71427d1e84f3dd0314c0f7b2291e5b200ac8c7c3b925910160405180910390a3505050565b60006105c5848461046a565b9050600019811461062d57818110156106205760405162461bcd60e51b815260206004820152601d60248201527f45524332303a20696e73756666696369656e7420616c6c6f77616e63650000006044820152606401610368565b61062d8484848403610495565b50505050565b6001600160a01b0383166106975760405162461bcd60e51b815260206004820152602560248201527f45524332303a207472616e736665722066726f6d20746865207a65726f206164604482015264647265737360d81b6064820152608401610368565b6001600160a01b0382166106f95760405162461bcd60e51b815260206004820152602360248201527f45524332303a207472616e7366657220746f20746865207a65726f206164647260448201526265737360e81b6064820152608401610368565b6001600160a01b038316600090815260208190526040902054818110156107715760405162461bcd60e51b815260206004820152602660248201527f45524332303a207472616e7366657220616d6f756e7420657863656564732062604482015265616c616e636560d01b6064820152608401610368565b6001600160a01b038085166000908152602081905260408082208585039055918516815290812080548492906107a8908490610a3f565b92505081905550826001600160a01b0316846001600160a01b03167fddf252ad1be2c89b69c2b068fc378daa952ba7f163c4a11628f55a4df523b3ef846040516107f491815260200190565b60405180910390a361062d565b6001600160a01b0382166108575760405162461bcd60e51b815260206004820152601f60248201527f45524332303a206d696e7420746f20746865207a65726f2061646472657373006044820152606401610368565b80600260008282546108699190610a3f565b90915550506001600160a01b03821660009081526020819052604081208054839290610896908490610a3f565b90915550506040518181526001600160a01b038316906000907fddf252ad1be2c89b69c2b068fc378daa952ba7f163c4a11628f55a4df523b3ef9060200160405180910390a35050565b600060208083528351808285015260005b8181101561090d578581018301518582016040015282016108f1565b506000604082860101526040601f19601f8301168501019250505092915050565b80356001600160a01b038116811461094557600080fd5b919050565b6000806040838503121561095d57600080fd5b6109668361092e565b946020939093013593505050565b60008060006060848603121561098957600080fd5b6109928461092e565b92506109a06020850161092e565b9150604084013590509250925092565b6000602082840312156109c257600080fd5b6109cb8261092e565b9392505050565b600080604083850312156109e557600080fd5b6109ee8361092e565b91506109fc6020840161092e565b90509250929050565b600181811c90821680610a1957607f821691505b602082108103610a3957634e487b7160e01b600052602260045260246000fd5b50919050565b808201808211156102ac57634e487b7160e01b600052601160045260246000fdfea2646970667358221220f502e76f02400598c447319692d5a93578d437a9914d44a28550f82c9fa7011364736f6c63430008110033",
			"opcodes": "PUSH1 0xE0 PUSH1 0x40 MSTORE PUSH1 0x1 PUSH1 0xB SSTORE CALLVALUE DUP1 ISZERO PUSH3 0x16 JUMPI PUSH1 0x0 DUP1 REVERT JUMPDEST POP PUSH1 0x40 MLOAD PUSH3 0x6A18 CODESIZE SUB DUP1 PUSH3 0x6A18 DUP4 CODECOPY DUP2 ADD PUSH1 0x40 DUP2 SWAP1 MSTORE PUSH3 0x39 SWAP2 PUSH3 0x116 JUMP JUMPDEST PUSH1 0x1 PUSH1 0x1 PUSH1 0xA0 SHL SUB DUP2 AND PUSH1 0x80 MSTORE PUSH1 0x1 PUSH1 0x0 SSTORE PUSH1 0x40 MLOAD PUSH3 0x59 SWAP1 PUSH3 0x108 JUMP JUMPDEST PUSH1 0x40 MLOAD DUP1 SWAP2 SUB SWAP1 PUSH1 0x0 CREATE DUP1 ISZERO DUP1 ISZERO PUSH3 0x76 JUMPI RETURNDATASIZE PUSH1 0x0 DUP1 RETURNDATACOPY RETURNDATASIZE PUSH1 0x0 REVERT JUMPDEST POP PUSH1 0x1 DUP1 SLOAD PUSH1 0x1 PUSH1 0x1 PUSH1 0xA0 SHL SUB NOT AND PUSH1 0x1 PUSH1 0x1 PUSH1 0xA0 SHL SUB SWAP3 SWAP1 SWAP3 AND SWAP2 SWAP1 SWAP2 OR SWAP1 SSTORE POP TIMESTAMP PUSH1 0xA0 MSTORE PUSH3 0x15180 PUSH1 0xC0 MSTORE PUSH10 0x21E19E0C9BAB2400000 PUSH1 0x2 DUP2 SWAP1 SSTORE PUSH1 0x0 DUP1 MSTORE PUSH32 0xD2AC945FCC0096878C763E37D6929B78378C1A2DEFABDE8BA7EE5ED1D6E7A5B2 DUP2 SWAP1 SSTORE PUSH1 0x18 PUSH1 0x20 MSTORE PUSH32 0x999D26DE3473317EAD3EEAF34CA78057F1439DB67B6953469C3C96CE9CAF6BD7 SSTORE PUSH3 0x148 JUMP JUMPDEST PUSH2 0xCB7 DUP1 PUSH3 0x5D61 DUP4 CODECOPY ADD SWAP1 JUMP JUMPDEST PUSH1 0x0 PUSH1 0x20 DUP3 DUP5 SUB SLT ISZERO PUSH3 0x129 JUMPI PUSH1 0x0 DUP1 REVERT JUMPDEST DUP2 MLOAD PUSH1 0x1 PUSH1 0x1 PUSH1 0xA0 SHL SUB DUP2 AND DUP2 EQ PUSH3 0x141 JUMPI PUSH1 0x0 DUP1 REVERT JUMPDEST SWAP4 SWAP3 POP POP POP JUMP JUMPDEST PUSH1 0x80 MLOAD PUSH1 0xA0 MLOAD PUSH1 0xC0 MLOAD PUSH2 0x5BD4 PUSH3 0x18D PUSH1 0x0 CODECOPY PUSH1 0x0 DUP2 DUP2 PUSH2 0x3B1 ADD MSTORE PUSH2 0x449A ADD MSTORE PUSH1 0x0 DUP2 DUP2 PUSH2 0x55B ADD MSTORE PUSH2 0x44BE ADD MSTORE PUSH1 0x0 DUP2 DUP2 PUSH2 0x41B ADD MSTORE PUSH2 0x5008 ADD MSTORE PUSH2 0x5BD4 PUSH1 0x0 RETURN INVALID PUSH1 0x80 PUSH1 0x40 MSTORE PUSH1 0x4 CALLDATASIZE LT PUSH2 0x288 JUMPI PUSH1 0x0 CALLDATALOAD PUSH1 0xE0 SHR DUP1 PUSH4 0xA707140B GT PUSH2 0x15A JUMPI DUP1 PUSH4 0xD294F093 GT PUSH2 0xC1 JUMPI DUP1 PUSH4 0xED414EE3 GT PUSH2 0x7A JUMPI DUP1 PUSH4 0xED414EE3 EQ PUSH2 0x89E JUMPI DUP1 PUSH4 0xED725E83 EQ PUSH2 0x8CB JUMPI DUP1 PUSH4 0xEF4CADC5 EQ PUSH2 0x8F8 JUMPI DUP1 PUSH4 0xF1B371E2 EQ PUSH2 0x914 JUMPI DUP1 PUSH4 0xF7400C2A EQ PUSH2 0x92A JUMPI DUP1 PUSH4 0xFA845CA9 EQ PUSH2 0x95A JUMPI PUSH1 0x0 DUP1 REVERT JUMPDEST DUP1 PUSH4 0xD294F093 EQ PUSH2 0x7D7 JUMPI DUP1 PUSH4 0xD4432E4E EQ PUSH2 0x7EC JUMPI DUP1 PUSH4 0xDB80A28C EQ PUSH2 0x802 JUMPI DUP1 PUSH4 0xDD23A9BD EQ PUSH2 0x82E JUMPI DUP1 PUSH4 0xDF8E8DFC EQ PUSH2 0x85B JUMPI DUP1 PUSH4 0xE60C90C4 EQ PUSH2 0x871 JUMPI PUSH1 0x0 DUP1 REVERT JUMPDEST DUP1 PUSH4 0xBC713290 GT PUSH2 0x113 JUMPI DUP1 PUSH4 0xBC713290 EQ PUSH2 0x6E1 JUMPI DUP1 PUSH4 0xBDC2B0A8 EQ PUSH2 0x70E JUMPI DUP1 PUSH4 0xBE26ED7F EQ PUSH2 0x73B JUMPI DUP1 PUSH4 0xBEBC9DFC EQ PUSH2 0x750 JUMPI DUP1 PUSH4 0xC4235AE9 EQ PUSH2 0x77D JUMPI DUP1 PUSH4 0xCE96C0AF EQ PUSH2 0x7AA JUMPI PUSH1 0x0 DUP1 REVERT JUMPDEST DUP1 PUSH4 0xA707140B EQ PUSH2 0x603 JUMPI DUP1 PUSH4 0xA95F1DAC EQ PUSH2 0x630 JUMPI DUP1 PUSH4 0xAABBB1BD EQ PUSH2 0x646 JUMPI DUP1 PUSH4 0xADC0F686 EQ PUSH2 0x67E JUMPI DUP1 PUSH4 0xAF42D106 EQ PUSH2 0x6AB JUMPI DUP1 PUSH4 0xBAB2F552 EQ PUSH2 0x6CB JUMPI PUSH1 0x0 DUP1 REVERT JUMPDEST DUP1 PUSH4 0x654773CD GT PUSH2 0x1FE JUMPI DUP1 PUSH4 0x7E30D2B5 GT PUSH2 0x1B7 JUMPI DUP1 PUSH4 0x7E30D2B5 EQ PUSH2 0x529 JUMPI DUP1 PUSH4 0x8BD95563 EQ PUSH2 0x549 JUMPI DUP1 PUSH4 0x91B30020 EQ PUSH2 0x57D JUMPI DUP1 PUSH4 0x98A5DB57 EQ PUSH2 0x593 JUMPI DUP1 PUSH4 0x9986314B EQ PUSH2 0x5A9 JUMPI DUP1 PUSH4 0xA3D6F9A9 EQ PUSH2 0x5D6 JUMPI PUSH1 0x0 DUP1 REVERT JUMPDEST DUP1 PUSH4 0x654773CD EQ PUSH2 0x471 JUMPI DUP1 PUSH4 0x68F05769 EQ PUSH2 0x486 JUMPI DUP1 PUSH4 0x69EC283E EQ PUSH2 0x49C JUMPI DUP1 PUSH4 0x6F044D37 EQ PUSH2 0x4B1 JUMPI DUP1 PUSH4 0x75EE84D3 EQ PUSH2 0x4C4 JUMPI DUP1 PUSH4 0x7D818C23 EQ PUSH2 0x4F1 JUMPI PUSH1 0x0 DUP1 REVERT JUMPDEST DUP1 PUSH4 0x2E17DE78 GT PUSH2 0x250 JUMPI DUP1 PUSH4 0x2E17DE78 EQ PUSH2 0x37D JUMPI DUP1 PUSH4 0x2F7CDAB0 EQ PUSH2 0x39F JUMPI DUP1 PUSH4 0x372500AB EQ PUSH2 0x3D3 JUMPI DUP1 PUSH4 0x436091C1 EQ PUSH2 0x3E8 JUMPI DUP1 PUSH4 0x572B6C05 EQ PUSH2 0x3FE JUMPI DUP1 PUSH4 0x5F5080B4 EQ PUSH2 0x45B JUMPI PUSH1 0x0 DUP1 REVERT JUMPDEST DUP1 PUSH4 0xB4501FD EQ PUSH2 0x28D JUMPI DUP1 PUSH4 0xECE2154 EQ PUSH2 0x2BB JUMPI DUP1 PUSH4 0x143A1766 EQ PUSH2 0x2F6 JUMPI DUP1 PUSH4 0x1B4106AE EQ PUSH2 0x323 JUMPI DUP1 PUSH4 0x1ED6380F EQ PUSH2 0x350 JUMPI JUMPDEST PUSH1 0x0 DUP1 REVERT JUMPDEST CALLVALUE DUP1 ISZERO PUSH2 0x299 JUMPI PUSH1 0x0 DUP1 REVERT JUMPDEST POP PUSH2 0x2A3 PUSH2 0x3E8 DUP2 JUMP JUMPDEST PUSH1 0x40 MLOAD PUSH2 0xFFFF SWAP1 SWAP2 AND DUP2 MSTORE PUSH1 0x20 ADD JUMPDEST PUSH1 0x40 MLOAD DUP1 SWAP2 SUB SWAP1 RETURN JUMPDEST CALLVALUE DUP1 ISZERO PUSH2 0x2C7 JUMPI PUSH1 0x0 DUP1 REVERT JUMPDEST POP PUSH2 0x2E8 PUSH2 0x2D6 CALLDATASIZE PUSH1 0x4 PUSH2 0x5559 JUMP JUMPDEST PUSH1 0x1B PUSH1 0x20 MSTORE PUSH1 0x0 SWAP1 DUP2 MSTORE PUSH1 0x40 SWAP1 KECCAK256 SLOAD DUP2 JUMP JUMPDEST PUSH1 0x40 MLOAD SWAP1 DUP2 MSTORE PUSH1 0x20 ADD PUSH2 0x2B2 JUMP JUMPDEST CALLVALUE DUP1 ISZERO PUSH2 0x302 JUMPI PUSH1 0x0 DUP1 REVERT JUMPDEST POP PUSH2 0x2E8 PUSH2 0x311 CALLDATASIZE PUSH1 0x4 PUSH2 0x558E JUMP JUMPDEST PUSH1 0x17 PUSH1 0x20 MSTORE PUSH1 0x0 SWAP1 DUP2 MSTORE PUSH1 0x40 SWAP1 KECCAK256 SLOAD DUP2 JUMP JUMPDEST CALLVALUE DUP1 ISZERO PUSH2 0x32F JUMPI PUSH1 0x0 DUP1 REVERT JUMPDEST POP PUSH2 0x2E8 PUSH2 0x33E CALLDATASIZE PUSH1 0x4 PUSH2 0x558E JUMP JUMPDEST PUSH1 0xF PUSH1 0x20 MSTORE PUSH1 0x0 SWAP1 DUP2 MSTORE PUSH1 0x40 SWAP1 KECCAK256 SLOAD DUP2 JUMP JUMPDEST CALLVALUE DUP1 ISZERO PUSH2 0x35C JUMPI PUSH1 0x0 DUP1 REVERT JUMPDEST POP PUSH2 0x2E8 PUSH2 0x36B CALLDATASIZE PUSH1 0x4 PUSH2 0x558E JUMP JUMPDEST PUSH1 0x1E PUSH1 0x20 MSTORE PUSH1 0x0 SWAP1 DUP2 MSTORE PUSH1 0x40 SWAP1 KECCAK256 SLOAD DUP2 JUMP JUMPDEST CALLVALUE DUP1 ISZERO PUSH2 0x389 JUMPI PUSH1 0x0 DUP1 REVERT JUMPDEST POP PUSH2 0x39D PUSH2 0x398 CALLDATASIZE PUSH1 0x4 PUSH2 0x5559 JUMP JUMPDEST PUSH2 0x987 JUMP JUMPDEST STOP JUMPDEST CALLVALUE DUP1 ISZERO PUSH2 0x3AB JUMPI PUSH1 0x0 DUP1 REVERT JUMPDEST POP PUSH2 0x2E8 PUSH32 0x0 DUP2 JUMP JUMPDEST CALLVALUE DUP1 ISZERO PUSH2 0x3DF JUMPI PUSH1 0x0 DUP1 REVERT JUMPDEST POP PUSH2 0x39D PUSH2 0x166D JUMP JUMPDEST CALLVALUE DUP1 ISZERO PUSH2 0x3F4 JUMPI PUSH1 0x0 DUP1 REVERT JUMPDEST POP PUSH2 0x2E8 PUSH1 0x6 SLOAD DUP2 JUMP JUMPDEST CALLVALUE DUP1 ISZERO PUSH2 0x40A JUMPI PUSH1 0x0 DUP1 REVERT JUMPDEST POP PUSH2 0x44B PUSH2 0x419 CALLDATASIZE PUSH1 0x4 PUSH2 0x558E JUMP JUMPDEST PUSH32 0x0 PUSH1 0x1 PUSH1 0x1 PUSH1 0xA0 SHL SUB SWAP1 DUP2 AND SWAP2 AND EQ SWAP1 JUMP JUMPDEST PUSH1 0x40 MLOAD SWAP1 ISZERO ISZERO DUP2 MSTORE PUSH1 0x20 ADD PUSH2 0x2B2 JUMP JUMPDEST CALLVALUE DUP1 ISZERO PUSH2 0x467 JUMPI PUSH1 0x0 DUP1 REVERT JUMPDEST POP PUSH2 0x2E8 PUSH1 0x7 SLOAD DUP2 JUMP JUMPDEST CALLVALUE DUP1 ISZERO PUSH2 0x47D JUMPI PUSH1 0x0 DUP1 REVERT JUMPDEST POP PUSH2 0x39D PUSH2 0x22C1 JUMP JUMPDEST CALLVALUE DUP1 ISZERO PUSH2 0x492 JUMPI PUSH1 0x0 DUP1 REVERT JUMPDEST POP PUSH2 0x2E8 PUSH1 0xA SLOAD DUP2 JUMP JUMPDEST CALLVALUE DUP1 ISZERO PUSH2 0x4A8 JUMPI PUSH1 0x0 DUP1 REVERT JUMPDEST POP PUSH2 0x39D PUSH2 0x24D0 JUMP JUMPDEST PUSH2 0x39D PUSH2 0x4BF CALLDATASIZE PUSH1 0x4 PUSH2 0x571B JUMP JUMPDEST PUSH2 0x27B9 JUMP JUMPDEST CALLVALUE DUP1 ISZERO PUSH2 0x4D0 JUMPI PUSH1 0x0 DUP1 REVERT JUMPDEST POP PUSH2 0x2E8 PUSH2 0x4DF CALLDATASIZE PUSH1 0x4 PUSH2 0x5559 JUMP JUMPDEST PUSH1 0x10 PUSH1 0x20 MSTORE PUSH1 0x0 SWAP1 DUP2 MSTORE PUSH1 0x40 SWAP1 KECCAK256 SLOAD DUP2 JUMP JUMPDEST CALLVALUE DUP1 ISZERO PUSH2 0x4FD JUMPI PUSH1 0x0 DUP1 REVERT JUMPDEST POP PUSH1 0x1 SLOAD PUSH2 0x511 SWAP1 PUSH1 0x1 PUSH1 0x1 PUSH1 0xA0 SHL SUB AND DUP2 JUMP JUMPDEST PUSH1 0x40 MLOAD PUSH1 0x1 PUSH1 0x1 PUSH1 0xA0 SHL SUB SWAP1 SWAP2 AND DUP2 MSTORE PUSH1 0x20 ADD PUSH2 0x2B2 JUMP JUMPDEST CALLVALUE DUP1 ISZERO PUSH2 0x535 JUMPI PUSH1 0x0 DUP1 REVERT JUMPDEST POP PUSH2 0x39D PUSH2 0x544 CALLDATASIZE PUSH1 0x4 PUSH2 0x5559 JUMP JUMPDEST PUSH2 0x35EF JUMP JUMPDEST CALLVALUE DUP1 ISZERO PUSH2 0x555 JUMPI PUSH1 0x0 DUP1 REVERT JUMPDEST POP PUSH2 0x2E8 PUSH32 0x0 DUP2 JUMP JUMPDEST CALLVALUE DUP1 ISZERO PUSH2 0x589 JUMPI PUSH1 0x0 DUP1 REVERT JUMPDEST POP PUSH2 0x2E8 PUSH1 0x2 SLOAD DUP2 JUMP JUMPDEST CALLVALUE DUP1 ISZERO PUSH2 0x59F JUMPI PUSH1 0x0 DUP1 REVERT JUMPDEST POP PUSH2 0x2E8 PUSH1 0xB SLOAD DUP2 JUMP JUMPDEST CALLVALUE DUP1 ISZERO PUSH2 0x5B5 JUMPI PUSH1 0x0 DUP1 REVERT JUMPDEST POP PUSH2 0x2E8 PUSH2 0x5C4 CALLDATASIZE PUSH1 0x4 PUSH2 0x558E JUMP JUMPDEST PUSH1 0x12 PUSH1 0x20 MSTORE PUSH1 0x0 SWAP1 DUP2 MSTORE PUSH1 0x40 SWAP1 KECCAK256 SLOAD DUP2 JUMP JUMPDEST CALLVALUE DUP1 ISZERO PUSH2 0x5E2 JUMPI PUSH1 0x0 DUP1 REVERT JUMPDEST POP PUSH2 0x5F6 PUSH2 0x5F1 CALLDATASIZE PUSH1 0x4 PUSH2 0x558E JUMP JUMPDEST PUSH2 0x4352 JUMP JUMPDEST PUSH1 0x40 MLOAD PUSH2 0x2B2 SWAP2 SWAP1 PUSH2 0x584D JUMP JUMPDEST CALLVALUE DUP1 ISZERO PUSH2 0x60F JUMPI PUSH1 0x0 DUP1 REVERT JUMPDEST POP PUSH2 0x2E8 PUSH2 0x61E CALLDATASIZE PUSH1 0x4 PUSH2 0x558E JUMP JUMPDEST PUSH1 0x1A PUSH1 0x20 MSTORE PUSH1 0x0 SWAP1 DUP2 MSTORE PUSH1 0x40 SWAP1 KECCAK256 SLOAD DUP2 JUMP JUMPDEST CALLVALUE DUP1 ISZERO PUSH2 0x63C JUMPI PUSH1 0x0 DUP1 REVERT JUMPDEST POP PUSH2 0x2E8 PUSH1 0x3 SLOAD DUP2 JUMP JUMPDEST CALLVALUE DUP1 ISZERO PUSH2 0x652 JUMPI PUSH1 0x0 DUP1 REVERT JUMPDEST POP PUSH2 0x2E8 PUSH2 0x661 CALLDATASIZE PUSH1 0x4 PUSH2 0x5860 JUMP JUMPDEST PUSH1 0x1D PUSH1 0x20 SWAP1 DUP2 MSTORE PUSH1 0x0 SWAP3 DUP4 MSTORE PUSH1 0x40 DUP1 DUP5 KECCAK256 SWAP1 SWAP2 MSTORE SWAP1 DUP3 MSTORE SWAP1 KECCAK256 SLOAD DUP2 JUMP JUMPDEST CALLVALUE DUP1 ISZERO PUSH2 0x68A JUMPI PUSH1 0x0 DUP1 REVERT JUMPDEST POP PUSH2 0x2E8 PUSH2 0x699 CALLDATASIZE PUSH1 0x4 PUSH2 0x5559 JUMP JUMPDEST PUSH1 0x18 PUSH1 0x20 MSTORE PUSH1 0x0 SWAP1 DUP2 MSTORE PUSH1 0x40 SWAP1 KECCAK256 SLOAD DUP2 JUMP JUMPDEST CALLVALUE DUP1 ISZERO PUSH2 0x6B7 JUMPI PUSH1 0x0 DUP1 REVERT JUMPDEST POP PUSH2 0x39D PUSH2 0x6C6 CALLDATASIZE PUSH1 0x4 PUSH2 0x588A JUMP JUMPDEST PUSH2 0x43EC JUMP JUMPDEST CALLVALUE DUP1 ISZERO PUSH2 0x6D7 JUMPI PUSH1 0x0 DUP1 REVERT JUMPDEST POP PUSH2 0x2E8 PUSH1 0x5 SLOAD DUP2 JUMP JUMPDEST CALLVALUE DUP1 ISZERO PUSH2 0x6ED JUMPI PUSH1 0x0 DUP1 REVERT JUMPDEST POP PUSH2 0x2E8 PUSH2 0x6FC CALLDATASIZE PUSH1 0x4 PUSH2 0x558E JUMP JUMPDEST PUSH1 0x16 PUSH1 0x20 MSTORE PUSH1 0x0 SWAP1 DUP2 MSTORE PUSH1 0x40 SWAP1 KECCAK256 SLOAD DUP2 JUMP JUMPDEST CALLVALUE DUP1 ISZERO PUSH2 0x71A JUMPI PUSH1 0x0 DUP1 REVERT JUMPDEST POP PUSH2 0x2E8 PUSH2 0x729 CALLDATASIZE PUSH1 0x4 PUSH2 0x558E JUMP JUMPDEST PUSH1 0xD PUSH1 0x20 MSTORE PUSH1 0x0 SWAP1 DUP2 MSTORE PUSH1 0x40 SWAP1 KECCAK256 SLOAD DUP2 JUMP JUMPDEST CALLVALUE DUP1 ISZERO PUSH2 0x747 JUMPI PUSH1 0x0 DUP1 REVERT JUMPDEST POP PUSH2 0x2E8 PUSH2 0x4496 JUMP JUMPDEST CALLVALUE DUP1 ISZERO PUSH2 0x75C JUMPI PUSH1 0x0 DUP1 REVERT JUMPDEST POP PUSH2 0x2E8 PUSH2 0x76B CALLDATASIZE PUSH1 0x4 PUSH2 0x5559 JUMP JUMPDEST PUSH1 0x1C PUSH1 0x20 MSTORE PUSH1 0x0 SWAP1 DUP2 MSTORE PUSH1 0x40 SWAP1 KECCAK256 SLOAD DUP2 JUMP JUMPDEST CALLVALUE DUP1 ISZERO PUSH2 0x789 JUMPI PUSH1 0x0 DUP1 REVERT JUMPDEST POP PUSH2 0x2E8 PUSH2 0x798 CALLDATASIZE PUSH1 0x4 PUSH2 0x5559 JUMP JUMPDEST PUSH1 0x19 PUSH1 0x20 MSTORE PUSH1 0x0 SWAP1 DUP2 MSTORE PUSH1 0x40 SWAP1 KECCAK256 SLOAD DUP2 JUMP JUMPDEST CALLVALUE DUP1 ISZERO PUSH2 0x7B6 JUMPI PUSH1 0x0 DUP1 REVERT JUMPDEST POP PUSH2 0x2E8 PUSH2 0x7C5 CALLDATASIZE PUSH1 0x4 PUSH2 0x558E JUMP JUMPDEST PUSH1 0x13 PUSH1 0x20 MSTORE PUSH1 0x0 SWAP1 DUP2 MSTORE PUSH1 0x40 SWAP1 KECCAK256 SLOAD DUP2 JUMP JUMPDEST CALLVALUE DUP1 ISZERO PUSH2 0x7E3 JUMPI PUSH1 0x0 DUP1 REVERT JUMPDEST POP PUSH2 0x39D PUSH2 0x44F2 JUMP JUMPDEST CALLVALUE DUP1 ISZERO PUSH2 0x7F8 JUMPI PUSH1 0x0 DUP1 REVERT JUMPDEST POP PUSH2 0x2E8 PUSH1 0x4 SLOAD DUP2 JUMP JUMPDEST CALLVALUE DUP1 ISZERO PUSH2 0x80E JUMPI PUSH1 0x0 DUP1 REVERT JUMPDEST POP PUSH2 0x2E8 PUSH2 0x81D CALLDATASIZE PUSH1 0x4 PUSH2 0x558E JUMP JUMPDEST PUSH1 0x20 DUP1 MSTORE PUSH1 0x0 SWAP1 DUP2 MSTORE PUSH1 0x40 SWAP1 KECCAK256 SLOAD DUP2 JUMP JUMPDEST CALLVALUE DUP1 ISZERO PUSH2 0x83A JUMPI PUSH1 0x0 DUP1 REVERT JUMPDEST POP PUSH2 0x2E8 PUSH2 0x849 CALLDATASIZE PUSH1 0x4 PUSH2 0x558E JUMP JUMPDEST PUSH1 0x14 PUSH1 0x20 MSTORE PUSH1 0x0 SWAP1 DUP2 MSTORE PUSH1 0x40 SWAP1 KECCAK256 SLOAD DUP2 JUMP JUMPDEST CALLVALUE DUP1 ISZERO PUSH2 0x867 JUMPI PUSH1 0x0 DUP1 REVERT JUMPDEST POP PUSH2 0x2E8 PUSH1 0x9 SLOAD DUP2 JUMP JUMPDEST CALLVALUE DUP1 ISZERO PUSH2 0x87D JUMPI PUSH1 0x0 DUP1 REVERT JUMPDEST POP PUSH2 0x2E8 PUSH2 0x88C CALLDATASIZE PUSH1 0x4 PUSH2 0x558E JUMP JUMPDEST PUSH1 0x1F PUSH1 0x20 MSTORE PUSH1 0x0 SWAP1 DUP2 MSTORE PUSH1 0x40 SWAP1 KECCAK256 SLOAD DUP2 JUMP JUMPDEST CALLVALUE DUP1 ISZERO PUSH2 0x8AA JUMPI PUSH1 0x0 DUP1 REVERT JUMPDEST POP PUSH2 0x2E8 PUSH2 0x8B9 CALLDATASIZE PUSH1 0x4 PUSH2 0x558E JUMP JUMPDEST PUSH1 0xE PUSH1 0x20 MSTORE PUSH1 0x0 SWAP1 DUP2 MSTORE PUSH1 0x40 SWAP1 KECCAK256 SLOAD DUP2 JUMP JUMPDEST CALLVALUE DUP1 ISZERO PUSH2 0x8D7 JUMPI PUSH1 0x0 DUP1 REVERT JUMPDEST POP PUSH2 0x2E8 PUSH2 0x8E6 CALLDATASIZE PUSH1 0x4 PUSH2 0x558E JUMP JUMPDEST PUSH1 0x15 PUSH1 0x20 MSTORE PUSH1 0x0 SWAP1 DUP2 MSTORE PUSH1 0x40 SWAP1 KECCAK256 SLOAD DUP2 JUMP JUMPDEST CALLVALUE DUP1 ISZERO PUSH2 0x904 JUMPI PUSH1 0x0 DUP1 REVERT JUMPDEST POP PUSH2 0x2E8 PUSH8 0xDE0B6B3A7640000 DUP2 JUMP JUMPDEST CALLVALUE DUP1 ISZERO PUSH2 0x920 JUMPI PUSH1 0x0 DUP1 REVERT JUMPDEST POP PUSH2 0x2E8 PUSH1 0x8 SLOAD DUP2 JUMP JUMPDEST CALLVALUE DUP1 ISZERO PUSH2 0x936 JUMPI PUSH1 0x0 DUP1 REVERT JUMPDEST POP PUSH2 0x44B PUSH2 0x945 CALLDATASIZE PUSH1 0x4 PUSH2 0x558E JUMP JUMPDEST PUSH1 0x21 PUSH1 0x20 MSTORE PUSH1 0x0 SWAP1 DUP2 MSTORE PUSH1 0x40 SWAP1 KECCAK256 SLOAD PUSH1 0xFF AND DUP2 JUMP JUMPDEST CALLVALUE DUP1 ISZERO PUSH2 0x966 JUMPI PUSH1 0x0 DUP1 REVERT JUMPDEST POP PUSH2 0x2E8 PUSH2 0x975 CALLDATASIZE PUSH1 0x4 PUSH2 0x558E JUMP JUMPDEST PUSH1 0x11 PUSH1 0x20 MSTORE PUSH1 0x0 SWAP1 DUP2 MSTORE PUSH1 0x40 SWAP1 KECCAK256 SLOAD DUP2 JUMP JUMPDEST PUSH1 0x2 PUSH1 0x0 SLOAD SUB PUSH2 0x9B2 JUMPI PUSH1 0x40 MLOAD PUSH3 0x461BCD PUSH1 0xE5 SHL DUP2 MSTORE PUSH1 0x4 ADD PUSH2 0x9A9 SWAP1 PUSH2 0x58C7 JUMP JUMPDEST PUSH1 0x40 MLOAD DUP1 SWAP2 SUB SWAP1 REVERT JUMPDEST PUSH1 0x2 PUSH1 0x0 SWAP1 DUP2 SSTORE PUSH2 0x9C1 PUSH2 0x4496 JUMP JUMPDEST SWAP1 POP PUSH1 0x5 SLOAD DUP2 GT ISZERO PUSH2 0x9D3 JUMPI PUSH1 0x5 DUP2 SWAP1 SSTORE JUMPDEST PUSH1 0x8 SLOAD PUSH1 0x5 SLOAD EQ PUSH2 0x9F6 JUMPI PUSH1 0x6 SLOAD PUSH2 0x9EC SWAP1 PUSH1 0x1 PUSH2 0x5914 JUMP JUMPDEST PUSH1 0x7 SSTORE PUSH1 0x8 SLOAD PUSH1 0x6 SSTORE JUMPDEST PUSH1 0x6 SLOAD PUSH1 0x5 SLOAD GT DUP1 ISZERO PUSH2 0xA2A JUMPI POP PUSH1 0x1C PUSH1 0x0 PUSH1 0x6 SLOAD PUSH1 0x1 PUSH2 0xA17 SWAP2 SWAP1 PUSH2 0x5914 JUMP JUMPDEST DUP2 MSTORE PUSH1 0x20 ADD SWAP1 DUP2 MSTORE PUSH1 0x20 ADD PUSH1 0x0 KECCAK256 SLOAD PUSH1 0x0 EQ JUMPDEST ISZERO PUSH2 0xAAF JUMPI PUSH1 0x6 SLOAD PUSH1 0x0 SWAP1 DUP2 MSTORE PUSH1 0x19 PUSH1 0x20 SWAP1 DUP2 MSTORE PUSH1 0x40 DUP1 DUP4 KECCAK256 SLOAD PUSH1 0x1B SWAP1 SWAP3 MSTORE DUP3 KECCAK256 SLOAD PUSH2 0xA5F SWAP1 PUSH8 0xDE0B6B3A7640000 SWAP1 PUSH2 0x5927 JUMP JUMPDEST PUSH2 0xA69 SWAP2 SWAP1 PUSH2 0x593E JUMP JUMPDEST PUSH1 0x7 SLOAD PUSH1 0x0 SWAP1 DUP2 MSTORE PUSH1 0x1C PUSH1 0x20 MSTORE PUSH1 0x40 SWAP1 KECCAK256 SLOAD SWAP1 SWAP2 POP PUSH2 0xA89 SWAP1 DUP3 SWAP1 PUSH2 0x5914 JUMP JUMPDEST PUSH1 0x1C PUSH1 0x0 PUSH1 0x6 SLOAD PUSH1 0x1 PUSH2 0xA9C SWAP2 SWAP1 PUSH2 0x5914 JUMP JUMPDEST DUP2 MSTORE PUSH1 0x20 DUP2 ADD SWAP2 SWAP1 SWAP2 MSTORE PUSH1 0x40 ADD PUSH1 0x0 KECCAK256 SSTORE POP JUMPDEST PUSH2 0xAB7 PUSH2 0x5004 JUMP JUMPDEST PUSH1 0x1 PUSH1 0x1 PUSH1 0xA0 SHL SUB DUP2 AND PUSH1 0x0 SWAP1 DUP2 MSTORE PUSH1 0x11 PUSH1 0x20 MSTORE PUSH1 0x40 SWAP1 KECCAK256 SLOAD PUSH1 0x5 SLOAD GT DUP1 ISZERO PUSH2 0xAF7 JUMPI POP PUSH1 0x1 PUSH1 0x1 PUSH1 0xA0 SHL SUB DUP2 AND PUSH1 0x0 SWAP1 DUP2 MSTORE PUSH1 0xF PUSH1 0x20 MSTORE PUSH1 0x40 SWAP1 KECCAK256 SLOAD ISZERO ISZERO JUMPDEST ISZERO PUSH2 0xC5E JUMPI PUSH1 0x1 PUSH1 0x1 PUSH1 0xA0 SHL SUB DUP2 AND PUSH1 0x0 DUP2 DUP2 MSTORE PUSH1 0x11 PUSH1 0x20 SWAP1 DUP2 MSTORE PUSH1 0x40 DUP1 DUP4 KECCAK256 SLOAD DUP4 MSTORE PUSH1 0x10 DUP3 MSTORE DUP1 DUP4 KECCAK256 SLOAD PUSH1 0x18 DUP4 MSTORE DUP2 DUP5 KECCAK256 SLOAD SWAP5 DUP5 MSTORE PUSH1 0xF SWAP1 SWAP3 MSTORE DUP3 KECCAK256 SLOAD SWAP2 SWAP3 SWAP1 SWAP2 PUSH2 0xB43 SWAP2 SWAP1 PUSH2 0x5927 JUMP JUMPDEST PUSH2 0xB4D SWAP2 SWAP1 PUSH2 0x593E JUMP JUMPDEST PUSH1 0x1 PUSH1 0x1 PUSH1 0xA0 SHL SUB DUP4 AND PUSH1 0x0 SWAP1 DUP2 MSTORE PUSH1 0x15 PUSH1 0x20 MSTORE PUSH1 0x40 DUP2 KECCAK256 DUP1 SLOAD SWAP3 SWAP4 POP DUP4 SWAP3 SWAP1 SWAP2 SWAP1 PUSH2 0xB7A SWAP1 DUP5 SWAP1 PUSH2 0x5914 JUMP JUMPDEST SWAP1 SWAP2 SSTORE POP POP PUSH1 0x1 PUSH1 0x1 PUSH1 0xA0 SHL SUB DUP3 AND PUSH1 0x0 SWAP1 DUP2 MSTORE PUSH1 0xD PUSH1 0x20 MSTORE PUSH1 0x40 SWAP1 KECCAK256 SLOAD ISZERO PUSH2 0xC43 JUMPI PUSH1 0x1 PUSH1 0x1 PUSH1 0xA0 SHL SUB DUP3 AND PUSH1 0x0 SWAP1 DUP2 MSTORE PUSH1 0xF PUSH1 0x20 MSTORE PUSH1 0x40 DUP2 KECCAK256 SLOAD PUSH2 0xBC0 SWAP1 DUP4 PUSH2 0x593E JUMP JUMPDEST PUSH1 0x1 PUSH1 0x1 PUSH1 0xA0 SHL SUB DUP5 AND PUSH1 0x0 SWAP1 DUP2 MSTORE PUSH1 0xD PUSH1 0x20 MSTORE PUSH1 0x40 DUP2 KECCAK256 SLOAD SWAP2 SWAP3 POP SWAP1 PUSH2 0x2710 SWAP1 PUSH2 0xBEB SWAP1 DUP5 PUSH2 0x5927 JUMP JUMPDEST PUSH2 0xBF5 SWAP2 SWAP1 PUSH2 0x593E JUMP JUMPDEST PUSH1 0x1 PUSH1 0x1 PUSH1 0xA0 SHL SUB DUP6 AND PUSH1 0x0 SWAP1 DUP2 MSTORE PUSH1 0x15 PUSH1 0x20 MSTORE PUSH1 0x40 DUP2 KECCAK256 DUP1 SLOAD SWAP3 SWAP4 POP DUP4 SWAP3 SWAP1 SWAP2 SWAP1 PUSH2 0xC22 SWAP1 DUP5 SWAP1 PUSH2 0x5960 JUMP JUMPDEST SWAP1 SWAP2 SSTORE POP POP POP PUSH1 0x1 PUSH1 0x1 PUSH1 0xA0 SHL SUB DUP4 AND PUSH1 0x0 SWAP1 DUP2 MSTORE PUSH1 0xD PUSH1 0x20 MSTORE PUSH1 0x40 DUP2 KECCAK256 SSTORE POP JUMPDEST POP PUSH1 0x1 PUSH1 0x1 PUSH1 0xA0 SHL SUB DUP2 AND PUSH1 0x0 SWAP1 DUP2 MSTORE PUSH1 0xF PUSH1 0x20 MSTORE PUSH1 0x40 DUP2 KECCAK256 SSTORE JUMPDEST PUSH1 0x6 SLOAD PUSH1 0x5 SLOAD GT DUP1 ISZERO PUSH2 0xC96 JUMPI POP PUSH1 0x6 SLOAD PUSH2 0xC7A SWAP1 PUSH1 0x1 PUSH2 0x5914 JUMP JUMPDEST PUSH1 0x1 PUSH1 0x1 PUSH1 0xA0 SHL SUB DUP3 AND PUSH1 0x0 SWAP1 DUP2 MSTORE PUSH1 0x1A PUSH1 0x20 MSTORE PUSH1 0x40 SWAP1 KECCAK256 SLOAD EQ ISZERO JUMPDEST ISZERO PUSH2 0xD88 JUMPI PUSH1 0x1 PUSH1 0x1 PUSH1 0xA0 SHL SUB DUP2 AND PUSH1 0x0 SWAP1 DUP2 MSTORE PUSH1 0x1A PUSH1 0x20 SWAP1 DUP2 MSTORE PUSH1 0x40 DUP1 DUP4 KECCAK256 SLOAD DUP4 MSTORE PUSH1 0x1C SWAP2 DUP3 SWAP1 MSTORE DUP3 KECCAK256 SLOAD PUSH1 0x6 SLOAD PUSH8 0xDE0B6B3A7640000 SWAP4 SWAP2 SWAP3 SWAP2 SWAP1 PUSH2 0xCDE SWAP1 PUSH1 0x1 PUSH2 0x5914 JUMP JUMPDEST DUP2 MSTORE PUSH1 0x20 ADD SWAP1 DUP2 MSTORE PUSH1 0x20 ADD PUSH1 0x0 KECCAK256 SLOAD PUSH2 0xCF7 SWAP2 SWAP1 PUSH2 0x5960 JUMP JUMPDEST PUSH1 0x1 PUSH1 0x1 PUSH1 0xA0 SHL SUB DUP4 AND PUSH1 0x0 SWAP1 DUP2 MSTORE PUSH1 0x15 PUSH1 0x20 MSTORE PUSH1 0x40 SWAP1 KECCAK256 SLOAD PUSH2 0xD1A SWAP2 SWAP1 PUSH2 0x5927 JUMP JUMPDEST PUSH2 0xD24 SWAP2 SWAP1 PUSH2 0x593E JUMP JUMPDEST PUSH1 0x1 PUSH1 0x1 PUSH1 0xA0 SHL SUB DUP3 AND PUSH1 0x0 SWAP1 DUP2 MSTORE PUSH1 0x16 PUSH1 0x20 MSTORE PUSH1 0x40 SWAP1 KECCAK256 SLOAD PUSH2 0xD47 SWAP2 SWAP1 PUSH2 0x5914 JUMP JUMPDEST PUSH1 0x1 PUSH1 0x1 PUSH1 0xA0 SHL SUB DUP3 AND PUSH1 0x0 SWAP1 DUP2 MSTORE PUSH1 0x16 PUSH1 0x20 MSTORE PUSH1 0x40 SWAP1 KECCAK256 SSTORE PUSH1 0x6 SLOAD PUSH2 0xD6E SWAP1 PUSH1 0x1 PUSH2 0x5914 JUMP JUMPDEST PUSH1 0x1 PUSH1 0x1 PUSH1 0xA0 SHL SUB DUP3 AND PUSH1 0x0 SWAP1 DUP2 MSTORE PUSH1 0x1A PUSH1 0x20 MSTORE PUSH1 0x40 SWAP1 KECCAK256 SSTORE JUMPDEST PUSH1 0x1 PUSH1 0x1 PUSH1 0xA0 SHL SUB DUP2 AND PUSH1 0x0 SWAP1 DUP2 MSTORE PUSH1 0x1F PUSH1 0x20 MSTORE PUSH1 0x40 SWAP1 KECCAK256 SLOAD ISZERO DUP1 ISZERO SWAP1 PUSH2 0xDD3 JUMPI POP PUSH1 0x1 PUSH1 0x1 PUSH1 0xA0 SHL SUB DUP2 AND PUSH1 0x0 SWAP1 DUP2 MSTORE PUSH1 0x1F PUSH1 0x20 MSTORE PUSH1 0x40 DUP2 KECCAK256 SLOAD PUSH1 0x5 SLOAD PUSH2 0xDD0 SWAP2 SWAP1 PUSH2 0x5960 JUMP JUMPDEST LT ISZERO JUMPDEST DUP1 ISZERO PUSH2 0xDF7 JUMPI POP PUSH1 0x1 PUSH1 0x1 PUSH1 0xA0 SHL SUB DUP2 AND PUSH1 0x0 SWAP1 DUP2 MSTORE PUSH1 0x21 PUSH1 0x20 MSTORE PUSH1 0x40 SWAP1 KECCAK256 SLOAD PUSH1 0xFF AND JUMPDEST ISZERO PUSH2 0xFC1 JUMPI PUSH1 0x1 PUSH1 0x1 PUSH1 0xA0 SHL SUB DUP2 AND PUSH1 0x0 DUP2 DUP2 MSTORE PUSH1 0x1D PUSH1 0x20 SWAP1 DUP2 MSTORE PUSH1 0x40 DUP1 DUP4 KECCAK256 PUSH1 0x1F DUP4 MSTORE DUP2 DUP5 KECCAK256 SLOAD DUP5 MSTORE DUP3 MSTORE DUP1 DUP4 KECCAK256 SLOAD SWAP4 DUP4 MSTORE PUSH1 0x15 SWAP1 SWAP2 MSTORE DUP2 KECCAK256 DUP1 SLOAD DUP4 SWAP3 SWAP1 PUSH2 0xE41 SWAP1 DUP5 SWAP1 PUSH2 0x5914 JUMP JUMPDEST SWAP1 SWAP2 SSTORE POP POP PUSH1 0x1 PUSH1 0x1 PUSH1 0xA0 SHL SUB DUP3 AND PUSH1 0x0 SWAP1 DUP2 MSTORE PUSH1 0x1E PUSH1 0x20 MSTORE PUSH1 0x40 DUP2 KECCAK256 DUP1 SLOAD DUP4 SWAP3 SWAP1 PUSH2 0xE6E SWAP1 DUP5 SWAP1 PUSH2 0x5914 JUMP JUMPDEST SWAP1 SWAP2 SSTORE POP POP PUSH1 0x1 PUSH1 0x1 PUSH1 0xA0 SHL SUB DUP3 AND PUSH1 0x0 SWAP1 DUP2 MSTORE PUSH1 0x1F PUSH1 0x20 MSTORE PUSH1 0x40 SWAP1 KECCAK256 SLOAD PUSH1 0x6 SLOAD PUSH2 0xE9A SWAP1 PUSH1 0x1 PUSH2 0x5914 JUMP JUMPDEST GT ISZERO PUSH2 0xF78 JUMPI PUSH1 0x1 PUSH1 0x1 PUSH1 0xA0 SHL SUB DUP3 AND PUSH1 0x0 SWAP1 DUP2 MSTORE PUSH1 0x1F PUSH1 0x20 SWAP1 DUP2 MSTORE PUSH1 0x40 DUP1 DUP4 KECCAK256 SLOAD DUP4 MSTORE PUSH1 0x1C SWAP2 DUP3 SWAP1 MSTORE DUP3 KECCAK256 SLOAD PUSH1 0x6 SLOAD PUSH8 0xDE0B6B3A7640000 SWAP4 SWAP2 SWAP3 SWAP2 SWAP1 PUSH2 0xEE3 SWAP1 PUSH1 0x1 PUSH2 0x5914 JUMP JUMPDEST DUP2 MSTORE PUSH1 0x20 ADD SWAP1 DUP2 MSTORE PUSH1 0x20 ADD PUSH1 0x0 KECCAK256 SLOAD PUSH2 0xEFC SWAP2 SWAP1 PUSH2 0x5960 JUMP JUMPDEST PUSH1 0x1 PUSH1 0x1 PUSH1 0xA0 SHL SUB DUP5 AND PUSH1 0x0 SWAP1 DUP2 MSTORE PUSH1 0x1D PUSH1 0x20 SWAP1 DUP2 MSTORE PUSH1 0x40 DUP1 DUP4 KECCAK256 PUSH1 0x1F DUP4 MSTORE DUP2 DUP5 KECCAK256 SLOAD DUP5 MSTORE SWAP1 SWAP2 MSTORE SWAP1 KECCAK256 SLOAD PUSH2 0xF31 SWAP2 SWAP1 PUSH2 0x5927 JUMP JUMPDEST PUSH2 0xF3B SWAP2 SWAP1 PUSH2 0x593E JUMP JUMPDEST PUSH1 0x1 PUSH1 0x1 PUSH1 0xA0 SHL SUB DUP4 AND PUSH1 0x0 SWAP1 DUP2 MSTORE PUSH1 0x16 PUSH1 0x20 MSTORE PUSH1 0x40 SWAP1 KECCAK256 SLOAD PUSH2 0xF5E SWAP2 SWAP1 PUSH2 0x5914 JUMP JUMPDEST PUSH1 0x1 PUSH1 0x1 PUSH1 0xA0 SHL SUB DUP4 AND PUSH1 0x0 SWAP1 DUP2 MSTORE PUSH1 0x16 PUSH1 0x20 MSTORE PUSH1 0x40 SWAP1 KECCAK256 SSTORE JUMPDEST POP PUSH1 0x1 PUSH1 0x1 PUSH1 0xA0 SHL SUB DUP2 AND PUSH1 0x0 DUP2 DUP2 MSTORE PUSH1 0x1D PUSH1 0x20 SWAP1 DUP2 MSTORE PUSH1 0x40 DUP1 DUP4 KECCAK256 PUSH1 0x1F DUP4 MSTORE DUP2 DUP5 KECCAK256 DUP1 SLOAD DUP6 MSTORE SWAP1 DUP4 MSTORE DUP2 DUP5 KECCAK256 DUP5 SWAP1 SSTORE SWAP4 DUP4 MSTORE SWAP3 DUP3 SWAP1 SSTORE PUSH1 0x21 SWAP1 MSTORE KECCAK256 DUP1 SLOAD PUSH1 0xFF NOT AND SWAP1 SSTORE PUSH2 0x13D5 JUMP JUMPDEST PUSH1 0x1 PUSH1 0x1 PUSH1 0xA0 SHL SUB DUP2 AND PUSH1 0x0 SWAP1 DUP2 MSTORE PUSH1 0x1F PUSH1 0x20 MSTORE PUSH1 0x40 SWAP1 KECCAK256 SLOAD ISZERO DUP1 ISZERO SWAP1 PUSH2 0x100B JUMPI POP PUSH1 0x1 PUSH1 0x1 PUSH1 0xA0 SHL SUB DUP2 AND PUSH1 0x0 SWAP1 DUP2 MSTORE PUSH1 0x1F PUSH1 0x20 MSTORE PUSH1 0x40 DUP2 KECCAK256 SLOAD PUSH1 0x5 SLOAD PUSH2 0x1009 SWAP2 SWAP1 PUSH2 0x5960 JUMP JUMPDEST GT JUMPDEST ISZERO PUSH2 0x13D5 JUMPI PUSH1 0x1 PUSH1 0x1 PUSH1 0xA0 SHL SUB DUP2 AND PUSH1 0x0 DUP2 DUP2 MSTORE PUSH1 0x1D PUSH1 0x20 SWAP1 DUP2 MSTORE PUSH1 0x40 DUP1 DUP4 KECCAK256 PUSH1 0x1F DUP4 MSTORE DUP2 DUP5 KECCAK256 SLOAD DUP5 MSTORE DUP3 MSTORE DUP1 DUP4 KECCAK256 SLOAD SWAP4 DUP4 MSTORE PUSH1 0x15 SWAP1 SWAP2 MSTORE DUP2 KECCAK256 DUP1 SLOAD DUP4 SWAP3 SWAP1 PUSH2 0x1055 SWAP1 DUP5 SWAP1 PUSH2 0x5914 JUMP JUMPDEST SWAP1 SWAP2 SSTORE POP POP PUSH1 0x1 PUSH1 0x1 PUSH1 0xA0 SHL SUB DUP3 AND PUSH1 0x0 SWAP1 DUP2 MSTORE PUSH1 0x1E PUSH1 0x20 MSTORE PUSH1 0x40 DUP2 KECCAK256 DUP1 SLOAD DUP4 SWAP3 SWAP1 PUSH2 0x1082 SWAP1 DUP5 SWAP1 PUSH2 0x5914 JUMP JUMPDEST SWAP1 SWAP2 SSTORE POP POP PUSH1 0x1 PUSH1 0x1 PUSH1 0xA0 SHL SUB DUP3 AND PUSH1 0x0 SWAP1 DUP2 MSTORE PUSH1 0x1F PUSH1 0x20 MSTORE PUSH1 0x40 SWAP1 KECCAK256 SLOAD PUSH1 0x6 SLOAD PUSH2 0x10AE SWAP1 PUSH1 0x1 PUSH2 0x5914 JUMP JUMPDEST GT ISZERO PUSH2 0x118C JUMPI PUSH1 0x1 PUSH1 0x1 PUSH1 0xA0 SHL SUB DUP3 AND PUSH1 0x0 SWAP1 DUP2 MSTORE PUSH1 0x1F PUSH1 0x20 SWAP1 DUP2 MSTORE PUSH1 0x40 DUP1 DUP4 KECCAK256 SLOAD DUP4 MSTORE PUSH1 0x1C SWAP2 DUP3 SWAP1 MSTORE DUP3 KECCAK256 SLOAD PUSH1 0x6 SLOAD PUSH8 0xDE0B6B3A7640000 SWAP4 SWAP2 SWAP3 SWAP2 SWAP1 PUSH2 0x10F7 SWAP1 PUSH1 0x1 PUSH2 0x5914 JUMP JUMPDEST DUP2 MSTORE PUSH1 0x20 ADD SWAP1 DUP2 MSTORE PUSH1 0x20 ADD PUSH1 0x0 KECCAK256 SLOAD PUSH2 0x1110 SWAP2 SWAP1 PUSH2 0x5960 JUMP JUMPDEST PUSH1 0x1 PUSH1 0x1 PUSH1 0xA0 SHL SUB DUP5 AND PUSH1 0x0 SWAP1 DUP2 MSTORE PUSH1 0x1D PUSH1 0x20 SWAP1 DUP2 MSTORE PUSH1 0x40 DUP1 DUP4 KECCAK256 PUSH1 0x1F DUP4 MSTORE DUP2 DUP5 KECCAK256 SLOAD DUP5 MSTORE SWAP1 SWAP2 MSTORE SWAP1 KECCAK256 SLOAD PUSH2 0x1145 SWAP2 SWAP1 PUSH2 0x5927 JUMP JUMPDEST PUSH2 0x114F SWAP2 SWAP1 PUSH2 0x593E JUMP JUMPDEST PUSH1 0x1 PUSH1 0x1 PUSH1 0xA0 SHL SUB DUP4 AND PUSH1 0x0 SWAP1 DUP2 MSTORE PUSH1 0x16 PUSH1 0x20 MSTORE PUSH1 0x40 SWAP1 KECCAK256 SLOAD PUSH2 0x1172 SWAP2 SWAP1 PUSH2 0x5914 JUMP JUMPDEST PUSH1 0x1 PUSH1 0x1 PUSH1 0xA0 SHL SUB DUP4 AND PUSH1 0x0 SWAP1 DUP2 MSTORE PUSH1 0x16 PUSH1 0x20 MSTORE PUSH1 0x40 SWAP1 KECCAK256 SSTORE JUMPDEST PUSH1 0x1 PUSH1 0x1 PUSH1 0xA0 SHL SUB DUP3 AND PUSH1 0x0 DUP2 DUP2 MSTORE PUSH1 0x1D PUSH1 0x20 SWAP1 DUP2 MSTORE PUSH1 0x40 DUP1 DUP4 KECCAK256 PUSH1 0x1F DUP4 MSTORE DUP2 DUP5 KECCAK256 DUP1 SLOAD DUP6 MSTORE SWAP1 DUP4 MSTORE DUP2 DUP5 KECCAK256 DUP5 SWAP1 SSTORE SWAP4 DUP4 MSTORE SWAP3 DUP3 SWAP1 SSTORE DUP1 MSTORE KECCAK256 SLOAD ISZERO PUSH2 0x13D3 JUMPI PUSH1 0x1 PUSH1 0x1 PUSH1 0xA0 SHL SUB DUP3 AND PUSH1 0x0 SWAP1 DUP2 MSTORE PUSH1 0x20 DUP1 MSTORE PUSH1 0x40 DUP2 KECCAK256 SLOAD PUSH1 0x5 SLOAD PUSH2 0x11F0 SWAP2 SWAP1 PUSH2 0x5960 JUMP JUMPDEST GT ISZERO PUSH2 0x13A8 JUMPI PUSH1 0x1 PUSH1 0x1 PUSH1 0xA0 SHL SUB DUP3 AND PUSH1 0x0 DUP2 DUP2 MSTORE PUSH1 0x1D PUSH1 0x20 SWAP1 DUP2 MSTORE PUSH1 0x40 DUP1 DUP4 KECCAK256 DUP3 DUP1 MSTORE DUP2 DUP5 KECCAK256 SLOAD DUP5 MSTORE DUP3 MSTORE DUP1 DUP4 KECCAK256 SLOAD SWAP4 DUP4 MSTORE PUSH1 0x15 SWAP1 SWAP2 MSTORE DUP2 KECCAK256 DUP1 SLOAD DUP4 SWAP3 SWAP1 PUSH2 0x123A SWAP1 DUP5 SWAP1 PUSH2 0x5914 JUMP JUMPDEST SWAP1 SWAP2 SSTORE POP POP PUSH1 0x1 PUSH1 0x1 PUSH1 0xA0 SHL SUB DUP4 AND PUSH1 0x0 SWAP1 DUP2 MSTORE PUSH1 0x1E PUSH1 0x20 MSTORE PUSH1 0x40 DUP2 KECCAK256 DUP1 SLOAD DUP4 SWAP3 SWAP1 PUSH2 0x1267 SWAP1 DUP5 SWAP1 PUSH2 0x5914 JUMP JUMPDEST SWAP1 SWAP2 SSTORE POP POP PUSH1 0x1 PUSH1 0x1 PUSH1 0xA0 SHL SUB DUP4 AND PUSH1 0x0 SWAP1 DUP2 MSTORE PUSH1 0x20 DUP1 MSTORE PUSH1 0x40 SWAP1 KECCAK256 SLOAD PUSH1 0x6 SLOAD PUSH2 0x1292 SWAP1 PUSH1 0x1 PUSH2 0x5914 JUMP JUMPDEST GT ISZERO PUSH2 0x136D JUMPI PUSH1 0x1 PUSH1 0x1 PUSH1 0xA0 SHL SUB DUP4 AND PUSH1 0x0 SWAP1 DUP2 MSTORE PUSH1 0x20 DUP1 DUP1 MSTORE PUSH1 0x40 DUP1 DUP4 KECCAK256 SLOAD DUP4 MSTORE PUSH1 0x1C SWAP2 DUP3 SWAP1 MSTORE DUP3 KECCAK256 SLOAD PUSH1 0x6 SLOAD PUSH8 0xDE0B6B3A7640000 SWAP4 SWAP2 SWAP3 SWAP2 SWAP1 PUSH2 0x12D9 SWAP1 PUSH1 0x1 PUSH2 0x5914 JUMP JUMPDEST DUP2 MSTORE PUSH1 0x20 ADD SWAP1 DUP2 MSTORE PUSH1 0x20 ADD PUSH1 0x0 KECCAK256 SLOAD PUSH2 0x12F2 SWAP2 SWAP1 PUSH2 0x5960 JUMP JUMPDEST PUSH1 0x1 PUSH1 0x1 PUSH1 0xA0 SHL SUB DUP6 AND PUSH1 0x0 SWAP1 DUP2 MSTORE PUSH1 0x1D PUSH1 0x20 SWAP1 DUP2 MSTORE PUSH1 0x40 DUP1 DUP4 KECCAK256 DUP3 DUP1 MSTORE DUP2 DUP5 KECCAK256 SLOAD DUP5 MSTORE SWAP1 SWAP2 MSTORE SWAP1 KECCAK256 SLOAD PUSH2 0x1326 SWAP2 SWAP1 PUSH2 0x5927 JUMP JUMPDEST PUSH2 0x1330 SWAP2 SWAP1 PUSH2 0x593E JUMP JUMPDEST PUSH1 0x1 PUSH1 0x1 PUSH1 0xA0 SHL SUB DUP5 AND PUSH1 0x0 SWAP1 DUP2 MSTORE PUSH1 0x16 PUSH1 0x20 MSTORE PUSH1 0x40 SWAP1 KECCAK256 SLOAD PUSH2 0x1353 SWAP2 SWAP1 PUSH2 0x5914 JUMP JUMPDEST PUSH1 0x1 PUSH1 0x1 PUSH1 0xA0 SHL SUB DUP5 AND PUSH1 0x0 SWAP1 DUP2 MSTORE PUSH1 0x16 PUSH1 0x20 MSTORE PUSH1 0x40 SWAP1 KECCAK256 SSTORE JUMPDEST POP PUSH1 0x1 PUSH1 0x1 PUSH1 0xA0 SHL SUB DUP3 AND PUSH1 0x0 DUP2 DUP2 MSTORE PUSH1 0x1D PUSH1 0x20 SWAP1 DUP2 MSTORE PUSH1 0x40 DUP1 DUP4 KECCAK256 DUP3 DUP1 MSTORE DUP2 DUP5 KECCAK256 DUP1 SLOAD DUP6 MSTORE SWAP1 DUP4 MSTORE SWAP1 DUP4 KECCAK256 DUP4 SWAP1 SSTORE SWAP3 DUP3 MSTORE DUP1 MSTORE SWAP1 SSTORE PUSH2 0x13D3 JUMP JUMPDEST PUSH1 0x1 PUSH1 0x1 PUSH1 0xA0 SHL SUB DUP3 AND PUSH1 0x0 SWAP1 DUP2 MSTORE PUSH1 0x20 DUP1 DUP1 MSTORE PUSH1 0x40 DUP1 DUP4 KECCAK256 DUP1 SLOAD PUSH1 0x1F DUP5 MSTORE SWAP2 DUP5 KECCAK256 SWAP2 SWAP1 SWAP2 SSTORE SWAP1 DUP1 MSTORE SSTORE JUMPDEST POP JUMPDEST DUP3 PUSH1 0x0 SUB PUSH2 0x1421 JUMPI PUSH1 0x40 MLOAD PUSH3 0x461BCD PUSH1 0xE5 SHL DUP2 MSTORE PUSH1 0x20 PUSH1 0x4 DUP3 ADD MSTORE PUSH1 0x19 PUSH1 0x24 DUP3 ADD MSTORE PUSH25 0x44656230783A20616D6F756E7420617267206973207A65726F PUSH1 0x38 SHL PUSH1 0x44 DUP3 ADD MSTORE PUSH1 0x64 ADD PUSH2 0x9A9 JUMP JUMPDEST PUSH1 0x1E PUSH1 0x0 PUSH2 0x142D PUSH2 0x5004 JUMP JUMPDEST PUSH1 0x1 PUSH1 0x1 PUSH1 0xA0 SHL SUB AND PUSH1 0x1 PUSH1 0x1 PUSH1 0xA0 SHL SUB AND DUP2 MSTORE PUSH1 0x20 ADD SWAP1 DUP2 MSTORE PUSH1 0x20 ADD PUSH1 0x0 KECCAK256 SLOAD DUP4 GT ISZERO PUSH2 0x14B9 JUMPI PUSH1 0x40 MLOAD PUSH3 0x461BCD PUSH1 0xE5 SHL DUP2 MSTORE PUSH1 0x20 PUSH1 0x4 DUP3 ADD MSTORE PUSH1 0x33 PUSH1 0x24 DUP3 ADD MSTORE PUSH32 0x44656230783A2063616E206E6F7420756E7374616B65206D6F7265207468616E PUSH1 0x44 DUP3 ADD MSTORE PUSH19 0x20776974686472617761626C65207374616B65 PUSH1 0x68 SHL PUSH1 0x64 DUP3 ADD MSTORE PUSH1 0x84 ADD PUSH2 0x9A9 JUMP JUMPDEST PUSH1 0x8 SLOAD PUSH1 0x6 SLOAD SUB PUSH2 0x14E1 JUMPI DUP3 PUSH1 0xA PUSH1 0x0 DUP3 DUP3 SLOAD PUSH2 0x14D6 SWAP2 SWAP1 PUSH2 0x5914 JUMP JUMPDEST SWAP1 SWAP2 SSTORE POP PUSH2 0x1508 SWAP1 POP JUMP JUMPDEST PUSH1 0x5 SLOAD PUSH1 0x0 SWAP1 DUP2 MSTORE PUSH1 0x19 PUSH1 0x20 MSTORE PUSH1 0x40 DUP2 KECCAK256 DUP1 SLOAD DUP6 SWAP3 SWAP1 PUSH2 0x1502 SWAP1 DUP5 SWAP1 PUSH2 0x5960 JUMP JUMPDEST SWAP1 SWAP2 SSTORE POP POP JUMPDEST DUP3 PUSH1 0x1E PUSH1 0x0 PUSH2 0x1515 PUSH2 0x5004 JUMP JUMPDEST PUSH1 0x1 PUSH1 0x1 PUSH1 0xA0 SHL SUB AND PUSH1 0x1 PUSH1 0x1 PUSH1 0xA0 SHL SUB AND DUP2 MSTORE PUSH1 0x20 ADD SWAP1 DUP2 MSTORE PUSH1 0x20 ADD PUSH1 0x0 KECCAK256 PUSH1 0x0 DUP3 DUP3 SLOAD PUSH2 0x1544 SWAP2 SWAP1 PUSH2 0x5960 JUMP JUMPDEST SWAP1 SWAP2 SSTORE POP DUP4 SWAP1 POP PUSH1 0x15 PUSH1 0x0 PUSH2 0x1557 PUSH2 0x5004 JUMP JUMPDEST PUSH1 0x1 PUSH1 0x1 PUSH1 0xA0 SHL SUB AND PUSH1 0x1 PUSH1 0x1 PUSH1 0xA0 SHL SUB AND DUP2 MSTORE PUSH1 0x20 ADD SWAP1 DUP2 MSTORE PUSH1 0x20 ADD PUSH1 0x0 KECCAK256 PUSH1 0x0 DUP3 DUP3 SLOAD PUSH2 0x1586 SWAP2 SWAP1 PUSH2 0x5960 JUMP JUMPDEST SWAP1 SWAP2 SSTORE POP POP PUSH1 0x1 SLOAD PUSH1 0x1 PUSH1 0x1 PUSH1 0xA0 SHL SUB AND PUSH4 0xA9059CBB PUSH2 0x15A4 PUSH2 0x5004 JUMP JUMPDEST PUSH1 0x40 MLOAD PUSH1 0x1 PUSH1 0x1 PUSH1 0xE0 SHL SUB NOT PUSH1 0xE0 DUP5 SWAP1 SHL AND DUP2 MSTORE PUSH1 0x1 PUSH1 0x1 PUSH1 0xA0 SHL SUB SWAP1 SWAP2 AND PUSH1 0x4 DUP3 ADD MSTORE PUSH1 0x24 DUP2 ADD DUP7 SWAP1 MSTORE PUSH1 0x44 ADD PUSH1 0x20 PUSH1 0x40 MLOAD DUP1 DUP4 SUB DUP2 PUSH1 0x0 DUP8 GAS CALL ISZERO DUP1 ISZERO PUSH2 0x15F1 JUMPI RETURNDATASIZE PUSH1 0x0 DUP1 RETURNDATACOPY RETURNDATASIZE PUSH1 0x0 REVERT JUMPDEST POP POP POP POP PUSH1 0x40 MLOAD RETURNDATASIZE PUSH1 0x1F NOT PUSH1 0x1F DUP3 ADD AND DUP3 ADD DUP1 PUSH1 0x40 MSTORE POP DUP2 ADD SWAP1 PUSH2 0x1615 SWAP2 SWAP1 PUSH2 0x5973 JUMP JUMPDEST POP PUSH2 0x161E PUSH2 0x5004 JUMP JUMPDEST PUSH1 0x1 PUSH1 0x1 PUSH1 0xA0 SHL SUB AND PUSH1 0x5 SLOAD PUSH32 0x37375B03D8924BD8F076F11F8411B9962AA5C02FB489021507BC6BB6F850E365 DUP6 PUSH1 0x40 MLOAD PUSH2 0x165B SWAP2 DUP2 MSTORE PUSH1 0x20 ADD SWAP1 JUMP JUMPDEST PUSH1 0x40 MLOAD DUP1 SWAP2 SUB SWAP1 LOG3 POP POP PUSH1 0x1 PUSH1 0x0 SSTORE POP JUMP JUMPDEST PUSH1 0x0 PUSH2 0x1677 PUSH2 0x4496 JUMP JUMPDEST SWAP1 POP PUSH1 0x5 SLOAD DUP2 GT ISZERO PUSH2 0x1689 JUMPI PUSH1 0x5 DUP2 SWAP1 SSTORE JUMPDEST PUSH1 0x2 PUSH1 0x0 SLOAD SUB PUSH2 0x16AB JUMPI PUSH1 0x40 MLOAD PUSH3 0x461BCD PUSH1 0xE5 SHL DUP2 MSTORE PUSH1 0x4 ADD PUSH2 0x9A9 SWAP1 PUSH2 0x58C7 JUMP JUMPDEST PUSH1 0x2 PUSH1 0x0 SSTORE PUSH1 0x8 SLOAD PUSH1 0x5 SLOAD EQ PUSH2 0x16D3 JUMPI PUSH1 0x6 SLOAD PUSH2 0x16C9 SWAP1 PUSH1 0x1 PUSH2 0x5914 JUMP JUMPDEST PUSH1 0x7 SSTORE PUSH1 0x8 SLOAD PUSH1 0x6 SSTORE JUMPDEST PUSH1 0x6 SLOAD PUSH1 0x5 SLOAD GT DUP1 ISZERO PUSH2 0x1707 JUMPI POP PUSH1 0x1C PUSH1 0x0 PUSH1 0x6 SLOAD PUSH1 0x1 PUSH2 0x16F4 SWAP2 SWAP1 PUSH2 0x5914 JUMP JUMPDEST DUP2 MSTORE PUSH1 0x20 ADD SWAP1 DUP2 MSTORE PUSH1 0x20 ADD PUSH1 0x0 KECCAK256 SLOAD PUSH1 0x0 EQ JUMPDEST ISZERO PUSH2 0x178C JUMPI PUSH1 0x6 SLOAD PUSH1 0x0 SWAP1 DUP2 MSTORE PUSH1 0x19 PUSH1 0x20 SWAP1 DUP2 MSTORE PUSH1 0x40 DUP1 DUP4 KECCAK256 SLOAD PUSH1 0x1B SWAP1 SWAP3 MSTORE DUP3 KECCAK256 SLOAD PUSH2 0x173C SWAP1 PUSH8 0xDE0B6B3A7640000 SWAP1 PUSH2 0x5927 JUMP JUMPDEST PUSH2 0x1746 SWAP2 SWAP1 PUSH2 0x593E JUMP JUMPDEST PUSH1 0x7 SLOAD PUSH1 0x0 SWAP1 DUP2 MSTORE PUSH1 0x1C PUSH1 0x20 MSTORE PUSH1 0x40 SWAP1 KECCAK256 SLOAD SWAP1 SWAP2 POP PUSH2 0x1766 SWAP1 DUP3 SWAP1 PUSH2 0x5914 JUMP JUMPDEST PUSH1 0x1C PUSH1 0x0 PUSH1 0x6 SLOAD PUSH1 0x1 PUSH2 0x1779 SWAP2 SWAP1 PUSH2 0x5914 JUMP JUMPDEST DUP2 MSTORE PUSH1 0x20 DUP2 ADD SWAP2 SWAP1 SWAP2 MSTORE PUSH1 0x40 ADD PUSH1 0x0 KECCAK256 SSTORE POP JUMPDEST PUSH2 0x1794 PUSH2 0x5004 JUMP JUMPDEST PUSH1 0x1 PUSH1 0x1 PUSH1 0xA0 SHL SUB DUP2 AND PUSH1 0x0 SWAP1 DUP2 MSTORE PUSH1 0x11 PUSH1 0x20 MSTORE PUSH1 0x40 SWAP1 KECCAK256 SLOAD PUSH1 0x5 SLOAD GT DUP1 ISZERO PUSH2 0x17D4 JUMPI POP PUSH1 0x1 PUSH1 0x1 PUSH1 0xA0 SHL SUB DUP2 AND PUSH1 0x0 SWAP1 DUP2 MSTORE PUSH1 0xF PUSH1 0x20 MSTORE PUSH1 0x40 SWAP1 KECCAK256 SLOAD ISZERO ISZERO JUMPDEST ISZERO PUSH2 0x193B JUMPI PUSH1 0x1 PUSH1 0x1 PUSH1 0xA0 SHL SUB DUP2 AND PUSH1 0x0 DUP2 DUP2 MSTORE PUSH1 0x11 PUSH1 0x20 SWAP1 DUP2 MSTORE PUSH1 0x40 DUP1 DUP4 KECCAK256 SLOAD DUP4 MSTORE PUSH1 0x10 DUP3 MSTORE DUP1 DUP4 KECCAK256 SLOAD PUSH1 0x18 DUP4 MSTORE DUP2 DUP5 KECCAK256 SLOAD SWAP5 DUP5 MSTORE PUSH1 0xF SWAP1 SWAP3 MSTORE DUP3 KECCAK256 SLOAD SWAP2 SWAP3 SWAP1 SWAP2 PUSH2 0x1820 SWAP2 SWAP1 PUSH2 0x5927 JUMP JUMPDEST PUSH2 0x182A SWAP2 SWAP1 PUSH2 0x593E JUMP JUMPDEST PUSH1 0x1 PUSH1 0x1 PUSH1 0xA0 SHL SUB DUP4 AND PUSH1 0x0 SWAP1 DUP2 MSTORE PUSH1 0x15 PUSH1 0x20 MSTORE PUSH1 0x40 DUP2 KECCAK256 DUP1 SLOAD SWAP3 SWAP4 POP DUP4 SWAP3 SWAP1 SWAP2 SWAP1 PUSH2 0x1857 SWAP1 DUP5 SWAP1 PUSH2 0x5914 JUMP JUMPDEST SWAP1 SWAP2 SSTORE POP POP PUSH1 0x1 PUSH1 0x1 PUSH1 0xA0 SHL SUB DUP3 AND PUSH1 0x0 SWAP1 DUP2 MSTORE PUSH1 0xD PUSH1 0x20 MSTORE PUSH1 0x40 SWAP1 KECCAK256 SLOAD ISZERO PUSH2 0x1920 JUMPI PUSH1 0x1 PUSH1 0x1 PUSH1 0xA0 SHL SUB DUP3 AND PUSH1 0x0 SWAP1 DUP2 MSTORE PUSH1 0xF PUSH1 0x20 MSTORE PUSH1 0x40 DUP2 KECCAK256 SLOAD PUSH2 0x189D SWAP1 DUP4 PUSH2 0x593E JUMP JUMPDEST PUSH1 0x1 PUSH1 0x1 PUSH1 0xA0 SHL SUB DUP5 AND PUSH1 0x0 SWAP1 DUP2 MSTORE PUSH1 0xD PUSH1 0x20 MSTORE PUSH1 0x40 DUP2 KECCAK256 SLOAD SWAP2 SWAP3 POP SWAP1 PUSH2 0x2710 SWAP1 PUSH2 0x18C8 SWAP1 DUP5 PUSH2 0x5927 JUMP JUMPDEST PUSH2 0x18D2 SWAP2 SWAP1 PUSH2 0x593E JUMP JUMPDEST PUSH1 0x1 PUSH1 0x1 PUSH1 0xA0 SHL SUB DUP6 AND PUSH1 0x0 SWAP1 DUP2 MSTORE PUSH1 0x15 PUSH1 0x20 MSTORE PUSH1 0x40 DUP2 KECCAK256 DUP1 SLOAD SWAP3 SWAP4 POP DUP4 SWAP3 SWAP1 SWAP2 SWAP1 PUSH2 0x18FF SWAP1 DUP5 SWAP1 PUSH2 0x5960 JUMP JUMPDEST SWAP1 SWAP2 SSTORE POP POP POP PUSH1 0x1 PUSH1 0x1 PUSH1 0xA0 SHL SUB DUP4 AND PUSH1 0x0 SWAP1 DUP2 MSTORE PUSH1 0xD PUSH1 0x20 MSTORE PUSH1 0x40 DUP2 KECCAK256 SSTORE POP JUMPDEST POP PUSH1 0x1 PUSH1 0x1 PUSH1 0xA0 SHL SUB DUP2 AND PUSH1 0x0 SWAP1 DUP2 MSTORE PUSH1 0xF PUSH1 0x20 MSTORE PUSH1 0x40 DUP2 KECCAK256 SSTORE JUMPDEST PUSH1 0x6 SLOAD PUSH1 0x5 SLOAD GT DUP1 ISZERO PUSH2 0x1973 JUMPI POP PUSH1 0x6 SLOAD PUSH2 0x1957 SWAP1 PUSH1 0x1 PUSH2 0x5914 JUMP JUMPDEST PUSH1 0x1 PUSH1 0x1 PUSH1 0xA0 SHL SUB DUP3 AND PUSH1 0x0 SWAP1 DUP2 MSTORE PUSH1 0x1A PUSH1 0x20 MSTORE PUSH1 0x40 SWAP1 KECCAK256 SLOAD EQ ISZERO JUMPDEST ISZERO PUSH2 0x1A65 JUMPI PUSH1 0x1 PUSH1 0x1 PUSH1 0xA0 SHL SUB DUP2 AND PUSH1 0x0 SWAP1 DUP2 MSTORE PUSH1 0x1A PUSH1 0x20 SWAP1 DUP2 MSTORE PUSH1 0x40 DUP1 DUP4 KECCAK256 SLOAD DUP4 MSTORE PUSH1 0x1C SWAP2 DUP3 SWAP1 MSTORE DUP3 KECCAK256 SLOAD PUSH1 0x6 SLOAD PUSH8 0xDE0B6B3A7640000 SWAP4 SWAP2 SWAP3 SWAP2 SWAP1 PUSH2 0x19BB SWAP1 PUSH1 0x1 PUSH2 0x5914 JUMP JUMPDEST DUP2 MSTORE PUSH1 0x20 ADD SWAP1 DUP2 MSTORE PUSH1 0x20 ADD PUSH1 0x0 KECCAK256 SLOAD PUSH2 0x19D4 SWAP2 SWAP1 PUSH2 0x5960 JUMP JUMPDEST PUSH1 0x1 PUSH1 0x1 PUSH1 0xA0 SHL SUB DUP4 AND PUSH1 0x0 SWAP1 DUP2 MSTORE PUSH1 0x15 PUSH1 0x20 MSTORE PUSH1 0x40 SWAP1 KECCAK256 SLOAD PUSH2 0x19F7 SWAP2 SWAP1 PUSH2 0x5927 JUMP JUMPDEST PUSH2 0x1A01 SWAP2 SWAP1 PUSH2 0x593E JUMP JUMPDEST PUSH1 0x1 PUSH1 0x1 PUSH1 0xA0 SHL SUB DUP3 AND PUSH1 0x0 SWAP1 DUP2 MSTORE PUSH1 0x16 PUSH1 0x20 MSTORE PUSH1 0x40 SWAP1 KECCAK256 SLOAD PUSH2 0x1A24 SWAP2 SWAP1 PUSH2 0x5914 JUMP JUMPDEST PUSH1 0x1 PUSH1 0x1 PUSH1 0xA0 SHL SUB DUP3 AND PUSH1 0x0 SWAP1 DUP2 MSTORE PUSH1 0x16 PUSH1 0x20 MSTORE PUSH1 0x40 SWAP1 KECCAK256 SSTORE PUSH1 0x6 SLOAD PUSH2 0x1A4B SWAP1 PUSH1 0x1 PUSH2 0x5914 JUMP JUMPDEST PUSH1 0x1 PUSH1 0x1 PUSH1 0xA0 SHL SUB DUP3 AND PUSH1 0x0 SWAP1 DUP2 MSTORE PUSH1 0x1A PUSH1 0x20 MSTORE PUSH1 0x40 SWAP1 KECCAK256 SSTORE JUMPDEST PUSH1 0x1 PUSH1 0x1 PUSH1 0xA0 SHL SUB DUP2 AND PUSH1 0x0 SWAP1 DUP2 MSTORE PUSH1 0x1F PUSH1 0x20 MSTORE PUSH1 0x40 SWAP1 KECCAK256 SLOAD ISZERO DUP1 ISZERO SWAP1 PUSH2 0x1AB0 JUMPI POP PUSH1 0x1 PUSH1 0x1 PUSH1 0xA0 SHL SUB DUP2 AND PUSH1 0x0 SWAP1 DUP2 MSTORE PUSH1 0x1F PUSH1 0x20 MSTORE PUSH1 0x40 DUP2 KECCAK256 SLOAD PUSH1 0x5 SLOAD PUSH2 0x1AAD SWAP2 SWAP1 PUSH2 0x5960 JUMP JUMPDEST LT ISZERO JUMPDEST DUP1 ISZERO PUSH2 0x1AD4 JUMPI POP PUSH1 0x1 PUSH1 0x1 PUSH1 0xA0 SHL SUB DUP2 AND PUSH1 0x0 SWAP1 DUP2 MSTORE PUSH1 0x21 PUSH1 0x20 MSTORE PUSH1 0x40 SWAP1 KECCAK256 SLOAD PUSH1 0xFF AND JUMPDEST ISZERO PUSH2 0x1C9E JUMPI PUSH1 0x1 PUSH1 0x1 PUSH1 0xA0 SHL SUB DUP2 AND PUSH1 0x0 DUP2 DUP2 MSTORE PUSH1 0x1D PUSH1 0x20 SWAP1 DUP2 MSTORE PUSH1 0x40 DUP1 DUP4 KECCAK256 PUSH1 0x1F DUP4 MSTORE DUP2 DUP5 KECCAK256 SLOAD DUP5 MSTORE DUP3 MSTORE DUP1 DUP4 KECCAK256 SLOAD SWAP4 DUP4 MSTORE PUSH1 0x15 SWAP1 SWAP2 MSTORE DUP2 KECCAK256 DUP1 SLOAD DUP4 SWAP3 SWAP1 PUSH2 0x1B1E SWAP1 DUP5 SWAP1 PUSH2 0x5914 JUMP JUMPDEST SWAP1 SWAP2 SSTORE POP POP PUSH1 0x1 PUSH1 0x1 PUSH1 0xA0 SHL SUB DUP3 AND PUSH1 0x0 SWAP1 DUP2 MSTORE PUSH1 0x1E PUSH1 0x20 MSTORE PUSH1 0x40 DUP2 KECCAK256 DUP1 SLOAD DUP4 SWAP3 SWAP1 PUSH2 0x1B4B SWAP1 DUP5 SWAP1 PUSH2 0x5914 JUMP JUMPDEST SWAP1 SWAP2 SSTORE POP POP PUSH1 0x1 PUSH1 0x1 PUSH1 0xA0 SHL SUB DUP3 AND PUSH1 0x0 SWAP1 DUP2 MSTORE PUSH1 0x1F PUSH1 0x20 MSTORE PUSH1 0x40 SWAP1 KECCAK256 SLOAD PUSH1 0x6 SLOAD PUSH2 0x1B77 SWAP1 PUSH1 0x1 PUSH2 0x5914 JUMP JUMPDEST GT ISZERO PUSH2 0x1C55 JUMPI PUSH1 0x1 PUSH1 0x1 PUSH1 0xA0 SHL SUB DUP3 AND PUSH1 0x0 SWAP1 DUP2 MSTORE PUSH1 0x1F PUSH1 0x20 SWAP1 DUP2 MSTORE PUSH1 0x40 DUP1 DUP4 KECCAK256 SLOAD DUP4 MSTORE PUSH1 0x1C SWAP2 DUP3 SWAP1 MSTORE DUP3 KECCAK256 SLOAD PUSH1 0x6 SLOAD PUSH8 0xDE0B6B3A7640000 SWAP4 SWAP2 SWAP3 SWAP2 SWAP1 PUSH2 0x1BC0 SWAP1 PUSH1 0x1 PUSH2 0x5914 JUMP JUMPDEST DUP2 MSTORE PUSH1 0x20 ADD SWAP1 DUP2 MSTORE PUSH1 0x20 ADD PUSH1 0x0 KECCAK256 SLOAD PUSH2 0x1BD9 SWAP2 SWAP1 PUSH2 0x5960 JUMP JUMPDEST PUSH1 0x1 PUSH1 0x1 PUSH1 0xA0 SHL SUB DUP5 AND PUSH1 0x0 SWAP1 DUP2 MSTORE PUSH1 0x1D PUSH1 0x20 SWAP1 DUP2 MSTORE PUSH1 0x40 DUP1 DUP4 KECCAK256 PUSH1 0x1F DUP4 MSTORE DUP2 DUP5 KECCAK256 SLOAD DUP5 MSTORE SWAP1 SWAP2 MSTORE SWAP1 KECCAK256 SLOAD PUSH2 0x1C0E SWAP2 SWAP1 PUSH2 0x5927 JUMP JUMPDEST PUSH2 0x1C18 SWAP2 SWAP1 PUSH2 0x593E JUMP JUMPDEST PUSH1 0x1 PUSH1 0x1 PUSH1 0xA0 SHL SUB DUP4 AND PUSH1 0x0 SWAP1 DUP2 MSTORE PUSH1 0x16 PUSH1 0x20 MSTORE PUSH1 0x40 SWAP1 KECCAK256 SLOAD PUSH2 0x1C3B SWAP2 SWAP1 PUSH2 0x5914 JUMP JUMPDEST PUSH1 0x1 PUSH1 0x1 PUSH1 0xA0 SHL SUB DUP4 AND PUSH1 0x0 SWAP1 DUP2 MSTORE PUSH1 0x16 PUSH1 0x20 MSTORE PUSH1 0x40 SWAP1 KECCAK256 SSTORE JUMPDEST POP PUSH1 0x1 PUSH1 0x1 PUSH1 0xA0 SHL SUB DUP2 AND PUSH1 0x0 DUP2 DUP2 MSTORE PUSH1 0x1D PUSH1 0x20 SWAP1 DUP2 MSTORE PUSH1 0x40 DUP1 DUP4 KECCAK256 PUSH1 0x1F DUP4 MSTORE DUP2 DUP5 KECCAK256 DUP1 SLOAD DUP6 MSTORE SWAP1 DUP4 MSTORE DUP2 DUP5 KECCAK256 DUP5 SWAP1 SSTORE SWAP4 DUP4 MSTORE SWAP3 DUP3 SWAP1 SSTORE PUSH1 0x21 SWAP1 MSTORE KECCAK256 DUP1 SLOAD PUSH1 0xFF NOT AND SWAP1 SSTORE PUSH2 0x20B2 JUMP JUMPDEST PUSH1 0x1 PUSH1 0x1 PUSH1 0xA0 SHL SUB DUP2 AND PUSH1 0x0 SWAP1 DUP2 MSTORE PUSH1 0x1F PUSH1 0x20 MSTORE PUSH1 0x40 SWAP1 KECCAK256 SLOAD ISZERO DUP1 ISZERO SWAP1 PUSH2 0x1CE8 JUMPI POP PUSH1 0x1 PUSH1 0x1 PUSH1 0xA0 SHL SUB DUP2 AND PUSH1 0x0 SWAP1 DUP2 MSTORE PUSH1 0x1F PUSH1 0x20 MSTORE PUSH1 0x40 DUP2 KECCAK256 SLOAD PUSH1 0x5 SLOAD PUSH2 0x1CE6 SWAP2 SWAP1 PUSH2 0x5960 JUMP JUMPDEST GT JUMPDEST ISZERO PUSH2 0x20B2 JUMPI PUSH1 0x1 PUSH1 0x1 PUSH1 0xA0 SHL SUB DUP2 AND PUSH1 0x0 DUP2 DUP2 MSTORE PUSH1 0x1D PUSH1 0x20 SWAP1 DUP2 MSTORE PUSH1 0x40 DUP1 DUP4 KECCAK256 PUSH1 0x1F DUP4 MSTORE DUP2 DUP5 KECCAK256 SLOAD DUP5 MSTORE DUP3 MSTORE DUP1 DUP4 KECCAK256 SLOAD SWAP4 DUP4 MSTORE PUSH1 0x15 SWAP1 SWAP2 MSTORE DUP2 KECCAK256 DUP1 SLOAD DUP4 SWAP3 SWAP1 PUSH2 0x1D32 SWAP1 DUP5 SWAP1 PUSH2 0x5914 JUMP JUMPDEST SWAP1 SWAP2 SSTORE POP POP PUSH1 0x1 PUSH1 0x1 PUSH1 0xA0 SHL SUB DUP3 AND PUSH1 0x0 SWAP1 DUP2 MSTORE PUSH1 0x1E PUSH1 0x20 MSTORE PUSH1 0x40 DUP2 KECCAK256 DUP1 SLOAD DUP4 SWAP3 SWAP1 PUSH2 0x1D5F SWAP1 DUP5 SWAP1 PUSH2 0x5914 JUMP JUMPDEST SWAP1 SWAP2 SSTORE POP POP PUSH1 0x1 PUSH1 0x1 PUSH1 0xA0 SHL SUB DUP3 AND PUSH1 0x0 SWAP1 DUP2 MSTORE PUSH1 0x1F PUSH1 0x20 MSTORE PUSH1 0x40 SWAP1 KECCAK256 SLOAD PUSH1 0x6 SLOAD PUSH2 0x1D8B SWAP1 PUSH1 0x1 PUSH2 0x5914 JUMP JUMPDEST GT ISZERO PUSH2 0x1E69 JUMPI PUSH1 0x1 PUSH1 0x1 PUSH1 0xA0 SHL SUB DUP3 AND PUSH1 0x0 SWAP1 DUP2 MSTORE PUSH1 0x1F PUSH1 0x20 SWAP1 DUP2 MSTORE PUSH1 0x40 DUP1 DUP4 KECCAK256 SLOAD DUP4 MSTORE PUSH1 0x1C SWAP2 DUP3 SWAP1 MSTORE DUP3 KECCAK256 SLOAD PUSH1 0x6 SLOAD PUSH8 0xDE0B6B3A7640000 SWAP4 SWAP2 SWAP3 SWAP2 SWAP1 PUSH2 0x1DD4 SWAP1 PUSH1 0x1 PUSH2 0x5914 JUMP JUMPDEST DUP2 MSTORE PUSH1 0x20 ADD SWAP1 DUP2 MSTORE PUSH1 0x20 ADD PUSH1 0x0 KECCAK256 SLOAD PUSH2 0x1DED SWAP2 SWAP1 PUSH2 0x5960 JUMP JUMPDEST PUSH1 0x1 PUSH1 0x1 PUSH1 0xA0 SHL SUB DUP5 AND PUSH1 0x0 SWAP1 DUP2 MSTORE PUSH1 0x1D PUSH1 0x20 SWAP1 DUP2 MSTORE PUSH1 0x40 DUP1 DUP4 KECCAK256 PUSH1 0x1F DUP4 MSTORE DUP2 DUP5 KECCAK256 SLOAD DUP5 MSTORE SWAP1 SWAP2 MSTORE SWAP1 KECCAK256 SLOAD PUSH2 0x1E22 SWAP2 SWAP1 PUSH2 0x5927 JUMP JUMPDEST PUSH2 0x1E2C SWAP2 SWAP1 PUSH2 0x593E JUMP JUMPDEST PUSH1 0x1 PUSH1 0x1 PUSH1 0xA0 SHL SUB DUP4 AND PUSH1 0x0 SWAP1 DUP2 MSTORE PUSH1 0x16 PUSH1 0x20 MSTORE PUSH1 0x40 SWAP1 KECCAK256 SLOAD PUSH2 0x1E4F SWAP2 SWAP1 PUSH2 0x5914 JUMP JUMPDEST PUSH1 0x1 PUSH1 0x1 PUSH1 0xA0 SHL SUB DUP4 AND PUSH1 0x0 SWAP1 DUP2 MSTORE PUSH1 0x16 PUSH1 0x20 MSTORE PUSH1 0x40 SWAP1 KECCAK256 SSTORE JUMPDEST PUSH1 0x1 PUSH1 0x1 PUSH1 0xA0 SHL SUB DUP3 AND PUSH1 0x0 DUP2 DUP2 MSTORE PUSH1 0x1D PUSH1 0x20 SWAP1 DUP2 MSTORE PUSH1 0x40 DUP1 DUP4 KECCAK256 PUSH1 0x1F DUP4 MSTORE DUP2 DUP5 KECCAK256 DUP1 SLOAD DUP6 MSTORE SWAP1 DUP4 MSTORE DUP2 DUP5 KECCAK256 DUP5 SWAP1 SSTORE SWAP4 DUP4 MSTORE SWAP3 DUP3 SWAP1 SSTORE DUP1 MSTORE KECCAK256 SLOAD ISZERO PUSH2 0x20B0 JUMPI PUSH1 0x1 PUSH1 0x1 PUSH1 0xA0 SHL SUB DUP3 AND PUSH1 0x0 SWAP1 DUP2 MSTORE PUSH1 0x20 DUP1 MSTORE PUSH1 0x40 DUP2 KECCAK256 SLOAD PUSH1 0x5 SLOAD PUSH2 0x1ECD SWAP2 SWAP1 PUSH2 0x5960 JUMP JUMPDEST GT ISZERO PUSH2 0x2085 JUMPI PUSH1 0x1 PUSH1 0x1 PUSH1 0xA0 SHL SUB DUP3 AND PUSH1 0x0 DUP2 DUP2 MSTORE PUSH1 0x1D PUSH1 0x20 SWAP1 DUP2 MSTORE PUSH1 0x40 DUP1 DUP4 KECCAK256 DUP3 DUP1 MSTORE DUP2 DUP5 KECCAK256 SLOAD DUP5 MSTORE DUP3 MSTORE DUP1 DUP4 KECCAK256 SLOAD SWAP4 DUP4 MSTORE PUSH1 0x15 SWAP1 SWAP2 MSTORE DUP2 KECCAK256 DUP1 SLOAD DUP4 SWAP3 SWAP1 PUSH2 0x1F17 SWAP1 DUP5 SWAP1 PUSH2 0x5914 JUMP JUMPDEST SWAP1 SWAP2 SSTORE POP POP PUSH1 0x1 PUSH1 0x1 PUSH1 0xA0 SHL SUB DUP4 AND PUSH1 0x0 SWAP1 DUP2 MSTORE PUSH1 0x1E PUSH1 0x20 MSTORE PUSH1 0x40 DUP2 KECCAK256 DUP1 SLOAD DUP4 SWAP3 SWAP1 PUSH2 0x1F44 SWAP1 DUP5 SWAP1 PUSH2 0x5914 JUMP JUMPDEST SWAP1 SWAP2 SSTORE POP POP PUSH1 0x1 PUSH1 0x1 PUSH1 0xA0 SHL SUB DUP4 AND PUSH1 0x0 SWAP1 DUP2 MSTORE PUSH1 0x20 DUP1 MSTORE PUSH1 0x40 SWAP1 KECCAK256 SLOAD PUSH1 0x6 SLOAD PUSH2 0x1F6F SWAP1 PUSH1 0x1 PUSH2 0x5914 JUMP JUMPDEST GT ISZERO PUSH2 0x204A JUMPI PUSH1 0x1 PUSH1 0x1 PUSH1 0xA0 SHL SUB DUP4 AND PUSH1 0x0 SWAP1 DUP2 MSTORE PUSH1 0x20 DUP1 DUP1 MSTORE PUSH1 0x40 DUP1 DUP4 KECCAK256 SLOAD DUP4 MSTORE PUSH1 0x1C SWAP2 DUP3 SWAP1 MSTORE DUP3 KECCAK256 SLOAD PUSH1 0x6 SLOAD PUSH8 0xDE0B6B3A7640000 SWAP4 SWAP2 SWAP3 SWAP2 SWAP1 PUSH2 0x1FB6 SWAP1 PUSH1 0x1 PUSH2 0x5914 JUMP JUMPDEST DUP2 MSTORE PUSH1 0x20 ADD SWAP1 DUP2 MSTORE PUSH1 0x20 ADD PUSH1 0x0 KECCAK256 SLOAD PUSH2 0x1FCF SWAP2 SWAP1 PUSH2 0x5960 JUMP JUMPDEST PUSH1 0x1 PUSH1 0x1 PUSH1 0xA0 SHL SUB DUP6 AND PUSH1 0x0 SWAP1 DUP2 MSTORE PUSH1 0x1D PUSH1 0x20 SWAP1 DUP2 MSTORE PUSH1 0x40 DUP1 DUP4 KECCAK256 DUP3 DUP1 MSTORE DUP2 DUP5 KECCAK256 SLOAD DUP5 MSTORE SWAP1 SWAP2 MSTORE SWAP1 KECCAK256 SLOAD PUSH2 0x2003 SWAP2 SWAP1 PUSH2 0x5927 JUMP JUMPDEST PUSH2 0x200D SWAP2 SWAP1 PUSH2 0x593E JUMP JUMPDEST PUSH1 0x1 PUSH1 0x1 PUSH1 0xA0 SHL SUB DUP5 AND PUSH1 0x0 SWAP1 DUP2 MSTORE PUSH1 0x16 PUSH1 0x20 MSTORE PUSH1 0x40 SWAP1 KECCAK256 SLOAD PUSH2 0x2030 SWAP2 SWAP1 PUSH2 0x5914 JUMP JUMPDEST PUSH1 0x1 PUSH1 0x1 PUSH1 0xA0 SHL SUB DUP5 AND PUSH1 0x0 SWAP1 DUP2 MSTORE PUSH1 0x16 PUSH1 0x20 MSTORE PUSH1 0x40 SWAP1 KECCAK256 SSTORE JUMPDEST POP PUSH1 0x1 PUSH1 0x1 PUSH1 0xA0 SHL SUB DUP3 AND PUSH1 0x0 DUP2 DUP2 MSTORE PUSH1 0x1D PUSH1 0x20 SWAP1 DUP2 MSTORE PUSH1 0x40 DUP1 DUP4 KECCAK256 DUP3 DUP1 MSTORE DUP2 DUP5 KECCAK256 DUP1 SLOAD DUP6 MSTORE SWAP1 DUP4 MSTORE SWAP1 DUP4 KECCAK256 DUP4 SWAP1 SSTORE SWAP3 DUP3 MSTORE DUP1 MSTORE SWAP1 SSTORE PUSH2 0x20B0 JUMP JUMPDEST PUSH1 0x1 PUSH1 0x1 PUSH1 0xA0 SHL SUB DUP3 AND PUSH1 0x0 SWAP1 DUP2 MSTORE PUSH1 0x20 DUP1 DUP1 MSTORE PUSH1 0x40 DUP1 DUP4 KECCAK256 DUP1 SLOAD PUSH1 0x1F DUP5 MSTORE SWAP2 DUP5 KECCAK256 SWAP2 SWAP1 SWAP2 SSTORE SWAP1 DUP1 MSTORE SSTORE JUMPDEST POP JUMPDEST PUSH1 0x0 PUSH1 0x1E PUSH1 0x0 PUSH2 0x20C0 PUSH2 0x5004 JUMP JUMPDEST PUSH1 0x1 PUSH1 0x1 PUSH1 0xA0 SHL SUB AND PUSH1 0x1 PUSH1 0x1 PUSH1 0xA0 SHL SUB AND DUP2 MSTORE PUSH1 0x20 ADD SWAP1 DUP2 MSTORE PUSH1 0x20 ADD PUSH1 0x0 KECCAK256 SLOAD PUSH1 0x15 PUSH1 0x0 PUSH2 0x20ED PUSH2 0x5004 JUMP JUMPDEST PUSH1 0x1 PUSH1 0x1 PUSH1 0xA0 SHL SUB AND PUSH1 0x1 PUSH1 0x1 PUSH1 0xA0 SHL SUB AND DUP2 MSTORE PUSH1 0x20 ADD SWAP1 DUP2 MSTORE PUSH1 0x20 ADD PUSH1 0x0 KECCAK256 SLOAD PUSH2 0x2118 SWAP2 SWAP1 PUSH2 0x5960 JUMP JUMPDEST SWAP1 POP PUSH1 0x0 DUP2 GT PUSH2 0x216A JUMPI PUSH1 0x40 MLOAD PUSH3 0x461BCD PUSH1 0xE5 SHL DUP2 MSTORE PUSH1 0x20 PUSH1 0x4 DUP3 ADD MSTORE PUSH1 0x1D PUSH1 0x24 DUP3 ADD MSTORE PUSH32 0x44656230783A206163636F756E7420686173206E6F2072657761726473000000 PUSH1 0x44 DUP3 ADD MSTORE PUSH1 0x64 ADD PUSH2 0x9A9 JUMP JUMPDEST DUP1 PUSH1 0x15 PUSH1 0x0 PUSH2 0x2177 PUSH2 0x5004 JUMP JUMPDEST PUSH1 0x1 PUSH1 0x1 PUSH1 0xA0 SHL SUB AND PUSH1 0x1 PUSH1 0x1 PUSH1 0xA0 SHL SUB AND DUP2 MSTORE PUSH1 0x20 ADD SWAP1 DUP2 MSTORE PUSH1 0x20 ADD PUSH1 0x0 KECCAK256 PUSH1 0x0 DUP3 DUP3 SLOAD PUSH2 0x21A6 SWAP2 SWAP1 PUSH2 0x5960 JUMP JUMPDEST SWAP1 SWAP2 SSTORE POP POP PUSH1 0x8 SLOAD PUSH1 0x6 SLOAD SUB PUSH2 0x21D3 JUMPI DUP1 PUSH1 0xA PUSH1 0x0 DUP3 DUP3 SLOAD PUSH2 0x21C8 SWAP2 SWAP1 PUSH2 0x5914 JUMP JUMPDEST SWAP1 SWAP2 SSTORE POP PUSH2 0x2203 SWAP1 POP JUMP JUMPDEST PUSH1 0x5 SLOAD PUSH1 0x0 SWAP1 DUP2 MSTORE PUSH1 0x19 PUSH1 0x20 MSTORE PUSH1 0x40 SWAP1 KECCAK256 SLOAD PUSH2 0x21F0 SWAP1 DUP3 SWAP1 PUSH2 0x5960 JUMP JUMPDEST PUSH1 0x5 SLOAD PUSH1 0x0 SWAP1 DUP2 MSTORE PUSH1 0x19 PUSH1 0x20 MSTORE PUSH1 0x40 SWAP1 KECCAK256 SSTORE JUMPDEST PUSH1 0x1 SLOAD PUSH1 0x1 PUSH1 0x1 PUSH1 0xA0 SHL SUB AND PUSH4 0x9A49090E PUSH2 0x221C PUSH2 0x5004 JUMP JUMPDEST PUSH1 0x40 MLOAD PUSH1 0x1 PUSH1 0x1 PUSH1 0xE0 SHL SUB NOT PUSH1 0xE0 DUP5 SWAP1 SHL AND DUP2 MSTORE PUSH1 0x1 PUSH1 0x1 PUSH1 0xA0 SHL SUB SWAP1 SWAP2 AND PUSH1 0x4 DUP3 ADD MSTORE PUSH1 0x24 DUP2 ADD DUP5 SWAP1 MSTORE PUSH1 0x44 ADD PUSH1 0x0 PUSH1 0x40 MLOAD DUP1 DUP4 SUB DUP2 PUSH1 0x0 DUP8 DUP1 EXTCODESIZE ISZERO DUP1 ISZERO PUSH2 0x2264 JUMPI PUSH1 0x0 DUP1 REVERT JUMPDEST POP GAS CALL ISZERO DUP1 ISZERO PUSH2 0x2278 JUMPI RETURNDATASIZE PUSH1 0x0 DUP1 RETURNDATACOPY RETURNDATASIZE PUSH1 0x0 REVERT JUMPDEST POP POP POP POP PUSH2 0x2284 PUSH2 0x5004 JUMP JUMPDEST PUSH1 0x1 PUSH1 0x1 PUSH1 0xA0 SHL SUB AND PUSH1 0x5 SLOAD PUSH32 0x3300BDB359CFB956935BCA32E9DB727413EAB1CA84341F2E36CAEA85BB796968 DUP4 PUSH1 0x40 MLOAD PUSH2 0x165B SWAP2 DUP2 MSTORE PUSH1 0x20 ADD SWAP1 JUMP JUMPDEST PUSH1 0x2 PUSH1 0x0 SLOAD SUB PUSH2 0x22E3 JUMPI PUSH1 0x40 MLOAD PUSH3 0x461BCD PUSH1 0xE5 SHL DUP2 MSTORE PUSH1 0x4 ADD PUSH2 0x9A9 SWAP1 PUSH2 0x58C7 JUMP JUMPDEST PUSH1 0x2 PUSH1 0x0 SWAP1 DUP2 SSTORE PUSH2 0x22F2 PUSH2 0x4496 JUMP JUMPDEST SWAP1 POP PUSH1 0x5 SLOAD DUP2 GT ISZERO PUSH2 0x2304 JUMPI PUSH1 0x5 DUP2 SWAP1 SSTORE JUMPDEST PUSH1 0x8 SLOAD PUSH1 0x5 SLOAD EQ PUSH2 0x2327 JUMPI PUSH1 0x6 SLOAD PUSH2 0x231D SWAP1 PUSH1 0x1 PUSH2 0x5914 JUMP JUMPDEST PUSH1 0x7 SSTORE PUSH1 0x8 SLOAD PUSH1 0x6 SSTORE JUMPDEST PUSH1 0x6 SLOAD PUSH1 0x5 SLOAD GT DUP1 ISZERO PUSH2 0x235B JUMPI POP PUSH1 0x1C PUSH1 0x0 PUSH1 0x6 SLOAD PUSH1 0x1 PUSH2 0x2348 SWAP2 SWAP1 PUSH2 0x5914 JUMP JUMPDEST DUP2 MSTORE PUSH1 0x20 ADD SWAP1 DUP2 MSTORE PUSH1 0x20 ADD PUSH1 0x0 KECCAK256 SLOAD PUSH1 0x0 EQ JUMPDEST ISZERO PUSH2 0x23E0 JUMPI PUSH1 0x6 SLOAD PUSH1 0x0 SWAP1 DUP2 MSTORE PUSH1 0x19 PUSH1 0x20 SWAP1 DUP2 MSTORE PUSH1 0x40 DUP1 DUP4 KECCAK256 SLOAD PUSH1 0x1B SWAP1 SWAP3 MSTORE DUP3 KECCAK256 SLOAD PUSH2 0x2390 SWAP1 PUSH8 0xDE0B6B3A7640000 SWAP1 PUSH2 0x5927 JUMP JUMPDEST PUSH2 0x239A SWAP2 SWAP1 PUSH2 0x593E JUMP JUMPDEST PUSH1 0x7 SLOAD PUSH1 0x0 SWAP1 DUP2 MSTORE PUSH1 0x1C PUSH1 0x20 MSTORE PUSH1 0x40 SWAP1 KECCAK256 SLOAD SWAP1 SWAP2 POP PUSH2 0x23BA SWAP1 DUP3 SWAP1 PUSH2 0x5914 JUMP JUMPDEST PUSH1 0x1C PUSH1 0x0 PUSH1 0x6 SLOAD PUSH1 0x1 PUSH2 0x23CD SWAP2 SWAP1 PUSH2 0x5914 JUMP JUMPDEST DUP2 MSTORE PUSH1 0x20 DUP2 ADD SWAP2 SWAP1 SWAP2 MSTORE PUSH1 0x40 ADD PUSH1 0x0 KECCAK256 SSTORE POP JUMPDEST PUSH2 0x23F0 PUSH2 0x23EB PUSH2 0x5004 JUMP JUMPDEST PUSH2 0x5048 JUMP JUMPDEST PUSH1 0x0 PUSH1 0x14 PUSH1 0x0 PUSH2 0x23FE PUSH2 0x5004 JUMP JUMPDEST PUSH1 0x1 PUSH1 0x1 PUSH1 0xA0 SHL SUB AND PUSH1 0x1 PUSH1 0x1 PUSH1 0xA0 SHL SUB AND DUP2 MSTORE PUSH1 0x20 ADD SWAP1 DUP2 MSTORE PUSH1 0x20 ADD PUSH1 0x0 KECCAK256 SLOAD SWAP1 POP PUSH1 0x0 DUP2 GT PUSH2 0x2441 JUMPI PUSH1 0x40 MLOAD PUSH3 0x461BCD PUSH1 0xE5 SHL DUP2 MSTORE PUSH1 0x4 ADD PUSH2 0x9A9 SWAP1 PUSH2 0x5995 JUMP JUMPDEST PUSH1 0x0 PUSH1 0x14 PUSH1 0x0 PUSH2 0x244F PUSH2 0x5004 JUMP JUMPDEST PUSH1 0x1 PUSH1 0x1 PUSH1 0xA0 SHL SUB AND DUP2 MSTORE PUSH1 0x20 DUP2 ADD SWAP2 SWAP1 SWAP2 MSTORE PUSH1 0x40 ADD PUSH1 0x0 KECCAK256 SSTORE PUSH2 0x247A PUSH2 0x2474 PUSH2 0x5004 JUMP JUMPDEST DUP3 PUSH2 0x528B JUMP JUMPDEST PUSH2 0x2482 PUSH2 0x5004 JUMP JUMPDEST PUSH1 0x1 PUSH1 0x1 PUSH1 0xA0 SHL SUB AND PUSH2 0x2493 PUSH2 0x4496 JUMP JUMPDEST PUSH1 0x40 MLOAD DUP4 DUP2 MSTORE PUSH32 0x71080B6B70140BAB68812FF30DD24DD3F4FAFDB253085461FCC624AB5F1BBE9B SWAP1 PUSH1 0x20 ADD JUMPDEST PUSH1 0x40 MLOAD DUP1 SWAP2 SUB SWAP1 LOG3 POP POP PUSH1 0x1 PUSH1 0x0 SSTORE JUMP JUMPDEST PUSH1 0x2 PUSH1 0x0 SLOAD SUB PUSH2 0x24F2 JUMPI PUSH1 0x40 MLOAD PUSH3 0x461BCD PUSH1 0xE5 SHL DUP2 MSTORE PUSH1 0x4 ADD PUSH2 0x9A9 SWAP1 PUSH2 0x58C7 JUMP JUMPDEST PUSH1 0x2 PUSH1 0x0 SWAP1 DUP2 SSTORE PUSH2 0x2501 PUSH2 0x4496 JUMP JUMPDEST SWAP1 POP PUSH1 0x5 SLOAD DUP2 GT ISZERO PUSH2 0x2513 JUMPI PUSH1 0x5 DUP2 SWAP1 SSTORE JUMPDEST PUSH1 0x8 SLOAD PUSH1 0x5 SLOAD EQ PUSH2 0x2536 JUMPI PUSH1 0x6 SLOAD PUSH2 0x252C SWAP1 PUSH1 0x1 PUSH2 0x5914 JUMP JUMPDEST PUSH1 0x7 SSTORE PUSH1 0x8 SLOAD PUSH1 0x6 SSTORE JUMPDEST PUSH1 0x6 SLOAD PUSH1 0x5 SLOAD GT DUP1 ISZERO PUSH2 0x256A JUMPI POP PUSH1 0x1C PUSH1 0x0 PUSH1 0x6 SLOAD PUSH1 0x1 PUSH2 0x2557 SWAP2 SWAP1 PUSH2 0x5914 JUMP JUMPDEST DUP2 MSTORE PUSH1 0x20 ADD SWAP1 DUP2 MSTORE PUSH1 0x20 ADD PUSH1 0x0 KECCAK256 SLOAD PUSH1 0x0 EQ JUMPDEST ISZERO PUSH2 0x25EF JUMPI PUSH1 0x6 SLOAD PUSH1 0x0 SWAP1 DUP2 MSTORE PUSH1 0x19 PUSH1 0x20 SWAP1 DUP2 MSTORE PUSH1 0x40 DUP1 DUP4 KECCAK256 SLOAD PUSH1 0x1B SWAP1 SWAP3 MSTORE DUP3 KECCAK256 SLOAD PUSH2 0x259F SWAP1 PUSH8 0xDE0B6B3A7640000 SWAP1 PUSH2 0x5927 JUMP JUMPDEST PUSH2 0x25A9 SWAP2 SWAP1 PUSH2 0x593E JUMP JUMPDEST PUSH1 0x7 SLOAD PUSH1 0x0 SWAP1 DUP2 MSTORE PUSH1 0x1C PUSH1 0x20 MSTORE PUSH1 0x40 SWAP1 KECCAK256 SLOAD SWAP1 SWAP2 POP PUSH2 0x25C9 SWAP1 DUP3 SWAP1 PUSH2 0x5914 JUMP JUMPDEST PUSH1 0x1C PUSH1 0x0 PUSH1 0x6 SLOAD PUSH1 0x1 PUSH2 0x25DC SWAP2 SWAP1 PUSH2 0x5914 JUMP JUMPDEST DUP2 MSTORE PUSH1 0x20 DUP2 ADD SWAP2 SWAP1 SWAP2 MSTORE PUSH1 0x40 ADD PUSH1 0x0 KECCAK256 SSTORE POP JUMPDEST PUSH2 0x25FA PUSH2 0x23EB PUSH2 0x5004 JUMP JUMPDEST PUSH1 0x0 PUSH1 0x17 PUSH1 0x0 PUSH2 0x2608 PUSH2 0x5004 JUMP JUMPDEST PUSH1 0x1 PUSH1 0x1 PUSH1 0xA0 SHL SUB AND PUSH1 0x1 PUSH1 0x1 PUSH1 0xA0 SHL SUB AND DUP2 MSTORE PUSH1 0x20 ADD SWAP1 DUP2 MSTORE PUSH1 0x20 ADD PUSH1 0x0 KECCAK256 SLOAD SWAP1 POP PUSH1 0x0 DUP2 GT PUSH2 0x267B JUMPI PUSH1 0x40 MLOAD PUSH3 0x461BCD PUSH1 0xE5 SHL DUP2 MSTORE PUSH1 0x20 PUSH1 0x4 DUP3 ADD MSTORE PUSH1 0x1D PUSH1 0x24 DUP3 ADD MSTORE PUSH32 0x44656230783A206163636F756E7420686173206E6F2072657761726473000000 PUSH1 0x44 DUP3 ADD MSTORE PUSH1 0x64 ADD PUSH2 0x9A9 JUMP JUMPDEST PUSH1 0x0 PUSH1 0x17 PUSH1 0x0 PUSH2 0x2689 PUSH2 0x5004 JUMP JUMPDEST PUSH1 0x1 PUSH1 0x1 PUSH1 0xA0 SHL SUB AND DUP2 MSTORE PUSH1 0x20 DUP2 ADD SWAP2 SWAP1 SWAP2 MSTORE PUSH1 0x40 ADD PUSH1 0x0 KECCAK256 SSTORE PUSH1 0x8 SLOAD PUSH1 0x6 SLOAD SUB PUSH2 0x26CB JUMPI DUP1 PUSH1 0xA PUSH1 0x0 DUP3 DUP3 SLOAD PUSH2 0x26C0 SWAP2 SWAP1 PUSH2 0x5914 JUMP JUMPDEST SWAP1 SWAP2 SSTORE POP PUSH2 0x26FB SWAP1 POP JUMP JUMPDEST PUSH1 0x5 SLOAD PUSH1 0x0 SWAP1 DUP2 MSTORE PUSH1 0x19 PUSH1 0x20 MSTORE PUSH1 0x40 SWAP1 KECCAK256 SLOAD PUSH2 0x26E8 SWAP1 DUP3 SWAP1 PUSH2 0x5960 JUMP JUMPDEST PUSH1 0x5 SLOAD PUSH1 0x0 SWAP1 DUP2 MSTORE PUSH1 0x19 PUSH1 0x20 MSTORE PUSH1 0x40 SWAP1 KECCAK256 SSTORE JUMPDEST PUSH1 0x1 SLOAD PUSH1 0x1 PUSH1 0x1 PUSH1 0xA0 SHL SUB AND PUSH4 0x9A49090E PUSH2 0x2714 PUSH2 0x5004 JUMP JUMPDEST PUSH1 0x40 MLOAD PUSH1 0x1 PUSH1 0x1 PUSH1 0xE0 SHL SUB NOT PUSH1 0xE0 DUP5 SWAP1 SHL AND DUP2 MSTORE PUSH1 0x1 PUSH1 0x1 PUSH1 0xA0 SHL SUB SWAP1 SWAP2 AND PUSH1 0x4 DUP3 ADD MSTORE PUSH1 0x24 DUP2 ADD DUP5 SWAP1 MSTORE PUSH1 0x44 ADD PUSH1 0x0 PUSH1 0x40 MLOAD DUP1 DUP4 SUB DUP2 PUSH1 0x0 DUP8 DUP1 EXTCODESIZE ISZERO DUP1 ISZERO PUSH2 0x275C JUMPI PUSH1 0x0 DUP1 REVERT JUMPDEST POP GAS CALL ISZERO DUP1 ISZERO PUSH2 0x2770 JUMPI RETURNDATASIZE PUSH1 0x0 DUP1 RETURNDATACOPY RETURNDATASIZE PUSH1 0x0 REVERT JUMPDEST POP POP POP POP PUSH2 0x277C PUSH2 0x5004 JUMP JUMPDEST PUSH1 0x1 PUSH1 0x1 PUSH1 0xA0 SHL SUB AND PUSH1 0x5 SLOAD PUSH32 0x73D4ECBE623E0C89F3CFB75A853104D35D1105E8EC5F0EC6E4BB924DA1FFB292 DUP4 PUSH1 0x40 MLOAD PUSH2 0x24BF SWAP2 DUP2 MSTORE PUSH1 0x20 ADD SWAP1 JUMP JUMPDEST DUP1 PUSH1 0x0 GAS SWAP1 POP PUSH1 0x0 PUSH2 0x27C9 PUSH2 0x4496 JUMP JUMPDEST SWAP1 POP PUSH1 0x5 SLOAD DUP2 GT ISZERO PUSH2 0x27DB JUMPI PUSH1 0x5 DUP2 SWAP1 SSTORE JUMPDEST PUSH1 0x8 SLOAD PUSH1 0x5 SLOAD EQ PUSH2 0x27FE JUMPI PUSH1 0x6 SLOAD PUSH2 0x27F4 SWAP1 PUSH1 0x1 PUSH2 0x5914 JUMP JUMPDEST PUSH1 0x7 SSTORE PUSH1 0x8 SLOAD PUSH1 0x6 SSTORE JUMPDEST PUSH1 0x6 SLOAD PUSH1 0x5 SLOAD GT DUP1 ISZERO PUSH2 0x2832 JUMPI POP PUSH1 0x1C PUSH1 0x0 PUSH1 0x6 SLOAD PUSH1 0x1 PUSH2 0x281F SWAP2 SWAP1 PUSH2 0x5914 JUMP JUMPDEST DUP2 MSTORE PUSH1 0x20 ADD SWAP1 DUP2 MSTORE PUSH1 0x20 ADD PUSH1 0x0 KECCAK256 SLOAD PUSH1 0x0 EQ JUMPDEST ISZERO PUSH2 0x28B7 JUMPI PUSH1 0x6 SLOAD PUSH1 0x0 SWAP1 DUP2 MSTORE PUSH1 0x19 PUSH1 0x20 SWAP1 DUP2 MSTORE PUSH1 0x40 DUP1 DUP4 KECCAK256 SLOAD PUSH1 0x1B SWAP1 SWAP3 MSTORE DUP3 KECCAK256 SLOAD PUSH2 0x2867 SWAP1 PUSH8 0xDE0B6B3A7640000 SWAP1 PUSH2 0x5927 JUMP JUMPDEST PUSH2 0x2871 SWAP2 SWAP1 PUSH2 0x593E JUMP JUMPDEST PUSH1 0x7 SLOAD PUSH1 0x0 SWAP1 DUP2 MSTORE PUSH1 0x1C PUSH1 0x20 MSTORE PUSH1 0x40 SWAP1 KECCAK256 SLOAD SWAP1 SWAP2 POP PUSH2 0x2891 SWAP1 DUP3 SWAP1 PUSH2 0x5914 JUMP JUMPDEST PUSH1 0x1C PUSH1 0x0 PUSH1 0x6 SLOAD PUSH1 0x1 PUSH2 0x28A4 SWAP2 SWAP1 PUSH2 0x5914 JUMP JUMPDEST DUP2 MSTORE PUSH1 0x20 DUP2 ADD SWAP2 SWAP1 SWAP2 MSTORE PUSH1 0x40 ADD PUSH1 0x0 KECCAK256 SSTORE POP JUMPDEST PUSH1 0x5 SLOAD PUSH1 0x0 SWAP1 DUP2 MSTORE PUSH1 0x18 PUSH1 0x20 MSTORE PUSH1 0x40 DUP2 KECCAK256 SLOAD SWAP1 SUB PUSH2 0x2A17 JUMPI PUSH1 0x2 SLOAD PUSH1 0x3 DUP2 SWAP1 SSTORE PUSH1 0x0 SWAP1 PUSH2 0x2724 SWAP1 PUSH2 0x28EA SWAP1 PUSH2 0x2710 PUSH2 0x5927 JUMP JUMPDEST PUSH2 0x28F4 SWAP2 SWAP1 PUSH2 0x593E JUMP JUMPDEST PUSH1 0x2 DUP2 SWAP1 SSTORE PUSH1 0x5 DUP1 SLOAD PUSH1 0x0 SWAP1 DUP2 MSTORE PUSH1 0x18 PUSH1 0x20 SWAP1 DUP2 MSTORE PUSH1 0x40 DUP1 DUP4 KECCAK256 DUP6 SWAP1 SSTORE PUSH1 0x9 DUP6 SWAP1 SSTORE SWAP3 SLOAD PUSH1 0x8 SSTORE PUSH1 0x6 SLOAD DUP3 MSTORE PUSH1 0x19 SWAP1 MSTORE KECCAK256 SLOAD SWAP1 SWAP2 POP PUSH2 0x2934 SWAP1 DUP3 SWAP1 PUSH2 0x5914 JUMP JUMPDEST PUSH1 0x8 SLOAD PUSH1 0x0 SWAP1 DUP2 MSTORE PUSH1 0x19 PUSH1 0x20 MSTORE PUSH1 0x40 DUP2 KECCAK256 DUP1 SLOAD SWAP1 SWAP2 SWAP1 PUSH2 0x2955 SWAP1 DUP5 SWAP1 PUSH2 0x5914 JUMP JUMPDEST SWAP1 SWAP2 SSTORE POP POP PUSH1 0x4 SLOAD ISZERO PUSH2 0x2991 JUMPI PUSH1 0x4 SLOAD PUSH1 0x8 SLOAD PUSH1 0x0 SWAP1 DUP2 MSTORE PUSH1 0x19 PUSH1 0x20 MSTORE PUSH1 0x40 DUP2 KECCAK256 DUP1 SLOAD SWAP1 SWAP2 SWAP1 PUSH2 0x2986 SWAP1 DUP5 SWAP1 PUSH2 0x5914 JUMP JUMPDEST SWAP1 SWAP2 SSTORE POP POP PUSH1 0x0 PUSH1 0x4 SSTORE JUMPDEST PUSH1 0xA SLOAD ISZERO PUSH2 0x29C8 JUMPI PUSH1 0xA SLOAD PUSH1 0x8 SLOAD PUSH1 0x0 SWAP1 DUP2 MSTORE PUSH1 0x19 PUSH1 0x20 MSTORE PUSH1 0x40 DUP2 KECCAK256 DUP1 SLOAD SWAP1 SWAP2 SWAP1 PUSH2 0x29BD SWAP1 DUP5 SWAP1 PUSH2 0x5960 JUMP JUMPDEST SWAP1 SWAP2 SSTORE POP POP PUSH1 0x0 PUSH1 0xA SSTORE JUMPDEST PUSH1 0x5 SLOAD PUSH1 0x8 SLOAD PUSH1 0x0 SWAP1 DUP2 MSTORE PUSH1 0x19 PUSH1 0x20 SWAP1 DUP2 MSTORE PUSH1 0x40 SWAP2 DUP3 SWAP1 KECCAK256 SLOAD DUP3 MLOAD DUP6 DUP2 MSTORE SWAP2 DUP3 ADD MSTORE PUSH32 0x666A61C1092F5B86C2CFE6EA1AD0D9A36032C4FB92D285B4E43F662D48F19B4 SWAP2 ADD PUSH1 0x40 MLOAD DUP1 SWAP2 SUB SWAP1 LOG2 POP JUMPDEST PUSH2 0x2A1F PUSH2 0x5004 JUMP JUMPDEST PUSH1 0x1 PUSH1 0x1 PUSH1 0xA0 SHL SUB DUP2 AND PUSH1 0x0 SWAP1 DUP2 MSTORE PUSH1 0x11 PUSH1 0x20 MSTORE PUSH1 0x40 SWAP1 KECCAK256 SLOAD PUSH1 0x5 SLOAD GT DUP1 ISZERO PUSH2 0x2A5F JUMPI POP PUSH1 0x1 PUSH1 0x1 PUSH1 0xA0 SHL SUB DUP2 AND PUSH1 0x0 SWAP1 DUP2 MSTORE PUSH1 0xF PUSH1 0x20 MSTORE PUSH1 0x40 SWAP1 KECCAK256 SLOAD ISZERO ISZERO JUMPDEST ISZERO PUSH2 0x2BC6 JUMPI PUSH1 0x1 PUSH1 0x1 PUSH1 0xA0 SHL SUB DUP2 AND PUSH1 0x0 DUP2 DUP2 MSTORE PUSH1 0x11 PUSH1 0x20 SWAP1 DUP2 MSTORE PUSH1 0x40 DUP1 DUP4 KECCAK256 SLOAD DUP4 MSTORE PUSH1 0x10 DUP3 MSTORE DUP1 DUP4 KECCAK256 SLOAD PUSH1 0x18 DUP4 MSTORE DUP2 DUP5 KECCAK256 SLOAD SWAP5 DUP5 MSTORE PUSH1 0xF SWAP1 SWAP3 MSTORE DUP3 KECCAK256 SLOAD SWAP2 SWAP3 SWAP1 SWAP2 PUSH2 0x2AAB SWAP2 SWAP1 PUSH2 0x5927 JUMP JUMPDEST PUSH2 0x2AB5 SWAP2 SWAP1 PUSH2 0x593E JUMP JUMPDEST PUSH1 0x1 PUSH1 0x1 PUSH1 0xA0 SHL SUB DUP4 AND PUSH1 0x0 SWAP1 DUP2 MSTORE PUSH1 0x15 PUSH1 0x20 MSTORE PUSH1 0x40 DUP2 KECCAK256 DUP1 SLOAD SWAP3 SWAP4 POP DUP4 SWAP3 SWAP1 SWAP2 SWAP1 PUSH2 0x2AE2 SWAP1 DUP5 SWAP1 PUSH2 0x5914 JUMP JUMPDEST SWAP1 SWAP2 SSTORE POP POP PUSH1 0x1 PUSH1 0x1 PUSH1 0xA0 SHL SUB DUP3 AND PUSH1 0x0 SWAP1 DUP2 MSTORE PUSH1 0xD PUSH1 0x20 MSTORE PUSH1 0x40 SWAP1 KECCAK256 SLOAD ISZERO PUSH2 0x2BAB JUMPI PUSH1 0x1 PUSH1 0x1 PUSH1 0xA0 SHL SUB DUP3 AND PUSH1 0x0 SWAP1 DUP2 MSTORE PUSH1 0xF PUSH1 0x20 MSTORE PUSH1 0x40 DUP2 KECCAK256 SLOAD PUSH2 0x2B28 SWAP1 DUP4 PUSH2 0x593E JUMP JUMPDEST PUSH1 0x1 PUSH1 0x1 PUSH1 0xA0 SHL SUB DUP5 AND PUSH1 0x0 SWAP1 DUP2 MSTORE PUSH1 0xD PUSH1 0x20 MSTORE PUSH1 0x40 DUP2 KECCAK256 SLOAD SWAP2 SWAP3 POP SWAP1 PUSH2 0x2710 SWAP1 PUSH2 0x2B53 SWAP1 DUP5 PUSH2 0x5927 JUMP JUMPDEST PUSH2 0x2B5D SWAP2 SWAP1 PUSH2 0x593E JUMP JUMPDEST PUSH1 0x1 PUSH1 0x1 PUSH1 0xA0 SHL SUB DUP6 AND PUSH1 0x0 SWAP1 DUP2 MSTORE PUSH1 0x15 PUSH1 0x20 MSTORE PUSH1 0x40 DUP2 KECCAK256 DUP1 SLOAD SWAP3 SWAP4 POP DUP4 SWAP3 SWAP1 SWAP2 SWAP1 PUSH2 0x2B8A SWAP1 DUP5 SWAP1 PUSH2 0x5960 JUMP JUMPDEST SWAP1 SWAP2 SSTORE POP POP POP PUSH1 0x1 PUSH1 0x1 PUSH1 0xA0 SHL SUB DUP4 AND PUSH1 0x0 SWAP1 DUP2 MSTORE PUSH1 0xD PUSH1 0x20 MSTORE PUSH1 0x40 DUP2 KECCAK256 SSTORE POP JUMPDEST POP PUSH1 0x1 PUSH1 0x1 PUSH1 0xA0 SHL SUB DUP2 AND PUSH1 0x0 SWAP1 DUP2 MSTORE PUSH1 0xF PUSH1 0x20 MSTORE PUSH1 0x40 DUP2 KECCAK256 SSTORE JUMPDEST PUSH1 0x6 SLOAD PUSH1 0x5 SLOAD GT DUP1 ISZERO PUSH2 0x2BFE JUMPI POP PUSH1 0x6 SLOAD PUSH2 0x2BE2 SWAP1 PUSH1 0x1 PUSH2 0x5914 JUMP JUMPDEST PUSH1 0x1 PUSH1 0x1 PUSH1 0xA0 SHL SUB DUP3 AND PUSH1 0x0 SWAP1 DUP2 MSTORE PUSH1 0x1A PUSH1 0x20 MSTORE PUSH1 0x40 SWAP1 KECCAK256 SLOAD EQ ISZERO JUMPDEST ISZERO PUSH2 0x2CF0 JUMPI PUSH1 0x1 PUSH1 0x1 PUSH1 0xA0 SHL SUB DUP2 AND PUSH1 0x0 SWAP1 DUP2 MSTORE PUSH1 0x1A PUSH1 0x20 SWAP1 DUP2 MSTORE PUSH1 0x40 DUP1 DUP4 KECCAK256 SLOAD DUP4 MSTORE PUSH1 0x1C SWAP2 DUP3 SWAP1 MSTORE DUP3 KECCAK256 SLOAD PUSH1 0x6 SLOAD PUSH8 0xDE0B6B3A7640000 SWAP4 SWAP2 SWAP3 SWAP2 SWAP1 PUSH2 0x2C46 SWAP1 PUSH1 0x1 PUSH2 0x5914 JUMP JUMPDEST DUP2 MSTORE PUSH1 0x20 ADD SWAP1 DUP2 MSTORE PUSH1 0x20 ADD PUSH1 0x0 KECCAK256 SLOAD PUSH2 0x2C5F SWAP2 SWAP1 PUSH2 0x5960 JUMP JUMPDEST PUSH1 0x1 PUSH1 0x1 PUSH1 0xA0 SHL SUB DUP4 AND PUSH1 0x0 SWAP1 DUP2 MSTORE PUSH1 0x15 PUSH1 0x20 MSTORE PUSH1 0x40 SWAP1 KECCAK256 SLOAD PUSH2 0x2C82 SWAP2 SWAP1 PUSH2 0x5927 JUMP JUMPDEST PUSH2 0x2C8C SWAP2 SWAP1 PUSH2 0x593E JUMP JUMPDEST PUSH1 0x1 PUSH1 0x1 PUSH1 0xA0 SHL SUB DUP3 AND PUSH1 0x0 SWAP1 DUP2 MSTORE PUSH1 0x16 PUSH1 0x20 MSTORE PUSH1 0x40 SWAP1 KECCAK256 SLOAD PUSH2 0x2CAF SWAP2 SWAP1 PUSH2 0x5914 JUMP JUMPDEST PUSH1 0x1 PUSH1 0x1 PUSH1 0xA0 SHL SUB DUP3 AND PUSH1 0x0 SWAP1 DUP2 MSTORE PUSH1 0x16 PUSH1 0x20 MSTORE PUSH1 0x40 SWAP1 KECCAK256 SSTORE PUSH1 0x6 SLOAD PUSH2 0x2CD6 SWAP1 PUSH1 0x1 PUSH2 0x5914 JUMP JUMPDEST PUSH1 0x1 PUSH1 0x1 PUSH1 0xA0 SHL SUB DUP3 AND PUSH1 0x0 SWAP1 DUP2 MSTORE PUSH1 0x1A PUSH1 0x20 MSTORE PUSH1 0x40 SWAP1 KECCAK256 SSTORE JUMPDEST PUSH1 0x1 PUSH1 0x1 PUSH1 0xA0 SHL SUB DUP2 AND PUSH1 0x0 SWAP1 DUP2 MSTORE PUSH1 0x1F PUSH1 0x20 MSTORE PUSH1 0x40 SWAP1 KECCAK256 SLOAD ISZERO DUP1 ISZERO SWAP1 PUSH2 0x2D3B JUMPI POP PUSH1 0x1 PUSH1 0x1 PUSH1 0xA0 SHL SUB DUP2 AND PUSH1 0x0 SWAP1 DUP2 MSTORE PUSH1 0x1F PUSH1 0x20 MSTORE PUSH1 0x40 DUP2 KECCAK256 SLOAD PUSH1 0x5 SLOAD PUSH2 0x2D38 SWAP2 SWAP1 PUSH2 0x5960 JUMP JUMPDEST LT ISZERO JUMPDEST DUP1 ISZERO PUSH2 0x2D5F JUMPI POP PUSH1 0x1 PUSH1 0x1 PUSH1 0xA0 SHL SUB DUP2 AND PUSH1 0x0 SWAP1 DUP2 MSTORE PUSH1 0x21 PUSH1 0x20 MSTORE PUSH1 0x40 SWAP1 KECCAK256 SLOAD PUSH1 0xFF AND JUMPDEST ISZERO PUSH2 0x2F29 JUMPI PUSH1 0x1 PUSH1 0x1 PUSH1 0xA0 SHL SUB DUP2 AND PUSH1 0x0 DUP2 DUP2 MSTORE PUSH1 0x1D PUSH1 0x20 SWAP1 DUP2 MSTORE PUSH1 0x40 DUP1 DUP4 KECCAK256 PUSH1 0x1F DUP4 MSTORE DUP2 DUP5 KECCAK256 SLOAD DUP5 MSTORE DUP3 MSTORE DUP1 DUP4 KECCAK256 SLOAD SWAP4 DUP4 MSTORE PUSH1 0x15 SWAP1 SWAP2 MSTORE DUP2 KECCAK256 DUP1 SLOAD DUP4 SWAP3 SWAP1 PUSH2 0x2DA9 SWAP1 DUP5 SWAP1 PUSH2 0x5914 JUMP JUMPDEST SWAP1 SWAP2 SSTORE POP POP PUSH1 0x1 PUSH1 0x1 PUSH1 0xA0 SHL SUB DUP3 AND PUSH1 0x0 SWAP1 DUP2 MSTORE PUSH1 0x1E PUSH1 0x20 MSTORE PUSH1 0x40 DUP2 KECCAK256 DUP1 SLOAD DUP4 SWAP3 SWAP1 PUSH2 0x2DD6 SWAP1 DUP5 SWAP1 PUSH2 0x5914 JUMP JUMPDEST SWAP1 SWAP2 SSTORE POP POP PUSH1 0x1 PUSH1 0x1 PUSH1 0xA0 SHL SUB DUP3 AND PUSH1 0x0 SWAP1 DUP2 MSTORE PUSH1 0x1F PUSH1 0x20 MSTORE PUSH1 0x40 SWAP1 KECCAK256 SLOAD PUSH1 0x6 SLOAD PUSH2 0x2E02 SWAP1 PUSH1 0x1 PUSH2 0x5914 JUMP JUMPDEST GT ISZERO PUSH2 0x2EE0 JUMPI PUSH1 0x1 PUSH1 0x1 PUSH1 0xA0 SHL SUB DUP3 AND PUSH1 0x0 SWAP1 DUP2 MSTORE PUSH1 0x1F PUSH1 0x20 SWAP1 DUP2 MSTORE PUSH1 0x40 DUP1 DUP4 KECCAK256 SLOAD DUP4 MSTORE PUSH1 0x1C SWAP2 DUP3 SWAP1 MSTORE DUP3 KECCAK256 SLOAD PUSH1 0x6 SLOAD PUSH8 0xDE0B6B3A7640000 SWAP4 SWAP2 SWAP3 SWAP2 SWAP1 PUSH2 0x2E4B SWAP1 PUSH1 0x1 PUSH2 0x5914 JUMP JUMPDEST DUP2 MSTORE PUSH1 0x20 ADD SWAP1 DUP2 MSTORE PUSH1 0x20 ADD PUSH1 0x0 KECCAK256 SLOAD PUSH2 0x2E64 SWAP2 SWAP1 PUSH2 0x5960 JUMP JUMPDEST PUSH1 0x1 PUSH1 0x1 PUSH1 0xA0 SHL SUB DUP5 AND PUSH1 0x0 SWAP1 DUP2 MSTORE PUSH1 0x1D PUSH1 0x20 SWAP1 DUP2 MSTORE PUSH1 0x40 DUP1 DUP4 KECCAK256 PUSH1 0x1F DUP4 MSTORE DUP2 DUP5 KECCAK256 SLOAD DUP5 MSTORE SWAP1 SWAP2 MSTORE SWAP1 KECCAK256 SLOAD PUSH2 0x2E99 SWAP2 SWAP1 PUSH2 0x5927 JUMP JUMPDEST PUSH2 0x2EA3 SWAP2 SWAP1 PUSH2 0x593E JUMP JUMPDEST PUSH1 0x1 PUSH1 0x1 PUSH1 0xA0 SHL SUB DUP4 AND PUSH1 0x0 SWAP1 DUP2 MSTORE PUSH1 0x16 PUSH1 0x20 MSTORE PUSH1 0x40 SWAP1 KECCAK256 SLOAD PUSH2 0x2EC6 SWAP2 SWAP1 PUSH2 0x5914 JUMP JUMPDEST PUSH1 0x1 PUSH1 0x1 PUSH1 0xA0 SHL SUB DUP4 AND PUSH1 0x0 SWAP1 DUP2 MSTORE PUSH1 0x16 PUSH1 0x20 MSTORE PUSH1 0x40 SWAP1 KECCAK256 SSTORE JUMPDEST POP PUSH1 0x1 PUSH1 0x1 PUSH1 0xA0 SHL SUB DUP2 AND PUSH1 0x0 DUP2 DUP2 MSTORE PUSH1 0x1D PUSH1 0x20 SWAP1 DUP2 MSTORE PUSH1 0x40 DUP1 DUP4 KECCAK256 PUSH1 0x1F DUP4 MSTORE DUP2 DUP5 KECCAK256 DUP1 SLOAD DUP6 MSTORE SWAP1 DUP4 MSTORE DUP2 DUP5 KECCAK256 DUP5 SWAP1 SSTORE SWAP4 DUP4 MSTORE SWAP3 DUP3 SWAP1 SSTORE PUSH1 0x21 SWAP1 MSTORE KECCAK256 DUP1 SLOAD PUSH1 0xFF NOT AND SWAP1 SSTORE PUSH2 0x333D JUMP JUMPDEST PUSH1 0x1 PUSH1 0x1 PUSH1 0xA0 SHL SUB DUP2 AND PUSH1 0x0 SWAP1 DUP2 MSTORE PUSH1 0x1F PUSH1 0x20 MSTORE PUSH1 0x40 SWAP1 KECCAK256 SLOAD ISZERO DUP1 ISZERO SWAP1 PUSH2 0x2F73 JUMPI POP PUSH1 0x1 PUSH1 0x1 PUSH1 0xA0 SHL SUB DUP2 AND PUSH1 0x0 SWAP1 DUP2 MSTORE PUSH1 0x1F PUSH1 0x20 MSTORE PUSH1 0x40 DUP2 KECCAK256 SLOAD PUSH1 0x5 SLOAD PUSH2 0x2F71 SWAP2 SWAP1 PUSH2 0x5960 JUMP JUMPDEST GT JUMPDEST ISZERO PUSH2 0x333D JUMPI PUSH1 0x1 PUSH1 0x1 PUSH1 0xA0 SHL SUB DUP2 AND PUSH1 0x0 DUP2 DUP2 MSTORE PUSH1 0x1D PUSH1 0x20 SWAP1 DUP2 MSTORE PUSH1 0x40 DUP1 DUP4 KECCAK256 PUSH1 0x1F DUP4 MSTORE DUP2 DUP5 KECCAK256 SLOAD DUP5 MSTORE DUP3 MSTORE DUP1 DUP4 KECCAK256 SLOAD SWAP4 DUP4 MSTORE PUSH1 0x15 SWAP1 SWAP2 MSTORE DUP2 KECCAK256 DUP1 SLOAD DUP4 SWAP3 SWAP1 PUSH2 0x2FBD SWAP1 DUP5 SWAP1 PUSH2 0x5914 JUMP JUMPDEST SWAP1 SWAP2 SSTORE POP POP PUSH1 0x1 PUSH1 0x1 PUSH1 0xA0 SHL SUB DUP3 AND PUSH1 0x0 SWAP1 DUP2 MSTORE PUSH1 0x1E PUSH1 0x20 MSTORE PUSH1 0x40 DUP2 KECCAK256 DUP1 SLOAD DUP4 SWAP3 SWAP1 PUSH2 0x2FEA SWAP1 DUP5 SWAP1 PUSH2 0x5914 JUMP JUMPDEST SWAP1 SWAP2 SSTORE POP POP PUSH1 0x1 PUSH1 0x1 PUSH1 0xA0 SHL SUB DUP3 AND PUSH1 0x0 SWAP1 DUP2 MSTORE PUSH1 0x1F PUSH1 0x20 MSTORE PUSH1 0x40 SWAP1 KECCAK256 SLOAD PUSH1 0x6 SLOAD PUSH2 0x3016 SWAP1 PUSH1 0x1 PUSH2 0x5914 JUMP JUMPDEST GT ISZERO PUSH2 0x30F4 JUMPI PUSH1 0x1 PUSH1 0x1 PUSH1 0xA0 SHL SUB DUP3 AND PUSH1 0x0 SWAP1 DUP2 MSTORE PUSH1 0x1F PUSH1 0x20 SWAP1 DUP2 MSTORE PUSH1 0x40 DUP1 DUP4 KECCAK256 SLOAD DUP4 MSTORE PUSH1 0x1C SWAP2 DUP3 SWAP1 MSTORE DUP3 KECCAK256 SLOAD PUSH1 0x6 SLOAD PUSH8 0xDE0B6B3A7640000 SWAP4 SWAP2 SWAP3 SWAP2 SWAP1 PUSH2 0x305F SWAP1 PUSH1 0x1 PUSH2 0x5914 JUMP JUMPDEST DUP2 MSTORE PUSH1 0x20 ADD SWAP1 DUP2 MSTORE PUSH1 0x20 ADD PUSH1 0x0 KECCAK256 SLOAD PUSH2 0x3078 SWAP2 SWAP1 PUSH2 0x5960 JUMP JUMPDEST PUSH1 0x1 PUSH1 0x1 PUSH1 0xA0 SHL SUB DUP5 AND PUSH1 0x0 SWAP1 DUP2 MSTORE PUSH1 0x1D PUSH1 0x20 SWAP1 DUP2 MSTORE PUSH1 0x40 DUP1 DUP4 KECCAK256 PUSH1 0x1F DUP4 MSTORE DUP2 DUP5 KECCAK256 SLOAD DUP5 MSTORE SWAP1 SWAP2 MSTORE SWAP1 KECCAK256 SLOAD PUSH2 0x30AD SWAP2 SWAP1 PUSH2 0x5927 JUMP JUMPDEST PUSH2 0x30B7 SWAP2 SWAP1 PUSH2 0x593E JUMP JUMPDEST PUSH1 0x1 PUSH1 0x1 PUSH1 0xA0 SHL SUB DUP4 AND PUSH1 0x0 SWAP1 DUP2 MSTORE PUSH1 0x16 PUSH1 0x20 MSTORE PUSH1 0x40 SWAP1 KECCAK256 SLOAD PUSH2 0x30DA SWAP2 SWAP1 PUSH2 0x5914 JUMP JUMPDEST PUSH1 0x1 PUSH1 0x1 PUSH1 0xA0 SHL SUB DUP4 AND PUSH1 0x0 SWAP1 DUP2 MSTORE PUSH1 0x16 PUSH1 0x20 MSTORE PUSH1 0x40 SWAP1 KECCAK256 SSTORE JUMPDEST PUSH1 0x1 PUSH1 0x1 PUSH1 0xA0 SHL SUB DUP3 AND PUSH1 0x0 DUP2 DUP2 MSTORE PUSH1 0x1D PUSH1 0x20 SWAP1 DUP2 MSTORE PUSH1 0x40 DUP1 DUP4 KECCAK256 PUSH1 0x1F DUP4 MSTORE DUP2 DUP5 KECCAK256 DUP1 SLOAD DUP6 MSTORE SWAP1 DUP4 MSTORE DUP2 DUP5 KECCAK256 DUP5 SWAP1 SSTORE SWAP4 DUP4 MSTORE SWAP3 DUP3 SWAP1 SSTORE DUP1 MSTORE KECCAK256 SLOAD ISZERO PUSH2 0x333B JUMPI PUSH1 0x1 PUSH1 0x1 PUSH1 0xA0 SHL SUB DUP3 AND PUSH1 0x0 SWAP1 DUP2 MSTORE PUSH1 0x20 DUP1 MSTORE PUSH1 0x40 DUP2 KECCAK256 SLOAD PUSH1 0x5 SLOAD PUSH2 0x3158 SWAP2 SWAP1 PUSH2 0x5960 JUMP JUMPDEST GT ISZERO PUSH2 0x3310 JUMPI PUSH1 0x1 PUSH1 0x1 PUSH1 0xA0 SHL SUB DUP3 AND PUSH1 0x0 DUP2 DUP2 MSTORE PUSH1 0x1D PUSH1 0x20 SWAP1 DUP2 MSTORE PUSH1 0x40 DUP1 DUP4 KECCAK256 DUP3 DUP1 MSTORE DUP2 DUP5 KECCAK256 SLOAD DUP5 MSTORE DUP3 MSTORE DUP1 DUP4 KECCAK256 SLOAD SWAP4 DUP4 MSTORE PUSH1 0x15 SWAP1 SWAP2 MSTORE DUP2 KECCAK256 DUP1 SLOAD DUP4 SWAP3 SWAP1 PUSH2 0x31A2 SWAP1 DUP5 SWAP1 PUSH2 0x5914 JUMP JUMPDEST SWAP1 SWAP2 SSTORE POP POP PUSH1 0x1 PUSH1 0x1 PUSH1 0xA0 SHL SUB DUP4 AND PUSH1 0x0 SWAP1 DUP2 MSTORE PUSH1 0x1E PUSH1 0x20 MSTORE PUSH1 0x40 DUP2 KECCAK256 DUP1 SLOAD DUP4 SWAP3 SWAP1 PUSH2 0x31CF SWAP1 DUP5 SWAP1 PUSH2 0x5914 JUMP JUMPDEST SWAP1 SWAP2 SSTORE POP POP PUSH1 0x1 PUSH1 0x1 PUSH1 0xA0 SHL SUB DUP4 AND PUSH1 0x0 SWAP1 DUP2 MSTORE PUSH1 0x20 DUP1 MSTORE PUSH1 0x40 SWAP1 KECCAK256 SLOAD PUSH1 0x6 SLOAD PUSH2 0x31FA SWAP1 PUSH1 0x1 PUSH2 0x5914 JUMP JUMPDEST GT ISZERO PUSH2 0x32D5 JUMPI PUSH1 0x1 PUSH1 0x1 PUSH1 0xA0 SHL SUB DUP4 AND PUSH1 0x0 SWAP1 DUP2 MSTORE PUSH1 0x20 DUP1 DUP1 MSTORE PUSH1 0x40 DUP1 DUP4 KECCAK256 SLOAD DUP4 MSTORE PUSH1 0x1C SWAP2 DUP3 SWAP1 MSTORE DUP3 KECCAK256 SLOAD PUSH1 0x6 SLOAD PUSH8 0xDE0B6B3A7640000 SWAP4 SWAP2 SWAP3 SWAP2 SWAP1 PUSH2 0x3241 SWAP1 PUSH1 0x1 PUSH2 0x5914 JUMP JUMPDEST DUP2 MSTORE PUSH1 0x20 ADD SWAP1 DUP2 MSTORE PUSH1 0x20 ADD PUSH1 0x0 KECCAK256 SLOAD PUSH2 0x325A SWAP2 SWAP1 PUSH2 0x5960 JUMP JUMPDEST PUSH1 0x1 PUSH1 0x1 PUSH1 0xA0 SHL SUB DUP6 AND PUSH1 0x0 SWAP1 DUP2 MSTORE PUSH1 0x1D PUSH1 0x20 SWAP1 DUP2 MSTORE PUSH1 0x40 DUP1 DUP4 KECCAK256 DUP3 DUP1 MSTORE DUP2 DUP5 KECCAK256 SLOAD DUP5 MSTORE SWAP1 SWAP2 MSTORE SWAP1 KECCAK256 SLOAD PUSH2 0x328E SWAP2 SWAP1 PUSH2 0x5927 JUMP JUMPDEST PUSH2 0x3298 SWAP2 SWAP1 PUSH2 0x593E JUMP JUMPDEST PUSH1 0x1 PUSH1 0x1 PUSH1 0xA0 SHL SUB DUP5 AND PUSH1 0x0 SWAP1 DUP2 MSTORE PUSH1 0x16 PUSH1 0x20 MSTORE PUSH1 0x40 SWAP1 KECCAK256 SLOAD PUSH2 0x32BB SWAP2 SWAP1 PUSH2 0x5914 JUMP JUMPDEST PUSH1 0x1 PUSH1 0x1 PUSH1 0xA0 SHL SUB DUP5 AND PUSH1 0x0 SWAP1 DUP2 MSTORE PUSH1 0x16 PUSH1 0x20 MSTORE PUSH1 0x40 SWAP1 KECCAK256 SSTORE JUMPDEST POP PUSH1 0x1 PUSH1 0x1 PUSH1 0xA0 SHL SUB DUP3 AND PUSH1 0x0 DUP2 DUP2 MSTORE PUSH1 0x1D PUSH1 0x20 SWAP1 DUP2 MSTORE PUSH1 0x40 DUP1 DUP4 KECCAK256 DUP3 DUP1 MSTORE DUP2 DUP5 KECCAK256 DUP1 SLOAD DUP6 MSTORE SWAP1 DUP4 MSTORE SWAP1 DUP4 KECCAK256 DUP4 SWAP1 SSTORE SWAP3 DUP3 MSTORE DUP1 MSTORE SWAP1 SSTORE PUSH2 0x333B JUMP JUMPDEST PUSH1 0x1 PUSH1 0x1 PUSH1 0xA0 SHL SUB DUP3 AND PUSH1 0x0 SWAP1 DUP2 MSTORE PUSH1 0x20 DUP1 DUP1 MSTORE PUSH1 0x40 DUP1 DUP4 KECCAK256 DUP1 SLOAD PUSH1 0x1F DUP5 MSTORE SWAP2 DUP5 KECCAK256 SWAP2 SWAP1 SWAP2 SSTORE SWAP1 DUP1 MSTORE SSTORE JUMPDEST POP JUMPDEST PUSH2 0x3346 DUP8 PUSH2 0x5048 JUMP JUMPDEST DUP9 MLOAD PUSH1 0xF PUSH1 0x0 PUSH2 0x3354 PUSH2 0x5004 JUMP JUMPDEST PUSH1 0x1 PUSH1 0x1 PUSH1 0xA0 SHL SUB AND PUSH1 0x1 PUSH1 0x1 PUSH1 0xA0 SHL SUB AND DUP2 MSTORE PUSH1 0x20 ADD SWAP1 DUP2 MSTORE PUSH1 0x20 ADD PUSH1 0x0 KECCAK256 PUSH1 0x0 DUP3 DUP3 SLOAD PUSH2 0x3383 SWAP2 SWAP1 PUSH2 0x5914 JUMP JUMPDEST SWAP1 SWAP2 SSTORE POP POP DUP9 MLOAD PUSH1 0x5 SLOAD PUSH1 0x0 SWAP1 DUP2 MSTORE PUSH1 0x10 PUSH1 0x20 MSTORE PUSH1 0x40 DUP2 KECCAK256 DUP1 SLOAD SWAP1 SWAP2 SWAP1 PUSH2 0x33AB SWAP1 DUP5 SWAP1 PUSH2 0x5914 JUMP JUMPDEST SWAP1 SWAP2 SSTORE POP POP PUSH1 0x5 SLOAD PUSH1 0x11 PUSH1 0x0 PUSH2 0x33BF PUSH2 0x5004 JUMP JUMPDEST PUSH1 0x1 PUSH1 0x1 PUSH1 0xA0 SHL SUB SWAP1 DUP2 AND DUP3 MSTORE PUSH1 0x20 DUP3 ADD SWAP3 SWAP1 SWAP3 MSTORE PUSH1 0x40 ADD PUSH1 0x0 KECCAK256 SWAP2 SWAP1 SWAP2 SSTORE DUP8 AND ISZERO PUSH2 0x348E JUMPI DUP6 ISZERO PUSH2 0x345A JUMPI DUP6 PUSH1 0xD PUSH1 0x0 PUSH2 0x33F8 PUSH2 0x5004 JUMP JUMPDEST PUSH1 0x1 PUSH1 0x1 PUSH1 0xA0 SHL SUB AND PUSH1 0x1 PUSH1 0x1 PUSH1 0xA0 SHL SUB AND DUP2 MSTORE PUSH1 0x20 ADD SWAP1 DUP2 MSTORE PUSH1 0x20 ADD PUSH1 0x0 KECCAK256 PUSH1 0x0 DUP3 DUP3 SLOAD PUSH2 0x3427 SWAP2 SWAP1 PUSH2 0x5914 JUMP JUMPDEST SWAP1 SWAP2 SSTORE POP POP PUSH1 0x1 PUSH1 0x1 PUSH1 0xA0 SHL SUB DUP8 AND PUSH1 0x0 SWAP1 DUP2 MSTORE PUSH1 0xE PUSH1 0x20 MSTORE PUSH1 0x40 DUP2 KECCAK256 DUP1 SLOAD DUP9 SWAP3 SWAP1 PUSH2 0x3454 SWAP1 DUP5 SWAP1 PUSH2 0x5914 JUMP JUMPDEST SWAP1 SWAP2 SSTORE POP POP JUMPDEST DUP5 ISZERO PUSH2 0x348E JUMPI PUSH1 0x1 PUSH1 0x1 PUSH1 0xA0 SHL SUB DUP8 AND PUSH1 0x0 SWAP1 DUP2 MSTORE PUSH1 0x14 PUSH1 0x20 MSTORE PUSH1 0x40 DUP2 KECCAK256 DUP1 SLOAD DUP8 SWAP3 SWAP1 PUSH2 0x3488 SWAP1 DUP5 SWAP1 PUSH2 0x5914 JUMP JUMPDEST SWAP1 SWAP2 SSTORE POP POP JUMPDEST PUSH1 0x0 PUSH2 0x349A DUP11 DUP11 PUSH2 0x5333 JUMP JUMPDEST SWAP1 POP DUP8 PUSH1 0x1 PUSH1 0x1 PUSH1 0xA0 SHL SUB AND DUP2 PUSH1 0x5 SLOAD PUSH32 0x6288811D8CDBED319AD675BB04053011E25D30480E6EB483C02D54EF3BC863F1 DUP11 DUP11 PUSH1 0x40 MLOAD PUSH2 0x34E4 SWAP3 SWAP2 SWAP1 SWAP2 DUP3 MSTORE PUSH1 0x20 DUP3 ADD MSTORE PUSH1 0x40 ADD SWAP1 JUMP JUMPDEST PUSH1 0x40 MLOAD DUP1 SWAP2 SUB SWAP1 LOG4 POP POP POP PUSH1 0x0 PUSH2 0x2710 PUSH2 0x3E8 PUSH2 0xFFFF AND GASPRICE GAS PUSH2 0x3507 SWAP1 DUP7 PUSH2 0x5960 JUMP JUMPDEST PUSH2 0x3513 SWAP1 PUSH2 0x7984 PUSH2 0x5914 JUMP JUMPDEST PUSH2 0x351D SWAP2 SWAP1 PUSH2 0x5927 JUMP JUMPDEST PUSH2 0x3527 SWAP2 SWAP1 PUSH2 0x5927 JUMP JUMPDEST PUSH2 0x3531 SWAP2 SWAP1 PUSH2 0x593E JUMP JUMPDEST SWAP1 POP DUP1 PUSH2 0x353E DUP5 CALLVALUE PUSH2 0x5960 JUMP JUMPDEST LT ISZERO PUSH2 0x35A1 JUMPI PUSH1 0x40 MLOAD PUSH3 0x461BCD PUSH1 0xE5 SHL DUP2 MSTORE PUSH1 0x20 PUSH1 0x4 DUP3 ADD MSTORE PUSH1 0x2C PUSH1 0x24 DUP3 ADD MSTORE PUSH32 0x44656230783A2076616C7565206D757374206265203E3D20313025206F662074 PUSH1 0x44 DUP3 ADD MSTORE PUSH12 0x6865207370656E7420676173 PUSH1 0xA0 SHL PUSH1 0x64 DUP3 ADD MSTORE PUSH1 0x84 ADD PUSH2 0x9A9 JUMP JUMPDEST PUSH2 0x35BF CALLER DUP5 PUSH2 0x35B0 DUP5 CALLVALUE PUSH2 0x5960 JUMP JUMPDEST PUSH2 0x35BA SWAP2 SWAP1 PUSH2 0x5960 JUMP JUMPDEST PUSH2 0x528B JUMP JUMPDEST PUSH1 0x5 SLOAD PUSH1 0x0 SWAP1 DUP2 MSTORE PUSH1 0x1B PUSH1 0x20 MSTORE PUSH1 0x40 DUP2 KECCAK256 DUP1 SLOAD DUP4 SWAP3 SWAP1 PUSH2 0x35E0 SWAP1 DUP5 SWAP1 PUSH2 0x5914 JUMP JUMPDEST SWAP1 SWAP2 SSTORE POP POP POP POP POP POP POP POP POP POP JUMP JUMPDEST PUSH1 0x2 PUSH1 0x0 SLOAD SUB PUSH2 0x3611 JUMPI PUSH1 0x40 MLOAD PUSH3 0x461BCD PUSH1 0xE5 SHL DUP2 MSTORE PUSH1 0x4 ADD PUSH2 0x9A9 SWAP1 PUSH2 0x58C7 JUMP JUMPDEST PUSH1 0x2 PUSH1 0x0 SWAP1 DUP2 SSTORE PUSH2 0x3620 PUSH2 0x4496 JUMP JUMPDEST SWAP1 POP PUSH1 0x5 SLOAD DUP2 GT ISZERO PUSH2 0x3632 JUMPI PUSH1 0x5 DUP2 SWAP1 SSTORE JUMPDEST PUSH1 0x8 SLOAD PUSH1 0x5 SLOAD EQ PUSH2 0x3655 JUMPI PUSH1 0x6 SLOAD PUSH2 0x364B SWAP1 PUSH1 0x1 PUSH2 0x5914 JUMP JUMPDEST PUSH1 0x7 SSTORE PUSH1 0x8 SLOAD PUSH1 0x6 SSTORE JUMPDEST PUSH1 0x6 SLOAD PUSH1 0x5 SLOAD GT DUP1 ISZERO PUSH2 0x3689 JUMPI POP PUSH1 0x1C PUSH1 0x0 PUSH1 0x6 SLOAD PUSH1 0x1 PUSH2 0x3676 SWAP2 SWAP1 PUSH2 0x5914 JUMP JUMPDEST DUP2 MSTORE PUSH1 0x20 ADD SWAP1 DUP2 MSTORE PUSH1 0x20 ADD PUSH1 0x0 KECCAK256 SLOAD PUSH1 0x0 EQ JUMPDEST ISZERO PUSH2 0x370E JUMPI PUSH1 0x6 SLOAD PUSH1 0x0 SWAP1 DUP2 MSTORE PUSH1 0x19 PUSH1 0x20 SWAP1 DUP2 MSTORE PUSH1 0x40 DUP1 DUP4 KECCAK256 SLOAD PUSH1 0x1B SWAP1 SWAP3 MSTORE DUP3 KECCAK256 SLOAD PUSH2 0x36BE SWAP1 PUSH8 0xDE0B6B3A7640000 SWAP1 PUSH2 0x5927 JUMP JUMPDEST PUSH2 0x36C8 SWAP2 SWAP1 PUSH2 0x593E JUMP JUMPDEST PUSH1 0x7 SLOAD PUSH1 0x0 SWAP1 DUP2 MSTORE PUSH1 0x1C PUSH1 0x20 MSTORE PUSH1 0x40 SWAP1 KECCAK256 SLOAD SWAP1 SWAP2 POP PUSH2 0x36E8 SWAP1 DUP3 SWAP1 PUSH2 0x5914 JUMP JUMPDEST PUSH1 0x1C PUSH1 0x0 PUSH1 0x6 SLOAD PUSH1 0x1 PUSH2 0x36FB SWAP2 SWAP1 PUSH2 0x5914 JUMP JUMPDEST DUP2 MSTORE PUSH1 0x20 DUP2 ADD SWAP2 SWAP1 SWAP2 MSTORE PUSH1 0x40 ADD PUSH1 0x0 KECCAK256 SSTORE POP JUMPDEST PUSH2 0x3716 PUSH2 0x5004 JUMP JUMPDEST PUSH1 0x1 PUSH1 0x1 PUSH1 0xA0 SHL SUB DUP2 AND PUSH1 0x0 SWAP1 DUP2 MSTORE PUSH1 0x11 PUSH1 0x20 MSTORE PUSH1 0x40 SWAP1 KECCAK256 SLOAD PUSH1 0x5 SLOAD GT DUP1 ISZERO PUSH2 0x3756 JUMPI POP PUSH1 0x1 PUSH1 0x1 PUSH1 0xA0 SHL SUB DUP2 AND PUSH1 0x0 SWAP1 DUP2 MSTORE PUSH1 0xF PUSH1 0x20 MSTORE PUSH1 0x40 SWAP1 KECCAK256 SLOAD ISZERO ISZERO JUMPDEST ISZERO PUSH2 0x38BD JUMPI PUSH1 0x1 PUSH1 0x1 PUSH1 0xA0 SHL SUB DUP2 AND PUSH1 0x0 DUP2 DUP2 MSTORE PUSH1 0x11 PUSH1 0x20 SWAP1 DUP2 MSTORE PUSH1 0x40 DUP1 DUP4 KECCAK256 SLOAD DUP4 MSTORE PUSH1 0x10 DUP3 MSTORE DUP1 DUP4 KECCAK256 SLOAD PUSH1 0x18 DUP4 MSTORE DUP2 DUP5 KECCAK256 SLOAD SWAP5 DUP5 MSTORE PUSH1 0xF SWAP1 SWAP3 MSTORE DUP3 KECCAK256 SLOAD SWAP2 SWAP3 SWAP1 SWAP2 PUSH2 0x37A2 SWAP2 SWAP1 PUSH2 0x5927 JUMP JUMPDEST PUSH2 0x37AC SWAP2 SWAP1 PUSH2 0x593E JUMP JUMPDEST PUSH1 0x1 PUSH1 0x1 PUSH1 0xA0 SHL SUB DUP4 AND PUSH1 0x0 SWAP1 DUP2 MSTORE PUSH1 0x15 PUSH1 0x20 MSTORE PUSH1 0x40 DUP2 KECCAK256 DUP1 SLOAD SWAP3 SWAP4 POP DUP4 SWAP3 SWAP1 SWAP2 SWAP1 PUSH2 0x37D9 SWAP1 DUP5 SWAP1 PUSH2 0x5914 JUMP JUMPDEST SWAP1 SWAP2 SSTORE POP POP PUSH1 0x1 PUSH1 0x1 PUSH1 0xA0 SHL SUB DUP3 AND PUSH1 0x0 SWAP1 DUP2 MSTORE PUSH1 0xD PUSH1 0x20 MSTORE PUSH1 0x40 SWAP1 KECCAK256 SLOAD ISZERO PUSH2 0x38A2 JUMPI PUSH1 0x1 PUSH1 0x1 PUSH1 0xA0 SHL SUB DUP3 AND PUSH1 0x0 SWAP1 DUP2 MSTORE PUSH1 0xF PUSH1 0x20 MSTORE PUSH1 0x40 DUP2 KECCAK256 SLOAD PUSH2 0x381F SWAP1 DUP4 PUSH2 0x593E JUMP JUMPDEST PUSH1 0x1 PUSH1 0x1 PUSH1 0xA0 SHL SUB DUP5 AND PUSH1 0x0 SWAP1 DUP2 MSTORE PUSH1 0xD PUSH1 0x20 MSTORE PUSH1 0x40 DUP2 KECCAK256 SLOAD SWAP2 SWAP3 POP SWAP1 PUSH2 0x2710 SWAP1 PUSH2 0x384A SWAP1 DUP5 PUSH2 0x5927 JUMP JUMPDEST PUSH2 0x3854 SWAP2 SWAP1 PUSH2 0x593E JUMP JUMPDEST PUSH1 0x1 PUSH1 0x1 PUSH1 0xA0 SHL SUB DUP6 AND PUSH1 0x0 SWAP1 DUP2 MSTORE PUSH1 0x15 PUSH1 0x20 MSTORE PUSH1 0x40 DUP2 KECCAK256 DUP1 SLOAD SWAP3 SWAP4 POP DUP4 SWAP3 SWAP1 SWAP2 SWAP1 PUSH2 0x3881 SWAP1 DUP5 SWAP1 PUSH2 0x5960 JUMP JUMPDEST SWAP1 SWAP2 SSTORE POP POP POP PUSH1 0x1 PUSH1 0x1 PUSH1 0xA0 SHL SUB DUP4 AND PUSH1 0x0 SWAP1 DUP2 MSTORE PUSH1 0xD PUSH1 0x20 MSTORE PUSH1 0x40 DUP2 KECCAK256 SSTORE POP JUMPDEST POP PUSH1 0x1 PUSH1 0x1 PUSH1 0xA0 SHL SUB DUP2 AND PUSH1 0x0 SWAP1 DUP2 MSTORE PUSH1 0xF PUSH1 0x20 MSTORE PUSH1 0x40 DUP2 KECCAK256 SSTORE JUMPDEST PUSH1 0x6 SLOAD PUSH1 0x5 SLOAD GT DUP1 ISZERO PUSH2 0x38F5 JUMPI POP PUSH1 0x6 SLOAD PUSH2 0x38D9 SWAP1 PUSH1 0x1 PUSH2 0x5914 JUMP JUMPDEST PUSH1 0x1 PUSH1 0x1 PUSH1 0xA0 SHL SUB DUP3 AND PUSH1 0x0 SWAP1 DUP2 MSTORE PUSH1 0x1A PUSH1 0x20 MSTORE PUSH1 0x40 SWAP1 KECCAK256 SLOAD EQ ISZERO JUMPDEST ISZERO PUSH2 0x39E7 JUMPI PUSH1 0x1 PUSH1 0x1 PUSH1 0xA0 SHL SUB DUP2 AND PUSH1 0x0 SWAP1 DUP2 MSTORE PUSH1 0x1A PUSH1 0x20 SWAP1 DUP2 MSTORE PUSH1 0x40 DUP1 DUP4 KECCAK256 SLOAD DUP4 MSTORE PUSH1 0x1C SWAP2 DUP3 SWAP1 MSTORE DUP3 KECCAK256 SLOAD PUSH1 0x6 SLOAD PUSH8 0xDE0B6B3A7640000 SWAP4 SWAP2 SWAP3 SWAP2 SWAP1 PUSH2 0x393D SWAP1 PUSH1 0x1 PUSH2 0x5914 JUMP JUMPDEST DUP2 MSTORE PUSH1 0x20 ADD SWAP1 DUP2 MSTORE PUSH1 0x20 ADD PUSH1 0x0 KECCAK256 SLOAD PUSH2 0x3956 SWAP2 SWAP1 PUSH2 0x5960 JUMP JUMPDEST PUSH1 0x1 PUSH1 0x1 PUSH1 0xA0 SHL SUB DUP4 AND PUSH1 0x0 SWAP1 DUP2 MSTORE PUSH1 0x15 PUSH1 0x20 MSTORE PUSH1 0x40 SWAP1 KECCAK256 SLOAD PUSH2 0x3979 SWAP2 SWAP1 PUSH2 0x5927 JUMP JUMPDEST PUSH2 0x3983 SWAP2 SWAP1 PUSH2 0x593E JUMP JUMPDEST PUSH1 0x1 PUSH1 0x1 PUSH1 0xA0 SHL SUB DUP3 AND PUSH1 0x0 SWAP1 DUP2 MSTORE PUSH1 0x16 PUSH1 0x20 MSTORE PUSH1 0x40 SWAP1 KECCAK256 SLOAD PUSH2 0x39A6 SWAP2 SWAP1 PUSH2 0x5914 JUMP JUMPDEST PUSH1 0x1 PUSH1 0x1 PUSH1 0xA0 SHL SUB DUP3 AND PUSH1 0x0 SWAP1 DUP2 MSTORE PUSH1 0x16 PUSH1 0x20 MSTORE PUSH1 0x40 SWAP1 KECCAK256 SSTORE PUSH1 0x6 SLOAD PUSH2 0x39CD SWAP1 PUSH1 0x1 PUSH2 0x5914 JUMP JUMPDEST PUSH1 0x1 PUSH1 0x1 PUSH1 0xA0 SHL SUB DUP3 AND PUSH1 0x0 SWAP1 DUP2 MSTORE PUSH1 0x1A PUSH1 0x20 MSTORE PUSH1 0x40 SWAP1 KECCAK256 SSTORE JUMPDEST PUSH1 0x1 PUSH1 0x1 PUSH1 0xA0 SHL SUB DUP2 AND PUSH1 0x0 SWAP1 DUP2 MSTORE PUSH1 0x1F PUSH1 0x20 MSTORE PUSH1 0x40 SWAP1 KECCAK256 SLOAD ISZERO DUP1 ISZERO SWAP1 PUSH2 0x3A32 JUMPI POP PUSH1 0x1 PUSH1 0x1 PUSH1 0xA0 SHL SUB DUP2 AND PUSH1 0x0 SWAP1 DUP2 MSTORE PUSH1 0x1F PUSH1 0x20 MSTORE PUSH1 0x40 DUP2 KECCAK256 SLOAD PUSH1 0x5 SLOAD PUSH2 0x3A2F SWAP2 SWAP1 PUSH2 0x5960 JUMP JUMPDEST LT ISZERO JUMPDEST DUP1 ISZERO PUSH2 0x3A56 JUMPI POP PUSH1 0x1 PUSH1 0x1 PUSH1 0xA0 SHL SUB DUP2 AND PUSH1 0x0 SWAP1 DUP2 MSTORE PUSH1 0x21 PUSH1 0x20 MSTORE PUSH1 0x40 SWAP1 KECCAK256 SLOAD PUSH1 0xFF AND JUMPDEST ISZERO PUSH2 0x3C20 JUMPI PUSH1 0x1 PUSH1 0x1 PUSH1 0xA0 SHL SUB DUP2 AND PUSH1 0x0 DUP2 DUP2 MSTORE PUSH1 0x1D PUSH1 0x20 SWAP1 DUP2 MSTORE PUSH1 0x40 DUP1 DUP4 KECCAK256 PUSH1 0x1F DUP4 MSTORE DUP2 DUP5 KECCAK256 SLOAD DUP5 MSTORE DUP3 MSTORE DUP1 DUP4 KECCAK256 SLOAD SWAP4 DUP4 MSTORE PUSH1 0x15 SWAP1 SWAP2 MSTORE DUP2 KECCAK256 DUP1 SLOAD DUP4 SWAP3 SWAP1 PUSH2 0x3AA0 SWAP1 DUP5 SWAP1 PUSH2 0x5914 JUMP JUMPDEST SWAP1 SWAP2 SSTORE POP POP PUSH1 0x1 PUSH1 0x1 PUSH1 0xA0 SHL SUB DUP3 AND PUSH1 0x0 SWAP1 DUP2 MSTORE PUSH1 0x1E PUSH1 0x20 MSTORE PUSH1 0x40 DUP2 KECCAK256 DUP1 SLOAD DUP4 SWAP3 SWAP1 PUSH2 0x3ACD SWAP1 DUP5 SWAP1 PUSH2 0x5914 JUMP JUMPDEST SWAP1 SWAP2 SSTORE POP POP PUSH1 0x1 PUSH1 0x1 PUSH1 0xA0 SHL SUB DUP3 AND PUSH1 0x0 SWAP1 DUP2 MSTORE PUSH1 0x1F PUSH1 0x20 MSTORE PUSH1 0x40 SWAP1 KECCAK256 SLOAD PUSH1 0x6 SLOAD PUSH2 0x3AF9 SWAP1 PUSH1 0x1 PUSH2 0x5914 JUMP JUMPDEST GT ISZERO PUSH2 0x3BD7 JUMPI PUSH1 0x1 PUSH1 0x1 PUSH1 0xA0 SHL SUB DUP3 AND PUSH1 0x0 SWAP1 DUP2 MSTORE PUSH1 0x1F PUSH1 0x20 SWAP1 DUP2 MSTORE PUSH1 0x40 DUP1 DUP4 KECCAK256 SLOAD DUP4 MSTORE PUSH1 0x1C SWAP2 DUP3 SWAP1 MSTORE DUP3 KECCAK256 SLOAD PUSH1 0x6 SLOAD PUSH8 0xDE0B6B3A7640000 SWAP4 SWAP2 SWAP3 SWAP2 SWAP1 PUSH2 0x3B42 SWAP1 PUSH1 0x1 PUSH2 0x5914 JUMP JUMPDEST DUP2 MSTORE PUSH1 0x20 ADD SWAP1 DUP2 MSTORE PUSH1 0x20 ADD PUSH1 0x0 KECCAK256 SLOAD PUSH2 0x3B5B SWAP2 SWAP1 PUSH2 0x5960 JUMP JUMPDEST PUSH1 0x1 PUSH1 0x1 PUSH1 0xA0 SHL SUB DUP5 AND PUSH1 0x0 SWAP1 DUP2 MSTORE PUSH1 0x1D PUSH1 0x20 SWAP1 DUP2 MSTORE PUSH1 0x40 DUP1 DUP4 KECCAK256 PUSH1 0x1F DUP4 MSTORE DUP2 DUP5 KECCAK256 SLOAD DUP5 MSTORE SWAP1 SWAP2 MSTORE SWAP1 KECCAK256 SLOAD PUSH2 0x3B90 SWAP2 SWAP1 PUSH2 0x5927 JUMP JUMPDEST PUSH2 0x3B9A SWAP2 SWAP1 PUSH2 0x593E JUMP JUMPDEST PUSH1 0x1 PUSH1 0x1 PUSH1 0xA0 SHL SUB DUP4 AND PUSH1 0x0 SWAP1 DUP2 MSTORE PUSH1 0x16 PUSH1 0x20 MSTORE PUSH1 0x40 SWAP1 KECCAK256 SLOAD PUSH2 0x3BBD SWAP2 SWAP1 PUSH2 0x5914 JUMP JUMPDEST PUSH1 0x1 PUSH1 0x1 PUSH1 0xA0 SHL SUB DUP4 AND PUSH1 0x0 SWAP1 DUP2 MSTORE PUSH1 0x16 PUSH1 0x20 MSTORE PUSH1 0x40 SWAP1 KECCAK256 SSTORE JUMPDEST POP PUSH1 0x1 PUSH1 0x1 PUSH1 0xA0 SHL SUB DUP2 AND PUSH1 0x0 DUP2 DUP2 MSTORE PUSH1 0x1D PUSH1 0x20 SWAP1 DUP2 MSTORE PUSH1 0x40 DUP1 DUP4 KECCAK256 PUSH1 0x1F DUP4 MSTORE DUP2 DUP5 KECCAK256 DUP1 SLOAD DUP6 MSTORE SWAP1 DUP4 MSTORE DUP2 DUP5 KECCAK256 DUP5 SWAP1 SSTORE SWAP4 DUP4 MSTORE SWAP3 DUP3 SWAP1 SSTORE PUSH1 0x21 SWAP1 MSTORE KECCAK256 DUP1 SLOAD PUSH1 0xFF NOT AND SWAP1 SSTORE PUSH2 0x4034 JUMP JUMPDEST PUSH1 0x1 PUSH1 0x1 PUSH1 0xA0 SHL SUB DUP2 AND PUSH1 0x0 SWAP1 DUP2 MSTORE PUSH1 0x1F PUSH1 0x20 MSTORE PUSH1 0x40 SWAP1 KECCAK256 SLOAD ISZERO DUP1 ISZERO SWAP1 PUSH2 0x3C6A JUMPI POP PUSH1 0x1 PUSH1 0x1 PUSH1 0xA0 SHL SUB DUP2 AND PUSH1 0x0 SWAP1 DUP2 MSTORE PUSH1 0x1F PUSH1 0x20 MSTORE PUSH1 0x40 DUP2 KECCAK256 SLOAD PUSH1 0x5 SLOAD PUSH2 0x3C68 SWAP2 SWAP1 PUSH2 0x5960 JUMP JUMPDEST GT JUMPDEST ISZERO PUSH2 0x4034 JUMPI PUSH1 0x1 PUSH1 0x1 PUSH1 0xA0 SHL SUB DUP2 AND PUSH1 0x0 DUP2 DUP2 MSTORE PUSH1 0x1D PUSH1 0x20 SWAP1 DUP2 MSTORE PUSH1 0x40 DUP1 DUP4 KECCAK256 PUSH1 0x1F DUP4 MSTORE DUP2 DUP5 KECCAK256 SLOAD DUP5 MSTORE DUP3 MSTORE DUP1 DUP4 KECCAK256 SLOAD SWAP4 DUP4 MSTORE PUSH1 0x15 SWAP1 SWAP2 MSTORE DUP2 KECCAK256 DUP1 SLOAD DUP4 SWAP3 SWAP1 PUSH2 0x3CB4 SWAP1 DUP5 SWAP1 PUSH2 0x5914 JUMP JUMPDEST SWAP1 SWAP2 SSTORE POP POP PUSH1 0x1 PUSH1 0x1 PUSH1 0xA0 SHL SUB DUP3 AND PUSH1 0x0 SWAP1 DUP2 MSTORE PUSH1 0x1E PUSH1 0x20 MSTORE PUSH1 0x40 DUP2 KECCAK256 DUP1 SLOAD DUP4 SWAP3 SWAP1 PUSH2 0x3CE1 SWAP1 DUP5 SWAP1 PUSH2 0x5914 JUMP JUMPDEST SWAP1 SWAP2 SSTORE POP POP PUSH1 0x1 PUSH1 0x1 PUSH1 0xA0 SHL SUB DUP3 AND PUSH1 0x0 SWAP1 DUP2 MSTORE PUSH1 0x1F PUSH1 0x20 MSTORE PUSH1 0x40 SWAP1 KECCAK256 SLOAD PUSH1 0x6 SLOAD PUSH2 0x3D0D SWAP1 PUSH1 0x1 PUSH2 0x5914 JUMP JUMPDEST GT ISZERO PUSH2 0x3DEB JUMPI PUSH1 0x1 PUSH1 0x1 PUSH1 0xA0 SHL SUB DUP3 AND PUSH1 0x0 SWAP1 DUP2 MSTORE PUSH1 0x1F PUSH1 0x20 SWAP1 DUP2 MSTORE PUSH1 0x40 DUP1 DUP4 KECCAK256 SLOAD DUP4 MSTORE PUSH1 0x1C SWAP2 DUP3 SWAP1 MSTORE DUP3 KECCAK256 SLOAD PUSH1 0x6 SLOAD PUSH8 0xDE0B6B3A7640000 SWAP4 SWAP2 SWAP3 SWAP2 SWAP1 PUSH2 0x3D56 SWAP1 PUSH1 0x1 PUSH2 0x5914 JUMP JUMPDEST DUP2 MSTORE PUSH1 0x20 ADD SWAP1 DUP2 MSTORE PUSH1 0x20 ADD PUSH1 0x0 KECCAK256 SLOAD PUSH2 0x3D6F SWAP2 SWAP1 PUSH2 0x5960 JUMP JUMPDEST PUSH1 0x1 PUSH1 0x1 PUSH1 0xA0 SHL SUB DUP5 AND PUSH1 0x0 SWAP1 DUP2 MSTORE PUSH1 0x1D PUSH1 0x20 SWAP1 DUP2 MSTORE PUSH1 0x40 DUP1 DUP4 KECCAK256 PUSH1 0x1F DUP4 MSTORE DUP2 DUP5 KECCAK256 SLOAD DUP5 MSTORE SWAP1 SWAP2 MSTORE SWAP1 KECCAK256 SLOAD PUSH2 0x3DA4 SWAP2 SWAP1 PUSH2 0x5927 JUMP JUMPDEST PUSH2 0x3DAE SWAP2 SWAP1 PUSH2 0x593E JUMP JUMPDEST PUSH1 0x1 PUSH1 0x1 PUSH1 0xA0 SHL SUB DUP4 AND PUSH1 0x0 SWAP1 DUP2 MSTORE PUSH1 0x16 PUSH1 0x20 MSTORE PUSH1 0x40 SWAP1 KECCAK256 SLOAD PUSH2 0x3DD1 SWAP2 SWAP1 PUSH2 0x5914 JUMP JUMPDEST PUSH1 0x1 PUSH1 0x1 PUSH1 0xA0 SHL SUB DUP4 AND PUSH1 0x0 SWAP1 DUP2 MSTORE PUSH1 0x16 PUSH1 0x20 MSTORE PUSH1 0x40 SWAP1 KECCAK256 SSTORE JUMPDEST PUSH1 0x1 PUSH1 0x1 PUSH1 0xA0 SHL SUB DUP3 AND PUSH1 0x0 DUP2 DUP2 MSTORE PUSH1 0x1D PUSH1 0x20 SWAP1 DUP2 MSTORE PUSH1 0x40 DUP1 DUP4 KECCAK256 PUSH1 0x1F DUP4 MSTORE DUP2 DUP5 KECCAK256 DUP1 SLOAD DUP6 MSTORE SWAP1 DUP4 MSTORE DUP2 DUP5 KECCAK256 DUP5 SWAP1 SSTORE SWAP4 DUP4 MSTORE SWAP3 DUP3 SWAP1 SSTORE DUP1 MSTORE KECCAK256 SLOAD ISZERO PUSH2 0x4032 JUMPI PUSH1 0x1 PUSH1 0x1 PUSH1 0xA0 SHL SUB DUP3 AND PUSH1 0x0 SWAP1 DUP2 MSTORE PUSH1 0x20 DUP1 MSTORE PUSH1 0x40 DUP2 KECCAK256 SLOAD PUSH1 0x5 SLOAD PUSH2 0x3E4F SWAP2 SWAP1 PUSH2 0x5960 JUMP JUMPDEST GT ISZERO PUSH2 0x4007 JUMPI PUSH1 0x1 PUSH1 0x1 PUSH1 0xA0 SHL SUB DUP3 AND PUSH1 0x0 DUP2 DUP2 MSTORE PUSH1 0x1D PUSH1 0x20 SWAP1 DUP2 MSTORE PUSH1 0x40 DUP1 DUP4 KECCAK256 DUP3 DUP1 MSTORE DUP2 DUP5 KECCAK256 SLOAD DUP5 MSTORE DUP3 MSTORE DUP1 DUP4 KECCAK256 SLOAD SWAP4 DUP4 MSTORE PUSH1 0x15 SWAP1 SWAP2 MSTORE DUP2 KECCAK256 DUP1 SLOAD DUP4 SWAP3 SWAP1 PUSH2 0x3E99 SWAP1 DUP5 SWAP1 PUSH2 0x5914 JUMP JUMPDEST SWAP1 SWAP2 SSTORE POP POP PUSH1 0x1 PUSH1 0x1 PUSH1 0xA0 SHL SUB DUP4 AND PUSH1 0x0 SWAP1 DUP2 MSTORE PUSH1 0x1E PUSH1 0x20 MSTORE PUSH1 0x40 DUP2 KECCAK256 DUP1 SLOAD DUP4 SWAP3 SWAP1 PUSH2 0x3EC6 SWAP1 DUP5 SWAP1 PUSH2 0x5914 JUMP JUMPDEST SWAP1 SWAP2 SSTORE POP POP PUSH1 0x1 PUSH1 0x1 PUSH1 0xA0 SHL SUB DUP4 AND PUSH1 0x0 SWAP1 DUP2 MSTORE PUSH1 0x20 DUP1 MSTORE PUSH1 0x40 SWAP1 KECCAK256 SLOAD PUSH1 0x6 SLOAD PUSH2 0x3EF1 SWAP1 PUSH1 0x1 PUSH2 0x5914 JUMP JUMPDEST GT ISZERO PUSH2 0x3FCC JUMPI PUSH1 0x1 PUSH1 0x1 PUSH1 0xA0 SHL SUB DUP4 AND PUSH1 0x0 SWAP1 DUP2 MSTORE PUSH1 0x20 DUP1 DUP1 MSTORE PUSH1 0x40 DUP1 DUP4 KECCAK256 SLOAD DUP4 MSTORE PUSH1 0x1C SWAP2 DUP3 SWAP1 MSTORE DUP3 KECCAK256 SLOAD PUSH1 0x6 SLOAD PUSH8 0xDE0B6B3A7640000 SWAP4 SWAP2 SWAP3 SWAP2 SWAP1 PUSH2 0x3F38 SWAP1 PUSH1 0x1 PUSH2 0x5914 JUMP JUMPDEST DUP2 MSTORE PUSH1 0x20 ADD SWAP1 DUP2 MSTORE PUSH1 0x20 ADD PUSH1 0x0 KECCAK256 SLOAD PUSH2 0x3F51 SWAP2 SWAP1 PUSH2 0x5960 JUMP JUMPDEST PUSH1 0x1 PUSH1 0x1 PUSH1 0xA0 SHL SUB DUP6 AND PUSH1 0x0 SWAP1 DUP2 MSTORE PUSH1 0x1D PUSH1 0x20 SWAP1 DUP2 MSTORE PUSH1 0x40 DUP1 DUP4 KECCAK256 DUP3 DUP1 MSTORE DUP2 DUP5 KECCAK256 SLOAD DUP5 MSTORE SWAP1 SWAP2 MSTORE SWAP1 KECCAK256 SLOAD PUSH2 0x3F85 SWAP2 SWAP1 PUSH2 0x5927 JUMP JUMPDEST PUSH2 0x3F8F SWAP2 SWAP1 PUSH2 0x593E JUMP JUMPDEST PUSH1 0x1 PUSH1 0x1 PUSH1 0xA0 SHL SUB DUP5 AND PUSH1 0x0 SWAP1 DUP2 MSTORE PUSH1 0x16 PUSH1 0x20 MSTORE PUSH1 0x40 SWAP1 KECCAK256 SLOAD PUSH2 0x3FB2 SWAP2 SWAP1 PUSH2 0x5914 JUMP JUMPDEST PUSH1 0x1 PUSH1 0x1 PUSH1 0xA0 SHL SUB DUP5 AND PUSH1 0x0 SWAP1 DUP2 MSTORE PUSH1 0x16 PUSH1 0x20 MSTORE PUSH1 0x40 SWAP1 KECCAK256 SSTORE JUMPDEST POP PUSH1 0x1 PUSH1 0x1 PUSH1 0xA0 SHL SUB DUP3 AND PUSH1 0x0 DUP2 DUP2 MSTORE PUSH1 0x1D PUSH1 0x20 SWAP1 DUP2 MSTORE PUSH1 0x40 DUP1 DUP4 KECCAK256 DUP3 DUP1 MSTORE DUP2 DUP5 KECCAK256 DUP1 SLOAD DUP6 MSTORE SWAP1 DUP4 MSTORE SWAP1 DUP4 KECCAK256 DUP4 SWAP1 SSTORE SWAP3 DUP3 MSTORE DUP1 MSTORE SWAP1 SSTORE PUSH2 0x4032 JUMP JUMPDEST PUSH1 0x1 PUSH1 0x1 PUSH1 0xA0 SHL SUB DUP3 AND PUSH1 0x0 SWAP1 DUP2 MSTORE PUSH1 0x20 DUP1 DUP1 MSTORE PUSH1 0x40 DUP1 DUP4 KECCAK256 DUP1 SLOAD PUSH1 0x1F DUP5 MSTORE SWAP2 DUP5 KECCAK256 SWAP2 SWAP1 SWAP2 SSTORE SWAP1 DUP1 MSTORE SSTORE JUMPDEST POP JUMPDEST DUP3 PUSH1 0x0 SUB PUSH2 0x4080 JUMPI PUSH1 0x40 MLOAD PUSH3 0x461BCD PUSH1 0xE5 SHL DUP2 MSTORE PUSH1 0x20 PUSH1 0x4 DUP3 ADD MSTORE PUSH1 0x19 PUSH1 0x24 DUP3 ADD MSTORE PUSH25 0x44656230783A20616D6F756E7420617267206973207A65726F PUSH1 0x38 SHL PUSH1 0x44 DUP3 ADD MSTORE PUSH1 0x64 ADD PUSH2 0x9A9 JUMP JUMPDEST DUP3 PUSH1 0x4 PUSH1 0x0 DUP3 DUP3 SLOAD PUSH2 0x4092 SWAP2 SWAP1 PUSH2 0x5914 JUMP JUMPDEST SWAP1 SWAP2 SSTORE POP POP PUSH1 0x5 SLOAD PUSH1 0x0 SWAP1 PUSH2 0x40A8 SWAP1 PUSH1 0x1 PUSH2 0x5914 JUMP JUMPDEST SWAP1 POP PUSH1 0x8 SLOAD PUSH1 0x6 SLOAD SUB PUSH2 0x40F0 JUMPI POP PUSH1 0x5 SLOAD PUSH1 0x1 PUSH1 0x21 PUSH1 0x0 PUSH2 0x40C7 PUSH2 0x5004 JUMP JUMPDEST PUSH1 0x1 PUSH1 0x1 PUSH1 0xA0 SHL SUB AND DUP2 MSTORE PUSH1 0x20 DUP2 ADD SWAP2 SWAP1 SWAP2 MSTORE PUSH1 0x40 ADD PUSH1 0x0 KECCAK256 DUP1 SLOAD PUSH1 0xFF NOT AND SWAP2 ISZERO ISZERO SWAP2 SWAP1 SWAP2 OR SWAP1 SSTORE JUMPDEST PUSH1 0x1F PUSH1 0x0 PUSH2 0x40FC PUSH2 0x5004 JUMP JUMPDEST PUSH1 0x1 PUSH1 0x1 PUSH1 0xA0 SHL SUB AND PUSH1 0x1 PUSH1 0x1 PUSH1 0xA0 SHL SUB AND DUP2 MSTORE PUSH1 0x20 ADD SWAP1 DUP2 MSTORE PUSH1 0x20 ADD PUSH1 0x0 KECCAK256 SLOAD DUP2 EQ ISZERO DUP1 ISZERO PUSH2 0x4158 JUMPI POP PUSH1 0x20 PUSH1 0x0 PUSH2 0x4133 PUSH2 0x5004 JUMP JUMPDEST PUSH1 0x1 PUSH1 0x1 PUSH1 0xA0 SHL SUB AND PUSH1 0x1 PUSH1 0x1 PUSH1 0xA0 SHL SUB AND DUP2 MSTORE PUSH1 0x20 ADD SWAP1 DUP2 MSTORE PUSH1 0x20 ADD PUSH1 0x0 KECCAK256 SLOAD DUP2 EQ ISZERO JUMPDEST ISZERO PUSH2 0x4219 JUMPI PUSH1 0x1F PUSH1 0x0 PUSH2 0x4169 PUSH2 0x5004 JUMP JUMPDEST PUSH1 0x1 PUSH1 0x1 PUSH1 0xA0 SHL SUB AND PUSH1 0x1 PUSH1 0x1 PUSH1 0xA0 SHL SUB AND DUP2 MSTORE PUSH1 0x20 ADD SWAP1 DUP2 MSTORE PUSH1 0x20 ADD PUSH1 0x0 KECCAK256 SLOAD PUSH1 0x0 SUB PUSH2 0x41BD JUMPI DUP1 PUSH1 0x1F PUSH1 0x0 PUSH2 0x419E PUSH2 0x5004 JUMP JUMPDEST PUSH1 0x1 PUSH1 0x1 PUSH1 0xA0 SHL SUB AND DUP2 MSTORE PUSH1 0x20 DUP2 ADD SWAP2 SWAP1 SWAP2 MSTORE PUSH1 0x40 ADD PUSH1 0x0 KECCAK256 SSTORE PUSH2 0x4219 JUMP JUMPDEST PUSH1 0x20 PUSH1 0x0 PUSH2 0x41C9 PUSH2 0x5004 JUMP JUMPDEST PUSH1 0x1 PUSH1 0x1 PUSH1 0xA0 SHL SUB AND PUSH1 0x1 PUSH1 0x1 PUSH1 0xA0 SHL SUB AND DUP2 MSTORE PUSH1 0x20 ADD SWAP1 DUP2 MSTORE PUSH1 0x20 ADD PUSH1 0x0 KECCAK256 SLOAD PUSH1 0x0 SUB PUSH2 0x4219 JUMPI DUP1 PUSH1 0x20 PUSH1 0x0 PUSH2 0x41FE PUSH2 0x5004 JUMP JUMPDEST PUSH1 0x1 PUSH1 0x1 PUSH1 0xA0 SHL SUB AND DUP2 MSTORE PUSH1 0x20 DUP2 ADD SWAP2 SWAP1 SWAP2 MSTORE PUSH1 0x40 ADD PUSH1 0x0 KECCAK256 SSTORE JUMPDEST DUP4 PUSH1 0x1D PUSH1 0x0 PUSH2 0x4226 PUSH2 0x5004 JUMP JUMPDEST PUSH1 0x1 PUSH1 0x1 PUSH1 0xA0 SHL SUB AND PUSH1 0x1 PUSH1 0x1 PUSH1 0xA0 SHL SUB AND DUP2 MSTORE PUSH1 0x20 ADD SWAP1 DUP2 MSTORE PUSH1 0x20 ADD PUSH1 0x0 KECCAK256 PUSH1 0x0 DUP4 DUP2 MSTORE PUSH1 0x20 ADD SWAP1 DUP2 MSTORE PUSH1 0x20 ADD PUSH1 0x0 KECCAK256 PUSH1 0x0 DUP3 DUP3 SLOAD PUSH2 0x4266 SWAP2 SWAP1 PUSH2 0x5914 JUMP JUMPDEST SWAP1 SWAP2 SSTORE POP POP PUSH1 0x1 SLOAD PUSH1 0x1 PUSH1 0x1 PUSH1 0xA0 SHL SUB AND PUSH4 0x23B872DD PUSH2 0x4284 PUSH2 0x5004 JUMP JUMPDEST PUSH1 0x40 MLOAD PUSH1 0x1 PUSH1 0x1 PUSH1 0xE0 SHL SUB NOT PUSH1 0xE0 DUP5 SWAP1 SHL AND DUP2 MSTORE PUSH1 0x1 PUSH1 0x1 PUSH1 0xA0 SHL SUB SWAP1 SWAP2 AND PUSH1 0x4 DUP3 ADD MSTORE ADDRESS PUSH1 0x24 DUP3 ADD MSTORE PUSH1 0x44 DUP2 ADD DUP8 SWAP1 MSTORE PUSH1 0x64 ADD PUSH1 0x20 PUSH1 0x40 MLOAD DUP1 DUP4 SUB DUP2 PUSH1 0x0 DUP8 GAS CALL ISZERO DUP1 ISZERO PUSH2 0x42D7 JUMPI RETURNDATASIZE PUSH1 0x0 DUP1 RETURNDATACOPY RETURNDATASIZE PUSH1 0x0 REVERT JUMPDEST POP POP POP POP PUSH1 0x40 MLOAD RETURNDATASIZE PUSH1 0x1F NOT PUSH1 0x1F DUP3 ADD AND DUP3 ADD DUP1 PUSH1 0x40 MSTORE POP DUP2 ADD SWAP1 PUSH2 0x42FB SWAP2 SWAP1 PUSH2 0x5973 JUMP JUMPDEST POP PUSH2 0x4304 PUSH2 0x5004 JUMP JUMPDEST PUSH1 0x1 PUSH1 0x1 PUSH1 0xA0 SHL SUB AND DUP2 PUSH32 0x18DCD430020E4D4899772FD94A8B40451DC5044DFB70BC46B532EEAE431C864F DUP7 PUSH1 0x40 MLOAD PUSH2 0x433F SWAP2 DUP2 MSTORE PUSH1 0x20 ADD SWAP1 JUMP JUMPDEST PUSH1 0x40 MLOAD DUP1 SWAP2 SUB SWAP1 LOG3 POP POP PUSH1 0x1 PUSH1 0x0 SSTORE POP POP JUMP JUMPDEST PUSH1 0xC PUSH1 0x20 MSTORE PUSH1 0x0 SWAP1 DUP2 MSTORE PUSH1 0x40 SWAP1 KECCAK256 DUP1 SLOAD PUSH2 0x436B SWAP1 PUSH2 0x59D7 JUMP JUMPDEST DUP1 PUSH1 0x1F ADD PUSH1 0x20 DUP1 SWAP2 DIV MUL PUSH1 0x20 ADD PUSH1 0x40 MLOAD SWAP1 DUP2 ADD PUSH1 0x40 MSTORE DUP1 SWAP3 SWAP2 SWAP1 DUP2 DUP2 MSTORE PUSH1 0x20 ADD DUP3 DUP1 SLOAD PUSH2 0x4397 SWAP1 PUSH2 0x59D7 JUMP JUMPDEST DUP1 ISZERO PUSH2 0x43E4 JUMPI DUP1 PUSH1 0x1F LT PUSH2 0x43B9 JUMPI PUSH2 0x100 DUP1 DUP4 SLOAD DIV MUL DUP4 MSTORE SWAP2 PUSH1 0x20 ADD SWAP2 PUSH2 0x43E4 JUMP JUMPDEST DUP3 ADD SWAP2 SWAP1 PUSH1 0x0 MSTORE PUSH1 0x20 PUSH1 0x0 KECCAK256 SWAP1 JUMPDEST DUP2 SLOAD DUP2 MSTORE SWAP1 PUSH1 0x1 ADD SWAP1 PUSH1 0x20 ADD DUP1 DUP4 GT PUSH2 0x43C7 JUMPI DUP3 SWAP1 SUB PUSH1 0x1F AND DUP3 ADD SWAP2 JUMPDEST POP POP POP POP POP DUP2 JUMP JUMPDEST DUP1 PUSH1 0xC PUSH1 0x0 PUSH2 0x43F9 PUSH2 0x5004 JUMP JUMPDEST PUSH1 0x1 PUSH1 0x1 PUSH1 0xA0 SHL SUB AND DUP2 MSTORE PUSH1 0x20 DUP2 ADD SWAP2 SWAP1 SWAP2 MSTORE PUSH1 0x40 ADD PUSH1 0x0 KECCAK256 SWAP1 PUSH2 0x441D SWAP1 DUP3 PUSH2 0x5A5F JUMP JUMPDEST POP PUSH1 0x0 DUP2 PUSH1 0x40 MLOAD PUSH1 0x20 ADD PUSH2 0x4431 SWAP2 SWAP1 PUSH2 0x5B1F JUMP JUMPDEST PUSH1 0x40 MLOAD PUSH1 0x20 DUP2 DUP4 SUB SUB DUP2 MSTORE SWAP1 PUSH1 0x40 MSTORE DUP1 MLOAD SWAP1 PUSH1 0x20 ADD KECCAK256 SWAP1 POP DUP1 PUSH2 0x4452 PUSH2 0x5004 JUMP JUMPDEST PUSH1 0x1 PUSH1 0x1 PUSH1 0xA0 SHL SUB AND PUSH32 0x1DB169902A3B228AB764219BFC023384698A05B8A3D1BD2E046867A1DEDF78A9 DUP5 PUSH1 0x40 MLOAD PUSH2 0x448A SWAP2 SWAP1 PUSH2 0x584D JUMP JUMPDEST PUSH1 0x40 MLOAD DUP1 SWAP2 SUB SWAP1 LOG3 POP POP JUMP JUMPDEST PUSH1 0x0 PUSH32 0x0 PUSH2 0x44E3 PUSH32 0x0 TIMESTAMP PUSH2 0x5960 JUMP JUMPDEST PUSH2 0x44ED SWAP2 SWAP1 PUSH2 0x593E JUMP JUMPDEST SWAP1 POP SWAP1 JUMP JUMPDEST PUSH1 0x2 PUSH1 0x0 SLOAD SUB PUSH2 0x4514 JUMPI PUSH1 0x40 MLOAD PUSH3 0x461BCD PUSH1 0xE5 SHL DUP2 MSTORE PUSH1 0x4 ADD PUSH2 0x9A9 SWAP1 PUSH2 0x58C7 JUMP JUMPDEST PUSH1 0x2 PUSH1 0x0 SWAP1 DUP2 SSTORE PUSH2 0x4523 PUSH2 0x4496 JUMP JUMPDEST SWAP1 POP PUSH1 0x5 SLOAD DUP2 GT ISZERO PUSH2 0x4535 JUMPI PUSH1 0x5 DUP2 SWAP1 SSTORE JUMPDEST PUSH1 0x8 SLOAD PUSH1 0x5 SLOAD EQ PUSH2 0x4558 JUMPI PUSH1 0x6 SLOAD PUSH2 0x454E SWAP1 PUSH1 0x1 PUSH2 0x5914 JUMP JUMPDEST PUSH1 0x7 SSTORE PUSH1 0x8 SLOAD PUSH1 0x6 SSTORE JUMPDEST PUSH1 0x6 SLOAD PUSH1 0x5 SLOAD GT DUP1 ISZERO PUSH2 0x458C JUMPI POP PUSH1 0x1C PUSH1 0x0 PUSH1 0x6 SLOAD PUSH1 0x1 PUSH2 0x4579 SWAP2 SWAP1 PUSH2 0x5914 JUMP JUMPDEST DUP2 MSTORE PUSH1 0x20 ADD SWAP1 DUP2 MSTORE PUSH1 0x20 ADD PUSH1 0x0 KECCAK256 SLOAD PUSH1 0x0 EQ JUMPDEST ISZERO PUSH2 0x4611 JUMPI PUSH1 0x6 SLOAD PUSH1 0x0 SWAP1 DUP2 MSTORE PUSH1 0x19 PUSH1 0x20 SWAP1 DUP2 MSTORE PUSH1 0x40 DUP1 DUP4 KECCAK256 SLOAD PUSH1 0x1B SWAP1 SWAP3 MSTORE DUP3 KECCAK256 SLOAD PUSH2 0x45C1 SWAP1 PUSH8 0xDE0B6B3A7640000 SWAP1 PUSH2 0x5927 JUMP JUMPDEST PUSH2 0x45CB SWAP2 SWAP1 PUSH2 0x593E JUMP JUMPDEST PUSH1 0x7 SLOAD PUSH1 0x0 SWAP1 DUP2 MSTORE PUSH1 0x1C PUSH1 0x20 MSTORE PUSH1 0x40 SWAP1 KECCAK256 SLOAD SWAP1 SWAP2 POP PUSH2 0x45EB SWAP1 DUP3 SWAP1 PUSH2 0x5914 JUMP JUMPDEST PUSH1 0x1C PUSH1 0x0 PUSH1 0x6 SLOAD PUSH1 0x1 PUSH2 0x45FE SWAP2 SWAP1 PUSH2 0x5914 JUMP JUMPDEST DUP2 MSTORE PUSH1 0x20 DUP2 ADD SWAP2 SWAP1 SWAP2 MSTORE PUSH1 0x40 ADD PUSH1 0x0 KECCAK256 SSTORE POP JUMPDEST PUSH2 0x4619 PUSH2 0x5004 JUMP JUMPDEST PUSH1 0x1 PUSH1 0x1 PUSH1 0xA0 SHL SUB DUP2 AND PUSH1 0x0 SWAP1 DUP2 MSTORE PUSH1 0x11 PUSH1 0x20 MSTORE PUSH1 0x40 SWAP1 KECCAK256 SLOAD PUSH1 0x5 SLOAD GT DUP1 ISZERO PUSH2 0x4659 JUMPI POP PUSH1 0x1 PUSH1 0x1 PUSH1 0xA0 SHL SUB DUP2 AND PUSH1 0x0 SWAP1 DUP2 MSTORE PUSH1 0xF PUSH1 0x20 MSTORE PUSH1 0x40 SWAP1 KECCAK256 SLOAD ISZERO ISZERO JUMPDEST ISZERO PUSH2 0x47C0 JUMPI PUSH1 0x1 PUSH1 0x1 PUSH1 0xA0 SHL SUB DUP2 AND PUSH1 0x0 DUP2 DUP2 MSTORE PUSH1 0x11 PUSH1 0x20 SWAP1 DUP2 MSTORE PUSH1 0x40 DUP1 DUP4 KECCAK256 SLOAD DUP4 MSTORE PUSH1 0x10 DUP3 MSTORE DUP1 DUP4 KECCAK256 SLOAD PUSH1 0x18 DUP4 MSTORE DUP2 DUP5 KECCAK256 SLOAD SWAP5 DUP5 MSTORE PUSH1 0xF SWAP1 SWAP3 MSTORE DUP3 KECCAK256 SLOAD SWAP2 SWAP3 SWAP1 SWAP2 PUSH2 0x46A5 SWAP2 SWAP1 PUSH2 0x5927 JUMP JUMPDEST PUSH2 0x46AF SWAP2 SWAP1 PUSH2 0x593E JUMP JUMPDEST PUSH1 0x1 PUSH1 0x1 PUSH1 0xA0 SHL SUB DUP4 AND PUSH1 0x0 SWAP1 DUP2 MSTORE PUSH1 0x15 PUSH1 0x20 MSTORE PUSH1 0x40 DUP2 KECCAK256 DUP1 SLOAD SWAP3 SWAP4 POP DUP4 SWAP3 SWAP1 SWAP2 SWAP1 PUSH2 0x46DC SWAP1 DUP5 SWAP1 PUSH2 0x5914 JUMP JUMPDEST SWAP1 SWAP2 SSTORE POP POP PUSH1 0x1 PUSH1 0x1 PUSH1 0xA0 SHL SUB DUP3 AND PUSH1 0x0 SWAP1 DUP2 MSTORE PUSH1 0xD PUSH1 0x20 MSTORE PUSH1 0x40 SWAP1 KECCAK256 SLOAD ISZERO PUSH2 0x47A5 JUMPI PUSH1 0x1 PUSH1 0x1 PUSH1 0xA0 SHL SUB DUP3 AND PUSH1 0x0 SWAP1 DUP2 MSTORE PUSH1 0xF PUSH1 0x20 MSTORE PUSH1 0x40 DUP2 KECCAK256 SLOAD PUSH2 0x4722 SWAP1 DUP4 PUSH2 0x593E JUMP JUMPDEST PUSH1 0x1 PUSH1 0x1 PUSH1 0xA0 SHL SUB DUP5 AND PUSH1 0x0 SWAP1 DUP2 MSTORE PUSH1 0xD PUSH1 0x20 MSTORE PUSH1 0x40 DUP2 KECCAK256 SLOAD SWAP2 SWAP3 POP SWAP1 PUSH2 0x2710 SWAP1 PUSH2 0x474D SWAP1 DUP5 PUSH2 0x5927 JUMP JUMPDEST PUSH2 0x4757 SWAP2 SWAP1 PUSH2 0x593E JUMP JUMPDEST PUSH1 0x1 PUSH1 0x1 PUSH1 0xA0 SHL SUB DUP6 AND PUSH1 0x0 SWAP1 DUP2 MSTORE PUSH1 0x15 PUSH1 0x20 MSTORE PUSH1 0x40 DUP2 KECCAK256 DUP1 SLOAD SWAP3 SWAP4 POP DUP4 SWAP3 SWAP1 SWAP2 SWAP1 PUSH2 0x4784 SWAP1 DUP5 SWAP1 PUSH2 0x5960 JUMP JUMPDEST SWAP1 SWAP2 SSTORE POP POP POP PUSH1 0x1 PUSH1 0x1 PUSH1 0xA0 SHL SUB DUP4 AND PUSH1 0x0 SWAP1 DUP2 MSTORE PUSH1 0xD PUSH1 0x20 MSTORE PUSH1 0x40 DUP2 KECCAK256 SSTORE POP JUMPDEST POP PUSH1 0x1 PUSH1 0x1 PUSH1 0xA0 SHL SUB DUP2 AND PUSH1 0x0 SWAP1 DUP2 MSTORE PUSH1 0xF PUSH1 0x20 MSTORE PUSH1 0x40 DUP2 KECCAK256 SSTORE JUMPDEST PUSH1 0x6 SLOAD PUSH1 0x5 SLOAD GT DUP1 ISZERO PUSH2 0x47F8 JUMPI POP PUSH1 0x6 SLOAD PUSH2 0x47DC SWAP1 PUSH1 0x1 PUSH2 0x5914 JUMP JUMPDEST PUSH1 0x1 PUSH1 0x1 PUSH1 0xA0 SHL SUB DUP3 AND PUSH1 0x0 SWAP1 DUP2 MSTORE PUSH1 0x1A PUSH1 0x20 MSTORE PUSH1 0x40 SWAP1 KECCAK256 SLOAD EQ ISZERO JUMPDEST ISZERO PUSH2 0x48EA JUMPI PUSH1 0x1 PUSH1 0x1 PUSH1 0xA0 SHL SUB DUP2 AND PUSH1 0x0 SWAP1 DUP2 MSTORE PUSH1 0x1A PUSH1 0x20 SWAP1 DUP2 MSTORE PUSH1 0x40 DUP1 DUP4 KECCAK256 SLOAD DUP4 MSTORE PUSH1 0x1C SWAP2 DUP3 SWAP1 MSTORE DUP3 KECCAK256 SLOAD PUSH1 0x6 SLOAD PUSH8 0xDE0B6B3A7640000 SWAP4 SWAP2 SWAP3 SWAP2 SWAP1 PUSH2 0x4840 SWAP1 PUSH1 0x1 PUSH2 0x5914 JUMP JUMPDEST DUP2 MSTORE PUSH1 0x20 ADD SWAP1 DUP2 MSTORE PUSH1 0x20 ADD PUSH1 0x0 KECCAK256 SLOAD PUSH2 0x4859 SWAP2 SWAP1 PUSH2 0x5960 JUMP JUMPDEST PUSH1 0x1 PUSH1 0x1 PUSH1 0xA0 SHL SUB DUP4 AND PUSH1 0x0 SWAP1 DUP2 MSTORE PUSH1 0x15 PUSH1 0x20 MSTORE PUSH1 0x40 SWAP1 KECCAK256 SLOAD PUSH2 0x487C SWAP2 SWAP1 PUSH2 0x5927 JUMP JUMPDEST PUSH2 0x4886 SWAP2 SWAP1 PUSH2 0x593E JUMP JUMPDEST PUSH1 0x1 PUSH1 0x1 PUSH1 0xA0 SHL SUB DUP3 AND PUSH1 0x0 SWAP1 DUP2 MSTORE PUSH1 0x16 PUSH1 0x20 MSTORE PUSH1 0x40 SWAP1 KECCAK256 SLOAD PUSH2 0x48A9 SWAP2 SWAP1 PUSH2 0x5914 JUMP JUMPDEST PUSH1 0x1 PUSH1 0x1 PUSH1 0xA0 SHL SUB DUP3 AND PUSH1 0x0 SWAP1 DUP2 MSTORE PUSH1 0x16 PUSH1 0x20 MSTORE PUSH1 0x40 SWAP1 KECCAK256 SSTORE PUSH1 0x6 SLOAD PUSH2 0x48D0 SWAP1 PUSH1 0x1 PUSH2 0x5914 JUMP JUMPDEST PUSH1 0x1 PUSH1 0x1 PUSH1 0xA0 SHL SUB DUP3 AND PUSH1 0x0 SWAP1 DUP2 MSTORE PUSH1 0x1A PUSH1 0x20 MSTORE PUSH1 0x40 SWAP1 KECCAK256 SSTORE JUMPDEST PUSH1 0x1 PUSH1 0x1 PUSH1 0xA0 SHL SUB DUP2 AND PUSH1 0x0 SWAP1 DUP2 MSTORE PUSH1 0x1F PUSH1 0x20 MSTORE PUSH1 0x40 SWAP1 KECCAK256 SLOAD ISZERO DUP1 ISZERO SWAP1 PUSH2 0x4935 JUMPI POP PUSH1 0x1 PUSH1 0x1 PUSH1 0xA0 SHL SUB DUP2 AND PUSH1 0x0 SWAP1 DUP2 MSTORE PUSH1 0x1F PUSH1 0x20 MSTORE PUSH1 0x40 DUP2 KECCAK256 SLOAD PUSH1 0x5 SLOAD PUSH2 0x4932 SWAP2 SWAP1 PUSH2 0x5960 JUMP JUMPDEST LT ISZERO JUMPDEST DUP1 ISZERO PUSH2 0x4959 JUMPI POP PUSH1 0x1 PUSH1 0x1 PUSH1 0xA0 SHL SUB DUP2 AND PUSH1 0x0 SWAP1 DUP2 MSTORE PUSH1 0x21 PUSH1 0x20 MSTORE PUSH1 0x40 SWAP1 KECCAK256 SLOAD PUSH1 0xFF AND JUMPDEST ISZERO PUSH2 0x4B23 JUMPI PUSH1 0x1 PUSH1 0x1 PUSH1 0xA0 SHL SUB DUP2 AND PUSH1 0x0 DUP2 DUP2 MSTORE PUSH1 0x1D PUSH1 0x20 SWAP1 DUP2 MSTORE PUSH1 0x40 DUP1 DUP4 KECCAK256 PUSH1 0x1F DUP4 MSTORE DUP2 DUP5 KECCAK256 SLOAD DUP5 MSTORE DUP3 MSTORE DUP1 DUP4 KECCAK256 SLOAD SWAP4 DUP4 MSTORE PUSH1 0x15 SWAP1 SWAP2 MSTORE DUP2 KECCAK256 DUP1 SLOAD DUP4 SWAP3 SWAP1 PUSH2 0x49A3 SWAP1 DUP5 SWAP1 PUSH2 0x5914 JUMP JUMPDEST SWAP1 SWAP2 SSTORE POP POP PUSH1 0x1 PUSH1 0x1 PUSH1 0xA0 SHL SUB DUP3 AND PUSH1 0x0 SWAP1 DUP2 MSTORE PUSH1 0x1E PUSH1 0x20 MSTORE PUSH1 0x40 DUP2 KECCAK256 DUP1 SLOAD DUP4 SWAP3 SWAP1 PUSH2 0x49D0 SWAP1 DUP5 SWAP1 PUSH2 0x5914 JUMP JUMPDEST SWAP1 SWAP2 SSTORE POP POP PUSH1 0x1 PUSH1 0x1 PUSH1 0xA0 SHL SUB DUP3 AND PUSH1 0x0 SWAP1 DUP2 MSTORE PUSH1 0x1F PUSH1 0x20 MSTORE PUSH1 0x40 SWAP1 KECCAK256 SLOAD PUSH1 0x6 SLOAD PUSH2 0x49FC SWAP1 PUSH1 0x1 PUSH2 0x5914 JUMP JUMPDEST GT ISZERO PUSH2 0x4ADA JUMPI PUSH1 0x1 PUSH1 0x1 PUSH1 0xA0 SHL SUB DUP3 AND PUSH1 0x0 SWAP1 DUP2 MSTORE PUSH1 0x1F PUSH1 0x20 SWAP1 DUP2 MSTORE PUSH1 0x40 DUP1 DUP4 KECCAK256 SLOAD DUP4 MSTORE PUSH1 0x1C SWAP2 DUP3 SWAP1 MSTORE DUP3 KECCAK256 SLOAD PUSH1 0x6 SLOAD PUSH8 0xDE0B6B3A7640000 SWAP4 SWAP2 SWAP3 SWAP2 SWAP1 PUSH2 0x4A45 SWAP1 PUSH1 0x1 PUSH2 0x5914 JUMP JUMPDEST DUP2 MSTORE PUSH1 0x20 ADD SWAP1 DUP2 MSTORE PUSH1 0x20 ADD PUSH1 0x0 KECCAK256 SLOAD PUSH2 0x4A5E SWAP2 SWAP1 PUSH2 0x5960 JUMP JUMPDEST PUSH1 0x1 PUSH1 0x1 PUSH1 0xA0 SHL SUB DUP5 AND PUSH1 0x0 SWAP1 DUP2 MSTORE PUSH1 0x1D PUSH1 0x20 SWAP1 DUP2 MSTORE PUSH1 0x40 DUP1 DUP4 KECCAK256 PUSH1 0x1F DUP4 MSTORE DUP2 DUP5 KECCAK256 SLOAD DUP5 MSTORE SWAP1 SWAP2 MSTORE SWAP1 KECCAK256 SLOAD PUSH2 0x4A93 SWAP2 SWAP1 PUSH2 0x5927 JUMP JUMPDEST PUSH2 0x4A9D SWAP2 SWAP1 PUSH2 0x593E JUMP JUMPDEST PUSH1 0x1 PUSH1 0x1 PUSH1 0xA0 SHL SUB DUP4 AND PUSH1 0x0 SWAP1 DUP2 MSTORE PUSH1 0x16 PUSH1 0x20 MSTORE PUSH1 0x40 SWAP1 KECCAK256 SLOAD PUSH2 0x4AC0 SWAP2 SWAP1 PUSH2 0x5914 JUMP JUMPDEST PUSH1 0x1 PUSH1 0x1 PUSH1 0xA0 SHL SUB DUP4 AND PUSH1 0x0 SWAP1 DUP2 MSTORE PUSH1 0x16 PUSH1 0x20 MSTORE PUSH1 0x40 SWAP1 KECCAK256 SSTORE JUMPDEST POP PUSH1 0x1 PUSH1 0x1 PUSH1 0xA0 SHL SUB DUP2 AND PUSH1 0x0 DUP2 DUP2 MSTORE PUSH1 0x1D PUSH1 0x20 SWAP1 DUP2 MSTORE PUSH1 0x40 DUP1 DUP4 KECCAK256 PUSH1 0x1F DUP4 MSTORE DUP2 DUP5 KECCAK256 DUP1 SLOAD DUP6 MSTORE SWAP1 DUP4 MSTORE DUP2 DUP5 KECCAK256 DUP5 SWAP1 SSTORE SWAP4 DUP4 MSTORE SWAP3 DUP3 SWAP1 SSTORE PUSH1 0x21 SWAP1 MSTORE KECCAK256 DUP1 SLOAD PUSH1 0xFF NOT AND SWAP1 SSTORE PUSH2 0x4F37 JUMP JUMPDEST PUSH1 0x1 PUSH1 0x1 PUSH1 0xA0 SHL SUB DUP2 AND PUSH1 0x0 SWAP1 DUP2 MSTORE PUSH1 0x1F PUSH1 0x20 MSTORE PUSH1 0x40 SWAP1 KECCAK256 SLOAD ISZERO DUP1 ISZERO SWAP1 PUSH2 0x4B6D JUMPI POP PUSH1 0x1 PUSH1 0x1 PUSH1 0xA0 SHL SUB DUP2 AND PUSH1 0x0 SWAP1 DUP2 MSTORE PUSH1 0x1F PUSH1 0x20 MSTORE PUSH1 0x40 DUP2 KECCAK256 SLOAD PUSH1 0x5 SLOAD PUSH2 0x4B6B SWAP2 SWAP1 PUSH2 0x5960 JUMP JUMPDEST GT JUMPDEST ISZERO PUSH2 0x4F37 JUMPI PUSH1 0x1 PUSH1 0x1 PUSH1 0xA0 SHL SUB DUP2 AND PUSH1 0x0 DUP2 DUP2 MSTORE PUSH1 0x1D PUSH1 0x20 SWAP1 DUP2 MSTORE PUSH1 0x40 DUP1 DUP4 KECCAK256 PUSH1 0x1F DUP4 MSTORE DUP2 DUP5 KECCAK256 SLOAD DUP5 MSTORE DUP3 MSTORE DUP1 DUP4 KECCAK256 SLOAD SWAP4 DUP4 MSTORE PUSH1 0x15 SWAP1 SWAP2 MSTORE DUP2 KECCAK256 DUP1 SLOAD DUP4 SWAP3 SWAP1 PUSH2 0x4BB7 SWAP1 DUP5 SWAP1 PUSH2 0x5914 JUMP JUMPDEST SWAP1 SWAP2 SSTORE POP POP PUSH1 0x1 PUSH1 0x1 PUSH1 0xA0 SHL SUB DUP3 AND PUSH1 0x0 SWAP1 DUP2 MSTORE PUSH1 0x1E PUSH1 0x20 MSTORE PUSH1 0x40 DUP2 KECCAK256 DUP1 SLOAD DUP4 SWAP3 SWAP1 PUSH2 0x4BE4 SWAP1 DUP5 SWAP1 PUSH2 0x5914 JUMP JUMPDEST SWAP1 SWAP2 SSTORE POP POP PUSH1 0x1 PUSH1 0x1 PUSH1 0xA0 SHL SUB DUP3 AND PUSH1 0x0 SWAP1 DUP2 MSTORE PUSH1 0x1F PUSH1 0x20 MSTORE PUSH1 0x40 SWAP1 KECCAK256 SLOAD PUSH1 0x6 SLOAD PUSH2 0x4C10 SWAP1 PUSH1 0x1 PUSH2 0x5914 JUMP JUMPDEST GT ISZERO PUSH2 0x4CEE JUMPI PUSH1 0x1 PUSH1 0x1 PUSH1 0xA0 SHL SUB DUP3 AND PUSH1 0x0 SWAP1 DUP2 MSTORE PUSH1 0x1F PUSH1 0x20 SWAP1 DUP2 MSTORE PUSH1 0x40 DUP1 DUP4 KECCAK256 SLOAD DUP4 MSTORE PUSH1 0x1C SWAP2 DUP3 SWAP1 MSTORE DUP3 KECCAK256 SLOAD PUSH1 0x6 SLOAD PUSH8 0xDE0B6B3A7640000 SWAP4 SWAP2 SWAP3 SWAP2 SWAP1 PUSH2 0x4C59 SWAP1 PUSH1 0x1 PUSH2 0x5914 JUMP JUMPDEST DUP2 MSTORE PUSH1 0x20 ADD SWAP1 DUP2 MSTORE PUSH1 0x20 ADD PUSH1 0x0 KECCAK256 SLOAD PUSH2 0x4C72 SWAP2 SWAP1 PUSH2 0x5960 JUMP JUMPDEST PUSH1 0x1 PUSH1 0x1 PUSH1 0xA0 SHL SUB DUP5 AND PUSH1 0x0 SWAP1 DUP2 MSTORE PUSH1 0x1D PUSH1 0x20 SWAP1 DUP2 MSTORE PUSH1 0x40 DUP1 DUP4 KECCAK256 PUSH1 0x1F DUP4 MSTORE DUP2 DUP5 KECCAK256 SLOAD DUP5 MSTORE SWAP1 SWAP2 MSTORE SWAP1 KECCAK256 SLOAD PUSH2 0x4CA7 SWAP2 SWAP1 PUSH2 0x5927 JUMP JUMPDEST PUSH2 0x4CB1 SWAP2 SWAP1 PUSH2 0x593E JUMP JUMPDEST PUSH1 0x1 PUSH1 0x1 PUSH1 0xA0 SHL SUB DUP4 AND PUSH1 0x0 SWAP1 DUP2 MSTORE PUSH1 0x16 PUSH1 0x20 MSTORE PUSH1 0x40 SWAP1 KECCAK256 SLOAD PUSH2 0x4CD4 SWAP2 SWAP1 PUSH2 0x5914 JUMP JUMPDEST PUSH1 0x1 PUSH1 0x1 PUSH1 0xA0 SHL SUB DUP4 AND PUSH1 0x0 SWAP1 DUP2 MSTORE PUSH1 0x16 PUSH1 0x20 MSTORE PUSH1 0x40 SWAP1 KECCAK256 SSTORE JUMPDEST PUSH1 0x1 PUSH1 0x1 PUSH1 0xA0 SHL SUB DUP3 AND PUSH1 0x0 DUP2 DUP2 MSTORE PUSH1 0x1D PUSH1 0x20 SWAP1 DUP2 MSTORE PUSH1 0x40 DUP1 DUP4 KECCAK256 PUSH1 0x1F DUP4 MSTORE DUP2 DUP5 KECCAK256 DUP1 SLOAD DUP6 MSTORE SWAP1 DUP4 MSTORE DUP2 DUP5 KECCAK256 DUP5 SWAP1 SSTORE SWAP4 DUP4 MSTORE SWAP3 DUP3 SWAP1 SSTORE DUP1 MSTORE KECCAK256 SLOAD ISZERO PUSH2 0x4F35 JUMPI PUSH1 0x1 PUSH1 0x1 PUSH1 0xA0 SHL SUB DUP3 AND PUSH1 0x0 SWAP1 DUP2 MSTORE PUSH1 0x20 DUP1 MSTORE PUSH1 0x40 DUP2 KECCAK256 SLOAD PUSH1 0x5 SLOAD PUSH2 0x4D52 SWAP2 SWAP1 PUSH2 0x5960 JUMP JUMPDEST GT ISZERO PUSH2 0x4F0A JUMPI PUSH1 0x1 PUSH1 0x1 PUSH1 0xA0 SHL SUB DUP3 AND PUSH1 0x0 DUP2 DUP2 MSTORE PUSH1 0x1D PUSH1 0x20 SWAP1 DUP2 MSTORE PUSH1 0x40 DUP1 DUP4 KECCAK256 DUP3 DUP1 MSTORE DUP2 DUP5 KECCAK256 SLOAD DUP5 MSTORE DUP3 MSTORE DUP1 DUP4 KECCAK256 SLOAD SWAP4 DUP4 MSTORE PUSH1 0x15 SWAP1 SWAP2 MSTORE DUP2 KECCAK256 DUP1 SLOAD DUP4 SWAP3 SWAP1 PUSH2 0x4D9C SWAP1 DUP5 SWAP1 PUSH2 0x5914 JUMP JUMPDEST SWAP1 SWAP2 SSTORE POP POP PUSH1 0x1 PUSH1 0x1 PUSH1 0xA0 SHL SUB DUP4 AND PUSH1 0x0 SWAP1 DUP2 MSTORE PUSH1 0x1E PUSH1 0x20 MSTORE PUSH1 0x40 DUP2 KECCAK256 DUP1 SLOAD DUP4 SWAP3 SWAP1 PUSH2 0x4DC9 SWAP1 DUP5 SWAP1 PUSH2 0x5914 JUMP JUMPDEST SWAP1 SWAP2 SSTORE POP POP PUSH1 0x1 PUSH1 0x1 PUSH1 0xA0 SHL SUB DUP4 AND PUSH1 0x0 SWAP1 DUP2 MSTORE PUSH1 0x20 DUP1 MSTORE PUSH1 0x40 SWAP1 KECCAK256 SLOAD PUSH1 0x6 SLOAD PUSH2 0x4DF4 SWAP1 PUSH1 0x1 PUSH2 0x5914 JUMP JUMPDEST GT ISZERO PUSH2 0x4ECF JUMPI PUSH1 0x1 PUSH1 0x1 PUSH1 0xA0 SHL SUB DUP4 AND PUSH1 0x0 SWAP1 DUP2 MSTORE PUSH1 0x20 DUP1 DUP1 MSTORE PUSH1 0x40 DUP1 DUP4 KECCAK256 SLOAD DUP4 MSTORE PUSH1 0x1C SWAP2 DUP3 SWAP1 MSTORE DUP3 KECCAK256 SLOAD PUSH1 0x6 SLOAD PUSH8 0xDE0B6B3A7640000 SWAP4 SWAP2 SWAP3 SWAP2 SWAP1 PUSH2 0x4E3B SWAP1 PUSH1 0x1 PUSH2 0x5914 JUMP JUMPDEST DUP2 MSTORE PUSH1 0x20 ADD SWAP1 DUP2 MSTORE PUSH1 0x20 ADD PUSH1 0x0 KECCAK256 SLOAD PUSH2 0x4E54 SWAP2 SWAP1 PUSH2 0x5960 JUMP JUMPDEST PUSH1 0x1 PUSH1 0x1 PUSH1 0xA0 SHL SUB DUP6 AND PUSH1 0x0 SWAP1 DUP2 MSTORE PUSH1 0x1D PUSH1 0x20 SWAP1 DUP2 MSTORE PUSH1 0x40 DUP1 DUP4 KECCAK256 DUP3 DUP1 MSTORE DUP2 DUP5 KECCAK256 SLOAD DUP5 MSTORE SWAP1 SWAP2 MSTORE SWAP1 KECCAK256 SLOAD PUSH2 0x4E88 SWAP2 SWAP1 PUSH2 0x5927 JUMP JUMPDEST PUSH2 0x4E92 SWAP2 SWAP1 PUSH2 0x593E JUMP JUMPDEST PUSH1 0x1 PUSH1 0x1 PUSH1 0xA0 SHL SUB DUP5 AND PUSH1 0x0 SWAP1 DUP2 MSTORE PUSH1 0x16 PUSH1 0x20 MSTORE PUSH1 0x40 SWAP1 KECCAK256 SLOAD PUSH2 0x4EB5 SWAP2 SWAP1 PUSH2 0x5914 JUMP JUMPDEST PUSH1 0x1 PUSH1 0x1 PUSH1 0xA0 SHL SUB DUP5 AND PUSH1 0x0 SWAP1 DUP2 MSTORE PUSH1 0x16 PUSH1 0x20 MSTORE PUSH1 0x40 SWAP1 KECCAK256 SSTORE JUMPDEST POP PUSH1 0x1 PUSH1 0x1 PUSH1 0xA0 SHL SUB DUP3 AND PUSH1 0x0 DUP2 DUP2 MSTORE PUSH1 0x1D PUSH1 0x20 SWAP1 DUP2 MSTORE PUSH1 0x40 DUP1 DUP4 KECCAK256 DUP3 DUP1 MSTORE DUP2 DUP5 KECCAK256 DUP1 SLOAD DUP6 MSTORE SWAP1 DUP4 MSTORE SWAP1 DUP4 KECCAK256 DUP4 SWAP1 SSTORE SWAP3 DUP3 MSTORE DUP1 MSTORE SWAP1 SSTORE PUSH2 0x4F35 JUMP JUMPDEST PUSH1 0x1 PUSH1 0x1 PUSH1 0xA0 SHL SUB DUP3 AND PUSH1 0x0 SWAP1 DUP2 MSTORE PUSH1 0x20 DUP1 DUP1 MSTORE PUSH1 0x40 DUP1 DUP4 KECCAK256 DUP1 SLOAD PUSH1 0x1F DUP5 MSTORE SWAP2 DUP5 KECCAK256 SWAP2 SWAP1 SWAP2 SSTORE SWAP1 DUP1 MSTORE SSTORE JUMPDEST POP JUMPDEST PUSH1 0x0 PUSH1 0x16 PUSH1 0x0 PUSH2 0x4F45 PUSH2 0x5004 JUMP JUMPDEST PUSH1 0x1 PUSH1 0x1 PUSH1 0xA0 SHL SUB AND PUSH1 0x1 PUSH1 0x1 PUSH1 0xA0 SHL SUB AND DUP2 MSTORE PUSH1 0x20 ADD SWAP1 DUP2 MSTORE PUSH1 0x20 ADD PUSH1 0x0 KECCAK256 SLOAD SWAP1 POP PUSH1 0x0 DUP2 GT PUSH2 0x4F88 JUMPI PUSH1 0x40 MLOAD PUSH3 0x461BCD PUSH1 0xE5 SHL DUP2 MSTORE PUSH1 0x4 ADD PUSH2 0x9A9 SWAP1 PUSH2 0x5995 JUMP JUMPDEST PUSH1 0x0 PUSH1 0x16 PUSH1 0x0 PUSH2 0x4F96 PUSH2 0x5004 JUMP JUMPDEST PUSH1 0x1 PUSH1 0x1 PUSH1 0xA0 SHL SUB AND DUP2 MSTORE PUSH1 0x20 DUP2 ADD SWAP2 SWAP1 SWAP2 MSTORE PUSH1 0x40 ADD PUSH1 0x0 KECCAK256 SSTORE PUSH2 0x4FBB PUSH2 0x2474 PUSH2 0x5004 JUMP JUMPDEST PUSH2 0x4FC3 PUSH2 0x5004 JUMP JUMPDEST PUSH1 0x1 PUSH1 0x1 PUSH1 0xA0 SHL SUB AND PUSH2 0x4FD4 PUSH2 0x4496 JUMP JUMPDEST PUSH1 0x40 MLOAD DUP4 DUP2 MSTORE PUSH32 0x2227733FC4C8A9034CB58087DCF6995128B9C0233B038B03366AAF30C92B92D6 SWAP1 PUSH1 0x20 ADD PUSH2 0x165B JUMP JUMPDEST PUSH1 0x0 PUSH32 0x0 PUSH1 0x1 PUSH1 0x1 PUSH1 0xA0 SHL SUB AND CALLER SUB PUSH2 0x5043 JUMPI POP PUSH1 0x13 NOT CALLDATASIZE ADD CALLDATALOAD PUSH1 0x60 SHR SWAP1 JUMP JUMPDEST POP CALLER SWAP1 JUMP JUMPDEST PUSH1 0x1 PUSH1 0x1 PUSH1 0xA0 SHL SUB DUP2 AND PUSH1 0x0 SWAP1 DUP2 MSTORE PUSH1 0x12 PUSH1 0x20 MSTORE PUSH1 0x40 SWAP1 KECCAK256 SLOAD PUSH1 0x5 SLOAD GT ISZERO PUSH2 0x516D JUMPI PUSH1 0x1 PUSH1 0x1 PUSH1 0xA0 SHL SUB DUP2 AND PUSH1 0x0 SWAP1 DUP2 MSTORE PUSH1 0x12 PUSH1 0x20 SWAP1 DUP2 MSTORE PUSH1 0x40 DUP1 DUP4 KECCAK256 SLOAD PUSH1 0xE SWAP1 SWAP3 MSTORE SWAP1 SWAP2 KECCAK256 SLOAD ISZERO DUP1 ISZERO SWAP1 PUSH2 0x50AA JUMPI POP PUSH1 0x0 DUP2 DUP2 MSTORE PUSH1 0x10 PUSH1 0x20 MSTORE PUSH1 0x40 SWAP1 KECCAK256 SLOAD ISZERO ISZERO JUMPDEST ISZERO PUSH2 0x514F JUMPI PUSH1 0x0 DUP2 DUP2 MSTORE PUSH1 0x10 PUSH1 0x20 SWAP1 DUP2 MSTORE PUSH1 0x40 DUP1 DUP4 KECCAK256 SLOAD PUSH1 0x18 SWAP1 SWAP3 MSTORE DUP3 KECCAK256 SLOAD PUSH2 0x50D3 SWAP2 SWAP1 PUSH2 0x593E JUMP JUMPDEST PUSH1 0x1 PUSH1 0x1 PUSH1 0xA0 SHL SUB DUP5 AND PUSH1 0x0 SWAP1 DUP2 MSTORE PUSH1 0xE PUSH1 0x20 MSTORE PUSH1 0x40 SWAP1 KECCAK256 SLOAD SWAP1 SWAP2 POP PUSH2 0x2710 SWAP1 PUSH2 0x50FD SWAP1 DUP4 PUSH2 0x5927 JUMP JUMPDEST PUSH2 0x5107 SWAP2 SWAP1 PUSH2 0x593E JUMP JUMPDEST PUSH1 0x1 PUSH1 0x1 PUSH1 0xA0 SHL SUB DUP5 AND PUSH1 0x0 SWAP1 DUP2 MSTORE PUSH1 0x17 PUSH1 0x20 MSTORE PUSH1 0x40 DUP2 KECCAK256 DUP1 SLOAD SWAP1 SWAP2 SWAP1 PUSH2 0x512F SWAP1 DUP5 SWAP1 PUSH2 0x5914 JUMP JUMPDEST SWAP1 SWAP2 SSTORE POP POP POP PUSH1 0x1 PUSH1 0x1 PUSH1 0xA0 SHL SUB DUP3 AND PUSH1 0x0 SWAP1 DUP2 MSTORE PUSH1 0xE PUSH1 0x20 MSTORE PUSH1 0x40 DUP2 KECCAK256 SSTORE JUMPDEST POP PUSH1 0x5 SLOAD PUSH1 0x1 PUSH1 0x1 PUSH1 0xA0 SHL SUB DUP3 AND PUSH1 0x0 SWAP1 DUP2 MSTORE PUSH1 0x12 PUSH1 0x20 MSTORE PUSH1 0x40 SWAP1 KECCAK256 SSTORE JUMPDEST PUSH1 0x6 SLOAD PUSH1 0x5 SLOAD GT DUP1 ISZERO PUSH2 0x51A5 JUMPI POP PUSH1 0x6 SLOAD PUSH2 0x5189 SWAP1 PUSH1 0x1 PUSH2 0x5914 JUMP JUMPDEST PUSH1 0x1 PUSH1 0x1 PUSH1 0xA0 SHL SUB DUP3 AND PUSH1 0x0 SWAP1 DUP2 MSTORE PUSH1 0x13 PUSH1 0x20 MSTORE PUSH1 0x40 SWAP1 KECCAK256 SLOAD EQ ISZERO JUMPDEST ISZERO PUSH2 0x5288 JUMPI PUSH1 0x1 PUSH1 0x1 PUSH1 0xA0 SHL SUB DUP2 AND PUSH1 0x0 SWAP1 DUP2 MSTORE PUSH1 0x13 PUSH1 0x20 SWAP1 DUP2 MSTORE PUSH1 0x40 DUP1 DUP4 KECCAK256 SLOAD DUP4 MSTORE PUSH1 0x1C SWAP2 DUP3 SWAP1 MSTORE DUP3 KECCAK256 SLOAD PUSH1 0x6 SLOAD PUSH8 0xDE0B6B3A7640000 SWAP4 SWAP2 SWAP3 SWAP2 SWAP1 PUSH2 0x51ED SWAP1 PUSH1 0x1 PUSH2 0x5914 JUMP JUMPDEST DUP2 MSTORE PUSH1 0x20 ADD SWAP1 DUP2 MSTORE PUSH1 0x20 ADD PUSH1 0x0 KECCAK256 SLOAD PUSH2 0x5206 SWAP2 SWAP1 PUSH2 0x5960 JUMP JUMPDEST PUSH1 0x1 PUSH1 0x1 PUSH1 0xA0 SHL SUB DUP4 AND PUSH1 0x0 SWAP1 DUP2 MSTORE PUSH1 0x17 PUSH1 0x20 MSTORE PUSH1 0x40 SWAP1 KECCAK256 SLOAD PUSH2 0x5229 SWAP2 SWAP1 PUSH2 0x5927 JUMP JUMPDEST PUSH2 0x5233 SWAP2 SWAP1 PUSH2 0x593E JUMP JUMPDEST PUSH1 0x1 PUSH1 0x1 PUSH1 0xA0 SHL SUB DUP3 AND PUSH1 0x0 SWAP1 DUP2 MSTORE PUSH1 0x14 PUSH1 0x20 MSTORE PUSH1 0x40 DUP2 KECCAK256 DUP1 SLOAD SWAP1 SWAP2 SWAP1 PUSH2 0x525B SWAP1 DUP5 SWAP1 PUSH2 0x5914 JUMP JUMPDEST SWAP1 SWAP2 SSTORE POP POP PUSH1 0x6 SLOAD PUSH2 0x526E SWAP1 PUSH1 0x1 PUSH2 0x5914 JUMP JUMPDEST PUSH1 0x1 PUSH1 0x1 PUSH1 0xA0 SHL SUB DUP3 AND PUSH1 0x0 SWAP1 DUP2 MSTORE PUSH1 0x13 PUSH1 0x20 MSTORE PUSH1 0x40 SWAP1 KECCAK256 SSTORE JUMPDEST POP JUMP JUMPDEST PUSH1 0x0 DUP3 PUSH1 0x1 PUSH1 0x1 PUSH1 0xA0 SHL SUB AND DUP3 PUSH1 0x40 MLOAD PUSH1 0x0 PUSH1 0x40 MLOAD DUP1 DUP4 SUB DUP2 DUP6 DUP8 GAS CALL SWAP3 POP POP POP RETURNDATASIZE DUP1 PUSH1 0x0 DUP2 EQ PUSH2 0x52D8 JUMPI PUSH1 0x40 MLOAD SWAP2 POP PUSH1 0x1F NOT PUSH1 0x3F RETURNDATASIZE ADD AND DUP3 ADD PUSH1 0x40 MSTORE RETURNDATASIZE DUP3 MSTORE RETURNDATASIZE PUSH1 0x0 PUSH1 0x20 DUP5 ADD RETURNDATACOPY PUSH2 0x52DD JUMP JUMPDEST PUSH1 0x60 SWAP2 POP JUMPDEST POP POP SWAP1 POP DUP1 PUSH2 0x532E JUMPI PUSH1 0x40 MLOAD PUSH3 0x461BCD PUSH1 0xE5 SHL DUP2 MSTORE PUSH1 0x20 PUSH1 0x4 DUP3 ADD MSTORE PUSH1 0x1C PUSH1 0x24 DUP3 ADD MSTORE PUSH32 0x44656230783A206661696C656420746F2073656E6420616D6F756E7400000000 PUSH1 0x44 DUP3 ADD MSTORE PUSH1 0x64 ADD PUSH2 0x9A9 JUMP JUMPDEST POP POP POP JUMP JUMPDEST PUSH1 0x0 DUP1 JUMPDEST PUSH1 0x1 DUP5 MLOAD PUSH2 0x5345 SWAP2 SWAP1 PUSH2 0x5960 JUMP JUMPDEST DUP2 LT ISZERO PUSH2 0x5447 JUMPI PUSH1 0x0 PUSH1 0x40 MLOAD DUP1 PUSH1 0x40 ADD PUSH1 0x40 MSTORE DUP1 DUP6 DUP5 DUP2 MLOAD DUP2 LT PUSH2 0x536B JUMPI PUSH2 0x536B PUSH2 0x5B3B JUMP JUMPDEST PUSH1 0x20 MUL PUSH1 0x20 ADD ADD MLOAD DUP2 MSTORE PUSH1 0x20 ADD TIMESTAMP DUP2 MSTORE POP SWAP1 POP PUSH1 0x0 DUP5 DUP4 DUP2 MLOAD DUP2 LT PUSH2 0x5392 JUMPI PUSH2 0x5392 PUSH2 0x5B3B JUMP JUMPDEST PUSH1 0x20 MUL PUSH1 0x20 ADD ADD MLOAD PUSH1 0x40 MLOAD PUSH1 0x20 ADD PUSH2 0x53AA SWAP2 SWAP1 PUSH2 0x5B1F JUMP JUMPDEST PUSH1 0x40 MLOAD PUSH1 0x20 DUP2 DUP4 SUB SUB DUP2 MSTORE SWAP1 PUSH1 0x40 MSTORE DUP1 MLOAD SWAP1 PUSH1 0x20 ADD KECCAK256 SWAP1 POP DUP1 PUSH2 0x53CB PUSH2 0x5004 JUMP JUMPDEST PUSH1 0x1 PUSH1 0x1 PUSH1 0xA0 SHL SUB AND DUP8 DUP6 DUP2 MLOAD DUP2 LT PUSH2 0x53E6 JUMPI PUSH2 0x53E6 PUSH2 0x5B3B JUMP JUMPDEST PUSH1 0x20 MUL PUSH1 0x20 ADD ADD MLOAD PUSH1 0x1 PUSH1 0x1 PUSH1 0xA0 SHL SUB AND PUSH32 0xD255A04E9537EE418651BFDD3BE3EFED3B9F677F36BA9E488E0D27340C97961F DUP6 PUSH1 0xB SLOAD PUSH1 0x40 MLOAD PUSH2 0x542A SWAP3 SWAP2 SWAP1 PUSH2 0x5B51 JUMP JUMPDEST PUSH1 0x40 MLOAD DUP1 SWAP2 SUB SWAP1 LOG4 POP POP DUP1 DUP1 PUSH2 0x543F SWAP1 PUSH2 0x5B85 JUMP JUMPDEST SWAP2 POP POP PUSH2 0x5337 JUMP JUMPDEST POP PUSH1 0x0 PUSH1 0x40 MLOAD DUP1 PUSH1 0x40 ADD PUSH1 0x40 MSTORE DUP1 DUP5 PUSH1 0x1 DUP8 MLOAD PUSH2 0x5464 SWAP2 SWAP1 PUSH2 0x5960 JUMP JUMPDEST DUP2 MLOAD DUP2 LT PUSH2 0x5474 JUMPI PUSH2 0x5474 PUSH2 0x5B3B JUMP JUMPDEST PUSH1 0x20 MUL PUSH1 0x20 ADD ADD MLOAD DUP2 MSTORE PUSH1 0x20 ADD TIMESTAMP DUP2 MSTORE POP SWAP1 POP PUSH1 0x0 DUP4 PUSH1 0x1 DUP7 MLOAD PUSH2 0x5498 SWAP2 SWAP1 PUSH2 0x5960 JUMP JUMPDEST DUP2 MLOAD DUP2 LT PUSH2 0x54A8 JUMPI PUSH2 0x54A8 PUSH2 0x5B3B JUMP JUMPDEST PUSH1 0x20 MUL PUSH1 0x20 ADD ADD MLOAD PUSH1 0x40 MLOAD PUSH1 0x20 ADD PUSH2 0x54C0 SWAP2 SWAP1 PUSH2 0x5B1F JUMP JUMPDEST PUSH1 0x40 MLOAD PUSH1 0x20 DUP2 DUP4 SUB SUB DUP2 MSTORE SWAP1 PUSH1 0x40 MSTORE DUP1 MLOAD SWAP1 PUSH1 0x20 ADD KECCAK256 SWAP1 POP DUP1 PUSH2 0x54E1 PUSH2 0x5004 JUMP JUMPDEST PUSH1 0x1 PUSH1 0x1 PUSH1 0xA0 SHL SUB AND PUSH2 0x54F2 PUSH2 0x5004 JUMP JUMPDEST PUSH1 0x1 PUSH1 0x1 PUSH1 0xA0 SHL SUB AND PUSH32 0xD255A04E9537EE418651BFDD3BE3EFED3B9F677F36BA9E488E0D27340C97961F DUP6 PUSH1 0xB SLOAD PUSH1 0x40 MLOAD PUSH2 0x552E SWAP3 SWAP2 SWAP1 PUSH2 0x5B51 JUMP JUMPDEST PUSH1 0x40 MLOAD DUP1 SWAP2 SUB SWAP1 LOG4 PUSH1 0xB DUP1 SLOAD SWAP1 DUP2 SWAP1 PUSH1 0x0 PUSH2 0x5548 DUP4 PUSH2 0x5B85 JUMP JUMPDEST SWAP1 SWAP2 SSTORE POP SWAP1 SWAP4 POP POP POP POP JUMPDEST SWAP3 SWAP2 POP POP JUMP JUMPDEST PUSH1 0x0 PUSH1 0x20 DUP3 DUP5 SUB SLT ISZERO PUSH2 0x556B JUMPI PUSH1 0x0 DUP1 REVERT JUMPDEST POP CALLDATALOAD SWAP2 SWAP1 POP JUMP JUMPDEST DUP1 CALLDATALOAD PUSH1 0x1 PUSH1 0x1 PUSH1 0xA0 SHL SUB DUP2 AND DUP2 EQ PUSH2 0x5589 JUMPI PUSH1 0x0 DUP1 REVERT JUMPDEST SWAP2 SWAP1 POP JUMP JUMPDEST PUSH1 0x0 PUSH1 0x20 DUP3 DUP5 SUB SLT ISZERO PUSH2 0x55A0 JUMPI PUSH1 0x0 DUP1 REVERT JUMPDEST PUSH2 0x55A9 DUP3 PUSH2 0x5572 JUMP JUMPDEST SWAP4 SWAP3 POP POP POP JUMP JUMPDEST PUSH4 0x4E487B71 PUSH1 0xE0 SHL PUSH1 0x0 MSTORE PUSH1 0x41 PUSH1 0x4 MSTORE PUSH1 0x24 PUSH1 0x0 REVERT JUMPDEST PUSH1 0x40 MLOAD PUSH1 0x1F DUP3 ADD PUSH1 0x1F NOT AND DUP2 ADD PUSH8 0xFFFFFFFFFFFFFFFF DUP2 GT DUP3 DUP3 LT OR ISZERO PUSH2 0x55EF JUMPI PUSH2 0x55EF PUSH2 0x55B0 JUMP JUMPDEST PUSH1 0x40 MSTORE SWAP2 SWAP1 POP JUMP JUMPDEST PUSH1 0x0 PUSH8 0xFFFFFFFFFFFFFFFF DUP3 GT ISZERO PUSH2 0x5611 JUMPI PUSH2 0x5611 PUSH2 0x55B0 JUMP JUMPDEST POP PUSH1 0x5 SHL PUSH1 0x20 ADD SWAP1 JUMP JUMPDEST PUSH1 0x0 DUP3 PUSH1 0x1F DUP4 ADD SLT PUSH2 0x562C JUMPI PUSH1 0x0 DUP1 REVERT JUMPDEST DUP2 CALLDATALOAD PUSH8 0xFFFFFFFFFFFFFFFF DUP2 GT ISZERO PUSH2 0x5646 JUMPI PUSH2 0x5646 PUSH2 0x55B0 JUMP JUMPDEST PUSH2 0x5659 PUSH1 0x1F DUP3 ADD PUSH1 0x1F NOT AND PUSH1 0x20 ADD PUSH2 0x55C6 JUMP JUMPDEST DUP2 DUP2 MSTORE DUP5 PUSH1 0x20 DUP4 DUP7 ADD ADD GT ISZERO PUSH2 0x566E JUMPI PUSH1 0x0 DUP1 REVERT JUMPDEST DUP2 PUSH1 0x20 DUP6 ADD PUSH1 0x20 DUP4 ADD CALLDATACOPY PUSH1 0x0 SWAP2 DUP2 ADD PUSH1 0x20 ADD SWAP2 SWAP1 SWAP2 MSTORE SWAP4 SWAP3 POP POP POP JUMP JUMPDEST PUSH1 0x0 DUP3 PUSH1 0x1F DUP4 ADD SLT PUSH2 0x569C JUMPI PUSH1 0x0 DUP1 REVERT JUMPDEST DUP2 CALLDATALOAD PUSH1 0x20 PUSH2 0x56B1 PUSH2 0x56AC DUP4 PUSH2 0x55F7 JUMP JUMPDEST PUSH2 0x55C6 JUMP JUMPDEST DUP3 DUP2 MSTORE PUSH1 0x5 SWAP3 SWAP1 SWAP3 SHL DUP5 ADD DUP2 ADD SWAP2 DUP2 DUP2 ADD SWAP1 DUP7 DUP5 GT ISZERO PUSH2 0x56D0 JUMPI PUSH1 0x0 DUP1 REVERT JUMPDEST DUP3 DUP7 ADD JUMPDEST DUP5 DUP2 LT ISZERO PUSH2 0x5710 JUMPI DUP1 CALLDATALOAD PUSH8 0xFFFFFFFFFFFFFFFF DUP2 GT ISZERO PUSH2 0x56F4 JUMPI PUSH1 0x0 DUP1 DUP2 REVERT JUMPDEST PUSH2 0x5702 DUP10 DUP7 DUP4 DUP12 ADD ADD PUSH2 0x561B JUMP JUMPDEST DUP5 MSTORE POP SWAP2 DUP4 ADD SWAP2 DUP4 ADD PUSH2 0x56D4 JUMP JUMPDEST POP SWAP7 SWAP6 POP POP POP POP POP POP JUMP JUMPDEST PUSH1 0x0 DUP1 PUSH1 0x0 DUP1 PUSH1 0x0 PUSH1 0xA0 DUP7 DUP9 SUB SLT ISZERO PUSH2 0x5733 JUMPI PUSH1 0x0 DUP1 REVERT JUMPDEST DUP6 CALLDATALOAD PUSH8 0xFFFFFFFFFFFFFFFF DUP1 DUP3 GT ISZERO PUSH2 0x574B JUMPI PUSH1 0x0 DUP1 REVERT JUMPDEST DUP2 DUP9 ADD SWAP2 POP DUP9 PUSH1 0x1F DUP4 ADD SLT PUSH2 0x575F JUMPI PUSH1 0x0 DUP1 REVERT JUMPDEST DUP2 CALLDATALOAD PUSH1 0x20 PUSH2 0x576F PUSH2 0x56AC DUP4 PUSH2 0x55F7 JUMP JUMPDEST DUP3 DUP2 MSTORE PUSH1 0x5 SWAP3 SWAP1 SWAP3 SHL DUP5 ADD DUP2 ADD SWAP2 DUP2 DUP2 ADD SWAP1 DUP13 DUP5 GT ISZERO PUSH2 0x578E JUMPI PUSH1 0x0 DUP1 REVERT JUMPDEST SWAP5 DUP3 ADD SWAP5 JUMPDEST DUP4 DUP7 LT ISZERO PUSH2 0x57B3 JUMPI PUSH2 0x57A4 DUP7 PUSH2 0x5572 JUMP JUMPDEST DUP3 MSTORE SWAP5 DUP3 ADD SWAP5 SWAP1 DUP3 ADD SWAP1 PUSH2 0x5793 JUMP JUMPDEST SWAP10 POP POP DUP10 ADD CALLDATALOAD SWAP3 POP POP DUP1 DUP3 GT ISZERO PUSH2 0x57C9 JUMPI PUSH1 0x0 DUP1 REVERT JUMPDEST POP PUSH2 0x57D6 DUP9 DUP3 DUP10 ADD PUSH2 0x568B JUMP JUMPDEST SWAP5 POP POP PUSH2 0x57E5 PUSH1 0x40 DUP8 ADD PUSH2 0x5572 JUMP JUMPDEST SWAP5 SWAP8 SWAP4 SWAP7 POP SWAP4 SWAP5 PUSH1 0x60 DUP2 ADD CALLDATALOAD SWAP5 POP PUSH1 0x80 ADD CALLDATALOAD SWAP3 SWAP2 POP POP JUMP JUMPDEST PUSH1 0x0 JUMPDEST DUP4 DUP2 LT ISZERO PUSH2 0x5818 JUMPI DUP2 DUP2 ADD MLOAD DUP4 DUP3 ADD MSTORE PUSH1 0x20 ADD PUSH2 0x5800 JUMP JUMPDEST POP POP PUSH1 0x0 SWAP2 ADD MSTORE JUMP JUMPDEST PUSH1 0x0 DUP2 MLOAD DUP1 DUP5 MSTORE PUSH2 0x5839 DUP2 PUSH1 0x20 DUP7 ADD PUSH1 0x20 DUP7 ADD PUSH2 0x57FD JUMP JUMPDEST PUSH1 0x1F ADD PUSH1 0x1F NOT AND SWAP3 SWAP1 SWAP3 ADD PUSH1 0x20 ADD SWAP3 SWAP2 POP POP JUMP JUMPDEST PUSH1 0x20 DUP2 MSTORE PUSH1 0x0 PUSH2 0x55A9 PUSH1 0x20 DUP4 ADD DUP5 PUSH2 0x5821 JUMP JUMPDEST PUSH1 0x0 DUP1 PUSH1 0x40 DUP4 DUP6 SUB SLT ISZERO PUSH2 0x5873 JUMPI PUSH1 0x0 DUP1 REVERT JUMPDEST PUSH2 0x587C DUP4 PUSH2 0x5572 JUMP JUMPDEST SWAP5 PUSH1 0x20 SWAP4 SWAP1 SWAP4 ADD CALLDATALOAD SWAP4 POP POP POP JUMP JUMPDEST PUSH1 0x0 PUSH1 0x20 DUP3 DUP5 SUB SLT ISZERO PUSH2 0x589C JUMPI PUSH1 0x0 DUP1 REVERT JUMPDEST DUP2 CALLDATALOAD PUSH8 0xFFFFFFFFFFFFFFFF DUP2 GT ISZERO PUSH2 0x58B3 JUMPI PUSH1 0x0 DUP1 REVERT JUMPDEST PUSH2 0x58BF DUP5 DUP3 DUP6 ADD PUSH2 0x561B JUMP JUMPDEST SWAP5 SWAP4 POP POP POP POP JUMP JUMPDEST PUSH1 0x20 DUP1 DUP3 MSTORE PUSH1 0x1F SWAP1 DUP3 ADD MSTORE PUSH32 0x5265656E7472616E637947756172643A207265656E7472616E742063616C6C00 PUSH1 0x40 DUP3 ADD MSTORE PUSH1 0x60 ADD SWAP1 JUMP JUMPDEST PUSH4 0x4E487B71 PUSH1 0xE0 SHL PUSH1 0x0 MSTORE PUSH1 0x11 PUSH1 0x4 MSTORE PUSH1 0x24 PUSH1 0x0 REVERT JUMPDEST DUP1 DUP3 ADD DUP1 DUP3 GT ISZERO PUSH2 0x5553 JUMPI PUSH2 0x5553 PUSH2 0x58FE JUMP JUMPDEST DUP1 DUP3 MUL DUP2 ISZERO DUP3 DUP3 DIV DUP5 EQ OR PUSH2 0x5553 JUMPI PUSH2 0x5553 PUSH2 0x58FE JUMP JUMPDEST PUSH1 0x0 DUP3 PUSH2 0x595B JUMPI PUSH4 0x4E487B71 PUSH1 0xE0 SHL PUSH1 0x0 MSTORE PUSH1 0x12 PUSH1 0x4 MSTORE PUSH1 0x24 PUSH1 0x0 REVERT JUMPDEST POP DIV SWAP1 JUMP JUMPDEST DUP2 DUP2 SUB DUP2 DUP2 GT ISZERO PUSH2 0x5553 JUMPI PUSH2 0x5553 PUSH2 0x58FE JUMP JUMPDEST PUSH1 0x0 PUSH1 0x20 DUP3 DUP5 SUB SLT ISZERO PUSH2 0x5985 JUMPI PUSH1 0x0 DUP1 REVERT JUMPDEST DUP2 MLOAD DUP1 ISZERO ISZERO DUP2 EQ PUSH2 0x55A9 JUMPI PUSH1 0x0 DUP1 REVERT JUMPDEST PUSH1 0x20 DUP1 DUP3 MSTORE PUSH1 0x22 SWAP1 DUP3 ADD MSTORE PUSH32 0x44656230783A206163636F756E7420686173206E6F2061636372756564206665 PUSH1 0x40 DUP3 ADD MSTORE PUSH2 0x6573 PUSH1 0xF0 SHL PUSH1 0x60 DUP3 ADD MSTORE PUSH1 0x80 ADD SWAP1 JUMP JUMPDEST PUSH1 0x1 DUP2 DUP2 SHR SWAP1 DUP3 AND DUP1 PUSH2 0x59EB JUMPI PUSH1 0x7F DUP3 AND SWAP2 POP JUMPDEST PUSH1 0x20 DUP3 LT DUP2 SUB PUSH2 0x5A0B JUMPI PUSH4 0x4E487B71 PUSH1 0xE0 SHL PUSH1 0x0 MSTORE PUSH1 0x22 PUSH1 0x4 MSTORE PUSH1 0x24 PUSH1 0x0 REVERT JUMPDEST POP SWAP2 SWAP1 POP JUMP JUMPDEST PUSH1 0x1F DUP3 GT ISZERO PUSH2 0x532E JUMPI PUSH1 0x0 DUP2 DUP2 MSTORE PUSH1 0x20 DUP2 KECCAK256 PUSH1 0x1F DUP6 ADD PUSH1 0x5 SHR DUP2 ADD PUSH1 0x20 DUP7 LT ISZERO PUSH2 0x5A38 JUMPI POP DUP1 JUMPDEST PUSH1 0x1F DUP6 ADD PUSH1 0x5 SHR DUP3 ADD SWAP2 POP JUMPDEST DUP2 DUP2 LT ISZERO PUSH2 0x5A57 JUMPI DUP3 DUP2 SSTORE PUSH1 0x1 ADD PUSH2 0x5A44 JUMP JUMPDEST POP POP POP POP POP POP JUMP JUMPDEST DUP2 MLOAD PUSH8 0xFFFFFFFFFFFFFFFF DUP2 GT ISZERO PUSH2 0x5A79 JUMPI PUSH2 0x5A79 PUSH2 0x55B0 JUMP JUMPDEST PUSH2 0x5A8D DUP2 PUSH2 0x5A87 DUP5 SLOAD PUSH2 0x59D7 JUMP JUMPDEST DUP5 PUSH2 0x5A11 JUMP JUMPDEST PUSH1 0x20 DUP1 PUSH1 0x1F DUP4 GT PUSH1 0x1 DUP2 EQ PUSH2 0x5AC2 JUMPI PUSH1 0x0 DUP5 ISZERO PUSH2 0x5AAA JUMPI POP DUP6 DUP4 ADD MLOAD JUMPDEST PUSH1 0x0 NOT PUSH1 0x3 DUP7 SWAP1 SHL SHR NOT AND PUSH1 0x1 DUP6 SWAP1 SHL OR DUP6 SSTORE PUSH2 0x5A57 JUMP JUMPDEST PUSH1 0x0 DUP6 DUP2 MSTORE PUSH1 0x20 DUP2 KECCAK256 PUSH1 0x1F NOT DUP7 AND SWAP2 JUMPDEST DUP3 DUP2 LT ISZERO PUSH2 0x5AF1 JUMPI DUP9 DUP7 ADD MLOAD DUP3 SSTORE SWAP5 DUP5 ADD SWAP5 PUSH1 0x1 SWAP1 SWAP2 ADD SWAP1 DUP5 ADD PUSH2 0x5AD2 JUMP JUMPDEST POP DUP6 DUP3 LT ISZERO PUSH2 0x5B0F JUMPI DUP8 DUP6 ADD MLOAD PUSH1 0x0 NOT PUSH1 0x3 DUP9 SWAP1 SHL PUSH1 0xF8 AND SHR NOT AND DUP2 SSTORE JUMPDEST POP POP POP POP POP PUSH1 0x1 SWAP1 DUP2 SHL ADD SWAP1 SSTORE POP JUMP JUMPDEST PUSH1 0x0 DUP3 MLOAD PUSH2 0x5B31 DUP2 DUP5 PUSH1 0x20 DUP8 ADD PUSH2 0x57FD JUMP JUMPDEST SWAP2 SWAP1 SWAP2 ADD SWAP3 SWAP2 POP POP JUMP JUMPDEST PUSH4 0x4E487B71 PUSH1 0xE0 SHL PUSH1 0x0 MSTORE PUSH1 0x32 PUSH1 0x4 MSTORE PUSH1 0x24 PUSH1 0x0 REVERT JUMPDEST PUSH1 0x40 DUP2 MSTORE PUSH1 0x0 DUP4 MLOAD PUSH1 0x40 DUP1 DUP5 ADD MSTORE PUSH2 0x5B6C PUSH1 0x80 DUP5 ADD DUP3 PUSH2 0x5821 JUMP JUMPDEST PUSH1 0x20 SWAP6 DUP7 ADD MLOAD PUSH1 0x60 DUP6 ADD MSTORE SWAP3 SWAP1 SWAP5 ADD SWAP3 SWAP1 SWAP3 MSTORE SWAP3 SWAP2 POP POP JUMP JUMPDEST PUSH1 0x0 PUSH1 0x1 DUP3 ADD PUSH2 0x5B97 JUMPI PUSH2 0x5B97 PUSH2 0x58FE JUMP JUMPDEST POP PUSH1 0x1 ADD SWAP1 JUMP INVALID LOG2 PUSH5 0x6970667358 0x22 SLT KECCAK256 0x4D DIV 0xC9 0xC0 0xEB LT PUSH7 0xD437D3C9925ADF 0xF7 PUSH4 0xC136AFC SAR 0xEC 0xEA EXTCODEHASH SWAP10 0x5D 0x2B 0x26 0x5F RETURNDATASIZE 0xBC 0xD0 PUSH5 0x736F6C6343 STOP ADDMOD GT STOP CALLER PUSH1 0x80 PUSH1 0x40 MSTORE CALLVALUE DUP1 ISZERO PUSH3 0x11 JUMPI PUSH1 0x0 DUP1 REVERT JUMPDEST POP PUSH1 0x40 MLOAD DUP1 PUSH1 0x40 ADD PUSH1 0x40 MSTORE DUP1 PUSH1 0x1D DUP2 MSTORE PUSH1 0x20 ADD PUSH32 0x44656230782052657761726420546F6B656E206F6E20506F6C79676F6E000000 DUP2 MSTORE POP PUSH1 0x40 MLOAD DUP1 PUSH1 0x40 ADD PUSH1 0x40 MSTORE DUP1 PUSH1 0x4 DUP2 MSTORE PUSH1 0x20 ADD PUSH4 0xE08884B PUSH1 0xE3 SHL DUP2 MSTORE POP DUP2 PUSH1 0x3 SWAP1 DUP2 PUSH3 0x76 SWAP2 SWAP1 PUSH3 0x145 JUMP JUMPDEST POP PUSH1 0x4 PUSH3 0x85 DUP3 DUP3 PUSH3 0x145 JUMP JUMPDEST POP POP PUSH1 0x5 DUP1 SLOAD PUSH1 0x1 PUSH1 0x1 PUSH1 0xA0 SHL SUB NOT AND CALLER OR SWAP1 SSTORE POP PUSH3 0x211 JUMP JUMPDEST PUSH4 0x4E487B71 PUSH1 0xE0 SHL PUSH1 0x0 MSTORE PUSH1 0x41 PUSH1 0x4 MSTORE PUSH1 0x24 PUSH1 0x0 REVERT JUMPDEST PUSH1 0x1 DUP2 DUP2 SHR SWAP1 DUP3 AND DUP1 PUSH3 0xCB JUMPI PUSH1 0x7F DUP3 AND SWAP2 POP JUMPDEST PUSH1 0x20 DUP3 LT DUP2 SUB PUSH3 0xEC JUMPI PUSH4 0x4E487B71 PUSH1 0xE0 SHL PUSH1 0x0 MSTORE PUSH1 0x22 PUSH1 0x4 MSTORE PUSH1 0x24 PUSH1 0x0 REVERT JUMPDEST POP SWAP2 SWAP1 POP JUMP JUMPDEST PUSH1 0x1F DUP3 GT ISZERO PUSH3 0x140 JUMPI PUSH1 0x0 DUP2 DUP2 MSTORE PUSH1 0x20 DUP2 KECCAK256 PUSH1 0x1F DUP6 ADD PUSH1 0x5 SHR DUP2 ADD PUSH1 0x20 DUP7 LT ISZERO PUSH3 0x11B JUMPI POP DUP1 JUMPDEST PUSH1 0x1F DUP6 ADD PUSH1 0x5 SHR DUP3 ADD SWAP2 POP JUMPDEST DUP2 DUP2 LT ISZERO PUSH3 0x13C JUMPI DUP3 DUP2 SSTORE PUSH1 0x1 ADD PUSH3 0x127 JUMP JUMPDEST POP POP POP JUMPDEST POP POP POP JUMP JUMPDEST DUP2 MLOAD PUSH1 0x1 PUSH1 0x1 PUSH1 0x40 SHL SUB DUP2 GT ISZERO PUSH3 0x161 JUMPI PUSH3 0x161 PUSH3 0xA0 JUMP JUMPDEST PUSH3 0x179 DUP2 PUSH3 0x172 DUP5 SLOAD PUSH3 0xB6 JUMP JUMPDEST DUP5 PUSH3 0xF2 JUMP JUMPDEST PUSH1 0x20 DUP1 PUSH1 0x1F DUP4 GT PUSH1 0x1 DUP2 EQ PUSH3 0x1B1 JUMPI PUSH1 0x0 DUP5 ISZERO PUSH3 0x198 JUMPI POP DUP6 DUP4 ADD MLOAD JUMPDEST PUSH1 0x0 NOT PUSH1 0x3 DUP7 SWAP1 SHL SHR NOT AND PUSH1 0x1 DUP6 SWAP1 SHL OR DUP6 SSTORE PUSH3 0x13C JUMP JUMPDEST PUSH1 0x0 DUP6 DUP2 MSTORE PUSH1 0x20 DUP2 KECCAK256 PUSH1 0x1F NOT DUP7 AND SWAP2 JUMPDEST DUP3 DUP2 LT ISZERO PUSH3 0x1E2 JUMPI DUP9 DUP7 ADD MLOAD DUP3 SSTORE SWAP5 DUP5 ADD SWAP5 PUSH1 0x1 SWAP1 SWAP2 ADD SWAP1 DUP5 ADD PUSH3 0x1C1 JUMP JUMPDEST POP DUP6 DUP3 LT ISZERO PUSH3 0x201 JUMPI DUP8 DUP6 ADD MLOAD PUSH1 0x0 NOT PUSH1 0x3 DUP9 SWAP1 SHL PUSH1 0xF8 AND SHR NOT AND DUP2 SSTORE JUMPDEST POP POP POP POP POP PUSH1 0x1 SWAP1 DUP2 SHL ADD SWAP1 SSTORE POP JUMP JUMPDEST PUSH2 0xA96 DUP1 PUSH3 0x221 PUSH1 0x0 CODECOPY PUSH1 0x0 RETURN INVALID PUSH1 0x80 PUSH1 0x40 MSTORE CALLVALUE DUP1 ISZERO PUSH2 0x10 JUMPI PUSH1 0x0 DUP1 REVERT JUMPDEST POP PUSH1 0x4 CALLDATASIZE LT PUSH2 0xCF JUMPI PUSH1 0x0 CALLDATALOAD PUSH1 0xE0 SHR DUP1 PUSH4 0x70A08231 GT PUSH2 0x8C JUMPI DUP1 PUSH4 0x9A49090E GT PUSH2 0x66 JUMPI DUP1 PUSH4 0x9A49090E EQ PUSH2 0x1B8 JUMPI DUP1 PUSH4 0xA457C2D7 EQ PUSH2 0x1CD JUMPI DUP1 PUSH4 0xA9059CBB EQ PUSH2 0x1E0 JUMPI DUP1 PUSH4 0xDD62ED3E EQ PUSH2 0x1F3 JUMPI PUSH1 0x0 DUP1 REVERT JUMPDEST DUP1 PUSH4 0x70A08231 EQ PUSH2 0x15C JUMPI DUP1 PUSH4 0x8DA5CB5B EQ PUSH2 0x185 JUMPI DUP1 PUSH4 0x95D89B41 EQ PUSH2 0x1B0 JUMPI PUSH1 0x0 DUP1 REVERT JUMPDEST DUP1 PUSH4 0x6FDDE03 EQ PUSH2 0xD4 JUMPI DUP1 PUSH4 0x95EA7B3 EQ PUSH2 0xF2 JUMPI DUP1 PUSH4 0x18160DDD EQ PUSH2 0x115 JUMPI DUP1 PUSH4 0x23B872DD EQ PUSH2 0x127 JUMPI DUP1 PUSH4 0x313CE567 EQ PUSH2 0x13A JUMPI DUP1 PUSH4 0x39509351 EQ PUSH2 0x149 JUMPI JUMPDEST PUSH1 0x0 DUP1 REVERT JUMPDEST PUSH2 0xDC PUSH2 0x206 JUMP JUMPDEST PUSH1 0x40 MLOAD PUSH2 0xE9 SWAP2 SWAP1 PUSH2 0x8E0 JUMP JUMPDEST PUSH1 0x40 MLOAD DUP1 SWAP2 SUB SWAP1 RETURN JUMPDEST PUSH2 0x105 PUSH2 0x100 CALLDATASIZE PUSH1 0x4 PUSH2 0x94A JUMP JUMPDEST PUSH2 0x298 JUMP JUMPDEST PUSH1 0x40 MLOAD SWAP1 ISZERO ISZERO DUP2 MSTORE PUSH1 0x20 ADD PUSH2 0xE9 JUMP JUMPDEST PUSH1 0x2 SLOAD JUMPDEST PUSH1 0x40 MLOAD SWAP1 DUP2 MSTORE PUSH1 0x20 ADD PUSH2 0xE9 JUMP JUMPDEST PUSH2 0x105 PUSH2 0x135 CALLDATASIZE PUSH1 0x4 PUSH2 0x974 JUMP JUMPDEST PUSH2 0x2B2 JUMP JUMPDEST PUSH1 0x40 MLOAD PUSH1 0x12 DUP2 MSTORE PUSH1 0x20 ADD PUSH2 0xE9 JUMP JUMPDEST PUSH2 0x105 PUSH2 0x157 CALLDATASIZE PUSH1 0x4 PUSH2 0x94A JUMP JUMPDEST PUSH2 0x2D6 JUMP JUMPDEST PUSH2 0x119 PUSH2 0x16A CALLDATASIZE PUSH1 0x4 PUSH2 0x9B0 JUMP JUMPDEST PUSH1 0x1 PUSH1 0x1 PUSH1 0xA0 SHL SUB AND PUSH1 0x0 SWAP1 DUP2 MSTORE PUSH1 0x20 DUP2 SWAP1 MSTORE PUSH1 0x40 SWAP1 KECCAK256 SLOAD SWAP1 JUMP JUMPDEST PUSH1 0x5 SLOAD PUSH2 0x198 SWAP1 PUSH1 0x1 PUSH1 0x1 PUSH1 0xA0 SHL SUB AND DUP2 JUMP JUMPDEST PUSH1 0x40 MLOAD PUSH1 0x1 PUSH1 0x1 PUSH1 0xA0 SHL SUB SWAP1 SWAP2 AND DUP2 MSTORE PUSH1 0x20 ADD PUSH2 0xE9 JUMP JUMPDEST PUSH2 0xDC PUSH2 0x2F8 JUMP JUMPDEST PUSH2 0x1CB PUSH2 0x1C6 CALLDATASIZE PUSH1 0x4 PUSH2 0x94A JUMP JUMPDEST PUSH2 0x307 JUMP JUMPDEST STOP JUMPDEST PUSH2 0x105 PUSH2 0x1DB CALLDATASIZE PUSH1 0x4 PUSH2 0x94A JUMP JUMPDEST PUSH2 0x3E1 JUMP JUMPDEST PUSH2 0x105 PUSH2 0x1EE CALLDATASIZE PUSH1 0x4 PUSH2 0x94A JUMP JUMPDEST PUSH2 0x45C JUMP JUMPDEST PUSH2 0x119 PUSH2 0x201 CALLDATASIZE PUSH1 0x4 PUSH2 0x9D2 JUMP JUMPDEST PUSH2 0x46A JUMP JUMPDEST PUSH1 0x60 PUSH1 0x3 DUP1 SLOAD PUSH2 0x215 SWAP1 PUSH2 0xA05 JUMP JUMPDEST DUP1 PUSH1 0x1F ADD PUSH1 0x20 DUP1 SWAP2 DIV MUL PUSH1 0x20 ADD PUSH1 0x40 MLOAD SWAP1 DUP2 ADD PUSH1 0x40 MSTORE DUP1 SWAP3 SWAP2 SWAP1 DUP2 DUP2 MSTORE PUSH1 0x20 ADD DUP3 DUP1 SLOAD PUSH2 0x241 SWAP1 PUSH2 0xA05 JUMP JUMPDEST DUP1 ISZERO PUSH2 0x28E JUMPI DUP1 PUSH1 0x1F LT PUSH2 0x263 JUMPI PUSH2 0x100 DUP1 DUP4 SLOAD DIV MUL DUP4 MSTORE SWAP2 PUSH1 0x20 ADD SWAP2 PUSH2 0x28E JUMP JUMPDEST DUP3 ADD SWAP2 SWAP1 PUSH1 0x0 MSTORE PUSH1 0x20 PUSH1 0x0 KECCAK256 SWAP1 JUMPDEST DUP2 SLOAD DUP2 MSTORE SWAP1 PUSH1 0x1 ADD SWAP1 PUSH1 0x20 ADD DUP1 DUP4 GT PUSH2 0x271 JUMPI DUP3 SWAP1 SUB PUSH1 0x1F AND DUP3 ADD SWAP2 JUMPDEST POP POP POP POP POP SWAP1 POP SWAP1 JUMP JUMPDEST PUSH1 0x0 CALLER PUSH2 0x2A6 DUP2 DUP6 DUP6 PUSH2 0x495 JUMP JUMPDEST PUSH1 0x1 SWAP2 POP POP JUMPDEST SWAP3 SWAP2 POP POP JUMP JUMPDEST PUSH1 0x0 CALLER PUSH2 0x2C0 DUP6 DUP3 DUP6 PUSH2 0x5B9 JUMP JUMPDEST PUSH2 0x2CB DUP6 DUP6 DUP6 PUSH2 0x633 JUMP JUMPDEST POP PUSH1 0x1 SWAP5 SWAP4 POP POP POP POP JUMP JUMPDEST PUSH1 0x0 CALLER PUSH2 0x2A6 DUP2 DUP6 DUP6 PUSH2 0x2E9 DUP4 DUP4 PUSH2 0x46A JUMP JUMPDEST PUSH2 0x2F3 SWAP2 SWAP1 PUSH2 0xA3F JUMP JUMPDEST PUSH2 0x495 JUMP JUMPDEST PUSH1 0x60 PUSH1 0x4 DUP1 SLOAD PUSH2 0x215 SWAP1 PUSH2 0xA05 JUMP JUMPDEST PUSH1 0x5 SLOAD PUSH1 0x1 PUSH1 0x1 PUSH1 0xA0 SHL SUB AND CALLER EQ PUSH2 0x371 JUMPI PUSH1 0x40 MLOAD PUSH3 0x461BCD PUSH1 0xE5 SHL DUP2 MSTORE PUSH1 0x20 PUSH1 0x4 DUP3 ADD MSTORE PUSH1 0x22 PUSH1 0x24 DUP3 ADD MSTORE PUSH32 0x4442583A2063616C6C6572206973206E6F7420446562307820636F6E74726163 PUSH1 0x44 DUP3 ADD MSTORE PUSH2 0x3A17 PUSH1 0xF1 SHL PUSH1 0x64 DUP3 ADD MSTORE PUSH1 0x84 ADD JUMPDEST PUSH1 0x40 MLOAD DUP1 SWAP2 SUB SWAP1 REVERT JUMPDEST PUSH11 0x424E8A4EACA5ED7400000 PUSH2 0x386 PUSH1 0x2 SLOAD SWAP1 JUMP JUMPDEST LT PUSH2 0x3D3 JUMPI PUSH1 0x40 MLOAD PUSH3 0x461BCD PUSH1 0xE5 SHL DUP2 MSTORE PUSH1 0x20 PUSH1 0x4 DUP3 ADD MSTORE PUSH1 0x1E PUSH1 0x24 DUP3 ADD MSTORE PUSH32 0x4442583A206D617820737570706C7920616C7265616479206D696E7465640000 PUSH1 0x44 DUP3 ADD MSTORE PUSH1 0x64 ADD PUSH2 0x368 JUMP JUMPDEST PUSH2 0x3DD DUP3 DUP3 PUSH2 0x801 JUMP JUMPDEST POP POP JUMP JUMPDEST PUSH1 0x0 CALLER DUP2 PUSH2 0x3EF DUP3 DUP7 PUSH2 0x46A JUMP JUMPDEST SWAP1 POP DUP4 DUP2 LT ISZERO PUSH2 0x44F JUMPI PUSH1 0x40 MLOAD PUSH3 0x461BCD PUSH1 0xE5 SHL DUP2 MSTORE PUSH1 0x20 PUSH1 0x4 DUP3 ADD MSTORE PUSH1 0x25 PUSH1 0x24 DUP3 ADD MSTORE PUSH32 0x45524332303A2064656372656173656420616C6C6F77616E63652062656C6F77 PUSH1 0x44 DUP3 ADD MSTORE PUSH5 0x207A65726F PUSH1 0xD8 SHL PUSH1 0x64 DUP3 ADD MSTORE PUSH1 0x84 ADD PUSH2 0x368 JUMP JUMPDEST PUSH2 0x2CB DUP3 DUP7 DUP7 DUP5 SUB PUSH2 0x495 JUMP JUMPDEST PUSH1 0x0 CALLER PUSH2 0x2A6 DUP2 DUP6 DUP6 PUSH2 0x633 JUMP JUMPDEST PUSH1 0x1 PUSH1 0x1 PUSH1 0xA0 SHL SUB SWAP2 DUP3 AND PUSH1 0x0 SWAP1 DUP2 MSTORE PUSH1 0x1 PUSH1 0x20 SWAP1 DUP2 MSTORE PUSH1 0x40 DUP1 DUP4 KECCAK256 SWAP4 SWAP1 SWAP5 AND DUP3 MSTORE SWAP2 SWAP1 SWAP2 MSTORE KECCAK256 SLOAD SWAP1 JUMP JUMPDEST PUSH1 0x1 PUSH1 0x1 PUSH1 0xA0 SHL SUB DUP4 AND PUSH2 0x4F7 JUMPI PUSH1 0x40 MLOAD PUSH3 0x461BCD PUSH1 0xE5 SHL DUP2 MSTORE PUSH1 0x20 PUSH1 0x4 DUP3 ADD MSTORE PUSH1 0x24 DUP1 DUP3 ADD MSTORE PUSH32 0x45524332303A20617070726F76652066726F6D20746865207A65726F20616464 PUSH1 0x44 DUP3 ADD MSTORE PUSH4 0x72657373 PUSH1 0xE0 SHL PUSH1 0x64 DUP3 ADD MSTORE PUSH1 0x84 ADD PUSH2 0x368 JUMP JUMPDEST PUSH1 0x1 PUSH1 0x1 PUSH1 0xA0 SHL SUB DUP3 AND PUSH2 0x558 JUMPI PUSH1 0x40 MLOAD PUSH3 0x461BCD PUSH1 0xE5 SHL DUP2 MSTORE PUSH1 0x20 PUSH1 0x4 DUP3 ADD MSTORE PUSH1 0x22 PUSH1 0x24 DUP3 ADD MSTORE PUSH32 0x45524332303A20617070726F766520746F20746865207A65726F206164647265 PUSH1 0x44 DUP3 ADD MSTORE PUSH2 0x7373 PUSH1 0xF0 SHL PUSH1 0x64 DUP3 ADD MSTORE PUSH1 0x84 ADD PUSH2 0x368 JUMP JUMPDEST PUSH1 0x1 PUSH1 0x1 PUSH1 0xA0 SHL SUB DUP4 DUP2 AND PUSH1 0x0 DUP2 DUP2 MSTORE PUSH1 0x1 PUSH1 0x20 SWAP1 DUP2 MSTORE PUSH1 0x40 DUP1 DUP4 KECCAK256 SWAP5 DUP8 AND DUP1 DUP5 MSTORE SWAP5 DUP3 MSTORE SWAP2 DUP3 SWAP1 KECCAK256 DUP6 SWAP1 SSTORE SWAP1 MLOAD DUP5 DUP2 MSTORE PUSH32 0x8C5BE1E5EBEC7D5BD14F71427D1E84F3DD0314C0F7B2291E5B200AC8C7C3B925 SWAP2 ADD PUSH1 0x40 MLOAD DUP1 SWAP2 SUB SWAP1 LOG3 POP POP POP JUMP JUMPDEST PUSH1 0x0 PUSH2 0x5C5 DUP5 DUP5 PUSH2 0x46A JUMP JUMPDEST SWAP1 POP PUSH1 0x0 NOT DUP2 EQ PUSH2 0x62D JUMPI DUP2 DUP2 LT ISZERO PUSH2 0x620 JUMPI PUSH1 0x40 MLOAD PUSH3 0x461BCD PUSH1 0xE5 SHL DUP2 MSTORE PUSH1 0x20 PUSH1 0x4 DUP3 ADD MSTORE PUSH1 0x1D PUSH1 0x24 DUP3 ADD MSTORE PUSH32 0x45524332303A20696E73756666696369656E7420616C6C6F77616E6365000000 PUSH1 0x44 DUP3 ADD MSTORE PUSH1 0x64 ADD PUSH2 0x368 JUMP JUMPDEST PUSH2 0x62D DUP5 DUP5 DUP5 DUP5 SUB PUSH2 0x495 JUMP JUMPDEST POP POP POP POP JUMP JUMPDEST PUSH1 0x1 PUSH1 0x1 PUSH1 0xA0 SHL SUB DUP4 AND PUSH2 0x697 JUMPI PUSH1 0x40 MLOAD PUSH3 0x461BCD PUSH1 0xE5 SHL DUP2 MSTORE PUSH1 0x20 PUSH1 0x4 DUP3 ADD MSTORE PUSH1 0x25 PUSH1 0x24 DUP3 ADD MSTORE PUSH32 0x45524332303A207472616E736665722066726F6D20746865207A65726F206164 PUSH1 0x44 DUP3 ADD MSTORE PUSH5 0x6472657373 PUSH1 0xD8 SHL PUSH1 0x64 DUP3 ADD MSTORE PUSH1 0x84 ADD PUSH2 0x368 JUMP JUMPDEST PUSH1 0x1 PUSH1 0x1 PUSH1 0xA0 SHL SUB DUP3 AND PUSH2 0x6F9 JUMPI PUSH1 0x40 MLOAD PUSH3 0x461BCD PUSH1 0xE5 SHL DUP2 MSTORE PUSH1 0x20 PUSH1 0x4 DUP3 ADD MSTORE PUSH1 0x23 PUSH1 0x24 DUP3 ADD MSTORE PUSH32 0x45524332303A207472616E7366657220746F20746865207A65726F2061646472 PUSH1 0x44 DUP3 ADD MSTORE PUSH3 0x657373 PUSH1 0xE8 SHL PUSH1 0x64 DUP3 ADD MSTORE PUSH1 0x84 ADD PUSH2 0x368 JUMP JUMPDEST PUSH1 0x1 PUSH1 0x1 PUSH1 0xA0 SHL SUB DUP4 AND PUSH1 0x0 SWAP1 DUP2 MSTORE PUSH1 0x20 DUP2 SWAP1 MSTORE PUSH1 0x40 SWAP1 KECCAK256 SLOAD DUP2 DUP2 LT ISZERO PUSH2 0x771 JUMPI PUSH1 0x40 MLOAD PUSH3 0x461BCD PUSH1 0xE5 SHL DUP2 MSTORE PUSH1 0x20 PUSH1 0x4 DUP3 ADD MSTORE PUSH1 0x26 PUSH1 0x24 DUP3 ADD MSTORE PUSH32 0x45524332303A207472616E7366657220616D6F756E7420657863656564732062 PUSH1 0x44 DUP3 ADD MSTORE PUSH6 0x616C616E6365 PUSH1 0xD0 SHL PUSH1 0x64 DUP3 ADD MSTORE PUSH1 0x84 ADD PUSH2 0x368 JUMP JUMPDEST PUSH1 0x1 PUSH1 0x1 PUSH1 0xA0 SHL SUB DUP1 DUP6 AND PUSH1 0x0 SWAP1 DUP2 MSTORE PUSH1 0x20 DUP2 SWAP1 MSTORE PUSH1 0x40 DUP1 DUP3 KECCAK256 DUP6 DUP6 SUB SWAP1 SSTORE SWAP2 DUP6 AND DUP2 MSTORE SWAP1 DUP2 KECCAK256 DUP1 SLOAD DUP5 SWAP3 SWAP1 PUSH2 0x7A8 SWAP1 DUP5 SWAP1 PUSH2 0xA3F JUMP JUMPDEST SWAP3 POP POP DUP2 SWAP1 SSTORE POP DUP3 PUSH1 0x1 PUSH1 0x1 PUSH1 0xA0 SHL SUB AND DUP5 PUSH1 0x1 PUSH1 0x1 PUSH1 0xA0 SHL SUB AND PUSH32 0xDDF252AD1BE2C89B69C2B068FC378DAA952BA7F163C4A11628F55A4DF523B3EF DUP5 PUSH1 0x40 MLOAD PUSH2 0x7F4 SWAP2 DUP2 MSTORE PUSH1 0x20 ADD SWAP1 JUMP JUMPDEST PUSH1 0x40 MLOAD DUP1 SWAP2 SUB SWAP1 LOG3 PUSH2 0x62D JUMP JUMPDEST PUSH1 0x1 PUSH1 0x1 PUSH1 0xA0 SHL SUB DUP3 AND PUSH2 0x857 JUMPI PUSH1 0x40 MLOAD PUSH3 0x461BCD PUSH1 0xE5 SHL DUP2 MSTORE PUSH1 0x20 PUSH1 0x4 DUP3 ADD MSTORE PUSH1 0x1F PUSH1 0x24 DUP3 ADD MSTORE PUSH32 0x45524332303A206D696E7420746F20746865207A65726F206164647265737300 PUSH1 0x44 DUP3 ADD MSTORE PUSH1 0x64 ADD PUSH2 0x368 JUMP JUMPDEST DUP1 PUSH1 0x2 PUSH1 0x0 DUP3 DUP3 SLOAD PUSH2 0x869 SWAP2 SWAP1 PUSH2 0xA3F JUMP JUMPDEST SWAP1 SWAP2 SSTORE POP POP PUSH1 0x1 PUSH1 0x1 PUSH1 0xA0 SHL SUB DUP3 AND PUSH1 0x0 SWAP1 DUP2 MSTORE PUSH1 0x20 DUP2 SWAP1 MSTORE PUSH1 0x40 DUP2 KECCAK256 DUP1 SLOAD DUP4 SWAP3 SWAP1 PUSH2 0x896 SWAP1 DUP5 SWAP1 PUSH2 0xA3F JUMP JUMPDEST SWAP1 SWAP2 SSTORE POP POP PUSH1 0x40 MLOAD DUP2 DUP2 MSTORE PUSH1 0x1 PUSH1 0x1 PUSH1 0xA0 SHL SUB DUP4 AND SWAP1 PUSH1 0x0 SWAP1 PUSH32 0xDDF252AD1BE2C89B69C2B068FC378DAA952BA7F163C4A11628F55A4DF523B3EF SWAP1 PUSH1 0x20 ADD PUSH1 0x40 MLOAD DUP1 SWAP2 SUB SWAP1 LOG3 POP POP JUMP JUMPDEST PUSH1 0x0 PUSH1 0x20 DUP1 DUP4 MSTORE DUP4 MLOAD DUP1 DUP3 DUP6 ADD MSTORE PUSH1 0x0 JUMPDEST DUP2 DUP2 LT ISZERO PUSH2 0x90D JUMPI DUP6 DUP2 ADD DUP4 ADD MLOAD DUP6 DUP3 ADD PUSH1 0x40 ADD MSTORE DUP3 ADD PUSH2 0x8F1 JUMP JUMPDEST POP PUSH1 0x0 PUSH1 0x40 DUP3 DUP7 ADD ADD MSTORE PUSH1 0x40 PUSH1 0x1F NOT PUSH1 0x1F DUP4 ADD AND DUP6 ADD ADD SWAP3 POP POP POP SWAP3 SWAP2 POP POP JUMP JUMPDEST DUP1 CALLDATALOAD PUSH1 0x1 PUSH1 0x1 PUSH1 0xA0 SHL SUB DUP2 AND DUP2 EQ PUSH2 0x945 JUMPI PUSH1 0x0 DUP1 REVERT JUMPDEST SWAP2 SWAP1 POP JUMP JUMPDEST PUSH1 0x0 DUP1 PUSH1 0x40 DUP4 DUP6 SUB SLT ISZERO PUSH2 0x95D JUMPI PUSH1 0x0 DUP1 REVERT JUMPDEST PUSH2 0x966 DUP4 PUSH2 0x92E JUMP JUMPDEST SWAP5 PUSH1 0x20 SWAP4 SWAP1 SWAP4 ADD CALLDATALOAD SWAP4 POP POP POP JUMP JUMPDEST PUSH1 0x0 DUP1 PUSH1 0x0 PUSH1 0x60 DUP5 DUP7 SUB SLT ISZERO PUSH2 0x989 JUMPI PUSH1 0x0 DUP1 REVERT JUMPDEST PUSH2 0x992 DUP5 PUSH2 0x92E JUMP JUMPDEST SWAP3 POP PUSH2 0x9A0 PUSH1 0x20 DUP6 ADD PUSH2 0x92E JUMP JUMPDEST SWAP2 POP PUSH1 0x40 DUP5 ADD CALLDATALOAD SWAP1 POP SWAP3 POP SWAP3 POP SWAP3 JUMP JUMPDEST PUSH1 0x0 PUSH1 0x20 DUP3 DUP5 SUB SLT ISZERO PUSH2 0x9C2 JUMPI PUSH1 0x0 DUP1 REVERT JUMPDEST PUSH2 0x9CB DUP3 PUSH2 0x92E JUMP JUMPDEST SWAP4 SWAP3 POP POP POP JUMP JUMPDEST PUSH1 0x0 DUP1 PUSH1 0x40 DUP4 DUP6 SUB SLT ISZERO PUSH2 0x9E5 JUMPI PUSH1 0x0 DUP1 REVERT JUMPDEST PUSH2 0x9EE DUP4 PUSH2 0x92E JUMP JUMPDEST SWAP2 POP PUSH2 0x9FC PUSH1 0x20 DUP5 ADD PUSH2 0x92E JUMP JUMPDEST SWAP1 POP SWAP3 POP SWAP3 SWAP1 POP JUMP JUMPDEST PUSH1 0x1 DUP2 DUP2 SHR SWAP1 DUP3 AND DUP1 PUSH2 0xA19 JUMPI PUSH1 0x7F DUP3 AND SWAP2 POP JUMPDEST PUSH1 0x20 DUP3 LT DUP2 SUB PUSH2 0xA39 JUMPI PUSH4 0x4E487B71 PUSH1 0xE0 SHL PUSH1 0x0 MSTORE PUSH1 0x22 PUSH1 0x4 MSTORE PUSH1 0x24 PUSH1 0x0 REVERT JUMPDEST POP SWAP2 SWAP1 POP JUMP JUMPDEST DUP1 DUP3 ADD DUP1 DUP3 GT ISZERO PUSH2 0x2AC JUMPI PUSH4 0x4E487B71 PUSH1 0xE0 SHL PUSH1 0x0 MSTORE PUSH1 0x11 PUSH1 0x4 MSTORE PUSH1 0x24 PUSH1 0x0 REVERT INVALID LOG2 PUSH5 0x6970667358 0x22 SLT KECCAK256 CREATE2 MUL 0xE7 PUSH16 0x2400598C447319692D5A93578D437A9 SWAP2 0x4D DIFFICULTY LOG2 DUP6 POP 0xF8 0x2C SWAP16 0xA7 ADD SGT PUSH5 0x736F6C6343 STOP ADDMOD GT STOP CALLER "
		},
		"gasEstimates": {
			"creation": {
				"codeDepositCost": "4701600",
				"executionCost": "infinite",
				"totalCost": "infinite"
			},
			"external": {
				"PROTOCOL_FEE()": "240",
				"SCALING_FACTOR()": "283",
				"accAccruedFees(address)": "2564",
				"accCycleFeePercent(address)": "2586",
				"accCycleMessages(address)": "2632",
				"accFirstStake(address)": "2674",
				"accRewards(address)": "2585",
				"accSecondStake(address)": "2608",
				"accStakeCycle(address,uint256)": "2702",
				"accWithdrawableStake(address)": "2654",
				"claimClientFees()": "infinite",
				"claimClientRewards()": "infinite",
				"claimFees()": "infinite",
				"claimRewards()": "infinite",
				"clientAccruedFees(address)": "2630",
				"clientCycleFeePercent(address)": "2563",
				"clientLastFeeUpdate(address)": "2674",
				"clientLastRewardUpdate(address)": "2652",
				"clientRewards(address)": "2610",
				"currentCycle()": "2451",
				"currentCycleReward()": "2384",
				"currentStartedCycle()": "2405",
				"cycleAccruedFees(uint256)": "2507",
				"cycleFeesPerStakeSummed(uint256)": "2549",
				"cycleTotalMessages(uint256)": "2572",
				"dbx()": "2493",
				"getCurrentCycle()": "infinite",
				"i_initialTimestamp()": "infinite",
				"i_periodDuration()": "infinite",
				"isTrustedForwarder(address)": "infinite",
				"lastActiveCycle(address)": "2673",
				"lastCycleReward()": "2363",
				"lastFeeUpdateCycle(address)": "2565",
				"lastStartedCycle()": "2407",
				"pendingCycleRewardsStake()": "2428",
				"pendingStake()": "2362",
				"pendingStakeWithdrawal()": "2363",
				"previousStartedCycle()": "2451",
				"publicKeys(address)": "infinite",
				"rewardPerCycle(uint256)": "2550",
				"send(address[],string[],address,uint256,uint256)": "infinite",
				"sentId()": "2406",
				"setKey(string)": "infinite",
				"stakeDBX(uint256)": "infinite",
				"stakedDuringGapCycle(address)": "2663",
				"summedCycleStakes(uint256)": "2571",
				"unstake(uint256)": "infinite"
			},
			"internal": {
				"_send(address[] memory,string memory[] memory)": "infinite",
				"sendViaCall(address payable,uint256)": "infinite",
				"updateClientStats(address)": "infinite"
			}
		},
		"methodIdentifiers": {
			"PROTOCOL_FEE()": "0b4501fd",
			"SCALING_FACTOR()": "ef4cadc5",
			"accAccruedFees(address)": "bc713290",
			"accCycleFeePercent(address)": "bdc2b0a8",
			"accCycleMessages(address)": "1b4106ae",
			"accFirstStake(address)": "e60c90c4",
			"accRewards(address)": "ed725e83",
			"accSecondStake(address)": "db80a28c",
			"accStakeCycle(address,uint256)": "aabbb1bd",
			"accWithdrawableStake(address)": "1ed6380f",
			"claimClientFees()": "654773cd",
			"claimClientRewards()": "69ec283e",
			"claimFees()": "d294f093",
			"claimRewards()": "372500ab",
			"clientAccruedFees(address)": "dd23a9bd",
			"clientCycleFeePercent(address)": "ed414ee3",
			"clientLastFeeUpdate(address)": "ce96c0af",
			"clientLastRewardUpdate(address)": "9986314b",
			"clientRewards(address)": "143a1766",
			"currentCycle()": "bab2f552",
			"currentCycleReward()": "91b30020",
			"currentStartedCycle()": "f1b371e2",
			"cycleAccruedFees(uint256)": "0ece2154",
			"cycleFeesPerStakeSummed(uint256)": "bebc9dfc",
			"cycleTotalMessages(uint256)": "75ee84d3",
			"dbx()": "7d818c23",
			"getCurrentCycle()": "be26ed7f",
			"i_initialTimestamp()": "8bd95563",
			"i_periodDuration()": "2f7cdab0",
			"isTrustedForwarder(address)": "572b6c05",
			"lastActiveCycle(address)": "fa845ca9",
			"lastCycleReward()": "a95f1dac",
			"lastFeeUpdateCycle(address)": "a707140b",
			"lastStartedCycle()": "436091c1",
			"pendingCycleRewardsStake()": "df8e8dfc",
			"pendingStake()": "d4432e4e",
			"pendingStakeWithdrawal()": "68f05769",
			"previousStartedCycle()": "5f5080b4",
			"publicKeys(address)": "a3d6f9a9",
			"rewardPerCycle(uint256)": "adc0f686",
			"send(address[],string[],address,uint256,uint256)": "6f044d37",
			"sentId()": "98a5db57",
			"setKey(string)": "af42d106",
			"stakeDBX(uint256)": "7e30d2b5",
			"stakedDuringGapCycle(address)": "f7400c2a",
			"summedCycleStakes(uint256)": "c4235ae9",
			"unstake(uint256)": "2e17de78"
		}
	},
	"abi": [
		{
			"inputs": [
				{
					"internalType": "address",
					"name": "forwarder",
					"type": "address"
				}
			],
			"stateMutability": "nonpayable",
			"type": "constructor"
		},
		{
			"anonymous": false,
			"inputs": [
				{
					"indexed": true,
					"internalType": "uint256",
					"name": "cycle",
					"type": "uint256"
				},
				{
					"indexed": true,
					"internalType": "address",
					"name": "account",
					"type": "address"
				},
				{
					"indexed": false,
					"internalType": "uint256",
					"name": "fees",
					"type": "uint256"
				}
			],
			"name": "ClientFeesClaimed",
			"type": "event"
		},
		{
			"anonymous": false,
			"inputs": [
				{
					"indexed": true,
					"internalType": "uint256",
					"name": "cycle",
					"type": "uint256"
				},
				{
					"indexed": true,
					"internalType": "address",
					"name": "account",
					"type": "address"
				},
				{
					"indexed": false,
					"internalType": "uint256",
					"name": "amount",
					"type": "uint256"
				}
			],
			"name": "ClientRewardsClaimed",
			"type": "event"
		},
		{
			"anonymous": false,
			"inputs": [
				{
					"indexed": true,
					"internalType": "uint256",
					"name": "cycle",
					"type": "uint256"
				},
				{
					"indexed": true,
					"internalType": "address",
					"name": "account",
					"type": "address"
				},
				{
					"indexed": false,
					"internalType": "uint256",
					"name": "fees",
					"type": "uint256"
				}
			],
			"name": "FeesClaimed",
			"type": "event"
		},
		{
			"anonymous": false,
			"inputs": [
				{
					"indexed": true,
					"internalType": "address",
					"name": "to",
					"type": "address"
				},
				{
					"indexed": true,
					"internalType": "bytes32",
					"name": "hash",
					"type": "bytes32"
				},
				{
					"indexed": false,
					"internalType": "string",
					"name": "value",
					"type": "string"
				}
			],
			"name": "KeySet",
			"type": "event"
		},
		{
			"anonymous": false,
			"inputs": [
				{
					"indexed": true,
					"internalType": "uint256",
					"name": "cycle",
					"type": "uint256"
				},
				{
					"indexed": false,
					"internalType": "uint256",
					"name": "calculatedCycleReward",
					"type": "uint256"
				},
				{
					"indexed": false,
					"internalType": "uint256",
					"name": "summedCycleStakes",
					"type": "uint256"
				}
			],
			"name": "NewCycleStarted",
			"type": "event"
		},
		{
			"anonymous": false,
			"inputs": [
				{
					"indexed": true,
					"internalType": "uint256",
					"name": "cycle",
					"type": "uint256"
				},
				{
					"indexed": true,
					"internalType": "address",
					"name": "account",
					"type": "address"
				},
				{
					"indexed": false,
					"internalType": "uint256",
					"name": "reward",
					"type": "uint256"
				}
			],
			"name": "RewardsClaimed",
			"type": "event"
		},
		{
			"anonymous": false,
			"inputs": [
				{
					"indexed": true,
					"internalType": "uint256",
					"name": "cycle",
					"type": "uint256"
				},
				{
					"indexed": true,
					"internalType": "uint256",
					"name": "sentId",
					"type": "uint256"
				},
				{
					"indexed": true,
					"internalType": "address",
					"name": "feeReceiver",
					"type": "address"
				},
				{
					"indexed": false,
					"internalType": "uint256",
					"name": "msgFee",
					"type": "uint256"
				},
				{
					"indexed": false,
					"internalType": "uint256",
					"name": "nativeTokenFee",
					"type": "uint256"
				}
			],
			"name": "SendEntryCreated",
			"type": "event"
		},
		{
			"anonymous": false,
			"inputs": [
				{
					"indexed": true,
					"internalType": "address",
					"name": "to",
					"type": "address"
				},
				{
					"indexed": true,
					"internalType": "address",
					"name": "from",
					"type": "address"
				},
				{
					"indexed": true,
					"internalType": "bytes32",
					"name": "hash",
					"type": "bytes32"
				},
				{
					"components": [
						{
							"internalType": "string",
							"name": "content",
							"type": "string"
						},
						{
							"internalType": "uint256",
							"name": "timestamp",
							"type": "uint256"
						}
					],
					"indexed": false,
					"internalType": "struct Deb0x.Envelope",
					"name": "body",
					"type": "tuple"
				},
				{
					"indexed": false,
					"internalType": "uint256",
					"name": "sentId",
					"type": "uint256"
				}
			],
			"name": "Sent",
			"type": "event"
		},
		{
			"anonymous": false,
			"inputs": [
				{
					"indexed": true,
					"internalType": "uint256",
					"name": "cycle",
					"type": "uint256"
				},
				{
					"indexed": true,
					"internalType": "address",
					"name": "account",
					"type": "address"
				},
				{
					"indexed": false,
					"internalType": "uint256",
					"name": "amount",
					"type": "uint256"
				}
			],
			"name": "Staked",
			"type": "event"
		},
		{
			"anonymous": false,
			"inputs": [
				{
					"indexed": true,
					"internalType": "uint256",
					"name": "cycle",
					"type": "uint256"
				},
				{
					"indexed": true,
					"internalType": "address",
					"name": "account",
					"type": "address"
				},
				{
					"indexed": false,
					"internalType": "uint256",
					"name": "amount",
					"type": "uint256"
				}
			],
			"name": "Unstaked",
			"type": "event"
		},
		{
			"inputs": [],
			"name": "PROTOCOL_FEE",
			"outputs": [
				{
					"internalType": "uint16",
					"name": "",
					"type": "uint16"
				}
			],
			"stateMutability": "view",
			"type": "function"
		},
		{
			"inputs": [],
			"name": "SCALING_FACTOR",
			"outputs": [
				{
					"internalType": "uint256",
					"name": "",
					"type": "uint256"
				}
			],
			"stateMutability": "view",
			"type": "function"
		},
		{
			"inputs": [
				{
					"internalType": "address",
					"name": "",
					"type": "address"
				}
			],
			"name": "accAccruedFees",
			"outputs": [
				{
					"internalType": "uint256",
					"name": "",
					"type": "uint256"
				}
			],
			"stateMutability": "view",
			"type": "function"
		},
		{
			"inputs": [
				{
					"internalType": "address",
					"name": "",
					"type": "address"
				}
			],
			"name": "accCycleFeePercent",
			"outputs": [
				{
					"internalType": "uint256",
					"name": "",
					"type": "uint256"
				}
			],
			"stateMutability": "view",
			"type": "function"
		},
		{
			"inputs": [
				{
					"internalType": "address",
					"name": "",
					"type": "address"
				}
			],
			"name": "accCycleMessages",
			"outputs": [
				{
					"internalType": "uint256",
					"name": "",
					"type": "uint256"
				}
			],
			"stateMutability": "view",
			"type": "function"
		},
		{
			"inputs": [
				{
					"internalType": "address",
					"name": "",
					"type": "address"
				}
			],
			"name": "accFirstStake",
			"outputs": [
				{
					"internalType": "uint256",
					"name": "",
					"type": "uint256"
				}
			],
			"stateMutability": "view",
			"type": "function"
		},
		{
			"inputs": [
				{
					"internalType": "address",
					"name": "",
					"type": "address"
				}
			],
			"name": "accRewards",
			"outputs": [
				{
					"internalType": "uint256",
					"name": "",
					"type": "uint256"
				}
			],
			"stateMutability": "view",
			"type": "function"
		},
		{
			"inputs": [
				{
					"internalType": "address",
					"name": "",
					"type": "address"
				}
			],
			"name": "accSecondStake",
			"outputs": [
				{
					"internalType": "uint256",
					"name": "",
					"type": "uint256"
				}
			],
			"stateMutability": "view",
			"type": "function"
		},
		{
			"inputs": [
				{
					"internalType": "address",
					"name": "",
					"type": "address"
				},
				{
					"internalType": "uint256",
					"name": "",
					"type": "uint256"
				}
			],
			"name": "accStakeCycle",
			"outputs": [
				{
					"internalType": "uint256",
					"name": "",
					"type": "uint256"
				}
			],
			"stateMutability": "view",
			"type": "function"
		},
		{
			"inputs": [
				{
					"internalType": "address",
					"name": "",
					"type": "address"
				}
			],
			"name": "accWithdrawableStake",
			"outputs": [
				{
					"internalType": "uint256",
					"name": "",
					"type": "uint256"
				}
			],
			"stateMutability": "view",
			"type": "function"
		},
		{
			"inputs": [],
			"name": "claimClientFees",
			"outputs": [],
			"stateMutability": "nonpayable",
			"type": "function"
		},
		{
			"inputs": [],
			"name": "claimClientRewards",
			"outputs": [],
			"stateMutability": "nonpayable",
			"type": "function"
		},
		{
			"inputs": [],
			"name": "claimFees",
			"outputs": [],
			"stateMutability": "nonpayable",
			"type": "function"
		},
		{
			"inputs": [],
			"name": "claimRewards",
			"outputs": [],
			"stateMutability": "nonpayable",
			"type": "function"
		},
		{
			"inputs": [
				{
					"internalType": "address",
					"name": "",
					"type": "address"
				}
			],
			"name": "clientAccruedFees",
			"outputs": [
				{
					"internalType": "uint256",
					"name": "",
					"type": "uint256"
				}
			],
			"stateMutability": "view",
			"type": "function"
		},
		{
			"inputs": [
				{
					"internalType": "address",
					"name": "",
					"type": "address"
				}
			],
			"name": "clientCycleFeePercent",
			"outputs": [
				{
					"internalType": "uint256",
					"name": "",
					"type": "uint256"
				}
			],
			"stateMutability": "view",
			"type": "function"
		},
		{
			"inputs": [
				{
					"internalType": "address",
					"name": "",
					"type": "address"
				}
			],
			"name": "clientLastFeeUpdate",
			"outputs": [
				{
					"internalType": "uint256",
					"name": "",
					"type": "uint256"
				}
			],
			"stateMutability": "view",
			"type": "function"
		},
		{
			"inputs": [
				{
					"internalType": "address",
					"name": "",
					"type": "address"
				}
			],
			"name": "clientLastRewardUpdate",
			"outputs": [
				{
					"internalType": "uint256",
					"name": "",
					"type": "uint256"
				}
			],
			"stateMutability": "view",
			"type": "function"
		},
		{
			"inputs": [
				{
					"internalType": "address",
					"name": "",
					"type": "address"
				}
			],
			"name": "clientRewards",
			"outputs": [
				{
					"internalType": "uint256",
					"name": "",
					"type": "uint256"
				}
			],
			"stateMutability": "view",
			"type": "function"
		},
		{
			"inputs": [],
			"name": "currentCycle",
			"outputs": [
				{
					"internalType": "uint256",
					"name": "",
					"type": "uint256"
				}
			],
			"stateMutability": "view",
			"type": "function"
		},
		{
			"inputs": [],
			"name": "currentCycleReward",
			"outputs": [
				{
					"internalType": "uint256",
					"name": "",
					"type": "uint256"
				}
			],
			"stateMutability": "view",
			"type": "function"
		},
		{
			"inputs": [],
			"name": "currentStartedCycle",
			"outputs": [
				{
					"internalType": "uint256",
					"name": "",
					"type": "uint256"
				}
			],
			"stateMutability": "view",
			"type": "function"
		},
		{
			"inputs": [
				{
					"internalType": "uint256",
					"name": "",
					"type": "uint256"
				}
			],
			"name": "cycleAccruedFees",
			"outputs": [
				{
					"internalType": "uint256",
					"name": "",
					"type": "uint256"
				}
			],
			"stateMutability": "view",
			"type": "function"
		},
		{
			"inputs": [
				{
					"internalType": "uint256",
					"name": "",
					"type": "uint256"
				}
			],
			"name": "cycleFeesPerStakeSummed",
			"outputs": [
				{
					"internalType": "uint256",
					"name": "",
					"type": "uint256"
				}
			],
			"stateMutability": "view",
			"type": "function"
		},
		{
			"inputs": [
				{
					"internalType": "uint256",
					"name": "",
					"type": "uint256"
				}
			],
			"name": "cycleTotalMessages",
			"outputs": [
				{
					"internalType": "uint256",
					"name": "",
					"type": "uint256"
				}
			],
			"stateMutability": "view",
			"type": "function"
		},
		{
			"inputs": [],
			"name": "dbx",
			"outputs": [
				{
					"internalType": "contract Deb0xERC20",
					"name": "",
					"type": "address"
				}
			],
			"stateMutability": "view",
			"type": "function"
		},
		{
			"inputs": [],
			"name": "getCurrentCycle",
			"outputs": [
				{
					"internalType": "uint256",
					"name": "",
					"type": "uint256"
				}
			],
			"stateMutability": "view",
			"type": "function"
		},
		{
			"inputs": [],
			"name": "i_initialTimestamp",
			"outputs": [
				{
					"internalType": "uint256",
					"name": "",
					"type": "uint256"
				}
			],
			"stateMutability": "view",
			"type": "function"
		},
		{
			"inputs": [],
			"name": "i_periodDuration",
			"outputs": [
				{
					"internalType": "uint256",
					"name": "",
					"type": "uint256"
				}
			],
			"stateMutability": "view",
			"type": "function"
		},
		{
			"inputs": [
				{
					"internalType": "address",
					"name": "forwarder",
					"type": "address"
				}
			],
			"name": "isTrustedForwarder",
			"outputs": [
				{
					"internalType": "bool",
					"name": "",
					"type": "bool"
				}
			],
			"stateMutability": "view",
			"type": "function"
		},
		{
			"inputs": [
				{
					"internalType": "address",
					"name": "",
					"type": "address"
				}
			],
			"name": "lastActiveCycle",
			"outputs": [
				{
					"internalType": "uint256",
					"name": "",
					"type": "uint256"
				}
			],
			"stateMutability": "view",
			"type": "function"
		},
		{
			"inputs": [],
			"name": "lastCycleReward",
			"outputs": [
				{
					"internalType": "uint256",
					"name": "",
					"type": "uint256"
				}
			],
			"stateMutability": "view",
			"type": "function"
		},
		{
			"inputs": [
				{
					"internalType": "address",
					"name": "",
					"type": "address"
				}
			],
			"name": "lastFeeUpdateCycle",
			"outputs": [
				{
					"internalType": "uint256",
					"name": "",
					"type": "uint256"
				}
			],
			"stateMutability": "view",
			"type": "function"
		},
		{
			"inputs": [],
			"name": "lastStartedCycle",
			"outputs": [
				{
					"internalType": "uint256",
					"name": "",
					"type": "uint256"
				}
			],
			"stateMutability": "view",
			"type": "function"
		},
		{
			"inputs": [],
			"name": "pendingCycleRewardsStake",
			"outputs": [
				{
					"internalType": "uint256",
					"name": "",
					"type": "uint256"
				}
			],
			"stateMutability": "view",
			"type": "function"
		},
		{
			"inputs": [],
			"name": "pendingStake",
			"outputs": [
				{
					"internalType": "uint256",
					"name": "",
					"type": "uint256"
				}
			],
			"stateMutability": "view",
			"type": "function"
		},
		{
			"inputs": [],
			"name": "pendingStakeWithdrawal",
			"outputs": [
				{
					"internalType": "uint256",
					"name": "",
					"type": "uint256"
				}
			],
			"stateMutability": "view",
			"type": "function"
		},
		{
			"inputs": [],
			"name": "previousStartedCycle",
			"outputs": [
				{
					"internalType": "uint256",
					"name": "",
					"type": "uint256"
				}
			],
			"stateMutability": "view",
			"type": "function"
		},
		{
			"inputs": [
				{
					"internalType": "address",
					"name": "",
					"type": "address"
				}
			],
			"name": "publicKeys",
			"outputs": [
				{
					"internalType": "string",
					"name": "",
					"type": "string"
				}
			],
			"stateMutability": "view",
			"type": "function"
		},
		{
			"inputs": [
				{
					"internalType": "uint256",
					"name": "",
					"type": "uint256"
				}
			],
			"name": "rewardPerCycle",
			"outputs": [
				{
					"internalType": "uint256",
					"name": "",
					"type": "uint256"
				}
			],
			"stateMutability": "view",
			"type": "function"
		},
		{
			"inputs": [
				{
					"internalType": "address[]",
					"name": "to",
					"type": "address[]"
				},
				{
					"internalType": "string[]",
					"name": "payload",
					"type": "string[]"
				},
				{
					"internalType": "address",
					"name": "feeReceiver",
					"type": "address"
				},
				{
					"internalType": "uint256",
					"name": "msgFee",
					"type": "uint256"
				},
				{
					"internalType": "uint256",
					"name": "nativeTokenFee",
					"type": "uint256"
				}
			],
			"name": "send",
			"outputs": [],
			"stateMutability": "payable",
			"type": "function"
		},
		{
			"inputs": [],
			"name": "sentId",
			"outputs": [
				{
					"internalType": "uint256",
					"name": "",
					"type": "uint256"
				}
			],
			"stateMutability": "view",
			"type": "function"
		},
		{
			"inputs": [
				{
					"internalType": "string",
					"name": "publicKey",
					"type": "string"
				}
			],
			"name": "setKey",
			"outputs": [],
			"stateMutability": "nonpayable",
			"type": "function"
		},
		{
			"inputs": [
				{
					"internalType": "uint256",
					"name": "amount",
					"type": "uint256"
				}
			],
			"name": "stakeDBX",
			"outputs": [],
			"stateMutability": "nonpayable",
			"type": "function"
		},
		{
			"inputs": [
				{
					"internalType": "address",
					"name": "",
					"type": "address"
				}
			],
			"name": "stakedDuringGapCycle",
			"outputs": [
				{
					"internalType": "bool",
					"name": "",
					"type": "bool"
				}
			],
			"stateMutability": "view",
			"type": "function"
		},
		{
			"inputs": [
				{
					"internalType": "uint256",
					"name": "",
					"type": "uint256"
				}
			],
			"name": "summedCycleStakes",
			"outputs": [
				{
					"internalType": "uint256",
					"name": "",
					"type": "uint256"
				}
			],
			"stateMutability": "view",
			"type": "function"
		},
		{
			"inputs": [
				{
					"internalType": "uint256",
					"name": "amount",
					"type": "uint256"
				}
			],
			"name": "unstake",
			"outputs": [],
			"stateMutability": "nonpayable",
			"type": "function"
		}
	]
}