{
	"data": {
		"bytecode": {
			"linkReferences": {},
			"object": "608060405234801561001057600080fd5b50604051620022c9380380620022c983398101604081905261003191610056565b600080546001600160a01b0319166001600160a01b0392909216919091179055610086565b60006020828403121561006857600080fd5b81516001600160a01b038116811461007f57600080fd5b9392505050565b61223380620000966000396000f3fe608060405234801561001057600080fd5b506004361061007d5760003560e01c8063bf992dea1161005b578063bf992dea146100d0578063cdd5c81f146100e3578063d6aef1c6146100f6578063e10bf06a146100fe57600080fd5b806369a69e291461008257806393790f44146100a8578063be26ed7f146100c8575b600080fd5b610095610090366004612003565b610110565b6040519081526020015b60405180910390f35b6100bb6100b6366004612003565b6106b4565b60405161009f9190612057565b61009561072d565b6100956100de366004612003565b610833565b6100956100f1366004612003565b6117ec565b610095611f87565b6000546001600160a01b031631610095565b6000805460405163ed725e8360e01b81526001600160a01b0384811660048301528392169063ed725e8390602401602060405180830381865afa15801561015b573d6000803e3d6000fd5b505050506040513d601f19601f8201168201806040525081019061017f919061208a565b905060008060009054906101000a90046001600160a01b03166001600160a01b031663be26ed7f6040518163ffffffff1660e01b8152600401602060405180830381865afa1580156101d5573d6000803e3d6000fd5b505050506040513d601f19601f820116820180604052508101906101f9919061208a565b60005460405163fa845ca960e01b81526001600160a01b03878116600483015292935091169063fa845ca990602401602060405180830381865afa158015610245573d6000803e3d6000fd5b505050506040513d601f19601f82011682018060405250810190610269919061208a565b811180156102e35750600054604051630da0835760e11b81526001600160a01b03868116600483015290911690631b4106ae90602401602060405180830381865afa1580156102bc573d6000803e3d6000fd5b505050506040513d601f19601f820116820180604052508101906102e0919061208a565b15155b156106ad576000805460405163fa845ca960e01b81526001600160a01b038781166004830152909116906375ee84d390829063fa845ca990602401602060405180830381865afa15801561033b573d6000803e3d6000fd5b505050506040513d601f19601f8201168201806040525081019061035f919061208a565b6040518263ffffffff1660e01b815260040161037d91815260200190565b602060405180830381865afa15801561039a573d6000803e3d6000fd5b505050506040513d601f19601f820116820180604052508101906103be919061208a565b60005460405163fa845ca960e01b81526001600160a01b0388811660048301529091169063adc0f68690829063fa845ca990602401602060405180830381865afa158015610410573d6000803e3d6000fd5b505050506040513d601f19601f82011682018060405250810190610434919061208a565b6040518263ffffffff1660e01b815260040161045291815260200190565b602060405180830381865afa15801561046f573d6000803e3d6000fd5b505050506040513d601f19601f82011682018060405250810190610493919061208a565b600054604051630da0835760e11b81526001600160a01b03898116600483015290911690631b4106ae90602401602060405180830381865afa1580156104dd573d6000803e3d6000fd5b505050506040513d601f19601f82011682018060405250810190610501919061208a565b61050b91906120b9565b61051591906120d0565b905061052181846120f2565b6000546040516317b8561560e31b81526001600160a01b03888116600483015292955091169063bdc2b0a890602401602060405180830381865afa15801561056d573d6000803e3d6000fd5b505050506040513d601f19601f82011682018060405250810190610591919061208a565b156106ab5760008054604051630da0835760e11b81526001600160a01b03888116600483015290911690631b4106ae90602401602060405180830381865afa1580156105e1573d6000803e3d6000fd5b505050506040513d601f19601f82011682018060405250810190610605919061208a565b61060f90836120d0565b600080546040516317b8561560e31b81526001600160a01b038a8116600483015293945091926127109291169063bdc2b0a890602401602060405180830381865afa158015610662573d6000803e3d6000fd5b505050506040513d601f19601f82011682018060405250810190610686919061208a565b61069090846120b9565b61069a91906120d0565b90506106a68186612105565b945050505b505b5092915050565b60005460405163a3d6f9a960e01b81526001600160a01b038381166004830152606092169063a3d6f9a990602401600060405180830381865afa1580156106ff573d6000803e3d6000fd5b505050506040513d6000823e601f3d908101601f19168201604052610727919081019061212e565b92915050565b60008060009054906101000a90046001600160a01b03166001600160a01b0316632f7cdab06040518163ffffffff1660e01b8152600401602060405180830381865afa158015610781573d6000803e3d6000fd5b505050506040513d601f19601f820116820180604052508101906107a5919061208a565b60008054906101000a90046001600160a01b03166001600160a01b0316638bd955636040518163ffffffff1660e01b8152600401602060405180830381865afa1580156107f6573d6000803e3d6000fd5b505050506040513d601f19601f8201168201806040525081019061081a919061208a565b6108249042612105565b61082e91906120d0565b905090565b600080546040805163be26ed7f60e01b8152905183926001600160a01b03169163be26ed7f9160048083019260209291908290030181865afa15801561087d573d6000803e3d6000fd5b505050506040513d601f19601f820116820180604052508101906108a1919061208a565b60008054604051630bc7132960e41b81526001600160a01b0387811660048301529394509192169063bc71329090602401602060405180830381865afa1580156108ef573d6000803e3d6000fd5b505050506040513d601f19601f82011682018060405250810190610913919061208a565b905060008060008054906101000a90046001600160a01b03166001600160a01b0316635f5080b46040518163ffffffff1660e01b8152600401602060405180830381865afa158015610969573d6000803e3d6000fd5b505050506040513d601f19601f8201168201806040525081019061098d919061208a565b905060008060009054906101000a90046001600160a01b03166001600160a01b031663436091c16040518163ffffffff1660e01b8152600401602060405180830381865afa1580156109e3573d6000803e3d6000fd5b505050506040513d601f19601f82011682018060405250810190610a07919061208a565b905060008054906101000a90046001600160a01b03166001600160a01b031663f1b371e26040518163ffffffff1660e01b8152600401602060405180830381865afa158015610a5a573d6000803e3d6000fd5b505050506040513d601f19601f82011682018060405250810190610a7e919061208a565b8514610b7e5760008054906101000a90046001600160a01b03166001600160a01b031663436091c16040518163ffffffff1660e01b8152600401602060405180830381865afa158015610ad5573d6000803e3d6000fd5b505050506040513d601f19601f82011682018060405250810190610af9919061208a565b610b049060016120f2565b915060008054906101000a90046001600160a01b03166001600160a01b031663f1b371e26040518163ffffffff1660e01b8152600401602060405180830381865afa158015610b57573d6000803e3d6000fd5b505050506040513d601f19601f82011682018060405250810190610b7b919061208a565b90505b8085118015610c0557506000546001600160a01b031663bebc9dfc610ba48360016120f2565b6040518263ffffffff1660e01b8152600401610bc291815260200190565b602060405180830381865afa158015610bdf573d6000803e3d6000fd5b505050506040513d601f19601f82011682018060405250810190610c03919061208a565b155b15610e5a576000805460405163c4235ae960e01b8152600481018490526001600160a01b039091169063c4235ae990602401602060405180830381865afa158015610c54573d6000803e3d6000fd5b505050506040513d601f19601f82011682018060405250810190610c78919061208a565b60008054906101000a90046001600160a01b03166001600160a01b031663ef4cadc56040518163ffffffff1660e01b8152600401602060405180830381865afa158015610cc9573d6000803e3d6000fd5b505050506040513d601f19601f82011682018060405250810190610ced919061208a565b6000546040516303b3885560e21b8152600481018690526001600160a01b0390911690630ece215490602401602060405180830381865afa158015610d36573d6000803e3d6000fd5b505050506040513d601f19601f82011682018060405250810190610d5a919061208a565b610d6491906120b9565b610d6e91906120d0565b600054604080516317d4202d60e21b8152905192935083926001600160a01b039092169163bebc9dfc918391635f5080b4916004808201926020929091908290030181865afa158015610dc5573d6000803e3d6000fd5b505050506040513d601f19601f82011682018060405250810190610de9919061208a565b6040518263ffffffff1660e01b8152600401610e0791815260200190565b602060405180830381865afa158015610e24573d6000803e3d6000fd5b505050506040513d601f19601f82011682018060405250810190610e48919061208a565b610e5291906120f2565b935050610f32565b600054604080516317d4202d60e21b815290516001600160a01b039092169163bebc9dfc918391635f5080b4916004808201926020929091908290030181865afa158015610eac573d6000803e3d6000fd5b505050506040513d601f19601f82011682018060405250810190610ed0919061208a565b6040518263ffffffff1660e01b8152600401610eee91815260200190565b602060405180830381865afa158015610f0b573d6000803e3d6000fd5b505050506040513d601f19601f82011682018060405250810190610f2f919061208a565b92505b6000610f3d88610110565b90508186118015610fc55750610f548260016120f2565b60005460405163a707140b60e01b81526001600160a01b038b811660048301529091169063a707140b90602401602060405180830381865afa158015610f9e573d6000803e3d6000fd5b505050506040513d601f19601f82011682018060405250810190610fc2919061208a565b14155b1561113f5760008054906101000a90046001600160a01b03166001600160a01b031663ef4cadc56040518163ffffffff1660e01b8152600401602060405180830381865afa15801561101b573d6000803e3d6000fd5b505050506040513d601f19601f8201168201806040525081019061103f919061208a565b60005460405163a707140b60e01b81526001600160a01b038b811660048301529091169063bebc9dfc90829063a707140b90602401602060405180830381865afa158015611091573d6000803e3d6000fd5b505050506040513d601f19601f820116820180604052508101906110b5919061208a565b6040518263ffffffff1660e01b81526004016110d391815260200190565b602060405180830381865afa1580156110f0573d6000803e3d6000fd5b505050506040513d601f19601f82011682018060405250810190611114919061208a565b61111e9086612105565b61112890836120b9565b61113291906120d0565b61113c90866120f2565b94505b600054604051633983243160e21b81526001600160a01b038a811660048301529091169063e60c90c490602401602060405180830381865afa158015611189573d6000803e3d6000fd5b505050506040513d601f19601f820116820180604052508101906111ad919061208a565b158015906112315750600054604051633983243160e21b81526001600160a01b038a81166004830152600192169063e60c90c490602401602060405180830381865afa158015611201573d6000803e3d6000fd5b505050506040513d601f19601f82011682018060405250810190611225919061208a565b61122f9088612105565b115b156117e05760008054906101000a90046001600160a01b03166001600160a01b031663ef4cadc56040518163ffffffff1660e01b8152600401602060405180830381865afa158015611287573d6000803e3d6000fd5b505050506040513d601f19601f820116820180604052508101906112ab919061208a565b600054604051633983243160e21b81526001600160a01b038b811660048301529091169063bebc9dfc90829063e60c90c490602401602060405180830381865afa1580156112fd573d6000803e3d6000fd5b505050506040513d601f19601f82011682018060405250810190611321919061208a565b6040518263ffffffff1660e01b815260040161133f91815260200190565b602060405180830381865afa15801561135c573d6000803e3d6000fd5b505050506040513d601f19601f82011682018060405250810190611380919061208a565b61138a9086612105565b600054604051633983243160e21b81526001600160a01b038c811660048301529091169063aabbb1bd908c90839063e60c90c490602401602060405180830381865afa1580156113de573d6000803e3d6000fd5b505050506040513d601f19601f82011682018060405250810190611402919061208a565b6040516001600160e01b031960e085901b1681526001600160a01b0390921660048301526024820152604401602060405180830381865afa15801561144b573d6000803e3d6000fd5b505050506040513d601f19601f8201168201806040525081019061146f919061208a565b61147991906120b9565b61148391906120d0565b61148d90866120f2565b6000546040516336e028a360e21b81526001600160a01b038b8116600483015292975091169063db80a28c90602401602060405180830381865afa1580156114d9573d6000803e3d6000fd5b505050506040513d601f19601f820116820180604052508101906114fd919061208a565b1580159061158157506000546040516336e028a360e21b81526001600160a01b038a81166004830152600192169063db80a28c90602401602060405180830381865afa158015611551573d6000803e3d6000fd5b505050506040513d601f19601f82011682018060405250810190611575919061208a565b61157f9088612105565b115b156117e05760008054906101000a90046001600160a01b03166001600160a01b031663ef4cadc56040518163ffffffff1660e01b8152600401602060405180830381865afa1580156115d7573d6000803e3d6000fd5b505050506040513d601f19601f820116820180604052508101906115fb919061208a565b6000546040516336e028a360e21b81526001600160a01b038b811660048301529091169063bebc9dfc90829063db80a28c90602401602060405180830381865afa15801561164d573d6000803e3d6000fd5b505050506040513d601f19601f82011682018060405250810190611671919061208a565b6040518263ffffffff1660e01b815260040161168f91815260200190565b602060405180830381865afa1580156116ac573d6000803e3d6000fd5b505050506040513d601f19601f820116820180604052508101906116d0919061208a565b6116da9086612105565b6000546040516336e028a360e21b81526001600160a01b038c811660048301529091169063aabbb1bd908c90839063db80a28c90602401602060405180830381865afa15801561172e573d6000803e3d6000fd5b505050506040513d601f19601f82011682018060405250810190611752919061208a565b6040516001600160e01b031960e085901b1681526001600160a01b0390921660048301526024820152604401602060405180830381865afa15801561179b573d6000803e3d6000fd5b505050506040513d601f19601f820116820180604052508101906117bf919061208a565b6117c991906120b9565b6117d391906120d0565b6117dd90866120f2565b94505b50929695505050505050565b600080546040805163be26ed7f60e01b8152905183926001600160a01b03169163be26ed7f9160048083019260209291908290030181865afa158015611836573d6000803e3d6000fd5b505050506040513d601f19601f8201168201806040525081019061185a919061208a565b60008054604051633983243160e21b81526001600160a01b0387811660048301529394509192169063e60c90c490602401602060405180830381865afa1580156118a8573d6000803e3d6000fd5b505050506040513d601f19601f820116820180604052508101906118cc919061208a565b158015906119c6575060008054604051633983243160e21b81526001600160a01b0387811660048301529091169063e60c90c490602401602060405180830381865afa158015611920573d6000803e3d6000fd5b505050506040513d601f19601f82011682018060405250810190611944919061208a565b60008054906101000a90046001600160a01b03166001600160a01b031663bab2f5526040518163ffffffff1660e01b8152600401602060405180830381865afa158015611995573d6000803e3d6000fd5b505050506040513d601f19601f820116820180604052508101906119b9919061208a565b6119c39190612105565b10155b8015611a3b5750600054604051637ba0061560e11b81526001600160a01b0386811660048301529091169063f7400c2a90602401602060405180830381865afa158015611a17573d6000803e3d6000fd5b505050506040513d601f19601f82011682018060405250810190611a3b91906121db565b15611b3657600054604051633983243160e21b81526001600160a01b0386811660048301529091169063aabbb1bd908690839063e60c90c490602401602060405180830381865afa158015611a94573d6000803e3d6000fd5b505050506040513d601f19601f82011682018060405250810190611ab8919061208a565b6040516001600160e01b031960e085901b1681526001600160a01b0390921660048301526024820152604401602060405180830381865afa158015611b01573d6000803e3d6000fd5b505050506040513d601f19601f82011682018060405250810190611b25919061208a565b611b2f90826120f2565b9050611f07565b600054604051633983243160e21b81526001600160a01b0386811660048301529091169063e60c90c490602401602060405180830381865afa158015611b80573d6000803e3d6000fd5b505050506040513d601f19601f82011682018060405250810190611ba4919061208a565b15801590611c28575060008054604051633983243160e21b81526001600160a01b0387811660048301529091169063e60c90c490602401602060405180830381865afa158015611bf8573d6000803e3d6000fd5b505050506040513d601f19601f82011682018060405250810190611c1c919061208a565b611c269084612105565b115b15611f0757600054604051633983243160e21b81526001600160a01b0386811660048301529091169063aabbb1bd908690839063e60c90c490602401602060405180830381865afa158015611c81573d6000803e3d6000fd5b505050506040513d601f19601f82011682018060405250810190611ca5919061208a565b6040516001600160e01b031960e085901b1681526001600160a01b0390921660048301526024820152604401602060405180830381865afa158015611cee573d6000803e3d6000fd5b505050506040513d601f19601f82011682018060405250810190611d12919061208a565b611d1c90826120f2565b6000546040516336e028a360e21b81526001600160a01b03878116600483015292935091169063db80a28c90602401602060405180830381865afa158015611d68573d6000803e3d6000fd5b505050506040513d601f19601f82011682018060405250810190611d8c919061208a565b15801590611e105750600080546040516336e028a360e21b81526001600160a01b0387811660048301529091169063db80a28c90602401602060405180830381865afa158015611de0573d6000803e3d6000fd5b505050506040513d601f19601f82011682018060405250810190611e04919061208a565b611e0e9084612105565b115b15611f07576000546040516336e028a360e21b81526001600160a01b0386811660048301529091169063aabbb1bd908690839063db80a28c90602401602060405180830381865afa158015611e69573d6000803e3d6000fd5b505050506040513d601f19601f82011682018060405250810190611e8d919061208a565b6040516001600160e01b031960e085901b1681526001600160a01b0390921660048301526024820152604401602060405180830381865afa158015611ed6573d6000803e3d6000fd5b505050506040513d601f19601f82011682018060405250810190611efa919061208a565b611f0490826120f2565b90505b600054604051631ed6380f60e01b81526001600160a01b03868116600483015283921690631ed6380f90602401602060405180830381865afa158015611f51573d6000803e3d6000fd5b505050506040513d601f19601f82011682018060405250810190611f75919061208a565b611f7f91906120f2565b949350505050565b6000805460408051632a57c76b60e21b81529051612724926001600160a01b03169163a95f1dac9160048083019260209291908290030181865afa158015611fd3573d6000803e3d6000fd5b505050506040513d601f19601f82011682018060405250810190611ff7919061208a565b610824906127106120b9565b60006020828403121561201557600080fd5b81356001600160a01b038116811461202c57600080fd5b9392505050565b60005b8381101561204e578181015183820152602001612036565b50506000910152565b6020815260008251806020840152612076816040850160208701612033565b601f01601f19169190910160400192915050565b60006020828403121561209c57600080fd5b5051919050565b634e487b7160e01b600052601160045260246000fd5b8082028115828204841417610727576107276120a3565b6000826120ed57634e487b7160e01b600052601260045260246000fd5b500490565b80820180821115610727576107276120a3565b81810381811115610727576107276120a3565b634e487b7160e01b600052604160045260246000fd5b60006020828403121561214057600080fd5b815167ffffffffffffffff8082111561215857600080fd5b818401915084601f83011261216c57600080fd5b81518181111561217e5761217e612118565b604051601f8201601f19908116603f011681019083821181831017156121a6576121a6612118565b816040528281528760208487010111156121bf57600080fd5b6121d0836020830160208801612033565b979650505050505050565b6000602082840312156121ed57600080fd5b8151801515811461202c57600080fdfea26469706673582212207278e9a4fdccd9d49944c64cb62be99cc2aa17a77d3e4c815e7cf6f381b69da864736f6c63430008110033",
			"opcodes": "PUSH1 0x80 PUSH1 0x40 MSTORE CALLVALUE DUP1 ISZERO PUSH2 0x10 JUMPI PUSH1 0x0 DUP1 REVERT JUMPDEST POP PUSH1 0x40 MLOAD PUSH3 0x22C9 CODESIZE SUB DUP1 PUSH3 0x22C9 DUP4 CODECOPY DUP2 ADD PUSH1 0x40 DUP2 SWAP1 MSTORE PUSH2 0x31 SWAP2 PUSH2 0x56 JUMP JUMPDEST PUSH1 0x0 DUP1 SLOAD PUSH1 0x1 PUSH1 0x1 PUSH1 0xA0 SHL SUB NOT AND PUSH1 0x1 PUSH1 0x1 PUSH1 0xA0 SHL SUB SWAP3 SWAP1 SWAP3 AND SWAP2 SWAP1 SWAP2 OR SWAP1 SSTORE PUSH2 0x86 JUMP JUMPDEST PUSH1 0x0 PUSH1 0x20 DUP3 DUP5 SUB SLT ISZERO PUSH2 0x68 JUMPI PUSH1 0x0 DUP1 REVERT JUMPDEST DUP2 MLOAD PUSH1 0x1 PUSH1 0x1 PUSH1 0xA0 SHL SUB DUP2 AND DUP2 EQ PUSH2 0x7F JUMPI PUSH1 0x0 DUP1 REVERT JUMPDEST SWAP4 SWAP3 POP POP POP JUMP JUMPDEST PUSH2 0x2233 DUP1 PUSH3 0x96 PUSH1 0x0 CODECOPY PUSH1 0x0 RETURN INVALID PUSH1 0x80 PUSH1 0x40 MSTORE CALLVALUE DUP1 ISZERO PUSH2 0x10 JUMPI PUSH1 0x0 DUP1 REVERT JUMPDEST POP PUSH1 0x4 CALLDATASIZE LT PUSH2 0x7D JUMPI PUSH1 0x0 CALLDATALOAD PUSH1 0xE0 SHR DUP1 PUSH4 0xBF992DEA GT PUSH2 0x5B JUMPI DUP1 PUSH4 0xBF992DEA EQ PUSH2 0xD0 JUMPI DUP1 PUSH4 0xCDD5C81F EQ PUSH2 0xE3 JUMPI DUP1 PUSH4 0xD6AEF1C6 EQ PUSH2 0xF6 JUMPI DUP1 PUSH4 0xE10BF06A EQ PUSH2 0xFE JUMPI PUSH1 0x0 DUP1 REVERT JUMPDEST DUP1 PUSH4 0x69A69E29 EQ PUSH2 0x82 JUMPI DUP1 PUSH4 0x93790F44 EQ PUSH2 0xA8 JUMPI DUP1 PUSH4 0xBE26ED7F EQ PUSH2 0xC8 JUMPI JUMPDEST PUSH1 0x0 DUP1 REVERT JUMPDEST PUSH2 0x95 PUSH2 0x90 CALLDATASIZE PUSH1 0x4 PUSH2 0x2003 JUMP JUMPDEST PUSH2 0x110 JUMP JUMPDEST PUSH1 0x40 MLOAD SWAP1 DUP2 MSTORE PUSH1 0x20 ADD JUMPDEST PUSH1 0x40 MLOAD DUP1 SWAP2 SUB SWAP1 RETURN JUMPDEST PUSH2 0xBB PUSH2 0xB6 CALLDATASIZE PUSH1 0x4 PUSH2 0x2003 JUMP JUMPDEST PUSH2 0x6B4 JUMP JUMPDEST PUSH1 0x40 MLOAD PUSH2 0x9F SWAP2 SWAP1 PUSH2 0x2057 JUMP JUMPDEST PUSH2 0x95 PUSH2 0x72D JUMP JUMPDEST PUSH2 0x95 PUSH2 0xDE CALLDATASIZE PUSH1 0x4 PUSH2 0x2003 JUMP JUMPDEST PUSH2 0x833 JUMP JUMPDEST PUSH2 0x95 PUSH2 0xF1 CALLDATASIZE PUSH1 0x4 PUSH2 0x2003 JUMP JUMPDEST PUSH2 0x17EC JUMP JUMPDEST PUSH2 0x95 PUSH2 0x1F87 JUMP JUMPDEST PUSH1 0x0 SLOAD PUSH1 0x1 PUSH1 0x1 PUSH1 0xA0 SHL SUB AND BALANCE PUSH2 0x95 JUMP JUMPDEST PUSH1 0x0 DUP1 SLOAD PUSH1 0x40 MLOAD PUSH4 0xED725E83 PUSH1 0xE0 SHL DUP2 MSTORE PUSH1 0x1 PUSH1 0x1 PUSH1 0xA0 SHL SUB DUP5 DUP2 AND PUSH1 0x4 DUP4 ADD MSTORE DUP4 SWAP3 AND SWAP1 PUSH4 0xED725E83 SWAP1 PUSH1 0x24 ADD PUSH1 0x20 PUSH1 0x40 MLOAD DUP1 DUP4 SUB DUP2 DUP7 GAS STATICCALL ISZERO DUP1 ISZERO PUSH2 0x15B JUMPI RETURNDATASIZE PUSH1 0x0 DUP1 RETURNDATACOPY RETURNDATASIZE PUSH1 0x0 REVERT JUMPDEST POP POP POP POP PUSH1 0x40 MLOAD RETURNDATASIZE PUSH1 0x1F NOT PUSH1 0x1F DUP3 ADD AND DUP3 ADD DUP1 PUSH1 0x40 MSTORE POP DUP2 ADD SWAP1 PUSH2 0x17F SWAP2 SWAP1 PUSH2 0x208A JUMP JUMPDEST SWAP1 POP PUSH1 0x0 DUP1 PUSH1 0x0 SWAP1 SLOAD SWAP1 PUSH2 0x100 EXP SWAP1 DIV PUSH1 0x1 PUSH1 0x1 PUSH1 0xA0 SHL SUB AND PUSH1 0x1 PUSH1 0x1 PUSH1 0xA0 SHL SUB AND PUSH4 0xBE26ED7F PUSH1 0x40 MLOAD DUP2 PUSH4 0xFFFFFFFF AND PUSH1 0xE0 SHL DUP2 MSTORE PUSH1 0x4 ADD PUSH1 0x20 PUSH1 0x40 MLOAD DUP1 DUP4 SUB DUP2 DUP7 GAS STATICCALL ISZERO DUP1 ISZERO PUSH2 0x1D5 JUMPI RETURNDATASIZE PUSH1 0x0 DUP1 RETURNDATACOPY RETURNDATASIZE PUSH1 0x0 REVERT JUMPDEST POP POP POP POP PUSH1 0x40 MLOAD RETURNDATASIZE PUSH1 0x1F NOT PUSH1 0x1F DUP3 ADD AND DUP3 ADD DUP1 PUSH1 0x40 MSTORE POP DUP2 ADD SWAP1 PUSH2 0x1F9 SWAP2 SWAP1 PUSH2 0x208A JUMP JUMPDEST PUSH1 0x0 SLOAD PUSH1 0x40 MLOAD PUSH4 0xFA845CA9 PUSH1 0xE0 SHL DUP2 MSTORE PUSH1 0x1 PUSH1 0x1 PUSH1 0xA0 SHL SUB DUP8 DUP2 AND PUSH1 0x4 DUP4 ADD MSTORE SWAP3 SWAP4 POP SWAP2 AND SWAP1 PUSH4 0xFA845CA9 SWAP1 PUSH1 0x24 ADD PUSH1 0x20 PUSH1 0x40 MLOAD DUP1 DUP4 SUB DUP2 DUP7 GAS STATICCALL ISZERO DUP1 ISZERO PUSH2 0x245 JUMPI RETURNDATASIZE PUSH1 0x0 DUP1 RETURNDATACOPY RETURNDATASIZE PUSH1 0x0 REVERT JUMPDEST POP POP POP POP PUSH1 0x40 MLOAD RETURNDATASIZE PUSH1 0x1F NOT PUSH1 0x1F DUP3 ADD AND DUP3 ADD DUP1 PUSH1 0x40 MSTORE POP DUP2 ADD SWAP1 PUSH2 0x269 SWAP2 SWAP1 PUSH2 0x208A JUMP JUMPDEST DUP2 GT DUP1 ISZERO PUSH2 0x2E3 JUMPI POP PUSH1 0x0 SLOAD PUSH1 0x40 MLOAD PUSH4 0xDA08357 PUSH1 0xE1 SHL DUP2 MSTORE PUSH1 0x1 PUSH1 0x1 PUSH1 0xA0 SHL SUB DUP7 DUP2 AND PUSH1 0x4 DUP4 ADD MSTORE SWAP1 SWAP2 AND SWAP1 PUSH4 0x1B4106AE SWAP1 PUSH1 0x24 ADD PUSH1 0x20 PUSH1 0x40 MLOAD DUP1 DUP4 SUB DUP2 DUP7 GAS STATICCALL ISZERO DUP1 ISZERO PUSH2 0x2BC JUMPI RETURNDATASIZE PUSH1 0x0 DUP1 RETURNDATACOPY RETURNDATASIZE PUSH1 0x0 REVERT JUMPDEST POP POP POP POP PUSH1 0x40 MLOAD RETURNDATASIZE PUSH1 0x1F NOT PUSH1 0x1F DUP3 ADD AND DUP3 ADD DUP1 PUSH1 0x40 MSTORE POP DUP2 ADD SWAP1 PUSH2 0x2E0 SWAP2 SWAP1 PUSH2 0x208A JUMP JUMPDEST ISZERO ISZERO JUMPDEST ISZERO PUSH2 0x6AD JUMPI PUSH1 0x0 DUP1 SLOAD PUSH1 0x40 MLOAD PUSH4 0xFA845CA9 PUSH1 0xE0 SHL DUP2 MSTORE PUSH1 0x1 PUSH1 0x1 PUSH1 0xA0 SHL SUB DUP8 DUP2 AND PUSH1 0x4 DUP4 ADD MSTORE SWAP1 SWAP2 AND SWAP1 PUSH4 0x75EE84D3 SWAP1 DUP3 SWAP1 PUSH4 0xFA845CA9 SWAP1 PUSH1 0x24 ADD PUSH1 0x20 PUSH1 0x40 MLOAD DUP1 DUP4 SUB DUP2 DUP7 GAS STATICCALL ISZERO DUP1 ISZERO PUSH2 0x33B JUMPI RETURNDATASIZE PUSH1 0x0 DUP1 RETURNDATACOPY RETURNDATASIZE PUSH1 0x0 REVERT JUMPDEST POP POP POP POP PUSH1 0x40 MLOAD RETURNDATASIZE PUSH1 0x1F NOT PUSH1 0x1F DUP3 ADD AND DUP3 ADD DUP1 PUSH1 0x40 MSTORE POP DUP2 ADD SWAP1 PUSH2 0x35F SWAP2 SWAP1 PUSH2 0x208A JUMP JUMPDEST PUSH1 0x40 MLOAD DUP3 PUSH4 0xFFFFFFFF AND PUSH1 0xE0 SHL DUP2 MSTORE PUSH1 0x4 ADD PUSH2 0x37D SWAP2 DUP2 MSTORE PUSH1 0x20 ADD SWAP1 JUMP JUMPDEST PUSH1 0x20 PUSH1 0x40 MLOAD DUP1 DUP4 SUB DUP2 DUP7 GAS STATICCALL ISZERO DUP1 ISZERO PUSH2 0x39A JUMPI RETURNDATASIZE PUSH1 0x0 DUP1 RETURNDATACOPY RETURNDATASIZE PUSH1 0x0 REVERT JUMPDEST POP POP POP POP PUSH1 0x40 MLOAD RETURNDATASIZE PUSH1 0x1F NOT PUSH1 0x1F DUP3 ADD AND DUP3 ADD DUP1 PUSH1 0x40 MSTORE POP DUP2 ADD SWAP1 PUSH2 0x3BE SWAP2 SWAP1 PUSH2 0x208A JUMP JUMPDEST PUSH1 0x0 SLOAD PUSH1 0x40 MLOAD PUSH4 0xFA845CA9 PUSH1 0xE0 SHL DUP2 MSTORE PUSH1 0x1 PUSH1 0x1 PUSH1 0xA0 SHL SUB DUP9 DUP2 AND PUSH1 0x4 DUP4 ADD MSTORE SWAP1 SWAP2 AND SWAP1 PUSH4 0xADC0F686 SWAP1 DUP3 SWAP1 PUSH4 0xFA845CA9 SWAP1 PUSH1 0x24 ADD PUSH1 0x20 PUSH1 0x40 MLOAD DUP1 DUP4 SUB DUP2 DUP7 GAS STATICCALL ISZERO DUP1 ISZERO PUSH2 0x410 JUMPI RETURNDATASIZE PUSH1 0x0 DUP1 RETURNDATACOPY RETURNDATASIZE PUSH1 0x0 REVERT JUMPDEST POP POP POP POP PUSH1 0x40 MLOAD RETURNDATASIZE PUSH1 0x1F NOT PUSH1 0x1F DUP3 ADD AND DUP3 ADD DUP1 PUSH1 0x40 MSTORE POP DUP2 ADD SWAP1 PUSH2 0x434 SWAP2 SWAP1 PUSH2 0x208A JUMP JUMPDEST PUSH1 0x40 MLOAD DUP3 PUSH4 0xFFFFFFFF AND PUSH1 0xE0 SHL DUP2 MSTORE PUSH1 0x4 ADD PUSH2 0x452 SWAP2 DUP2 MSTORE PUSH1 0x20 ADD SWAP1 JUMP JUMPDEST PUSH1 0x20 PUSH1 0x40 MLOAD DUP1 DUP4 SUB DUP2 DUP7 GAS STATICCALL ISZERO DUP1 ISZERO PUSH2 0x46F JUMPI RETURNDATASIZE PUSH1 0x0 DUP1 RETURNDATACOPY RETURNDATASIZE PUSH1 0x0 REVERT JUMPDEST POP POP POP POP PUSH1 0x40 MLOAD RETURNDATASIZE PUSH1 0x1F NOT PUSH1 0x1F DUP3 ADD AND DUP3 ADD DUP1 PUSH1 0x40 MSTORE POP DUP2 ADD SWAP1 PUSH2 0x493 SWAP2 SWAP1 PUSH2 0x208A JUMP JUMPDEST PUSH1 0x0 SLOAD PUSH1 0x40 MLOAD PUSH4 0xDA08357 PUSH1 0xE1 SHL DUP2 MSTORE PUSH1 0x1 PUSH1 0x1 PUSH1 0xA0 SHL SUB DUP10 DUP2 AND PUSH1 0x4 DUP4 ADD MSTORE SWAP1 SWAP2 AND SWAP1 PUSH4 0x1B4106AE SWAP1 PUSH1 0x24 ADD PUSH1 0x20 PUSH1 0x40 MLOAD DUP1 DUP4 SUB DUP2 DUP7 GAS STATICCALL ISZERO DUP1 ISZERO PUSH2 0x4DD JUMPI RETURNDATASIZE PUSH1 0x0 DUP1 RETURNDATACOPY RETURNDATASIZE PUSH1 0x0 REVERT JUMPDEST POP POP POP POP PUSH1 0x40 MLOAD RETURNDATASIZE PUSH1 0x1F NOT PUSH1 0x1F DUP3 ADD AND DUP3 ADD DUP1 PUSH1 0x40 MSTORE POP DUP2 ADD SWAP1 PUSH2 0x501 SWAP2 SWAP1 PUSH2 0x208A JUMP JUMPDEST PUSH2 0x50B SWAP2 SWAP1 PUSH2 0x20B9 JUMP JUMPDEST PUSH2 0x515 SWAP2 SWAP1 PUSH2 0x20D0 JUMP JUMPDEST SWAP1 POP PUSH2 0x521 DUP2 DUP5 PUSH2 0x20F2 JUMP JUMPDEST PUSH1 0x0 SLOAD PUSH1 0x40 MLOAD PUSH4 0x17B85615 PUSH1 0xE3 SHL DUP2 MSTORE PUSH1 0x1 PUSH1 0x1 PUSH1 0xA0 SHL SUB DUP9 DUP2 AND PUSH1 0x4 DUP4 ADD MSTORE SWAP3 SWAP6 POP SWAP2 AND SWAP1 PUSH4 0xBDC2B0A8 SWAP1 PUSH1 0x24 ADD PUSH1 0x20 PUSH1 0x40 MLOAD DUP1 DUP4 SUB DUP2 DUP7 GAS STATICCALL ISZERO DUP1 ISZERO PUSH2 0x56D JUMPI RETURNDATASIZE PUSH1 0x0 DUP1 RETURNDATACOPY RETURNDATASIZE PUSH1 0x0 REVERT JUMPDEST POP POP POP POP PUSH1 0x40 MLOAD RETURNDATASIZE PUSH1 0x1F NOT PUSH1 0x1F DUP3 ADD AND DUP3 ADD DUP1 PUSH1 0x40 MSTORE POP DUP2 ADD SWAP1 PUSH2 0x591 SWAP2 SWAP1 PUSH2 0x208A JUMP JUMPDEST ISZERO PUSH2 0x6AB JUMPI PUSH1 0x0 DUP1 SLOAD PUSH1 0x40 MLOAD PUSH4 0xDA08357 PUSH1 0xE1 SHL DUP2 MSTORE PUSH1 0x1 PUSH1 0x1 PUSH1 0xA0 SHL SUB DUP9 DUP2 AND PUSH1 0x4 DUP4 ADD MSTORE SWAP1 SWAP2 AND SWAP1 PUSH4 0x1B4106AE SWAP1 PUSH1 0x24 ADD PUSH1 0x20 PUSH1 0x40 MLOAD DUP1 DUP4 SUB DUP2 DUP7 GAS STATICCALL ISZERO DUP1 ISZERO PUSH2 0x5E1 JUMPI RETURNDATASIZE PUSH1 0x0 DUP1 RETURNDATACOPY RETURNDATASIZE PUSH1 0x0 REVERT JUMPDEST POP POP POP POP PUSH1 0x40 MLOAD RETURNDATASIZE PUSH1 0x1F NOT PUSH1 0x1F DUP3 ADD AND DUP3 ADD DUP1 PUSH1 0x40 MSTORE POP DUP2 ADD SWAP1 PUSH2 0x605 SWAP2 SWAP1 PUSH2 0x208A JUMP JUMPDEST PUSH2 0x60F SWAP1 DUP4 PUSH2 0x20D0 JUMP JUMPDEST PUSH1 0x0 DUP1 SLOAD PUSH1 0x40 MLOAD PUSH4 0x17B85615 PUSH1 0xE3 SHL DUP2 MSTORE PUSH1 0x1 PUSH1 0x1 PUSH1 0xA0 SHL SUB DUP11 DUP2 AND PUSH1 0x4 DUP4 ADD MSTORE SWAP4 SWAP5 POP SWAP2 SWAP3 PUSH2 0x2710 SWAP3 SWAP2 AND SWAP1 PUSH4 0xBDC2B0A8 SWAP1 PUSH1 0x24 ADD PUSH1 0x20 PUSH1 0x40 MLOAD DUP1 DUP4 SUB DUP2 DUP7 GAS STATICCALL ISZERO DUP1 ISZERO PUSH2 0x662 JUMPI RETURNDATASIZE PUSH1 0x0 DUP1 RETURNDATACOPY RETURNDATASIZE PUSH1 0x0 REVERT JUMPDEST POP POP POP POP PUSH1 0x40 MLOAD RETURNDATASIZE PUSH1 0x1F NOT PUSH1 0x1F DUP3 ADD AND DUP3 ADD DUP1 PUSH1 0x40 MSTORE POP DUP2 ADD SWAP1 PUSH2 0x686 SWAP2 SWAP1 PUSH2 0x208A JUMP JUMPDEST PUSH2 0x690 SWAP1 DUP5 PUSH2 0x20B9 JUMP JUMPDEST PUSH2 0x69A SWAP2 SWAP1 PUSH2 0x20D0 JUMP JUMPDEST SWAP1 POP PUSH2 0x6A6 DUP2 DUP7 PUSH2 0x2105 JUMP JUMPDEST SWAP5 POP POP POP JUMPDEST POP JUMPDEST POP SWAP3 SWAP2 POP POP JUMP JUMPDEST PUSH1 0x0 SLOAD PUSH1 0x40 MLOAD PUSH4 0xA3D6F9A9 PUSH1 0xE0 SHL DUP2 MSTORE PUSH1 0x1 PUSH1 0x1 PUSH1 0xA0 SHL SUB DUP4 DUP2 AND PUSH1 0x4 DUP4 ADD MSTORE PUSH1 0x60 SWAP3 AND SWAP1 PUSH4 0xA3D6F9A9 SWAP1 PUSH1 0x24 ADD PUSH1 0x0 PUSH1 0x40 MLOAD DUP1 DUP4 SUB DUP2 DUP7 GAS STATICCALL ISZERO DUP1 ISZERO PUSH2 0x6FF JUMPI RETURNDATASIZE PUSH1 0x0 DUP1 RETURNDATACOPY RETURNDATASIZE PUSH1 0x0 REVERT JUMPDEST POP POP POP POP PUSH1 0x40 MLOAD RETURNDATASIZE PUSH1 0x0 DUP3 RETURNDATACOPY PUSH1 0x1F RETURNDATASIZE SWAP1 DUP2 ADD PUSH1 0x1F NOT AND DUP3 ADD PUSH1 0x40 MSTORE PUSH2 0x727 SWAP2 SWAP1 DUP2 ADD SWAP1 PUSH2 0x212E JUMP JUMPDEST SWAP3 SWAP2 POP POP JUMP JUMPDEST PUSH1 0x0 DUP1 PUSH1 0x0 SWAP1 SLOAD SWAP1 PUSH2 0x100 EXP SWAP1 DIV PUSH1 0x1 PUSH1 0x1 PUSH1 0xA0 SHL SUB AND PUSH1 0x1 PUSH1 0x1 PUSH1 0xA0 SHL SUB AND PUSH4 0x2F7CDAB0 PUSH1 0x40 MLOAD DUP2 PUSH4 0xFFFFFFFF AND PUSH1 0xE0 SHL DUP2 MSTORE PUSH1 0x4 ADD PUSH1 0x20 PUSH1 0x40 MLOAD DUP1 DUP4 SUB DUP2 DUP7 GAS STATICCALL ISZERO DUP1 ISZERO PUSH2 0x781 JUMPI RETURNDATASIZE PUSH1 0x0 DUP1 RETURNDATACOPY RETURNDATASIZE PUSH1 0x0 REVERT JUMPDEST POP POP POP POP PUSH1 0x40 MLOAD RETURNDATASIZE PUSH1 0x1F NOT PUSH1 0x1F DUP3 ADD AND DUP3 ADD DUP1 PUSH1 0x40 MSTORE POP DUP2 ADD SWAP1 PUSH2 0x7A5 SWAP2 SWAP1 PUSH2 0x208A JUMP JUMPDEST PUSH1 0x0 DUP1 SLOAD SWAP1 PUSH2 0x100 EXP SWAP1 DIV PUSH1 0x1 PUSH1 0x1 PUSH1 0xA0 SHL SUB AND PUSH1 0x1 PUSH1 0x1 PUSH1 0xA0 SHL SUB AND PUSH4 0x8BD95563 PUSH1 0x40 MLOAD DUP2 PUSH4 0xFFFFFFFF AND PUSH1 0xE0 SHL DUP2 MSTORE PUSH1 0x4 ADD PUSH1 0x20 PUSH1 0x40 MLOAD DUP1 DUP4 SUB DUP2 DUP7 GAS STATICCALL ISZERO DUP1 ISZERO PUSH2 0x7F6 JUMPI RETURNDATASIZE PUSH1 0x0 DUP1 RETURNDATACOPY RETURNDATASIZE PUSH1 0x0 REVERT JUMPDEST POP POP POP POP PUSH1 0x40 MLOAD RETURNDATASIZE PUSH1 0x1F NOT PUSH1 0x1F DUP3 ADD AND DUP3 ADD DUP1 PUSH1 0x40 MSTORE POP DUP2 ADD SWAP1 PUSH2 0x81A SWAP2 SWAP1 PUSH2 0x208A JUMP JUMPDEST PUSH2 0x824 SWAP1 TIMESTAMP PUSH2 0x2105 JUMP JUMPDEST PUSH2 0x82E SWAP2 SWAP1 PUSH2 0x20D0 JUMP JUMPDEST SWAP1 POP SWAP1 JUMP JUMPDEST PUSH1 0x0 DUP1 SLOAD PUSH1 0x40 DUP1 MLOAD PUSH4 0xBE26ED7F PUSH1 0xE0 SHL DUP2 MSTORE SWAP1 MLOAD DUP4 SWAP3 PUSH1 0x1 PUSH1 0x1 PUSH1 0xA0 SHL SUB AND SWAP2 PUSH4 0xBE26ED7F SWAP2 PUSH1 0x4 DUP1 DUP4 ADD SWAP3 PUSH1 0x20 SWAP3 SWAP2 SWAP1 DUP3 SWAP1 SUB ADD DUP2 DUP7 GAS STATICCALL ISZERO DUP1 ISZERO PUSH2 0x87D JUMPI RETURNDATASIZE PUSH1 0x0 DUP1 RETURNDATACOPY RETURNDATASIZE PUSH1 0x0 REVERT JUMPDEST POP POP POP POP PUSH1 0x40 MLOAD RETURNDATASIZE PUSH1 0x1F NOT PUSH1 0x1F DUP3 ADD AND DUP3 ADD DUP1 PUSH1 0x40 MSTORE POP DUP2 ADD SWAP1 PUSH2 0x8A1 SWAP2 SWAP1 PUSH2 0x208A JUMP JUMPDEST PUSH1 0x0 DUP1 SLOAD PUSH1 0x40 MLOAD PUSH4 0xBC71329 PUSH1 0xE4 SHL DUP2 MSTORE PUSH1 0x1 PUSH1 0x1 PUSH1 0xA0 SHL SUB DUP8 DUP2 AND PUSH1 0x4 DUP4 ADD MSTORE SWAP4 SWAP5 POP SWAP2 SWAP3 AND SWAP1 PUSH4 0xBC713290 SWAP1 PUSH1 0x24 ADD PUSH1 0x20 PUSH1 0x40 MLOAD DUP1 DUP4 SUB DUP2 DUP7 GAS STATICCALL ISZERO DUP1 ISZERO PUSH2 0x8EF JUMPI RETURNDATASIZE PUSH1 0x0 DUP1 RETURNDATACOPY RETURNDATASIZE PUSH1 0x0 REVERT JUMPDEST POP POP POP POP PUSH1 0x40 MLOAD RETURNDATASIZE PUSH1 0x1F NOT PUSH1 0x1F DUP3 ADD AND DUP3 ADD DUP1 PUSH1 0x40 MSTORE POP DUP2 ADD SWAP1 PUSH2 0x913 SWAP2 SWAP1 PUSH2 0x208A JUMP JUMPDEST SWAP1 POP PUSH1 0x0 DUP1 PUSH1 0x0 DUP1 SLOAD SWAP1 PUSH2 0x100 EXP SWAP1 DIV PUSH1 0x1 PUSH1 0x1 PUSH1 0xA0 SHL SUB AND PUSH1 0x1 PUSH1 0x1 PUSH1 0xA0 SHL SUB AND PUSH4 0x5F5080B4 PUSH1 0x40 MLOAD DUP2 PUSH4 0xFFFFFFFF AND PUSH1 0xE0 SHL DUP2 MSTORE PUSH1 0x4 ADD PUSH1 0x20 PUSH1 0x40 MLOAD DUP1 DUP4 SUB DUP2 DUP7 GAS STATICCALL ISZERO DUP1 ISZERO PUSH2 0x969 JUMPI RETURNDATASIZE PUSH1 0x0 DUP1 RETURNDATACOPY RETURNDATASIZE PUSH1 0x0 REVERT JUMPDEST POP POP POP POP PUSH1 0x40 MLOAD RETURNDATASIZE PUSH1 0x1F NOT PUSH1 0x1F DUP3 ADD AND DUP3 ADD DUP1 PUSH1 0x40 MSTORE POP DUP2 ADD SWAP1 PUSH2 0x98D SWAP2 SWAP1 PUSH2 0x208A JUMP JUMPDEST SWAP1 POP PUSH1 0x0 DUP1 PUSH1 0x0 SWAP1 SLOAD SWAP1 PUSH2 0x100 EXP SWAP1 DIV PUSH1 0x1 PUSH1 0x1 PUSH1 0xA0 SHL SUB AND PUSH1 0x1 PUSH1 0x1 PUSH1 0xA0 SHL SUB AND PUSH4 0x436091C1 PUSH1 0x40 MLOAD DUP2 PUSH4 0xFFFFFFFF AND PUSH1 0xE0 SHL DUP2 MSTORE PUSH1 0x4 ADD PUSH1 0x20 PUSH1 0x40 MLOAD DUP1 DUP4 SUB DUP2 DUP7 GAS STATICCALL ISZERO DUP1 ISZERO PUSH2 0x9E3 JUMPI RETURNDATASIZE PUSH1 0x0 DUP1 RETURNDATACOPY RETURNDATASIZE PUSH1 0x0 REVERT JUMPDEST POP POP POP POP PUSH1 0x40 MLOAD RETURNDATASIZE PUSH1 0x1F NOT PUSH1 0x1F DUP3 ADD AND DUP3 ADD DUP1 PUSH1 0x40 MSTORE POP DUP2 ADD SWAP1 PUSH2 0xA07 SWAP2 SWAP1 PUSH2 0x208A JUMP JUMPDEST SWAP1 POP PUSH1 0x0 DUP1 SLOAD SWAP1 PUSH2 0x100 EXP SWAP1 DIV PUSH1 0x1 PUSH1 0x1 PUSH1 0xA0 SHL SUB AND PUSH1 0x1 PUSH1 0x1 PUSH1 0xA0 SHL SUB AND PUSH4 0xF1B371E2 PUSH1 0x40 MLOAD DUP2 PUSH4 0xFFFFFFFF AND PUSH1 0xE0 SHL DUP2 MSTORE PUSH1 0x4 ADD PUSH1 0x20 PUSH1 0x40 MLOAD DUP1 DUP4 SUB DUP2 DUP7 GAS STATICCALL ISZERO DUP1 ISZERO PUSH2 0xA5A JUMPI RETURNDATASIZE PUSH1 0x0 DUP1 RETURNDATACOPY RETURNDATASIZE PUSH1 0x0 REVERT JUMPDEST POP POP POP POP PUSH1 0x40 MLOAD RETURNDATASIZE PUSH1 0x1F NOT PUSH1 0x1F DUP3 ADD AND DUP3 ADD DUP1 PUSH1 0x40 MSTORE POP DUP2 ADD SWAP1 PUSH2 0xA7E SWAP2 SWAP1 PUSH2 0x208A JUMP JUMPDEST DUP6 EQ PUSH2 0xB7E JUMPI PUSH1 0x0 DUP1 SLOAD SWAP1 PUSH2 0x100 EXP SWAP1 DIV PUSH1 0x1 PUSH1 0x1 PUSH1 0xA0 SHL SUB AND PUSH1 0x1 PUSH1 0x1 PUSH1 0xA0 SHL SUB AND PUSH4 0x436091C1 PUSH1 0x40 MLOAD DUP2 PUSH4 0xFFFFFFFF AND PUSH1 0xE0 SHL DUP2 MSTORE PUSH1 0x4 ADD PUSH1 0x20 PUSH1 0x40 MLOAD DUP1 DUP4 SUB DUP2 DUP7 GAS STATICCALL ISZERO DUP1 ISZERO PUSH2 0xAD5 JUMPI RETURNDATASIZE PUSH1 0x0 DUP1 RETURNDATACOPY RETURNDATASIZE PUSH1 0x0 REVERT JUMPDEST POP POP POP POP PUSH1 0x40 MLOAD RETURNDATASIZE PUSH1 0x1F NOT PUSH1 0x1F DUP3 ADD AND DUP3 ADD DUP1 PUSH1 0x40 MSTORE POP DUP2 ADD SWAP1 PUSH2 0xAF9 SWAP2 SWAP1 PUSH2 0x208A JUMP JUMPDEST PUSH2 0xB04 SWAP1 PUSH1 0x1 PUSH2 0x20F2 JUMP JUMPDEST SWAP2 POP PUSH1 0x0 DUP1 SLOAD SWAP1 PUSH2 0x100 EXP SWAP1 DIV PUSH1 0x1 PUSH1 0x1 PUSH1 0xA0 SHL SUB AND PUSH1 0x1 PUSH1 0x1 PUSH1 0xA0 SHL SUB AND PUSH4 0xF1B371E2 PUSH1 0x40 MLOAD DUP2 PUSH4 0xFFFFFFFF AND PUSH1 0xE0 SHL DUP2 MSTORE PUSH1 0x4 ADD PUSH1 0x20 PUSH1 0x40 MLOAD DUP1 DUP4 SUB DUP2 DUP7 GAS STATICCALL ISZERO DUP1 ISZERO PUSH2 0xB57 JUMPI RETURNDATASIZE PUSH1 0x0 DUP1 RETURNDATACOPY RETURNDATASIZE PUSH1 0x0 REVERT JUMPDEST POP POP POP POP PUSH1 0x40 MLOAD RETURNDATASIZE PUSH1 0x1F NOT PUSH1 0x1F DUP3 ADD AND DUP3 ADD DUP1 PUSH1 0x40 MSTORE POP DUP2 ADD SWAP1 PUSH2 0xB7B SWAP2 SWAP1 PUSH2 0x208A JUMP JUMPDEST SWAP1 POP JUMPDEST DUP1 DUP6 GT DUP1 ISZERO PUSH2 0xC05 JUMPI POP PUSH1 0x0 SLOAD PUSH1 0x1 PUSH1 0x1 PUSH1 0xA0 SHL SUB AND PUSH4 0xBEBC9DFC PUSH2 0xBA4 DUP4 PUSH1 0x1 PUSH2 0x20F2 JUMP JUMPDEST PUSH1 0x40 MLOAD DUP3 PUSH4 0xFFFFFFFF AND PUSH1 0xE0 SHL DUP2 MSTORE PUSH1 0x4 ADD PUSH2 0xBC2 SWAP2 DUP2 MSTORE PUSH1 0x20 ADD SWAP1 JUMP JUMPDEST PUSH1 0x20 PUSH1 0x40 MLOAD DUP1 DUP4 SUB DUP2 DUP7 GAS STATICCALL ISZERO DUP1 ISZERO PUSH2 0xBDF JUMPI RETURNDATASIZE PUSH1 0x0 DUP1 RETURNDATACOPY RETURNDATASIZE PUSH1 0x0 REVERT JUMPDEST POP POP POP POP PUSH1 0x40 MLOAD RETURNDATASIZE PUSH1 0x1F NOT PUSH1 0x1F DUP3 ADD AND DUP3 ADD DUP1 PUSH1 0x40 MSTORE POP DUP2 ADD SWAP1 PUSH2 0xC03 SWAP2 SWAP1 PUSH2 0x208A JUMP JUMPDEST ISZERO JUMPDEST ISZERO PUSH2 0xE5A JUMPI PUSH1 0x0 DUP1 SLOAD PUSH1 0x40 MLOAD PUSH4 0xC4235AE9 PUSH1 0xE0 SHL DUP2 MSTORE PUSH1 0x4 DUP2 ADD DUP5 SWAP1 MSTORE PUSH1 0x1 PUSH1 0x1 PUSH1 0xA0 SHL SUB SWAP1 SWAP2 AND SWAP1 PUSH4 0xC4235AE9 SWAP1 PUSH1 0x24 ADD PUSH1 0x20 PUSH1 0x40 MLOAD DUP1 DUP4 SUB DUP2 DUP7 GAS STATICCALL ISZERO DUP1 ISZERO PUSH2 0xC54 JUMPI RETURNDATASIZE PUSH1 0x0 DUP1 RETURNDATACOPY RETURNDATASIZE PUSH1 0x0 REVERT JUMPDEST POP POP POP POP PUSH1 0x40 MLOAD RETURNDATASIZE PUSH1 0x1F NOT PUSH1 0x1F DUP3 ADD AND DUP3 ADD DUP1 PUSH1 0x40 MSTORE POP DUP2 ADD SWAP1 PUSH2 0xC78 SWAP2 SWAP1 PUSH2 0x208A JUMP JUMPDEST PUSH1 0x0 DUP1 SLOAD SWAP1 PUSH2 0x100 EXP SWAP1 DIV PUSH1 0x1 PUSH1 0x1 PUSH1 0xA0 SHL SUB AND PUSH1 0x1 PUSH1 0x1 PUSH1 0xA0 SHL SUB AND PUSH4 0xEF4CADC5 PUSH1 0x40 MLOAD DUP2 PUSH4 0xFFFFFFFF AND PUSH1 0xE0 SHL DUP2 MSTORE PUSH1 0x4 ADD PUSH1 0x20 PUSH1 0x40 MLOAD DUP1 DUP4 SUB DUP2 DUP7 GAS STATICCALL ISZERO DUP1 ISZERO PUSH2 0xCC9 JUMPI RETURNDATASIZE PUSH1 0x0 DUP1 RETURNDATACOPY RETURNDATASIZE PUSH1 0x0 REVERT JUMPDEST POP POP POP POP PUSH1 0x40 MLOAD RETURNDATASIZE PUSH1 0x1F NOT PUSH1 0x1F DUP3 ADD AND DUP3 ADD DUP1 PUSH1 0x40 MSTORE POP DUP2 ADD SWAP1 PUSH2 0xCED SWAP2 SWAP1 PUSH2 0x208A JUMP JUMPDEST PUSH1 0x0 SLOAD PUSH1 0x40 MLOAD PUSH4 0x3B38855 PUSH1 0xE2 SHL DUP2 MSTORE PUSH1 0x4 DUP2 ADD DUP7 SWAP1 MSTORE PUSH1 0x1 PUSH1 0x1 PUSH1 0xA0 SHL SUB SWAP1 SWAP2 AND SWAP1 PUSH4 0xECE2154 SWAP1 PUSH1 0x24 ADD PUSH1 0x20 PUSH1 0x40 MLOAD DUP1 DUP4 SUB DUP2 DUP7 GAS STATICCALL ISZERO DUP1 ISZERO PUSH2 0xD36 JUMPI RETURNDATASIZE PUSH1 0x0 DUP1 RETURNDATACOPY RETURNDATASIZE PUSH1 0x0 REVERT JUMPDEST POP POP POP POP PUSH1 0x40 MLOAD RETURNDATASIZE PUSH1 0x1F NOT PUSH1 0x1F DUP3 ADD AND DUP3 ADD DUP1 PUSH1 0x40 MSTORE POP DUP2 ADD SWAP1 PUSH2 0xD5A SWAP2 SWAP1 PUSH2 0x208A JUMP JUMPDEST PUSH2 0xD64 SWAP2 SWAP1 PUSH2 0x20B9 JUMP JUMPDEST PUSH2 0xD6E SWAP2 SWAP1 PUSH2 0x20D0 JUMP JUMPDEST PUSH1 0x0 SLOAD PUSH1 0x40 DUP1 MLOAD PUSH4 0x17D4202D PUSH1 0xE2 SHL DUP2 MSTORE SWAP1 MLOAD SWAP3 SWAP4 POP DUP4 SWAP3 PUSH1 0x1 PUSH1 0x1 PUSH1 0xA0 SHL SUB SWAP1 SWAP3 AND SWAP2 PUSH4 0xBEBC9DFC SWAP2 DUP4 SWAP2 PUSH4 0x5F5080B4 SWAP2 PUSH1 0x4 DUP1 DUP3 ADD SWAP3 PUSH1 0x20 SWAP3 SWAP1 SWAP2 SWAP1 DUP3 SWAP1 SUB ADD DUP2 DUP7 GAS STATICCALL ISZERO DUP1 ISZERO PUSH2 0xDC5 JUMPI RETURNDATASIZE PUSH1 0x0 DUP1 RETURNDATACOPY RETURNDATASIZE PUSH1 0x0 REVERT JUMPDEST POP POP POP POP PUSH1 0x40 MLOAD RETURNDATASIZE PUSH1 0x1F NOT PUSH1 0x1F DUP3 ADD AND DUP3 ADD DUP1 PUSH1 0x40 MSTORE POP DUP2 ADD SWAP1 PUSH2 0xDE9 SWAP2 SWAP1 PUSH2 0x208A JUMP JUMPDEST PUSH1 0x40 MLOAD DUP3 PUSH4 0xFFFFFFFF AND PUSH1 0xE0 SHL DUP2 MSTORE PUSH1 0x4 ADD PUSH2 0xE07 SWAP2 DUP2 MSTORE PUSH1 0x20 ADD SWAP1 JUMP JUMPDEST PUSH1 0x20 PUSH1 0x40 MLOAD DUP1 DUP4 SUB DUP2 DUP7 GAS STATICCALL ISZERO DUP1 ISZERO PUSH2 0xE24 JUMPI RETURNDATASIZE PUSH1 0x0 DUP1 RETURNDATACOPY RETURNDATASIZE PUSH1 0x0 REVERT JUMPDEST POP POP POP POP PUSH1 0x40 MLOAD RETURNDATASIZE PUSH1 0x1F NOT PUSH1 0x1F DUP3 ADD AND DUP3 ADD DUP1 PUSH1 0x40 MSTORE POP DUP2 ADD SWAP1 PUSH2 0xE48 SWAP2 SWAP1 PUSH2 0x208A JUMP JUMPDEST PUSH2 0xE52 SWAP2 SWAP1 PUSH2 0x20F2 JUMP JUMPDEST SWAP4 POP POP PUSH2 0xF32 JUMP JUMPDEST PUSH1 0x0 SLOAD PUSH1 0x40 DUP1 MLOAD PUSH4 0x17D4202D PUSH1 0xE2 SHL DUP2 MSTORE SWAP1 MLOAD PUSH1 0x1 PUSH1 0x1 PUSH1 0xA0 SHL SUB SWAP1 SWAP3 AND SWAP2 PUSH4 0xBEBC9DFC SWAP2 DUP4 SWAP2 PUSH4 0x5F5080B4 SWAP2 PUSH1 0x4 DUP1 DUP3 ADD SWAP3 PUSH1 0x20 SWAP3 SWAP1 SWAP2 SWAP1 DUP3 SWAP1 SUB ADD DUP2 DUP7 GAS STATICCALL ISZERO DUP1 ISZERO PUSH2 0xEAC JUMPI RETURNDATASIZE PUSH1 0x0 DUP1 RETURNDATACOPY RETURNDATASIZE PUSH1 0x0 REVERT JUMPDEST POP POP POP POP PUSH1 0x40 MLOAD RETURNDATASIZE PUSH1 0x1F NOT PUSH1 0x1F DUP3 ADD AND DUP3 ADD DUP1 PUSH1 0x40 MSTORE POP DUP2 ADD SWAP1 PUSH2 0xED0 SWAP2 SWAP1 PUSH2 0x208A JUMP JUMPDEST PUSH1 0x40 MLOAD DUP3 PUSH4 0xFFFFFFFF AND PUSH1 0xE0 SHL DUP2 MSTORE PUSH1 0x4 ADD PUSH2 0xEEE SWAP2 DUP2 MSTORE PUSH1 0x20 ADD SWAP1 JUMP JUMPDEST PUSH1 0x20 PUSH1 0x40 MLOAD DUP1 DUP4 SUB DUP2 DUP7 GAS STATICCALL ISZERO DUP1 ISZERO PUSH2 0xF0B JUMPI RETURNDATASIZE PUSH1 0x0 DUP1 RETURNDATACOPY RETURNDATASIZE PUSH1 0x0 REVERT JUMPDEST POP POP POP POP PUSH1 0x40 MLOAD RETURNDATASIZE PUSH1 0x1F NOT PUSH1 0x1F DUP3 ADD AND DUP3 ADD DUP1 PUSH1 0x40 MSTORE POP DUP2 ADD SWAP1 PUSH2 0xF2F SWAP2 SWAP1 PUSH2 0x208A JUMP JUMPDEST SWAP3 POP JUMPDEST PUSH1 0x0 PUSH2 0xF3D DUP9 PUSH2 0x110 JUMP JUMPDEST SWAP1 POP DUP2 DUP7 GT DUP1 ISZERO PUSH2 0xFC5 JUMPI POP PUSH2 0xF54 DUP3 PUSH1 0x1 PUSH2 0x20F2 JUMP JUMPDEST PUSH1 0x0 SLOAD PUSH1 0x40 MLOAD PUSH4 0xA707140B PUSH1 0xE0 SHL DUP2 MSTORE PUSH1 0x1 PUSH1 0x1 PUSH1 0xA0 SHL SUB DUP12 DUP2 AND PUSH1 0x4 DUP4 ADD MSTORE SWAP1 SWAP2 AND SWAP1 PUSH4 0xA707140B SWAP1 PUSH1 0x24 ADD PUSH1 0x20 PUSH1 0x40 MLOAD DUP1 DUP4 SUB DUP2 DUP7 GAS STATICCALL ISZERO DUP1 ISZERO PUSH2 0xF9E JUMPI RETURNDATASIZE PUSH1 0x0 DUP1 RETURNDATACOPY RETURNDATASIZE PUSH1 0x0 REVERT JUMPDEST POP POP POP POP PUSH1 0x40 MLOAD RETURNDATASIZE PUSH1 0x1F NOT PUSH1 0x1F DUP3 ADD AND DUP3 ADD DUP1 PUSH1 0x40 MSTORE POP DUP2 ADD SWAP1 PUSH2 0xFC2 SWAP2 SWAP1 PUSH2 0x208A JUMP JUMPDEST EQ ISZERO JUMPDEST ISZERO PUSH2 0x113F JUMPI PUSH1 0x0 DUP1 SLOAD SWAP1 PUSH2 0x100 EXP SWAP1 DIV PUSH1 0x1 PUSH1 0x1 PUSH1 0xA0 SHL SUB AND PUSH1 0x1 PUSH1 0x1 PUSH1 0xA0 SHL SUB AND PUSH4 0xEF4CADC5 PUSH1 0x40 MLOAD DUP2 PUSH4 0xFFFFFFFF AND PUSH1 0xE0 SHL DUP2 MSTORE PUSH1 0x4 ADD PUSH1 0x20 PUSH1 0x40 MLOAD DUP1 DUP4 SUB DUP2 DUP7 GAS STATICCALL ISZERO DUP1 ISZERO PUSH2 0x101B JUMPI RETURNDATASIZE PUSH1 0x0 DUP1 RETURNDATACOPY RETURNDATASIZE PUSH1 0x0 REVERT JUMPDEST POP POP POP POP PUSH1 0x40 MLOAD RETURNDATASIZE PUSH1 0x1F NOT PUSH1 0x1F DUP3 ADD AND DUP3 ADD DUP1 PUSH1 0x40 MSTORE POP DUP2 ADD SWAP1 PUSH2 0x103F SWAP2 SWAP1 PUSH2 0x208A JUMP JUMPDEST PUSH1 0x0 SLOAD PUSH1 0x40 MLOAD PUSH4 0xA707140B PUSH1 0xE0 SHL DUP2 MSTORE PUSH1 0x1 PUSH1 0x1 PUSH1 0xA0 SHL SUB DUP12 DUP2 AND PUSH1 0x4 DUP4 ADD MSTORE SWAP1 SWAP2 AND SWAP1 PUSH4 0xBEBC9DFC SWAP1 DUP3 SWAP1 PUSH4 0xA707140B SWAP1 PUSH1 0x24 ADD PUSH1 0x20 PUSH1 0x40 MLOAD DUP1 DUP4 SUB DUP2 DUP7 GAS STATICCALL ISZERO DUP1 ISZERO PUSH2 0x1091 JUMPI RETURNDATASIZE PUSH1 0x0 DUP1 RETURNDATACOPY RETURNDATASIZE PUSH1 0x0 REVERT JUMPDEST POP POP POP POP PUSH1 0x40 MLOAD RETURNDATASIZE PUSH1 0x1F NOT PUSH1 0x1F DUP3 ADD AND DUP3 ADD DUP1 PUSH1 0x40 MSTORE POP DUP2 ADD SWAP1 PUSH2 0x10B5 SWAP2 SWAP1 PUSH2 0x208A JUMP JUMPDEST PUSH1 0x40 MLOAD DUP3 PUSH4 0xFFFFFFFF AND PUSH1 0xE0 SHL DUP2 MSTORE PUSH1 0x4 ADD PUSH2 0x10D3 SWAP2 DUP2 MSTORE PUSH1 0x20 ADD SWAP1 JUMP JUMPDEST PUSH1 0x20 PUSH1 0x40 MLOAD DUP1 DUP4 SUB DUP2 DUP7 GAS STATICCALL ISZERO DUP1 ISZERO PUSH2 0x10F0 JUMPI RETURNDATASIZE PUSH1 0x0 DUP1 RETURNDATACOPY RETURNDATASIZE PUSH1 0x0 REVERT JUMPDEST POP POP POP POP PUSH1 0x40 MLOAD RETURNDATASIZE PUSH1 0x1F NOT PUSH1 0x1F DUP3 ADD AND DUP3 ADD DUP1 PUSH1 0x40 MSTORE POP DUP2 ADD SWAP1 PUSH2 0x1114 SWAP2 SWAP1 PUSH2 0x208A JUMP JUMPDEST PUSH2 0x111E SWAP1 DUP7 PUSH2 0x2105 JUMP JUMPDEST PUSH2 0x1128 SWAP1 DUP4 PUSH2 0x20B9 JUMP JUMPDEST PUSH2 0x1132 SWAP2 SWAP1 PUSH2 0x20D0 JUMP JUMPDEST PUSH2 0x113C SWAP1 DUP7 PUSH2 0x20F2 JUMP JUMPDEST SWAP5 POP JUMPDEST PUSH1 0x0 SLOAD PUSH1 0x40 MLOAD PUSH4 0x39832431 PUSH1 0xE2 SHL DUP2 MSTORE PUSH1 0x1 PUSH1 0x1 PUSH1 0xA0 SHL SUB DUP11 DUP2 AND PUSH1 0x4 DUP4 ADD MSTORE SWAP1 SWAP2 AND SWAP1 PUSH4 0xE60C90C4 SWAP1 PUSH1 0x24 ADD PUSH1 0x20 PUSH1 0x40 MLOAD DUP1 DUP4 SUB DUP2 DUP7 GAS STATICCALL ISZERO DUP1 ISZERO PUSH2 0x1189 JUMPI RETURNDATASIZE PUSH1 0x0 DUP1 RETURNDATACOPY RETURNDATASIZE PUSH1 0x0 REVERT JUMPDEST POP POP POP POP PUSH1 0x40 MLOAD RETURNDATASIZE PUSH1 0x1F NOT PUSH1 0x1F DUP3 ADD AND DUP3 ADD DUP1 PUSH1 0x40 MSTORE POP DUP2 ADD SWAP1 PUSH2 0x11AD SWAP2 SWAP1 PUSH2 0x208A JUMP JUMPDEST ISZERO DUP1 ISZERO SWAP1 PUSH2 0x1231 JUMPI POP PUSH1 0x0 SLOAD PUSH1 0x40 MLOAD PUSH4 0x39832431 PUSH1 0xE2 SHL DUP2 MSTORE PUSH1 0x1 PUSH1 0x1 PUSH1 0xA0 SHL SUB DUP11 DUP2 AND PUSH1 0x4 DUP4 ADD MSTORE PUSH1 0x1 SWAP3 AND SWAP1 PUSH4 0xE60C90C4 SWAP1 PUSH1 0x24 ADD PUSH1 0x20 PUSH1 0x40 MLOAD DUP1 DUP4 SUB DUP2 DUP7 GAS STATICCALL ISZERO DUP1 ISZERO PUSH2 0x1201 JUMPI RETURNDATASIZE PUSH1 0x0 DUP1 RETURNDATACOPY RETURNDATASIZE PUSH1 0x0 REVERT JUMPDEST POP POP POP POP PUSH1 0x40 MLOAD RETURNDATASIZE PUSH1 0x1F NOT PUSH1 0x1F DUP3 ADD AND DUP3 ADD DUP1 PUSH1 0x40 MSTORE POP DUP2 ADD SWAP1 PUSH2 0x1225 SWAP2 SWAP1 PUSH2 0x208A JUMP JUMPDEST PUSH2 0x122F SWAP1 DUP9 PUSH2 0x2105 JUMP JUMPDEST GT JUMPDEST ISZERO PUSH2 0x17E0 JUMPI PUSH1 0x0 DUP1 SLOAD SWAP1 PUSH2 0x100 EXP SWAP1 DIV PUSH1 0x1 PUSH1 0x1 PUSH1 0xA0 SHL SUB AND PUSH1 0x1 PUSH1 0x1 PUSH1 0xA0 SHL SUB AND PUSH4 0xEF4CADC5 PUSH1 0x40 MLOAD DUP2 PUSH4 0xFFFFFFFF AND PUSH1 0xE0 SHL DUP2 MSTORE PUSH1 0x4 ADD PUSH1 0x20 PUSH1 0x40 MLOAD DUP1 DUP4 SUB DUP2 DUP7 GAS STATICCALL ISZERO DUP1 ISZERO PUSH2 0x1287 JUMPI RETURNDATASIZE PUSH1 0x0 DUP1 RETURNDATACOPY RETURNDATASIZE PUSH1 0x0 REVERT JUMPDEST POP POP POP POP PUSH1 0x40 MLOAD RETURNDATASIZE PUSH1 0x1F NOT PUSH1 0x1F DUP3 ADD AND DUP3 ADD DUP1 PUSH1 0x40 MSTORE POP DUP2 ADD SWAP1 PUSH2 0x12AB SWAP2 SWAP1 PUSH2 0x208A JUMP JUMPDEST PUSH1 0x0 SLOAD PUSH1 0x40 MLOAD PUSH4 0x39832431 PUSH1 0xE2 SHL DUP2 MSTORE PUSH1 0x1 PUSH1 0x1 PUSH1 0xA0 SHL SUB DUP12 DUP2 AND PUSH1 0x4 DUP4 ADD MSTORE SWAP1 SWAP2 AND SWAP1 PUSH4 0xBEBC9DFC SWAP1 DUP3 SWAP1 PUSH4 0xE60C90C4 SWAP1 PUSH1 0x24 ADD PUSH1 0x20 PUSH1 0x40 MLOAD DUP1 DUP4 SUB DUP2 DUP7 GAS STATICCALL ISZERO DUP1 ISZERO PUSH2 0x12FD JUMPI RETURNDATASIZE PUSH1 0x0 DUP1 RETURNDATACOPY RETURNDATASIZE PUSH1 0x0 REVERT JUMPDEST POP POP POP POP PUSH1 0x40 MLOAD RETURNDATASIZE PUSH1 0x1F NOT PUSH1 0x1F DUP3 ADD AND DUP3 ADD DUP1 PUSH1 0x40 MSTORE POP DUP2 ADD SWAP1 PUSH2 0x1321 SWAP2 SWAP1 PUSH2 0x208A JUMP JUMPDEST PUSH1 0x40 MLOAD DUP3 PUSH4 0xFFFFFFFF AND PUSH1 0xE0 SHL DUP2 MSTORE PUSH1 0x4 ADD PUSH2 0x133F SWAP2 DUP2 MSTORE PUSH1 0x20 ADD SWAP1 JUMP JUMPDEST PUSH1 0x20 PUSH1 0x40 MLOAD DUP1 DUP4 SUB DUP2 DUP7 GAS STATICCALL ISZERO DUP1 ISZERO PUSH2 0x135C JUMPI RETURNDATASIZE PUSH1 0x0 DUP1 RETURNDATACOPY RETURNDATASIZE PUSH1 0x0 REVERT JUMPDEST POP POP POP POP PUSH1 0x40 MLOAD RETURNDATASIZE PUSH1 0x1F NOT PUSH1 0x1F DUP3 ADD AND DUP3 ADD DUP1 PUSH1 0x40 MSTORE POP DUP2 ADD SWAP1 PUSH2 0x1380 SWAP2 SWAP1 PUSH2 0x208A JUMP JUMPDEST PUSH2 0x138A SWAP1 DUP7 PUSH2 0x2105 JUMP JUMPDEST PUSH1 0x0 SLOAD PUSH1 0x40 MLOAD PUSH4 0x39832431 PUSH1 0xE2 SHL DUP2 MSTORE PUSH1 0x1 PUSH1 0x1 PUSH1 0xA0 SHL SUB DUP13 DUP2 AND PUSH1 0x4 DUP4 ADD MSTORE SWAP1 SWAP2 AND SWAP1 PUSH4 0xAABBB1BD SWAP1 DUP13 SWAP1 DUP4 SWAP1 PUSH4 0xE60C90C4 SWAP1 PUSH1 0x24 ADD PUSH1 0x20 PUSH1 0x40 MLOAD DUP1 DUP4 SUB DUP2 DUP7 GAS STATICCALL ISZERO DUP1 ISZERO PUSH2 0x13DE JUMPI RETURNDATASIZE PUSH1 0x0 DUP1 RETURNDATACOPY RETURNDATASIZE PUSH1 0x0 REVERT JUMPDEST POP POP POP POP PUSH1 0x40 MLOAD RETURNDATASIZE PUSH1 0x1F NOT PUSH1 0x1F DUP3 ADD AND DUP3 ADD DUP1 PUSH1 0x40 MSTORE POP DUP2 ADD SWAP1 PUSH2 0x1402 SWAP2 SWAP1 PUSH2 0x208A JUMP JUMPDEST PUSH1 0x40 MLOAD PUSH1 0x1 PUSH1 0x1 PUSH1 0xE0 SHL SUB NOT PUSH1 0xE0 DUP6 SWAP1 SHL AND DUP2 MSTORE PUSH1 0x1 PUSH1 0x1 PUSH1 0xA0 SHL SUB SWAP1 SWAP3 AND PUSH1 0x4 DUP4 ADD MSTORE PUSH1 0x24 DUP3 ADD MSTORE PUSH1 0x44 ADD PUSH1 0x20 PUSH1 0x40 MLOAD DUP1 DUP4 SUB DUP2 DUP7 GAS STATICCALL ISZERO DUP1 ISZERO PUSH2 0x144B JUMPI RETURNDATASIZE PUSH1 0x0 DUP1 RETURNDATACOPY RETURNDATASIZE PUSH1 0x0 REVERT JUMPDEST POP POP POP POP PUSH1 0x40 MLOAD RETURNDATASIZE PUSH1 0x1F NOT PUSH1 0x1F DUP3 ADD AND DUP3 ADD DUP1 PUSH1 0x40 MSTORE POP DUP2 ADD SWAP1 PUSH2 0x146F SWAP2 SWAP1 PUSH2 0x208A JUMP JUMPDEST PUSH2 0x1479 SWAP2 SWAP1 PUSH2 0x20B9 JUMP JUMPDEST PUSH2 0x1483 SWAP2 SWAP1 PUSH2 0x20D0 JUMP JUMPDEST PUSH2 0x148D SWAP1 DUP7 PUSH2 0x20F2 JUMP JUMPDEST PUSH1 0x0 SLOAD PUSH1 0x40 MLOAD PUSH4 0x36E028A3 PUSH1 0xE2 SHL DUP2 MSTORE PUSH1 0x1 PUSH1 0x1 PUSH1 0xA0 SHL SUB DUP12 DUP2 AND PUSH1 0x4 DUP4 ADD MSTORE SWAP3 SWAP8 POP SWAP2 AND SWAP1 PUSH4 0xDB80A28C SWAP1 PUSH1 0x24 ADD PUSH1 0x20 PUSH1 0x40 MLOAD DUP1 DUP4 SUB DUP2 DUP7 GAS STATICCALL ISZERO DUP1 ISZERO PUSH2 0x14D9 JUMPI RETURNDATASIZE PUSH1 0x0 DUP1 RETURNDATACOPY RETURNDATASIZE PUSH1 0x0 REVERT JUMPDEST POP POP POP POP PUSH1 0x40 MLOAD RETURNDATASIZE PUSH1 0x1F NOT PUSH1 0x1F DUP3 ADD AND DUP3 ADD DUP1 PUSH1 0x40 MSTORE POP DUP2 ADD SWAP1 PUSH2 0x14FD SWAP2 SWAP1 PUSH2 0x208A JUMP JUMPDEST ISZERO DUP1 ISZERO SWAP1 PUSH2 0x1581 JUMPI POP PUSH1 0x0 SLOAD PUSH1 0x40 MLOAD PUSH4 0x36E028A3 PUSH1 0xE2 SHL DUP2 MSTORE PUSH1 0x1 PUSH1 0x1 PUSH1 0xA0 SHL SUB DUP11 DUP2 AND PUSH1 0x4 DUP4 ADD MSTORE PUSH1 0x1 SWAP3 AND SWAP1 PUSH4 0xDB80A28C SWAP1 PUSH1 0x24 ADD PUSH1 0x20 PUSH1 0x40 MLOAD DUP1 DUP4 SUB DUP2 DUP7 GAS STATICCALL ISZERO DUP1 ISZERO PUSH2 0x1551 JUMPI RETURNDATASIZE PUSH1 0x0 DUP1 RETURNDATACOPY RETURNDATASIZE PUSH1 0x0 REVERT JUMPDEST POP POP POP POP PUSH1 0x40 MLOAD RETURNDATASIZE PUSH1 0x1F NOT PUSH1 0x1F DUP3 ADD AND DUP3 ADD DUP1 PUSH1 0x40 MSTORE POP DUP2 ADD SWAP1 PUSH2 0x1575 SWAP2 SWAP1 PUSH2 0x208A JUMP JUMPDEST PUSH2 0x157F SWAP1 DUP9 PUSH2 0x2105 JUMP JUMPDEST GT JUMPDEST ISZERO PUSH2 0x17E0 JUMPI PUSH1 0x0 DUP1 SLOAD SWAP1 PUSH2 0x100 EXP SWAP1 DIV PUSH1 0x1 PUSH1 0x1 PUSH1 0xA0 SHL SUB AND PUSH1 0x1 PUSH1 0x1 PUSH1 0xA0 SHL SUB AND PUSH4 0xEF4CADC5 PUSH1 0x40 MLOAD DUP2 PUSH4 0xFFFFFFFF AND PUSH1 0xE0 SHL DUP2 MSTORE PUSH1 0x4 ADD PUSH1 0x20 PUSH1 0x40 MLOAD DUP1 DUP4 SUB DUP2 DUP7 GAS STATICCALL ISZERO DUP1 ISZERO PUSH2 0x15D7 JUMPI RETURNDATASIZE PUSH1 0x0 DUP1 RETURNDATACOPY RETURNDATASIZE PUSH1 0x0 REVERT JUMPDEST POP POP POP POP PUSH1 0x40 MLOAD RETURNDATASIZE PUSH1 0x1F NOT PUSH1 0x1F DUP3 ADD AND DUP3 ADD DUP1 PUSH1 0x40 MSTORE POP DUP2 ADD SWAP1 PUSH2 0x15FB SWAP2 SWAP1 PUSH2 0x208A JUMP JUMPDEST PUSH1 0x0 SLOAD PUSH1 0x40 MLOAD PUSH4 0x36E028A3 PUSH1 0xE2 SHL DUP2 MSTORE PUSH1 0x1 PUSH1 0x1 PUSH1 0xA0 SHL SUB DUP12 DUP2 AND PUSH1 0x4 DUP4 ADD MSTORE SWAP1 SWAP2 AND SWAP1 PUSH4 0xBEBC9DFC SWAP1 DUP3 SWAP1 PUSH4 0xDB80A28C SWAP1 PUSH1 0x24 ADD PUSH1 0x20 PUSH1 0x40 MLOAD DUP1 DUP4 SUB DUP2 DUP7 GAS STATICCALL ISZERO DUP1 ISZERO PUSH2 0x164D JUMPI RETURNDATASIZE PUSH1 0x0 DUP1 RETURNDATACOPY RETURNDATASIZE PUSH1 0x0 REVERT JUMPDEST POP POP POP POP PUSH1 0x40 MLOAD RETURNDATASIZE PUSH1 0x1F NOT PUSH1 0x1F DUP3 ADD AND DUP3 ADD DUP1 PUSH1 0x40 MSTORE POP DUP2 ADD SWAP1 PUSH2 0x1671 SWAP2 SWAP1 PUSH2 0x208A JUMP JUMPDEST PUSH1 0x40 MLOAD DUP3 PUSH4 0xFFFFFFFF AND PUSH1 0xE0 SHL DUP2 MSTORE PUSH1 0x4 ADD PUSH2 0x168F SWAP2 DUP2 MSTORE PUSH1 0x20 ADD SWAP1 JUMP JUMPDEST PUSH1 0x20 PUSH1 0x40 MLOAD DUP1 DUP4 SUB DUP2 DUP7 GAS STATICCALL ISZERO DUP1 ISZERO PUSH2 0x16AC JUMPI RETURNDATASIZE PUSH1 0x0 DUP1 RETURNDATACOPY RETURNDATASIZE PUSH1 0x0 REVERT JUMPDEST POP POP POP POP PUSH1 0x40 MLOAD RETURNDATASIZE PUSH1 0x1F NOT PUSH1 0x1F DUP3 ADD AND DUP3 ADD DUP1 PUSH1 0x40 MSTORE POP DUP2 ADD SWAP1 PUSH2 0x16D0 SWAP2 SWAP1 PUSH2 0x208A JUMP JUMPDEST PUSH2 0x16DA SWAP1 DUP7 PUSH2 0x2105 JUMP JUMPDEST PUSH1 0x0 SLOAD PUSH1 0x40 MLOAD PUSH4 0x36E028A3 PUSH1 0xE2 SHL DUP2 MSTORE PUSH1 0x1 PUSH1 0x1 PUSH1 0xA0 SHL SUB DUP13 DUP2 AND PUSH1 0x4 DUP4 ADD MSTORE SWAP1 SWAP2 AND SWAP1 PUSH4 0xAABBB1BD SWAP1 DUP13 SWAP1 DUP4 SWAP1 PUSH4 0xDB80A28C SWAP1 PUSH1 0x24 ADD PUSH1 0x20 PUSH1 0x40 MLOAD DUP1 DUP4 SUB DUP2 DUP7 GAS STATICCALL ISZERO DUP1 ISZERO PUSH2 0x172E JUMPI RETURNDATASIZE PUSH1 0x0 DUP1 RETURNDATACOPY RETURNDATASIZE PUSH1 0x0 REVERT JUMPDEST POP POP POP POP PUSH1 0x40 MLOAD RETURNDATASIZE PUSH1 0x1F NOT PUSH1 0x1F DUP3 ADD AND DUP3 ADD DUP1 PUSH1 0x40 MSTORE POP DUP2 ADD SWAP1 PUSH2 0x1752 SWAP2 SWAP1 PUSH2 0x208A JUMP JUMPDEST PUSH1 0x40 MLOAD PUSH1 0x1 PUSH1 0x1 PUSH1 0xE0 SHL SUB NOT PUSH1 0xE0 DUP6 SWAP1 SHL AND DUP2 MSTORE PUSH1 0x1 PUSH1 0x1 PUSH1 0xA0 SHL SUB SWAP1 SWAP3 AND PUSH1 0x4 DUP4 ADD MSTORE PUSH1 0x24 DUP3 ADD MSTORE PUSH1 0x44 ADD PUSH1 0x20 PUSH1 0x40 MLOAD DUP1 DUP4 SUB DUP2 DUP7 GAS STATICCALL ISZERO DUP1 ISZERO PUSH2 0x179B JUMPI RETURNDATASIZE PUSH1 0x0 DUP1 RETURNDATACOPY RETURNDATASIZE PUSH1 0x0 REVERT JUMPDEST POP POP POP POP PUSH1 0x40 MLOAD RETURNDATASIZE PUSH1 0x1F NOT PUSH1 0x1F DUP3 ADD AND DUP3 ADD DUP1 PUSH1 0x40 MSTORE POP DUP2 ADD SWAP1 PUSH2 0x17BF SWAP2 SWAP1 PUSH2 0x208A JUMP JUMPDEST PUSH2 0x17C9 SWAP2 SWAP1 PUSH2 0x20B9 JUMP JUMPDEST PUSH2 0x17D3 SWAP2 SWAP1 PUSH2 0x20D0 JUMP JUMPDEST PUSH2 0x17DD SWAP1 DUP7 PUSH2 0x20F2 JUMP JUMPDEST SWAP5 POP JUMPDEST POP SWAP3 SWAP7 SWAP6 POP POP POP POP POP POP JUMP JUMPDEST PUSH1 0x0 DUP1 SLOAD PUSH1 0x40 DUP1 MLOAD PUSH4 0xBE26ED7F PUSH1 0xE0 SHL DUP2 MSTORE SWAP1 MLOAD DUP4 SWAP3 PUSH1 0x1 PUSH1 0x1 PUSH1 0xA0 SHL SUB AND SWAP2 PUSH4 0xBE26ED7F SWAP2 PUSH1 0x4 DUP1 DUP4 ADD SWAP3 PUSH1 0x20 SWAP3 SWAP2 SWAP1 DUP3 SWAP1 SUB ADD DUP2 DUP7 GAS STATICCALL ISZERO DUP1 ISZERO PUSH2 0x1836 JUMPI RETURNDATASIZE PUSH1 0x0 DUP1 RETURNDATACOPY RETURNDATASIZE PUSH1 0x0 REVERT JUMPDEST POP POP POP POP PUSH1 0x40 MLOAD RETURNDATASIZE PUSH1 0x1F NOT PUSH1 0x1F DUP3 ADD AND DUP3 ADD DUP1 PUSH1 0x40 MSTORE POP DUP2 ADD SWAP1 PUSH2 0x185A SWAP2 SWAP1 PUSH2 0x208A JUMP JUMPDEST PUSH1 0x0 DUP1 SLOAD PUSH1 0x40 MLOAD PUSH4 0x39832431 PUSH1 0xE2 SHL DUP2 MSTORE PUSH1 0x1 PUSH1 0x1 PUSH1 0xA0 SHL SUB DUP8 DUP2 AND PUSH1 0x4 DUP4 ADD MSTORE SWAP4 SWAP5 POP SWAP2 SWAP3 AND SWAP1 PUSH4 0xE60C90C4 SWAP1 PUSH1 0x24 ADD PUSH1 0x20 PUSH1 0x40 MLOAD DUP1 DUP4 SUB DUP2 DUP7 GAS STATICCALL ISZERO DUP1 ISZERO PUSH2 0x18A8 JUMPI RETURNDATASIZE PUSH1 0x0 DUP1 RETURNDATACOPY RETURNDATASIZE PUSH1 0x0 REVERT JUMPDEST POP POP POP POP PUSH1 0x40 MLOAD RETURNDATASIZE PUSH1 0x1F NOT PUSH1 0x1F DUP3 ADD AND DUP3 ADD DUP1 PUSH1 0x40 MSTORE POP DUP2 ADD SWAP1 PUSH2 0x18CC SWAP2 SWAP1 PUSH2 0x208A JUMP JUMPDEST ISZERO DUP1 ISZERO SWAP1 PUSH2 0x19C6 JUMPI POP PUSH1 0x0 DUP1 SLOAD PUSH1 0x40 MLOAD PUSH4 0x39832431 PUSH1 0xE2 SHL DUP2 MSTORE PUSH1 0x1 PUSH1 0x1 PUSH1 0xA0 SHL SUB DUP8 DUP2 AND PUSH1 0x4 DUP4 ADD MSTORE SWAP1 SWAP2 AND SWAP1 PUSH4 0xE60C90C4 SWAP1 PUSH1 0x24 ADD PUSH1 0x20 PUSH1 0x40 MLOAD DUP1 DUP4 SUB DUP2 DUP7 GAS STATICCALL ISZERO DUP1 ISZERO PUSH2 0x1920 JUMPI RETURNDATASIZE PUSH1 0x0 DUP1 RETURNDATACOPY RETURNDATASIZE PUSH1 0x0 REVERT JUMPDEST POP POP POP POP PUSH1 0x40 MLOAD RETURNDATASIZE PUSH1 0x1F NOT PUSH1 0x1F DUP3 ADD AND DUP3 ADD DUP1 PUSH1 0x40 MSTORE POP DUP2 ADD SWAP1 PUSH2 0x1944 SWAP2 SWAP1 PUSH2 0x208A JUMP JUMPDEST PUSH1 0x0 DUP1 SLOAD SWAP1 PUSH2 0x100 EXP SWAP1 DIV PUSH1 0x1 PUSH1 0x1 PUSH1 0xA0 SHL SUB AND PUSH1 0x1 PUSH1 0x1 PUSH1 0xA0 SHL SUB AND PUSH4 0xBAB2F552 PUSH1 0x40 MLOAD DUP2 PUSH4 0xFFFFFFFF AND PUSH1 0xE0 SHL DUP2 MSTORE PUSH1 0x4 ADD PUSH1 0x20 PUSH1 0x40 MLOAD DUP1 DUP4 SUB DUP2 DUP7 GAS STATICCALL ISZERO DUP1 ISZERO PUSH2 0x1995 JUMPI RETURNDATASIZE PUSH1 0x0 DUP1 RETURNDATACOPY RETURNDATASIZE PUSH1 0x0 REVERT JUMPDEST POP POP POP POP PUSH1 0x40 MLOAD RETURNDATASIZE PUSH1 0x1F NOT PUSH1 0x1F DUP3 ADD AND DUP3 ADD DUP1 PUSH1 0x40 MSTORE POP DUP2 ADD SWAP1 PUSH2 0x19B9 SWAP2 SWAP1 PUSH2 0x208A JUMP JUMPDEST PUSH2 0x19C3 SWAP2 SWAP1 PUSH2 0x2105 JUMP JUMPDEST LT ISZERO JUMPDEST DUP1 ISZERO PUSH2 0x1A3B JUMPI POP PUSH1 0x0 SLOAD PUSH1 0x40 MLOAD PUSH4 0x7BA00615 PUSH1 0xE1 SHL DUP2 MSTORE PUSH1 0x1 PUSH1 0x1 PUSH1 0xA0 SHL SUB DUP7 DUP2 AND PUSH1 0x4 DUP4 ADD MSTORE SWAP1 SWAP2 AND SWAP1 PUSH4 0xF7400C2A SWAP1 PUSH1 0x24 ADD PUSH1 0x20 PUSH1 0x40 MLOAD DUP1 DUP4 SUB DUP2 DUP7 GAS STATICCALL ISZERO DUP1 ISZERO PUSH2 0x1A17 JUMPI RETURNDATASIZE PUSH1 0x0 DUP1 RETURNDATACOPY RETURNDATASIZE PUSH1 0x0 REVERT JUMPDEST POP POP POP POP PUSH1 0x40 MLOAD RETURNDATASIZE PUSH1 0x1F NOT PUSH1 0x1F DUP3 ADD AND DUP3 ADD DUP1 PUSH1 0x40 MSTORE POP DUP2 ADD SWAP1 PUSH2 0x1A3B SWAP2 SWAP1 PUSH2 0x21DB JUMP JUMPDEST ISZERO PUSH2 0x1B36 JUMPI PUSH1 0x0 SLOAD PUSH1 0x40 MLOAD PUSH4 0x39832431 PUSH1 0xE2 SHL DUP2 MSTORE PUSH1 0x1 PUSH1 0x1 PUSH1 0xA0 SHL SUB DUP7 DUP2 AND PUSH1 0x4 DUP4 ADD MSTORE SWAP1 SWAP2 AND SWAP1 PUSH4 0xAABBB1BD SWAP1 DUP7 SWAP1 DUP4 SWAP1 PUSH4 0xE60C90C4 SWAP1 PUSH1 0x24 ADD PUSH1 0x20 PUSH1 0x40 MLOAD DUP1 DUP4 SUB DUP2 DUP7 GAS STATICCALL ISZERO DUP1 ISZERO PUSH2 0x1A94 JUMPI RETURNDATASIZE PUSH1 0x0 DUP1 RETURNDATACOPY RETURNDATASIZE PUSH1 0x0 REVERT JUMPDEST POP POP POP POP PUSH1 0x40 MLOAD RETURNDATASIZE PUSH1 0x1F NOT PUSH1 0x1F DUP3 ADD AND DUP3 ADD DUP1 PUSH1 0x40 MSTORE POP DUP2 ADD SWAP1 PUSH2 0x1AB8 SWAP2 SWAP1 PUSH2 0x208A JUMP JUMPDEST PUSH1 0x40 MLOAD PUSH1 0x1 PUSH1 0x1 PUSH1 0xE0 SHL SUB NOT PUSH1 0xE0 DUP6 SWAP1 SHL AND DUP2 MSTORE PUSH1 0x1 PUSH1 0x1 PUSH1 0xA0 SHL SUB SWAP1 SWAP3 AND PUSH1 0x4 DUP4 ADD MSTORE PUSH1 0x24 DUP3 ADD MSTORE PUSH1 0x44 ADD PUSH1 0x20 PUSH1 0x40 MLOAD DUP1 DUP4 SUB DUP2 DUP7 GAS STATICCALL ISZERO DUP1 ISZERO PUSH2 0x1B01 JUMPI RETURNDATASIZE PUSH1 0x0 DUP1 RETURNDATACOPY RETURNDATASIZE PUSH1 0x0 REVERT JUMPDEST POP POP POP POP PUSH1 0x40 MLOAD RETURNDATASIZE PUSH1 0x1F NOT PUSH1 0x1F DUP3 ADD AND DUP3 ADD DUP1 PUSH1 0x40 MSTORE POP DUP2 ADD SWAP1 PUSH2 0x1B25 SWAP2 SWAP1 PUSH2 0x208A JUMP JUMPDEST PUSH2 0x1B2F SWAP1 DUP3 PUSH2 0x20F2 JUMP JUMPDEST SWAP1 POP PUSH2 0x1F07 JUMP JUMPDEST PUSH1 0x0 SLOAD PUSH1 0x40 MLOAD PUSH4 0x39832431 PUSH1 0xE2 SHL DUP2 MSTORE PUSH1 0x1 PUSH1 0x1 PUSH1 0xA0 SHL SUB DUP7 DUP2 AND PUSH1 0x4 DUP4 ADD MSTORE SWAP1 SWAP2 AND SWAP1 PUSH4 0xE60C90C4 SWAP1 PUSH1 0x24 ADD PUSH1 0x20 PUSH1 0x40 MLOAD DUP1 DUP4 SUB DUP2 DUP7 GAS STATICCALL ISZERO DUP1 ISZERO PUSH2 0x1B80 JUMPI RETURNDATASIZE PUSH1 0x0 DUP1 RETURNDATACOPY RETURNDATASIZE PUSH1 0x0 REVERT JUMPDEST POP POP POP POP PUSH1 0x40 MLOAD RETURNDATASIZE PUSH1 0x1F NOT PUSH1 0x1F DUP3 ADD AND DUP3 ADD DUP1 PUSH1 0x40 MSTORE POP DUP2 ADD SWAP1 PUSH2 0x1BA4 SWAP2 SWAP1 PUSH2 0x208A JUMP JUMPDEST ISZERO DUP1 ISZERO SWAP1 PUSH2 0x1C28 JUMPI POP PUSH1 0x0 DUP1 SLOAD PUSH1 0x40 MLOAD PUSH4 0x39832431 PUSH1 0xE2 SHL DUP2 MSTORE PUSH1 0x1 PUSH1 0x1 PUSH1 0xA0 SHL SUB DUP8 DUP2 AND PUSH1 0x4 DUP4 ADD MSTORE SWAP1 SWAP2 AND SWAP1 PUSH4 0xE60C90C4 SWAP1 PUSH1 0x24 ADD PUSH1 0x20 PUSH1 0x40 MLOAD DUP1 DUP4 SUB DUP2 DUP7 GAS STATICCALL ISZERO DUP1 ISZERO PUSH2 0x1BF8 JUMPI RETURNDATASIZE PUSH1 0x0 DUP1 RETURNDATACOPY RETURNDATASIZE PUSH1 0x0 REVERT JUMPDEST POP POP POP POP PUSH1 0x40 MLOAD RETURNDATASIZE PUSH1 0x1F NOT PUSH1 0x1F DUP3 ADD AND DUP3 ADD DUP1 PUSH1 0x40 MSTORE POP DUP2 ADD SWAP1 PUSH2 0x1C1C SWAP2 SWAP1 PUSH2 0x208A JUMP JUMPDEST PUSH2 0x1C26 SWAP1 DUP5 PUSH2 0x2105 JUMP JUMPDEST GT JUMPDEST ISZERO PUSH2 0x1F07 JUMPI PUSH1 0x0 SLOAD PUSH1 0x40 MLOAD PUSH4 0x39832431 PUSH1 0xE2 SHL DUP2 MSTORE PUSH1 0x1 PUSH1 0x1 PUSH1 0xA0 SHL SUB DUP7 DUP2 AND PUSH1 0x4 DUP4 ADD MSTORE SWAP1 SWAP2 AND SWAP1 PUSH4 0xAABBB1BD SWAP1 DUP7 SWAP1 DUP4 SWAP1 PUSH4 0xE60C90C4 SWAP1 PUSH1 0x24 ADD PUSH1 0x20 PUSH1 0x40 MLOAD DUP1 DUP4 SUB DUP2 DUP7 GAS STATICCALL ISZERO DUP1 ISZERO PUSH2 0x1C81 JUMPI RETURNDATASIZE PUSH1 0x0 DUP1 RETURNDATACOPY RETURNDATASIZE PUSH1 0x0 REVERT JUMPDEST POP POP POP POP PUSH1 0x40 MLOAD RETURNDATASIZE PUSH1 0x1F NOT PUSH1 0x1F DUP3 ADD AND DUP3 ADD DUP1 PUSH1 0x40 MSTORE POP DUP2 ADD SWAP1 PUSH2 0x1CA5 SWAP2 SWAP1 PUSH2 0x208A JUMP JUMPDEST PUSH1 0x40 MLOAD PUSH1 0x1 PUSH1 0x1 PUSH1 0xE0 SHL SUB NOT PUSH1 0xE0 DUP6 SWAP1 SHL AND DUP2 MSTORE PUSH1 0x1 PUSH1 0x1 PUSH1 0xA0 SHL SUB SWAP1 SWAP3 AND PUSH1 0x4 DUP4 ADD MSTORE PUSH1 0x24 DUP3 ADD MSTORE PUSH1 0x44 ADD PUSH1 0x20 PUSH1 0x40 MLOAD DUP1 DUP4 SUB DUP2 DUP7 GAS STATICCALL ISZERO DUP1 ISZERO PUSH2 0x1CEE JUMPI RETURNDATASIZE PUSH1 0x0 DUP1 RETURNDATACOPY RETURNDATASIZE PUSH1 0x0 REVERT JUMPDEST POP POP POP POP PUSH1 0x40 MLOAD RETURNDATASIZE PUSH1 0x1F NOT PUSH1 0x1F DUP3 ADD AND DUP3 ADD DUP1 PUSH1 0x40 MSTORE POP DUP2 ADD SWAP1 PUSH2 0x1D12 SWAP2 SWAP1 PUSH2 0x208A JUMP JUMPDEST PUSH2 0x1D1C SWAP1 DUP3 PUSH2 0x20F2 JUMP JUMPDEST PUSH1 0x0 SLOAD PUSH1 0x40 MLOAD PUSH4 0x36E028A3 PUSH1 0xE2 SHL DUP2 MSTORE PUSH1 0x1 PUSH1 0x1 PUSH1 0xA0 SHL SUB DUP8 DUP2 AND PUSH1 0x4 DUP4 ADD MSTORE SWAP3 SWAP4 POP SWAP2 AND SWAP1 PUSH4 0xDB80A28C SWAP1 PUSH1 0x24 ADD PUSH1 0x20 PUSH1 0x40 MLOAD DUP1 DUP4 SUB DUP2 DUP7 GAS STATICCALL ISZERO DUP1 ISZERO PUSH2 0x1D68 JUMPI RETURNDATASIZE PUSH1 0x0 DUP1 RETURNDATACOPY RETURNDATASIZE PUSH1 0x0 REVERT JUMPDEST POP POP POP POP PUSH1 0x40 MLOAD RETURNDATASIZE PUSH1 0x1F NOT PUSH1 0x1F DUP3 ADD AND DUP3 ADD DUP1 PUSH1 0x40 MSTORE POP DUP2 ADD SWAP1 PUSH2 0x1D8C SWAP2 SWAP1 PUSH2 0x208A JUMP JUMPDEST ISZERO DUP1 ISZERO SWAP1 PUSH2 0x1E10 JUMPI POP PUSH1 0x0 DUP1 SLOAD PUSH1 0x40 MLOAD PUSH4 0x36E028A3 PUSH1 0xE2 SHL DUP2 MSTORE PUSH1 0x1 PUSH1 0x1 PUSH1 0xA0 SHL SUB DUP8 DUP2 AND PUSH1 0x4 DUP4 ADD MSTORE SWAP1 SWAP2 AND SWAP1 PUSH4 0xDB80A28C SWAP1 PUSH1 0x24 ADD PUSH1 0x20 PUSH1 0x40 MLOAD DUP1 DUP4 SUB DUP2 DUP7 GAS STATICCALL ISZERO DUP1 ISZERO PUSH2 0x1DE0 JUMPI RETURNDATASIZE PUSH1 0x0 DUP1 RETURNDATACOPY RETURNDATASIZE PUSH1 0x0 REVERT JUMPDEST POP POP POP POP PUSH1 0x40 MLOAD RETURNDATASIZE PUSH1 0x1F NOT PUSH1 0x1F DUP3 ADD AND DUP3 ADD DUP1 PUSH1 0x40 MSTORE POP DUP2 ADD SWAP1 PUSH2 0x1E04 SWAP2 SWAP1 PUSH2 0x208A JUMP JUMPDEST PUSH2 0x1E0E SWAP1 DUP5 PUSH2 0x2105 JUMP JUMPDEST GT JUMPDEST ISZERO PUSH2 0x1F07 JUMPI PUSH1 0x0 SLOAD PUSH1 0x40 MLOAD PUSH4 0x36E028A3 PUSH1 0xE2 SHL DUP2 MSTORE PUSH1 0x1 PUSH1 0x1 PUSH1 0xA0 SHL SUB DUP7 DUP2 AND PUSH1 0x4 DUP4 ADD MSTORE SWAP1 SWAP2 AND SWAP1 PUSH4 0xAABBB1BD SWAP1 DUP7 SWAP1 DUP4 SWAP1 PUSH4 0xDB80A28C SWAP1 PUSH1 0x24 ADD PUSH1 0x20 PUSH1 0x40 MLOAD DUP1 DUP4 SUB DUP2 DUP7 GAS STATICCALL ISZERO DUP1 ISZERO PUSH2 0x1E69 JUMPI RETURNDATASIZE PUSH1 0x0 DUP1 RETURNDATACOPY RETURNDATASIZE PUSH1 0x0 REVERT JUMPDEST POP POP POP POP PUSH1 0x40 MLOAD RETURNDATASIZE PUSH1 0x1F NOT PUSH1 0x1F DUP3 ADD AND DUP3 ADD DUP1 PUSH1 0x40 MSTORE POP DUP2 ADD SWAP1 PUSH2 0x1E8D SWAP2 SWAP1 PUSH2 0x208A JUMP JUMPDEST PUSH1 0x40 MLOAD PUSH1 0x1 PUSH1 0x1 PUSH1 0xE0 SHL SUB NOT PUSH1 0xE0 DUP6 SWAP1 SHL AND DUP2 MSTORE PUSH1 0x1 PUSH1 0x1 PUSH1 0xA0 SHL SUB SWAP1 SWAP3 AND PUSH1 0x4 DUP4 ADD MSTORE PUSH1 0x24 DUP3 ADD MSTORE PUSH1 0x44 ADD PUSH1 0x20 PUSH1 0x40 MLOAD DUP1 DUP4 SUB DUP2 DUP7 GAS STATICCALL ISZERO DUP1 ISZERO PUSH2 0x1ED6 JUMPI RETURNDATASIZE PUSH1 0x0 DUP1 RETURNDATACOPY RETURNDATASIZE PUSH1 0x0 REVERT JUMPDEST POP POP POP POP PUSH1 0x40 MLOAD RETURNDATASIZE PUSH1 0x1F NOT PUSH1 0x1F DUP3 ADD AND DUP3 ADD DUP1 PUSH1 0x40 MSTORE POP DUP2 ADD SWAP1 PUSH2 0x1EFA SWAP2 SWAP1 PUSH2 0x208A JUMP JUMPDEST PUSH2 0x1F04 SWAP1 DUP3 PUSH2 0x20F2 JUMP JUMPDEST SWAP1 POP JUMPDEST PUSH1 0x0 SLOAD PUSH1 0x40 MLOAD PUSH4 0x1ED6380F PUSH1 0xE0 SHL DUP2 MSTORE PUSH1 0x1 PUSH1 0x1 PUSH1 0xA0 SHL SUB DUP7 DUP2 AND PUSH1 0x4 DUP4 ADD MSTORE DUP4 SWAP3 AND SWAP1 PUSH4 0x1ED6380F SWAP1 PUSH1 0x24 ADD PUSH1 0x20 PUSH1 0x40 MLOAD DUP1 DUP4 SUB DUP2 DUP7 GAS STATICCALL ISZERO DUP1 ISZERO PUSH2 0x1F51 JUMPI RETURNDATASIZE PUSH1 0x0 DUP1 RETURNDATACOPY RETURNDATASIZE PUSH1 0x0 REVERT JUMPDEST POP POP POP POP PUSH1 0x40 MLOAD RETURNDATASIZE PUSH1 0x1F NOT PUSH1 0x1F DUP3 ADD AND DUP3 ADD DUP1 PUSH1 0x40 MSTORE POP DUP2 ADD SWAP1 PUSH2 0x1F75 SWAP2 SWAP1 PUSH2 0x208A JUMP JUMPDEST PUSH2 0x1F7F SWAP2 SWAP1 PUSH2 0x20F2 JUMP JUMPDEST SWAP5 SWAP4 POP POP POP POP JUMP JUMPDEST PUSH1 0x0 DUP1 SLOAD PUSH1 0x40 DUP1 MLOAD PUSH4 0x2A57C76B PUSH1 0xE2 SHL DUP2 MSTORE SWAP1 MLOAD PUSH2 0x2724 SWAP3 PUSH1 0x1 PUSH1 0x1 PUSH1 0xA0 SHL SUB AND SWAP2 PUSH4 0xA95F1DAC SWAP2 PUSH1 0x4 DUP1 DUP4 ADD SWAP3 PUSH1 0x20 SWAP3 SWAP2 SWAP1 DUP3 SWAP1 SUB ADD DUP2 DUP7 GAS STATICCALL ISZERO DUP1 ISZERO PUSH2 0x1FD3 JUMPI RETURNDATASIZE PUSH1 0x0 DUP1 RETURNDATACOPY RETURNDATASIZE PUSH1 0x0 REVERT JUMPDEST POP POP POP POP PUSH1 0x40 MLOAD RETURNDATASIZE PUSH1 0x1F NOT PUSH1 0x1F DUP3 ADD AND DUP3 ADD DUP1 PUSH1 0x40 MSTORE POP DUP2 ADD SWAP1 PUSH2 0x1FF7 SWAP2 SWAP1 PUSH2 0x208A JUMP JUMPDEST PUSH2 0x824 SWAP1 PUSH2 0x2710 PUSH2 0x20B9 JUMP JUMPDEST PUSH1 0x0 PUSH1 0x20 DUP3 DUP5 SUB SLT ISZERO PUSH2 0x2015 JUMPI PUSH1 0x0 DUP1 REVERT JUMPDEST DUP2 CALLDATALOAD PUSH1 0x1 PUSH1 0x1 PUSH1 0xA0 SHL SUB DUP2 AND DUP2 EQ PUSH2 0x202C JUMPI PUSH1 0x0 DUP1 REVERT JUMPDEST SWAP4 SWAP3 POP POP POP JUMP JUMPDEST PUSH1 0x0 JUMPDEST DUP4 DUP2 LT ISZERO PUSH2 0x204E JUMPI DUP2 DUP2 ADD MLOAD DUP4 DUP3 ADD MSTORE PUSH1 0x20 ADD PUSH2 0x2036 JUMP JUMPDEST POP POP PUSH1 0x0 SWAP2 ADD MSTORE JUMP JUMPDEST PUSH1 0x20 DUP2 MSTORE PUSH1 0x0 DUP3 MLOAD DUP1 PUSH1 0x20 DUP5 ADD MSTORE PUSH2 0x2076 DUP2 PUSH1 0x40 DUP6 ADD PUSH1 0x20 DUP8 ADD PUSH2 0x2033 JUMP JUMPDEST PUSH1 0x1F ADD PUSH1 0x1F NOT AND SWAP2 SWAP1 SWAP2 ADD PUSH1 0x40 ADD SWAP3 SWAP2 POP POP JUMP JUMPDEST PUSH1 0x0 PUSH1 0x20 DUP3 DUP5 SUB SLT ISZERO PUSH2 0x209C JUMPI PUSH1 0x0 DUP1 REVERT JUMPDEST POP MLOAD SWAP2 SWAP1 POP JUMP JUMPDEST PUSH4 0x4E487B71 PUSH1 0xE0 SHL PUSH1 0x0 MSTORE PUSH1 0x11 PUSH1 0x4 MSTORE PUSH1 0x24 PUSH1 0x0 REVERT JUMPDEST DUP1 DUP3 MUL DUP2 ISZERO DUP3 DUP3 DIV DUP5 EQ OR PUSH2 0x727 JUMPI PUSH2 0x727 PUSH2 0x20A3 JUMP JUMPDEST PUSH1 0x0 DUP3 PUSH2 0x20ED JUMPI PUSH4 0x4E487B71 PUSH1 0xE0 SHL PUSH1 0x0 MSTORE PUSH1 0x12 PUSH1 0x4 MSTORE PUSH1 0x24 PUSH1 0x0 REVERT JUMPDEST POP DIV SWAP1 JUMP JUMPDEST DUP1 DUP3 ADD DUP1 DUP3 GT ISZERO PUSH2 0x727 JUMPI PUSH2 0x727 PUSH2 0x20A3 JUMP JUMPDEST DUP2 DUP2 SUB DUP2 DUP2 GT ISZERO PUSH2 0x727 JUMPI PUSH2 0x727 PUSH2 0x20A3 JUMP JUMPDEST PUSH4 0x4E487B71 PUSH1 0xE0 SHL PUSH1 0x0 MSTORE PUSH1 0x41 PUSH1 0x4 MSTORE PUSH1 0x24 PUSH1 0x0 REVERT JUMPDEST PUSH1 0x0 PUSH1 0x20 DUP3 DUP5 SUB SLT ISZERO PUSH2 0x2140 JUMPI PUSH1 0x0 DUP1 REVERT JUMPDEST DUP2 MLOAD PUSH8 0xFFFFFFFFFFFFFFFF DUP1 DUP3 GT ISZERO PUSH2 0x2158 JUMPI PUSH1 0x0 DUP1 REVERT JUMPDEST DUP2 DUP5 ADD SWAP2 POP DUP5 PUSH1 0x1F DUP4 ADD SLT PUSH2 0x216C JUMPI PUSH1 0x0 DUP1 REVERT JUMPDEST DUP2 MLOAD DUP2 DUP2 GT ISZERO PUSH2 0x217E JUMPI PUSH2 0x217E PUSH2 0x2118 JUMP JUMPDEST PUSH1 0x40 MLOAD PUSH1 0x1F DUP3 ADD PUSH1 0x1F NOT SWAP1 DUP2 AND PUSH1 0x3F ADD AND DUP2 ADD SWAP1 DUP4 DUP3 GT DUP2 DUP4 LT OR ISZERO PUSH2 0x21A6 JUMPI PUSH2 0x21A6 PUSH2 0x2118 JUMP JUMPDEST DUP2 PUSH1 0x40 MSTORE DUP3 DUP2 MSTORE DUP8 PUSH1 0x20 DUP5 DUP8 ADD ADD GT ISZERO PUSH2 0x21BF JUMPI PUSH1 0x0 DUP1 REVERT JUMPDEST PUSH2 0x21D0 DUP4 PUSH1 0x20 DUP4 ADD PUSH1 0x20 DUP9 ADD PUSH2 0x2033 JUMP JUMPDEST SWAP8 SWAP7 POP POP POP POP POP POP POP JUMP JUMPDEST PUSH1 0x0 PUSH1 0x20 DUP3 DUP5 SUB SLT ISZERO PUSH2 0x21ED JUMPI PUSH1 0x0 DUP1 REVERT JUMPDEST DUP2 MLOAD DUP1 ISZERO ISZERO DUP2 EQ PUSH2 0x202C JUMPI PUSH1 0x0 DUP1 REVERT INVALID LOG2 PUSH5 0x6970667358 0x22 SLT KECCAK256 PUSH19 0x78E9A4FDCCD9D49944C64CB62BE99CC2AA17A7 PUSH30 0x3E4C815E7CF6F381B69DA864736F6C634300081100330000000000000000 "
		},
		"gasEstimates": {
			"creation": {
				"codeDepositCost": "1751000",
				"executionCost": "infinite",
				"totalCost": "infinite"
			},
			"external": {
				"calculateCycleReward()": "infinite",
				"deb0xContractBalance()": "4965",
				"getAccWithdrawableStake(address)": "infinite",
				"getCurrentCycle()": "infinite",
				"getKey(address)": "infinite",
				"getUnclaimedFees(address)": "infinite",
				"getUnclaimedRewards(address)": "infinite"
			}
		},
		"methodIdentifiers": {
			"calculateCycleReward()": "d6aef1c6",
			"deb0xContractBalance()": "e10bf06a",
			"getAccWithdrawableStake(address)": "cdd5c81f",
			"getCurrentCycle()": "be26ed7f",
			"getKey(address)": "93790f44",
			"getUnclaimedFees(address)": "bf992dea",
			"getUnclaimedRewards(address)": "69a69e29"
		}
	},
	"abi": [
		{
			"inputs": [
				{
					"internalType": "contract Deb0x",
					"name": "_deb0x",
					"type": "address"
				}
			],
			"stateMutability": "nonpayable",
			"type": "constructor"
		},
		{
			"inputs": [],
			"name": "calculateCycleReward",
			"outputs": [
				{
					"internalType": "uint256",
					"name": "",
					"type": "uint256"
				}
			],
			"stateMutability": "view",
			"type": "function"
		},
		{
			"inputs": [],
			"name": "deb0xContractBalance",
			"outputs": [
				{
					"internalType": "uint256",
					"name": "",
					"type": "uint256"
				}
			],
			"stateMutability": "view",
			"type": "function"
		},
		{
			"inputs": [
				{
					"internalType": "address",
					"name": "staker",
					"type": "address"
				}
			],
			"name": "getAccWithdrawableStake",
			"outputs": [
				{
					"internalType": "uint256",
					"name": "",
					"type": "uint256"
				}
			],
			"stateMutability": "view",
			"type": "function"
		},
		{
			"inputs": [],
			"name": "getCurrentCycle",
			"outputs": [
				{
					"internalType": "uint256",
					"name": "",
					"type": "uint256"
				}
			],
			"stateMutability": "view",
			"type": "function"
		},
		{
			"inputs": [
				{
					"internalType": "address",
					"name": "account",
					"type": "address"
				}
			],
			"name": "getKey",
			"outputs": [
				{
					"internalType": "string",
					"name": "",
					"type": "string"
				}
			],
			"stateMutability": "view",
			"type": "function"
		},
		{
			"inputs": [
				{
					"internalType": "address",
					"name": "account",
					"type": "address"
				}
			],
			"name": "getUnclaimedFees",
			"outputs": [
				{
					"internalType": "uint256",
					"name": "",
					"type": "uint256"
				}
			],
			"stateMutability": "view",
			"type": "function"
		},
		{
			"inputs": [
				{
					"internalType": "address",
					"name": "account",
					"type": "address"
				}
			],
			"name": "getUnclaimedRewards",
			"outputs": [
				{
					"internalType": "uint256",
					"name": "",
					"type": "uint256"
				}
			],
			"stateMutability": "view",
			"type": "function"
		}
	]
}